:020000040800F2
:1000000000800120451000080510000807100008B6
:10001000091000080B1000080D1000080000000077
:100020000000000000000000000000000F100008A9
:10003000111000080000000013100008151000083F
:1000400095100008951000089510000895100008FC
:1000500095100008951000089510000895100008EC
:1000600095100008951000089510000895100008DC
:100070009510000819100008951000089510000848
:1000800095100008951000089510000895100008BC
:1000900095100008951000089510000895100008AC
:1000A000951000089510000895100008951000089C
:1000B000951000089510000895100008951000088C
:1000C000951000089510000895100008951000087C
:1000D00095100008251000089510000895100008DC
:1000E000951000089510000895100008951000085C
:1000F000951000089510000895100008951000084C
:10010000951000089510000895100008951000083B
:10011000951000089510000895100008951000082B
:10012000951000089510000895100008951000081B
:10013000951000089510000895100008951000080B
:1001400095100008951000089510000895100008FB
:1001500095100008951000089510000895100008EB
:1001600095100008951000089510000895100008DB
:1001700095100008951000089510000895100008CB
:1001800095100008951000089510000895100008BB
:100190009510000800000000951000089510000858
:1001A000951000089510000895100008951000089B
:1001B000951000089510000895100008951000088B
:1001C000951000089510000895100008951000087B
:1001D000951000089510000810B5054C237833B928
:1001E000044B13B10448AFF300800123237010BD0A
:1001F00030000020000000002030000808B5034B4C
:100200001BB103490348AFF3008008BD00000000A4
:10021000340000202030000853B94AB9002908BF33
:1002200000281CBF4FF0FF314FF0FF3000F088B9BD
:10023000ADF1080C6DE904CE00F006F8DDF804E03D
:10024000DDE9022304B070472DE9F047089D8E4692
:1002500004468846002B4AD18A42174662D9B2FA30
:1002600082F64EB1C6F1200301FA06F820FA03F334
:10027000B74043EA0808B4404FEA174E1FFA87FC1C
:10028000B8FBFEF1230C0EFB118843EA084301FB87
:100290000CF29A4209D9FB1801F1FF3080F0EA8094
:1002A0009A4240F2E78002393B449A1AA3B2B2FB69
:1002B000FEF00EFB102243EA024300FB0CFC9C45BF
:1002C00009D9FB1800F1FF3280F0D6809C4540F23E
:1002D000D3803B44023840EA0140A3EB0C030021E9
:1002E0001DB1F3400022C5E90032BDE8F0878B4222
:1002F00005D90DB1C5E9000100210846F5E7B3FABB
:1003000083F1002946D1734502D3824200F2058170
:10031000841A6EEB030201209046002DE5D0C5E95A
:100320000048E2E7002A00F09080B2FA82F6002E40
:1003300040F0A4808A1A030C4FEA174E80B2BCB278
:100340000121B2FBFEFC0EFB1C2243EA024304FB2C
:100350000CF29A4207D9FB180CF1FF3802D29A42EC
:1003600000F2E080C4469B1AB3FBFEF20EFB123390
:1003700040EA034302FB04F49C4207D9FB1802F154
:10038000FF3002D29C4200F2CA8002461B1B42EAA6
:100390000C40A5E7C1F120068B4022FA06F71F4367
:1003A0000EFA01F420FA06F32EFA06FE4FEA174978
:1003B000234300FA01F81FFA87FCBEFBF9F01C0C7E
:1003C00009FB10EE44EA0E4400FB0CFEA64502FABF
:1003D00001F209D93C1900F1FF3A80F09C80A64552
:1003E00040F2998002383C44A4EB0E041FFA83FECD
:1003F000B4FBF9F309FB13444EEA044403FB0CFC81
:10040000A44508D93C1903F1FF3E80F08280A44541
:100410007FD9023B3C4443EA0040A4EB0C04A0FB20
:1004200002EC64457346E14662D35FD05DB1B8EB40
:10043000030264EB090404FA06F622FA01F31E43F0
:10044000CC40C5E9006400214FE7B1FBF2FC010C90
:1004500041EA0E4180B240EA01423B4638463C4602
:10046000B846BE462026B1FBF7F1A2EB080241EAEE
:100470000C4166E7014618E710462CE7C6F120025A
:100480002EFA02F3B740B14020FA02F24FEA174EBB
:100490000A43B3FBFEF8BCB20EFB1833110C41EA61
:1004A000034108FB04F9B04089454FEA104380B28C
:1004B0003ED9791808F1FF3C01D289451FD8A1EB3C
:1004C0000901B1FBFEF909FB04F80EFB191192B208
:1004D00042EA0142424529D2BA1809F1FF31C4D299
:1004E0004245C2D2A9F102013A44BEE7F0459DD28D
:1004F000BEEB02036CEB070C0138E14696E7A7EB75
:1005000009094944A8F1020CB1FBFEF909FB04F802
:10051000DBE773467FE7504666E70846FDE63B4467
:10052000023A33E7ACF1020C3B441CE749469CE736
:10053000A1EB0901C446B1FBFEF909FB04F8C4E7CD
:10054000704700BF30B5084D0A4411F8013B5840D0
:10055000082340F300042C40013B84EA5000F8D10A
:100560008A42F2D130BD00BF2083B8ED07B5094BF8
:100570000190186838B104224FF0FF330DEB0201EF
:1005800002F04EFB03E0044B18680028F3D103B0DF
:100590005DF804FB540000205000002007B50A4B12
:1005A0008DF80700186838B14FF0FF3301220DF1C4
:1005B000070102F035FB03E0044B18680028F3D173
:1005C00003B05DF804FB00BF540000205000002081
:1005D000254B70B5D3E9006500F034FA002841D00E
:1005E000224B186808B101F0A9FF214B9A6802F06C
:1005F0000C02042A0AD09A6822F0030242F0010297
:100600009A609A6802F00C02042AFAD11A6822F061
:1006100080721A601C6814F00074FBD100F03CFD7D
:1006200072B64FF0E0234FF0FF321C615C619C61B9
:10063000A30003F1604303F561430134082CC3F8C0
:100640008020C3F88021F3D10A4B074A9A6086F3D1
:100650000888BFF34F8FBFF36F8F002383F3108899
:10066000A847FEE770BD00BF004000085000002012
:100670000010024000ED00E013B5044607480422D4
:10068000006841F288330DEB020102F024FB18B937
:10069000019B236002B010BD0120FBE75400002045
:1006A0002DE9F04FD3B016460290102207910EA804
:1006B000002102F089FC00F0F7FA00F1006303F575
:1006C00080430093029B029A13F0FF03069314BF2A
:1006D0000123002303EB1223039300250AABFF221F
:1006E000A84227D14FF00009CDE90499009B01935E
:1006F000CA464F46CB46039B53451FD15FB1FF23EC
:10070000BD4200F28E8001982A460AA900F01EFA26
:100710000446002871D1049B079ADB43934200F002
:1007200084801723337000F01FFB0124204653B050
:10073000BDE8F08F03F8012B0135D1E7039B0AF1E7
:10074000010A534521D1069B002B14BF1A464FF4D2
:10075000807245480892006841F2883312A902F07D
:10076000BAFA089A044698B11323337002993F48A5
:1007700000F0CEFA24B9079B83426BD01523337067
:1007800000F0F2FA00F09AFACFE74FF48072E0E757
:100790000498089212A9FFF7D5FE089A049002EB7C
:1007A0000B030DF1480808935B469D4298F8004002
:1007B0000BF1010B0DD90EAAD454089B9B4508F1EF
:1007C0000108F1D1039B534528D07920FFF7E6FEBD
:1007D00091E7059801224146FFF7B4FE7B1C0AAA67
:1007E0009D42D455059017D1019809932A460AA92C
:1007F00000F0ACF9099B044608B11423B5E7019A4F
:100800002A440192FF210AAAA34201D80027D4E773
:1008100002F8011B0134F7E71F46CEE74FF001094C
:1008200069E70AAAD35501376AE7029B0098591B6A
:1008300000F06EFA059BDB43834201D0152371E77C
:100840000A482A460EA900F081F9044600288DD0F6
:10085000142367E700F088FAB9F1000F3FF466AFA0
:100860004420FFF79BFE61E7540000200040000891
:100870002DE9F04F87B000270D4680468DF80E70A9
:1008800000F062FC064600F0DDF8DFF8ACA1DFF80E
:10089000AC91654BCAF800700446C9F800801D6031
:1008A000ADB12A68614B9A4211D12F607A20FFF7CF
:1008B00075FEDFF88CB12546374655B300F044FC91
:1008C000C31BB3F5FA5F07D3FFF782FEF6E70CB15F
:1008D000FFF77EFE0024E9E707F5FA531B1A01250E
:1008E000D9F8000038B301220DF10E0102F0F3F93E
:1008F00008BBD9F80030CAF800309DF80E304A2BFA
:1009000020D0552B1ED0422BD7D17A20FFF746FEA0
:1009100000244FF0FF3364B140F6B73500F014FC0B
:10092000831BAB4202D9FFF753FEF7E706F6B83355
:100930001B1A0025D4E7002DC6D1002CE8D0FFF704
:1009400047FEE6E71CB100F0FFFB25460746002303
:100950009DF80E80CDE9043300F0A6F9B8F14A0FF6
:1009600001904FF01F008DF80F0051D0B8F1550FD6
:1009700007D17920FFF712FE04A8FFF77DFE18B11A
:100980001020FFF70BFEC0E705A8FFF775FE002853
:10099000F6D1DDF81080019B434512D8244BB3F803
:1009A000E0204FF6FF739A421FBF224BDBF8E02591
:1009B00003EA8223A3F5804308BF4FF4F823984548
:1009C00001D91120DDE77920FFF7E8FD404600F06E
:1009D0006DF808B11220D4E700F0B6F95220FFF705
:1009E000DDFD05990DF10F024046FFF759FEA8B154
:1009F0009DF80F402046FFF7D1FD142C85D100F063
:100A00009DF9FFF7B3FD00F0A9F9FFF7AFFD7CE713
:100A100000F018F828B17920FFF7C0FDFFF7D8FDE6
:100A20004BE71620ADE700BF4C000020AD1007B02B
:100A30000075FF1F00FCFF03540000205000002041
:100A40000070FF1F144BD3E90020144BB3F8E010E3
:100A50004FF6FF73994217BF114B124BD3F8E015B5
:100A6000114B10B50C4C18BF03EA812320F0010193
:100A700018BF03F10063A14202F160420AD3994218
:100A800008D200F00100B2F5C03F88BF002000F09E
:100A9000010010BD0020F6E7004000080075FF1FB0
:100AA0000070FF1F0000080800FCFF0310B5214A7A
:100AB000214C002386B013602360204B1A6802F497
:100AC0008062002A1E4A14BF0121002111701EBF3E
:100AD0001A6822F480621A6000F058FD102200218A
:100AE00002A802F071FA00230193164BB3F8E0203C
:100AF0004FF6FF739A421BBF134BD3F8E0354FF408
:100B00008073C3F34E0301210822CDE90312083B91
:100B100001A90DEB0200059300F0F4FD10B9019B53
:100B2000013305D000F050FD206000F041FD0120B0
:100B300006B010BD5C0000206000002000200240D4
:100B4000580000200075FF1F0070FF1FF8B54C4BC8
:100B50001B6A13F4800F0CBF1023082300297ED0DA
:100B60009A427CD1B0FBF2F302FB1303002B7DD140
:100B7000141803461D78FF2D7AD10133A342F9D111
:100B8000404B414C1860002323603D4B9D6945F06C
:100B900070459D614CF2FB351D61EFF3108672B616
:100BA0003A4D1F69FF0333D41D694CF2FA373D40BB
:100BB00018BF1D611D69ED0744BF01251D61304D42
:100BC0006B6923F4802323F001036B616B6943F0AD
:100BD00001036B610D684B680560BFF36F8F102ACE
:100BE000436007D18A68CB68BFF36F8F8260BFF321
:100BF0006F8FC360254A224B1969C90310D41A6943
:100C00004CF2FA310A4023D0226001251A610CE02F
:100C1000013DC6D11E4B236003258EB12846F8BD89
:100C2000013AE9D11B4B23600325154A536923F090
:100C300001035361FDB123680BB9174B236006B95B
:100C400062B62368002BE9D100F0BEFC2060E5E726
:100C50001A69D20744BF01221A610025E5E70F4B4C
:100C6000084A1060084A01251360D7E70C4BF7E7E4
:100C700018460C4BF4E7002ED0D162B6CEE700BF89
:100C8000002002405C0000206000002081841E00E3
:100C9000010000800200008003000080040000804A
:100CA0000500008006000080034B1B6A13F4800FD0
:100CB0000CBF1020082070470020024010B586B0FD
:100CC00010220021002402A802F07EF9019400F015
:100CD0005DFC0822012301A90DEB02000294CDE97D
:100CE0000332059300F00EFD044610B9019B013359
:100CF00009D000F069FC054B186000F059FC012494
:100D0000204606B010BD00F053FCF9E7600000205B
:100D100030B5094D01440023814201D1D84330BD93
:100D200010F8012B5340082243F300042C40013AF1
:100D300084EA5303F8D1EFE72083B8ED014B18683C
:100D4000704700BF60000020024A00231360024A7F
:100D500013607047600000205C000020014B1868A1
:100D6000704700BF5C00002009490B7873B1094B44
:100D70001A6842F480521A601A6822F480521A608B
:100D80001A6842F480621A6000230B7000F010BCF5
:100D9000580000200020024010B594B038220021F5
:100DA00006A802F011F91422002101A802F00CF9A2
:100DB000002000F065FE40224FF480710223CDE94F
:100DC00009120424552206A8CDE90D33CDE90F42BE
:100DD000CDE911330693139300F0B2FE08B172B659
:100DE000FEE7CDE903000F2203230590214601A869
:100DF000CDE9012301F0E6F808B172B6FEE714B0C0
:100E000010BD00001FB500F083F9FFF7C5FF2A4BA6
:100E10002A4CDA6C42F00102DA64DA6C02F0010268
:100E20000392039A9A6C42F004029A649A6C02F05C
:100E300004020192019A9A6C42F001029A649B6C3E
:100E4000002203F00103114602930D20029B00F0E3
:100E500093F90D2000F0C2F9194A4FF46123C4E957
:100E60000023204600230C22C4E90233C4E90523F1
:100E7000C4E90733C4E90933236101F0F5FF0146F2
:100E800008B172B6FEE7204602F05EF8014608B1EE
:100E900072B6FEE7204602F077F808B172B6FEE7B8
:100EA000204602F036F808B172B6FEE70549204642
:100EB000FFF7DEFCFEE700BF00100240C400002088
:100EC000003801400000002072B6FEE70B4B1A6E9E
:100ED00042F0010282B01A661A6E02F0010200921C
:100EE000009A9A6D42F080529A659B6D03F0805390
:100EF0000193019B02B000F01BBE00BF0010024036
:100F000070B59CB006461422002102A802F05CF8DD
:100F10005422002107A802F057F83268264B9A4263
:100F200047D1012307A8079301F064F908B1FFF73F
:100F3000CBFF224B224C1A6E42F480421A661A6E84
:100F400002F480420092009ADA6C42F00102DA6404
:100F5000DB6C03F001030193019B4FF4C062022399
:100F60000025CDE9022302A907234FF09040069304
:100F7000CDE9045500F036FC124925621923C4E975
:100F800000131023C4E9023520468023C4E9043548
:100F9000C4E9065500F07AF908B1FFF795FF002281
:100FA0002520F4671146A66200F0E6F8252000F03F
:100FB00015F91CB070BD00BF0038014000100240A0
:100FC000640000203000024002680C4B9A4210B5C9
:100FD000044612D10A4A136E23F4804313664FF479
:100FE000C0614FF0904000F0CBFCE06F00F0BCF926
:100FF000BDE81040252000F0FFB810BD00380140CA
:1010000000100240FEE7FEE7FEE7FEE7FEE770475E
:101010007047704700F08CB8014800F06CBA00BF10
:1010200064000020014801F0B1BA00BFC4000020F4
:10103000034AD2F8883043F47003C2F8883070470E
:1010400000ED00E00D488546FFF7F2FF0C480D4922
:101050000D4A002302E0D458C4500433C4188C4213
:10106000F9D30A4A0A4C002301E013600432A24279
:10107000FBD301F0B1FFFFF7C5FEFEE700800120C2
:1010800004000020300000208830000830000020DC
:101090005C010020FEE7704710B5094B4FF0FF32AE
:1010A00000249A639C631A641C649A629C62DA62EC
:1010B000DC621A631C63FFF7EEFF204610BD00BF21
:1010C0000010024038B50F4B1A6805460AB90120D6
:1010D00038BD4FF47A73B3FBF2F30B4A1068B0FBE0
:1010E000F3F000F09BF804460028F0D10F2DEED865
:1010F000024629464FF0FF3000F03EF8034B2046F1
:101100001D60E5E708000020040000200C0000201E
:1011100010B5032000F01EF80F20FFF7D3FF0446A0
:1011200018B9FFF7D3FE204610BD0124FBE70000ED
:10113000034A0449136809680B441360704700BFF1
:101140005801002008000020014B1868704700BFBC
:10115000580100200749CA6822F4E0620302120421
:1011600003F4E063120C134343F0BF6343F4003312
:10117000CB60704700ED00E0164B30B5DC68C4F37F
:101180000224C4F10703251D042B28BF0423062DC8
:101190004FF0FF358CBF033C002405FA03F321EA2E
:1011A0000303A54022EA0502A340002843EA020304
:1011B000ACBF00F16040084A4FEA0313B8BF00F02B
:1011C0000F00DBB2AABF00F56140135480F8003372
:1011D00030BD00BF00ED00E014ED00E0002807DBAB
:1011E000044A4109012300F01F00834042F82130E6
:1011F000704700BF00E100E000280CDB430906490E
:1012000000F01F0020330122824041F82320BFF369
:101210004F8FBFF36F8F704700E100E00138B0F1EE
:10122000807F0BD24FF0E023054A5861F02182F80D
:1012300023100020072298611A617047012070472F
:1012400000ED00E00268D3B21421083BB3FBF1F3D8
:101250000A498A42416C8CBF094A0A4A21F00301BB
:101260000A4488BF08338264074AC26403F01F033C
:10127000012202FA03F30365704700BF070402402E
:1012800020080240000802408008024038B50028CB
:1012900058D002682C4B9A424FF0140146D82B4B81
:1012A0001344B3FBF1F32A499B00C0E91013022356
:1012B00080F82530D0E902430569116823432B43A8
:1012C00045692B4385692B43C5692B43056A6FF339
:1012D0000E112B430B431360FFF7B4FFB4F5804F9F
:1012E00004BF002343604368816C03F07F020A60FF
:1012F000D0E91314013B032B4C601ED8154B164943
:10130000816513449B000121013A01FA02F2002198
:101310004365C2651960114B5A6400230122C363FF
:1013200080F8243080F82520184638BD0C4B134433
:10133000B3FBF1F30B499B00B7E70023C0E915337A
:10134000C365EAE70120F0E707040240F8FFFDBFAC
:10135000000002403F8200104009024000090240A4
:10136000F8FBFDBF0004024038B5002841D00268F8
:10137000136823F0010313601F4B9A424FF01401CE
:1013800030D81E4B1344B3FBF1F31D499B00C0E959
:101390001013012403F01F0304FA03F30025156062
:1013A0004B60FFF74FFF836C41681D60D0E913323B
:1013B0005A604A1E032A06D8124B0B449B009440E5
:1013C0001D60114B5C640023C363C0E91533C0E9A1
:1013D0000B33C0E90D33C36580F8253080F8243025
:1013E000184638BD094B1344B3FBF1F308499B0081
:1013F000CDE70120F5E700BF07040240F8FFFDBF7D
:10140000000002403F82001000090240F8FBFDBFCF
:10141000000402400346002830D090F82520022A1C
:1014200009D00422C2630120012283F82520002272
:1014300083F8242070470268116821F001011160CF
:10144000116821F00E011160816C0A6822F480722B
:101450000A60D0E9100202F01F0101228A404260B6
:10146000D3E9132151605A6D32B1116821F48071B2
:101470001160D3E9162151600020D5E701207047A3
:1014800008B590F82530022B09D00423C36300224D
:10149000012380F8253080F82420184608BD036811
:1014A0001A6822F001021A601A6822F00E021A600D
:1014B000826C136823F480731360D0E9101303F077
:1014C0001F02012393404B60D0E913325A60436DF1
:1014D00033B11A6822F480721A60D0E916325A6069
:1014E000012380F82530002380F82430836B03B17A
:1014F00098470020D2E7016C426C036870B402F098
:101500001F020E681D680424944034420ED015F06A
:10151000040F0BD01A6892065EBF1A6822F004020C
:101520001A60036B4C6073B370BC1847022494407C
:10153000344212D015F0020F0FD01A68950606D467
:101540001A6822F00A021A60012380F8253000236D
:101550004C6080F82430C36AE5E7082494403442A4
:1015600011D02C070FD51C6824F00E041C60012339
:1015700003FA02F24A60C36380F82530002380F842
:101580002430436BCFE770BC70470000064B5A69AC
:10159000002ABFBF054A9A6002F188329A60BABF3A
:1015A0005869C00F002070470020024023016745A2
:1015B000044B5A6942F000425A615869C043C00F57
:1015C000704700BF00200240014B5868704700BFC1
:1015D0001000002070B50646FFF7B6FD0F4C05461B
:1015E0002369DA030BD423694CF2FA3213400DD08D
:1015F0000B494A681A434A600120236170BDFFF716
:10160000A3FD401BB042EBD90320F7E72369DB07BA
:1016100044BF012323610020F0E700BF0020024007
:10162000100000200D4B1A6A520211D5C10742BFAB
:101630005A6942F004025A61820703D55A6942F49A
:1016400000425A61054A536943F48033536170473D
:101650005A6942F4004242F00402F2E700200240DC
:101660000F4B1A6A12F4800F5A6913D122F40062E8
:101670005A615A69C00022F47E7200F4FF60104380
:1016800058615A6942F002025A615A6942F4803242
:101690005A617047C907E9D442F40062E8E700BF25
:1016A000002002401548037FDAB203F0FD03012B4E
:1016B00010D1134B196821F400711960196841F4B5
:1016C00000611960196821F400611960196841F41A
:1016D00000711960931E012B0CD8094B1A6842F453
:1016E00080521A601A6822F480521A601A6842F412
:1016F00080621A6000230377704700BF100000204B
:10170000002002402DE9F047334D2B78012B06468F
:1017100088465ED001274FF47A702F70FFF75AFF8A
:10172000044620BB2D4B68601A6812F4007F1A68CB
:1017300022D0510506D51A6822F480621A6003236C
:101740002B7700E02F773368012B1FD17068FFF7EC
:1017500069FF4FF47A70FFF73DFF204A536923F485
:10176000004323F0040304465361FFF79BFF00236B
:101770002B702046BDE8F087520505D51A6822F483
:1017800080621A600223DBE72877DCE74FF0FF3343
:10179000C8F80030B768DFF84490DFF844A0D6E915
:1017A00002321344BB42E0D971683846FFF758FF54
:1017B0004FF47A70FFF70EFFD9F8143003EA0A03EA
:1017C000C9F8143018B1C8F800700446CDE70137E5
:1017D000E5E70224CDE700BF100000200020024012
:1017E00005FCFFFF2DE9F74FDFF89091614C0023D6
:1017F0000A6832FA03F502D103B0BDE8F08F012583
:1018000005FA03FA1AEA020200F0A8804E68D1F83D
:1018100008C0032706F003054FEA430807FA08FE4D
:101820006F1E012F6FEA0E0E33D8876807EA0E0B82
:10183000CF6807FA08F747EA0B078760476827EA87
:101840000A0AC6F300179F4047EA0A074760C768BD
:101850000CFA08FC07EA0E074CEA0707022DC760DE
:101860001CD14FEAD30C00EB8C0C03F0070ADCF818
:1018700020704FEA8A0A4FF00F0B0BFA0AFB27EA97
:101880000B0B0F6907FA0AF747EA0B07CCF8207031
:1018900004E0032DDBD1BCF1010FD8D1076805FAB4
:1018A00008F507EA0E073D4316F4403F056055D0A2
:1018B000D9F8605045F00105C9F86050D9F860507A
:1018C00023F0030707F1804705F0010507F580378E
:1018D000019503F0030C019DBD684FEA8C0C4FF09D
:1018E0000F0E0EFA0CFEB0F1904F25EA0E0E37D017
:1018F000214DA84236D005F58065A84234D005F5C3
:101900008065A84232D005F58065A84230D005F543
:101910008065A84214BF0625052505FA0CF545EAA1
:101920000E05BD60A568D74316F4801F0CBF3D406F
:101930001543A560E56816F4001F0CBF3D40154334
:10194000E560656816F4003F0CBF3D4015436560D7
:101950002568F60354BF3D4015432560013347E732
:101960000025DAE70125D8E70225D6E70325D4E7E5
:101970000425D2E7000401400004004800100240A2
:101980002DE9F04F3C4C00224FF0010A4FF00F08B8
:101990004FF0030B31FA02F301D1BDE8F08F0AFAE0
:1019A00002FC1CEA01065AD022F0030505F180452D
:1019B00005F5803502F00307AB68BF0008FA07F9A8
:1019C000B0F1904F09EA030E4BD02C4B98424AD00D
:1019D00003F58063984248D003F58063984246D06F
:1019E00003F58063984244D003F58063984214BFA6
:1019F00006230523BB40734513D1236823EA06035E
:101A00002360636823EA06036360E36823EA06034E
:101A1000E360A36823EA0603A360AB6823EA090333
:101A2000AB60056853000BFA03F3D6081D4300EBC7
:101A30008606056002F00705376AAD0008FA05F56D
:101A400027EA05073762C56825EA0305C5604568CA
:101A500025EA0C054560856825EA030383600132A9
:101A600098E70023C6E70123C4E70223C2E7032364
:101A7000C0E70423BEE700BF0004014000040048A3
:101A8000284B1A6818BB02F4C062B2F5806FD3F815
:101A9000802022F48072C3F8802040D11A6822F49A
:101AA000C06242F400721A601F4A126832214A432F
:101AB0001E49B2FBF1F201325969490500D522B93C
:101AC0005B6958052BD503207047013AF4E7B0F560
:101AD000007F1FD102F4C062B2F5806FD3F880207E
:101AE00042F48072C3F8802019D11A6822F4C062CF
:101AF00042F400721A600C4A126832214A430B49C0
:101B0000B2FBF1F2013259694905D9D5002AD7D083
:101B1000013AF8E722F4C06242F480621A600020C1
:101B2000704700BF007000400400002040420F00DA
:101B3000024A936843F4804393607047007000400A
:101B40002DE9F341044618B9012002B0BDE8F08147
:101B50000368D90714D423689A0758D4236819074F
:101B600000F1A18023685A0700F1C88023689A0613
:101B700000F12F81E369002B40F05C810020E4E755
:101B80009F4DAB68EA6803F00C030C2B0AD102F0FE
:101B90000303032B08D12B689B03DCD56368002B60
:101BA000D9D1D1E7082BF5E76368B3F5803F10D1B1
:101BB0002B6843F480332B60FFF7C6FA06462B6888
:101BC0009F03C8D4FFF7C0FA801B6428F7D903200D
:101BD000BBE7B3F5A02F04D12B6843F480232B601F
:101BE000E6E72A6822F480322A602A6822F48022FA
:101BF0002A60002BE0D1FFF7A7FA06462B6899036D
:101C0000A9D5FFF7A1FA801B6428F7D9DFE77C4D3F
:101C1000AB68EA6803F00C030C2B17D102F0030346
:101C2000022B15D12B685A0502D5E368002B8BD007
:101C30006B68226923F0FE4343EA02636B60714BD9
:101C40001868FFF73FFA002888D07DE7042BE8E703
:101C5000E368BBB12B6843F480732B60FFF774FA21
:101C600006462B685B0507D56B68226923F0FE43A7
:101C700043EA02636B6071E7FFF766FA801B022894
:101C8000EFD9A4E72B6823F480732B60FFF75CFA8D
:101C900006462B685F057FF561AFFFF755FA801B9D
:101CA0000228F6D993E76369554D9BB1D5F8943076
:101CB00043F00103C5F89430FFF746FA0646D5F81D
:101CC00094309B073FF54EAFFFF73EFA801B02288A
:101CD000F5D97CE7D5F8943023F00103C5F89430AA
:101CE000FFF732FA0646D5F894309F077FF53AAFF2
:101CF000FFF72AFA801B0228F5D968E7404DAB6D43
:101D0000D80027D4AB6D43F08053AB65AB6D03F0C7
:101D100080530193019B01273B4E3368D9051BD5A6
:101D2000A368012B29D1D5F8903043F00103C5F801
:101D30009030FFF709FA41F288380646D5F890301E
:101D40009B0740D5002F3FF411AFAB6D23F08053BC
:101D5000AB650BE70027DFE7336843F4807333603C
:101D6000FFF7F2F980463368DA05D9D4FFF7ECF9CA
:101D7000A0EB08000228F6D929E7052B06D1D5F8F3
:101D8000903043F00403C5F89030CCE7D5F89020AC
:101D900022F00102C5F89020D5F8902022F004022C
:101DA000C5F89020002BC4D1FFF7CEF941F2883856
:101DB0000646D5F890309907C4D5FFF7C5F9801BC2
:101DC0004045F6D903E7FFF7BFF9801B4045B5D979
:101DD000FDE6A3690A4DCBB1D5F8983043F0010375
:101DE000C5F89830FFF7B0F90646D5F898309B074C
:101DF0003FF5C0AEFFF7A8F9801B0228F5D9E6E64B
:101E0000001002400C00002000700040D5F898300F
:101E100023F00103C5F89830FFF796F90646D5F888
:101E200098309F077FF5A6AEFFF78EF9801B02283A
:101E3000F5D9CCE6454DAA6802F00C020C2A51D027
:101E4000022B2B6823F080732B603AD1FFF77CF9CB
:101E500006462B6899012ED4EA683D4B1340226A4E
:101E60001343A26A43EA0223E26A43EAC263626A54
:101E7000013A43EA0213226B5208013A43EA425301
:101E8000626B5208013A43EA4263EB602B6843F00D
:101E900080732B60EB6843F08073EB60FFF754F9BD
:101EA00004462B689A013FF569AEFFF74DF9001B18
:101EB0000228F6D98BE6FFF747F9801B0228C8D91C
:101EC00085E6FFF741F904462B689B0104D4EA68D4
:101ED000204B1340EB6051E6FFF736F9001B022858
:101EE000F2D974E6012B3FF42FAEEB68226A03F0BF
:101EF000030191427FF428AE616A03F0F0020139D8
:101F0000B2EB011F7FF420AEA16A03F4FE42B2EBF4
:101F1000012F7FF419AEE16A03F07842B2EBC16F92
:101F20007FF412AE226B520803F4C001013AB1EB08
:101F3000425F7FF409AE626B5208013A03F0C0635E
:101F4000B3EB426F14BF01200020FEE500100240F9
:101F50000C809F01FCFFEEFE174B9A6802F00C020A
:101F6000042A23D09A6802F00C02082A20D09A682A
:101F700002F00C020C2A1DD1D968DA68D868DB6837
:101F800001F00301C3F341630329C2F30312C0F359
:101F9000062003F101030CBF084909495B00013227
:101FA000B1FBF2F25043B0FBF3F0704704487047C6
:101FB00002487047002070470010024000127A006B
:101FC0000024F4002DE9F8430E46054610B901201F
:101FD000BDE8F8836D4A136803F00F038B4245D3C5
:101FE000296811F001084CD12A68910740F1A780B7
:101FF000674B12F0040F1EBF996841F4E0619960CD
:10200000120741BF9A6822F47C5242F4E0629A605F
:102010009A68A96822F0F0020A439A605B4C236830
:1020200003F00F03B34200F293802A68584C12F079
:10203000040F40F0A380130706D5A3682A6923F490
:10204000605343EAC203A360FFF786FFA368514AC7
:10205000C3F30313D35C03F01F03D8404E4B186047
:102060004E4B1868BDE8F843FFF72CB8136823F00F
:102070000F030B431360136803F00F038B42A6D1C9
:10208000AEE76F68424C032F236849D19B019ED570
:10209000E368E26803F00303032BE3680CBF4048E6
:1020A0004048C2F30312C3F306230132B0FBF2F23D
:1020B0005343E268C2F3416201325200B3FBF2F3D0
:1020C000394A93421AD84FF00008A36823F003035B
:1020D0003B43A360FFF738F841F288390746A3680D
:1020E0006A6803F00C03B3EB820F3FF47DAFFFF798
:1020F0002BF8C01B4845F2D9032069E7A36813F009
:10210000F00F04D08807DED5AB68002BDBD1A368C5
:1021100023F0F00343F08003A3604FF08008D4E77E
:10212000022F09D113F4003F3FF451AFFFF714FF22
:102130001D4B9842C7D9EAE713F4806FF4E7B8F172
:10214000800F01BF124A936823F0F003936065E7A4
:10215000236823F00F0333432360FEF7F5FF41F2BA
:1021600088380746236803F00F03B3423FF45DAF9E
:10217000FEF7EAFFC01B4045F4D9BDE7A368E96854
:1021800023F4E0630B43A36055E700BF0020024047
:102190000010024040300008040000200C00002025
:1021A00000127A000024F40000B4C404054B064A6F
:1021B0009B68C3F30223D35C044A106803F01F0337
:1021C000D84070470010024038300008040000205A
:1021D000054B064A9B68C3F3C223D35C044A1068CC
:1021E00003F01F03D8407047001002403830000849
:1021F000040000202DE9F3410446006810F400209B
:102200005AD0254DAB6DD80044D4AB6D43F080530C
:10221000AB65AB6D03F080530193019B01261F4F0B
:102220003B6843F480733B60FEF78EFF80463B685B
:10223000D90535D5D5F89030226D13F440731FD0F1
:102240009A421DD0D5F89020D5F8903043F48033D1
:10225000C5F89030D5F8903022F4407123F48033E3
:10226000D207C5F89030C5F8901009D5FEF76CFF7D
:1022700041F288380746D5F890309B0740F1298114
:10228000D5F89030226D23F440731343C5F8903095
:1022900000200CE00026C2E7001002400070004061
:1022A000FEF752FFA0EB08000228C0D903201EB1A0
:1022B000AB6D23F08053AB652368DD0708D58849F3
:1022C0006568D1F8882022F003022A43C1F88820EB
:1022D000990708D58249A568D1F8882022F00C0218
:1022E0002A43C1F888205A0708D57D49E568D1F806
:1022F000882022F030022A43C1F888201F0708D521
:1023000077492569D1F8882022F0C0022A43C1F814
:102310008820DE0608D572496569D1F8882022F444
:1023200040722A43C1F888209D0608D56C49A569EA
:10233000D1F8882022F440622A43C1F88820590647
:1023400008D56749E569D1F8882022F440522A432C
:10235000C1F888201A0608D56149256AD1F8882075
:1023600022F440422A43C1F88820DF0508D55C49A1
:10237000656AD1F8882022F440322A43C1F88820C7
:102380009E0308D55649A56AD1F89C2022F0030285
:102390002A43C1F89C209D0508D55149E56AD1F82A
:1023A000882022F440222A43C1F8882059050FD5FD
:1023B0004B49256BD1F8882022F440122A43C1F8FA
:1023C0008820B5F5801F02BFCA6842F48012CA6037
:1023D0001A050FD54249656BD1F8882022F44002D6
:1023E0002A43C1F88820B5F5800F02BFCA6842F4BD
:1023F0008012CA60DF040FD53949A56BD1F8882057
:1024000022F040722A43C1F88820B5F1807F02BFD4
:10241000CA6842F48012CA609E040FD53049E56B49
:10242000D1F8882022F040622A43C1F88820B5F113
:10243000006F02BFCA6842F48012CA605D040FD503
:102440002749256CD1F8882022F040622A43C1F840
:102450008820B5F1006F02BFCA6842F48012CA60DA
:1024600019040FD51E49656CD1F8882022F040521E
:102470002A43C1F88820B5F1805F02BFCA6842F4E0
:102480008032CA60DA030FD51549A56CD1F88820CF
:1024900022F040422A43C1F88820B5F1804F02BFA4
:1024A000CA6842F48032CA605B030FD50C4AE16C03
:1024B000D2F89C3023F440130B43B1F5001FC2F84F
:1024C0009C3003D1D36843F48013D36002B0BDE8DD
:1024D000F081FEF739FEC01B40457FF6CCAEE5E645
:1024E0000010024010B5026852E8003F23F49073D8
:1024F00042E8003102680029F5D10F4C02F10803CF
:1025000053E8003F234002F1080C4CE80031002959
:10251000F4D1C36E012B07D152E8003F23F0100322
:1025200042E800310029F7D12023C0F88C30002385
:10253000C366436710BD00BFFEFFFFEF38B5054619
:10254000C8B12423C0F8883003681A68002422F038
:1025500001021A601C605C609C60FEF735FDC5F8E6
:10256000904085F88440C5F888402046C5F88C40E6
:10257000EC662C6738BD0120FCE77047704708B552
:10258000806AFFF7FBFF08BD704700000368D96948
:102590001A682DE9F04140F60F0631429D68044665
:1025A00010D18E0640F1978002F0200605F080578A
:1025B0003E4300F09080436F002B00F08580BDE823
:1025C000F0411847A84EA9482E401040304300F073
:1025D0008280CF0709D5D00507D501201862D4F82D
:1025E000900040F00100C4F890008F0709D5E8077B
:1025F00007D502201862D4F8900040F00400C4F817
:1026000090004F0709D5E80707D504201862D4F8D1
:10261000900040F00200C4F890000F070BD502F0C4
:102620002000304307D008201862D4F8900040F012
:102630000800C4F890000E050AD5500108D54FF4E3
:1026400000601862D4F8903043F02003C4F8903052
:10265000D4F89030002B37D08B0609D502F0200239
:1026600005F080552A4303D0636F0BB1204698478D
:102670002668D4F89020B36802F0280203F04003E3
:1026800053EA0205204621D0FFF72CFFB3685F060E
:1026900017D5226802F1080353E8003F23F04003F6
:1026A000083242E800310029F3D1D4F8800040B16B
:1026B0006F4B8363FEF7E4FE30B1D4F88000836B88
:1026C0007DE72046FFF75AFFBDE8F081FFF756FF90
:1026D000C4F89050F8E7E06E012840F08D80CE06F7
:1026E00040F18A80D00640F1878010221A629968F2
:1026F000B4F85C20490651D5D4F8801008684168C8
:1027000089B2002942D0914240D2A4F85E100268FA
:1027100092062FD453E8002F22F4807243E8002160
:102720000029F7D103F1080252E8002F22F001023C
:1027300003F1080040E800210029F3D103F1080269
:1027400052E8002F22F0400203F1080040E8002187
:102750000029F3D12022C4F88C20E16653E8002F31
:1027600022F0100243E800210029F7D1D4F88000BC
:10277000FEF750FE02232367B4F85E30B4F85C1015
:10278000C91A89B22046FFF7FFFE9DE791429BD10F
:1027900003689B0698D502232367F3E7B4F85E101D
:1027A000B4F85E0080B289B200288DD0521A91B27E
:1027B000002989D053E8002F22F4907243E80020CA
:1027C0000028F7D12B4D03F1080252E8002F2A40D0
:1027D00003F1080646E800200028F4D12022C4F8BE
:1027E0008C206067E06653E8002F22F0100243E877
:1027F00000200028F7D1CEE7CF0209D56E0207D519
:102800004FF4801220461A62BDE8F04100F07EBB12
:1028100008060BD502F0800005F40005284305D01A
:10282000A36F002B3FF450AF2046C8E64F0611D5EA
:1028300056060FD553E8002F22F0400243E800214E
:102840000029F7D12023C4F88830A1672046FFF77C
:1028500094FE39E70D020FD550000DD52046BDE896
:10286000F04100F055BB00BF010000102001000442
:102870007F250008FEFFFFEFCB017FF525AF002A83
:10288000BFF622AF2046BDE8F04100F040BB00BFDC
:1028900038B50446C0692169A26823680A436169A2
:1028A0001D680A438549024329400A431A605A6851
:1028B000E16822F440520A435A60814AA169934276
:1028C0001CBF226A11439A6822F06E4222F43062E1
:1028D0000A439A60DA6A616A22F00F020A43DA62F6
:1028E000784A934230D1784BD3F8883003F0030311
:1028F000022B00F0DA80032B00F0CA80012B00F0DD
:10290000CE80B0F5004F40F0D580FFF761FC002885
:1029100077D061686D4B626A33F81220B0FBF2F237
:102920004B0803EB42034FF6EF72B3FBF1F3A3F155
:102930001001914220D823F00F02216892B2C3F314
:1029400042031343CB605CE0614A934216D15E4B75
:10295000D3F8883003F00C03082B00F0A68008D8C9
:10296000002B40F09C80B0F5004F7AD1FFF71EFCA1
:10297000CDE70C2B00F08C80012043E0554A9342B8
:102980000AD1514BD3F8883003F03003202B00F0EC
:102990008C80E5D9302BEDE74F4A934209D14A4B61
:1029A000D3F8883003F0C003802B7ED0D8D9C02B59
:1029B000E0E74A4A93420BD1434BD3F8883003F403
:1029C0004073B3F5007F70D0CAD9B3F5407FD1E72B
:1029D0003B4A9342D0D13C4BD3F8883003F4406358
:1029E000B3F5006F15D003D843B9FFF7DFFB07E05D
:1029F000B3F5406FC0D14FF400400BE0FFF7ACFAE5
:102A000040B900204FF00113A3660023C4E91D3331
:102A100038BD334865682D4B626A05EB450133F8D4
:102A20001220B0FBF2F39942A6D8B3EB053FA3D82E
:102A300000231946FDF7F0FB090241EA10616B081B
:102A40000002C0182A464FF0000341F10001FDF7D3
:102A5000E3FB244BA0F540729A428DD82368D860DE
:102A6000CFE7FFF7A3FB0028CBD06368616A174A62
:102A700032F81120B0FBF2F000EB5300B0FBF3F0A2
:102A80004FF6EF73A0F11002E6E7FFF765FAEAE709
:102A9000B0F5004F3FF43DAF4FF40040E5E7B0F52F
:102AA000004FF2D1FFF758FA31E7B0F5004F0C486C
:102AB000DBD12EE7FFF78CFBD5E700BFF369FFCF33
:102AC00000800040003801400010024050300008F3
:102AD0000044004000480040004C004000500040CE
:102AE0000024F400FFFC0F00836A1A0710B506D516
:102AF0000168846B4A6822F4004222434A60DC0782
:102B000006D50168C46A4A6822F4003222434A604A
:102B1000990706D50168046B4A6822F48032224383
:102B20004A605A0706D50168446B4A6822F480223D
:102B300022434A60DC0606D50168C46B8A6822F429
:102B4000805222438A60990606D50168046C8A681F
:102B500022F4005222438A605A060FD50168446C61
:102B60004A6822F480122243B4F5801F4A6005D1DE
:102B70004A68846C22F4C00222434A601B0606D5D0
:102B80000268C16C536823F400230B43536010BDEB
:102B90002DE9F843DDF8209004460D461746984687
:102BA0002268D36935EA03030CBF01230023BB422B
:102BB00001D0002022E0B9F1FF3FF2D0FEF7C4FAC5
:102BC000A0EB0800484529D8B9F1000F26D02168AC
:102BD0000B685A07E4D5802DE2D0402DE0D0CE69B5
:102BE00016F008060CD0082520460D62FFF77AFC87
:102BF0000023C4F8905084F884300120BDE8F883A5
:102C0000CB691B05CCD54FF400630B622046FFF760
:102C100069FC2023C4F8903084F884600320EDE739
:102C20002DE9F7439846D0F88830202B04460E460D
:102C300017464ED119B9012003B0BDE8F083002A30
:102C4000F9D021230025C0F89050C0F88830FEF755
:102C50007BFAA368A4F85470B3F5805F8146A4F8AA
:102C6000567003D123690BB935461E46B4F8562079
:102C7000CDF8008092B24B464AB940212046FFF77A
:102C800087FF2023C4F888300028D5D008E0002230
:102C900080212046FFF77CFF20B12023C4F8883034
:102CA0000320C9E722688EB935F8023BC3F3080355
:102CB0009362D4F8883003F02103212BBBD1B4F800
:102CC0005620013A92B2A4F85620CFE716F8013BFD
:102CD000EEE70220B0E72DE9F7439846D0F88C30B4
:102CE000202B04460F46164661D119B9012003B0C6
:102CF000BDE8F083002AF9D022230025C0F89050C7
:102D0000C0F88C30C566FEF71FFAA368A4F85C60B3
:102D1000B3F5805F8146A4F85E600DD12369DBB115
:102D2000FF221646A4F86020B4F85E0080B2E0B935
:102D30002023C4F88C30DAE733B92569002DEFD0B1
:102D40007F2216461D46EDE7B3F1805F0AD1236965
:102D5000002BF5D03F22E4E740F2FF123D46164635
:102D60001F46DFE72A462E46DCE7CDF800804B46BB
:102D7000002220212046FFF70BFF20B12023C4F8BA
:102D80008C300320B3E723685B6A334067B925F8CA
:102D9000023BD4F88C30222BA8D1B4F85E30013B32
:102DA0009BB2A4F85E30BFE707F8013BF1E70220D1
:102DB0009DE773B504460026C0F89060FEF7C4F99D
:102DC00023681B681A0705461CD56FF07E430093E5
:102DD000324603464FF400112046FFF7D9FE88B172
:102DE000226852E8003F23F0800342E800310029C6
:102DF000F6D12023C4F888300320002384F88430DF
:102E000002B070BD23681B685B0724D56FF07E435A
:102E1000009300222B464FF480012046FFF7B8FEB6
:102E2000C8B1226852E8003F23F4907342E80031B1
:102E300022680029F5D102F1080353E8003F23F08E
:102E4000010302F1080040E800310029F3D12023FA
:102E5000C4F88C30D0E720230020C4F88830C4F8B0
:102E60008C30E0662067C8E710B5044650B3D0F850
:102E700088301BB980F88430FEF742F8226824239A
:102E8000C4F88830136823F001031360A36A13B1F8
:102E90002046FFF729FE2046FFF7FAFC012811D053
:102EA00023685A6822F490425A609A6822F02A02F3
:102EB0009A601A6842F0010220461A60BDE810408C
:102EC000FFF777BF012010BD436E30B52BB901234A
:102ED000A0F86A30A0F8683030BD0368094D9A68E0
:102EE0009968094C490FC2F342626B5C615CDB007C
:102EF000B3FBF1F3A0F86A30AB5CA25CDB00B3FB80
:102F0000F2F3E7E770300008683000087047704758
:102F1000704790F88430012B14D002682423C0F845
:102F200088301168136823F00103136021F0005109
:102F30000023436611602022C0F8882080F8843086
:102F4000184670470220704770B590F88430012B06
:102F5000044617D005682423C0F888302E682B68F3
:102F600023F001032B60AB6823F060431943A96091
:102F7000FFF7AAFF20232E60C0F88830002084F8D5
:102F8000840070BD0220FCE770B590F88430012BFE
:102F9000044617D005682423C0F888302E682B68B3
:102FA00023F001032B60AB6823F060631943A96031
:102FB000FFF78AFF20232E60C0F88830002084F8B5
:102FC000840070BD0220FCE702440346934200D116
:102FD000704703F8011BF9E770B50D4D0D4C641BEC
:102FE000A4100026A64209D10B4D0C4C00F018F895
:102FF000641BA4100026A64205D170BD55F8043B01
:1030000098470136EEE755F8043B98470136F2E75A
:1030100080300008803000088030000884300008CC
:10302000F8B500BFF8BC08BC9E467047F8B500BFB5
:10303000F8BC08BC9E467047000000000102030473
:103040000000000000000000010203040607080958
:10305000010002000400060008000A000C00100035
:103060002000400080000001080402040801010162
:103070000101010307010000D0D1FF7F0100000022
:10308000FD010008D90100080024F400010000003F
:103090001000000000000000000000000000000020
:1030A000000000000100000000000000000000001F
:1030B00000000000FFFFFFFFFFFFFFFFFFFFFFFF1C
:1030C000FFFFFFFFFFFFFFFFFFFFFFFFFFFFFFFF10
:1030D000FFFFFFFFFFFFFFFFFFFFFFFFFFFFFFFF00
:1030E000FFFFFFFFFFFFFFFFFFFFFFFFFFFFFFFFF0
:1030F000FFFFFFFFFFFFFFFFFFFFFFFFFFFFFFFFE0
:1040000000800120B9590008D9570008DD57000881
:1040100045580008475800084958000800000000AB
:104020000000000000000000000000004B580008E5
:104030004D580008000000004F5800085158000873
:10404000095A0008095A0008095A0008095A0008C4
:10405000095A0008095A0008095A0008095A0008B4
:10406000095A0008095A0008095A0008095A0008A4
:10407000095A000855580008095A0008095A00084A
:10408000095A0008095A0008095A0008095A000884
:10409000095A0008095A0008095A0008095A000874
:1040A000095A0008095A0008095A0008095A000864
:1040B000095A0008095A0008095A0008095A000854
:1040C000095A0008095A0008095A0008095A000844
:1040D000095A000861580008095A0008095A0008DE
:1040E000095A0008095A0008095A0008095A000824
:1040F000095A0008095A0008095A0008095A000814
:10410000095A0008095A0008095A0008095A000803
:10411000095A0008095A0008095A0008095A0008F3
:10412000095A0008095A0008095A0008095A0008E3
:10413000095A0008095A0008095A0008095A0008D3
:10414000095A0008095A0008095A0008095A0008C3
:10415000095A0008095A0008095A0008095A0008B3
:10416000095A0008095A0008095A0008095A0008A3
:10417000095A0008095A0008095A0008095A000893
:10418000095A0008095A0008095A0008095A000883
:10419000095A000800000000095A0008095A0008DE
:1041A000095A0008095A0008095A0008095A000863
:1041B000095A0008095A0008095A0008095A000853
:1041C000095A0008095A0008095A0008095A000843
:1041D000095A0008095A0008000000000000000009
:1041E00010B5054C237833B9044B13B10448AFF331
:1041F00000800123237010BDD801002000000000C2
:1042000064C1000808B5034B1BB103490348AFF371
:10421000008008BD00000000DC01002064C100082F
:1042200001F0FF01102A2BDB10F0070F08D010F867
:10423000013B013A8B422DD010F0070F42B3F6D16B
:10424000F0B441EA012141EA014122F007047FF084
:1042500000070023F0E80256083C85EA010586EADB
:10426000010685FA47F5A3FA87F586FA47F6A5FA17
:1042700087F68EB9EED1F0BC01F0FF0102F0070223
:1042800032B110F8013B013A83EA010313B1F8D1CE
:104290000020704701387047002D06BF35460338AF
:1042A000073815F0010F07D1013015F4807F02BFE8
:1042B000013015F4C03F0130F0BC0138704700BF39
:1042C000034613F8012B002AFBD1181A0138704756
:1042D00081F0004102E000BF83F0004330B54FEAB7
:1042E00041044FEA430594EA050F08BF90EA020F24
:1042F0001FBF54EA000C55EA020C7FEA645C7FEAB7
:10430000655C00F0E2804FEA5454D4EB5555B8BFD9
:104310006D420CDD2C4480EA020281EA030382EA4A
:10432000000083EA010180EA020281EA0303362DDC
:1043300088BF30BD11F0004F4FEA01314FF4801CAF
:104340004CEA113102D0404261EB410113F0004FC1
:104350004FEA03334CEA133302D0524263EB430378
:1043600094EA050F00F0A780A4F10104D5F1200E16
:104370000DDB02FA0EFC22FA05F2801841F1000171
:1043800003FA0EF2801843FA05F359410EE0A5F145
:1043900020050EF1200E012A03FA0EFC28BF4CF076
:1043A000020C43FA05F3C01851EBE37101F000452C
:1043B00007D54FF0000EDCF1000C7EEB00006EEB39
:1043C0000101B1F5801F1BD3B1F5001F0CD34908C3
:1043D0005FEA30004FEA3C0C04F101044FEA44521A
:1043E00012F5800F80F09A80BCF1004F08BF5FEAA1
:1043F000500C50F1000041EB045141EA050130BD81
:104400005FEA4C0C404141EB0101013C28BFB1F592
:10441000801FE9D291F0000F04BF01460020B1FADD
:1044200081F308BF2033A3F10B03B3F120020CDAB0
:104430000C3208DD02F1140CC2F10C0201FA0CF08E
:1044400021FA02F10CE002F11402D8BFC2F1200CF3
:1044500001FA02F120FA0CFCDCBF41EA0C019040A9
:10446000E41AA2BF01EB0451294330BD6FEA0404F2
:104470001F3C1CDA0C340EDC04F11404C4F12002DD
:1044800020FA04F001FA02F340EA030021FA04F3EF
:1044900045EA030130BDC4F10C04C4F1200220FA46
:1044A00002F001FA04F340EA0300294630BD21FA84
:1044B00004F0294630BD94F0000F83F4801306BF4A
:1044C00081F480110134013D4EE77FEA645C18BF3E
:1044D0007FEA655C29D094EA050F08BF90EA020FD5
:1044E00005D054EA000C04BF1946104630BD91EACD
:1044F000030F1EBF0021002030BD5FEA545C05D1D0
:104500004000494128BF41F0004130BD14F580040E
:104510003CBF01F5801130BD01F0004545F0FE4182
:1045200041F470014FF0000030BD7FEA645C1ABFB7
:10453000194610467FEA655C1CBF0B46024650EAEE
:10454000013406BF52EA033591EA030F41F400211A
:1045500030BD00BF90F0000F04BF0021704730B5A0
:104560004FF4806404F132044FF000054FF0000175
:1045700050E700BF90F0000F04BF0021704730B536
:104580004FF4806404F1320410F0004548BF40420B
:104590004FF000013EE700BF42004FEAE2014FEA60
:1045A00031014FEA02701FBF12F07F4393F07F4F3B
:1045B00081F06051704732F07F4208BF704793F03E
:1045C0007F4F04BF41F40021704730B54FF4607451
:1045D00001F0004521F000411CE700BF50EA010254
:1045E00008BF704730B54FF000050AE050EA0102FD
:1045F00008BF704730B511F0004502D5404261EB6D
:1046000041014FF4806404F132045FEA915C3FF4AD
:10461000D8AE4FF003025FEADC0C18BF03325FEA4A
:10462000DC0C18BF033202EBDC02C2F1200300FAFB
:1046300003FC20FA02F001FA03FE40EA0E0021FA20
:1046400002F11444BDE600BF70B54FF0FF0C4CF40E
:10465000E06C1CEA11541DBF1CEA135594EA0C0FC0
:1046600095EA0C0F00F0DEF82C4481EA030621EAFB
:104670004C5123EA4C5350EA013518BF52EA033536
:1046800041F4801143F4801338D0A0FB02CE4FF0E8
:104690000005E1FB02E506F00042E0FB03E54FF018
:1046A0000006E1FB03569CF0000F18BF4EF0010E10
:1046B000A4F1FF04B6F5007F64F5407404D25FEA0C
:1046C0004E0E6D4146EB060642EAC62141EA5551BF
:1046D0004FEAC52040EA5E504FEACE2EB4F1FD0C01
:1046E00088BFBCF5E06F1ED8BEF1004F08BF5FEA7F
:1046F000500E50F1000041EB045170BD06F0004631
:1047000046EA010140EA020081EA0301B4EB5C04DD
:10471000C2BFD4EB0C0541EA045170BD41F48011D5
:104720004FF0000E013C00F3AB8014F1360FDEBFFA
:10473000002001F0004170BDC4F10004203C35DAD6
:104740000C341BDC04F11404C4F1200500FA05F359
:1047500020FA04F001FA05F240EA020001F00042FA
:1047600021F0004110EBD37021FA04F642EB060170
:104770005EEA430E08BF20EAD37070BDC4F10C049A
:10478000C4F1200500FA04F320FA05F001FA04F25E
:1047900040EA020001F0004110EBD37041F100014A
:1047A0005EEA430E08BF20EAD37070BDC4F1200555
:1047B00000FA05F24EEA020E20FA04F301FA05F2BD
:1047C00043EA020321FA04F001F0004121FA04F265
:1047D00020EA020000EBD3705EEA430E08BF20EA35
:1047E000D37070BD94F0000F0FD101F0004640006F
:1047F00041EB010111F4801F08BF013CF7D041EAF1
:10480000060195F0000F18BF704703F000465200F4
:1048100043EB030313F4801F08BF013DF7D043EAC5
:104820000603704794EA0C0F0CEA135518BF95EA7B
:104830000C0F0CD050EA410618BF52EA4306D1D102
:1048400081EA030101F000414FF0000070BD50EA21
:10485000410606BF1046194652EA430619D094EAAB
:104860000C0F02D150EA013613D195EA0C0F05D195
:1048700052EA03361CBF104619460AD181EA0301E9
:1048800001F0004141F0FE4141F470014FF00000A1
:1048900070BD41F0FE4141F4780170BD70B54FF03C
:1048A000FF0C4CF4E06C1CEA11541DBF1CEA1355BC
:1048B00094EA0C0F95EA0C0F00F0A7F8A4EB05049E
:1048C00081EA030E52EA03354FEA013100F0888095
:1048D0004FEA03334FF0805545EA131343EA12635E
:1048E0004FEA022245EA111545EA10654FEA002613
:1048F0000EF000419D4208BF964244F1FD0404F5CC
:10490000407402D25B084FEA3202B61A65EB030527
:104910005B084FEA32024FF480104FF4002CB6EBE4
:10492000020E75EB030E22BFB61A754640EA0C0064
:104930005B084FEA3202B6EB020E75EB030E22BFA4
:10494000B61A754640EA5C005B084FEA3202B6EBE5
:10495000020E75EB030E22BFB61A754640EA9C00A4
:104960005B084FEA3202B6EB020E75EB030E22BF74
:10497000B61A754640EADC0055EA060E18D04FEA32
:10498000051545EA16754FEA06164FEAC30343EAD2
:1049900052734FEAC2025FEA1C1CC0D111F4801F9F
:1049A0000BD141EA00014FF000004FF0004CB6E798
:1049B00011F4801F04BF01430020B4F1FD0C88BF37
:1049C000BCF5E06F3FF6AFAEB5EB030C04BFB6EB42
:1049D000020C5FEA500C50F1000041EB045170BD35
:1049E0000EF0004E4EEA113114EB5C04C2BFD4EB62
:1049F0000C0541EA045170BD41F480114FF0000EE6
:104A0000013C90E645EA060E8DE60CEA135594EA61
:104A10000C0F08BF95EA0C0F3FF43BAF94EA0C0F64
:104A20000AD150EA01347FF434AF95EA0C0F7FF4D9
:104A300025AF104619462CE795EA0C0F06D152EA2D
:104A400003353FF4FDAE1046194622E750EA410611
:104A500018BF52EA43067FF4C5AE50EA41047FF422
:104A60000DAF52EA43057FF4EBAE12E74FF0FF3C87
:104A700006E000BF4FF0010C02E000BF4FF0010C58
:104A80004DF804CD4FEA410C7FEA6C5C4FEA430CD1
:104A900018BF7FEA6C5C1BD001B050EA410C0CBF20
:104AA00052EA430C91EA030F02BF90EA020F002082
:104AB000704710F1000F91EA030F58BF994208BFE9
:104AC00090422CBFD8176FEAE37040F001007047A6
:104AD0004FEA410C7FEA6C5C02D150EA013C07D1FD
:104AE0004FEA430C7FEA6C5CD6D152EA033CD3D048
:104AF0005DF8040B704700BF8446104662468C4642
:104B00001946634600E000BF01B5FFF7B7FF002874
:104B100048BF10F1000F01BD4DF808EDFFF7F4FF9D
:104B20000CBF012000205DF808FB00BF4DF808ED28
:104B3000FFF7EAFF34BF012000205DF808FB00BF4B
:104B40004DF808EDFFF7E0FF94BF012000205DF86D
:104B500008FB00BF4DF808EDFFF7CEFF94BF012022
:104B600000205DF808FB00BF4DF808EDFFF7C4FF1B
:104B700034BF012000205DF808FB00BF4FEA410C64
:104B80007FEA6C5C02D150EA013C0AD14FEA430C47
:104B90007FEA6C5C02D152EA033C02D14FF0000084
:104BA00070474FF0010070474FEA410212F50012C2
:104BB00015D211D56FF47873B3EB625212D94FEA64
:104BC000C12343F0004343EA505311F0004F23FA4E
:104BD00002F018BF404270474FF00000704750EAA3
:104BE000013005D111F0004008BF6FF00040704760
:104BF0004FF00000704700BF4A0011D212F50012BA
:104C000011D20DD56FF47873B3EB62520ED44FEA24
:104C1000C12343F0004343EA505323FA02F07047A4
:104C20004FF00000704750EA013002D14FF0FF30E2
:104C300070474FF0000070474FEA4102B2F1E04385
:104C400024BFB3F5001CDCF1FE5C0DD901F0004C73
:104C50004FEAC0024CEA5070B2F1004F40EB8300C3
:104C600008BF20F00100704711F0804F21D113F1EF
:104C70003872BCBF01F00040704741F480114FEA28
:104C80005252C2F11802C2F1200C10FA0CF320FAB1
:104C900002F018BF40F001004FEAC1234FEAD323CE
:104CA00003FA0CFC40EA0C0023FA02F34FEA430338
:104CB000CCE77FEA625307D150EA01331EBF4FF0C1
:104CC000FE4040F44000704701F0004040F0FE40DC
:104CD00040F40000704700BF53B94AB9002908BF2B
:104CE00000281CBF4FF0FF314FF0FF3000F0BEB97D
:104CF000ADF1080C6DE904CE00F03CF8DDF804E0FD
:104D0000DDE9022304B0704738B5002200230446D1
:104D10000D46FFF70BFF28B920462946BDE838406D
:104D200000F00AB8204605F1004100F005F84042C5
:104D300061EB410138BD00BFD0B50C4B00220646E7
:104D40000F46FFF781FCFFF757FF0446FFF702FC11
:104D5000074B0022FFF778FC02460B4630463946E7
:104D6000FFF7BAFAFFF748FF2146D0BD0000F03D3B
:104D70000000F0412DE9F047089D8E460446884624
:104D8000002B4AD18A42174662D9B2FA82F64EB156
:104D9000C6F1200301FA06F820FA03F3B74043EA0C
:104DA0000808B4404FEA174E1FFA87FCB8FBFEF123
:104DB000230C0EFB118843EA084301FB0CF29A42D4
:104DC00009D9FB1801F1FF3080F0EA809A4240F2E5
:104DD000E78002393B449A1AA3B2B2FBFEF00EFB05
:104DE000102243EA024300FB0CFC9C4509D9FB1846
:104DF00000F1FF3280F0D6809C4540F2D3803B44E6
:104E0000023840EA0140A3EB0C0300211DB1F3403E
:104E10000022C5E90032BDE8F0878B4205D90DB10B
:104E2000C5E9000100210846F5E7B3FA83F100293E
:104E300046D1734502D3824200F20581841A6EEB9B
:104E4000030201209046002DE5D0C5E90048E2E7C5
:104E5000002A00F09080B2FA82F6002E40F0A48082
:104E60008A1A030C4FEA174E80B2BCB20121B2FB82
:104E7000FEFC0EFB1C2243EA024304FB0CF29A42A6
:104E800007D9FB180CF1FF3802D29A4200F2E080F9
:104E9000C4469B1AB3FBFEF20EFB123340EA0343F7
:104EA00002FB04F49C4207D9FB1802F1FF3002D246
:104EB0009C4200F2CA8002461B1B42EA0C40A5E756
:104EC000C1F120068B4022FA06F71F430EFA01F4C7
:104ED00020FA06F32EFA06FE4FEA1749234300FA9A
:104EE00001F81FFA87FCBEFBF9F01C0C09FB10EE61
:104EF00044EA0E4400FB0CFEA64502FA01F209D971
:104F00003C1900F1FF3A80F09C80A64540F2998060
:104F100002383C44A4EB0E041FFA83FEB4FBF9F301
:104F200009FB13444EEA044403FB0CFCA44508D9D6
:104F30003C1903F1FF3E80F08280A4457FD9023BFB
:104F40003C4443EA0040A4EB0C04A0FB02EC6445A3
:104F50007346E14662D35FD05DB1B8EB030264EB08
:104F6000090404FA06F622FA01F31E43CC40C5E90F
:104F7000006400214FE7B1FBF2FC010C41EA0E4155
:104F800080B240EA01423B4638463C46B846BE46FF
:104F90002026B1FBF7F1A2EB080241EA0C4166E7DB
:104FA000014618E710462CE7C6F120022EFA02F35C
:104FB000B740B14020FA02F24FEA174E0A43B3FB62
:104FC000FEF8BCB20EFB1833110C41EA034108FB9A
:104FD00004F9B04089454FEA104380B23ED97918B0
:104FE00008F1FF3C01D289451FD8A1EB0901B1FBB3
:104FF000FEF909FB04F80EFB191192B242EA0142D4
:10500000424529D2BA1809F1FF31C4D24245C2D271
:10501000A9F102013A44BEE7F0459DD2BEEB02037E
:105020006CEB070C0138E14696E7A7EB0909494408
:10503000A8F1020CB1FBFEF909FB04F8DBE77346AB
:105040007FE7504666E70846FDE63B44023A33E711
:10505000ACF1020C3B441CE749469CE7A1EB09017B
:10506000C446B1FBFEF909FB04F8C4E7704700BF72
:105070000A46014630B1002A04DD0348642392B297
:1050800002F0C4BA704700BF440900202DE9F04F78
:10509000414C424BA26BB2FBF3F3C5B0404A0A93BA
:1050A000404BE56C0B90934238BFA2EB0308E26BD8
:1050B00028BF4FF0000895420F464FF0000365D21D
:1050C000551B500842F210761946E5FB0601FFF722
:1050D00003FE0646626C42454FF0000358D9A2EB2E
:1050E000080C500842F210751946ECFB0501FFF759
:1050F000F3FD0546236900930DF1300A4FF0640972
:10510000E368294A2021504603F0B8FBB6FBF9F3C7
:1051100009FB1366CDE90136E36B00930DF1500BEB
:10512000E36C224A6021584603F0A8FBB5FBF9F373
:1051300009FB1355CDE901352CAE636C1C4A009375
:1051400060214346304603F099FB636D0993236D5C
:10515000CDF818B0CDE90763E36C0593A36C049315
:105160000A9B0393A369134A0B98CDE901A3A36893
:1051700000936368394603F081FB00280ADD87420B
:1051800094BF0020012045B0BDE8F08F1E46A1E786
:105190001D46AFE70020F6E7F801002040420F006F
:1051A0002C0B00200400002080C1000886C10008EC
:1051B000C1C10008FDC10008002070477047000011
:1051C00070B5494C3C222046002103F0F2FB474ACF
:1051D00044F81C2C464A44F8182C464A44F8142C2F
:1051E000454A44F8102C454A44F80C2C444A44F8EB
:1051F000082C444A44F8042CA4F11C03424A4348B6
:10520000434C1D46117809090233415C997612F826
:10521000011B01F00F01A242415CD976F2D10024BA
:1052200085F8344001F06CFA4FF480534FF4003CA1
:10523000C5E90FC34FF400436B64364BA8639A680B
:105240003549364B8B4238BFCC1AB2F5805F35D921
:10525000334B23449A4231D29B1AC5E91223314C75
:10526000D4F894301E0134D4D4F89430580132D498
:10527000D4F89430D90030D4D4F894309A002ED495
:10528000D4F894305B002CD4D4F89410264B274AE1
:1052900013EA210338BF13462B65FFF78DFF461C29
:1052A0003046FFF78BFF6E65D4F8943043F400036B
:1052B000C4F894301E4B00221A7070BD1D4AB2F51E
:1052C000805F02D91C4B9A42C6D34FF00062002384
:1052D000C3E71A4BE0E71A4BDEE71A4BDCE71A4B41
:1052E000DAE71A4BD8E700BF14020020ECC200082E
:1052F000FCC2000804C300080AC3000816C3000863
:105300001FC3000827C300089075FF1F10C50008C1
:105310009C75FF1F00ED00E0D80100200400002074
:10532000C4C7000800100240E2C20008DAC2000848
:10533000F40100200000000000000000BFC20008CF
:10534000C3C20008C7C20008D0C20008D5C2000806
:1053500010B109B1FFF79ABE0020704773B5002461
:105360000094054601942646012210214FF09040FA
:1053700000F02AFE134A0096009B934215D90022A2
:1053800010214FF0904000F01FFE0F4A0196019B44
:1053900093420ED30134AC42E6D100230B4A019371
:1053A000019B934209D902B070BD009B0133009369
:1053B000E2E7019B01330193E9E7019B013301938C
:1053C000EEE700BF7F4F1200009F2400BFC62D00F4
:1053D00010B594B03822002106A803F0EAFA14228E
:1053E000002101A803F0E5FA002000F0F3FD4022BF
:1053F0004FF480710223CDE909120424552206A836
:10540000CDE90D33CDE90F42CDE911330693139366
:1054100000F040FE08B172B6FEE7CDE903000F22AE
:1054200003230590214601A8CDE9012301F074F87A
:1054300008B172B6FEE714B010BD0000F0B5884C9C
:10544000ADF22C4D00F008FBFFF7C2FF1422002143
:1054500083A803F0AEFAE36C43F00103E364E36C6A
:1054600003F001030022029350214FF090400025E9
:105470000126029B00F0A8FD502383A94FF0904025
:10548000CDE98336CDE9855500F0D0FC32461021B8
:105490004FF0904000F098FD324640214FF0904090
:1054A00000F092FDA36C43F00403A364A36C03F02B
:1054B00004030093009BA36C3343A364A36C694C67
:1054C000334029462A4601930D20019B00F00CFB36
:1054D0000D2000F03BFB644B25614FF461270C2647
:1054E0002046C4E90037C4E90255C4E90565C4E9AA
:1054F0000755C4E9095502F03FF9014608B172B6F3
:10550000FEE7204602F032FA014608B172B6FEE725
:10551000204602F04BFA08B172B6FEE7204602F0D0
:105520000AFA08B172B6FEE7504C514BA062C4E9CA
:105530000200C4E90406C4E90600C4E908002046E4
:10554000C4E9003702F018F9014608B172B6FEE767
:10555000204602F00BFA014608B172B6FEE720467B
:1055600002F024FA08B172B6FEE7204602F0E3F931
:1055700008B172B6FEE7FFF723FE4FF4007103A8EF
:10558000FFF7E6FE50B14FF407713A4A03AB83A828
:1055900003F074F9014683A8FFF76AFD0122102188
:1055A0004FF0904000F010FD012240214FF090405C
:1055B00000F00AFD322000F071FA002210214FF0B5
:1055C000904000F001FD002240214FF0904000F09B
:1055D000FBFC642000F062FA012210214FF09040A1
:1055E00000F0F2FC012240214FF0904000F0ECFC72
:1055F000322000F053FA002210214FF0904000F0CA
:10560000E3FC002240214FF0904000F0DDFC6420DC
:1056100000F044FA002210214FF0904000F0D4FC3A
:10562000012240214FF0904000F0CEFC0520FFF712
:1056300095FE0720FFF792FE4FF4C06200210E484E
:1056400003F0B7F90820FFF789FE0B4905484FF42E
:10565000C06202F0CBF90920FFF780FEFEE700BF31
:10566000001002404409002000380140B00800202A
:105670000044004033C300085002002072B6FEE729
:105680000B4B1A6E42F0010282B01A661A6E02F0DB
:1056900001020092009A9A6D42F080529A659B6DC9
:1056A00003F080530193019B02B000F0EBBC00BFFC
:1056B0000010024070B59EB006461422002104A8D6
:1056C00003F077F95422002109A803F072F9336836
:1056D0003C4A934249D1012309A8099301F03AF8C1
:1056E00008B1FFF7CBFF384B384C1A6E42F48042BA
:1056F0001A661A6E02F480420092009ADA6C42F046
:105700000102DA64DB6C03F001030193019B4FF4A7
:10571000C06102230025CDE904134FF09040072318
:1057200004A90893CDE9065500F080FB28482562BE
:105730001923C4E900031023C4E90235204680235D
:10574000C4E90435C4E9065500F046FA08B1FFF78C
:1057500095FF00222520F4671146A66200F0C4F9E7
:10576000252000F0F3F91EB070BD1A4A9342FAD119
:10577000022309A8099300F0EDFF08B1FFF77EFFAF
:10578000114B9A6D42F400329A659A6D02F4003220
:105790000292029ADA6C42F00102DA64DB6C03F0E6
:1057A00001030393039B0C220223CDE9042300236E
:1057B000CDE9063304A907234FF09040089300F089
:1057C00035FBD0E7003801400010024050080020AF
:1057D0003000024000440040FEE70000174AD36C4E
:1057E00043F0010382B0D364BFF34F8F4FF0904377
:1057F00013481A6822F4407242F480721A601A68E0
:1058000022F4406242F480621A604FF400129A61FE
:10581000102500214FF480149D610091009A82426E
:1058200008D99C610191019A8242F5D8019A01320E
:105830000192F8E7009A01320092EFE7001002406F
:10584000BFC62D00FEE7FEE7FEE7704770477047D2
:1058500000F012B9014800F09EBA00BF50080020C5
:10586000014801F025B900BF44090020012070471C
:1058700008B503F0F1F8162303604FF0FF3008BDC0
:1058800008B503F0E9F816230360FEE770B50D468E
:1058900014460E46731B9C4201DC204670BDAFF3DC
:1058A000008006F8010BF5E770B50D4614460E466C
:1058B000731B9C4201DC204670BD16F8010BAFF350
:1058C0000080F5E74FF0FF3070474FF400534B6016
:1058D0000020704701207047002070470B4A116874
:1058E00010B5034609B90A491160106809490A4C04
:1058F0000344091B8B4206D903F0AEF80C23036066
:105900004FF0FF3010BD1360FCE700BFD809002046
:10591000300B00200080012000040000224AD2F851
:10592000883043F4700382B0C2F888301F4AD36CC9
:1059300043F00103D364BFF34F8F4FF090431A68D5
:1059400022F4407242F480721A601A6822F44062B3
:1059500042F480621A604FF400129A614FF4801290
:105960009A610023124A0093009B934213D34FF095
:10597000904310229A6100230D4A0193019B9342A8
:105980000DD34FF090434FF480129A61064B094AB1
:105990009A6002B07047009B01330093E4E7019BDB
:1059A00001330193EAE700BF00ED00E00010024080
:1059B000001BB700003800080D488546FFF7AEFF12
:1059C0000C480D490D4A002302E0D458C45004335A
:1059D000C4188C42F9D30A4A0A4C002301E0136030
:1059E0000432A242FBD303F03DF8FFF727FDFEE7A8
:1059F0000080012004000020D8010020C4C7000856
:105A0000D80100202C0B0020FEE7000038B50F4B1A
:105A10001A6805460AB9012038BD4FF47A73B3FB02
:105A2000F2F30B4A1068B0FBF3F000F09DF8044667
:105A30000028F0D10F2DEED8024629464FF0FF3056
:105A400000F052F8034B20461D60E5E708000020F7
:105A5000040000200C00002010B5032000F032F8F4
:105A60000F20FFF7D3FF044618B9FFF709FE2046C1
:105A700010BD0124FBE70000034A044913680968CC
:105A80000B441360704700BFDC09002008000020B1
:105A9000014B1868704700BFDC09002038B5044688
:105AA000FFF7F6FF631C1CBF054B1B68054618BFBC
:105AB000E418FFF7EDFF431BA342FAD338BD00BF44
:105AC000080000200749CA6822F4E06203021204B9
:105AD00003F4E063120C134343F0BF6343F4003359
:105AE000CB60704700ED00E0164B30B5DC68C4F3C6
:105AF0000224C4F10703251D042B28BF0423062D0F
:105B00004FF0FF358CBF033C002405FA03F321EA74
:105B10000303A54022EA0502A340002843EA02034A
:105B2000ACBF00F16040084A4FEA0313B8BF00F071
:105B30000F00DBB2AABF00F56140135480F80033B8
:105B400030BD00BF00ED00E014ED00E0002807DBF1
:105B5000044A4109012300F01F00834042F821302C
:105B6000704700BF00E100E00138B0F1807F0BD248
:105B70004FF0E023054A5861F02182F823100020FD
:105B8000072298611A6170470120704700ED00E01C
:105B90000268D3B21421083BB3FBF1F30A498A42ED
:105BA000416C8CBF094A0A4A21F003010A4488BFAC
:105BB00008338264074AC26403F01F03012202FA19
:105BC00003F30365704700BF07040240200802404A
:105BD000000802408008024038B5002858D002680A
:105BE0002C4B9A424FF0140146D82B4B1344B3FB75
:105BF000F1F32A499B00C0E91013022380F82530F5
:105C0000D0E902430569116823432B4345692B43BF
:105C100085692B43C5692B43056A6FF30E112B432E
:105C20000B431360FFF7B4FFB4F5804F04BF0023AC
:105C300043604368816C03F07F020A60D0E913146B
:105C4000013B032B4C601ED8154B1649816513444C
:105C50009B000121013A01FA02F200214365C2656D
:105C60001960114B5A6400230122C36380F8243069
:105C700080F82520184638BD0C4B1344B3FBF1F3D4
:105C80000B499B00B7E70023C0E91533C365EAE77A
:105C90000120F0E707040240F8FFFDBF00000240CA
:105CA0003F8200104009024000090240F8FBFDBF9E
:105CB000000402400346002830D090F82520022A34
:105CC00009D00422C2630120012283F8252000228A
:105CD00083F8242070470268116821F001011160E7
:105CE000116821F00E011160816C0A6822F4807243
:105CF0000A60D0E9100202F01F0101228A404260CE
:105D0000D3E9132151605A6D32B1116821F48071C9
:105D10001160D3E9162151600020D5E701207047BA
:105D200008B590F82530022B09D00423C363002264
:105D3000012380F8253080F82420184608BD036828
:105D40001A6822F001021A601A6822F00E021A6024
:105D5000826C136823F480731360D0E9101303F08E
:105D60001F02012393404B60D0E913325A60436D08
:105D700033B11A6822F480721A60D0E916325A6080
:105D8000012380F82530002380F82430836B03B191
:105D900098470020D2E7016C426C036870B402F0AF
:105DA0001F020E681D680424944034420ED015F082
:105DB000040F0BD01A6892065EBF1A6822F0040224
:105DC0001A60036B4C6073B370BC18470224944094
:105DD000344212D015F0020F0FD01A68950606D47F
:105DE0001A6822F00A021A60012380F82530002385
:105DF0004C6080F82430C36AE5E7082494403442BC
:105E000011D02C070FD51C6824F00E041C60012350
:105E100003FA02F24A60C36380F82530002380F859
:105E20002430436BCFE770BC704700002DE9F74F7B
:105E3000DFF89091614C00230A6832FA03F502D131
:105E400003B0BDE8F08F012505FA03FA1AEA020251
:105E500000F0A8804E68D1F808C0032706F00305BB
:105E60004FEA430807FA08FE6F1E012F6FEA0E0E75
:105E700033D8876807EA0E0BCF6807FA08F747EAB6
:105E80000B078760476827EA0A0AC6F300179F4096
:105E900047EA0A074760C7680CFA08FC07EA0E07DA
:105EA0004CEA0707022DC7601CD14FEAD30C00EB68
:105EB0008C0C03F0070ADCF820704FEA8A0A4FF0D6
:105EC0000F0B0BFA0AFB27EA0B0B0F6907FA0AF70D
:105ED00047EA0B07CCF8207004E0032DDBD1BCF1BE
:105EE000010FD8D1076805FA08F507EA0E073D4308
:105EF00016F4403F056055D0D9F8605045F00105D3
:105F0000C9F86050D9F8605023F0030707F18047C3
:105F100005F0010507F58037019503F0030C019D9D
:105F2000BD684FEA8C0C4FF00F0E0EFA0CFEB0F16C
:105F3000904F25EA0E0E37D0214DA84236D005F5F8
:105F40008065A84234D005F58065A84232D005F5B9
:105F50008065A84230D005F58065A84214BF0625AB
:105F6000052505FA0CF545EA0E05BD60A568D74381
:105F700016F4801F0CBF3D401543A560E56816F47C
:105F8000001F0CBF3D401543E560656816F4003FF7
:105F90000CBF3D40154365602568F60354BF3D4086
:105FA00015432560013347E70025DAE70125D8E7E7
:105FB0000225D6E70325D4E70425D2E700040140F3
:105FC00000040048001002400AB1816170478162FC
:105FD00070470000284B1A6818BB02F4C062B2F583
:105FE000806FD3F8802022F48072C3F8802040D1E3
:105FF0001A6822F4C06242F400721A601F4A1268E2
:1060000032214A431E49B2FBF1F201325969490576
:1060100000D522B95B6958052BD503207047013A9A
:10602000F4E7B0F5007F1FD102F4C062B2F5806FD3
:10603000D3F8802042F48072C3F8802019D11A6806
:1060400022F4C06242F400721A600C4A12683221D3
:106050004A430B49B2FBF1F2013259694905D9D5DE
:10606000002AD7D0013AF8E722F4C06242F48062F5
:106070001A600020704700BF00700040040000203C
:1060800040420F00024A936843F480439360704794
:10609000007000402DE9F341044618B9012002B018
:1060A000BDE8F0810368D90714D423689A0758D44F
:1060B0002368190700F1A18023685A0700F1C880FE
:1060C00023689A0600F12F81E369002B40F05C8180
:1060D0000020E4E79F4DAB68EA6803F00C030C2B4B
:1060E0000AD102F00303032B08D12B689B03DCD5F4
:1060F0006368002BD9D1D1E7082BF5E76368B3F5C6
:10610000803F10D12B6843F480332B60FFF7C0FC35
:1061100006462B689F03C8D4FFF7BAFC801B64288F
:10612000F7D90320BBE7B3F5A02F04D12B6843F4C4
:1061300080232B60E6E72A6822F480322A602A68EE
:1061400022F480222A60002BE0D1FFF7A1FC064652
:106150002B689903A9D5FFF79BFC801B6428F7D90E
:10616000DFE77C4DAB68EA6803F00C030C2B17D11A
:1061700002F00303022B15D12B685A0502D5E36800
:10618000002B8BD06B68226923F0FE4343EA026345
:106190006B60714B1868FFF739FC002888D07DE7E9
:1061A000042BE8E7E368BBB12B6843F480732B60F2
:1061B000FFF76EFC06462B685B0507D56B68226906
:1061C00023F0FE4343EA02636B6071E7FFF760FC74
:1061D000801B0228EFD9A4E72B6823F480732B607F
:1061E000FFF756FC06462B685F057FF561AFFFF7AA
:1061F0004FFC801B0228F6D993E76369554D9BB18C
:10620000D5F8943043F00103C5F89430FFF740FC13
:106210000646D5F894309B073FF54EAFFFF738FCA4
:10622000801B0228F5D97CE7D5F8943023F00103D0
:10623000C5F89430FFF72CFC0646D5F894309F073C
:106240007FF53AAFFFF724FC801B0228F5D968E7F9
:10625000404DAB6DD80027D4AB6D43F08053AB6598
:10626000AB6D03F080530193019B01273B4E3368D4
:10627000D9051BD5A368012B29D1D5F8903043F05F
:106280000103C5F89030FFF703FC41F28838064659
:10629000D5F890309B0740D5002F3FF411AFAB6D80
:1062A00023F08053AB650BE70027DFE7336843F447
:1062B00080733360FFF7ECFB80463368DA05D9D48E
:1062C000FFF7E6FBA0EB08000228F6D929E7052B2B
:1062D00006D1D5F8903043F00403C5F89030CCE7F0
:1062E000D5F8902022F00102C5F89020D5F8902032
:1062F00022F00402C5F89020002BC4D1FFF7C8FBA0
:1063000041F288380646D5F890309907C4D5FFF792
:10631000BFFB801B4045F6D903E7FFF7B9FB801BA5
:106320004045B5D9FDE6A3690A4DCBB1D5F8983003
:1063300043F00103C5F89830FFF7AAFB0646D5F8ED
:1063400098309B073FF5C0AEFFF7A2FB801B0228E9
:10635000F5D9E6E6001002400C0000200070004075
:10636000D5F8983023F00103C5F89830FFF790FB7B
:106370000646D5F898309F077FF5A6AEFFF788FB55
:10638000801B0228F5D9CCE6454DAA6802F00C0224
:106390000C2A51D0022B2B6823F080732B603AD14A
:1063A000FFF776FB06462B6899012ED4EA683D4B31
:1063B0001340226A1343A26A43EA0223E26A43EAD1
:1063C000C263626A013A43EA0213226B5208013A3D
:1063D00043EA4253626B5208013A43EA4263EB607C
:1063E0002B6843F080732B60EB6843F08073EB60A5
:1063F000FFF74EFB04462B689A013FF569AEFFF7A5
:1064000047FB001B0228F6D98BE6FFF741FB801BF8
:106410000228C8D985E6FFF73BFB04462B689B01A1
:1064200004D4EA68204B1340EB6051E6FFF730FBE1
:10643000001B0228F2D974E6012B3FF42FAEEB6863
:10644000226A03F0030191427FF428AE616A03F0EF
:10645000F0020139B2EB011F7FF420AEA16A03F410
:10646000FE42B2EB012F7FF419AEE16A03F07842ED
:10647000B2EBC16F7FF412AE226B520803F4C0017D
:10648000013AB1EB425F7FF409AE626B5208013A08
:1064900003F0C063B3EB426F14BF01200020FEE5A0
:1064A000001002400C809F01FCFFEEFE174B9A6823
:1064B00002F00C02042A23D09A6802F00C02082A87
:1064C00020D09A6802F00C020C2A1DD1D968DA6833
:1064D000D868DB6801F00301C3F341630329C2F309
:1064E0000312C0F3062003F101030CBF0849094958
:1064F0005B000132B1FBF2F25043B0FBF3F07047A6
:10650000044870470248704700207047001002405E
:1065100000127A000024F4002DE9F8430E460546E7
:1065200010B90120BDE8F8836D4A136803F00F032A
:106530008B4245D3296811F001084CD12A68910794
:1065400040F1A780674B12F0040F1EBF996841F419
:10655000E0619960120741BF9A6822F47C5242F4CC
:10656000E0629A609A68A96822F0F0020A439A6091
:106570005B4C236803F00F03B34200F293802A6858
:10658000584C12F0040F40F0A380130706D5A368FF
:106590002A6923F4605343EAC203A360FFF786FF2E
:1065A000A368514AC3F30313D35C03F01F03D8401D
:1065B0004E4B18604E4B1868BDE8F843FFF726BAFB
:1065C000136823F00F030B431360136803F00F03EA
:1065D0008B42A6D1AEE76F68424C032F236849D1A6
:1065E0009B019ED5E368E26803F00303032BE36895
:1065F0000CBF40484048C2F30312C3F306230132E4
:10660000B0FBF2F25343E268C2F34162013252003E
:10661000B3FBF2F3394A93421AD84FF00008A3684B
:1066200023F003033B43A360FFF732FA41F28839BA
:106630000746A3686A6803F00C03B3EB820F3FF4CC
:106640007DAFFFF725FAC01B4845F2D9032069E763
:10665000A36813F0F00F04D08807DED5AB68002BD9
:10666000DBD1A36823F0F00343F08003A3604FF075
:106670008008D4E7022F09D113F4003F3FF451AF53
:10668000FFF714FF1D4B9842C7D9EAE713F4806F58
:10669000F4E7B8F1800F01BF124A936823F0F003CA
:1066A000936065E7236823F00F0333432360FFF70C
:1066B000EFF941F288380746236803F00F03B3422D
:1066C0003FF45DAFFFF7E4F9C01B4045F4D9BDE7E7
:1066D000A368E96823F4E0630B43A36055E700BFB8
:1066E000002002400010024029C5000804000020DC
:1066F0000C00002000127A000024F40000B4C4044E
:10670000014B1868704700BF04000020054B064A83
:106710009B68C3F30223D35C044A106803F01F0391
:10672000D84070470010024021C500080400002036
:10673000054B064A9B68C3F3C223D35C044A106826
:1067400003F01F03D84070470010024021C5000825
:10675000040000202DE9F3410446006810F40020F5
:106760005AD0254DAB6DD80044D4AB6D43F0805367
:10677000AB65AB6D03F080530193019B01261F4F66
:106780003B6843F480733B60FFF782F980463B68C7
:10679000D90535D5D5F89030226D13F440731FD04C
:1067A0009A421DD0D5F89020D5F8903043F480332C
:1067B000C5F89030D5F8903022F4407123F480333E
:1067C000D207C5F89030C5F8901009D5FFF760F9E9
:1067D00041F288380746D5F890309B0740F129816F
:1067E000D5F89030226D23F440731343C5F89030F0
:1067F00000200CE00026C2E70010024000700040BC
:10680000FFF746F9A0EB08000228C0D903201EB10B
:10681000AB6D23F08053AB652368DD0708D588494D
:106820006568D1F8882022F003022A43C1F8882045
:10683000990708D58249A568D1F8882022F00C0272
:106840002A43C1F888205A0708D57D49E568D1F860
:10685000882022F030022A43C1F888201F0708D57B
:1068600077492569D1F8882022F0C0022A43C1F86F
:106870008820DE0608D572496569D1F8882022F49F
:1068800040722A43C1F888209D0608D56C49A56945
:10689000D1F8882022F440622A43C1F888205906A2
:1068A00008D56749E569D1F8882022F440522A4387
:1068B000C1F888201A0608D56149256AD1F88820D0
:1068C00022F440422A43C1F88820DF0508D55C49FC
:1068D000656AD1F8882022F440322A43C1F8882022
:1068E0009E0308D55649A56AD1F89C2022F00302E0
:1068F0002A43C1F89C209D0508D55149E56AD1F885
:10690000882022F440222A43C1F8882059050FD557
:106910004B49256BD1F8882022F440122A43C1F854
:106920008820B5F5801F02BFCA6842F48012CA6091
:106930001A050FD54249656BD1F8882022F4400230
:106940002A43C1F88820B5F5800F02BFCA6842F417
:106950008012CA60DF040FD53949A56BD1F88820B1
:1069600022F040722A43C1F88820B5F1807F02BF2F
:10697000CA6842F48012CA609E040FD53049E56BA4
:10698000D1F8882022F040622A43C1F88820B5F16E
:10699000006F02BFCA6842F48012CA605D040FD55E
:1069A0002749256CD1F8882022F040622A43C1F89B
:1069B0008820B5F1006F02BFCA6842F48012CA6035
:1069C00019040FD51E49656CD1F8882022F0405279
:1069D0002A43C1F88820B5F1805F02BFCA6842F43B
