:020000040802F0
:100000000000082439F90208E5E30208E7E30208E2
:10001000E9E30208EBE30208EDE302080000000058
:10002000000000000000000000000000EFE30208F4
:10003000F1E3020800000000F3E30208F5E3020820
:100040008DF902088DF902088DF902088DF9020870
:100050008DF902088DF902088DF902088DF9020860
:100060008DF902088DF902088DF90208F9E30208FA
:100070008DF902088DF902088DF902088DF9020840
:100080008DF902088DF902088DF902088DF9020830
:100090008DF902088DF902088DF902088DF9020820
:1000A0008DF902088DF902088DF902088DF9020810
:1000B00005E402088DF902088DF902088DF902089D
:1000C0008DF902088DF902088DF902088DF90208F0
:1000D0008DF9020811E402081DE4020829E402086F
:1000E00035E402088DF90208000000008DF90208CD
:1000F0008DF902088DF902088DF902088DF90208C0
:100100008DF902088DF902088DF902088DF90208AF
:100110003DE402088DF902088DF902088DF9020804
:100120008DF902088DF902088DF902088DF902088F
:100130008DF902088DF902088DF902088DF902087F
:1001400000000000000000000000000000000000AF
:100150008DF902088DF902088DF902088DF902085F
:100160008DF902088DF902088DF902088DF902084F
:100170008DF902088DF902088DF9020800000000CF
:100180008DF902088DF902088DF902088DF902082F
:100190008DF902088DF902088DF902088DF902081F
:1001A0008DF902088DF902088DF902088DF902080F
:1001B0008DF902088DF902088DF902088DF90208FF
:1001C0008DF902088DF902088DF902088DF90208EF
:1001D0008DF902088DF902088DF902088DF90208DF
:1001E0008DF902088DF902088DF902088DF90208CF
:1001F0008DF902088DF902088DF902088DF90208BF
:100200008DF902088DF902088DF902088DF90208AE
:100210008DF902088DF902088DF902088DF902089E
:100220008DF902088DF902088DF90208000000001E
:100230008DF902088DF90208000000008DF902080E
:100240008DF902088DF902088DF902088DF902086E
:100250008DF902088DF902088DF902088DF902085E
:100260008DF902088DF902088DF902088DF902084E
:100270008DF902088DF902088DF9020800000000CE
:100280008DF902088DF902088DF9020800000000BE
:08029000000000008DF90208D6
:1002A00010B5054C237833B9044B13B10448AFF3B0
:1002B00000800123237010BD4804002400000000CA
:1002C0001084050808B5034B1BB103490348AFF37D
:1002D000008008BD000000004C04002410840508C4
:1002E00010F8012B11F8013B012A28BF9A42F7D0E0
:1002F000D01A70470000000000000000000000005D
:1003000001F0FF01102A2BDB10F0070F08D010F8C6
:10031000013B013A8B422DD010F0070F42B3F6D1CA
:10032000F0B441EA012141EA014122F007047FF0E3
:1003300000070023F0E80256083C85EA010586EA3A
:10034000010685FA47F5A3FA87F586FA47F6A5FA76
:1003500087F68EB9EED1F0BC01F0FF0102F0070282
:1003600032B110F8013B013A83EA010313B1F8D12D
:100370000020704701387047002D06BF354603380E
:10038000073815F0010F07D1013015F4807F02BF47
:10039000013015F4C03F0130F0BC0138704700BF98
:1003A000034613F8012B002AFBD1181A01387047B5
:1003B00081F0004102E000BF83F0004330B54FEA16
:1003C00041044FEA430594EA050F08BF90EA020F83
:1003D0001FBF54EA000C55EA020C7FEA645C7FEA16
:1003E000655C00F0E2804FEA5454D4EB5555B8BF39
:1003F0006D420CDD2C4480EA020281EA030382EAAA
:10040000000083EA010180EA020281EA0303362D3B
:1004100088BF30BD11F0004F4FEA01314FF4801C0E
:100420004CEA113102D0404261EB410113F0004F20
:100430004FEA03334CEA133302D0524263EB4303D7
:1004400094EA050F00F0A780A4F10104D5F1200E75
:100450000DDB02FA0EFC22FA05F2801841F10001D0
:1004600003FA0EF2801843FA05F359410EE0A5F1A4
:1004700020050EF1200E012A03FA0EFC28BF4CF0D5
:10048000020C43FA05F3C01851EBE37101F000458B
:1004900007D54FF0000EDCF1000C7EEB00006EEB98
:1004A0000101B1F5801F1BD3B1F5001F0CD3490822
:1004B0005FEA30004FEA3C0C04F101044FEA445279
:1004C00012F5800F80F09A80BCF1004F08BF5FEA00
:1004D000500C50F1000041EB045141EA050130BDE0
:1004E0005FEA4C0C404141EB0101013C28BFB1F5F2
:1004F000801FE9D291F0000F04BF01460020B1FA3D
:1005000081F308BF2033A3F10B03B3F120020CDA0F
:100510000C3208DD02F1140CC2F10C0201FA0CF0ED
:1005200021FA02F10CE002F11402D8BFC2F1200C52
:1005300001FA02F120FA0CFCDCBF41EA0C01904008
:10054000E41AA2BF01EB0451294330BD6FEA040451
:100550001F3C1CDA0C340EDC04F11404C4F120023C
:1005600020FA04F001FA02F340EA030021FA04F34E
:1005700045EA030130BDC4F10C04C4F1200220FAA5
:1005800002F001FA04F340EA0300294630BD21FAE3
:1005900004F0294630BD94F0000F83F4801306BFA9
:1005A00081F480110134013D4EE77FEA645C18BF9D
:1005B0007FEA655C29D094EA050F08BF90EA020F34
:1005C00005D054EA000C04BF1946104630BD91EA2C
:1005D000030F1EBF0021002030BD5FEA545C05D12F
:1005E0004000494128BF41F0004130BD14F580046E
:1005F0003CBF01F5801130BD01F0004545F0FE41E2
:1006000041F470014FF0000030BD7FEA645C1ABF16
:10061000194610467FEA655C1CBF0B46024650EA4D
:10062000013406BF52EA033591EA030F41F4002179
:1006300030BD00BF90F0000F04BF0021704730B5FF
:100640004FF4806404F132044FF000054FF00001D4
:1006500050E700BF90F0000F04BF0021704730B595
:100660004FF4806404F1320410F0004548BF40426A
:100670004FF000013EE700BF42004FEAE2014FEABF
:1006800031014FEA02701FBF12F07F4393F07F4F9A
:1006900081F06051704732F07F4208BF704793F09D
:1006A0007F4F04BF41F40021704730B54FF46074B0
:1006B00001F0004521F000411CE700BF50EA0102B3
:1006C00008BF704730B54FF000050AE050EA01025C
:1006D00008BF704730B511F0004502D5404261EBCC
:1006E00041014FF4806404F132045FEA915C3FF40D
:1006F000D8AE4FF003025FEADC0C18BF03325FEAAA
:10070000DC0C18BF033202EBDC02C2F1200300FA5A
:1007100003FC20FA02F001FA03FE40EA0E0021FA7F
:1007200002F11444BDE600BF53B94AB9002908BF1D
:1007300000281CBF4FF0FF314FF0FF3000F0C0B970
:10074000ADF1080C6DE904CE00F03EF8DDF804E0F0
:10075000DDE9022304B0704708B502460B4643ECBE
:10076000172BB5EEC07BF1EE10FA03D4BDE80840BC
:1007700000F00AB8B1EE477B51EC170B00F004F81B
:10078000404261EB410108BD9FED0B6B41EC170B43
:100790009FED0B5B27EE066BBCEEC66BB8EE464BCF
:1007A000A4EE457BFCEEC77B16EE101A17EE900AFE
:1007B000704700BFAFF30080000000000000F03D74
:1007C000000000000000F0412DE9F047089D8E4632
:1007D00004468846002B4AD18A42174662D9B2FAAB
:1007E00082F64EB1C6F1200301FA06F820FA03F3AF
:1007F000B74043EA0808B4404FEA174E1FFA87FC97
:10080000B8FBFEF1230C0EFB118843EA084301FB01
:100810000CF29A4209D9FB1801F1FF3080F0EA800E
:100820009A4240F2E78002393B449A1AA3B2B2FBE3
:10083000FEF00EFB102243EA024300FB0CFC9C4539
:1008400009D9FB1800F1FF3280F0D6809C4540F2B8
:10085000D3803B44023840EA0140A3EB0C03002163
:100860001DB1F3400022C5E90032BDE8F0878B429C
:1008700005D90DB1C5E9000100210846F5E7B3FA35
:1008800083F1002946D1734502D3824200F20581EB
:10089000841A6EEB030201209046002DE5D0C5E9D5
:1008A0000048E2E7002A00F09080B2FA82F6002EBB
:1008B00040F0A4808A1A030C4FEA174E80B2BCB2F3
:1008C0000121B2FBFEFC0EFB1C2243EA024304FBA7
:1008D0000CF29A4207D9FB180CF1FF3802D29A4267
:1008E00000F2E080C4469B1AB3FBFEF20EFB12330B
:1008F00040EA034302FB04F49C4207D9FB1802F1CF
:10090000FF3002D29C4200F2CA8002461B1B42EA20
:100910000C40A5E7C1F120068B4022FA06F71F43E1
:100920000EFA01F420FA06F32EFA06FE4FEA1749F2
:10093000234300FA01F81FFA87FCBEFBF9F01C0CF8
:1009400009FB10EE44EA0E4400FB0CFEA64502FA39
:1009500001F209D93C1900F1FF3A80F09C80A645CC
:1009600040F2998002383C44A4EB0E041FFA83FE47
:10097000B4FBF9F309FB13444EEA044403FB0CFCFB
:10098000A44508D93C1903F1FF3E80F08280A445BC
:100990007FD9023B3C4443EA0040A4EB0C04A0FB9B
:1009A00002EC64457346E14662D35FD05DB1B8EBBB
:1009B000030264EB090404FA06F622FA01F31E436B
:1009C000CC40C5E9006400214FE7B1FBF2FC010C0B
:1009D00041EA0E4180B240EA01423B4638463C467D
:1009E000B846BE462026B1FBF7F1A2EB080241EA69
:1009F0000C4166E7014618E710462CE7C6F12002D5
:100A00002EFA02F3B740B14020FA02F24FEA174E35
:100A10000A43B3FBFEF8BCB20EFB1833110C41EADB
:100A2000034108FB04F9B04089454FEA104380B206
:100A30003ED9791808F1FF3C01D289451FD8A1EBB6
:100A40000901B1FBFEF909FB04F80EFB191192B282
:100A500042EA0142424529D2BA1809F1FF31C4D213
:100A60004245C2D2A9F102013A44BEE7F0459DD207
:100A7000BEEB02036CEB070C0138E14696E7A7EBEF
:100A800009094944A8F1020CB1FBFEF909FB04F87D
:100A9000DBE773467FE7504666E70846FDE63B44E2
:100AA000023A33E7ACF1020C3B441CE749469CE7B1
:100AB000A1EB0901C446B1FBFEF909FB04F8C4E748
:100AC000704700BFC36823F4827343F00403C3601C
:100AD000704738B5044604B938BDE068FFF7F9FF40
:100AE000A568204620212C4613F0BFFAF3E7531ADD
:100AF0000F2B73B504460D461646019306D9002206
:100B000001A926F085FC019B2060A360324629469E
:100B1000206826F017FD019B226800216360D154F4
:100B200002B070BD08B5034678B1084A904206D9B4
:100B3000074A904201D91FF0E4FE1FF0DFFE1820A3
:100B40005843BDE8084013F092BA08BD5555550505
:100B5000AAAAAA0A00F1080373B504460D46036069
:100B600011B90F481FF0D3FE0846FFF719FC0F28F4
:100B700005EB0006019007D9002201A9204626F0C6
:100B800047FC019B2060A36032462946206826F07E
:100B9000D9FC019B226800216360D15402B070BD72
:100BA0004C84050837B504460D460846FFF7F8FBA8
:100BB0002B46009000216268204626F03BFE03B0E1
:100BC00030BDF8B5054608460C4626F01AFC064628
:100BD00088B1AC420AD062681AB12168286826F050
:100BE00069FC636800212A686B60D1540023226885
:100BF00063601370F8BD284626F003FC08B92E6820
:100C0000AF6823682B6063686B60A368AB6016B144
:100C10002660A760EAE704F108032360E6E700F135
:100C2000080373B503600446D1E900530F2B05EBAD
:100C30000306019306D9002201A926F0E9FB019BD6
:100C40002060A36032462946206826F076FC019B8E
:100C5000226800216360D15402B070BD0378093B63
:100C6000DBB2172B9DBF0348D84000F001000020E5
:100C7000704700BF1300800038B5044604B938BD82
:100C8000E068FFF7F9FF04F11000A56826F0E1FB2A
:100C900020462C212C4613F0E8F9EFE738B504463E
:100CA00004B938BDE068FFF7F9FF04F11000A5684A
:100CB00026F0CFFB20462C212C4613F0D6F9EFE787
:100CC000F8B500F108070C4605460760084626F00F
:100CD00098FB04F10806626860B1013203D0314626
:100CE000384632F0ECFD636826606B600023636079
:100CF0002372F8BD23682B60A368AB60F3E7F8B5F7
:100D0000164604468B680D1D01223BB9E2B1CA6844
:100D1000AA420ED1C4E900352046F8BD1A691D4625
:100D2000B242D3E90270CBBF012200223B46034608
:100D3000EBE7284614F0C3FD0369B3424FF000030C
:100D4000E8DBC4E90003E7E72846F5E7F8B516460F
:100D500004468B680D1D01223BB9E2B1CA68AA4264
:100D60000ED1C4E900352046F8BD1A7C1D46B242BA
:100D7000D3E902708BBF012200223B460346EBE71A
:100D8000284614F09CFD037CB3424FF00003E8D3E7
:100D9000C4E90003E7E72846F5E770B5044604B95F
:100DA00070BDE06804F11006FFF7F7FF04F12800BA
:100DB000A56826F04EFB304626F04BFB204640212E
:100DC0002C4613F052F9EAE72DE9F04105462C20B4
:100DD0000E4613F04CF905F1100104461030FFF7F0
:100DE0001EFFAB6AE868A3622B786660237000235D
:100DF000C4E9023318B12146FFF7E6FFE060AE68B0
:100E000027464FF0000816B92046BDE8F0812C2097
:100E100013F02DF906F1100105461030FFF7FFFE23
:100E2000B36AAB623378C5E902882B70BD606F602E
:100E3000F06818B12946FFF7C7FFE860B6682F468B
:100E4000E1E700002DE9F04381EAE174B5B0CF0F8E
:100E50000646A4EBE174012542F20F7142F21072D2
:100E60002346092B02D9632B29D8013506F1080343
:100E700079192D223046336026F045FBD6F80080E4
:100E8000C9221E4908EB070901A832F018FD6422A7
:100E90004D44632C20D8092C30468BBF34AB303402
:100EA00003EB4404E4B282BF14F8CB3C14F8CC4CFE
:100EB00089F8013008F8074035B0BDE8F083B3F594
:100EC0007A7F01D20235D1E78B4201D80335CDE7D5
:100ED000B3FBF2F30435C4E7B4FBF2F102FB1143B8
:100EE0000C4634A901EB430313F8CB1C13F8CC3C9C
:100EF00005F8011C05F8023DCBE700BF7E8405081C
:100F0000F0B50B4605460C46B5B0012142F20F7014
:100F100042F21072092B02D9632B23D8013105F15B
:100F20000803002228462B6026F0EDFA1C49C9224E
:100F300001A8D5E9007632F0C2FC6421BB19632C0C
:100F40001DD8092C28468BBF34AB303403EB440446
:100F5000E4B282BF14F8CB3C14F8CC4C7B703C70EC
:100F600035B0F0BDB3F57A7F01D20231D7E78342C5
:100F700001D80331D3E7B3FBF2F30431CAE7B4FB82
:100F8000F1F001FB1042044634A800EB420212F8D3
:100F9000CB0C12F8CC2C03F8010C03F8022DCEE791
:100FA0007E84050810B5084C4FF400710368074AA9
:100FB000204630F0FFFC2046FFF7F2F901462046BC
:100FC000BDE810400DF00EBFE4060024478505087B
:100FD0002DE9F74F0F46164600230446D1E90021BC
:100FE000C0E9003311448360914203F1010805D147
:100FF0006D4B984508D96D481FF08FFC12F8010B16
:10100000B04208BF4346EFE7B8F1000F14D04046A6
:10101000FFF788FD05468246D4E9009BCB4520D1E9
:10102000206818B1A168091A13F01FF81823C4E941
:10103000005503FB0855A560D7F800B05846D7E91E
:1010400000321344A3EB0B0189100029824614DC03
:10105000191A02294CD0032945D001294ED09A46AD
:1010600014E049465046FFF72BFE48460AF1180A9D
:1010700009F1180926F0EDF9D0E70078B04205D063
:101080009AF80100B0421CD10AF1010AD4E9019397
:10109000994539D009F10803524659464846C9F8DE
:1010A00000300023C9F80430FFF721FD63681833CE
:1010B0006360D7E900310B449A4571D00AF1010B06
:1010C000BCE79AF80200B04202D10AF1020ADDE759
:1010D0009AF803500AF10400B54202D10AF1030A5A
:1010E000D4E70139B1E70178B142CFD000F1010A6C
:1010F0009AF80010B142C9D00AF1010A9AF800101A
:10110000B14218BF9A46C1E72368294AA9EB0301F7
:10111000CD105543244A954201D126486CE79945A4
:1011200014BF284601202D182CD21F4A954228BFF3
:1011300015462846CDE90031FFF7F4FC01998046B9
:10114000084400F1080248F801200021524641609D
:101150005946FFF7CCFC009B40469B4600F1180225
:10116000D945009210D123B1A1681846C91A12F0CE
:101170007CFF009BC4F800806360182303FB058399
:10118000A36096E7084DD4E759460193FFF798FD11
:10119000584626F05EF90BF1180BDDE90003DDE798
:1011A000204603B0BDE8F08F55555505628505080A
:1011B000ABAAAAAA728505082DE9F04F8FB00C469C
:1011C000014602A8FFF72BFDDDE902255619AD10F7
:1011D000002D114640DCB31A022B58D0032B51D0FE
:1011E000012B59D0314602A8DDE902231A4426F02A
:1011F0005DFA039B012B75D9029B1A78302A5ED0C9
:1012000000227A4902A826F0D8FC01306DD1039A59
:1012100012F0010869D14FEA5209D4E900318B423A
:10122000A168A1EB030118BF6360B1EB520F6BD251
:1012300066684846F61A12F01AFF0546D4E90072AD
:10124000D21B002A59DD394630F0CAFCA168384665
:10125000C91B12F00AFF52E01046FFF7FFFC00BB6B
:10126000511C0846FFF7FAFCD8B9911C0846FFF755
:10127000F5FCB0B9D11C04320846FFF7EFFC80B989
:10128000013DA5E71046FFF7E9FC50B901310846DA
:10129000FFF7E4FC28B901310846FFF7DFFC00281E
:1012A000A0D08E429FD04A1C96429CD01046FFF799
:1012B000D5FC10B9137801F8013B0132F4E75B78F3
:1012C00003F0DF03582B9BD14FF0FF33022202A91A
:1012D00008A826F0DBFC02A808A9FFF772FC08A802
:1012E00026F0B7F8039B002B8AD1002402A826F031
:1012F000B0F820460FB0BDE8F08F002FA6D12E44E5
:1013000025604D446660A5606FF00049039B9845D9
:1013100001D30124EAE70223424602A908A826F0E5
:10132000B5FC089D32F094FA066832F091FA002379
:10133000102201A9036028462FF0F4F9019B07460B
:101340009D4202D12A481FF0E5FA32F081FA036883
:10135000222B02D126481FF0E3FA32F079FA036813
:1013600013B932F075FA066008A8FFB226F071F8DA
:10137000D4E901539D4206D02F7063680133636046
:1013800008F10208C2E7D4F800A0A5EB0A054D4514
:1013900002D118481FF0C1FA15B3B5EB450F4FEA5B
:1013A00045061FD84E4528BF4E46304612F05FFE18
:1013B000002D8346475503DD2A46514630F010FC88
:1013C00001355D44BAF1000F05D0A1685046A1EB8C
:1013D0000A0112F04AFE5E44C4E900B5A660CFE7F8
:1013E0000126DFE76FF00046DFE700BFC0A3050876
:1013F0008C8505087285050870B588B00D460146D4
:1014000002A8FFF70CFCDDE902241619A410002C39
:10141000114616DCB31A022B2ED0032B27D0012B3A
:101420002FD0314602A8DDE902231A4426F03EF906
:10143000039BCBBB002402A826F00BF8204608B083
:1014400070BD1046FFF70AFC00BB511C0846FFF7B1
:1014500005FCD8B9911C0846FFF700FCB0B9D11CB7
:1014600004320846FFF7FAFB80B9013CCFE710468B
:10147000FFF7F4FB50B901310846FFF7EFFB28B93D
:1014800001310846FFF7EAFB0028CAD08E42C9D0D6
:101490004A1CB242C6D01046FFF7E0FB10B91378E1
:1014A00001F8013B0132F4E7012B25D0029B1A78A9
:1014B000302A21D15B7803F0DF03582B1CD1102494
:1014C00032F0C6F90023224601A903600298019375
:1014D0002FF028F90446DDE901329342AAD01B78A7
:1014E000002BA7D132F0B4F90368222BA2D0002C34
:1014F000A0DB2C6001249EE70022044902A826F00C
:1015000035FB0130DBD10A24DAE700BFCAA30508A6
:1015100070B504468CB0FFF782FBD4E9002556195C
:10152000AD10002D114648DCB31A022B60D0032BFE
:1015300059D0012B61D031462046D4E900231A440A
:1015400026F0B4F86368012B16D923681A78302A7C
:1015500012D15B7803F0DF03582B0DD14FF0FF332E
:101560000222214606A826F091FB204606A9FFF795
:1015700028FB06A825F06DFFD4E90053EE18AE4213
:101580004ED16368012B15D128496846FFF7E2FA6E
:101590002146684626F0F2F9014606A8FFF790FBBF
:1015A00006A92046FFF70DFB06A825F052FF684666
:1015B00025F04FFF20460CB070BD1046FFF74EFBE4
:1015C00000BB511C0846FFF749FBD8B9911C0846DF
:1015D000FFF744FBB0B9D11C04320846FFF73EFBCD
:1015E00080B9013D9DE71046FFF738FB50B9013146
:1015F0000846FFF733FB28B901310846FFF72EFBF9
:10160000002898D08E4297D04A1CB24294D01046FF
:10161000FFF724FB10B9137801F8013B0132F4E71E
:1016200028782FF081F905F8010BA8E75F9C0508E1
:10163000D0E900320020934200D1704713F8011B1B
:1016400041EA0020F7E710B50446C03025F001FF5D
:1016500004F1A80025F0FDFE04F1900025F0F9FE4C
:1016600004F1780025F0F5FEA06EFFF705FB04F10C
:10167000480025F0EEFE04F1300025F0EAFE04F10A
:10168000180025F0E6FE204625F0E3FE204610BDBA
:1016900070B54668044608460D46FEF781FE864250
:1016A00009D156B132462946206830F089FAB0FA9D
:1016B00080F0400970BD0020FCE70120FAE770B51A
:1016C0000446D0E90056AE4207D1206818B1A1689F
:1016D000091A12F0CAFC204670BD2846183525F0BC
:1016E000B8FEF0E770B52DED028BB8B00546B0EE50
:1016F000408B002416A806AE1FF092F9384BADF8C7
:10170000CC4021461693374B32945A689B6852F866
:101710000C0C0692CDE93444CDE9364433503044C4
:101720001FF069F9304B0EA80D94069314331693ED
:101730002E4BCDE90944CDE90734CDE90B4413F034
:10174000C3FA2B4B07A916A8079310238DF848401E
:101750000F9312ABCDE910341FF04DF925493046F7
:1017600025F0BAF902680346B0EE480B52F80C2C8B
:10177000134406225A6025F025FA07A9684625F089
:1017800098FA22462E21684626F0A1F9013010D0A1
:10179000019A82B1009B134413F8013C302B03D112
:1017A000684625F096FFF3E72E2B13D1684625F007
:1017B00090FF019B73B910492846FFF7CBF96846A3
:1017C00025F047FE304625F0A9FC284638B0BDEC90
:1017D000028B70BD69462846FFF772FAEFE700BF3B
:1017E000DCD20508A0DA0508BCDA050814DB050818
:1017F000E0D90508C50A02085F9C0508426808B5DB
:101800004B689A4208D14AB10968006830F0D8F9AB
:10181000B0FA80F0400908BD0020FCE70120FAE79B
:101820002DE9F843144F06468846FC680437BC424D
:1018300004D112493046FFF78DF914E0656B04F1CD
:101840002C09A94504D1204614F035F80446EEE7EA
:10185000414605F12800FFF7D1FF38B105F14001FD
:101860003046FFF7DCF93046BDE8F883284614F02F
:1018700024F80546E5E700BF0C0B002445A7050842
:1018800010B52DED028B86B00446B0EE408A684656
:10189000FFF7C6FF0E496846FFF7FAFE90B1B5EEB6
:1018A000408A0C4B0C492046F1EE10FA18BF19463D
:1018B000FFF750F9684625F0CCFD204606B0BDEC98
:1018C000028B10BDB7EEC80A2046FFF70BFFF1E709
:1018D0009D850508928505089785050838B500237C
:1018E0000D46011D0446037183604361C0E9031185
:1018F000A86880B1FFF768FA03461A469B68002B78
:10190000FBD10346E2601A46DB68002BFBD16B6912
:1019100022616361A060204638BD0000F8B5D1E9BE
:10192000003704460E46FF1A0023C0E900338360E7
:10193000FB100B485843FFF7F5F807440546A7602E
:10194000C4E90000D6E90067B74202D120466560CD
:10195000F8BD3146284618361835FFF760F9F3E729
:10196000ABAAAAAA2DE9F3471E460746EC200D466E
:1019700012F07DFB336800F1140804461E68D8227B
:10198000002107F104090661404630F043F904F1F3
:10199000340204F11C03A945E26204F14C026361C4
:1019A0004FF00003626404F164022377AA46E26503
:1019B000224684F8343084F84C3084F8643002F8DD
:1019C000783F84F8943084F8AC3084F8C43084F8DC
:1019D000DC30C4E9202204F19402C4F88C2004F124
:1019E000AC02C4F8A42004F1C402C4F8BC2004F181
:1019F000DC02C4F8D4200FD17B692BB1D7F810A03A
:101A0000DAF81030B3422BDB324639466846FFF72E
:101A100076F9DDE9005A1EE02B69B3420CDDFB6864
:101A2000AB4207D0284613F04AFF0369B342EBDA12
:101A3000C36853B301201BE029DA3B69AB420FD0E6
:101A4000284613F038FF03690546B342DCDDDAF8B7
:101A50000C303BB18246BAF1000F18D0002DE9D10D
:101A6000D145E7D0DAF810309E42ACBF002001200B
:101A70004B4652462146254613F023FF7B6901332E
:101A80007B61284602B0BDE8F0878246E8E7404621
:101A9000FFF7D9FDEC21204612F0E7FAF1E700004C
:101AA000F0B5051D0A460C6885B08368294683B9E0
:101AB0008D4202D00B69A34207DD02AB0392094AB3
:101AC000009303ABFFF74EFF014601F1140005B090
:101AD000F0BD1E69D3E9027CB442D6BF1946634605
:101AE0003B46E4E734AF0508344B2DE9F0411B7861
:101AF0008AB00C460390002B43D103A93048FFF76E
:101B0000CFFF03A905682E48FFF7CAFFD0F8A83019
:101B10002C4E4FF400712C4A2C4804362C4FDFF821
:101B2000C480CDE9005323462FF044FFB468B4428B
:101B300013D1264C2046FEF733FC7D232044254953
:101B400000F8013C204630F06DF82046FEF728FCF6
:101B5000014620460DF046F913E0A36A4246802173
:101B60001B48009323692FF025FF7F280CDD1A49BD
:101B700004A8FEF7EFFF04A8FFF714FA04A825F065
:101B800068FC0AB0BDE8F0811048FEF709FC054684
:101B90003846FEF705FC0544B5F5007F01D30F4933
:101BA000E6E73946094830F03DF80D49074830F07E
:101BB00039F8204613F07FFE0446B8E7A40E00244F
:101BC000240B0024E40A0024A2850508E404002470
:101BD0006404002444A70508CE850508FB85050894
:101BE000C4850508C68505082DE9F7431D46074647
:101BF0002C200C4607F1040912F039FA2B6800F189
:101C00001802A145064693F800804FF000032546D0
:101C100080F810800376C3618362C0E908220DD189
:101C20007B691BB13D692B7C434528D3424639462D
:101C30006846FFF78BF8DDE900451DE0237C43454E
:101C40000CD9FB68A34207D0204613F038FE037C72
:101C50004345EBD2C36833B3012017E025D23B697B
:101C6000A3420CD0204613F026FE037C04464345D5
:101C7000DCD9EB682BB10546BDB1002CECD1A945F0
:101C8000EAD0287C404594BF002001204B462A46DC
:101C90003146344613F015FE7B6901337B612046E3
:101CA00003B0BDE8F0830546E9E70020FEF711FF29
:101CB0002C21304612F0D9F9F1E708B525F09AFF4A
:101CC000C00F08BDF0B58FB000230E4601A90193E7
:101CD000FFF792FB0446002843D0234D02A8019948
:101CE0000435FFF7AFF86C682F467CB9BD4235D09C
:101CF00005F1100102A8FFF7E0FF78BB314608A804
:101D00002C35FFF705FC6C682E4618E004F1100036
:101D100002A9FFF7D2FF0028D4E902320ABF254604
:101D200014461C46E1E704F1100008A9FFF7C5FFBF
:101D30000028D4E902320ABF264614461C46002C6D
:101D4000F1D1B54207D006F1100108A8FFF7B5FFA1
:101D500008B906F1280408A825F07BFB02A825F0A5
:101D600078FB20460FB0F0BD0C0B002438B51446AC
:101D7000526805460B4622B90849FEF7EBFE284695
:101D800038BD21461846FFF79DFF002814BF0146C5
:101D900021462846FEF743FFF1E700BF22860508EB
:101DA00010B5044608461146FFF78CFF30B100F12C
:101DB00034012046FEF733FF204610BD024920467D
:101DC000FEF7C8FEF8E700BF45A70508F0B50446D2
:101DD0001F461646002104F1080520222DED028B36
:101DE0008BB02FF017FF46492846FEF7B3FE30466A
:101DF0003946FFF767FF064600285DD0002301A99A
:101E000012980393CDE90133FFF7D6F900284DD09E
:101E100006F118073B4996ED0C8A3846FFF738FC67
:101E2000019E78B1029B9B1B042B3FD101A8FFF7B9
:101E3000FFFB00EE100A606004A8B7EEC00AFFF7CF
:101E400051FC2AE030493846FFF722FC002838D000
:101E5000029B9B1B013B032B28D801A8FFF7E8FB43
:101E600007EE900A014604A8B8EE670BB7EEC87AF1
:101E700020EE070BF7EEC07BC4ED017AF7EE007A97
:101E800038EE678ADFED217AB0EEC88AB4EEE78AD1
:101E9000F1EE10FAD3D5FFF733F8284604A9FEF780
:101EA00090FE04A825F0D5FA01232370019818B1FB
:101EB0000399091A12F0D9F820460BB0BDEC028B39
:101EC000F0BD13493846FFF7E3FB0028EED0029B34
:101ED0009B1B013B032BE9D8B7EE007A01A8FFF763
:101EE000A7FBDFED0C7A00280B4B0C49284647FE78
:101EF000877A18BF1946C4ED017AFEF753FED3E77F
:101F00005F9C05082786050882920508BD3786353F
:101F10009D85050800000000928505089785050845
:101F200070B54568044665B105F1100605F1280055
:101F300025F08FFA304625F08CFA4021284612F021
:101F400094F8204670BD2DE9F04104460F469046B6
:101F50008D680E1D012045B908B3FB68B34211D14D
:101F6000256066602046BDE8F08105F1100140461D
:101F7000FFF7A3FE00282E46D5E9022314BF15461D
:101F80001D46E8E7304613F09AFC0546414605F148
:101F90001000FFF792FE20B100232360E1E73546F1
:101FA000F4E7C4E90050DDE72DE9F341066802AB30
:101FB00004461746456806F1040803E90600A9B976
:101FC000424513D002F1100105F11000FFF775FE34
:101FD00043463A46294613F074FC73692846013398
:101FE00073610023636002B0BDE8F0810120EFE778
:101FF000F0B585B00C4606460090402012F037F848
:1020000000F1100754F8041B05463846FEF7A2FD00
:10201000214602AC05F12800FEF752FE3A46314651
:1020200020460195FFF78FFF039B23B1684694E894
:102030000600FFF7B9FF6846FFF772FF05B0F0BD75
:1020400070B50E468568041D0DB9204670BD05F1BA
:1020500010003146FFF731FE0028D5E902230ABF00
:102060002C461D461546EFE72DE9F8431E460B1D8D
:1020700004460F469A42154613D14B694BB10D6980
:10208000314605F11000FFF718FE10B10023236060
:1020900027E0324639462046FFF755FF2046BDE887
:1020A000F88302F1100930464946FFF706FE8046E4
:1020B000C8B1FB68AB4202D123606360EEE72846FB
:1020C00013F0FDFB314680461030FFF7F6FD002887
:1020D000DFD0D8F80C301BB92360C4F80480DDE7EA
:1020E00025606560DAE731464846FFF7E6FDB0B1A6
:1020F0003B69AB4202D1C4F80080DEE7284613F00A
:10210000DAFB804600F110013046FFF7D6FD0028CB
:10211000BFD0EB68002BBAD0C4F80080DDE7C4E97B
:102120000050BBE72DE9FF4180460E46FFF788FFD0
:10213000044608F10403984205D000F1100130462E
:10214000FFF7BBFD28B34020CDF8008011F08FFFD2
:1021500000F11007054631463846FEF7B1FD05F19E
:10216000300301952246AB6200234146EB6285F8BD
:10217000303002AD3B462846FFF776FF039B6BB13C
:10218000684695E80600FFF70FFF04466846FFF72C
:10219000C7FE04F1280004B0BDE8F081029CF5E719
:1021A0002DE9FF4104460F46FFF74AFF0546231D70
:1021B000984205D000F110013846FFF77EFD10B3BC
:1021C0004020009411F053FF00F1100806463946F4
:1021D0004046FEF775FD06F1280007F11801FEF7ED
:1021E0006FFD019602AE43462A4621463046FFF770
:1021F0003BFF039B23B1684696E80600FFF7D4FE39
:102200006846FFF78DFE04B0BDE8F0812DE9FF417F
:1022100080460E46FFF714FF044608F10403984277
:1022200005D000F110013046FFF747FD28B34020EC
:10223000CDF8008011F01BFF00F110070546314674
:102240003846FEF7ECFC05F1300301952246AB62FF
:1022500000234146EB6285F8303002AD3B4628460C
:10226000FFF702FF039B6BB1684695E80600FFF796
:102270009BFE04466846FFF753FE04F1280004B0B5
:10228000BDE8F081029CF5E770B50E468568041D37
:102290000DB9204670BD05F110003146FFF70DFD68
:1022A0000028D5E902230ABF2C461D461546EFE754
:1022B00038B5456804463DB105F1100025F0C9F870
:1022C0002C21284611F0D1FE204638BD2DE9F341DE
:1022D000066802AB04461746456806F1040803E9A0
:1022E0000600A9B9424513D002F1100105F1100012
:1022F000FFF7E3FC43463A46294613F0E2FA7369D6
:102300002846013373610023636002B0BDE8F081A9
:102310000120EFE72DE9F04104460F4690468D6815
:102320000E1D012045B908B3FB68B34211D12560E9
:1023300066602046BDE8F08105F110014046FFF7D8
:10234000BCFC00282E46D5E9022314BF15461D46C5
:10235000E8E7304613F0B3FA0546414605F11000B0
:10236000FFF7ABFC20B100232360E1E73546F4E73B
:10237000C4E90050DDE72DE9F8431E460B1D044675
:102380000F469A42154613D14B694BB10D69314640
:1023900005F11000FFF791FC10B10023236027E046
:1023A000324639462046FFF7B5FF2046BDE8F883A0
:1023B00002F1100930464946FFF77FFC8046C8B15C
:1023C000FB68AB4202D123606360EEE7284613F05E
:1023D00076FA314680461030FFF76FFC0028DFD0D8
:1023E000D8F80C301BB92360C4F80480DDE7256001
:1023F0006560DAE731464846FFF75FFCB0B13B69FC
:10240000AB4202D1C4F80080DEE7284613F053FA4D
:10241000804600F110013046FFF74FFC0028BFD086
:10242000EB68002BBAD0C4F80080DDE7C4E90050A7
:10243000BBE72DE9FF4180460E46FFF725FF044626
:1024400008F10403984205D000F110013046FFF76F
:1024500034FC00B32C20CDF8008011F008FE00F110
:102460001007054631463846FEF7D9FB0023019593
:102470002246AB6202AD3B4641462846FFF77BFF52
:10248000039B6BB1684695E80600FFF71FFF044603
:102490006846FFF70DFF04F1280004B0BDE8F081A5
:1024A000029CF5E72DE9FF4180460E46FFF7ECFE62
:1024B000044608F10403984205D000F110013046AB
:1024C000FFF7FBFB00B32C20CDF8008011F0CFFD0F
:1024D00000F11007054631463846FEF7F1FB0023B0
:1024E00001952246AB6202AD3B4641462846FFF7C6
:1024F00042FF039B6BB1684695E80600FFF7E6FED6
:1025000004466846FFF7D4FE04F1280004B0BDE895
:10251000F081029CF5E7F0B585B005460E460090C7
:102520002C2011F0A4FD00F1100704463168384654
:10253000FEF710FB736801943A46A36202AC294689
:102540002046FFF7E7FE039B23B1684694E80600A8
:10255000FFF7BCFE6846FFF7ABFE05B0F0BD00001C
:102560002DE9F04F07460025D0E900032DED028B41
:102570001B1AADF50B7D302B0995CDE9075540F2BF
:10258000AE8007A9FEF738FF002800F0A880386861
:1025900008A91830FEF730FF002800F0A080386846
:1025A00009A93030FEF728FF002800F0988009992B
:1025B0000AA8FEF747FC12AB9E491CA88DF84850AC
:1025C0004FF003098DF860509B4ECDE9103518ABE4
:1025D000CDE91635FEF7BEFA08A99748FFF760FA6D
:1025E0000446014654A8FEF71AFB04F118015AA844
:1025F000FEF715FB04F1300160A8FEF710FB04F1B3
:10260000480166A8FEF70BFB04F160016CA8FFF718
:1026100065F904F1780172A8FEF701FB04F190015D
:1026200078A8FEF7FCFA04F1A8017EA8FEF7F7FAF5
:1026300004F1C00184A8814CFEF7F1FA6CA922A82C
:10264000FFF74CF9A068FEF7A8FB231D089940A8E6
:10265000A5606561C4E90333FEF7F4FB784B40A93C
:1026600049A84893FEF72CFB48A92046FFF7C0FC79
:1026700049A824F0EEFE40A824F0EBFE7149D7E90A
:1026800000239B1ADB104B43994508D315B96E4BB9
:102690001B7893B9DDE90710FFF726FA0DE009F181
:1026A0000101994221D3694948A8FEF753FA48A885
:1026B000FEF778FC48A824F0CCFE2498FEF7DCFA5C
:1026C00054A8FEF7C0FF1CA824F0C3FE16A824F0EF
:1026D000C0FE10A824F0BDFE0AA824F0BAFE0DF535
:1026E0000B7DBDEC028BBDE8F08F182408A93046A5
:1026F00004FB09F402EB0408FFF7D2F90AA900F180
:10270000C003424648A8FFF731FB48A910A8FEF7CE
:1027100058FA48A824F09DFE3A680AA948A822441D
:10272000FFF73EFB48A916A8FEF74BFA48A824F08D
:1027300090FE10A928A8FEF772FADDF85CA0BAF1A5
:10274000000F32D042ABDDF858800AF1010140A8F9
:102750004093002341938DF8083124F073FF012248
:102760003B4940A825F0FAF85246414640A825F0DA
:10277000F5F8374940A825F007F9014648A8FEF7C3
:102780009FFA34493AA8FEF7E5F93AA92B48FFF732
:10279000C9FC48A9FEF715FA3AA824F05AFE48A841
:1027A00024F057FE40A824F054FE08A93046FFF755
:1027B00077F900F1480110A8FFF720F808B326497F
:1027C00028A8FEF7EFF93B6808A93046DDF820801D
:1027D00003EB040A18341C44FFF762F9C030534677
:1027E0000AAA4146CDE9004040A8FFF7EFFA9DF85C
:1027F00000310393002B35D142A824F02AFE28A8EB
:1028000059E708A93046FFF74BF900F1300110A84D
:10281000FEF7F4FF08B11149D2E708A93046FFF7E7
:102820003FF900F1180110A8FEF7E8FF0028CAD010
:102830000B49C5E75F9C0508240B0024E40A00242B
:102840002D860508ABAAAAAA040000243086050834
:10285000EAA005084F860508558605086286050822
:102860007086050842A91CA89DED418A0DF18C08CF
:1028700024F08BFE249C002C40F0E48023AB984590
:1028800000F0168408F1100128A8FFF716FA0028B6
:1028900040F00E8428A922A8FFF7CBFDD0ED007AE6
:1028A000B4EE678AF1EE10FA00F0C18208A9304652
:1028B000FFF7F6F800F1480110A8FEF79FFF002887
:1028C00000F0CD80B34C34A82146FEF743F92146F1
:1028D0002EA8FEF73FF92EA922A8FFF7E3FD34A9A1
:1028E00090ED000A3AA8FEF7CBFF3AA949A8489410
:1028F000FEF7E6F948A9A848FFF77AFB49A824F0B3
:10290000A8FD3AA824F0A5FDA44C2EA824F0A1FD12
:1029100034A824F09EFD214634A8FEF71BF9214679
:102920002EA8FEF717F92EA922A8FFF7BBFD34A9A0
:1029300090ED000A3AA8FEF7A3FF3AA949A84894E7
:10294000FEF7BEF948A99448FFF752FB49A824F0C6
:1029500080FD3AA824F07DFD914C2EA824F079FD4D
:1029600034A824F076FD214634A8FEF7F3F821467A
:102970002EA8FEF7EFF82EA922A8FFF793FD34A9A1
:1029800090ED000A3AA8FEF77BFF3AA949A84894BF
:10299000FEF796F948A98048FFF72AFB49A824F0DA
:1029A00058FD3AA824F055FD7E4C2EA824F051FD88
:1029B00034A824F04EFD214648A89DF82050FEF78B
:1029C000C9F848A922A8FFF76DFDFCEEC87ACDED45
:1029D000047AD0ED007A28469DF81020FCEEE77AC4
:1029E000CDED057A9DF814100BF0B2F948A824F04B
:1029F00030FD08A96C48FFF753F80546214648A862
:102A0000FEF7A8F848A905F16000FFF74BFD80ED3F
:102A1000008A48A824F01DFD48941CA949A8FEF787
:102A2000FEF85D4848A9FFF7E3FA49A824F011FD34
:102A3000039D42A809F1020924F00BFD28A824F007
:102A400008FD1BE604F1100028A9FFF736F900285D
:102A5000D4E902230ABFA0461C4614460BE708A986
:102A60005148FFF71DF800F1300110A8FEF7C6FE2F
:102A7000002800F09B80474C34A8484D2146FEF7C3
:102A800069F821462EA8FEF765F82EA922A8FFF7BF
:102A900009FD34A990ED000A3AA8FEF7F1FE3AA923
:102AA00049A84894FEF70CF948A93B48FFF7A0FA5B
:102AB00049A824F0CEFC3AA83A4C24F0CAFC2EA82F
:102AC00024F0C7FC34A824F0C4FC214634A8FEF747
:102AD00041F821462EA8FEF73DF82EA922A8FFF7BF
:102AE000E1FC34A990ED000A3AA8FEF7C9FE3AA924
:102AF00049A84894FEF7E4F848A92748FFF778FA70
:102B000049A824F0A6FC3AA8254C24F0A2FC2EA843
:102B100024F09FFC34A824F09CFC214634A8FEF746
:102B200019F821462EA8FEF715F82EA922A8FFF7BE
:102B3000B9FC34A990ED000A3AA8FEF7A1FE3AA923
:102B400049A84894FEF7BCF848A91348FFF750FA83
:102B500049A824F07EFC3AA824F07BFC2EA824F09F
:102B600078FC34A824F075FC08A90F48FEF798FFFC
:102B70000446294648A8FDF7EDFF48A904F1600086
:102B8000FFF790FC80ED008A48A824F062FC48958D
:102B900043E700BF70860508E40A00246286050842
:102BA0007B86050855860508240B0024AF4C10A829
:102BB0002146FEF76DFD002800F09380AC4C34A850
:102BC0002146FDF7C7FF21462EA8FDF7C3FF2EA91A
:102BD00022A8FFF767FC34A990ED000A3AA8FEF797
:102BE0004FFE3AA949A84894FEF76AF848A9A148B7
:102BF000FFF7FEF949A824F02CFC3AA824F029FCA0
:102C00009D4C2EA824F025FC34A824F022FC21465B
:102C100034A8FDF79FFF21462EA8FDF79BFF2EA9A4
:102C200022A8FFF73FFC34A990ED000A3AA8FEF76E
:102C300027FE3AA949A84894FEF742F848A98D48CA
:102C4000FFF7D6F949A824F004FC3AA824F001FCC7
:102C50008A4C2EA824F0FDFB34A824F0FAFB214670
:102C600034A8FDF777FF21462EA8FDF773FF2EA9A4
:102C700022A8FFF717FC34A990ED000A3AA8FEF746
:102C8000FFFD3AA949A84894FEF71AF848A97948DF
:102C9000FFF7AEF949A824F0DCFB3AA824F0D9FBF1
:102CA0002EA824F0D6FB34A824F0D3FB08A974483E
:102CB000FEF7F6FE10A96030FFF7BBFB10A980ED10
:102CC000008A48A8FDF7ABFF1CA94EA8FDF7A7FF97
:102CD00048A96848FFF764FA4EA824F0BAFB48A850
:102CE000A4E608A96648FEF7DBFE00F1180110A86B
:102CF000FEF784FD00287DD0604D34A82946FDF7FD
:102D000029FF29462EA8FDF725FF2EA922A8FFF7A7
:102D1000C9FB34A990ED000A3AA8FEF7B1FD3AA923
:102D200049A84895FDF7CCFF48A95248FFF760F93C
:102D300049A824F08EFB3AA824F08BFB2EA824F09F
:102D400088FB34A824F085FB214634A8484DFDF7C4
:102D500001FF21462EA8FDF7FDFE2EA922A8FFF7B0
:102D6000A1FB34A990ED000A3AA8FEF789FD3AA923
:102D700049A84894FDF7A4FF48A93E48FFF738F951
:102D800049A824F066FB3AA83B4C24F062FB2EA82D
:102D900024F05FFB34A824F05CFB214634A8FDF747
:102DA000D9FE21462EA8FDF7D5FE2EA922A8FFF7B1
:102DB00079FB34A990ED000A3AA8FEF761FD3AA923
:102DC00049A84894FDF77CFF48A92A48FFF710F965
:102DD00049A824F03EFB3AA824F03BFB2EA824F09F
:102DE00038FB34A824F035FB08A92548FEF758FE27
:102DF0000446BEE610A948A8FDF711FF1CA94EA87D
:102E0000FDF70DFF48A91B48FFF7CAF94EA824F0AB
:102E100020FB48A824F01DFB08A91948FEF740FE36
:102E200028A96030FFF705FB80ED008A00E6154B0E
:102E30001B78002B7FF4FDAD08A93046FEF730FE6D
:102E400000F1480110A8FEF7D9FCE8B10A4948A8EA
:102E5000FDF780FE48A90748FFF764F91CA924F094
:102E600094FB48A824F0F5FAE3E500BF7B8605084B
:102E700070860508E40A0024558605086286050860
:102E8000240B00240400002408A99848FEF708FE3B
:102E900000F1300110A8FEF7B1FC08B19449D6E763
:102EA00008A99248FEF7FCFD00F1180110A8FEF7F2
:102EB000A5FC08B18F49CAE710A98F48FFF7A6F90A
:102EC0001CA924F062FBB4E58C4C08A93046FEF73F
:102ED000E7FD48A9603048948DED498AFFF71BFB58
:102EE0001CA949A84894FDF79AFE834848A9FFF712
:102EF0007FF849A824F0ADFA08A93046FEF7D0FDC6
:102F000000F1480110A8FEF779FC804600283FF444
:102F10008FAD7B4D0AF07EFCDFF8ECB13AA9AB68CF
:102F200004359DF82020CBF8000028460A70002BBD
:102F300040F0A780854202D02B7C934209D934AB64
:102F40004891704A2946009348AB6D48FEF74CFE05
:102F5000054605F1180AFCEEC87ADBF80030404659
:102F6000E969D346CDED047A9DF810400493002919
:102F700040F09180002800F09980296A594505D0D9
:102F8000584612F09CFC017CA1421BD2DA4507D0C6
:102F90009BF81080A04594BF4FF000084FF0010847
:102FA000202011F064F8049B014604744361002062
:102FB00053465A46C1E90600404612F082FCAB6A0D
:102FC0000133AB624D4B489327E54848FEF768FD57
:102FD00000F1180110A8FEF711FC08A920B1434820
:102FE000444CFEF75DFD74E74048FEF759FD04468A
:102FF00010A948A804F160056434FDF710FE48A943
:1030000028468DED4E8AFFF73FF9A042804605D055
:1030100000F1100148A8FEF750FEF0B12C203495C5
:1030200011F025F800F1100B044648A95846FDF7A9
:1030300047FE4E9B35944246A3623AAC5B46294616
:103040002046FFF798F93B9B23B134A894E806008B
:10305000FFF73CF934A8FFF72BF948A824F0F9F959
:1030600010A948A8FDF7DBFD1CA94EA8FDF7D7FD68
:1030700048A92148FFF794F84EA824F0EAF948A897
:1030800038E793F810E0D3E902C496452ABF1D46FD
:10309000234663464BE70A7C8B46A242D1E902E312
:1030A0008BBF404600207146194660E758466AE7E4
:1030B00008A93046FEF7F4FC00F1480110A8FEF71D
:1030C0009DFB00287FF400AF08A93046FEF7E8FC1E
:1030D00000F1300110A8FEF791FB08A900283FF489
:1030E00074AF0248024CFEF7DBFCF2E6240B00242E
:1030F0006286050870860508E40A002455860508DE
:10310000AC0E002434AF0508A80E0024734B4168B0
:10311000F0B51B78B1B00546012B05D1006831B080
:10312000BDE8F0400BF05EBE002900F0C5800068ED
:1031300003787B2BF3D03A2229466846FDF748FFF7
:10314000DDE900639B1B602B40F0B88006F148016D
:1031500006A8FDF764FD06A90CA8FDF760FDDDE9F2
:103160000C241719A410002C11464EDCBB1A022B9C
:1031700066D0032B5FD0012B67D039460CA8DDE960
:103180000C231A4424F092FA0D9C032C73D914F0EA
:10319000010470D1224652490CA824F00EFD431CB4
:1031A000074668D1314612A8FDF739FD06F118012E
:1031B00018A8FDF734FD06F130011EA8FDF72FFD1C
:1031C000022322460CA924A824F060FD3B460222DB
:1031D0000CA92AA824F05AFD0520FDF7A3FC00F154
:1031E000780605460390059612AB2819191918346C
:1031F000902C3DD1052418250496013C46D312ABF2
:1032000005FB043024F025F9F7E71046FDF726FD0D
:1032100000BB511C0846FDF721FDD8B9911C08469A
:10322000FDF71CFDB0B9D11C04320846FDF716FDB0
:1032300080B9013C97E71046FDF710FD50B9013108
:103240000846FDF70BFD28B901310846FDF706FDDC
:10325000002892D08F4291D04A1C97428ED01046BF
:10326000FDF7FCFC10B9137801F8013B0132F4E7DB
:10327000FDF7D5FCB8E70CA824F0EBF806A824F07D
:10328000E8F8D5E900010BF0ADFD12E003A912A8A2
:10329000FEF744FB12A8FFF763F912A8FEF70FFA36
:1032A00003A8FEF70CFA0CA824F0D3F806A824F023
:1032B000D0F86846FEF703FA31B0F0BD782BE0D1C4
:1032C000736B002BDDD0694612A8FEF727FB12A80E
:1032D000FFF746F912A8FEF7F2F9EAE7FC0A002424
:1032E000C0A305082DE9F04104460F4690468D68BD
:1032F0000E1D012045B908B3FB68B34211D125600A
:1033000066602046BDE8F08105F110014046FEF7F9
:10331000D4FC00282E46D5E9022314BF15461D46CD
:10332000E8E7304612F0CBFA0546414605F11000B9
:10333000FEF7C3FC20B100232360E1E73546F4E744
:10334000C4E90050DDE72DE9F34706462C20894605
:103350001C4610F08CFE00F1100706F1040A8046AE
:1033600021683846FDF7ACFC0023CA454D46C8F835
:10337000283011D173693BB13469394604F110002A
:10338000FEF79BFC00285AD13A4631466846FFF7C3
:10339000A9FFDDE900542EE009F11004384621466A
:1033A000FEF78BFC80B1F3684B450BD0484612F01A
:1033B00086FA394604461030FEF77FFC0028E3D039
:1033C000E368D3B12C4616E039462046FEF775FC7B
:1033D00050B334694C4532D0484612F06CFA04467A
:1033E00000F110013846FEF768FC0028CCD0D9F86F
:1033F0000C3033B1254604B30DB9A24502D10120EA
:1034000005E04C4604F110013846FEF756FC5346E1
:1034100022464146444612F054FA736901337361FF
:10342000204602B0BDE8F0874C46384624F011F83B
:103430002C21404610F019FEF2E72C46F5E7002C4F
:10344000DBD1F2E72DE9FF41071D80460E46856876
:103450003C46B5B9A74205D004F110013046FEF74D
:103460002CFC48B102AB21460C4A4046009303AB0A
:103470000396FFF768FF044604F1280004B0BDE896
:10348000F08105F110003146FEF717FC0028D5E960
:1034900002230ABF2C461D461546DAE734AF05085D
:1034A0002DE9F04FB1B08B4D002613AB24AC8DF855
:1034B0004C6014961796CDE915330FCD0FC495E8DF
:1034C000030024AD84E803000724013C40F08E8013
:1034D000814BA346149AA246DE68A1460433A04657
:1034E00027460C9209940D93CDE91044CDE90A4486
:1034F0000D9B9E4240F0888018A87849FDF72AFB72
:1035000018A912A8FFF79EFF754905681EA8FDF7C8
:1035100021FB1EA912A8FFF795FF7249066824A88F
:10352000FDF718FB24A912A8FFF78CFF03686E496A
:103530002AA80C93FDF70EFB2AA912A8FFF782FF19
:103540000C9B02684FF40071684806920A9ACDE914
:1035500004630023CDE901520393654A0093099B5C
:103560002EF028FA2AA823F074FF24A823F071FF74
:103570001EA823F06EFF18A823F06BFF5B48FCF732
:103580000FFF014659480BF02DFC32200CF066FA73
:1035900011AB52464146039310AB2046CDF8009044
:1035A000CDE901B33B4600F093F9119B514A4FF42A
:1035B00000710193109B4D4800930B9BCDE906AB26
:1035C000CDE90489CDE902472EF0F4F94748FCF72C
:1035D000E7FE014645480BF005FC32200CF03EFAB0
:1035E0001498FDF75BFB31B0BDE8F08F55F8041B74
:1035F0002AA8FDF7AFFA2AA912A8FFF723FF066051
:103600002AA823F026FF60E7D6F8C030E3B106F120
:10361000BC050C9A13ABE2B913AA934208D003F18C
:10362000100128460E93FEF748FB0E9B00284DD054
:1036300031492846FEF72CF8E8B1099B01340133E3
:1036400009930B9B01330B93304612F034F9064675
:103650004EE7294602F110000F930E92FEF72DFB64
:103660000E9A00280F9B08BF1346D2E902C10CBF77
:1036700062460A46CFE721492846FEF709F828B1F5
:103680000A9B08F1010801330A93DAE71349284637
:10369000FDF7FEFF08B10137D3E711492846FDF7D2
:1036A000F7FF10B109F10109CBE70E492846FDF7F4
:1036B000EFFF10B10AF1010AC3E70B492846FDF7F5
:1036C000E7FF0028BDD00BF1010BBAE79A6A01327F
:1036D0009A62ADE728840508240B00249386050828
:1036E0009C860508A1860508A5860508E40800242F
:1036F000A986050843870508858605088E8605087E
:10370000044B0022191D1A719A605A61C3E9031112
:10371000704700BFE40A0024014B9868FDF73DBBE9
:10372000E40A002438B5044604B938BDE068FFF760
:10373000F9FF04F11000A56823F08BFE20462C2130
:103740002C4610F092FCEFE738B5044604B938BDBA
:10375000E068FFF7F9FFA568204620212C4610F00D
:1037600084FCF3E7F8B5164604468B680D1D01226C
:103770003BB9E2B1CA68AA420ED1C4E9003520467D
:10378000F8BD1A691D46B242D3E90270CBBF0122CF
:1037900000223B460346EBE7284612F090F8036907
:1037A000B3424FF00003E8DBC4E90003E7E7284633
:1037B000F5E7000030B504462DED028B89B00028F6
:1037C00045D0062976D904AB0F2900EB01050191FC
:1037D000029307D9002201A902A823F019FE019B38
:1037E0000290049321462A46029823F0ABFE324C05
:1037F000019B0021029A0393D154039A82B1029B48
:10380000134413F8013C3BB10A3BDBB2162B07D83B
:1038100024FA03F3DB0703D502A823F05AFFECE7F1
:103820000022264902A824F07CF9A8B9029C0023B2
:1038300001A90634019320462CF0B6FE019BF0EE60
:10384000408A9C4210D1002402A823F002FE2046A8
:1038500009B0BDEC028B30BD0022194902A824F04A
:1038600060F90028E2D0EEE71A783A2AEBD15C1C26
:1038700001A920462CF098FE019BB0EE408A9C42A4
:10388000E1D01A783A2ADED15C1C01A920462CF03E
:103890008BFE019B9C42D6D01B78002BD3D1094BC9
:1038A0000124C3ED008A084B83ED008A074B83EDAA
:1038B000000AC9E70024CAE709004000E5870508B7
:1038C000EC870508080B0024040B0024000B0024DF
:1038D00030B5DDE9055415B111440844286024B120
:1038E000DDE903210A441344236030BD10B50446CA
:1038F0008068FFF729FF204610BD2DE9F3471E46DB
:103900000746EC200D4610F0B2FB336800F11408B6
:1039100004461E68D822002107F1040906614046CA
:103920002EF078F904F1340204F11C03A945E26297
:1039300004F14C0263614FF00003626404F164021D
:103940002377AA46E265224684F8343084F84C3066
:1039500084F8643002F8783F84F8943084F8AC300E
:1039600084F8C43084F8DC30C4E9202204F19402E5
:10397000C4F88C2004F1AC02C4F8A42004F1C40201
:10398000C4F8BC2004F1DC02C4F8D4200FD17B6958
:103990002BB1D7F810A0DAF81030B3422BDB324647
:1039A00039466846FFF7DEFEDDE9005A1EE02B6966
:1039B000B3420CDDFB68AB4207D0284611F07FFF15
:1039C0000369B342EBDAC36853B301201BE029DA81
:1039D0003B69AB420FD0284611F06DFF03690546E5
:1039E000B342DCDDDAF80C303BB18246BAF1000FAD
:1039F00018D0002DE9D1D145E7D0DAF810309E4239
:103A0000ACBF002001204B4652462146254611F00E
:103A100058FF7B6901337B61284602B0BDE8F0871F
:103A20008246E8E704F1D40023F013FD04F1BC0062
:103A300023F00FFD04F1A40023F00BFD04F18C0032
:103A400023F007FDE06FFFF76DFE04F15C0023F04B
:103A500000FD04F1440023F0FCFC04F12C0023F0F1
:103A6000F8FC404623F0F5FCEC21204610F0FDFA6E
:103A7000D2E70000F0B5051D0A460C6885B08368E2
:103A8000294683B98D4202D00B69A34207DD02AB00
:103A90000392094A009303ABFFF72FFF014601F1A0
:103AA000140005B0F0BD1E69D3E9027CB442D6BF54
:103AB000194663463B46E4E734AF050800F10803C6
:103AC00073B503600446D1E900530F2B05EB0306E1
:103AD000019306D9002201A923F09AFC019B2060E2
:103AE000A36032462946206823F027FD019B226807
:103AF00000216360D15402B070BD000000F10803E2
:103B000073B504460D46036011B90F481CF0FFFE63
:103B10000846FCF745FC0F2805EB0006019007D985
:103B2000002201A9204623F073FC019B2060A360C2
:103B300032462946206823F005FD019B22680021BA
:103B40006360D15402B070BD4C840508F8B51646C8
:103B500004468B680D1D01223BB9E2B1CA68AA4236
:103B60000ED1C4E900352046F8BD1A691D46B2429F
:103B7000D3E90270CBBF012200223B460346EBE7AC
:103B8000284611F09CFE0369B3424FF00003E8DBC6
:103B9000C4E90003E7E72846F5E72DE9F0410546CB
:103BA0002C200E4610F063FA05F110010446103087
:103BB000FFF784FFAB6AE868A3622B786660237026
:103BC0000023C4E9023318B12146FFF7E6FFE060A5
:103BD000AE6827464FF0000816B92046BDE8F081D0
:103BE0002C2010F044FA06F1100105461030FFF7C2
:103BF00065FFB36AAB623378C5E902882B70BD609C
:103C00006F60F06818B12946FFF7C7FFE860B66833
:103C10002F46E1E700220270C0E90120C0E903025B
:103C2000704738B5044604B938BDE068FFF7F9FFBE
:103C3000A56804F11400FDF706FD2046EC212C4692
:103C400010F013FAEFE710B50446343023F001FC0E
:103C500004F1180023F0FDFB204623F0FAFB204678
:103C600010BD10B504461830FFF7EDFF204623F0D5
:103C7000F0FB204610BD38B5044604B938BDE068F5
:103C8000FFF7F9FFA56804F11000FFF7EAFF2046EF
:103C900074212C4610F0E9F9EFE770B504460D46A3
:103CA000FFF70CFF05F1180104F11800FFF706FFFC
:103CB00004F1640605F1300104F13000FFF7FEFE67
:103CC00005F1480104F14800FFF7F8FE3046FFF720
:103CD000A1FFA86E88B13146FFF75FFF03461A4681
:103CE0009B68002BFBD10346E2661A46DB68002B7B
:103CF000FBD16B6F22676367A06605F1780104F161
:103D00007800FFF7DBFE05F1900104F19000FFF76A
:103D1000D5FE05F1A80104F1A800FFF7CFFE04F1DC
:103D2000C00005F1C001FFF7C9FE204670BD2DE9B6
:103D3000FF4700F1040A6B4604460D46504683E8EF
:103D40000600FFF767FF019BDC2202FB03590435E5
:103D50002B1F994503D1204604B0BDE8F087636965
:103D600055F8047C1BB126693369BB4208DB3A462F
:103D7000214602A8FFF7EAFE039EE6B1029BE3B9E3
:103D8000B2451AD03369BB42D4BF00270127EC20CB
:103D900010F06DF955F8043C804629460361143053
:103DA000FFF77BFF534632464146384611F089FD06
:103DB000636901336361DC35CAE70127E7E738B59A
:103DC00004460D46FFF77AFE05F1180104F11800CC
:103DD000FFF774FE2B6B04F1340005F1340123630B
:103DE000FFF76CFE204638BD38B50546742010F04C
:103DF0003EF9044629461030FFF760FE05F1180130
:103E000004F12800FFF7DBFF204638BD2DE9F04123
:103E1000054610300E46FFF7E7FF2B780446466054
:103E200003700023C0E90233E86818B12146FFF7A8
:103E3000EDFFE060AE6827464FF0000816B9204657
:103E4000BDE8F08106F11000FFF7CEFF337805469C
:103E50000370C0E90288B8604760F06818B129466D
:103E6000FFF7D4FFE860B6682F46E7E738B50446A9
:103E70001546FFF723FE294604F11800FFF79FFFC0
:103E8000204638BD10B504468068FFF7F4FE204692
:103E900010BD38B5044604B938BDE068FFF7F9FF36
:103EA00004F12800A568FFF7EDFF04F1100023F0EE
:103EB000D0FA204640212C4610F0D7F8EBE770B539
:103EC000061D0D4604463046FFF7A4FEA86888B1DB
:103ED0003146FFF79BFF03461A469B68002BFBD138
:103EE0000346E2601A46DB68002BFBD16B69226156
:103EF0006361A060204670BD38B504461546FFF7E3
:103F0000DDFD294604F11800FFF7D9FF204638BD32
:103F10002DE9F04104460F4690468D680E1D0120A4
:103F200045B908B3FB68B34211D1256066602046ED
:103F3000BDE8F08105F110014046FDF7BEFE002806
:103F40002E46D5E9022314BF15461D46E8E7304644
:103F500011F0B5FC0546414605F11000FDF7ADFE38
:103F600020B100232360E1E73546F4E7C4E90050BF
:103F7000DDE72DE9F04104460F4690468D680E1DA1
:103F8000012045B908B3FB68B34211D125606660D2
:103F90002046BDE8F08105F110014046FDF78DFE99
:103FA00000282E46D5E9022314BF15461D46E8E732
:103FB000304611F084FC0546414605F11000FDF73E
:103FC0007CFE20B100232360E1E73546F4E7C4E935
:103FD0000050DDE72DE9F8431E460B1D04460F4651
:103FE0009A42154613D14B694BB10D69314605F123
:103FF0001000FDF762FE10B10023236027E0324677
:1040000039462046FFF7B5FF2046BDE8F88302F1A8
:10401000100930464946FDF750FE8046C8B1FB689E
:10402000AB4202D123606360EEE7284611F047FC03
:10403000314680461030FDF740FE0028DFD0D8F82A
:104040000C301BB92360C4F80480DDE7256065608F
:10405000DAE731464846FDF730FEB0B13B69AB4286
:1040600002D1C4F80080DEE7284611F024FC804627
:1040700000F110013046FDF720FE0028BFD0EB68AC
:10408000002BBAD0C4F80080DDE7C4E90050BBE7DC
:104090002DE9F04385B000F1040804460D466B4657
:1040A000404683E80600FFF7B5FD019B642202FB52
:1040B0000359A94503D1204605B0BDE8F0836369E3
:1040C00033B12669294606F11000FDF7F6FD00BB65
:1040D0002A46214602A8FFF71BFF039EAEB1029BB2
:1040E000ABB9B04513D006F110012846FDF7E5FD48
:1040F00007462846FFF778FE4346014632463846D3
:1041000011F0DFFB6369013363616435D1E7012797
:10411000EFE7002EE5D1F8E72DE9F04F2DED028B0A
:10412000ADF5614DE64997B00DF51C503C30FFF7F9
:10413000E5FC0DF51D53E3491833181FFFF7DEFCAE
:104140000DF51D53E049183303F11400FFF7D6FCB9
:104150000DF51D53DD49183303F12C00FFF7CEFC9C
:104160000DF51D53183303F14800FFF753FD0DF50E
:104170001D53D749183303F15C00FFF7BFFC0DF561
:104180001D53D449183303F17400FFF7B7FC0DF544
:104190001D53D149183303F18C00FFF7AFFC0DF527
:1041A0001D53CE49183303F1A400FFF7A7FC0DF50A
:1041B00021430DF51C5158333C31A3F634650123DE
:1041C0002B600DF513432C465833A3F13000FFF755
:1041D00064FD0DF52050C2491430FFF78FFC0DF53A
:1041E0002153B8491833A3F12C00FFF787FC0DF5D4
:1041F0002153B5491833A3F11400FFF77FFC0DF5E7
:104200002153B2491833181DFFF778FC0DF52153DF
:10421000183303F12000FFF7FDFC0DF52153AC49E5
:10422000183303F13400FFF769FC0DF52153A94958
:10423000183303F14C00FFF761FC0DF52153A94938
:10424000183303F16400FFF759FC0DF52153A3491E
:10425000183303F17C00FFF751FC02230DF52051C8
:10426000C5F8DC300DF513431431583303F1AC00BD
:10427000FFF713FD0DF523509B492C30FFF73EFC53
:104280000DF525538F491833A3F15400FFF736FC81
:104290000DF525538C491833A3F13C00FFF72EFC94
:1042A0000DF5255389491833A3F12400FFF726FCA7
:1042B0000DF525531833A3F10800FFF7ABFC0DF5FE
:1042C00025538349183303F10C00FFF717FC0DF554
:1042D00025538049183303F12400FFF70FFC0DF537
:1042E00025538049183303F13C00FFF707FC0DF517
:1042F00025537A49183303F15400FFF7FFFB0323DA
:104300000DF52351C5F8B8310DF513432C31583351
:1043100003F5C470FFF7C1FC0DF527507349043055
:10432000FFF7ECFB0DF5295366491833A3F17C0028
:10433000FFF7E4FB0DF5295363491833A3F164003B
:10434000FFF7DCFB0DF5295360491833A3F14C004E
:10435000FFF7D4FB0DF529531833A3F13000FFF715
:1043600059FC0DF529535A491833A3F11C00FFF7E6
:10437000C5FB0DF5295357491833181FFFF7BEFB2E
:104380000DF529535749183303F11400FFF7B6FB15
:104390000DF529535149183303F12C00FFF7AEFBFB
:1043A00004230DF52751C5F894320DF5134304315C
:1043B000583303F51970FFF770FC0DF52A504C497E
:1043C0001C30FFF79BFB0DF52D533E491833A3F12D
:1043D000A400FFF793FB0DF52D533B491833A3F1D0
:1043E0008C00FFF78BFB0DF52D5338491833A3F1E3
:1043F0007400FFF783FB0DF52C50FFF70BFC0DF558
:104400002D5333491833A3F14400FFF777FB0DF523
:104410002D5330491833A3F12C00FFF76FFB0DF536
:104420002D5330491833A3F11400FFF767FB0DF546
:104430002D532A491833181DFFF760FB05230DF58E
:104440002A51C5F870330DF513431C31583303F569
:104450005070FFF722FC0DF52D5026493430FFF740
:104460004DFB0DF5315317491833A3F1CC00FFF77D
:1044700045FB0DF5315314491833A3F1B400FFF790
:104480003DFB0DF5315311491833A3F19C00FFF7A3
:1044900035FB0DF531531833A3F18000FFF7BAFB5C
:1044A0000DF531530A491833A3F16C00FFF726FBD1
:1044B0000DF5315307491833A3F154001CE000BF38
:1044C000F38705080C880508168805082C88050858
:1044D0003E88050841880508A18605080BAA05083D
:1044E00048880508858605085A8805086C880508E7
:1044F0007E88050890880508FFF700FB0DF531530D
:10450000E6491833A3F13C00FFF7F8FA0DF53153F3
:10451000E3491833A3F12400FFF7F0FA06230DF561
:104520002D51C5F84C340DF513433431583303F293
:104530001C40FFF7B2FB0DF53150DA490C30FFF7A4
:10454000DDFA0DF53153D849183303F10C00FFF7AC
:10455000D5FA0DF53153D549183303F12400FFF78F
:10456000CDFA0DF53153D249183303F13C00FFF772
:10457000C5FA0DF53153183303F15800FFF74AFB24
:104580000DF53153CB49183303F16C00FFF7B6FA40
:104590000DF53153C849183303F18400FFF7AEFA23
:1045A0000DF53153C549183303F19C00FFF7A6FA06
:1045B0000DF53153BA49183303F1B400FFF79EFAF1
:1045C00007230DF53151C5F828350DF513430C318E
:1045D000583303F59F60FFF760FB0DF53450B84981
:1045E0002430FFF78BFA0DF53553AF491833A3F19B
:1045F0001C00FFF783FA0DF53553AC491833181F2B
:10460000FFF77CFA0DF53553A949183303F114006F
:10461000FFF774FA0DF53553183303F13000FFF747
:10462000F9FA0DF53553A349183303F14400FFF7A8
:1046300065FA0DF53553A049183303F15C00FFF717
:104640005DFA0DF535539D49183303F17400FFF7FA
:1046500055FA0DF535539249183303F18C00FFF7E5
:104660004DFA08230DF53451C5F804360DF5134302
:104670002431583303F2D450FFF70FFB0DF53750B8
:1046800090493C30FFF73AFA0DF539538649183313
:10469000A3F14400FFF732FA0DF53953834918337B
:1046A000A3F12C00FFF72AFA0DF53953804918338E
:1046B000A3F11400FFF722FA0DF53953183303F173
:1046C0000800FFF7A7FA0DF539537A49183303F1BB
:1046D0001C00FFF713FA0DF539537749183303F12E
:1046E0003400FFF70BFA0DF539537449183303F111
:1046F0004C00FFF703FA0DF539536949183303F1FC
:104700006400FFF7FBF90A230DF53751C5F8E036D1
:104710000DF513433C31583303F5D660FFF7BDFA6E
:104720000DF53B5068491430FFF7E8F90DF53D539E
:104730005D491833A3F16C00FFF7E0F90DF53D5327
:104740005A491833A3F15400FFF7D8F90DF53D533A
:1047500057491833A3F13C00FFF7D0F90DF53D534D
:104760001833A3F12000FFF755FA0DF53D535149D9
:104770001833A3F10C00FFF7C1F90DF53D534E4975
:10478000183303F10C00FFF7B9F90DF53D534B4910
:10479000183303F12400FFF7B1F90DF53D534049FB
:1047A000183303F13C00FFF7A9F90B230DF53B513A
:1047B000C5F8BC370DF513431431583303F28C7030
:1047C000FFF76BFA0DF53E5040492C30FFF796F994
:1047D0000DF5415334491833A3F19400FFF78EF9D6
:1047E0000DF5415331491833A3F17C00FFF786F9E9
:1047F0000DF541532E491833A3F16400FFF77EF9FC
:104800000DF541531833A3F14800FFF703FA0DF5F6
:10481000415328491833A3F13400FFF76FF90DF520
:10482000415325491833A3F11C00FFF767F90DF533
:10483000415322491833181FFFF760F90DF5415312
:104840001749183303F11400FFF758F90C230DF53D
:104850003E51C5F898380DF513432C31583303F603
:104860006800FFF71AFA0DF5425019490430FFF7B6
:1048700045F90DF545530C491833A3F1BC00FFF77A
:104880003DF90DF5455309491833A3F1A400FFF78D
:1048900035F90DF54553064918331BE085860508A3
:1048A0000BAA0508A28805080C88050816880508C3
:1048B0002C8805083E88050841880508A18605085A
:1048C000B5880508C8880508D1880508E688050860
:1048D000FB880508A3F18C00FFF710F90DF545538F
:1048E0001833A3F17000FFF795F90DF54553E7492B
:1048F0001833A3F15C00FFF701F90DF54553E449C6
:104900001833A3F14400FFF7F9F80DF54553E149D9
:104910001833A3F12C00FFF7F1F80DF54553DE49EC
:104920001833A3F11400FFF7E9F80D230DF54251F8
:10493000C5F874390DF513430431583303F64410A8
:10494000FFF7ABF90DF54550D4491C30FFF7D6F809
:104950000DF54953D2491833A3F1E400FFF7CEF81F
:104960000DF54953CF491833A3F1CC00FFF7C6F832
:104970000DF54953CC491833A3F1B400FFF7BEF845
:104980000DF54750FFF746F90DF54953BF49183368
:10499000A3F18400FFF7B2F80DF54953BC49183371
:1049A000A3F16C00FFF7AAF80DF54953B949183384
:1049B000A3F15400FFF7A2F80DF54953B649183397
:1049C000A3F13C00FFF79AF80E230DF54551C5F809
:1049D000503A0DF513431C31583303F52260FFF7AD
:1049E0005CF90DF54850B1493430FFF787F80DF503
:1049F0004953AB491833A3F10C00FFF77FF80DF5CD
:104A00004953A849183303F10C00FFF777F80DF567
:104A10004953A549183303F12400FFF76FF80DF54A
:104A20004953183303F14000FFF7F4F80DF54953EB
:104A30009649183303F15400FFF760F80DF5495318
:104A40009349183303F16C00FFF758F80DF54953FB
:104A50009049183303F18400FFF750F80DF54953DE
:104A60008D49183303F19C00FFF748F80F230DF52B
:104A70004851C5F82C3B0DF513433431583303F638
:104A8000FC20FFF70AF90DF54C5089490C30FFF76F
:104A900035F80DF54D5382491833A3F13400FFF773
:104AA0002DF80DF54D537F491833A3F11C00FFF786
:104AB00025F80DF54D537C491833181FFFF71EF8E4
:104AC0000DF54D53183303F11800FFF7A3F80DF55A
:104AD0004D536E49183303F12C00FFF70FF80DF515
:104AE0004D536B49183303F14400FFF707F80DF5F8
:104AF0004D536849183303F15C00FEF7FFFF0DF5D5
:104B00004D536549183303F17400FEF7F7FF102386
:104B10000DF54C51C5F8083C0DF513430C315833D5
:104B200003F6D830FFF7B9F80DF54F50614924303E
:104B3000FEF7E4FF0DF5515359491833A3F15C001A
:104B4000FEF7DCFF0DF5515356491833A3F144002D
:104B5000FEF7D4FF0DF5515353491833A3F12C0040
:104B6000FEF7CCFF0DF551531833A3F11000FFF7FA
:104B700051F80DF5515345491833181DFEF7BEFF86
:104B80000DF551534249183303F11C00FEF7B6FFEF
:104B90000DF551534849183303F13400FEF7AEFFC9
:104BA0000DF551533C49183303F14C00FEF7A6FFB5
:104BB00011230DF54F51C5F8E43C0DF51343243195
:104BC000583303F6B440FFF768F80DF552503B49EF
:104BD0003C30FEF793FF0DF5555331491833A3F1DF
:104BE0008400FEF78BFF0DF555532E491833A3F1C2
:104BF0006C00FEF783FF0DF555532B491833A3F1D5
:104C00005400FEF77BFF0DF555531833A3F1380020
:104C1000FFF700F80DF555531C491833A3F1240094
:104C2000FEF76CFF0DF5555319491833A3F10C002D
:104C3000FEF764FF0DF555531F49183303F10C00BF
:104C4000FEF75CFF0DF555531349183303F12400AB
:104C5000FEF754FF12230DF55251C5F8C03D0DF576
:104C600013433C31583303F55960FFF716F80DF53F
:104C7000565013491430FEF741FF0DF559530849BA
:104C80001833A3F1AC00FEF739FF1BE03E8805089E
:104C900041880508A18605080BAA050804890508AE
:104CA0000C880508168805082C8805080D89050854
:104CB00018890508238905088586050838890508A7
:104CC0004D8905080DF55953E6491833A3F19400B1
:104CD000FEF714FF0DF55953E3491833A3F17C0097
:104CE000FEF70CFF0DF559531833A3F16000FEF7E2
:104CF00091FF0DF55953DD491833A3F14C00FEF730
:104D0000FDFE0DF55953DA491833A3F13400FEF7CF
:104D1000F5FE0DF55953D7491833A3F11C00FEF7E2
:104D2000EDFE0DF55953D4491833181FFEF7E6FE72
:104D300013230DF55651C5F89C3E0DF51343143160
:104D4000583303F66C60FEF7A8FF0DF55950CB49B8
:104D50002C30FEF7D3FE0DF55D53C9491833A3F18E
:104D6000D400FEF7CBFE0DF55D53BE491833A3F119
:104D7000BC00FEF7C3FE0DF55D53BB491833A3F12C
:104D8000A400FEF7BBFE0DF55D531833A3F18800B8
:104D9000FEF740FF0DF55D53B4491833A3F17400DD
:104DA000FEF7ACFE0DF55D53B1491833A3F15C007D
:104DB000FEF7A4FE0DF55D53AE491833A3F1440090
:104DC000FEF79CFE0DF55D53AB491833A3F12C00A3
:104DD000FEF794FE14230DF55951C5F8783F0DF5F3
:104DE00013432C31583303F64870FEF756FF0DF588
:104DF0005D50A4490430FEF781FE0DF55D53A049D6
:104E00001833181DFEF77AFE0DF55D5395491833DA
:104E100003F11C00FEF772FE0DF55D539249183345
:104E200003F13400FEF76AFE0DF55D53183303F10C
:104E30005000FEF7EFFE0DF55D538C49183303F17A
:104E40006400FEF75BFE0DF55D538949183303F1ED
:104E50007C00FEF753FE0DF55D538649183303F1D0
:104E60009400FEF74BFE0DF55D538349183303F1B3
:104E7000AC00FEF743FE0DF5214305F582500DF51C
:104E80005D5158330431183003F5E6761523736508
:104E9000FEF703FF0DF560507B491C30FEF72EFE38
:104EA0000DF5615376491833A3F12400FEF726FE71
:104EB0000DF561536B491833A3F10C00FEF71EFE8C
:104EC0000DF561536849183303F10C00FEF716FE27
:104ED0000DF56250FEF79EFE0DF5615363491833E0
:104EE00003F13C00FEF70AFE0DF5615360491833EB
:104EF00003F15400FEF702FE0DF561535D491833CE
:104F000003F16C00FEF7FAFD0DF561535A491833B1
:104F100003F18400FEF7F2FD16230DF560510DF547
:104F20002440C6F830311C315830FEF7B6FE0DF57E
:104F3000635056493430FEF7E1FD0DF56553504995
:104F40001833A3F14C00FEF7D9FD0DF56553454923
:104F50001833A3F13400FEF7D1FD0DF56553424936
:104F60001833A3F11C00FEF7C9FD0DF5655018308C
:104F7000FEF750FE0DF565533C49183303F114005C
:104F8000FEF7BCFD0DF565533949183303F12C00CC
:104F9000FEF7B4FD0DF565533649183303F14400AF
:104FA000FEF7ACFD0DF565533349183303F15C0092
:104FB000FEF7A4FD172305F590500DF56351C6F8D3
:104FC0000C3234311030FEF768FE0DF56750304971
:104FD0000C30FEF793FD0DF5695329491833A3F101
:104FE0007400FEF78BFD0DF569531E491833A3F1CC
:104FF0005C00FEF783FD0DF569531B491833A3F1DF
:105000004400FEF77BFD0DF569531833A3F128002A
:10501000FEF700FE0DF5695314491833A3F114008F
:10502000FEF76CFD0DF5695311491833181DFEF795
:1050300065FD0DF569530F49183303F11C00FEF7A8
:105040005DFD0DF569530C49183303F13400FEF78B
:1050500055FD182305F597500DF56751C6F8E83250
:105060000C3117E0168805082C8805083E880508CD
:1050700041880508858605080BAA05086289050888
:105080000C88050876890508888905089A89050825
:10509000AC8905080C30FEF700FE0DF56A50E649B4
:1050A0002430FEF72BFD0DF56D53E4491833A3F1C1
:1050B0009C00FEF723FD0DF56D53E1491833A3F174
:1050C0008400FEF71BFD0DF56D53DE491833A3F187
:1050D0006C00FEF713FD0DF56D531833A3F150006E
:1050E000FEF798FD0DF56D53D7491833A3F13C0039
:1050F000FEF704FD0DF56D53D4491833A3F12400D8
:10510000FEF7FCFC0DF56D53D1491833A3F10C00EB
:10511000FEF7F4FC0DF56D53CE49183303F10C0086
:10512000FEF7ECFC192305F59E500DF56A51C6F803
:10513000C43324310830FEF7B0FD0DF56D50C6497B
:105140003C30FEF7DBFC0DF57153BC491833A3F17D
:10515000C400FEF7D3FC0DF57153B9491833A3F120
:10516000AC00FEF7CBFC0DF57153B6491833A3F133
:105170009400FEF7C3FC0DF571531833A3F17800CA
:10518000FEF748FD0DF57153AF491833A3F16400E4
:10519000FEF7B4FC0DF57153AC491833A3F14C0084
:1051A000FEF7ACFC0DF57153A9491833A3F1340097
:1051B000FEF7A4FC0DF57153A6491833A3F11C00AA
:1051C000FEF79CFC1A2305F5A5500DF56D51C6F8A8
:1051D000A0343C310430FEF760FD0DF571509F495D
:1051E0001430FEF78BFC0DF571539449183303F11D
:1051F0001400FEF783FC0DF571539149183303F148
:105200002C00FEF77BFC0DF571538E49183303F12A
:105210004400FEF773FC0DF57153183303F1600081
:10522000FEF7F8FC0DF571538749183303F174004C
:10523000FEF764FC0DF571538449183303F18C00BB
:10524000FEF75CFC0DF571538149183303F1A4009E
:10525000FEF754FC0DF571537E49183303F1BC0081
:10526000FEF74CFC1B230DF5715105F5AC50C6F84B
:105270007C351431FEF711FD0DF5745078492C3052
:10528000FEF73CFC0DF575536C491833A3F114007F
:10529000FEF734FC0DF5755369491833181DFEF7F8
:1052A0002DFC0DF575536749183303F11C00FEF70B
:1052B00025FC0DF57553183303F13800FEF7AAFCF1
:1052C0000DF575536049183303F14C00FEF716FCD9
:1052D0000DF575535D49183303F16400FEF70EFCBC
:1052E0000DF575535A49183303F17C00FEF706FC9F
:1052F0000DF575535749183303F19400FEF7FEFB83
:105300001C2305F5B2500DF57451C6F858361844F3
:105310002C31FEF7C2FC0DF5785052490430FEF7EF
:10532000EDFB0DF5795345491833A3F13C00FEF729
:10533000E5FB0DF5795342491833A3F12400FEF73C
:10534000DDFB0DF579533F491833A3F10C00FEF74F
:10535000D5FB0DF57953183303F11000FEF75AFC15
:105360000DF579533849183303F12400FEF7C6FBD5
:105370000DF579533549183303F13C00FEF7BEFBB8
:105380000DF579533249183303F15400FEF7B6FB9B
:105390000DF579532F49183303F16C00FEF7AEFB7E
:1053A0001D2305F5B9500DF57851C6F83437043191
:1053B0001830FEF772FC0DF57B502B491C30FEF7C0
:1053C0009DFB0DF57D531D491833A3F16400FEF7D5
:1053D00095FB0DF57D531A491833A3F14C00FEF7E8
:1053E0008DFB0DF57D5317491833A3F13400FEF7FB
:1053F00085FB0DF57D50FEF70DFC0DF57D53124933
:105400001833181FFEF77AFB0DF57D530F4918333B
:1054100003F11400FEF772FB0DF57D530C491833B0
:1054200003F12C00FEF76AFB0DF57D530949183393
:1054300003F144001AE000BFBE8905080C88050886
:10544000168805082C8805083E8805084188050847
:10545000858605080BAA0508D0890508E289050894
:10546000F4890508068A0508188A0508FEF746FB30
:105470001E230DF57B51C6F810380DF513431C3172
:10548000583303F5BF50FEF708FC0DF57E50E64992
:105490003430FEF733FB0DF58043E4495833A3F174
:1054A0008C00FEF72BFB0DF58043E1495833A3F147
:1054B0007400FEF723FB0DF58043DE495833A3F15A
:1054C0005C00FEF71BFB0DF580435833A3F1400051
:1054D000FEF7A0FB0DF58043D7495833A3F12C000C
:1054E000FEF70CFB0DF58043D4495833A3F11400AB
:1054F000FEF704FB0DF58043D1495833181DFEF724
:10550000FDFA0DF58043CF49583303F11C00FEF737
:10551000F5FA1F2305F5C7500DF57E51C6F8EC3896
:1055200034311030FEF7B9FB0DF58140C6490C301F
:10553000FEF7E4FA0DF58243BC495833A3F1B400F9
:10554000FEF7DCFA0DF58243B9495833A3F19C000C
:10555000FEF7D4FA0DF58243B6495833A3F184001F
:10556000FEF7CCFA0DF582435833A3F16800FEF73D
:1055700051FB0DF58243B0495833A3F15400FEF7B7
:10558000BDFA0DF58243AD495833A3F13C00FEF757
:10559000B5FA0DF58243AA495833A3F12400FEF76A
:1055A000ADFA0DF58243A7495833A3F10C00FEF77D
:1055B000A5FA202305F5CE500DF58141C6F8C8396E
:1055C0000C310C30FEF769FB0DF582409F496430C9
:1055D000FEF794FA0DF5844394495833A3F1DC00A7
:1055E000FEF78CFA0DF5844391495833A3F1C400BA
:1055F000FEF784FA0DF584438E495833A3F1AC00CD
:10560000FEF77CFA0DF584435833A3F19000FEF7C2
:1056100001FB0DF5844388495833A3F17C00FEF764
:105620006DFA0DF584438A495833A3F16400FEF7FF
:1056300065FA0DF5844387495833A3F14C00FEF712
:105640005DFA0DF584437F495833A3F13400FEF72A
:1056500055FA282305F5D5500DF58241C6F8A43A30
:1056600064310830FEF719FB0DF584407A493C306F
:10567000FEF744FA0DF584436C495833181FFEF7C2
:105680003DFA0DF584436A49583303F11400FEF7DF
:1056900035FA0DF584436749583303F12C00FEF7C2
:1056A0002DFA0DF58443583303F14800FEF7B2FAA2
:1056B0000DF584436049583303F15C00FEF71EFA90
:1056C0000DF584436249583303F17400FEF716FA6E
:1056D0000DF584435F49583303F18C00FEF70EFA51
:1056E0000DF584435749583303F1A400FEF706FA39
:1056F000292305F5DC500DF58441C6F8803B3C318B
:105700000430FEF7CAFA0DF5864054491430FEF70E
:10571000F5F90DF5864345495833A3F12C00FEF702
:10572000EDF90DF5864342495833A3F11400FEF715
:10573000E5F90DF586433F495833181DFEF7DEF9AC
:105740000DF58643583303F12000FEF763FA0DF59B
:1057500086433949583303F13400FEF7CFF90DF58C
:1057600086433B49583303F14C00FEF7C7F90DF56A
:1057700086433849583303F16400FEF7BFF90DF54D
:1057800086433049583303F17C00FEF7B7F92A23EA
:105790000DF5864105F5E350C6F85C3C1431FEF783
:1057A0007CFA0DF587402E496C30FEF7A7F90DF510
:1057B00088431E495833A3F15400FEF79FF90DF5B5
:1057C00088431B495833A3F13C00FEF797F90DF5C8
:1057D000884318495833A3F12400FEF78FF90DF5DB
:1057E00088435833A3F10800FEF714FA0DF58843F7
:1057F0001149583303F10C00FEF780F90DF5884389
:105800001349583303F12400FEF778F90DF5884366
:105810001049583303F13C00FEF770F90DF5884349
:10582000084958331EE000BF2A8A05080C8805087D
:10583000168805082C8805083E8805084188050853
:10584000858605080BAA05083C8A05084E8A0508C6
:10585000648A0508938605086B8A0508818A05080D
:10586000978A050803F15400FEF748F92B2305F544
:10587000E9500DF58741C6F8383D6C311C30FEF714
:105880000CFA0DF58940E6494430FEF737F90DF57D
:105890008A43E4495833A3F17C00FEF72FF90DF554
:1058A0008A43E1495833A3F16400FEF727F90DF567
:1058B0008A43DE495833A3F14C00FEF71FF90DF57A
:1058C0008A435833A3F13000FEF7A4F90DF58A435B
:1058D000D7495833A3F11C00FEF710F90DF58A43A0
:1058E000D4495833181FFEF709F90DF58A43D249F8
:1058F000583303F11400FEF701F90DF58A43CF493F
:10590000583303F12C00FEF7F9F82C2305F5F0507D
:105910000DF58941C6F8143E44311830FEF7BDF943
:105920000DF58B40C6491C30FEF7E8F80DF58C43A9
:10593000BC495833A3F1A400FEF7E0F80DF58C4301
:10594000B9495833A3F18C00FEF7D8F80DF58C4314
:10595000B6495833A3F17400FEF7D0F80DF58C402A
:10596000FEF758F90DF58C43B1495833A3F14400C3
:10597000FEF7C4F80DF58C43B2495833A3F12C005F
:10598000FEF7BCF80DF58C43AF495833A3F1140072
:10599000FEF7B4F80DF58C43A8495833181DFEF7EF
:1059A000ADF82D230DF58B41C6F8F03E0DF51343F0
:1059B0001C31583303F5F650FEF76FF90DF58C40A6
:1059C000A2497430FEF79AF80DF58E439549583385
:1059D000A3F1CC00FEF792F80DF58E4392495833AF
:1059E000A3F1B400FEF78AF80DF58E438F495833C2
:1059F000A3F19C00FEF782F80DF58E435833A3F116
:105A00008000FEF707F90DF58E4389495833A3F15D
:105A10006C00FEF773F80DF58E4386495833A3F1F9
:105A20005400FEF76BF80DF58E4383495833A3F10C
:105A30003C00FEF763F80DF58E4380495833A3F11F
:105A40002400FEF75BF82E2305F5FE500DF58C4182
:105A5000C6F8CC3F05F5005674311030FEF71DF93D
:105A60000DF58E407A494C30FEF748F80DF58E431F
:105A70006C49583303F10C00FEF740F80DF58E43E6
:105A80006949583303F12400FEF738F80DF58E43C9
:105A90006649583303F13C00FEF730F80DF58E43AC
:105AA000583303F15800FEF7B5F80DF58E43604901
:105AB000583303F16C00FEF721F80DF58E435D4974
:105AC000583303F18400FEF719F80DF58E435A4957
:105AD000583303F19C00FEF711F80DF58E4357493A
