:020000040802F0
:100000000000082479320308550E0308610E030826
:10001000750E0308810E03088D0E03080000000012
:10002000000000000000000000000000990E03081E
:100030009D0E030800000000A10E0308A50E030892
:10004000CD320308CD320308CD320308CD32030888
:10005000CD320308CD320308CD320308CD32030878
:10006000CD320308CD320308CD320308A90E0308B0
:10007000CD320308CD320308CD320308CD32030858
:10008000CD320308CD320308CD320308CD32030848
:10009000CD320308CD320308CD320308B50E030874
:1000A000CD320308CD320308CD320308CD32030828
:1000B000BD0E0308CD320308CD320308CD3203084C
:1000C000CD320308CD320308CD320308CD32030808
:1000D000CD320308C90E0308D50E0308E10E03084C
:1000E000ED0E0308CD32030800000000CD320308F6
:1000F000CD320308CD320308CD320308CD320308D8
:10010000CD320308CD320308CD320308CD320308C7
:10011000F50E0308CD320308CD320308010F0308A2
:10012000CD320308CD320308CD320308CD320308A7
:10013000CD320308CD320308CD320308CD32030897
:1001400000000000000000000000000000000000AF
:10015000CD320308CD320308CD320308CD32030877
:10016000CD320308CD320308CD320308CD32030867
:10017000CD320308CD320308CD3203080000000061
:10018000CD320308CD320308CD320308CD32030847
:10019000CD320308CD320308CD320308CD32030837
:1001A000CD320308CD320308CD320308CD32030827
:1001B000CD320308CD320308CD320308CD32030817
:1001C000CD320308CD320308CD320308CD32030807
:1001D000CD320308CD320308CD320308CD320308F7
:1001E000CD320308CD320308CD320308CD320308E7
:1001F000CD320308CD320308CD320308CD320308D7
:10020000CD320308CD320308CD320308CD320308C6
:10021000CD320308CD320308CD320308CD320308B6
:10022000CD320308CD320308CD32030800000000B0
:10023000CD320308CD32030800000000CD320308A0
:10024000CD320308CD320308CD320308CD32030886
:10025000CD320308CD320308CD320308CD32030876
:10026000CD320308CD320308CD320308CD32030866
:10027000CD320308CD320308CD3203080000000060
:10028000CD320308CD320308CD3203080000000050
:0802900000000000CD3203085C
:1002A00010B5054C237833B9044B13B10448AFF3B0
:1002B00000800123237010BDE00300240000000033
:1002C000B0CF050808B5034B1BB103490348AFF392
:1002D000008008BD00000000E4030024B0CF050842
:1002E00010F8012B11F8013B012A28BF9A42F7D0E0
:1002F000D01A70470000000000000000000000005D
:1003000001F0FF01102A2BDB10F0070F08D010F8C6
:10031000013B013A8B422DD010F0070F42B3F6D1CA
:10032000F0B441EA012141EA014122F007047FF0E3
:1003300000070023F0E80256083C85EA010586EA3A
:10034000010685FA47F5A3FA87F586FA47F6A5FA76
:1003500087F68EB9EED1F0BC01F0FF0102F0070282
:1003600032B110F8013B013A83EA010313B1F8D12D
:100370000020704701387047002D06BF354603380E
:10038000073815F0010F07D1013015F4807F02BF47
:10039000013015F4C03F0130F0BC0138704700BF98
:1003A000034613F8012B002AFBD1181A01387047B5
:1003B00081F0004102E000BF83F0004330B54FEA16
:1003C00041044FEA430594EA050F08BF90EA020F83
:1003D0001FBF54EA000C55EA020C7FEA645C7FEA16
:1003E000655C00F0E2804FEA5454D4EB5555B8BF39
:1003F0006D420CDD2C4480EA020281EA030382EAAA
:10040000000083EA010180EA020281EA0303362D3B
:1004100088BF30BD11F0004F4FEA01314FF4801C0E
:100420004CEA113102D0404261EB410113F0004F20
:100430004FEA03334CEA133302D0524263EB4303D7
:1004400094EA050F00F0A780A4F10104D5F1200E75
:100450000DDB02FA0EFC22FA05F2801841F10001D0
:1004600003FA0EF2801843FA05F359410EE0A5F1A4
:1004700020050EF1200E012A03FA0EFC28BF4CF0D5
:10048000020C43FA05F3C01851EBE37101F000458B
:1004900007D54FF0000EDCF1000C7EEB00006EEB98
:1004A0000101B1F5801F1BD3B1F5001F0CD3490822
:1004B0005FEA30004FEA3C0C04F101044FEA445279
:1004C00012F5800F80F09A80BCF1004F08BF5FEA00
:1004D000500C50F1000041EB045141EA050130BDE0
:1004E0005FEA4C0C404141EB0101013C28BFB1F5F2
:1004F000801FE9D291F0000F04BF01460020B1FA3D
:1005000081F308BF2033A3F10B03B3F120020CDA0F
:100510000C3208DD02F1140CC2F10C0201FA0CF0ED
:1005200021FA02F10CE002F11402D8BFC2F1200C52
:1005300001FA02F120FA0CFCDCBF41EA0C01904008
:10054000E41AA2BF01EB0451294330BD6FEA040451
:100550001F3C1CDA0C340EDC04F11404C4F120023C
:1005600020FA04F001FA02F340EA030021FA04F34E
:1005700045EA030130BDC4F10C04C4F1200220FAA5
:1005800002F001FA04F340EA0300294630BD21FAE3
:1005900004F0294630BD94F0000F83F4801306BFA9
:1005A00081F480110134013D4EE77FEA645C18BF9D
:1005B0007FEA655C29D094EA050F08BF90EA020F34
:1005C00005D054EA000C04BF1946104630BD91EA2C
:1005D000030F1EBF0021002030BD5FEA545C05D12F
:1005E0004000494128BF41F0004130BD14F580046E
:1005F0003CBF01F5801130BD01F0004545F0FE41E2
:1006000041F470014FF0000030BD7FEA645C1ABF16
:10061000194610467FEA655C1CBF0B46024650EA4D
:10062000013406BF52EA033591EA030F41F4002179
:1006300030BD00BF90F0000F04BF0021704730B5FF
:100640004FF4806404F132044FF000054FF00001D4
:1006500050E700BF90F0000F04BF0021704730B595
:100660004FF4806404F1320410F0004548BF40426A
:100670004FF000013EE700BF42004FEAE2014FEABF
:1006800031014FEA02701FBF12F07F4393F07F4F9A
:1006900081F06051704732F07F4208BF704793F09D
:1006A0007F4F04BF41F40021704730B54FF46074B0
:1006B00001F0004521F000411CE700BF50EA0102B3
:1006C00008BF704730B54FF000050AE050EA01025C
:1006D00008BF704730B511F0004502D5404261EBCC
:1006E00041014FF4806404F132045FEA915C3FF40D
:1006F000D8AE4FF003025FEADC0C18BF03325FEAAA
:10070000DC0C18BF033202EBDC02C2F1200300FA5A
:1007100003FC20FA02F001FA03FE40EA0E0021FA7F
:1007200002F11444BDE600BF80F0004002E000BFCB
:1007300081F0004142001FBF5FEA410392EA030FCC
:100740007FEA226C7FEA236C6AD04FEA1262D2EB16
:100750001363C1BFD218414048404140B8BF5B421B
:10076000192B88BF704710F0004F40F4000020F0B4
:100770007F4018BF404211F0004F41F4000121F0CA
:100780007F4118BF494292EA030F3FD0A2F1010214
:1007900041FA03FC10EB0C00C3F1200301FA03F152
:1007A00000F0004302D5494260EB4000B0F5000F75
:1007B00013D3B0F1807F06D340084FEA310102F134
:1007C0000102FE2A51D2B1F1004F40EBC25008BFE6
:1007D00020F0010040EA03007047490040EB0000B0
:1007E000013A28BFB0F5000FEDD2B0FA80FCACF1B1
:1007F000080CB2EB0C0200FA0CF0AABF00EBC250DE
:1008000052421843BCBFD0401843704792F0000FCB
:1008100081F4000106BF80F400000132013BB5E71E
:100820004FEA41037FEA226C18BF7FEA236C21D094
:1008300092EA030F04D092F0000F08BF08467047F9
:1008400090EA010F1CBF0020704712F07F4F04D1C7
:10085000400028BF40F00040704712F100723CBFDA
:1008600000F50000704700F0004343F0FE4040F404
:10087000000070477FEA226216BF08467FEA2363C2
:100880000146420206BF5FEA412390EA010F40F4AD
:10089000800070474FF0000304E000BF10F00043F9
:1008A00048BF40425FEA000C08BF704743F09643E0
:1008B00001464FF000001CE050EA010208BF7047FB
:1008C0004FF000030AE000BF50EA010208BF704782
:1008D00011F0004302D5404261EB41015FEA010C97
:1008E00002BF84460146002043F0B64308BFA3F18F
:1008F0008053A3F50003BCFA8CF2083AA3EBC25371
:1009000010DB01FA02FC634400FA02FCC2F120028F
:10091000BCF1004F20FA02F243EB020008BF20F0C6
:100920000100704702F1200201FA02FCC2F120022C
:1009300050EA4C0021FA02F243EB020008BF20EA21
:10094000DC70704753B94AB9002908BF00281CBFA2
:100950004FF0FF314FF0FF3000F0C2B9ADF1080C9D
:100960006DE904CE00F040F8DDF804E0DDE9022393
:1009700004B0704708B502460B4643EC172BB5EEA2
:10098000C07BF1EE10FA03D4BDE8084000F00CB8CB
:10099000B1EE477B51EC170B00F006F8404261EBDB
:1009A000410108BD000000009FED0B6B41EC170BEF
:1009B0009FED0B5B27EE066BBCEEC66BB8EE464BAD
:1009C000A4EE457BFCEEC77B16EE101A17EE900ADC
:1009D000704700BFAFF30080000000000000F03D52
:1009E000000000000000F0412DE9F047089D8E4610
:1009F00004468846002B4AD18A42174662D9B2FA89
:100A000082F64EB1C6F1200301FA06F820FA03F38C
:100A1000B74043EA0808B4404FEA174E1FFA87FC74
:100A2000B8FBFEF1230C0EFB118843EA084301FBDF
:100A30000CF29A4209D9FB1801F1FF3080F0EA80EC
:100A40009A4240F2E78002393B449A1AA3B2B2FBC1
:100A5000FEF00EFB102243EA024300FB0CFC9C4517
:100A600009D9FB1800F1FF3280F0D6809C4540F296
:100A7000D3803B44023840EA0140A3EB0C03002141
:100A80001DB1F3400022C5E90032BDE8F0878B427A
:100A900005D90DB1C5E9000100210846F5E7B3FA13
:100AA00083F1002946D1734502D3824200F20581C9
:100AB000841A6EEB030201209046002DE5D0C5E9B3
:100AC0000048E2E7002A00F09080B2FA82F6002E99
:100AD00040F0A4808A1A030C4FEA174E80B2BCB2D1
:100AE0000121B2FBFEFC0EFB1C2243EA024304FB85
:100AF0000CF29A4207D9FB180CF1FF3802D29A4245
:100B000000F2E080C4469B1AB3FBFEF20EFB1233E8
:100B100040EA034302FB04F49C4207D9FB1802F1AC
:100B2000FF3002D29C4200F2CA8002461B1B42EAFE
:100B30000C40A5E7C1F120068B4022FA06F71F43BF
:100B40000EFA01F420FA06F32EFA06FE4FEA1749D0
:100B5000234300FA01F81FFA87FCBEFBF9F01C0CD6
:100B600009FB10EE44EA0E4400FB0CFEA64502FA17
:100B700001F209D93C1900F1FF3A80F09C80A645AA
:100B800040F2998002383C44A4EB0E041FFA83FE25
:100B9000B4FBF9F309FB13444EEA044403FB0CFCD9
:100BA000A44508D93C1903F1FF3E80F08280A4459A
:100BB0007FD9023B3C4443EA0040A4EB0C04A0FB79
:100BC00002EC64457346E14662D35FD05DB1B8EB99
:100BD000030264EB090404FA06F622FA01F31E4349
:100BE000CC40C5E9006400214FE7B1FBF2FC010CE9
:100BF00041EA0E4180B240EA01423B4638463C465B
:100C0000B846BE462026B1FBF7F1A2EB080241EA46
:100C10000C4166E7014618E710462CE7C6F12002B2
:100C20002EFA02F3B740B14020FA02F24FEA174E13
:100C30000A43B3FBFEF8BCB20EFB1833110C41EAB9
:100C4000034108FB04F9B04089454FEA104380B2E4
:100C50003ED9791808F1FF3C01D289451FD8A1EB94
:100C60000901B1FBFEF909FB04F80EFB191192B260
:100C700042EA0142424529D2BA1809F1FF31C4D2F1
:100C80004245C2D2A9F102013A44BEE7F0459DD2E5
:100C9000BEEB02036CEB070C0138E14696E7A7EBCD
:100CA00009094944A8F1020CB1FBFEF909FB04F85B
:100CB000DBE773467FE7504666E70846FDE63B44C0
:100CC000023A33E7ACF1020C3B441CE749469CE78F
:100CD000A1EB0901C446B1FBFEF909FB04F8C4E726
:100CE000704700BFF0B500F1080783B0076061B33B
:100CF000054608460E46FFF753FB0F2804460190B1
:100D00000ED8012806D133786C602B7200233B5536
:100D100003B0F0BD68B900236C603B5503B0F0BD73
:100D2000002201A928462BF0F5F9019B074628600F
:100D3000AB6022463146384637F037FB019C2F68BE
:100D400000236C603B5503B0F0BD014824F05FFD0B
:100D5000FCCF0508002873D02DE9F04F074683B07B
:100D6000D7F80C80B8F1000F60D0D8F80C90B9F12A
:100D7000000F52D0D9F80CA0BAF1000F44D0DAF825
:100D80000C40002C37D0D4F80CB0BBF1000F2BD0A6
:100D9000DBF80C60FEB1F568B5B1EB686BB1D868F3
:100DA0000193FFF7D7FF019B302118469B68019301
:100DB00018F0CCF8019B002BF1D12846AD6830210A
:100DC00018F0C4F8002DE8D13046B668302118F08C
:100DD000BDF8002EDFD1DBF808503021584618F05E
:100DE000B5F80DB1AB46D3E72046A468302118F022
:100DF000ADF8002CC7D1DAF808403021504618F081
:100E0000A5F80CB1A246BAE7D9F808403021484607
:100E100018F09CF80CB1A146ACE7D8F80840302196
:100E2000404618F093F80CB1A0469EE73846BF68DC
:100E3000302118F08BF8002F92D103B0BDE8F08F6D
:100E4000704700BF2DE9F8438468071D64B30E4660
:100E50009146B84665694A463146A94528BF2A46A3
:100E60001AB1206935F018FC08B9A5EB0900002873
:100E7000D4E902321BDBA0461C46002CEAD14745D0
:100E800012D0D8F814404A46A14528BF22462AB1BC
:100E90003046D8F8101035F0FFFB08B9A9EB040074
:100EA00017EA200738BF47463846BDE8F88314469E
:100EB000002CCFD1E3E700BF2DE9F04F83B00190C4
:100EC000002800F00E81019BD3F80C80B8F1000FD0
:100ED00000F0EF80D8F80C90B9F1000F00F0CF804F
:100EE000D9F80CA0BAF1000F00F0AF80DAF80C408E
:100EF000002C00F09080E568002D75D0EE68002E83
:100F00005BD0F768002F3DD0FA6802B3D06800923A
:100F1000FFF7D2FF009A106902F11801D2F808B069
:100F200088420DD09169013118F010F8009A2C21F7
:100F3000104618F00BF8BBF1000F08D05A46E5E751
:100F40002C21104618F002F8BBF1000FF6D13869D9
:100F500007F11802D7F808B090420CD0B9690131F6
:100F600017F0F4FF2C21384617F0F0FFBBF1000F0B
:100F700008D05F46C8E72C21384617F0E7FFBBF1E1
:100F8000000FF6D1306906F11803D6F808B0984280
:100F90000CD0B169013117F0D9FF2C21304617F080
:100FA000D5FFBBF1000F08D05E46AAE72C213046E2
:100FB00017F0CCFFBBF1000FF6D1286905F118033B
:100FC000AE6898420AD0A969013117F0BFFF2C2101
:100FD000284617F0BBFF3EB135468FE72C21284647
:100FE00017F0B4FF002EF7D1206904F11803A568AB
:100FF00098420AD0A169013117F0A8FF2C212046A0
:1010000017F0A4FF3DB12C4675E72C21204617F0C0
:101010009DFF002DF7D1DAF810000AF11803DAF875
:10102000084098420BD0DAF81810013117F08EFF03
:101030002C21504617F08AFF3CB1A24656E72C21DE
:10104000504617F083FF002CF7D1D9F8100009F1B2
:101050001803D9F8084098420BD0D9F8181001317C
:1010600017F074FF2C21484617F070FF3CB1A146E1
:1010700036E72C21484617F069FF002CF7D1D8F845
:10108000100008F11803D8F8084098420BD0D8F89F
:101090001810013117F05AFF2C21404617F056FF67
:1010A0003CB1A04616E72C21404617F04FFF002C1C
:1010B000F7D1019D286905F11803AC6898420AD060
:1010C000A969013117F042FF2C21284617F03EFF95
:1010D0003CB10194F7E628462C2117F037FF002C8D
:1010E000F7D103B0BDE8F08F2DE9F04F83B0019048
:1010F000002800F00E81019BD3F80C80B8F1000F9E
:1011000000F0EF80D8F80C90B9F1000F00F0CF801C
:10111000D9F80CA0BAF1000F00F0AF80DAF80C405B
:10112000002C00F09080E568002D75D0EE68002E50
:101130005BD0F768002F3DD0FA6802B3D068009208
:10114000FFF7D2FF009A106902F11801D2F808B037
:1011500088420DD09169013117F0F8FE009A2C21D8
:10116000104617F0F3FEBBF1000F08D05A46E5E732
:101170002C21104617F0EAFEBBF1000FF6D13869BA
:1011800007F11802D7F808B090420CD0B9690131C4
:1011900017F0DCFE2C21384617F0D8FEBBF1000F0B
:1011A00008D05F46C8E72C21384617F0CFFEBBF1C8
:1011B000000FF6D1306906F11803D6F808B098424E
:1011C0000CD0B169013117F0C1FE2C21304617F067
:1011D000BDFEBBF1000F08D05E46AAE72C213046C9
:1011E00017F0B4FEBBF1000FF6D1286905F1180322
:1011F000AE6898420AD0A969013117F0A7FE2C21E8
:10120000284617F0A3FE3EB135468FE72C2128462D
:1012100017F09CFE002EF7D1206904F11803A56891
:1012200098420AD0A169013117F090FE2C21204686
:1012300017F08CFE3DB12C4675E72C21204617F0A7
:1012400085FE002DF7D1DAF810000AF11803DAF85C
:10125000084098420BD0DAF81810013117F076FEEA
:101260002C21504617F072FE3CB1A24656E72C21C5
:10127000504617F06BFE002CF7D1D9F8100009F199
:101280001803D9F8084098420BD0D9F8181001314A
:1012900017F05CFE2C21484617F058FE3CB1A146E1
:1012A00036E72C21484617F051FE002CF7D1D8F82C
:1012B000100008F11803D8F8084098420BD0D8F86D
:1012C0001810013117F042FE2C21404617F03EFE67
:1012D0003CB1A04616E72C21404617F037FE002C03
:1012E000F7D1019D286905F11803AC6898420AD02E
:1012F000A969013117F02AFE2C21284617F026FE95
:101300003CB10194F7E628462C2117F01FFE002C73
:10131000F7D103B0BDE8F08F2DE9F04F81468FB0D3
:10132000B7480C464946934605F0A8FB4668002E90
:1013300000F020814946B24805F0A0FB0368002B6D
:1013400000F0168101934FF400712346AD4AAE4878
:10135000CDF80890009635F099F8B0F5007F80F050
:10136000EC80A9490BF1040BA84837F016F8DBF81C
:1013700008405C4500F0C4810027A54EDFF88C8250
:10138000DFF8C8A2CDF81490D4E90495022D00F03E
:10139000A380092D5AD12A469E49484635F07CF94A
:1013A00000285CD02A469C49484635F075F900284B
:1013B00055D0D4ED0A7A4B4680213046B6EEE77A16
:1013C000F4EE477AB7EEE76AF1EE10FA8DED006BB6
:1013D00014BF924A924A35F059F87F284DD83046CA
:1013E000FEF7DEFF0546002F67D18748FEF7D8FFDE
:1013F000AB1C0344FF2B60D8834D2846FEF7D0FF7B
:101400003146284435F02CFABAF8003003802046E3
:1014100019F0D3F983450446B6D17B487D25FEF704
:10142000BFFF034678480344064603F8015CFEF715
:10143000B7FF7C4B411C1C883452304610F092FEA2
:10144000002F40F0C5800FB0BDE8F08F0A2D4ED1BF
:101450002A467549484635F01FF90028A9D194ED70
:101460000A7A4B46714A8021B7EEC77A30468DED35
:10147000007B35F00BF87F28B1D9DDF8149080217E
:10148000634E0AAD4B466A4A304634F0FFFF3046A1
:101490000895FEF785FF0F280446079000F20981A2
:1014A000012840F0018133788DF828302946002248
:1014B00009946FF43C630A5570E04046FEF770FFF4
:1014C0002B18B3F5007F1ED202350544FF2D00F224
:1014D000CE800127454690E799F80020492A7FF4FD
:1014E00068AF99F80120442A7FF463AF8FE7072D96
:1014F0007FF45FAF2A464F49484635F0CDF80028C3
:101500007FF457AFABE7DDF814908021404C0AAD73
:101510004B46474A204634F0B9FF20460895FEF76F
:101520003FFF0F280646079026D8012840F0D080BC
:1015300023788DF8283029462CE0354E4B463C4A1E
:10154000802130460AAD34F0A1FF30460895FEF701
:1015500027FF0F28044607907AD801284CD133780A
:101560008DF82830294600220994334B0A5515E09E
:10157000324BE7E6314EDDE6002207A908A82AF043
:10158000C9FD079B08900A933246214936F00DFFAA
:10159000DDE9076100222A4B09968A5508984FF425
:1015A0000071284A0090284834F070FF2648FEF762
:1015B000F7FE0146244810F0D5FD0898A8423FF4F4
:1015C00042AF0A99013117F0C1FC0FB0BDE8F08FAE
:1015D0000E4E3046FEF7E4FE03463046334403F831
:1015E000015CFEF7DDFE03463046591CF4520FB095
:1015F000BDE8F04F10F0B6BD0028B3D028462FE06C
:10160000AC0C002430D005087C0600247C040024A7
:10161000FC030024A8D00508B4D00508E0D00508D4
:10162000ECD005089C1B0608C0D00508D4D00508DE
:101630005CD00508CCD0050844F4FFFFC41C0608A4
:101640003EF4FFFF7CD005087C08002424D1050867
:10165000002207A908A82AF05DFD079B08900A93BD
:101660002246314936F0A1FEDDE907417BE7DDF88E
:10167000149080212C4E0AAD4B462C4A304634F053
:1016800005FF30460895FEF78BFE0F2804460790AD
:101690002DD8012821D133788DF828302946002211
:1016A0000994234B0A5579E700283FF4FFAE2846FA
:1016B00007E0002207A908A82AF02CFD079B089044
:1016C0000A932246184936F070FEDDE90741EEE63E
:1016D00000283FF430AF284656E70028DED02846E1
:1016E0002246114936F061FEDDE90741D7E70022C5
:1016F00007A908A82AF00EFD079B08900A93EFE7B8
:101700000C48FEF74DFE03460A487D22034404467A
:1017100003F8012CFEF744FE074A034620461288D0
:10172000591CE25263E700BFFC030024F8D005080F
:1017300043F4FFFF7C0600249C1B06082DE9F04FB4
:10174000B84BB1B0074608220DF13808BC6893E8E1
:101750000300002388E80300CDE90C828DF84030B7
:10176000002C00F0F58104372546BA46D5E9040679
:10177000082E00F26781002E40F0C081ED68002D38
:10178000F4D1574500F0E481DAE90415072D40F261
:10179000C1810822404634F07FFF002800F03081EC
:1017A0000028C0F2D581DAF828300DF1500908225E
:1017B000BA46079325469C4BCDF84890139293E880
:1017C0000300002389E803008DF85830D5E90406AA
:1017D000082E00F24781002E40F09281ED68002D26
:1017E000F4D1574500F0B481DAE90415072D40F231
:1017F00096810822484634F04FFF002800F003810C
:101800000028C0F2A581DAF828302546BA460893A8
:10181000864B1B68ADF868301B0C8DF86A301AAB2C
:1018200018930323199300238DF86B30D5E9040630
:10183000032E00F22781002E40F06481ED68002D18
:10184000F4D1574500F08481DAE90415022D40F205
:101850006B8103221AA834F01FFF002800F0D68005
:101860000028C0F27581DAF82830BB460DF1800AF5
:10187000254609936E4BCDF878A01B68ADF88030F3
:101880001B0C8DF8823003231F9300238DF88330C7
:10189000D5E90406032E00F20481002E40F03481C5
:1018A000ED68002DF4D15F4500F05281DBE90415AD
:1018B000022D40F243810322504634F0EDFE002811
:1018C00000F0A7800028C0F24381DBF828302546CD
:1018D0005849BB460A9326AB24930423CDE925310E
:1018E00000238DF89C30D5E90406042E00F2E88030
:1018F000002E40F00B81ED68002DF4D15F4500F023
:101900002781DBE90415032D40F21381042226A868
:1019100034F0C2FE00287FD00028C0F219810423D1
:10192000454ADBF828502CAEBB462A960B95CDE9EC
:101930002B3200238DF8B430D4E90405042D00F2D5
:10194000CE80002D40F0E480E468002CF4D1BB454B
:101950000B9D00F0FD80DBE90414032C40F2F380C2
:101960000422304634F098FE002858D00028C0F2F7
:10197000EF80DBF828304FF400710A9A049302924A
:10198000089B099A00930192079B2C4A2C480395C7
:1019900034F07CFD2A98B04203D02C99013117F025
:1019A000D5FA249826AB984203D02699013117F036
:1019B000CDFA1E98504503D02099013117F0C6FA90
:1019C00018981AAB984203D01A99013117F0BEFA51
:1019D0001298484503D01499013117F0B7FA0C98C2
:1019E000404503D00E99013117F0B0FA1448FEF7C4
:1019F000D7FC0146124831B0BDE8F04F10F0B2BB41
:101A0000C5F10800CCE6C5F10800F9E6C5F1030010
:101A100026E7C5F1030055E7C5F104007CE7C4F1F2
:101A20000400A3E728D105083CD1050848D10508E2
:101A30004CD105086261632B6261632D50D10508AA
:101A40007C0A00240822414634F026FE08B9A6F19B
:101A500008000028FFF692AEAA46AD68002D7FF47C
:101A600085AE8EE60822494634F016FE08B9A6F186
:101A700008000028FFF6B2AEAA46AD68002D7FF43C
:101A8000A5AEAEE603221AA934F006FE00B9F01E98
:101A90000028FFF6D3AEAA46AD68002D7FF4C6AE8F
:101AA000CFE60322514634F0F7FD00B9F01E0028BE
:101AB000FFF6F6AEAB46AD68002D7FF4E9AEF2E678
:101AC000042226A934F0E8FD00B9301F0028FFF6F3
:101AD00012AFAB46AD68002D7FF405AF0EE70422D0
:101AE000314634F0D9FD00B9281F0028FFF62CAF8D
:101AF000A346A468002C7FF41FAF28E73246A2E774
:101B00003246B0E73246BEE73246CBE73246D8E748
:101B10002A46E5E7002D3FF446AE2A463AE6002D78
:101B20003FF471AE2A4665E6002D3FF49CAE2A468E
:101B300090E6002D3FF4F3AE2A46E8E6002D3FF490
:101B4000C4AE2A46B8E6002C3FF413AF224608E79D
:101B5000014823F062FE00BF34D1050810B50968C2
:101B600082B0094C0346094A009120464FF40071A7
:101B700034F08CFC2046FEF713FC0146204602B0F0
:101B8000BDE8104010F0EEBA7C0800247CD00508B7
:101B90002DE9F04FD1E900A383B081469E100AEBF6
:101BA0000304002E40F3D3804FEA860B55460AEB20
:101BB000860812E0687833F019FC002867D0A8780E
:101BC00033F014FC002868D0E8782F1D33F00EFCA9
:101BD000002864D0474566D03D46287833F006FC9F
:101BE0000028E7D115E014F8020C33F0FFFB0028C1
:101BF0004FD014F8030C33F0F9FB00284BD014F845
:101C0000040C33F0F3FB00284BD0013EA4F1040494
:101C100053D014F8010C33F0E9FB0028E3D1AC42B7
:101C200015D9641B09F1080000220F2C0194C9E9A1
:101C3000000217DC012C1ED12B78C9F8044089F86A
:101C4000083000230355484603B0BDE8F08F002359
:101C500009F10802484689F80830C9E9002303B0B1
:101C6000BDE8F08F01A948462AF054FA019BC9F853
:101C70000000C9F808302246294636F096FB019C40
:101C8000D9F800000023C9F804400355DBE701350B
:101C9000BFE7013CC3E7023CC1E70235B9E70335C2
:101CA000B7E7033CBBE7A4EB0803022B41D0032BAF
:101CB00013D0012B32D02546ABE7A4EB0A03022B4D
:101CC00024D0032B1BD0012B05D114F8010C33F0C9
:101CD0008DFB0028A3D05446A1E71AF80B0033F07F
:101CE00085FB20B3787833F081FB00285ED0B8788C
:101CF00033F07CFB00284FD02546002E89D114F804
:101D0000010C33F073FB002889D0013C14F8010C5E
:101D100033F06CFB002882D0013CD6E71AF80B00A8
:101D200033F064FB00280CBF4546254671E7454665
:101D30006FE71AF80B0033F059FB0028F7D098F83A
:101D4000010033F053FB0028B5D1053561E7022BC4
:101D500006D0032B19D0012B0ED0254654465EE742
:101D60009AF8000033F042FBF0B19AF8010033F02A
:101D70003DFBB0B12546C9E79AF8000033F036FBC9
:101D800000280CBF554625469FE79AF8000033F01F
:101D90002DFB80B15746A5E7BD1C002E7FF439AF5F
:101DA000ADE70AF10105B1E75546AFE77D1C002E0E
:101DB0007FF42FAFA3E75546A1E700BF30B5024639
:101DC00089B00D4602A81146FFF7E2FE039C54B904
:101DD000029804AB984203D00499013117F0B6F889
:101DE000204609B030BD162300220F4902A82AF070
:101DF000B2FC013002D002980024EAE7002410224D
:101E000001A90298019433F001FA0346DDE90120AB
:101E10009042DED012782AB9B3F5803F02D2012475
:101E20002B80D6E70024D4E7CCD1050870B5082371
:101E30008AB00D460022274906462AF073FC30B1CD
:101E4000294630460AB0BDE8704004F0B3BD0446F0
:101E50000DF106012846ADF80640FFF7AFFF002858
:101E600036D0BDF806304FF6FF72934222D00133D0
:101E7000194A052102A806AD34F008FB02A8049512
:101E8000FEF78EFA012804461DD0B0B904F12803EC
:101E90000022059430466B4404A903F8102C04F08A
:101EA00089FD049B0446AB4204D0069918460131D3
:101EB00017F04CF820460AB070BD024602A9284629
:101EC00036F073FAE2E79DF808308DF81830DDE758
:101ED0000446EFE7E4D10508F0D105082DE9F04FFD
:101EE0002DED028BADF5137D0C460546114606A877
:101EF0001E46FFF74DFE079A3AB116230022B94954
:101F000006A82AF028FC01304DD021680DF14808C0
:101F10009F9A0CAC0EAF3368404600914FF40071AD
:101F200005AECDE90152B04A34F0B0FA4046276020
:101F3000FEF736FA0F280546306000F29680012839
:101F400040F08E8098F800303A4623720023656096
:101F50005355A3F6B93322684FF400710092A34899
:101F6000A34A34F093FAA148FEF71AFA01469F48B3
:101F700010F0F8F82068B84203D0A168013116F0DB
:101F8000E5FF9FED9C8A069808AB984203D008991C
:101F9000013116F0DBFFB0EE480A0DF5137DBDEC04
:101FA000028BBDE8F08F1022002306980DEB020192
:101FB000049333F02BF9049B069A0746934263D0AF
:101FC00093F80090B9F1000F5ED1B0F5803F80F03A
:101FD000C3809E9B002B00F02C810DF1480814AEAD
:101FE000D3F808B085B2C8F80060BBF1000F00F06C
:101FF0005C8158460CACFEF7D3F90F28824620606E
:1020000067D8012840F004819BF80030324688F8F8
:1020100008300023C8F804A002F80A309E9B1C7BFD
:10202000462C00F0BF80D8E900A9B9F1090F68D0AB
:10203000B9F10A0F40F0F0804A466F49504634F03B
:102040002BFB00286AD007EE905AB8EE678AB2459B
:1020500099D0D8F808105046013116F077FF92E772
:10206000002840F03E813A4670E700223146204683
:102070002AF050F833682060A3602A46414636F0C3
:1020800094F93568226861E721680DF148089F9A44
:102090000CAC0EAF3368404600914FF4007105AEB2
:1020A000CDE90152504A34F0F1F940462760FEF77D
:1020B00077F90F28054630603FD801281CD000284A
:1020C00040F0F1803B46002265605A554B4B226838
:1020D00042E74A46214640462AF01CF82368C8F8E1
:1020E0000000C8F808305246594636F05EF9D4F878
:1020F00000A0D8F800208CE798F8003023723B4607
:10210000E1E74A463E49504634F0C6FA30B14A4605
:102110003C49504634F0C0FA002894D1422C58D0A3
:10212000492C4CD13FB29E9B07EE907A93ED048AE6
:10213000F8EEE77A27EE888A89E7002231462046C2
:1021400029F0E8FF33682060A3602A46414636F054
:102150002CF935682368B6E701950DF14808216828
:102160000EAF9F980CAC336805AE274A02904046EC
:1021700000914FF4007134F089F940462760FEF772
:102180000FF90F28054630607ED8012877D0002847
:1021900040F0A3803A46002365605355A3F6BA3356
:1021A0002268D9E63BB2D8F800A008EE103A9E9B10
:1021B000B8EEC88AD3ED047A28EE278A47E707EEFF
:1021C000905A9E9BB8EE678AD3ED047A28EE278A50
:1021D0003DE7F7EE007A9FED0D7A002D07FE278A86
:1021E00035E700BFCCD1050800D205087C080024E3
:1021F0007CD0050820BCBE4CC0D005083CF4FFFFD5
:10220000A8D00508B4D0050840D205080000000099
:1022100000284AD0304666E7B9F1070F7FF413AFC4
:102220004A463149504634F037FA00283FF476AF39
:1022300009E703900DF1480821680EAF9F980CAC98
:10224000336805AE294A00914FF40071CDE9015081
:10225000404634F01BF940462760FEF7A1F80F28EE
:10226000054630602AD8012823D0002837D13A46C5
:10227000002365605355A3F6BB3322686CE698F8DB
:1022800000303A46237286E74A463146204629F016
:1022900041FF33682060A3602A46414636F085F846
:1022A0003568226877E738464FE732464FF0000A34
:1022B000AFE698F800303A462372D9E79E9A314645
:1022C000204629F027FF33682060A3602A46414654
:1022D00036F06BF835682268CAE73846DCE73846DE
:1022E000F4E73846C9E600BFCCD005087CD2050823
:1022F00070B5044608460D46FEF752F866688642F9
:1023000001D0002070BD46B132462946206834F025
:10231000C3F9B0FA80F0400970BD012070BD00BF64
:102320002DE9F04FD0E900740D469946E11B794B39
:102330009346794AC91085B003FB01F1914200F040
:10234000E580EB1BA7428046009300F0B680B1EB1E
:10235000410F4FEA410000F28280002840F0CF8018
:10236000182682460190DBF80030E91BD9F80020DE
:102370000AEB010BA2EB030900220BF10800B9F1F3
:102380000F0FCDF80C904AF80100CBF8042000F2B2
:10239000A180B9F1010F00F09980B9F1000F40F070
:1023A000A5800023BD42CBF8049000F809301CD072
:1023B0000AF1080307F108093E4643F8083CD6E94C
:1023C0000012494567D0B068183609F11809B542BE
:1023D000186043E9021203F11803EED1A5F11806C3
:1023E000F61B26F0070630365644A54228D006F1E3
:1023F000080305F10801A946A346D9F80020D9F839
:1024000004408A4243F8083C33D043F8082C09F1D1
:10241000180959F8102C1831CB4543E9014203F152
:102420001803EAD15C463D4A631B183BDB0802FBFC
:1024300003F323F06043013303EB430306EBC306CE
:102440002FB1D8F808103846C91B16F07FFD019B44
:10245000C8E900A6C8F8083005B0BDE8F08F304ED6
:10246000304616F084FD8319824600F11806019368
:1024700079E709F118091846621C009135F095FFBB
:1024800000990346D94501F1180140F8044C03F1C5
:102490001803B2D1C6E7013249461846183635F05E
:1024A00084FF56F8142C0346AE4209F1180940F88F
:1024B000042C03F1180380D190E70131CFD291426F
:1024C00028BF114601EB4101CE00C9E71B788BF80C
:1024D000083066E703A95846009329F01BFEEB1B62
:1024E000039A4AF80300009BCBF808204A46194695
:1024F00035F05BFFDDF80C90DBF8000051E790420F
:1025000028BF104600EB4000C600A9E7054823F0AD
:1025100081F900BFABAAAAAA55555505ABAAAA0ACC
:10252000F8FFFF7FC8D2050800232DE9F04F0C68A3
:1025300087B0064683600F461546C0E900334868F9
:102540002044A04200F0EC80194600F1FF3C631EDD
:1025500013F8012FAA4208BF01319C45F8D101317F
:10256000724B994200F2DE80002940F08D8089464E
:102570004FF000080394A0EB040C039B4FEAAC025D
:102580000493002A62DD04EB82020BE06378AB4225
:1025900074D0A378AB4273D0E378AB4272D00434EA
:1025A000A24251D02378AB42F0D14945039426D0C2
:1025B000DDF810B009F10800C9F80480A4EB0B0A9B
:1025C000C9F80000BAF10F0FCDF814A029D8BAF15C
:1025D000010F22D19BF8003089F80830C9F804A017
:1025E00000F80A80736818337360D7E90003184451
:1025F00084420ED00134D6E901910394BBE703ABCA
:10260000304604AAFFF78CFED7E900031844844241
:10261000F0D1304607B0BDE8F08FBAF1000FDDD041
:1026200009E0002205A9484629F074FD059BC9F878
:102630000000C9F808305246594635F0B6FEDDF8BC
:1026400014A0D9F80000C9E7A0EB040CBCF1020FFC
:102650000BD0BCF1030F04D0BCF1010F09D004462C
:10266000A3E72378AB42A0D001342378AB429CD0BF
:1026700001342378AB4218BF044696E7013494E74F
:10268000023492E7033490E701EB4101CC0020468D
:1026900016F06DFC8146D6E900BAD34517D000F19B
:1026A00008030BF10801D84643F8083CD8E90002BA
:1026B00088421ED008F11808183143E9020258F880
:1026C000102CC24503F1180343F8182CECD1BBF1D0
:1026D000000F05D0B1685846A1EB0B0116F036FC8F
:1026E00009EB0401D7E90040C6E900992044B16034
:1026F0003EE701321846019108F1180835F055FE01
:1027000058F8142C03460199C24540F8042C01F1F5
:10271000180103F11803C7D1BBF1000FDAD1DFE7CD
:102720001824B4E7024823F075F800BF5555550545
:10273000E4D205082DE9F04F8C6883B08B468146C2
:102740000192002C4AD0D2E9008A66695546276971
:102750004046B245394628BF35462A4615B133F0C2
:102760009BFF08B9AAEB060000281ADBE2680AB151
:102770001446EAE7A3468DB12A464146384633F06F
:102780008BFF58B100284FF000034846B4BFC9E999
:10279000003BC9E9004303B0BDE8F08FA6EB0A0097
:1027A000F0E7A268002AE3D1DBF80C30A3420ED098
:1027B0002046A34618F003F8019B0446D0E90476AE
:1027C000D3E9008AB245554628BF3546D3E70023F2
:1027D0004846C9E9003403B0BDE8F08F0C1DDBF8B2
:1027E0000C30A342E4D1F2E72DE9F04F064685B064
:1027F0002C200F46904616F0BAFB00F1180904464B
:1028000000F1100AC0F810903846FDF7C9FD0F28F6
:102810000546029035D801281FD13B7849460DF175
:10282000080B237600236561524658464B553146C6
:10283000D8F80030A362FFF77DFFDDE9023595B1DE
:1028400083B30120331D2A46214617F0BAFF73696E
:102850000133736105B0BDE8F08F00283AD14946D5
:102860000DF1080BDEE72069814503D0A169013134
:1028700016F06CFB2C21204605B0BDE8F04F16F099
:1028800065BB0DF1080B00225046594629F042FC69
:10289000029B2061A3612A46394635F086FD029DE0
:1028A0002169BFE7331D9D4212D0D4F814806F69AF
:1028B0004246B84528BF3A4632B12969206901939A
:1028C00033F0EAFE019B08B9A8EB0700C00FBAE796
:1028D0000120B8E748460DF1080BDCE72DE9F04F81
:1028E000064685B02C200F46904616F040FB00F1BE
:1028F0001809044600F1100AC0F810903846FDF798
:102900004FFD0F280546029035D801281FD13B788E
:1029100049460DF1080B237600236561524658465F
:102920004B553146D8F80030A362FFF703FFDDE9CD
:10293000023595B183B30120331D2A46214617F095
:1029400040FF73690133736105B0BDE8F08F002863
:102950003AD149460DF1080BDEE72069814503D0E5
:10296000A169013116F0F2FA2C21204605B0BDE82C
:10297000F04F16F0EBBA0DF1080B00225046594605
:1029800029F0C8FB029B2061A3612A46394635F035
:102990000CFD029D2169BFE7331D9D4212D0D4F882
:1029A00014806F694246B84528BF3A4632B129695A
:1029B0002069019333F070FE019B08B9A8EB070072
:1029C000C00FBAE70120B8E748460DF1080BDCE775
:1029D0002DE9F04F064685B02C200F46904616F0A4
:1029E000C6FA00F11809044600F1100AC0F8109068
:1029F0003846FDF7D5FC0F280546029035D801284A
:102A00001FD13B7849460DF1080B23760023656101
:102A1000524658464B553146D8F80030A362FFF76E
:102A200089FEDDE9023595B183B30120331D2A46C5
:102A3000214617F0C6FE73690133736105B0BDE826
:102A4000F08F00283AD149460DF1080BDEE72069E6
:102A5000814503D0A169013116F078FA2C21204676
:102A600005B0BDE8F04F16F071BA0DF1080B002269
:102A70005046594629F04EFB029B2061A3612A462D
:102A8000394635F092FC029D2169BFE7331D9D4216
:102A900012D0D4F814806F694246B84528BF3A4630
:102AA00032B129692069019333F0F6FD019B08B921
:102AB000A8EB0700C00FBAE70120B8E748460DF1C0
:102AC000080BDCE72DE9F0478AB0D0F8008006AFAC
:102AD0000497002900F0A180064608460D46FDF740
:102AE0005FFC0F280446039050D801284AD12B7868
:102AF0003A468DF818300023059440461355DDE919
:102B000004422146FEF79EF9BC42804604D0069955
:102B10002046013116F01AFA3368043398452ED056
:102B20002C20776816F023FA0446284604F1180989
:102B300004F1100AC4F81090FDF732FC0F28064685
:102B4000049059D8012854D12B7823764B46002184
:102B50006661524604A899553946D8F82830A362D0
:102B6000FFF7E8FDDDE90435FDB163B301203B1D4E
:102B70002A46214617F025FE7B6901337B610AB0A6
:102B8000BDE8F08700284BD13A46B4E7002203A9FC
:102B900004A829F0BFFA039B049006932246294615
:102BA00035F003FCDDE90342A5E72069814503D048
:102BB000A169013116F0CAF92C2120460AB0BDE8FE
:102BC000F04716F0C3B93B1D9D4224D0D4F81480C1
:102BD0006E694246B04528BF324632B12969206944
:102BE000019333F059FD019B08B9A8EB0600C00F13
:102BF000BEE7B8B94B46AAE7002204A9504629F01F
:102C000089FA049B2061A3613246294635F0CDFB49
:102C1000049E23699BE70120AAE7034822F0F7FD01
:102C20003846BBE74846EFE7FCCF05082DE9F84FEB
:102C30001F460B1D0E4605469A424CD01446D7E956
:102C400000A8D2E904B9C8451ED8B8F1000F7ED05B
:102C500042465946504633F01FFD08B9A8EB09001B
:102C6000002853DBC845424628BF4A468AB1584629
:102C7000514633F011FD60B100280EDB0023C5E999
:102C800000432846BDE8F88FB9F1000F3BD04A4613
:102C9000DFE7A9EB08000028F0DA3369A3422CD063
:102CA000204617F088FD8146D0E9041BC3455A46EB
:102CB00028BF42461AB1504633F0EEFC08B9A8EBE3
:102CC0000B00002851DB28463A463146FFF732FD1B
:102CD0002846BDE8F88F4B69002BF4D00C69D7E982
:102CE0000018D4E90409C1454A4628BF42465AB3F0
:102CF00033F0D2FC40B30028E5DA00232846C5E9CA
:102D00000034BDE8F88FB8F1000FC6DAF368A342CB
:102D100015D0204617F053FD8146D0E9040BC3457A
:102D20005A4628BF42461AB1514633F0B5FC08B99D
:102D3000ABEB08000028C6DAD9F80C30D3B128462E
:102D4000C5E90044BDE8F88FA9EB0800D3E7C9F155
:102D50000003002B9DDACB689A42F0D0204617F092
:102D60002EFD8146D0F814B0E2E7E3682BB1C5E947
:102D7000009986E7C5E9003983E7C5E9003480E7B3
:102D80002DE9F04F846885B081460F4600F1040AB2
:102D9000D1E9006B74B3D04665695A463146AB45FC
:102DA00028BF2A461AB1206933F076FC08B9A5EB92
:102DB0000B00002804DBA368A0462BB11C46EBE700
:102DC000E368002BFAD14446A24514D065695D45FD
:102DD0002A4628BF5A4622B13046216933F05CFCAE
:102DE00008B9ABEB0500002805DB04F1280005B0AD
:102DF000BDE8F08F54462C2016F0B9F83A4600F1A1
:102E00001808054652F8086B00F11003C0F810804E
:102E100096423FD000210661D7F804B0B8687960C7
:102E2000397200213A602246A86102A8A962494687
:102E3000C5F814B0FFF7FAFEDDE90247D7B1AAEBF7
:102E40000700B0FA80F04009002C18BF40F00100E4
:102E500000283CD053463A4629462C4617F0B1FC90
:102E6000D9F8143004F128000133C9F8143005B042
:102E7000BDE8F08FB04504D0A9693046013116F0A5
:102E800065F828462C2116F061F804F1280005B0F9
:102E9000BDE8F08FD7F804B03146404601930BF1FE
:102EA000010235F082FA002122463E60796002A8D4
:102EB00039720021019BA9624946C5F814B0FFF799
:102EC000B5FEDDE90247002FDBD04646B7E77C6957
:102ED0005A46A34528BF224622B13046396933F00D
:102EE000DBFB08B9ABEB0400C00FB3E72DE9F04FF3
:102EF000846885B081460F4600F1040AD1E9006B71
:102F000074B3D04665695A463146AB4528BF2A4658
:102F10001AB1206933F0C0FB08B9A5EB0B000028FB
:102F200004DBA368A0462BB11C46EBE7E368002B4B
:102F3000FAD14446A24514D065695D452A4628BFAA
:102F40005A4622B13046216933F0A6FB08B9ABEBF3
:102F50000500002805DB04F1280005B0BDE8F08F6E
:102F600054462C20A04616F002F800F1180604463C
:102F70000661D7E9003500F110070F2D029507D83B
:102F8000012D51D11B780376B4460DF1080B12E0E8
:102F90000DF1080B002238460193594629F0BAF882
:102FA000029A019B2061A2612A46194635F0FDF97B
:102FB000029DD4F810C0002165613B4642460CF8E2
:102FC000051000215846A1624946FFF72FFEDDE9B2
:102FD0000275C5B1AAEB0500B0FA80F04009002FD8
:102FE00018BF40F0010028B353462A46214617F087
:102FF000E8FBD9F8143004F128000133C9F8143083
:1030000005B0BDE8F08F2069864203D0A169013187
:1030100015F09CFF20463C462C2115F097FF04F14B
:10302000280005B0BDE8F08F002DADD030460DF181
:10303000080BB9E767696E693A46B74228BF32465E
:1030400022B12969206933F027FB00B9B81BC00FF2
:10305000CAE700BF2DE9F04F174685B006462C2081
:103060009846894615F083FF044600F1100AD7E917
:10307000003500F118070F2D029507613DD8012D8D
:1030800026D11B78BC460DF1080B03760021656143
:1030900053464A460CF805105846D8F80010A1626D
:1030A0003146FFF7C3FDDDE90258B8F1000F15D036
:1030B000002D36D00120331D4246214617F081FBFA
:1030C0002546736928460133736105B0BDE8F08F6A
:1030D000002D3ED1BC460DF1080BD7E72069874291
:1030E00003D0A169013115F031FF20462C2115F0E4
:1030F0002DFF284605B0BDE8F08F0DF1080B00222A
:1031000050460193594629F005F8029A019B206127
:10311000A2612A46194635F048F9029DD4F810C03C
:10312000B4E7331D984512D06769D8F814503A4671
:10313000AF4228BF2A463AB1D8F81010206901934F
:1031400033F0AAFA019B00B9781BC00FB4E7012045
:10315000B2E738460DF1080BDBE700BF2DE9F04F71
:10316000846883B08046894600F1040B0192D1E95E
:10317000006A64B35F46656952463146AA4528BF76
:103180002A461AB1206933F087FA08B9A5EB0A007C
:10319000002804DBA26827462AB11446EBE7E26860
:1031A000002AFAD13C46A34512D065695246AA4589
:1031B00028BF2A4622B13046216933F06DFA08B99A
:1031C000AAEB0500002803DB03B0BDE8F08F5C46E6
:1031D000019B4A4621464046FFF73CFF03B0BDE84D
:1031E000F08F00BF2DE9F04F8C6883B08B4681468D
:1031F0000192002C4AD0D2E9008A666955462769B7
:103200004046B245394628BF35462A4615B133F007
:1032100043FA08B9AAEB060000281ADBE2680AB1F3
:103220001446EAE7A3468DB12A464146384633F0B4
:1032300033FA58B100284FF000034846B4BFC9E93B
:10324000003BC9E9004303B0BDE8F08FA6EB0A00DC
:10325000F0E7A268002AE3D1DBF80C30A3420ED0DD
:103260002046A34617F0ABFA019B0446D0E904764A
:10327000D3E9008AB245554628BF3546D3E7002337
:103280004846C9E9003403B0BDE8F08F0C1DDBF8F7
:103290000C30A342E4D1F2E72DE9F04F154687B098
:1032A00007462C200E4615F062FE2B6800F1180A26
:1032B00000F110020446C0F810A00192D3E9008585
:1032C0000F2D049500F28F80012D45D198F8003024
:1032D0005246037607F1040B00236561B34553554D
:1032E0003546A36200F08E802269D4F81490736989
:1032F000009299453269029200F29E80B9F1000F66
:1033000000F0BD804A4602990098039333F0C4F957
:10331000039B08B9A9EB03000028C0F293809945EC
:103320004A4628BF1A46E2B100990298039333F047
:10333000B3F9039BA8B1002817DB2069824503D0AD
:10334000A169013115F002FE20462C2115F0FEFD89
:10335000284607B0BDE8F08F002D40F0CF805246E0
:10336000B8E7A3EB09000028E7DA3A690393B24211
:1033700000F0B480304617F01EFA4A468046039BA0
:10338000D0E90415A94528BF2A46002A00F0A980E3
:103390000098039333F080F9039B08B9A9EB05006B
:1033A0000028C0F29080019A394604A8FFF71AFF5E
:1033B000DDE90458B8F1000FBFD0281E18BF012066
:1033C000C34508BF40F00100002865D05B46424677
:1033D0002146254617F0F5F97B69284601337B61C4
:1033E00007B0BDE8F08F104604A9002228F092FE35
:1033F000049B2061A3612A46414634F0D6FF049D18
:10340000226967E77B69002BCDD0D7F81080D4E91B
:103410000439D8E9040600934E45324628BF4A468F
:10342000002A54D0194633F037F908B9A6EB090041
:103430000028B8DA0025BDE70BB11A4663E7B9F1F9
:10344000000F92DAFB68B34216D0304617F0B7F996
:1034500080464A46D0E90405A94528BF2A461AB144
:10346000009933F019F908B9A5EB090000289ADA98
:10347000D8F80C000028A3D0B0460120A6E75A4295
:10348000002ABFF66EAFFB68B342F5D0304617F0A6
:1034900096F980464569E7E72369D4F814900093CC
:1034A000D8E9042302924B451A4628BF4A4632B156
:1034B00002990098019333F0EFF8019B08B9A9EB4A
:1034C0000300C00F82E7F268A2B1454672E7A6EB9F
:1034D0000906002EBFF667AF104671E7B04600251B
:1034E0006BE7A9EB0503002BBFF65DAFF3681BB1DB
:1034F000012065E7B046D6E7B046D1E750467AE707
:103500002DE9F04F834693B090200826CDF804B003
:1035100015F02DFDA74B0746A74C0025BA19DFF87B
:10352000B0C20BF1040AA9463A60039203CBA34B45
:10353000B8605160A24A7E60FE613D7487F82850F1
:1035400087F83B5087F8535003CB07F1200379628B
:10355000BB6107F1380311883B63032392783987F5
:103560007B632188FB6407F16803386287F83A209F
:1035700007F15002DCF80000A7F850103B66042366
:10358000A17807F19004B866BA6487F852107B6698
:10359000FB678C4B8BF80450186807F1800387F8A1
:1035A0006C5087F88450C7F88000BB670497CBE95C
:1035B000025ACBE904A5A346D7E90046002D36D030
:1035C0000297A046374656466C693A464146A7429E
:1035D00028BF22461AB1286933F05EF800B9E01B13
:1035E00000287ADBAA682E460AB11546ECE73E466B
:1035F0004446029FAA451BD06B6932469E4228BFB3
:103600001A4632B120462969029333F045F8029BED
:1036100000B9F01A00280BDB1837C5F828905F4571
:1036200012D0019B9D68D7E90046002DC8D15546B0
:103630000C97183729460CAA0198FFF72DFE5F4515
:103640000546C5F82890ECD15F485C46049F03F01E
:103650000BFA80465C4803F009FA804500F00C81C3
:1036600008ABD8F8045008F1200802900693CDE981
:10367000047B002D00F08A802846FCF791FE0F287D
:1036800004460C9000F2E380012840F0EF802B7894
:103690008DF8203008AB4FF0000207941A55019BBB
:1036A000069FD3F80890079EB9F1000F57D0D34674
:1036B0004C466569324639462069AE4228BF2A46E3
:1036C00012B132F0E9FF00B9A81B0028D4E9023298
:1036D0000CDB7BB1A3461C46EBE7EA68002A84D1E9
:1036E0004446B0463E46029F454683E71346002ABD
:1036F000F1D15C46A24532D03246D4E90415AE423F
:1037000028BF2A461AB1384632F0C6FF00B9701BEE
:10371000002824DB2D4A0EAB07CA03C31A704FF0F2
:1037200000038DF84130D8F80440C4B1C346D4E951
:103730000405092D2DD8002D39D1E468002CF6D1CF
:10374000C3450CD0DBE90414082C43D909220EA888
:1037500032F0A2FF08B9C4F1090000283CDA08AB36
:103760009F4204D008993846013115F0EFFB08F16B
:103770003C03029A08F11C0842457BD0984608ABEE
:1037800058F81C5C0693002D7FF476AF08AB00243C
:1037900081E709220EA932F07FFF08B9A5F10900DF
:1037A0000028CADBA346A468002CC0D1C8E72A467B
:1037B000F0E700BF28D105084CD105083CD1050829
:1037C00048D10508FCD20508AC0C0024A8D0050897
:1037D000F4D20508002C6AD1DBED0A7AFDEEE77A17
:1037E00017EE903A0B2BBAD15546D9F81440324611
:1037F0003946D9F81000A64228BF224612B132F04D
:103800004BFF00B9A01B0028D9E9023203DB33B11A
:103810004D469946E9E71346002AFAD1A946CA451A
:1038200047D0D9F814403246A64228BF22462AB1D2
:10383000D9F81010384632F02FFF00B9301B00289D
:1038400037DBD9F828300133C9F8283087E7002260
:103850000CA906A828F05EFC0C9B06900893224653
:10386000294634F0A2FD0C9C069B14E700288DD05D
:1038700008A8F4E7DDE90474039D3E4655F8080CFA
:1038800085420FD0B16818361835013115F05EFB4E
:10389000B442F3D13846902115F058FB019813B08B
:1038A000BDE8F08F18361835B442E7D1F2E722466A
:1038B0004DE706AB49460CAA01980C93FFF7ECFCC8
:1038C000069F8146BDE700BF2DE9F041044682B066
:1038D00016461D4661B10120231D3246294616F0C9
:1038E00070FF636928460133636102B0BDE8F0816F
:1038F000031D9A4212D05769D5F81480B845424644
:1039000028BF3A4632B131692869019332F0C4FECA
:10391000019B08B9A8EB0700C00FDEE70120DCE738
:103920002DE9F04F2DED048BADF5417D002481464E
:103930004FF4D2701DAB8DF874401E9421948DF815
:103940008C4024942794CDE91F3323ABCDE9253354
:1039500005F076FA4FF4D37005F072FAD9E9000356
:10396000984200F0D5850A232246C74928F0F3FE85
:10397000013040F0A481D9E900031B1A182B40F252
:10398000D08118300A232246BF4928F0E4FE0130D6
:1039900040F0EE8140F2A71005F052FAD9F800305D
:1039A00021460A22186831F031FC0B904FF4D47094
:1039B00005F046FAD9F8003021460A22986931F01C
:1039C00025FC05460A9040F2A91005F039FA0023BB
:1039D0002AAA4FF4D5700E93289229948DF8A84006
:1039E00005F02EFA2946A94803F048F80446059048
:1039F00040F2AB1005F024FA2346A1681833079370
:103A0000002901F0DD800DF5807B5846FDF76AF94D
:103A1000032300229E49584628F084FE42AB0C90B6
:103A2000DBF80000984204D0DBF80810013115F0F3
:103A30008DFA079B40F2A51010931CAB119305F073
:103A4000FFF91E98FDF738FA1DAB2C20CDE91F3386
:103A500000231E93219315F08AFA00F11005044605
:103A60008C492846FDF73EF9DDED0A7A2A461CA965
:103A7000F8EEE77A12A8C4ED0A7AFEF75BFEDDE9FC
:103A80001212002A00F0668723461CA8FFF71CFFCD
:103A90008149D9E90032D21AD310302A01FB03F34D
:103AA00040F26A850222DFED7D8A9FED7D9A0492C5
:103AB0000022CDF818900D92049A01329A4281F0BA
:103AC00059824FF4D77005F0BBF9059B9D6842AB56
:103AD000CBF80030002D00F0338728460DF1E80ABE
:103AE000FCF75EFC0F280446CAF8000000F296823C
:103AF000012840F0F3832B7842AA8BF8083000238A
:103B0000CBF8044058461355049B03EB4306069B31
:103B10001968F50001EBC601FEF788F942AB0446CF
:103B2000DBF80000984204D0DBF80810013115F0F2
:103B30000DFA002C00F08682A7683846FCF730FCAE
:103B40003B46299A0021009028A828F0DBFC40F28F
:103B5000AF1005F075F9059BD3F8088042ABCBF8A0
:103B60000030B8F1000F10D040460DF1E80AFCF724
:103B700017FC0F280746CAF8000000F23B82012814
:103B800000F03282002840F0BB8342AB00270022C5
:103B9000CBF8047043495846DA55082328F0C2FD93
:103BA000002840F0D981002C00F0D681237BDBF87F
:103BB0000000462B42AB00F0B183984204D0DBF802
:103BC0000810013115F0C2F9069B1F6805F11803B2
:103BD0003D441F44059BD3F8088042ABCBF800302E
:103BE000B8F1000F10D040460DF1E80AFCF7D8FB01
:103BF0000F280646CAF8000000F25C83012800F096
:103C00005383002840F06F8642A800260023CBF89B
:103C100004603A46294683550B9B0A9801935B46FC
:103C20000094FEF75BF9DBF8000042AB8DED0E0A65
:103C3000984204D0DBF80810013115F087F902230F
:103C400009934FF4D87005F0FBF80798DDE9287662
:103C500032463946FDF7F6F8059A02F11C03834215
:103C6000089300F07D81156A002D00F0EE819846E2
:103C70006C693246A64228BF2246AAB13946286955
:103C800032F00AFD88B90FE02CD30508AC0C0024F3
:103C9000C0D30508A4D00508ABAAAAAA20BCBE4C74
:103CA00000000000E4D10508A01B0028C0F28280BB
:103CB000AB68002B00F08380A8461D46D8E7D9F8F2
:103CC00000300DF5807B0DF1E80A3CAE1B684FF427
:103CD0000071B84A584632F0D9FB5846CAF800601D
:103CE00034AFFCF75DFB0F280546386050D801283B
:103CF00040F02A869BF800308AF8083032460023CC
:103D0000AD48CAF8045051465355FDF727FFDAF87D
:103D10000000B04220D0DAF80810013115F016F991
:103D20001AE0A64D40AC0FCD0FC40FCD0FC495E8DF
:103D3000030044F8040B3AA8218040A9FCF7D2FF05
:103D40003AA99F48FDF70AFF3A983CAB984203D046
:103D50003C99013115F0FAF82498FDF7C5F91E9841
:103D6000FDF7AAF80DF5417DBDEC048BBDE8F08FA1
:103D7000D9F800304FF40071924A40A89B6932F0A4
:103D800085FB40A93AA8FCF7ADFF3AA98E48D9E7D0
:103D900022463946504628F0BDF93B68CAF8000073
:103DA000CAF808302A46594634F0FFFA3D68DAF876
:103DB0000020A4E7EB68002B7FF47FAF4546089B0B
:103DC0009D4200F04381D5F814803246464528BF15
:103DD000424622B13846296932F05EFC08B9A6EBAA
:103DE00008000028C0F23281D5ED0A7A9DED0E8AD6
:103DF000F4EE487AF1EE10FA00F08680299F092F40
:103E000000F014840A2F00F072860C2F40F0DD873A
:103E10003A466E49289832F03FFC0C9B184340F01C
:103E2000E187079C28A92046FFF760F8684980EDE4
:103E3000008A5846FCF756FF2046DBE9006231460F
:103E4000FDF700F842AB05469E4205D0DBF80810AE
:103E50003046013115F07AF8089B9D4201F0098245
:103E6000D5ED0A7A58465B49012538EE278AFCF7DA
:103E700039FF59460798FEF783FF80ED008A5846C0
:103E800028F069F9544910A8FEF71CFE534910A800
:103E9000FEF718FE4E495846FCF724FF0798DBE969
:103EA00000723946FCF7CEFF42AB06469F4205D072
:103EB000DBF808103846013115F048F8089BB3428A
:103EC00005D006F1280242491CA8FEF707FD002D87
:103ED00000F09C873F4900F010BC32463C49384610
:103EE00032F0DAFB002848D10EAA39490798FEF7CC
:103EF000F5FC0C9B002B00F03C850EAA34491CA855
:103F0000FEF7ECFC01230D930499099B069A1944D2
:103F1000D2E9002304919B1A314ADB1002FB03F320
:103F20009942FFF4C9AD0D9B002B00F025830A9C3C
:103F3000E0B205F03FFF4FF4E67004F081FF294B3B
:103F40001B7823B90B9920461CAAFDF7E5F940F22E
:103F5000CD1004F075FF0FE3DBF8000042AB2CE658
:103F60000A2EBAD0072E40F0EC8032461A49384665
:103F700032F092FB002800F00A83059B1D6A002D99
:103F800000F00A86089CA0466C693246A64228BF0B
:103F9000224622B13946286932F07EFB00B9A01BC7
:103FA0000028C0F29280AB68002B00F09380A846F6
:103FB0001D46E9E738D3050832F4FFFF68D305084A
:103FC00031F4FFFF90D3050830F4FFFF84D40508D7
:103FD000C0D00508B4D00508CCD00508A8D0050885
:103FE000ABAAAAAA0427002498F800308BF808305E
:103FF00042ABCCE500225146584628F08BF8DAF85F
:104000000030CBF80000CBF808303A46414634F097
:10401000CCF9DAF80070DBF80030B8E50022514640
:10402000584628F077F8DAF80030CBF80000CBF8E3
:1040300008302246294634F0B8F9DAF80040DBF8B7
:1040400000205CE50720AF4F7AE51D462C20A946ED
:1040500014F08DFF299E00F1180705460F2E00F180
:104060001008289CCBF80060076100F2E983012E5C
:1040700000F07883002E40F05686384600216E61AD
:1040800043464A46815514A8079985ED0A9AFEF7DA
:10409000CDFDDDE91486002E00F02581089B981BDC
:1040A000B0FA80F04009B8F1000F18BF40F00100ED
:1040B000002800F0F6863246089B294616F081FB60
:1040C000059AD36A0133D3628EE6EB68002B7FF446
:1040D0006FAF4546089B9D4200F05F85D5F8148080
:1040E0003246464528BF4246002A00F0D983296956
:1040F000384632F0D1FA002800F0D2830028C0F20E
:104100004C850C2E00F0F9861E9C002C00F08F864A
:104110000DF174083246D4E90405AE4228BF2A46A0
:104120001AB1394632F0B8FA00B9A81B0028D4E910
:104130000232C0F2B883002B00F0BA83A0461C46BE
:10414000E8E7092E00F04D840F2E40F072863246CB
:104150006D49384632F0A0FA00287FF40EAF34AD36
:104160006A4B0DF1E00800272E46DDF820A00FCBAA
:1041700085E80F0042AB56F8045BCBF80030002D09
:1041800001F051812846FCF70BF90F2804463A90BC
:1041900000F22382012800F00A82002840F0E7861E
:1041A00042ABCBF804401F550798DBE90092494623
:1041B000FCF748FE42AB0446994505D0DBF80810F1
:1041C0004846013114F0C2FEA24500F07284464513
:1041D000D0D1059B1D6ADDE92878002D00F0E78429
:1041E000089C6E694246B04528BF324622B1394626
:1041F000286932F051FA08B9A6EB0800002804DB60
:10420000AB6833B12C461D46EBE7EB68002BFAD1C7
:104210002546089BAB4200F0CB846C694246A04522
:1042200028BF2246002A00F060833846296932F010
:1042300033FA002800F059830028C0F2B9840E9C9C
:1042400028A90798FEF752FE2F49046010A8FEF730
:1042500039FC2F4910A8FEF735FC2E4910A8FEF7AF
:1042600031FC2D4910A8FEF72DFC1E9CDDE92867C6
:10427000002C00F0DC850DF174083A46D4E9040501
:10428000AF4228BF2A461AB1314632F005FA00B9CA
:10429000E81B0028D4E90232C0F22A83002B00F088
:1042A0002C83A0461C46E8E798F8003042A88BF81B
:1042B0000830ABE400225146584627F02BFFDAF8CD
:1042C0000030CBF80000CBF808303246414634F0DD
:1042D0006CF8DAF80060DBF8000097E4002800F0E2
:1042E0002F8342A8A5E62869874203D0A969013136
:1042F00014F02CFE28462C21454614F027FE73E5C9
:1043000042A882E6F8D1050894D40508C8CF05086C
:10431000C0D40508A4D40508B0D40508984204D038
:10432000DBF80810013114F011FE069BB44AD3E902
:104330000083A3EB080308EB0500DB1002FB03F38B
:10434000049A03329A42C0F08980059B18352EAF3B
:104350000DF1C009D3F808A04544C7F80090BAF1A0
:10436000000F0ED05046FCF71BF80F280346CBF881
:10437000000000F2BA80012800F0B280002840F06E
:10438000B4834A46002329464FF0000A34AD7B60CF
:1043900002F803A02846FDF7FBFB6B6843B1162328
:1043A00052469849284628F0D6F9013000F0598243
:1043B0000B9B0DF1E80A944A4FF4007102935846A2
:1043C0000A9B019358F836303CAE00933B6832F0BC
:1043D0005DF85846CAF80060FBF7E2FF0F28044674
:1043E0000F9000F2E880012800F0DC80002840F007
:1043F000898432460023CAF804404FF40071834890
:104400001355DAF80030824A0093824B32F03EF8BE
:104410007E48FBF7C5FF01467C480DF0A3FEDAF8A5
:104420000000B04204D0DAF80810013114F08EFD1B
:10443000B0EE688A286836AB984203D0A96801318B
:1044400014F084FD38688DED0E8A48453FF4F7ABD3
:10445000B968013114F07AFDFFF7F1BB00242EA9F1
:1044600005F13007ADF8B840ADF8D040FDF7A6FC37
:10447000002800F0BE86069B34A918683844FDF772
:104480009DFC002800F0B586BDF8B830BDF8D020FE
:10449000013306999BB20E689A4240F0AE860DF148
:1044A000E80A05F11800ABF8004030445146AAF87C
:1044B0000040FDF783FC00283FD005F14800594635
:1044C0003044FDF77BFC002837D0BAF80020BBF859
:1044D000003043EA02430E9304230993FFF7B1BB74
:1044E0009AF800203A724A464DE700220890594651
:1044F000384627F00FFEDBF80020089B3860BA60D2
:104500001A46514633F051FFDBF800303A683AE77B
:10451000414D40AC0FCD0FC40FCD0FC495E8030043
:1045200044F8040B3AA824F8021B090C217040A996
:10453000FCF7D8FB3AA9394804E4DDE905399B6862
:10454000002B00F040830B9A4FF400715846029202
:104550000A9A0192D9F8002052590092304A31F05B
:1045600095FF59465046FCF7BDFB2E485146FDF7D6
:10457000F5FA504627F0EFFD28982AAB98423FF411
:10458000EBAB2A99013114F0E1FCFFF7E5BB0EAA71
:1045900007982549FEF728F90EAA23491CA8FEF71B
:1045A00023F9AFE49BF800308AF8083021E72B7834
:1045B0008BF80830F4E500220FA9504627F0AAFD39
:1045C0000F9BCAF80000CAF808302246594633F05B
:1045D000ECFE0F9CDAF800200CE700223AA95846BE
:1045E00027F098FD3A9BCBF80000CBF80830224624
:1045F000294633F0DAFE3A9CDBF80030D1E500BF03
:10460000ABAAAAAACCD1050800D205087C080024D0
:104610007CD0050842F4FFFF04D3050833F4FFFF04
:1046200044D405080AF4FFFFCCD00508289D3A467B
:10463000BA49284632F030F80646002800F0958046
:104640003A46B749284632F027F8002859D03A466A
:104650002846B44932F020F8002840F0C3832EAD3C
:10466000B14B0DF1E80A3CAEA846089F0FCB85E898
:104670000F0058F8044BCAF80060002C00F0D386F5
:104680002046FBF78DFE0F280546CBF8000000F210
:104690001F84012800F01784002840F0BE833346B1
:1046A0004FF00002CAF8045007985A55DAE9009210
:1046B0004946FCF7C7FBB145054605D0DAF80810B6
:1046C0004846013114F042FCAF4200F0EB8432ABBB
:1046D0009845CED128A90798FEF708FC934980EDAC
:1046E000008A10A8FEF7EEF98E4910A8FEF7EAF945
:1046F0008F4910A8FEF7E6F98E4910A8FEF7E2F9F7
:1047000084E328A90798FEF7F1FB8B4980ED008A26
:1047100010A8FEF7D7F9814910A8FEF7D3F9874909
:1047200010A8FEF7CFF91E9CDDE92867002C00F0E9
:104730007E830DF174083A46D4E90405AF4228BFE0
:104740002A461AB1314631F0A7FF00B9E81B00280C
:10475000D4E90232C0F27A83002B00F0CE80A0466A
:104760001C46E8E72378037687E44FF4DB7004F017
:1047700067FB079C28A92046FEF7B8FBD0ED007A1E
:10478000BCEEC87A9DF82800FCEEE77A8DED087A39
:10479000CDED0D7A9DF820209DF8341005F02EFD0A
:1047A00040F2B71004F04CFB28A92046FEF79EFB10
:1047B000614980ED008A10A8FEF784F95F4910A8CE
:1047C000FEF780F9564910A8FEF77CF90EAA534966
:1047D0001CA8FEF7FDF84FF4DC7004F031FB5846DE
:1047E000FEF78EFE2498FCF77FFC23AB24962796D9
:1047F000CDE92533DBF80830B3B1DBF80C20249386
:104800002592DBF8102026929BF804208DF88C204E
:1048100023AA5A60DBF81430CBF80860279341AB29
:10482000CBF81460CBE903330020FCF75DFC22A831
:10483000FCF784FF40F2B91004F002FBFFF762BB03
:1048400000225946404627F065FCDBF8002028612D
:10485000AA613246214633F0A8FDDBF800602869E2
:104860000CE410220FA92868CDF83CA030F0CEFC53
:104870000F9A03462868904200F0EE821278002AD0
:1048800040F0EA82B3F5803F80F0D7841BB2D4EDCC
:10489000047A08EE103AB8EEC88A28EE278ACAE5EC
:1048A000A6EB08002AE412B113461C4632E4444643
:1048B0001DAB9C420DD03246D4E90415AE4228BF50
:1048C0002A4672B1384631F0E7FE50B10028BFF6F3
:1048D00019AB21460EAB28AA1CA8FEF7BBFBFFF7BD
:1048E00011BB701BF2E742A8EFE4A8EB0400A3E4BD
:1048F00012B113461C46C0E444461DAB9C42E8D0AE
:104900003A46D4E90415AF4228BF2A4622B13046C0
:1049100031F0C2FE0028D9D1781BD7E7A8D005080E
:10492000B4D00508C0D40508C8CF050894D405083C
:10493000A4D40508B0D40508CCD00508C0D005081B
:1049400042AA0024FFF7DBB800283FF4D7A930467D
:10495000FFF728BA206904F11803984203D0A1692F
:10496000013114F0F3FA20462C2114F0EFFAFFF78E
:104970008FB89E495846FCF7B5F90798DBE9006205
:104980003146FCF75FFA42AB05469E4205D0DBF8A4
:1049900008103046013114F0D9FA089BAB423FF4BD
:1049A000ACAADDED0E7A584695ED0A8A904938EEAC
:1049B000278AFCF797F959460798FEF7E1F942ABC9
:1049C00080ED008ADBF80000984204D0DBF8081084
:1049D000013114F0BBFA864910A8FEF773F8FFF70F
:1049E0008CBA32468349384631F056FE002840F0F2
:1049F00077810EAA7F490798FDF7EAFF7E4F0EAA3E
:104A00007C491CA8DFF80492FDF7E2FF4FF4E17047
:104A100004F016FA05F0BEF9BC6806469DF8288039
:104A2000C9F80000002C00F0BC8307F1040A5546C9
:104A3000237C4345D4E9021239D325460C46002C89
:104A4000F6D1554500F0AD832B7C434540F2BD8047
:104A50002C2014F08CFA0476C4610646846200F1BE
:104A6000180480F81080C0E908442B7C984580F039
:104A70006083FB68AB420DD02846089315F09FFE7B
:104A8000017C0246089B414580F04784C368002BA7
:104A900000F0BC842A4601203546584B294615F0C3
:104AA00090FE7B6901337B61D9F800608FE014468A
:104AB000C5E72C2014F05BFA294600F110050446E6
:104AC0002846FCF70FF900232A4607991AA8A36283
:104AD000FDF730FEDDE91A12002A00F015812346A9
:104AE0000798FEF7F1FEFFF772BB484608E5444D14
:104AF0003A462898294631F0CFFD0646002840F076
:104B0000718142AB95E80700CBF80030089D03C3E4
:104B10001A80059B8BF812601E6ACBF80470002E79
:104B200000F00381D6E904040A2C27D8002C31D1E7
:104B3000F668002EF6D1089BAB4200F0F6806E6955
:104B4000092E40F2AA823A46296942A831F0A4FD12
:104B500008B9C6F10A000028C0F2E78085ED0A8A8C
:104B60000C9B002B00F0388210A82649FDF7AAFF05
:104B7000204910A8FDF7A6FFFFF7BFB90A2242A9F6
:104B800031F08AFD08B9A4F10A000028D0DB3546CF
:104B9000B668CEE72246F2E7089D29460EAB28AA62
:104BA0000798FEF757FADDE92876FFF7AABA089DBD
:104BB00029460EAB28AA0798FEF74CFAFFF73FBB31
:104BC0001149FEF720BF104BBDE405F118049DED1F
:104BD0000E8AD5F81C90FCEEC87ACDED087A9DF8C7
:104BE0002080B9F1000F14D146E300BF84D405083A
:104BF000B4D00508A8D00508182700241C270024D5
:104C0000C0D00508CCD00508C41C06081427002411
:104C1000914699F81010D9E90232884536BF1A46F4
:104C200000230123002AF3D1002B40F05D81884549
:104C300019D94C4540F026830127302014F097F90C
:104C400023460146002480F810804A4646613846D3
:104C5000C1E90644C1E90844C1E90A4415F0B1FDBF
:104C6000AB6A0133AB62BDEEC88A18EE103A0B2B6B
:104C70007FF448A940F2C31004F0E2F85846FEF76A
:104C80003FFC2498FCF730FA23ABDBF80820CDE991
:104C90002533002324932793B2B1DBF80C10249220
:104CA0002591DBF8101026919BF804108DF88C10DC
:104CB00023A95160DBF81420CBF80830CBF814306E
:104CC00041AB2792CBE903330020FCF70DFA22A871
:104CD000FCF734FD4FF4E27004F0B2F8FFF712B9BC
:104CE0003246B249384631F0D7FC00283FF437AAA3
:104CF0003246AF49384631F0CFFC00283FF42FAAA6
:104D0000FFF73BB9304660E4206904F1180398428C
:104D100003D0A169013114F019F920462C2114F0B7
:104D200015F9FFF754BA384693E52C2014F01FF913
:104D3000DBF8007042AA00F11808064600F11003E3
:104D40009742C0F8108000F0C58242A9DBF8044009
:104D50002A460761CBF80010DBF808104461816136
:104D60000021CBF804108BF808100021816216A8EE
:104D70000799FDF75BFFDDE916A5002D00F02D82F8
:104D8000089B581BB0FA80F04009BAF1000F18BF19
:104D900040F00100002800F014832A46089B3146A9
:104DA000B24615F00EFD059AD36A0133D362DBF8E3
:104DB000000042AB8AED0A8A98423FF4D1AEDBF89C
:104DC0000810013114F0C2F8CAE6072F00F036814E
:104DD0000F2F07D13A467749289831F05DFC00281B
:104DE0003FF43DAC724928A8FDF782FA00287FF411
:104DF00036AC714928A8FDF77BFA00287FF42FAC68
:104E000028A90798FEF772F880ED008A0EAA28A953
:104E10001CA8FEF7A3F9FFF775B830462A462146CD
:104E200033F0C3FADBF80050DAF8003038E41DAC98
:104E30004FE50E2E7FF4A1A832465F49384631F087
:104E40002BFC00287FF499A8FFF789B9002A3FF4CA
:104E500053AD13461C466EE40B9B0DF1E80A574A0E
:104E60004FF40071029358460A9B019358F836306C
:104E70003CAE00933B6831F009FB59465046FBF7C6
:104E800031FF4F485146FCF769FE3A98B04203D0D3
:104E90003C99013114F05AF89FED4A8A2868FFF7CF
:104EA000CABAD5F8148077694246B84528BF3A4651
:104EB00022B13169286931F0EFFB08B9A8EB07008E
:104EC000C00FFFF7F8B823788AF80830FFF7E7BB80
:104ED00000225946504627F01DF9DBF80030CAF889
:104EE0000000CAF8083099E72B6A4B453FF4A1AEA1
:104EF000484615F064FC017C99E632463249384652
:104F000031F0CAFB0C9B18437FF4FEA82F4958468A
:104F1000FBF7E8FE0798DBE90012FBF793FF054675
:104F2000584627F018F9089B9D421CD0DDED0E7AFB
:104F3000584695ED0A8A2835254938EE278AFBF729
:104F4000D1FE59460798FDF71BFF80ED008A5846B1
:104F500027F001F91D491CA82A46FDF7BFFC1C4992
:104F600010A8FDF7AFFDDDE92876FFF7CDB842A820
:104F7000FFF73DBB0A9B4FF40071164A584631F0CB
:104F800085FA59463AA8FBF7ADFE6FF43E603AA9A0
:104F9000FCF7E4FD3A983CAB98423FF4EDAA3C990B
:104FA000013113F0D3FFFFF7E7BA00BFC0D4050803
:104FB000A4D4050894D40508B0D4050800D2050887
:104FC0003DF4FFFF20BCBE4C84D40508C0D00508CA
:104FD000B4D00508C4D30508B4495846FBF782FE8F
:104FE0000798DBE900623146FBF72CFF42AB054630
:104FF0009E4205D0DBF808103046013113F0A6FFC1
:10500000089B9D423FF4B0ADD5ED0A7A5846A849B9
:1050100038EE278AFBF766FE59460798FDF7B0FE83
:1050200080ED008A584627F096F810A8A149FDF7B0
:1050300049FDA14910A8FDF745FDCCE43A469D493C
:10504000289831F029FB00287FF4CCAE99495846C6
:10505000FBF748FE59460798FDF792FE42AB80EDFC
:10506000008ADBF80000984204D0DBF80810013118
:1050700013F06CFF10A89149FDF724FD10A88C498E
:10508000FDF720FD10A88C49FDF71CFD0EAA8949EB
:105090001CA8FDF7A9FBFEF735BF002E3FF45EAD5F
:1050A000374650E52C2013F062FF0546204605F1F7
:1050B000180905F11003C5F810900893FBF770F973
:1050C0000F280346CBF8000000F26F81012800F0A2
:1050D000218128BB494600206B61089AC8540023EF
:1050E000079918A8AB62FDF725FBDDE91834002C01
:1050F00000F0CF80003B18BF0123A74214BF184621
:1051000043F00100002800F06E8122463B4629460C
:1051100015F057FB059AD36A0133D362FFF7D7BA6C
:1051200048461A46214633F040F9DBF80030296939
:10513000D1E72CD93B69AB4200F02081284615F01D
:105140003AFB037C0246434540F2FE80EB68002BAD
:1051500000F01481354601209FE4D7F808A0BAF189
:10516000000F01D115E19A469AF81010DAE90223EE
:10517000884536BF134600220122002BF3D1002AB6
:1051800040F009815246884520D82E4655460020D9
:1051900005F11804FBF7DEFD30462C2113F0D6FE96
:1051A00082E42C2013F0E3FE002300F118040546EE
:1051B0000376C36183627B6980F81080C0E908448C
:1051C000002BCAD03A69137C4345C6D2DFF800A150
:1051D000524540F0D78001205FE4B84504D0B16962
:1051E0003846013113F0B2FE30462C2113F0AEFEEA
:1051F000DDE5DDF81890D9F80060059B9B68002B71
:1052000000F0EF800B9A4FF40071584603920A9A0F
:105210000292F259019272590092294A31F036F9FC
:1052200059463AA8FBF75EFD3AA92648FCF796FCDA
:105230003AA826F090FFFFF79FB90B9B0DF1E80A03
:10524000214A4FF40071029358460A9B019358F883
:10525000363000933B6831F019F959465046FBF758
:1052600041FD51461948FCF779FC504626F073FF82
:1052700012E60025FEF706BE2B6AA1469C427FF48B
:1052800037AED9E499F81070474594BF002701273D
:10529000D3E42869814503D0A969013113F056FE92
:1052A00028462C2113F052FEFFF711BA84D40508CA
:1052B000B4D00508CCD00508A8D00508C0D0050892
:1052C000F0D305080BF4FFFF40D2050841F4FFFFBF
:1052D0001C270024DBF80440114640460D93621C55
:1052E00033F063F842A92A460D9BCBF80010002149
:1052F00016A87461CBF804108BF808100021B16275
:105300000799FDF793FCDDE916A5002D3FF46CAF7E
:10531000474635E522782A76DCE6BD680DB980E09F
:105320000546297CD5E90220884536BF1046002273
:1053300001220028F4D1C2B92A4688457FF627AF5A
:10534000354606F1180443E7BD680DB967E0154618
:10535000297CD5E90232884536BF1A46002301234D
:10536000002AF4D1002BE7D0FB68AB4252D028468C
:1053700015F025FA2A46017C0546DEE72A4606F1A5
:1053800018043546107C404594BF00200120FFF7EB
:1053900084BBDFF89CA0FB689A4539D0504615F0D5
:1053A0000EFA5246017C8246EDE600220D905946E7
:1053B000089826F0AFFEDBF800200D9B2861AA615B
:1053C000AFE6D5F81480A045424628BF224622B158
:1053D0003846296931F060F908B9A4EB0800C00F1C
:1053E000DBE4124B0EE76B69D4F814901A464B4578
:1053F00028BF4A4632B121692869089331F04CF937
:10540000089B08B9A3EB0900C00F7EE63546DFE62E
:105410005246DBE62A4606F118043546D8E6044D26
:10542000A2E7034DA1E7034820F0F1F9C41C0608E8
:105430001C270024FCCF05082DE9F04F0446ADF5EC
:10544000137D4FF4C87003F0FBFC65688DB142F228
:105450000146691E23685A5C0D2A0ED826FA02F20C
:10546000D2070AD50122204626F0F3FE6568002DFA
:10547000EFD10DF5137DBDE8F08FBC4A1278012AFB
:1054800000F0BF801A787B2A00F0BB80012D6CD021
:10549000303A092A69D85A783A2A66D10DF1240897
:1054A00021464046FDF740F8B14AD8E9006AAAEB28
:1054B0000601CB104829039102FB03F304D913F032
:1054C0000102934600F0A980226812AF0CAC0DF1E6
:1054D00038094FF4007100923846A64A30F0D6FFE2
:1054E0003846C4F80090FAF75BFF0F28054608908D
:1054F00000F24C81012840F02D813B7823724A460E
:10550000002365604FF400719B48535523689B4A04
:1055100000939B4B30F0BAFF9748FAF741FF0146E2
:1055200095480CF01FFE2068484503D0A168013162
:1055300013F00CFDB2450FD006F10804354654F8BF
:10554000080CA04200F0B880A96818351834013161
:1055500013F0FCFCAA45F2D1002E8AD0D8F808102E
:105560003046891B13F0F2FC83E712AF0CAC0DF14F
:105570003809844A4FF40071384630F087FF3846C6
:10558000C4F800900DF12408FAF70AFF0F28054629
:10559000C8F8000024D801283BD13B7823724A4642
:1055A0000023656074485355A3F609432168734A84
:1055B00000914FF4007130F069FF6F48FAF7F0FE88
:1055C00001466D480CF0CEFD206848453FF451AFD0
:1055D000A168013113F0BAFC0DF5137DBDE8F08F21
:1055E00000224146204626F095FDD8F80030206084
:1055F000A3602A46394632F0D8FED8F80050226817
:10560000CEE7294618460DF5137DBDE8F04F0CF0A6
:10561000A9BD0028C3D04846EBE74FF4CD7003F096
:105620000FFC594B039A9A4200F2C7801446104669
:1056300013F09DFCB24500EB040312AF04903860F8
:105640001390BB6000F0AB8000F11805B1460CACC4
:105650000797CDE90568D8460DE0012E29D13B78A2
:1056600005F8103C09F1180945F8146C183500F8D4
:105670000680CA4526D0A5F11000A5F11802AB4658
:1056800045F8180CD9E900760F2E2660E5D91046AA
:105690002146002226F03EFD226845F8180C45F808
:1056A000102C3246394632F080FE266855F8180C28
:1056B000D8E7002ED6D0F4E718351834AA457FF481
:1056C0003EAF49E7079F3846C7F804B0DDE90568F3
:1056D000FEF726F9049B9B450ED01D4603F10804F6
:1056E00054F8080C844230D0A968183518340131B8
:1056F00013F02CFCAB45F3D106F108043546DDE987
:10570000031013F023FC40F29B1003F099FB54F8B4
:10571000080C844214D0A96818351834013113F0EC
:1057200015FCAA45F3D1002E3FF4A3AED8F808101B
:105730003046891B0DF5137DBDE8F04F13F006BC14
:1057400018351834AA45E2D1EDE718351834AB45C1
:10575000C6D1D1E700283FF4D2AE48462A463946A2
:1057600032F023FE089D2268CAE600BF7C0C0024AC
:10577000ABAAAAAAECD405087C0800247CD00508B2
:10578000F6F3FFFFCCD40508F8FFFF7F002208A93D
:10579000204626F0BFFC089B2060A360DEE704469D
:1057A00078603846FEF7BCF82046039913F0CEFB2C
:1057B00040F29B1003F044FBB5E720F022F800BF55
:1057C0002DE9F84307463020884613F0D0FB07F157
:1057D0001005064600F110044FF0000C97F80090F9
:1057E000D7F80CE00FCD0FC495E80F0084E80F0048
:1057F00086F80090C6F80480C6E902CCBEF1000F1E
:1058000004D031467046FFF7DBFFF060BD683DB362
:1058100037464FF00008302013F0A9FB05F1100EB9
:10582000044695F80090BEE80F0004F1100CACE8B7
:105830000F009EE80F008CE80F00C4E9028884F88E
:1058400000902146BC606760E86830B1FFF7B8FFA0
:10585000E060AD6825B12746DDE7AD68002DFAD1DF
:105860003046BDE8F88300BF4368032B04D007EE41
:10587000901AB8EEE70A704703681A78432AF6D1FF
:105880005A78462A0DD05A780133462AEFD15B78F0
:105890002D2BECD10029EADD00EE101ABAEEEF0A4A
:1058A00070479A782B2AEED1F4E700BF2DE9F0413A
:1058B0002DED028B88B00546F0EE408A04F00EFA1A
:1058C000B7EE007ADFED2B6A29462B4804AFC0FE05
:1058D000477AC7FEA67A37EE678A01F0CFF80668E6
:1058E000002E3CD030460297FAF75AFD0F280DF1F2
:1058F00008080446019023D8012836D133783A4667
:105900008DF810300023294603941B48135501F0ED
:10591000B5F8034640465969FFF7A6FFC0EE287A5E
:105920000298B84227EE888A03D00499013113F017
:105930000DFBB0EE480A08B0BDEC028BBDE8F0816B
:10594000002201A9404626F0E5FB019B029004934A
:105950002246314632F029FDDDE90142D2E70DF160
:10596000080802973A460024CCE70028FAD03846C7
:10597000EEE700BF00000000AC0C0024002873D04C
:105980002DE9F04F074683B0D7F80C80B8F1000F2F
:1059900060D0D8F80C90B9F1000F52D0D9F80CA013
:1059A000BAF1000F44D0DAF80C40002C37D0D4F80C
:1059B0000CB0BBF1000F2BD0DBF80C60FEB1F5682A
:1059C000B5B1EB686BB1D8680193FFF7D7FF019BC6
:1059D000302118469B68019313F0B8FA019B002B05
:1059E000F1D12846AD68302113F0B0FA002DE8D18E
:1059F0003046B668302113F0A9FA002EDFD1DBF86B
:105A000008503021584613F0A1FA0DB1AB46D3E748
:105A10002046A468302113F099FA002CC7D1DAF897
:105A200008403021504613F091FA0CB1A246BAE773
:105A3000D9F808403021484613F088FA0CB1A14645
:105A4000ACE7D8F808403021404613F07FFA0CB19B
:105A5000A0469EE73846BF68302113F077FA002F42
:105A600092D103B0BDE8F08F704700BF002818BF87
:105A70000629F0B594BF012600262DED028B89B0D2
:105A800051D904AF0F290C460546CDE9011750D86E
:105A900038462246294632F088FC0021DDE90132F1
:105AA0000393D1540399A1B1384D029B01390122CE
:105AB00002A85C5CA4F10A0334B1DBB2162B25FA10
:105AC00003F406D8E30704D526F0C3FB03990029A5
:105AD000EBD1062300222E4902A826F023FE30B186
