:020000040800F2
:1000000000000824B5E600089DD90008A9D9000819
:10001000ADD90008B1D90008B5D90008000000002A
:10002000000000000000000000000000B9D9000836
:10003000BDD9000800000000C1D90008C5D90008DA
:1000400009E7000809E7000809E7000809E70008D0
:1000500009E7000809E7000809E7000809E70008C0
:1000600009E7000809E7000809E70008C9D90008FE
:1000700009E7000809E7000809E7000809E70008A0
:1000800009E7000809E7000809E7000809E7000890
:1000900009E7000809E7000809E7000809E7000880
:1000A00009E7000809E7000809E7000809E7000870
:1000B000D5D9000809E7000809E7000809E70008A2
:1000C00009E7000809E7000809E7000809E7000850
:1000D00009E70008E1D90008EDD90008F9D90008BE
:1000E00005DA000809E700080000000009E7000839
:1000F00009E7000809E7000809E7000809E7000820
:1001000009E7000809E7000809E7000809E700080F
:100110000DDA000809E7000809E7000809E7000808
:1001200009E7000809E7000809E7000809E70008EF
:1001300009E7000809E7000809E7000809E70008DF
:1001400000000000000000000000000000000000AF
:1001500009E7000809E7000809E7000809E70008BF
:1001600009E7000809E7000809E7000809E70008AF
:1001700009E7000809E7000809E700080000000097
:1001800009E7000809E7000809E7000809E700088F
:1001900009E7000809E7000809E7000809E700087F
:1001A00009E7000809E7000809E7000809E700086F
:1001B00009E7000809E7000809E7000809E700085F
:1001C00009E7000809E7000809E7000809E700084F
:1001D00009E7000809E7000809E7000809E700083F
:1001E00009E7000809E7000809E7000809E700082F
:1001F00009E7000809E7000809E7000809E700081F
:1002000009E7000809E7000809E7000809E700080E
:1002100009E7000809E7000809E7000809E70008FE
:1002200009E7000809E7000809E7000800000000E6
:1002300009E7000809E700080000000009E70008D6
:1002400009E7000809E7000809E7000809E70008CE
:1002500009E7000809E7000809E7000809E70008BE
:1002600009E7000809E7000809E7000809E70008AE
:1002700009E7000809E7000809E700080000000096
:1002800009E7000809E7000809E700080000000086
:080290000000000009E700086E
:1002A00010B5054C237833B9044B13B10448AFF3B0
:1002B00000800123237010BD2005002400000000F1
:1002C000388C030808B5034B1BB103490348AFF34F
:1002D000008008BD0000000024050024388C0308BD
:1002E00010F8012B11F8013B012A28BF9A42F7D0E0
:1002F000D01A70470000000000000000000000005D
:1003000001F0FF01102A2BDB10F0070F08D010F8C6
:10031000013B013A8B422DD010F0070F42B3F6D1CA
:10032000F0B441EA012141EA014122F007047FF0E3
:1003300000070023F0E80256083C85EA010586EA3A
:10034000010685FA47F5A3FA87F586FA47F6A5FA76
:1003500087F68EB9EED1F0BC01F0FF0102F0070282
:1003600032B110F8013B013A83EA010313B1F8D12D
:100370000020704701387047002D06BF354603380E
:10038000073815F0010F07D1013015F4807F02BF47
:10039000013015F4C03F0130F0BC0138704700BF98
:1003A000034613F8012B002AFBD1181A01387047B5
:1003B00081F0004102E000BF83F0004330B54FEA16
:1003C00041044FEA430594EA050F08BF90EA020F83
:1003D0001FBF54EA000C55EA020C7FEA645C7FEA16
:1003E000655C00F0E2804FEA5454D4EB5555B8BF39
:1003F0006D420CDD2C4480EA020281EA030382EAAA
:10040000000083EA010180EA020281EA0303362D3B
:1004100088BF30BD11F0004F4FEA01314FF4801C0E
:100420004CEA113102D0404261EB410113F0004F20
:100430004FEA03334CEA133302D0524263EB4303D7
:1004400094EA050F00F0A780A4F10104D5F1200E75
:100450000DDB02FA0EFC22FA05F2801841F10001D0
:1004600003FA0EF2801843FA05F359410EE0A5F1A4
:1004700020050EF1200E012A03FA0EFC28BF4CF0D5
:10048000020C43FA05F3C01851EBE37101F000458B
:1004900007D54FF0000EDCF1000C7EEB00006EEB98
:1004A0000101B1F5801F1BD3B1F5001F0CD3490822
:1004B0005FEA30004FEA3C0C04F101044FEA445279
:1004C00012F5800F80F09A80BCF1004F08BF5FEA00
:1004D000500C50F1000041EB045141EA050130BDE0
:1004E0005FEA4C0C404141EB0101013C28BFB1F5F2
:1004F000801FE9D291F0000F04BF01460020B1FA3D
:1005000081F308BF2033A3F10B03B3F120020CDA0F
:100510000C3208DD02F1140CC2F10C0201FA0CF0ED
:1005200021FA02F10CE002F11402D8BFC2F1200C52
:1005300001FA02F120FA0CFCDCBF41EA0C01904008
:10054000E41AA2BF01EB0451294330BD6FEA040451
:100550001F3C1CDA0C340EDC04F11404C4F120023C
:1005600020FA04F001FA02F340EA030021FA04F34E
:1005700045EA030130BDC4F10C04C4F1200220FAA5
:1005800002F001FA04F340EA0300294630BD21FAE3
:1005900004F0294630BD94F0000F83F4801306BFA9
:1005A00081F480110134013D4EE77FEA645C18BF9D
:1005B0007FEA655C29D094EA050F08BF90EA020F34
:1005C00005D054EA000C04BF1946104630BD91EA2C
:1005D000030F1EBF0021002030BD5FEA545C05D12F
:1005E0004000494128BF41F0004130BD14F580046E
:1005F0003CBF01F5801130BD01F0004545F0FE41E2
:1006000041F470014FF0000030BD7FEA645C1ABF16
:10061000194610467FEA655C1CBF0B46024650EA4D
:10062000013406BF52EA033591EA030F41F4002179
:1006300030BD00BF90F0000F04BF0021704730B5FF
:100640004FF4806404F132044FF000054FF00001D4
:1006500050E700BF90F0000F04BF0021704730B595
:100660004FF4806404F1320410F0004548BF40426A
:100670004FF000013EE700BF42004FEAE2014FEABF
:1006800031014FEA02701FBF12F07F4393F07F4F9A
:1006900081F06051704732F07F4208BF704793F09D
:1006A0007F4F04BF41F40021704730B54FF46074B0
:1006B00001F0004521F000411CE700BF50EA0102B3
:1006C00008BF704730B54FF000050AE050EA01025C
:1006D00008BF704730B511F0004502D5404261EBCC
:1006E00041014FF4806404F132045FEA915C3FF40D
:1006F000D8AE4FF003025FEADC0C18BF03325FEAAA
:10070000DC0C18BF033202EBDC02C2F1200300FA5A
:1007100003FC20FA02F001FA03FE40EA0E0021FA7F
:1007200002F11444BDE600BF80F0004002E000BFCB
:1007300081F0004142001FBF5FEA410392EA030FCC
:100740007FEA226C7FEA236C6AD04FEA1262D2EB16
:100750001363C1BFD218414048404140B8BF5B421B
:10076000192B88BF704710F0004F40F4000020F0B4
:100770007F4018BF404211F0004F41F4000121F0CA
:100780007F4118BF494292EA030F3FD0A2F1010214
:1007900041FA03FC10EB0C00C3F1200301FA03F152
:1007A00000F0004302D5494260EB4000B0F5000F75
:1007B00013D3B0F1807F06D340084FEA310102F134
:1007C0000102FE2A51D2B1F1004F40EBC25008BFE6
:1007D00020F0010040EA03007047490040EB0000B0
:1007E000013A28BFB0F5000FEDD2B0FA80FCACF1B1
:1007F000080CB2EB0C0200FA0CF0AABF00EBC250DE
:1008000052421843BCBFD0401843704792F0000FCB
:1008100081F4000106BF80F400000132013BB5E71E
:100820004FEA41037FEA226C18BF7FEA236C21D094
:1008300092EA030F04D092F0000F08BF08467047F9
:1008400090EA010F1CBF0020704712F07F4F04D1C7
:10085000400028BF40F00040704712F100723CBFDA
:1008600000F50000704700F0004343F0FE4040F404
:10087000000070477FEA226216BF08467FEA2363C2
:100880000146420206BF5FEA412390EA010F40F4AD
:10089000800070474FF0000304E000BF10F00043F9
:1008A00048BF40425FEA000C08BF704743F09643E0
:1008B00001464FF000001CE050EA010208BF7047FB
:1008C0004FF000030AE000BF50EA010208BF704782
:1008D00011F0004302D5404261EB41015FEA010C97
:1008E00002BF84460146002043F0B64308BFA3F18F
:1008F0008053A3F50003BCFA8CF2083AA3EBC25371
:1009000010DB01FA02FC634400FA02FCC2F120028F
:10091000BCF1004F20FA02F243EB020008BF20F0C6
:100920000100704702F1200201FA02FCC2F120022C
:1009300050EA4C0021FA02F243EB020008BF20EA21
:10094000DC70704753B94AB9002908BF00281CBFA2
:100950004FF0FF314FF0FF3000F0C2B9ADF1080C9D
:100960006DE904CE00F040F8DDF804E0DDE9022393
:1009700004B0704708B502460B4643EC172BB5EEA2
:10098000C07BF1EE10FA03D4BDE8084000F00CB8CB
:10099000B1EE477B51EC170B00F006F8404261EBDB
:1009A000410108BD000000009FED0B6B41EC170BEF
:1009B0009FED0B5B27EE066BBCEEC66BB8EE464BAD
:1009C000A4EE457BFCEEC77B16EE101A17EE900ADC
:1009D000704700BFAFF30080000000000000F03D52
:1009E000000000000000F0412DE9F047089D8E4610
:1009F00004468846002B4AD18A42174662D9B2FA89
:100A000082F64EB1C6F1200301FA06F820FA03F38C
:100A1000B74043EA0808B4404FEA174E1FFA87FC74
:100A2000B8FBFEF1230C0EFB118843EA084301FBDF
:100A30000CF29A4209D9FB1801F1FF3080F0EA80EC
:100A40009A4240F2E78002393B449A1AA3B2B2FBC1
:100A5000FEF00EFB102243EA024300FB0CFC9C4517
:100A600009D9FB1800F1FF3280F0D6809C4540F296
:100A7000D3803B44023840EA0140A3EB0C03002141
:100A80001DB1F3400022C5E90032BDE8F0878B427A
:100A900005D90DB1C5E9000100210846F5E7B3FA13
:100AA00083F1002946D1734502D3824200F20581C9
:100AB000841A6EEB030201209046002DE5D0C5E9B3
:100AC0000048E2E7002A00F09080B2FA82F6002E99
:100AD00040F0A4808A1A030C4FEA174E80B2BCB2D1
:100AE0000121B2FBFEFC0EFB1C2243EA024304FB85
:100AF0000CF29A4207D9FB180CF1FF3802D29A4245
:100B000000F2E080C4469B1AB3FBFEF20EFB1233E8
:100B100040EA034302FB04F49C4207D9FB1802F1AC
:100B2000FF3002D29C4200F2CA8002461B1B42EAFE
:100B30000C40A5E7C1F120068B4022FA06F71F43BF
:100B40000EFA01F420FA06F32EFA06FE4FEA1749D0
:100B5000234300FA01F81FFA87FCBEFBF9F01C0CD6
:100B600009FB10EE44EA0E4400FB0CFEA64502FA17
:100B700001F209D93C1900F1FF3A80F09C80A645AA
:100B800040F2998002383C44A4EB0E041FFA83FE25
:100B9000B4FBF9F309FB13444EEA044403FB0CFCD9
:100BA000A44508D93C1903F1FF3E80F08280A4459A
:100BB0007FD9023B3C4443EA0040A4EB0C04A0FB79
:100BC00002EC64457346E14662D35FD05DB1B8EB99
:100BD000030264EB090404FA06F622FA01F31E4349
:100BE000CC40C5E9006400214FE7B1FBF2FC010CE9
:100BF00041EA0E4180B240EA01423B4638463C465B
:100C0000B846BE462026B1FBF7F1A2EB080241EA46
:100C10000C4166E7014618E710462CE7C6F12002B2
:100C20002EFA02F3B740B14020FA02F24FEA174E13
:100C30000A43B3FBFEF8BCB20EFB1833110C41EAB9
:100C4000034108FB04F9B04089454FEA104380B2E4
:100C50003ED9791808F1FF3C01D289451FD8A1EB94
:100C60000901B1FBFEF909FB04F80EFB191192B260
:100C700042EA0142424529D2BA1809F1FF31C4D2F1
:100C80004245C2D2A9F102013A44BEE7F0459DD2E5
:100C9000BEEB02036CEB070C0138E14696E7A7EBCD
:100CA00009094944A8F1020CB1FBFEF909FB04F85B
:100CB000DBE773467FE7504666E70846FDE63B44C0
:100CC000023A33E7ACF1020C3B441CE749469CE78F
:100CD000A1EB0901C446B1FBFEF909FB04F8C4E726
:100CE000704700BFF0B500F1080783B0076061B33B
:100CF000054608460E46FFF753FB0F2804460190B1
:100D00000ED8012806D133786C602B7200233B5536
:100D100003B0F0BD68B900236C603B5503B0F0BD73
:100D2000002201A9284627F05DF8019B07462860AC
:100D3000AB6022463146384633F07BF9019C2F6880
:100D400000236C603B5503B0F0BD014820F0CBFBA5
:100D5000848C0308002873D02DE9F04F074683B038
:100D6000D7F80C80B8F1000F60D0D8F80C90B9F12A
:100D7000000F52D0D9F80CA0BAF1000F44D0DAF825
:100D80000C40002C37D0D4F80CB0BBF1000F2BD0A6
:100D9000DBF80C60FEB1F568B5B1EB686BB1D868F3
:100DA0000193FFF7D7FF019B202118469B68019311
:100DB00013F038FF019B002BF1D12846AD682021AC
:100DC00013F030FF002DE8D13046B668202113F033
:100DD00029FF002EDFD1DBF808502021584613F000
:100DE00021FF0DB1AB46D3E72046A468202113F0C4
:100DF00019FF002CC7D1DAF808402021504613F023
:100E000011FF0CB1A246BAE7D9F8084020214846A4
:100E100013F008FF0CB1A146ACE7D8F80840202138
:100E2000404613F0FFFE0CB1A0469EE73846BF686F
:100E3000202113F0F7FE002F92D103B0BDE8F08F10
:100E4000704700BF2DE9F04F83B00190002800F0FB
:100E50000E81019BD3F80C80B8F1000F00F0EF80F9
:100E6000D8F80C90B9F1000F00F0CF80D9F80CA0A1
:100E7000BAF1000F00F0AF80DAF80C40002C00F05F
:100E80009080E568002D75D0EE68002E5BD0F76885
:100E9000002F3DD0FA6802B3D0680092FFF7D2FF6E
:100EA000009A106902F11801D2F808B088420DD0FA
:100EB0009169013113F0B6FE009A2C21104613F00F
:100EC000B1FEBBF1000F08D05A46E5E72C211046D1
:100ED00013F0A8FEBBF1000FF6D1386907F1180234
:100EE000D7F808B090420CD0B969013113F09AFEDE
:100EF0002C21384613F096FEBBF1000F08D05F4658
:100F0000C8E72C21384613F08DFEBBF1000FF6D157
:100F1000306906F11803D6F808B098420CD0B169D0
:100F2000013113F07FFE2C21304613F07BFEBBF124
:100F3000000F08D05E46AAE72C21304613F072FE5F
:100F4000BBF1000FF6D1286905F11803AE6898428D
:100F50000AD0A969013113F065FE2C21284613F04F
:100F600061FE3EB135468FE72C21284613F05AFE2C
:100F7000002EF7D1206904F11803A56898420AD021
:100F8000A169013113F04EFE2C21204613F04AFED8
:100F90003DB12C4675E72C21204613F043FE002D71
:100FA000F7D1DAF810000AF11803DAF8084098428D
:100FB0000BD0DAF81810013113F034FE2C21504612
:100FC00013F030FE3CB1A24656E72C21504613F0F8
:100FD00029FE002CF7D1D9F8100009F11803D9F82F
:100FE000084098420BD0D9F81810013113F01AFEBE
:100FF0002C21484613F016FE3CB1A14636E72C21C1
:10100000484613F00FFE002CF7D1D8F8100008F175
:101010001803D8F8084098420BD0D8F818100131BE
:1010200013F000FE2C21404613F0FCFD3CB1A0461D
:1010300016E72C21404613F0F5FD002CF7D1019D59
:10104000286905F11803AC6898420AD0A9690131F2
:1010500013F0E8FD2C21284613F0E4FD3CB1019487
:10106000F7E628462C2113F0DDFD002CF7D103B064
:10107000BDE8F08F2DE9F04F83B00190002800F01B
:101080000E81019BD3F80C80B8F1000F00F0EF80C7
:10109000D8F80C90B9F1000F00F0CF80D9F80CA06F
:1010A000BAF1000F00F0AF80DAF80C40002C00F02D
:1010B0009080E568002D75D0EE68002E5BD0F76853
:1010C000002F3DD0FA6802B3D0680092FFF7D2FF3C
:1010D000009A106902F11801D2F808B088420DD0C8
:1010E0009169013113F09EFD009A2C21104613F0F6
:1010F00099FDBBF1000F08D05A46E5E72C211046B8
:1011000013F090FDBBF1000FF6D1386907F118021A
:10111000D7F808B090420CD0B969013113F082FDC4
:101120002C21384613F07EFDBBF1000F08D05F463E
:10113000C8E72C21384613F075FDBBF1000FF6D13E
:10114000306906F11803D6F808B098420CD0B1699E
:10115000013113F067FD2C21304613F063FDBBF124
:10116000000F08D05E46AAE72C21304613F05AFD46
:10117000BBF1000FF6D1286905F11803AE6898425B
:101180000AD0A969013113F04DFD2C21284613F036
:1011900049FD3EB135468FE72C21284613F042FD2C
:1011A000002EF7D1206904F11803A56898420AD0EF
:1011B000A169013113F036FD2C21204613F032FDD8
:1011C0003DB12C4675E72C21204613F02BFD002D58
:1011D000F7D1DAF810000AF11803DAF8084098425B
:1011E0000BD0DAF81810013113F01CFD2C215046F9
:1011F00013F018FD3CB1A24656E72C21504613F0DF
:1012000011FD002CF7D1D9F8100009F11803D9F815
:10121000084098420BD0D9F81810013113F002FDA4
:101220002C21484613F0FEFC3CB1A14636E72C21A8
:10123000484613F0F7FC002CF7D1D8F8100008F15D
:101240001803D8F8084098420BD0D8F8181001318C
:1012500013F0E8FC2C21404613F0E4FC3CB1A0461E
:1012600016E72C21404613F0DDFC002CF7D1019D40
:10127000286905F11803AC6898420AD0A9690131C0
:1012800013F0D0FC2C21284613F0CCFC3CB1019487
:10129000F7E628462C2113F0C5FC002CF7D103B04B
:1012A000BDE8F08F2DE9F8438468071D64B30E464E
:1012B0009146B84665694A463146A94528BF2A463F
:1012C0001AB1206931F02CF808B9A5EB0900002803
:1012D000D4E902321BDBA0461C46002CEAD147456C
:1012E00012D0D8F814404A46A14528BF22462AB158
:1012F0003046D8F8101031F013F808B9A9EB040003
:1013000017EA200738BF47463846BDE8F883144639
:10131000002CCFD1E3E700BF2DE9F04F81468FB01D
:10132000B8480C46494607F001FB4568002D00F01F
:1013300022814946B34807F0F9FA0268002A00F012
:101340001881DFF8E4B223464FF400710095584647
:10135000CDE90129AC4A30F0DDFEB0F5007F80F028
:10136000ED80AA4E5946AA4832F05BFE0436B468B6
:10137000B44200F0C9810027A64DDFF89482DFF85F
:10138000D4A2CDF81490D4E90492022A00F0A680E9
:10139000092A5CD1A0494846049230F0C1FF0028D8
:1013A0005DD0049A48469D4930F0BAFF002856D0D7
:1013B000D4ED0A7A4B4680212846B6EEE77AF4EE61
:1013C000477AB7EEE76AF1EE10FA8DED006B14BFC5
:1013D000934A944A30F09EFE7F284ED82846FEF766
:1013E000DFFF8146002F68D18F48FEF7D9FF09F152
:1013F00002020244FF2A60D8DFF82C924846FEF72A
:10140000CFFF2946484431F06FF8BAF80030038026
:10141000204615F03CF8B0420446B4D182487D2500
:10142000FEF7BEFF034680485B4403F8015CFEF70D
:10143000B7FF7E4B411C1C882BF800407A480CF00B
:10144000FFFB002F40F0C5800FB0BDE8F08F0A2AE7
:101450004FD17749484630F063FF0028A8D194ED7A
:101460000A7A4B46734A8021B7EEC77A28468DED3B
:10147000007B30F04FFE7F28B0D9DDF8149080213A
:10148000644E0AAD4B466C4A304630F043FE30465F
:101490000895FEF785FF0F280446079000F20D819E
:1014A000012840F0058133788DF828302946002244
:1014B00009946FF43C630A5571E04046FEF770FFF3
:1014C00009EB0002B2F5007F1ED209F102030344CA
:1014D000FF2B00F2D0800127C1468FE799F800204A
:1014E000492A7FF465AF99F80120442A7FF460AF60
:1014F0008EE7072A7FF45CAF5049484630F010FF72
:1015000000287FF455AFAAE7DDF814908021414C04
:101510000AAD4B46484A204630F0FCFD204608956F
:10152000FEF73EFF0F280646079026D8012840F018
:10153000D38023788DF8283029462CE0354E4B4651
:101540003D4A802130460AAD30F0E4FD3046089532
:10155000FEF726FF0F28044607907DD801284CD1BE
:1015600033788DF82830294600220994344B0A55E7
:1015700015E0344AE5E6334DDBE6002207A908A86A
:1015800026F030FC079B08900A933246214932F03E
:1015900050FDDDE9076100222B4B09968A5508981A
:1015A0004FF40071294A0090294830F0B3FD2848D3
:1015B000FEF7F6FE014626480CF042FB0898A842CA
:1015C0003FF442AF0A99013113F02CFB0FB0BDE894
:1015D000F08F0F4E3046FEF7E3FE034630463344AD
:1015E00003F8015CFEF7DCFE03463046591CF4525A
:1015F0000FB0BDE8F04F0CF023BB0028B3D0284655
:1016000032E000BF6C100024B88C0308EC0F0024FB
:10161000BC0500243C050024308D03083C8D0308E4
:10162000688D0308748D0308BC0700242490030808
:10163000488D03085C8D0308E48C0308548D03086F
:1016400044F4FFFF5C9503083EF4FFFF048D03089C
:10165000BC090024AC8D0308002207A908A826F0C5
:10166000C1FB079B08900A932246314932F0E1FC06
:10167000DDE9074178E7DDF8149080212C4E0AADB2
:101680004B462C4A304630F045FD30460895FEF773
:1016900087FE0F28044607902DD8012821D13378E2
:1016A0008DF82830294600220994234B0A5576E705
:1016B00000283FF4FBAE284607E0002207A908A84F
:1016C00026F090FB079B08900A932246184932F0B7
:1016D000B0FCDDE90741EAE600283FF42DAF2846DB
:1016E00053E70028DED028462246114932F0A1FCFB
:1016F000DDE90741D7E7002207A908A826F072FB19
:10170000079B08900A93EFE75846FEF749FE034609
:101710007D2258465B4403F8012CFEF741FE074A40
:10172000034658461288591C2BF8032060E700BF77
:101730003C050024808D030843F4FFFF2490030838
:1017400010B5096882B0094C0346094A0091204649
:101750004FF4007130F0DEFC2046FEF721FE01461A
:10176000204602B0BDE810400CF06ABABC09002463
:10177000048D03082DE9F04FD1E900A383B0814621
:101780009E100AEB0304002E40F3D3804FEA860B31
:1017900055460AEB860812E068782FF06BFC0028AB
:1017A00067D0A8782FF066FC002868D0E8782F1D55
:1017B0002FF060FC002864D0474566D03D4628786D
:1017C0002FF058FC0028E7D115E014F8020C2FF098
:1017D00051FC00284FD014F8030C2FF04BFC0028CC
:1017E0004BD014F8040C2FF045FC00284BD0013EE0
:1017F000A4F1040453D014F8010C2FF03BFC002892
:10180000E3D1AC4215D9641B09F1080000220F2C6A
:101810000194C9E9000217DC012C1ED12B78C9F80C
:10182000044089F8083000230355484603B0BDE85A
:10183000F08F002309F10802484689F80830C9E909
:10184000002303B0BDE8F08F01A9484626F0CAFA8C
:10185000019BC9F80000C9F808302246294632F039
:10186000E8FB019CD9F800000023C9F804400355A7
:10187000DBE70135BFE7013CC3E7023CC1E70235C6
:10188000B9E70335B7E7033CBBE7A4EB0803022B3A
:1018900041D0032B13D0012B32D02546ABE7A4EB6C
:1018A0000A03022B24D0032B1BD0012B05D114F8E3
:1018B000010C2FF0DFFB0028A3D05446A1E71AF853
:1018C0000B002FF0D7FB20B378782FF0D3FB002844
:1018D0005ED0B8782FF0CEFB00284FD02546002EE2
:1018E00089D114F8010C2FF0C5FB002889D0013CE8
:1018F00014F8010C2FF0BEFB002882D0013CD6E783
:101900001AF80B002FF0B6FB00280CBF4546254601
:1019100071E745466FE71AF80B002FF0ABFB002884
:10192000F7D098F801002FF0A5FB0028B5D10535B8
:1019300061E7022B06D0032B19D0012B0ED02546D0
:1019400054465EE79AF800002FF094FBF0B19AF845
:1019500001002FF08FFBB0B12546C9E79AF80000CF
:101960002FF088FB00280CBF554625469FE79AF8C4
:1019700000002FF07FFB80B15746A5E7BD1C002E6D
:101980007FF439AFADE70AF10105B1E75546AFE79E
:101990007D1C002E7FF42FAFA3E75546A1E700BFC3
:1019A00030B5024689B00D4602A81146FFF7E2FEA7
:1019B000039C54B9029804AB984203D004990131B6
:1019C00013F030F9204609B030BD162300220F492C
:1019D00002A826F004FD013002D002980024EAE7B4
:1019E0000024102201A9029801942FF053FA034613
:1019F000DDE901209042DED012782AB9B3F5803FAC
:101A000002D201242B80D6E70024D4E7B08D03084E
:101A100070B508238AB00D4600222749064626F0F5
:101A2000C5FC30B1294630460AB0BDE8704006F02A
:101A300019BF04460DF106012846ADF80640FFF730
:101A4000AFFF002836D0BDF806304FF6FF72934244
:101A500022D00133194A052102A806AD30F05AFB05
:101A600002A80495FEF79CFC012804461DD0B0B9DD
:101A700004F128030022059430466B4404A903F8BE
:101A8000102C06F0EFFE049B0446AB4204D00699EE
:101A90001846013113F0C6F820460AB070BD024660
:101AA00002A9284632F0C5FAE2E79DF808308DF821
:101AB0001830DDE70446EFE7C88D0308D48D03082E
:101AC0002DE9F04F2DED028BADF5137D0C4605464B
:101AD000114606A81E46FFF74DFE079A3AB1162397
:101AE0000022B94906A826F07AFC01304DD02168C1
:101AF0000DF148089F9A0CAC0EAF33684046009138
:101B00004FF4007105AECDE90152B04A30F002FB4E
:101B100040462760FEF744FC0F280546306000F27F
:101B20009680012840F08E8098F800303A46237263
:101B3000002365605355A3F6B93322684FF4007152
:101B40000092A348A34A30F0E5FAA148FEF728FC2A
:101B500001469F480CF074F82068B84203D0A16891
:101B6000013113F05FF89FED9C8A069808AB98420C
:101B700003D00899013113F055F8B0EE480A0DF57D
:101B8000137DBDEC028BBDE8F08F10220023069878
:101B90000DEB020104932FF07DF9049B069A074692
:101BA000934263D093F80090B9F1000F5ED1B0F585
:101BB000803F80F0C3809E9B002B00F02C810DF1B4
:101BC000480814AED3F808B085B2C8F80060BBF17D
:101BD000000F00F05C8158460CACFEF7E1FB0F28CB
:101BE0008246206067D8012840F004819BF80030CD
:101BF000324688F808300023C8F804A002F80A30FA
:101C00009E9B1C7B462C00F0BF80D8E900A9B9F14F
:101C1000090F68D0B9F10A0F40F0F0804A466F49C9
:101C2000504630F07DFB00286AD007EE905AB8EE9F
:101C3000678AB24599D0D8F808105046013112F0A1
:101C4000F1FF92E7002840F03E813A4670E700221B
:101C50003146204626F0C6F833682060A3602A4645
:101C6000414632F0E6F93568226861E721680DF1F6
:101C700048089F9A0CAC0EAF3368404600914FF471
:101C8000007105AECDE90152504A30F043FA4046AA
:101C90002760FEF785FB0F28054630603FD80128F6
:101CA0001CD0002840F0F1803B46002265605A5568
:101CB0004B4B226842E74A462146404626F092F8BE
:101CC0002368C8F80000C8F808305246594632F078
:101CD000B0F9D4F800A0D8F800208CE798F80030CC
:101CE00023723B46E1E74A463E49504630F018FB36
:101CF00030B14A463C49504630F012FB002894D19E
:101D0000422C58D0492C4CD13FB29E9B07EE907A82
:101D100093ED048AF8EEE77A27EE888A89E70022B5
:101D20003146204626F05EF833682060A3602A46DC
:101D3000414632F07EF935682368B6E701950DF12A
:101D4000480821680EAF9F980CAC336805AE274A4F
:101D50000290404600914FF4007130F0DBF94046AC
:101D60002760FEF71DFB0F28054630607ED801284E
:101D700077D0002840F0A3803A4600236560535591
:101D8000A3F6BA332268D9E63BB2D8F800A008EE31
:101D9000103A9E9BB8EEC88AD3ED047A28EE278AC3
:101DA00047E707EE905A9E9BB8EE678AD3ED047A18
:101DB00028EE278A3DE7F7EE007A9FED0D7A002D99
:101DC00007FE278A35E700BFB08D0308E48D0308BE
:101DD000BC090024048D030820BCBE4C488D0308B8
:101DE0003CF4FFFF308D03083C8D0308248E03086C
:101DF0000000000000284AD0304666E7B9F1070F1E
:101E00007FF413AF4A463149504630F089FA002832
:101E10003FF476AF09E703900DF1480821680EAF53
:101E20009F980CAC336805AE294A00914FF40071BD
:101E3000CDE90150404630F06DF940462760FEF78D
:101E4000AFFA0F28054630602AD8012823D0002891
:101E500037D13A46002365605355A3F6BB33226859
:101E60006CE698F800303A46237286E74A463146D7
:101E7000204625F0B7FF33682060A3602A4641461C
:101E800032F0D7F83568226877E738464FE73246B0
:101E90004FF0000AAFE698F800303A462372D9E7CF
:101EA0009E9A3146204625F09DFF33682060A3604E
:101EB0002A46414632F0BDF835682268CAE73846FE
:101EC000DCE73846F4E73846C9E600BF548D03081E
:101ED000608E030870B5044608460D46FEF760FAAA
:101EE0006668864201D0002070BD46B13246294660
:101EF000206830F015FAB0FA80F0400970BD01207A
:101F000070BD00BF2DE9F04FD0E900740D46994631
:101F1000E11B794B9346794AC91085B003FB01F167
:101F2000914200F0E580EB1BA7428046009300F051
:101F3000B680B1EB410F4FEA410000F282800028E9
:101F400040F0CF80182682460190DBF80030E91B74
:101F5000D9F800200AEB010BA2EB030900220BF1D8
:101F60000800B9F10F0FCDF80C904AF80100CBF83A
:101F7000042000F2A180B9F1010F00F09980B9F1BD
:101F8000000F40F0A5800023BD42CBF8049000F87C
:101F900009301CD00AF1080307F108093E4643F84E
:101FA000083CD6E90012494567D0B068183609F1F7
:101FB0001809B542186043E9021203F11803EED183
:101FC000A5F11806F61B26F0070630365644A54242
:101FD00028D006F1080305F10801A946A346D9F85F
:101FE0000020D9F804408A4243F8083C33D043F833
:101FF000082C09F1180959F8102C1831CB4543E980
:10200000014203F11803EAD15C463D4A631B183BC9
:10201000DB0802FB03F323F06043013303EB4303CC
:1020200006EBC3062FB1D8F808103846C91B12F0CA
:10203000F9FD019BC8E900A6C8F8083005B0BDE865
:10204000F08F304E304612F0FEFD8319824600F1CB
:102050001806019379E709F118091846621C0091E6
:1020600031F0E7FF00990346D94501F1180140F826
:10207000044C03F11803B2D1C6E7013249461846B1
:10208000183631F0D6FF56F8142C0346AE4209F14B
:10209000180940F8042C03F1180380D190E70131AE
:1020A000CFD2914228BF114601EB4101CE00C9E7D2
:1020B0001B788BF8083066E703A95846009325F093
:1020C00091FEEB1B039A4AF80300009BCBF8082013
:1020D0004A46194631F0ADFFDDF80C90DBF8000000
:1020E00051E7904228BF104600EB4000C600A9E728
:1020F00005481FF0FBF900BFABAAAAAA5555550524
:10210000ABAAAA0AF8FFFF7FAC8E030800232DE9D3
:10211000F04F0C6887B0064683600F461546C0E94D
:10212000003348682044A04200F0EC80194600F1DA
:10213000FF3C631E13F8012FAA4208BF01319C45E2
:10214000F8D10131724B994200F2DE80002940F053
:102150008D8089464FF000080394A0EB040C039B8C
:102160004FEAAC020493002A62DD04EB82020BE02A
:102170006378AB4274D0A378AB4273D0E378AB42C0
:1021800072D00434A24251D02378AB42F0D14945F9
:10219000039426D0DDF810B009F10800C9F80480D6
:1021A000A4EB0B0AC9F80000BAF10F0FCDF814A088
:1021B00029D8BAF1010F22D19BF8003089F80830F4
:1021C000C9F804A000F80A80736818337360D7E96F
:1021D0000003184484420ED00134D6E901910394DF
:1021E000BBE703AB304604AAFFF78CFED7E9000338
:1021F00018448442F0D1304607B0BDE8F08FBAF100
:10220000000FDDD009E0002205A9484625F0EAFDCF
:10221000059BC9F80000C9F808305246594631F00C
:1022200008FFDDF814A0D9F80000C9E7A0EB040C02
:10223000BCF1020F0BD0BCF1030F04D0BCF1010FB5
:1022400009D00446A3E72378AB42A0D00134237819
:10225000AB429CD001342378AB4218BF044696E7CA
:10226000013494E7023492E7033490E701EB410133
:10227000CC00204612F0E7FC8146D6E900BAD345EF
:1022800017D000F108030BF10801D84643F8083CC9
:10229000D8E9000288421ED008F11808183143E935
:1022A000020258F8102CC24503F1180343F8182C09
:1022B000ECD1BBF1000F05D0B1685846A1EB0B0182
:1022C00012F0B0FC09EB0401D7E90040C6E900991F
:1022D0002044B1603EE701321846019108F1180828
:1022E00031F0A7FE58F8142C03460199C24540F876
:1022F000042C01F1180103F11803C7D1BBF1000F41
:10230000DAD1DFE71824B4E702481FF0EFF800BF86
:1023100055555505C88E03082DE9F04F8C6883B0DC
:102320008B4681460192002C4AD0D2E9008A666928
:10233000554627694046B245394628BF35462A46A4
:1023400015B12FF0EDFF08B9AAEB060000281ADB43
:10235000E2680AB11446EAE7A3468DB12A4641462F
:1023600038462FF0DDFF58B100284FF000034846F3
:10237000B4BFC9E9003BC9E9004303B0BDE8F08F31
:10238000A6EB0A00F0E7A268002AE3D1DBF80C30E4
:10239000A3420ED02046A34614F07DF8019B0446CC
:1023A000D0E90476D3E9008AB245554628BF3546C0
:1023B000D3E700234846C9E9003403B0BDE8F08FF5
:1023C0000C1DDBF80C30A342E4D1F2E72DE9F04F0D
:1023D000064685B02C200F46904612F034FC00F1E2
:1023E0001809044600F1100AC0F810903846FDF7AD
:1023F000D7FF0F280546029035D801281FD13B781A
:1024000049460DF1080B2376002365615246584674
:102410004B553146D8F80030A362FFF77DFFDDE968
:10242000023595B183B30120331D2A46214614F0AD
:1024300034F873690133736105B0BDE8F08F00288B
:102440003AD149460DF1080BDEE72069814503D0FA
:10245000A169013112F0E6FB2C21204605B0BDE850
:10246000F04F12F0DFBB0DF1080B00225046594629
:1024700025F0B8FC029B2061A3612A46394631F061
:10248000D8FD029D2169BFE7331D9D4212D0D4F8CB
:1024900014806F694246B84528BF3A4632B129696F
:1024A000206901932FF03CFF019B08B9A8EB0700BE
:1024B000C00FBAE70120B8E748460DF1080BDCE78A
:1024C0002DE9F04F064685B02C200F46904612F0BD
:1024D000BAFB00F11809044600F1100AC0F8109088
:1024E0003846FDF75DFF0F280546029035D80128D4
:1024F0001FD13B7849460DF1080B23760023656117
:10250000524658464B553146D8F80030A362FFF783
:1025100003FFDDE9023595B183B30120331D2A465F
:10252000214613F0BAFF73690133736105B0BDE84A
:10253000F08F00283AD149460DF1080BDEE72069FB
:10254000814503D0A169013112F06CFB2C2120469A
:1025500005B0BDE8F04F12F065BB0DF1080B00228D
:102560005046594625F03EFC029B2061A3612A4655
:10257000394631F05EFD029D2169BFE7331D9D4262
:1025800012D0D4F814806F694246B84528BF3A4645
:1025900032B12969206901932FF0C2FE019B08B96D
:1025A000A8EB0700C00FBAE70120B8E748460DF1D5
:1025B000080BDCE72DE9F04F064685B02C200F46CE
:1025C000904612F040FB00F11809044600F1100A91
:1025D000C0F810903846FDF7E3FE0F28054602903C
:1025E00035D801281FD13B7849460DF1080B2376D9
:1025F00000236561524658464B553146D8F80030A5
:10260000A362FFF789FEDDE9023595B183B30120AE
:10261000331D2A46214613F040FF7369013373616D
:1026200005B0BDE8F08F00283AD149460DF1080BFE
:10263000DEE72069814503D0A169013112F0F2FA89
:102640002C21204605B0BDE8F04F12F0EBBA0DF199
:10265000080B00225046594625F0C4FB029B20611E
:10266000A3612A46394631F0E4FC029D2169BFE7A7
:10267000331D9D4212D0D4F814806F694246B8458C
:1026800028BF3A4632B12969206901932FF048FEEC
:10269000019B08B9A8EB0700C00FBAE70120B8E713
:1026A00048460DF1080BDCE72DE9F04389B0D0F87E
:1026B000008004AF0297002900F0A3800646084678
:1026C0000D46FDF76DFE0F280446019058D80128ED
:1026D00052D12B783A468DF81030002303944046AF
:1026E0001355DDE902422146FEF7DCFDBC4280467F
:1026F00004D004992046013112F094FA336804336F
:10270000984536D02C2012F09EFA00F118070446A6
:1027100000F1100907612846FDF742FE0F28064622
:1027200002904DD8012848D12B7823763B460021D2
:102730006661374D4A46995502A8D8F8283029468F
:10274000A362FFF7E9FDDDE9022646B32B1DF01A6F
:10275000B0FA80F04009002A18BF40F001000028BC
:102760003DD02C4B3246214613F097FE6B69013366
:102770006B6109B0BDE8F083002847D13A46ACE769
:10278000002201A902A825F02DFB019B02900493D1
:102790002246294631F04DFCDDE901429DE72069E2
:1027A000874203D0A169013112F03CFA2C21204666
:1027B00009B0BDE8F04312F035BA28BB3B46B6E796
:1027C000002202A9484625F00DFB029B2061A3616F
:1027D0003246294631F02DFC029E2369A7E7D4F842
:1027E000148077694246B84528BF3A462AB1316914
:1027F00020692FF095FD034608B9A8EB0703D80F11
:10280000AFE705481EF06FFE3846E1E73846BFE700
:10281000EC0F0024F00F0024848C03082DE9F84FFE
:102820001F460B1D0E4605469A424CD01446D7E96A
:1028300000A8D2E904B9C8451ED8B8F1000F7ED06F
:102840004246594650462FF06BFD08B9A8EB0900E7
:10285000002853DBC845424628BF4A468AB158463D
:1028600051462FF05DFD60B100280EDB0023C5E965
:1028700000432846BDE8F88FB9F1000F3BD04A4627
:10288000DFE7A9EB08000028F0DA3369A3422CD077
:10289000204613F0FCFD8146D0E9041BC3455A468F
:1028A00028BF42461AB150462FF03AFD08B9A8EBAE
:1028B0000B00002851DB28463A463146FFF72CFD35
:1028C0002846BDE8F88F4B69002BF4D00C69D7E996
:1028D0000018D4E90409C1454A4628BF42465AB304
:1028E0002FF01EFD40B30028E5DA00232846C5E995
:1028F0000034BDE8F88FB8F1000FC6DAF368A342E0
:1029000015D0204613F0C7FD8146D0E9040BC3451E
:102910005A4628BF42461AB151462FF001FD08B968
:10292000ABEB08000028C6DAD9F80C30D3B1284642
:10293000C5E90044BDE8F88FA9EB0800D3E7C9F169
:102940000003002B9DDACB689A42F0D0204613F0AA
:10295000A2FD8146D0F814B0E2E7E3682BB1C5E9E7
:10296000009986E7C5E9003983E7C5E9003480E7C7
:102970002DE9F04F846885B081460F4600F1040AC6
:10298000D1E9006B74B3D04665695A463146AB4510
:1029900028BF2A461AB120692FF0C2FC08B9A5EB5E
:1029A0000B00002804DBA368A0462BB11C46EBE714
:1029B000E368002BFAD14446A24514D065695D4511
:1029C0002A4628BF5A4622B1304621692FF0A8FC7A
:1029D00008B9ABEB0500002805DB04F1280005B0C1
:1029E000BDE8F08F54462C2012F02DF93A4600F144
:1029F0001808054652F8086B00F11003C0F8108063
:102A000096423FD000210661D7F804B0B8687960DB
:102A1000397200213A602246A86102A8A96249469B
:102A2000C5F814B0FFF7FAFEDDE90247D7B1AAEB0B
:102A30000700B0FA80F04009002C18BF40F00100F8
:102A400000283CD053463A4629462C4613F025FD33
:102A5000D9F8143004F128000133C9F8143005B056
:102A6000BDE8F08FB04504D0A9693046013112F0BD
:102A7000D9F828462C2112F0D5F804F1280005B029
:102A8000BDE8F08FD7F804B03146404601930BF112
:102A9000010231F0CEFA002122463E60796002A8A0
:102AA00039720021019BA9624946C5F814B0FFF7AD
:102AB000B5FEDDE90247002FDBD04646B7E77C696B
:102AC0005A46A34528BF224622B1304639692FF025
:102AD00027FC08B9ABEB0400C00FB3E72DE9F04FBA
:102AE000846885B081460F4600F1040AD1E9006B85
:102AF00074B3D04665695A463146AB4528BF2A466D
:102B00001AB120692FF00CFC08B9A5EB0B000028C6
:102B100004DBA368A0462BB11C46EBE7E368002B5F
:102B2000FAD14446A24514D065695D452A4628BFBE
:102B30005A4622B1304621692FF0F2FB08B9ABEBBF
:102B40000500002805DB04F1280005B0BDE8F08F82
:102B500054462C20A04612F076F800F118060446E0
:102B60000661D7E9003500F110070F2D029507D84F
:102B7000012D51D11B780376B4460DF1080B12E0FC
:102B80000DF1080B002238460193594625F02AF929
:102B9000029A019B2061A2612A46194631F049FA46
:102BA000029DD4F810C0002165613B4642460CF8F6
:102BB000051000215846A1624946FFF72FFEDDE9C6
:102BC0000275C5B1AAEB0500B0FA80F04009002FEC
:102BD00018BF40F0010028B353462A46214613F09F
:102BE0005CFCD9F8143004F128000133C9F8143022
:102BF00005B0BDE8F08F2069864203D0A16901319C
:102C000012F010F820463C462C2112F00BF804F18B
:102C1000280005B0BDE8F08F002DADD030460DF195
:102C2000080BB9E767696E693A46B74228BF324672
:102C300022B1296920692FF073FB00B9B81BC00FBE
:102C4000CAE700BF2DE9F04F174685B006462C2095
:102C50009846894611F0F7FF044600F1100AD7E9BB
:102C6000003500F118070F2D029507613DD8012DA1
:102C700026D11B78BC460DF1080B03760021656157
:102C800053464A460CF805105846D8F80010A16281
:102C90003146FFF7C3FDDDE90258B8F1000F15D04A
:102CA000002D36D00120331D4246214613F0F5FB9E
:102CB0002546736928460133736105B0BDE8F08F7E
:102CC000002D3ED1BC460DF1080BD7E720698742A5
:102CD00003D0A169013111F0A5FF20462C2111F08C
:102CE000A1FF284605B0BDE8F08F0DF1080B0022CA
:102CF00050460193594625F075F8029A019B2061D0
:102D0000A2612A46194631F094F9029DD4F810C008
:102D1000B4E7331D984512D06769D8F814503A4685
:102D2000AF4228BF2A463AB1D8F810102069019363
:102D30002FF0F6FA019B00B9781BC00FB4E7012011
:102D4000B2E738460DF1080BDBE700BF2DE9F04F85
:102D5000846883B08046894600F1040B0192D1E972
:102D6000006A64B35F46656952463146AA4528BF8A
:102D70002A461AB120692FF0D3FA08B9A5EB0A0048
:102D8000002804DBA26827462AB11446EBE7E26874
:102D9000002AFAD13C46A34512D065695246AA459D
:102DA00028BF2A4622B1304621692FF0B9FA08B966
:102DB000AAEB0500002803DB03B0BDE8F08F5C46FA
:102DC000019B4A4621464046FFF73CFF03B0BDE861
:102DD000F08F00BF2DE9F04F8C6883B08B468146A1
:102DE0000192002C4AD0D2E9008A666955462769CB
:102DF0004046B245394628BF35462A4615B12FF020
:102E00008FFA08B9AAEB060000281ADBE2680AB1BB
:102E10001446EAE7A3468DB12A46414638462FF0CC
:102E20007FFA58B100284FF000034846B4BFC9E903
:102E3000003BC9E9004303B0BDE8F08FA6EB0A00F0
:102E4000F0E7A268002AE3D1DBF80C30A3420ED0F1
:102E50002046A34613F01FFB019B0446D0E90476ED
:102E6000D3E9008AB245554628BF3546D3E700234B
:102E70004846C9E9003403B0BDE8F08F0C1DDBF80B
:102E80000C30A342E4D1F2E72DE9F84F1F460B1DA9
:102E90000E4605469A424CD01446D7E900A8D2E91E
:102EA00004B9C8451ED8B8F1000F7ED04246594635
:102EB00050462FF035FA08B9A8EB0900002853DB7B
:102EC000C845424628BF4A468AB1584651462FF067
:102ED00027FA60B100280EDB0023C5E9004328462D
:102EE000BDE8F88FB9F1000F3BD04A46DFE7A9EB08
:102EF00008000028F0DA3369A3422CD0204613F0F2
:102F0000C6FA8146D0E9041BC3455A4628BF42464B
:102F10001AB150462FF004FA08B9A8EB0B000028AC
:102F200051DB28463A463146FFF754FF2846BDE8B4
:102F3000F88F4B69002BF4D00C69D7E90018D4E95D
:102F40000409C1454A4628BF42465AB32FF0E8F962
:102F500040B30028E5DA00232846C5E90034BDE87F
:102F6000F88FB8F1000FC6DAF368A34215D02046F7
:102F700013F091FA8146D0E9040BC3455A4628BFA5
:102F800042461AB151462FF0CBF908B9ABEB080015
:102F90000028C6DAD9F80C30D3B12846C5E9004478
:102FA000BDE8F88FA9EB0800D3E7C9F10003002BB7
:102FB0009DDACB689A42F0D0204613F06CFA814635
:102FC000D0F814B0E2E7E3682BB1C5E9009986E7D1
:102FD000C5E9003983E7C5E9003480E72DE9F04F02
:102FE000154685B006462C200F4611F02CFE2A68A7
:102FF00000F11808044600F11009C0F81080D2E969
:1030000000B50F2D02953AD8012D23D19BF8003041
:10301000C4460DF1080A0376002165613A464B4625
:103020000CF805105046A1623146FFF72DFFDDE98F
:103030000257AFB1002D34D00120331D3A4621464E
:1030400013F02BFA2546736928460133736105B0E6
:10305000BDE8F08F002D3CD1C4460DF1080ADBE736
:103060002069804503D0A169013111F0DBFD2046C4
:103070002C2111F0D7FD284605B0BDE8F08F0DF1E9
:10308000080A00224846514624F0ACFE029B20610B
:10309000A3612A46594630F0CCFF029DD4F810C0F7
:1030A000BAE7331D9F4212D0D4F814807D6942469E
:1030B000A84528BF2A4632B13969206901932FF00B
:1030C0002FF9019B08B9A8EB0500C00FB6E7012056
:1030D000B4E740460DF1080ADBE700BF2DE9F04FE9
:1030E000902091B011F0AFFDAB4A0546AB4BAC4E12
:1030F000AC4C05F1080705F1200CA9462F60AB4642
:10310000C5F818C003CA0822A860E9606A60EA61CD
:1031100005F1380203CB2A6305F150026962318858
:10312000A14B2987B178286285F83A1003211868E5
:10313000002326886963A478AA640422E96405F15F
:1031400068012B7485F8283085F83B3085F85240AB
:1031500005F19004A86685F85330A046A5F85060A4
:10316000C5E9181285F86C3085F884308F4BEA6712
:10317000186805F180030097C5F88000AB678C4B99
:103180009E68D9E9005A002E00F01A811F1D74694B
:1031900052462946A24528BF22461AB130692FF06F
:1031A000BFF808B9A4EB0A00002804DBB36837466F
:1031B0002BB11E46EBE7F368002BFAD13E467D4B60
:1031C0009E4200F0FE8074695246A24528BF224606
:1031D00022B1284631692FF0A3F808B9AAEB040000
:1031E0000028C0F2EE8009F118094FF0000AC1452D
:1031F000C6F828A0C3D170484446009F05F08CFB58
:1032000080466D4805F08AFB5D46804500F01681DA
:1032100006ABD8F8045008F120080493CDE9000B60
:10322000CDE90274002D00F081802846FDF7B8F842
:103230000F2804460A9000F2EA80012840F0F68048
:103240002B788DF8183006AB059403F804A0584B82
:10325000049FD3F80890059EB9F1000F4ED04C465C
:1032600003F1040B6569324639462069AE4228BF36
:103270002A4612B12FF054F800B9A81B0028D4E94F
:10328000023203DB33B1A3461C46EBE71346002AA8
:10329000FAD15C46474B9C4230D03246D4E9041503
:1032A000AE4228BF2A461AB138462FF039F800B985
:1032B000701B002822DB414A0CAB07CA03C31A70FB
:1032C0008DF839A0D8F80440C4B1C346D4E9040548
:1032D000092D2ED8002D3AD1E468002CF6D1C34533
:1032E0000CD0DBE90414082C33D909220CA82FF0E8
:1032F00017F808B9C4F1090000282DDA06AB9F427F
:1033000004D006993846013111F08CFC08F13C03D9
:10331000009A08F11C08424500F08D80984606ABE3
:1033200058F81C5C0493002D7FF47FAF06AB00249B
:103330008AE709220CA92EF0F3FF08B9A5F10900CC
:103340000028C9DBA346A468002CBFD1C7E72A46E2
:10335000F0E7002C40F08B80DBED0A7AFDEEE77A97
:1033600017EE903A0B2BC9D1124DD9F814403246C2
:103370003946D9F81000A64228BF224612B12EF0D5
:10338000CFFF00B9A01B0028D9E9023222DB2BB302
:103390004D469946E9E700BFD88E0308E48E03083E
:1033A000F08E0308F48E0308F88E0308008F0308DC
:1033B000BC0F0024C00F00246C100024308D0308C3
:1033C000314E31460AAA3148CDF82890FFF706FE63
:1033D000064608E71346002ADBD1A9462A4B994541
:1033E00047D0D9F814403246A64228BF22462AB117
:1033F000D9F8101038462EF093FF00B9301B002882
:1034000037DBD9F828300133C9F8283076E704A82B
:1034100000220AA924F0E6FC0A9B049006932246A7
:10342000294630F006FE0A9C049B0DE700283FF475
:103430007DAF06A8F3E7DDE90157039C2E4657F858
:10344000080C87420ED0B16818361837013111F0D8
:10345000E9FBB442F3D19021284611B0BDE8F04F0A
:1034600011F0E0BB18361837B442E8D1F3E7224632
:103470003CE704AB49460AAA04480A93FFF7AEFDAD
:10348000049F8146BDE700BFC00F0024BC0F00248D
:103490002DE9F04F154687B007462C200E4611F057
:1034A000D2FB2D6800F1180A0446A846C0F810A007
:1034B00058F8083B434500F0C9800361AB6883615D
:1034C0006B6807F1040BC5F8008063610023B34506
:1034D0006B602B723546A36204F1100302937BD01C
:1034E0002269D4F814907369009299453269019267
:1034F0002CD8B9F1000F00F0B0804A460393DDE903
:1035000000012EF00DFF039B08B9A9EB0300002872
:103510007FDB99454A4628BF1A46DAB10393DDE9B5
:1035200000102EF0FDFE039BA0B1002816DB2069E1
:10353000824503D0A169013111F074FB20462C2192
:1035400011F070FB284607B0BDE8F08F002B5DD06E
:103550001A46D3E7A3EB09000028E8DA3A69039397
:10356000B24200F0A980304612F091FF4A468046F0
:10357000039BD0E90415A94528BF2A46002A00F07C
:103580009E80009803932EF0CBFE039B08B9A9EB15
:1035900005000028C0F28580029A394604A8FFF78A
:1035A00019FCDDE90458B8F1000FC0D0281E18BF7F
:1035B0000120C34508BF40F0010000285AD05B46F7
:1035C00042462146254612F068FF7B6928460133B2
:1035D0007B6107B0BDE8F08F7B69002BDCD0D7F8AA
:1035E0001080D4E90439D8E9040600934E453246E8
:1035F00028BF4A46002A58D019462EF091FE08B935
:10360000A6EB09000028C7DA0025CCE7B9F1000FC6
:10361000A4DAFB68B34216D0304612F03CFF804675
:103620004A46D0E90405A94528BF2A461AB100999F
:103630002EF076FE08B9A5EB09000028ACDAD8F820
:103640000C000028B5D0B0460120B8E76A684146B2
:103650005046013230F0EDFC32E75A42002ABFF604
:1036600079AFFB68B342EED0304612F014FF8046CB
:103670004569E0E72369D4F814900093D8E904235E
:1036800001924B451A4628BF4A4632B10293DDE902
:1036900000012EF045FE029B08B9A9EB0300C00F04
:1036A0008DE7F268A2B145467DE7A6EB0906002E3C
:1036B000BFF672AF10467CE7B046002576E7A9EB6F
:1036C0000503002BBFF668AFF3681BB1012070E75C
:1036D000B046D6E7B046D1E72DE9F04FB94BB5B0CB
:1036E00008220DF1480893E80300002388E803004E
:1036F0008DF85030B44B9D68CDE91082002D00F05C
:103700007A811F1D2C46B946D4E90406082E00F222
:10371000A581002E40F0B481E468002CF4D1B945B5
:1037200000F06C81D9F81440072C40F288820822FE
:10373000D9F8101040462EF0F3FD08B9C4F1080086
:103740000028C0F25B81D9F828302C460DF16009C1
:103750000C939E4BCDF8589093E8030008231793E1
:10376000002389E803008DF86830BA46D5E90406DD
:10377000082E00F26381002E40F08081ED68002D5C
:10378000F4D1BA4500F07E81DAF81450072D40F2EA
:1037900051820822DAF8101048462EF0C1FD08B90F
:1037A000C5F108000028C0F26D81DAF828302546FE
:1037B0000B93874B1B68ADF878301B0C8DF87A3073
:1037C0001EAB07931C9303231D9300238DF87B30BE
:1037D000BA46AB46079ED4E90405032D00F2A0814A
:1037E000002D40F0AE81E468002CF4D1BA455D466E
:1037F00000F0D181DAF81440022C40F20782032253
:10380000DAF8101007982EF08BFD08B9C4F1030008
:103810000028C0F2C081DAF8283024AE2C460A9382
:103820006C4B22961B68ADF890301B0C8DF89230D3
:103830000323239300238DF89330BA46A346D5E99A
:103840000404032C00F25D81002C40F07881ED68C7
:10385000002DF4D1BA455C4600F08281DAF81450AC
:10386000022D40F2E2810322DAF8101030462EF0E9
:1038700057FD08B9C5F103000028C0F27181DAF8DC
:1038800028302546544A09932AAB089328930423E9
:10389000CDE9293200238DF8AC30BB46DDF820A0FD
:1038A0000D95D4E90405042D00F21C81002D40F093
:1038B0004C81E468002CF4D1BB450D9D00F08A8159
:1038C000DBF81440032C40F2A6810422DBF8101030
:1038D00008982EF025FD08B9C4F104000028C0F2B4
:1038E000798104233D49DBF828400DF1C00BCDE977
:1038F0002F310023CDF8B8B08DF8C430BA460D94FE
:10390000D5E90404042C00F2DE80002C40F01B8179
:10391000ED68002DF4D1BA450D9C00F01881DAF85D
:103920001450032D40F27C810422DAF8101058461E
:103930002EF0F6FC08B9C5F104000028C0F207819A
:10394000DAF828304FF40071099A049302920B9B25
:103950000A9A009301920C9B214A224803942EF06C
:10396000D9FB2E98584503D03099013111F05AF9FE
:103970002898089B984203D02A99013111F052F9F6
:103980002298B04203D02499013111F04BF91C98D0
:10399000079B984203D01E99013111F043F9169804
:1039A000484503D01899013111F03CF91098404571
:1039B00003D01299013111F035F90A48FCF7F0FCF7
:1039C00012E000BFD88E0308BC0F0024E48E030869
:1039D000F08E0308F48E03086261632B6261632D2D
:1039E000088F0308BC0B002401469B4835B0BDE896
:1039F000F04F0AF025B9994B1F1DB94610AB2EAAFE
:103A0000494696482E930DF160090792FFF740FD55
:103A1000836A079A0C93924BCDF8589093E8030071
:103A200008231793002389E803008DF868308B4B37
:103A30009D68002D00F00E812C4696E6082249462E
:103A40002EF06EFC08B9A6F108000028FFF696AE2D
:103A5000AA46AD68002D7FF489AE92E60822414661
:103A60002EF05EFC08B9A6F108000028FFF654AE5F
:103A7000A146A468002C7FF447AE50E63246DEE74C
:103A80003246ECE72EAA16AB514674482E930892A4
:103A9000FFF7FEFC836A089A0B93724B1B68ADF824
:103AA00078301B0C8DF87A301EAB07931C930323E0
:103AB0001D9300238DF87B30684B9C68002C00F030
:103AC000C780254684E6042259462EF029FC00B919
:103AD000201F0028FFF61CAFAA46AD68002D7FF41A
:103AE0000FAF18E7042251462EF01AFC00B9281F28
:103AF0000028FFF6DEAEA346A468002C7FF4D1AE0A
:103B0000DAE6032231462EF00BFC00B9E01E002855
:103B1000FFF69DAEAA46AD68002D7FF490AE99E603
:103B2000032231462EF0FCFB00B9E81E0028FFF608
:103B30005AAEA246A468002C7FF44DAE56E622464B
:103B4000E0E72A46EDE72246BEE72A46CBE72EAA63
:103B500051460F9241480FAAFFF79AFC8246EFE6C2
:103B60002EAA22AB51463D482E930D92FFF790FCB2
:103B7000836A3D4C09932AAB0D9A0893289304233A
:103B8000CDE9293400238DF8AC30344B9C68002CEF
:103B90005CD0254681E62EAA1CAB51462F4824AEA8
:103BA0002E930892FFF774FC836A089A0A932F4BAE
:103BB00022961B68ADF890301B0C8DF892300323D1
:103BC000239300238DF89330244B9D68002D3BD028
:103BD0002C4632E62EAA28AB594620480DF1C00BE0
:103BE0002E930D92FFF754FC1C4B846A9D680423AE
:103BF0001F480D9ACDF8B8B0CDE92F3000238DF8CD
:103C0000C430002D7FF47AAEBA46A1E7002C3FF411
:103C100002AE2246F4E5002C3FF463AE224655E6A0
:103C2000002D3FF48DAE2A467FE6002D3FF427AEEF
:103C30002A4619E6002D3FF4B8AD2A46AAE5002C25
:103C40003FF481AD224673E5BA468AE7BB46C2E738
:103C5000BA46A1E7BA4616E7BC0B0024BC0F002405
:103C6000E48E0308F08E03086261632BF48E030870
:103C70006261632D2DE9F04F9C4DB3B00FCD26ACA2
:103C80002EAFA2460FC495E8030084E803005AF85B
:103C9000045B2C97002D00F0C3832846FCF780FBC3
:103CA0000F280446209000F20483012840F0FC8293
:103CB0002B788DF8B8303A4600232D9413558C4B51
:103CC0009C68DDE92C65002C00F0368303F10408C4
:103CD000A946C34665694A46A94528BF2A4622B176
:103CE000314620692EF01CFB08B9A5EB090000281D
:103CF00006DBA368002B00F06582A3461C46E9E7BB
:103D0000E368002BFAD15C467A4B4D469C4200F0AA
:103D10005E82D4F814902A464D4528BF4A4622B107
:103D2000216930462EF0FCFA08B9A5EB09000028FD
:103D3000C0F24D820023BE42A36200F056822E994B
:103D40003046013110F06EFF2CAB53459FD100245B
:103D50006948CDE9174404F0DFFD8246664804F067
:103D6000DDFD824500F045830F940A940894099084
:103D7000CDE91244CDE91044CDE90D44CDE90B4421
:103D8000DAF804502C97002D00F007832846FCF742
:103D900007FB0F280446269000F26982012840F0B4
:103DA000C8822B788DF8B8303B464FF000022D9436
:103DB0001A55DDF8B4B0BBF1000F00F070824C4B27
:103DC0002C9E9C68B4B3C146D4E90405AB450DD321
:103DD000D5B9A5EB0B000028D4E9023210DBB3B152
:103DE000A1461C46D4E90405AB45F1D25A463146FA
:103DF0002EF096FA0028ECD00028D4E90232EEDA50
:103E000022B113461C46EDE72A46F0E74C464445EE
:103E100010D0D4E90415AB4500F262825A46304610
:103E20002EF07EFA08B9ABEB0500002802DBA26A8F
:103E30000132A262089BBBF1080FDAF81840234454
:103E4000089300F05282BBF1040F40F08F82337868
:103E5000622B00F07582BE4204D030462E990131AB
:103E600010F0E0FE0AF13C0A099B534588D1234B30
:103E70001CAA93E8030008231A921B930023C2E9AB
:103E800000018DF878301A4B9D68002D3AD02C46F1
:103E9000C246D4E90406082E00F2D981002E40F073
:103EA0001782E468002CF4D1C2452CD0DAF8144013
:103EB000072C40F284820822DAF810101CA82EF099
:103EC0002FFA08B9C4F1080000281CDBDAF8283002
:103ED0002C460B4A159322AB099320930423CDE97A
:103EE000213200238DF88C3026E000BF508C03086F
:103EF000D40F0024D80F00246C100024E48E030893
:103F00006261632DC2461AAB51462CAAA6482C9377
:103F1000FFF7BEFA836AA549159322AB0993209354
:103F20000423CDE9213100238DF88C309E4B9D6810
:103F3000002D00F0FC802C46C246A146099ED5E922
:103F40000404042C00F26581002C40F0C581ED686A
:103F5000002DF4D1C2454C4600F0EA80DAF8145046
:103F6000032D40F222820422DAF8101009982EF074
:103F7000D7F908B9C5F104000028C0F2D980DAF8F1
:103F8000283025460DF1A00A1493894BCDF898A04E
:103F90001B68ADF8A0301B0C8DF8A23003232793CB
:103FA00000238DF8A330C346D4E90406032E00F2A3
:103FB0002181002E40F08E81E468002CF4D1C345AD
:103FC00000F0D580DBF81440022C40F2E981032296
:103FD000DBF8101050462EF0A3F908B9C4F1030025
:103FE0000028C0F2C480734BDBF828901B682C9724
:103FF000ADF8B8301B0C8DF8BA3003232D93002395
:104000008DF8BB304646D5E90404032C00F210813C
:10401000002C40F06381ED68002DF4D146450DD0B1
:104020007469022C40F2C6810322316938462EF0B1
:1040300077F908B9C4F10300002807DA2CAB314640
:1040400019AA59481993FFF723FA0646B36A4FF4A1
:104050000071149A06930D9B04920293159B0E9A7D
:1040600001930C9B03920093534A0B9B5348CDF84A
:1040700014902EF04FF82C98B84203D02E990131AD
:1040800010F0D0FD2698504503D02899013110F04A
:10409000C9FD2098099B984203D02299013110F064
:1040A000C1FD1A981CAB984203D01C99013110F045
:1040B000B9FD4248FCF774F90146404809F0C0FDDB
:1040C00032200AF0E3F918AB139C119DDDF83C9007
:1040D000DDF84880109F0A9E4246039317AB39468D
:1040E0003046019402934B46009502F0EBFD18997F
:1040F0000794179C089B324ACDF8188005950497C1
:10410000CDF80C9000942D48CDE901164FF40071C4
:104110002EF000F82948FCF743F90146274809F03A
:104120008FFD32200AF0B2F933B0BDE8F08FC246FD
:1041300020AB51462CAA1C482C93FFF7A9F9836A9F
:104140000DF1A00A14931A4BCDF898A01B68ADF896
:10415000A0301B0C8DF8A2300323279300238DF889
:10416000A330114B9C680CB125461CE7C34626AB17
:1041700059462CAA0C482C93FFF78AF90A4BD0F821
:1041800028909D680B4B2C971B68ADF8B8301B0C22
:104190008DF8BA3003232D9300238DF8BB30002D0A
:1041A0007FF430AF464649E7D40F00246261632DA7
:1041B000F08E0308F48E03088C8F0308BC0D0024D6
:1041C00028900308984B4D469C427FF4A2AD2CAB3F
:1041D000214620AA95482093FFF75AF92C9E0446C1
:1041E0000023BE42A3627FF4AAAD2CAB53457FF4FB
:1041F0004EADACE5032251462EF092F800B9F01E08
:104200000028FFF6D9AEA346A468002C7FF4CCAEFC
:10421000D5E6042231462EF083F800B9201F00288D
:10422000FFF695AEAA46AD68002D7FF488AE91E604
:10423000032239462EF074F800B9E01E0028FFF67C
:10424000EAAE2E46AD68002D7FF4DDAEE6E608222C
:104250001CA92EF065F808B9A6F108000028FFF6A1
:1042600020AEA246A468002C7FF413AE1CE6002208
:1042700026A92CA823F0B6FD269B2C902E9322462F
:1042800029462FF0D6FE269C2C9B4FF000022D9441
:104290001A55DDF8B4B0BBF1000F7FF490AD2C9847
:1042A000B8427FF4DBADDDE500283FF404AD3846CD
:1042B00007E0002220A92CA823F094FD209B2C903D
:1042C0002E93224629462FF0B4FE209C2C9AF3E42C
:1042D0003246BDE732468EE722469BE72246A8E7F4
:1042E000002D3FF4A0AD2A4699E55A465049304684
:1042F0002EF016F858B15A464E4930462EF010F8B6
:1043000000287FF4A8AD0F9B23440F93A3E50A9BDD
:10431000DAF8380023440A9338B14749FBF7E0FF45
:1043200018B90C9B01330C9395E50B9B01330B9350
:1043300091E590B33846A2E7DFF8EC80444646E7C3
:104340007378721C612B3FD07278731C612A7FF4E2
:1043500082AD13F8012F632A7FF47DAD5B782D2B9E
:104360007FF479AD119B2344119374E5BBF1030FE6
:104370007FF471AD3378432B7FF46DAD7278462AAC
:1043800047D07278462A7FF466ADB3782D2B7FF440
:1043900062AD139B234413935DE53B46002404E583
:1043A000002C3FF420AE224612E6002D3FF4E7AD8C
:1043B0002A46D9E5002C3FF449AE224635E6002CCA
:1043C0003FF484AD224677E512F8013F632BBBD161
:1043D00053782B2BB8D1109BDAF838002344109374
:1043E00098B11549FBF77CFF78B90E9B01330E930A
:1043F00031E5CDE91244CDE910440F940A940894B4
:10440000CDE90D44CDE90B4431E50D9B01330D930E
:1044100021E5B3782B2BB4D1129B234412931AE5D8
:1044200006481DF060F800BFD80F0024D40F002408
:10443000D88E0308E48E0308848F0308848C030855
:104440002DE9F041044682B016461D4661B10120B7
:10445000231D3246294612F020F8636928460133AD
:10446000636102B0BDE8F081031D9A4212D0576922
:10447000D5F81480B845424628BF3A4632B1316972
:10448000286901932DF04CFF019B08B9A8EB0700A8
:10449000C00FDEE70120DCE72DE9F04F8146006820
:1044A000D9F8043098422DED048BADF5377D00F03E
:1044B0009A840A230022B94923F091FF013040F089
:1044C0007F81D9E900031B1A182B40F2B0810A231F
:1044D0000022B249183023F082FF0130D9F80030B1
:1044E00040F0C6810A22002118682CF0D3FCD9F8CC
:1044F00000300A2200210A9098692CF0CBFC20ABF6
:10450000014609901E930023A5481F938DF8803023
:1045100000230F9304F00AFA0346816805901833CC
:104520000693002901F086800DF1D80B5846FCF760
:10453000D9FB032300229B49584623F037FF38ABB1
:104540000B90DBF80000984204D0DBF80810013132
:1045500010F068FB944C069BA0681093FCF78AFD52
:10456000221D00232C20A3606361E260226110F011
:104570006AFB00F1100504468C492846FCF7B2FBA3
:10458000DDED097A2A468849F8EEE77A12A8C4EDEB
:104590000A7AFDF7C1FEDDE91212002A00F00C874D
:1045A00023468148FFF74CFF8149D9E90032D21AEE
:1045B000D310302A01FB03F340F26F840222DFEDB7
:1045C0007D8A9FED7D9ACA46049200220C92049A3D
:1045D00001329A4281F0B282059B9D6838ABCBF8DC
:1045E0000030002D00F0DE8628460DF1C009FBF7F3
:1045F000D7FE0F280446C9F8000000F28782012880
:1046000040F0F6822B7838AA8BF808300023CBF8DC
:10461000044058461355049BDAF8001003EB430698
:1046200001EBC601FDF7F4F938AB0446DBF80000F6
:10463000F500984204D0DBF80810013110F0F2FACE
:10464000002C00F07782A7683846FBF7A9FE3B46AE
:1046500000901F9A00211EA823F098FD059BD3F817
:10466000088038ABCBF80030B8F1000F10D04046CE
:104670000DF1C009FBF794FE0F280746C9F80000AA
:1046800000F23082012800F00382002840F0C2824C
:1046900038AB00270022CBF8047048495846DA5559
:1046A000082323F083FE002840F08381002C00F0D3
:1046B0008081237BDBF80000462B38AB00F0AC8216
:1046C000984204D0DBF80810013110F0ABFA05F184
:1046D0001803DAF800703D441F44059BD3F80880A6
:1046E00038ABCBF80030B8F1000F10D040460DF1D8
:1046F000C009FBF755FE0F280646C9F8000000F276
:104700006382012800F05A82002840F0318638A8E0
:1047100000260023CBF804603A46294683550A9BBD
:10472000099801935B460094FDF7CAF9DBF8000095
:1047300038AB8DED0F0A984204D0DBF80810013138
:1047400010F070FA022308930698DDE91E652A46E8
:104750003146FCF7A7FD059A02F11C03834207933B
:1047600000F02B81146A002C00F0E98198466769FB
:104770002A46BD4228BF3A4622B1314620692DF073
:10478000CFFD00B9781B0028C0F29280A368002BEF
:1047900000F09380A0461C46E9E700BFF4900308B0
:1047A0006C10002488910308EC0F00242C8D030862
:1047B000ABAAAAAA20BCBE4C00000000C88D03080A
:1047C000D9F800300DF1D80B0DF1C00A32AEB34A62
:1047D0004FF400711B6858462DF09CFC5846CAF8EF
:1047E00000602AADFBF7DCFD0F28044628604DD899
:1047F000012840F0DB859BF800308AF8083032460B
:104800000023A748CAF8044051461355FCF798FF07
:10481000DAF80000B04225D0DAF80810013110F0C3
:1048200001FA0DF5377DBDEC048BBDE8F08F9D4D91
:1048300036AC0FCD0FC40FCD0FC495E8030044F87C
:10484000040B30A8218036A9FCF74CFA30A9964811
:10485000FCF776FF309832AB984203D032990131A1
:1048600010F0E0F90DF5377DBDEC048BBDE8F08F5D
:104870008E4A4FF400719B6936A82DF04BFC36A987
:1048800030A8FCF72FFA30A98948E1E70022294631
:10489000504623F0A7FA2B68CAF80000CAF808307F
:1048A000224659462FF0C5FB2C68DAF80020A7E70E
:1048B000E368002B7FF46FAF4446079BA34200F0F0
:1048C0003F8167692A46BD4228BF3A4622B1304639
:1048D00021692DF025FD00B9E81B0028C0F23081C8
:1048E000D4ED0A7A9DED0F8AF4EE487AF1EE10FAD3
:1048F00043D01F9E092E00F0C2830A2E00F0D085FF
:104900000C2E40F04B8632466A491E982DF008FD69
:104910000B9B184300F0498767491EA8FDF7DAFA98
:10492000002841F0428065491EA8FDF7D3FA00280F
:1049300041F03B8062491EA8FDF7CCFA002841F007
:1049400034801EA90698FEF7C9F880ED008A0FAAE8
:104950001EA95C48FEF7FAF90DE00FAA5A4906981D
:10496000FDF7AEFD0B9B002B00F035850FAA5649D5
:104970005448FDF7A5FD01230C930499089B1944A5
:10498000DAE9002304919B1A504ADB1002FB03F37F
:104990009942FFF41CAE0C9B002B00F07E824C4B26
:1049A0001B78002B40F07982DDE90901FCF7B4FCAB
:1049B00073E2DBF8000038AB82E60A2D00F0778264
:1049C000072D00F04B84092D40F01A862A464149F4
:1049D00030462DF0A5FC002840F047840FAA3D4941
:1049E00006983D4FFDF7E6FD0FAA3A493548FDF719
:1049F000E1FD06F0EDFD394BBC6806469DF82480CC
:104A00001860002C01F0768107F104094D46237CE3
:104A10004345D4E90212C0F0908025460C46002C94
:104A2000F5D14D4501F066812B7C434540F20F8660
:104A30002C2010F008F90476C4610646846200F167
:104A4000180480F81080C0E908442B7C984581F058
:104A50001781FB68AB420DD02846079311F01BFD70
:104A6000017C0246079B414581F00982C368002B07
:104A700001F094822A4601203546194B294611F04F
:104A80000CFD7B6901337B61144B1E6800F0E1BDB6
:104A900098F800308BF8083038ABFBE5009103083C
:104AA00032F4FFFF3091030831F4FFFF58910308FF
:104AB00030F4FFFF4C9203086C92030878920308CD
:104AC00088920308EC0F0024488D0308ABAAAAAA19
:104AD0006C2B0024308D0308802B00247C2B0024B9
:104AE000842B002400224946584623F07BF9D9F84C
:104AF0000030CBF80000CBF808303A4641462FF0A2
:104B000098FAD9F80070DBF80030C3E50022494676
:104B1000584623F067F9D9F80030CBF80000CBF8FD
:104B20000830224629462FF084FAD9F80040DBF8F5
:104B300000206BE50720BF4F89E514466FE71C4650
:104B40002C20A04610F07FF81F9D00F118060446A7
:104B50000F2D00F11007DDF87890CBF800500661BA
:104B600000F24B83012D00F0CC82002D40F0C68571
:104B70003046002165613B464246415514A80699DE
:104B800084ED0A9AFDF74AFEDDE91475002D34D054
:104B9000079B581BB0FA80F04009002F18BF40F067
:104BA0000100002800F0DD862A46079B214611F00F
:104BB00074FC059AD36A0133D36291E698F8003009
:104BC00038A88BF80830A4E500224946584623F05F
:104BD00009F9D9F80030CBF80000CBF8083032469C
:104BE00041462FF026FAD9F80060DBF8000090E586
:104BF000002800F0D78338A893E72069864203D0C5
:104C0000A169013110F00EF820462C213C4610F02D
:104C100009F865E638A870E7984204D0DBF8081078
:104C200001310FF0FFFF844ADAE90093A3EB090397
:104C300009EB0500DB1002FB03F3049A03329A42EE
:104C4000C0F08C80183524AF09EB05030893059B51
:104C50009D6826AB07933B6075B12846FBF7A0FB28
:104C60000F288046CBF8000000F2D280012800F027
:104C7000B680002840F0D284079B4FF00008002542
:104C8000C7F80480089903F808500DF1A8084046B9
:104C9000FCF770FDD8F8043043B116232A46674963
:104CA000404623F09CFB013000F0B8820A9B32ACF6
:104CB000634A4FF4007102935846099B019359F8D7
:104CC00036300DF1C00900933B682DF023FA5846A9
:104CD000C9F80040FBF764FB0F280546119000F26D
:104CE000A981012800F09D81002840F0F48422462B
:104CF0000023C9F804504FF4007152485355D9F8B5
:104D00000030514A0093514B2DF004FA4D48FBF707
:104D100047FB01464B4808F093FFD9F80000A0423A
:104D200004D0D9F8081001310FF07CFFB0EE688A8A
:104D3000D8F800002CAB984204D0D8F80810013104
:104D40000FF070FF3868079B8DED0F8A98423FF493
:104D5000F9ACB96801310FF065FFF3E4002424A930
:104D600005F13007ADF89040ADF8A840FCF718FE0B
:104D7000002800F0E887DAF800002AA93844FCF798
:104D80000FFE002800F0DF87BDF89030BDF8A820A6
:104D90000133DAF800609BB29A4240F0D6870DF1F9
:104DA000C00905F11800ABF8004030444946A9F8A5
:104DB0000040FCF7F5FD00284ED005F148005946AB
:104DC0003044FCF7EDFD002846D0B9F80020BBF8D0
:104DD000003043EA02430F9304230893B4E42B7892
:104DE0003B72079B4BE71A4D36AC0FCD0FC40FCD6E
:104DF0000FC495E803000B0C44F8040B30A824F80A
:104E0000021B36A92370FBF76DFF30A911481FE57F
:104E100000225946384622F0E5FFDBF800203860D2
:104E2000BA60424629462FF004F9DBF800803B685F
:104E300025E700BFDC8D0308ABAAAAAAB08D030842
:104E4000E48D0308BC090024048D030842F4FFFF2D
:104E5000CC90030833F4FFFF4B46D1469A46059B9E
:104E60009B68002B00F0F1830A9A4FF400715846BA
:104E70000292099A0192D9F8002052590092A34A4D
:104E80002DF048F959465046FBF72CFFA0485146F3
:104E9000FCF756FC504622F0C6FF1E9820AB984205
:104EA0003FF4E0AC209901310FF0BCFEDAE42A4671
:104EB000984930462DF034FA00283FF44EAD2A468A
:104EC000954930462DF02CFA002840F0CE812AACCE
:104ED000924B2EAF00262546DDF81C90CDF830A071
:104EE0000FCB84E80F0038AB55F8044BCBF80030FB
:104EF000002C01F060802046FBF752FA0F28804614
:104F0000309000F2A980012800F09080002840F045
:104F1000128638AACBF8048002F808600698DBE90C
:104F200000824146FCF7BEF938AB8246984505D071
:104F3000DBF80810404601310FF074FED14500F057
:104F40008282BD42CFD1059BDDF830A01C6ADDE92D
:104F50001E67002C00F07183DDF81C8065693A46FD
:104F6000AF4228BF2A4622B1314620692DF0D8F938
:104F700000B9E81B002804DBA36833B1A0461C4637
:104F8000ECE7E368002BFAD14446079BA34200F00C
:104F9000558365693A46AF4228BF2A46002A00F089
:104FA000E981304621692DF0BBF9002800F0E2814B
:104FB0000028C0F243830F9C1EA90698FDF78EFDC2
:104FC0005749046010A8FDF76FFB534910A8FDF77F
:104FD0006BFB544910A8FDF767FB534910A8FDF778
:104FE00063FB524B9C68DDE91E67002C00F0CF8507
:104FF00003F104083A46D4E90405AF4228BF2A4623
:105000001AB131462DF08CF900B9E81B0028D4E91B
:105010000232C0F2B181002B00F0B381A0461C46E1
:10502000E8E79BF8003089F8083060E622788BF8D2
:1050300008206EE7002211A9484622F0D3FE119BFA
:10504000C9F80000C9F808302A4659462EF0F1FF89
:10505000119DD9F800204BE6002230A9584622F0D5
:10506000C1FE309ACBF80000CBF80820424621461A
:105070002EF0DFFFDDF8C080DBF800204AE71E9F3E
:1050800032462B4938462DF04BF9002856D032468F
:10509000384628492DF044F900287FF43DAC1EA97C
:1050A0000698FDF71BFD244980ED008A10A8FDF746
:1050B000FBFA1F4910A8FDF7F7FA164910A8FDF7EB
:1050C000F3FA1A4B9C68DDE91E67002C00F05F853F
:1050D00003F104083A46D4E90405AF4228BF2A4642
:1050E0001AB131462DF01CF900B9E81B0028D4E9AB
:1050F0000232C0F2BB83002B00F04381A0461C4665
:10510000E8E799F80030037632E500BF0C92030817
:105110000AF4FFFF488D03086C920308688C0308AB
:105120005C9203087892030888920308EC0F00242D
:10513000308D03083C8D0308548D0308059B9DF8B2
:1051400024901C6A002C00F02086D4F81480079D5F
:10515000B8F1000F18D0424626693946092A304670
:1051600028BF09222DF0DCF808B9A8F109000028B1
:10517000A36809DB002B00F0E88125461C46D4F823
:105180001480B8F1000FE6D1E368002BF6D1079B3D
:10519000AB4200F069836E69002E40F04A86D5ED7F
:1051A0000A7ABCEEC87A4846FCEEE77A8DED077ABB
:1051B0009DF81C20CDED0C7A9DF8301006F070FAA9
:1051C0001EA90698FDF78AFCAD4980ED008A10A85B
:1051D000FDF76AFA10A8AB49FDF766FA10A8AA49CC
:1051E000FDF762FA0FAAA949A948FDF7E3F9FDF70F
:1051F00075FFFEF771FAFFF7BEBB0022594638462D
:1052000022F0F0FDDBF800302061A3612A46494618
:105210002EF00FFFDBF800502069AAE4102211A93C
:10522000D8F8000011952BF035FE119A0346D8F8F6
:105230000000904200F020831278002A40F01C8386
:10524000B3F5803F80F0BC851BB2D4ED047A08EE44
:10525000103AB8EEC88A28EE278A6BE52A468849B4
:1052600030462DF05DF8002854D08A491EA8FCF77E
:1052700031FE00287FF42BAE059B1C6A002C00F049
:10528000CF81DDF81C8067692A46BD4228BF3A46B7
:1052900022B1314620692DF043F800B9781B00286F
:1052A00004DBA36833B1A0461C46ECE7E368002B9F
:1052B000FAD14446079BA34200F0B38167692A46AE
:1052C000BD4228BF3A468AB3216930462DF028F8FE
:1052D00060B30028C0F2A5810C2D00F0EB836C4B6D
:1052E0009C68002C00F0538403F104082A46D4E99A
:1052F0000407BD4228BF3A461AB131462DF010F8D6
:1053000000B9781B0028D4E9023211DBABB1A0460A
:105310001C46EBE70FAA06985949FDF757F80FAA64
:1053200057495B48FDF752F8FFF725BBE81BD0E76C
:1053300012B113461C46D9E74446574B9C420DD048
:105340002A46D4E90417BD4228BF3A4672B1304616
:105350002CF0E6FF50B10028BFF60DAB21460FAB95
:105360001EAA4B48FDF76EFCFFF705BBE81BF2E7F2
:1053700038A834E4781B1BE612B113461C4639E604
:105380004446454B9C42E9D03A46D4E90415AF4225
:1053900028BF2A4622B130462CF0C2FF0028DAD1BD
:1053A000781BD8E738AA0024FFF730B900283FF46B
:1053B00026AA3046FFF774BA206904F11803984210
:1053C00003D0A16901310FF02DFC20462C210FF0F4
:1053D00029FCFFF7E9B831495846FBF783FC0698EA
:1053E000DBE900522946FBF75DFF38AB04469D42DE
:1053F00005D0DBF80810284601310FF013FC079B9D
:105400009C423FF4B3AADDED0F7A584694ED0A8A28
:105410001D4938EE278AFBF765FC59460698FDF7CB
:10542000A7FA38AB80ED008ADBF80000984204D080
:10543000DBF8081001310FF0F5FB134910A8FDF758
:1054400033F9FFF793BA2C200FF0FDFB00F11002A7
:105450002146044610460D92FBF744FC00230D9AAA
:105460001CA80699A362FCF757FFDDE91C12002A6D
:1054700000F0368123460698FEF7E2FF61E500BFA3
:10548000548D0308488D03083C8D0308308D0308B4
:10549000EC0F002488920308F00F00244C920308BC
:1054A0009E4C32461E9821462CF03AFF05460028B5
:1054B0007FF432AA38AB94E80700CBF80030079CA1
:1054C00003C31A80059B8BF812501D6ACBF8046049
:1054D000002D00F0F781D5E904070A2F27D8002F07
:1054E00031D1ED68002DF6D1079BA34200F0EA818F
:1054F0006569092D40F20D813246216938A82CF0EA
:105500000FFF08B9C5F10A000028C0F2DB8184ED65
:105510000A8A0B9B002B00F03D8310A88049FDF701
:10552000C3F8804910A8FDF7BFF8FFF71FBA0A2299
:1055300038A92CF0F5FE08B9A7F10A000028D0DB45
:105540002C46AD68CEE73A46F2E7079BA3420ED061
:1055500031464646092E3246384628BF09222CF0ED
:10556000DFFE002800F0B980002880F252842C2051
:105570000FF069FB1F9E00F1180705460F2E00F182
:1055800010081E9BCBF80060076100F2D780012E47
:1055900040F071831B7803763846E1E0072E40F037
:1055A000F98132465E491E982CF0BAFE00287FF43D
:1055B000B3A95B495846FBF795FB59460698FDF79A
:1055C000D7F938AB80ED008ADBF80000984204D0B0
:1055D000DBF8081001310FF025FB10A84F49FDF74B
:1055E00063F810A85049FDF75FF810A84D49FDF782
:1055F0005BF80FAA4A494D48FCF7E8FEFFF7BBB934
:105600000E2D7DD00C2D7FF430AE2A464849304611
:105610002CF086FE00283FF45AAC26E6079800E4FA
:10562000079C21460FAB1EAA0698FDF70BFBDDE990
:105630001E6551E63F49FEF777BF079C21460FAB39
:105640001EAA0698FDF7FEFAB5E43A4B0CE405F104
:1056500018049DED0F8AD5F81C90FCEEC87ACDEDAC
:10566000077A9DF81C80B9F1000F01D1CBE3914678
:1056700099F81010D9E90232884536BF1A4600233E
:105680000123002AF3D1002B40F07B81884515D9F6
:105690004C4540F0B183012720200FF0D4FA234677
:1056A0000146002480F810804A4646613846C1E928
:1056B000064410F0F2FEAB6A0133AB62BDEEC88A5D
:1056C00018EE103A0B2B7FF456A9FDF707FDFEF7F5
:1056D00003F8FFF750B92046B6E4C6F1090043E7E6
:1056E000206904F11803984203D0A16901310FF039
:1056F00099FA20462C210FF095FA22E4304685E5F0
:105700002A460D4930462CF00BFE00283FF4DFAB53
:10571000ABE5002D3FF4FBAE2E46EDE6488D0308C9
:10572000548D0308308D03083C8D0308EC0F0024D2
:10573000789203085C9503085C920308002259469E
:1057400040460C9322F04EFBDBF800200C9B2861B6
:10575000AA61324619462EF06CFCDBF8006028691D
:1057600000216E61224643468155002116A8A96298
:105770000699FDF753F8DDE91664002C00F0F98175
:10578000301E079B18BF0120A34208BF40F0010054
:10579000002800F0A583079B2246294610F07DFED5
:1057A000059AD36A0133D362F9E4069C1EA9204608
:1057B000FDF794F9B24980ED008A5846FBF792FA5A
:1057C0002046DBE900522946FBF76CFD38AB044666
:1057D0009D4205D0DBF80810284601310FF022FA6F
:1057E000079B9C4200F0D482D4ED0A7A5846A54922
:1057F000012438EE278AFBF775FA59460698FDF71B
:10580000B7F880ED008A584622F00DFB9E4910A89B
:10581000FCF74AFF9D4910A8FCF746FF98495846F7
:10582000FBF760FA0698DBE900623146FBF73AFDC8
:1058300038AB05469E4205D0DBF8081030460131F2
:105840000FF0F0F9079B9D4205D005F128028C4925
:105850008F48FCF735FE002C3FF479A8894910A841
:10586000FCF722FFFFF773B81C4680E6002A3FF4DE
:1058700087AD13461C462DE40A9B4FF40071854A00
:105880005846029332AC099B019359F836300DF11A
:10589000C00900933B682CF03DFC59464846FBF795
:1058A00021FA7D484946FBF74BFF3098A04203D0D0
:1058B000329901310FF0B6F99FED788AD8F80000DF
:1058C000FFF738BA2C200FF0BEF9DBF8006038AAD9
:1058D00000F11807054600F110039642076100F039
:1058E000AC8238A9DBF8048022460661CBF80010B0
:1058F000DBF80810C0F8148081610021CBF8041097
:105900008BF808100021816218A80699FCF786FF21
:10591000DDE91894002C00F00A82B9F10000079B21
:1059200018BF0120A34208BF40F00100002800F08A
:1059300013832246079B2946A94610F0AEFD059A1F
:10594000D36A0133D362DBF8000038AB89ED0A8AF1
:1059500098423FF4DEADDBF8081001310FF062F938
:10596000D7E567696E693A46B74228BF324622B129
:10597000296920692CF0D4FC00B9B81BC00FFFF7CF
:1059800013B92B6A4B453FF483AE484610F083FDB4
:10599000017C7BE60E2E7EF4BFAF324640491E9856
:1059A0002CF0BEFC00287EF4B7AF24AD3D4BCDF803
:1059B00030A00DF1C009A84632ACDDF81CA00FCB19
:1059C00085E80F0058F8046BC9F80040002E00F07D
:1059D000F2823046FAF7E4FC0F280546CBF80000C7
:1059E00041D801283BD080BB23464FF00002C9F8C4
:1059F000045006985A55D9E900522946FBF752FC43
:105A0000A542074605D0D9F80810284601310FF005
:105A100009F9BA4500F0F08028AB9845D2D11EA90B
:105A20000698DDF830A0FDF759F81D4980ED008A91
:105A300010A8FCF739FE1C4910A8FCF735FE1B49DD
:105A400010A8FCF731FE1A4909E720462A463146DC
:105A50002EF0EFFADBF80050D9F80030C5E73378C4
:105A600089F80830C0E700225946484622F0BAF9C2
:105A7000DBF80030C9F80000C9F80830E6E700BFDD
:105A8000488D03083C8D0308548D0308308D0308AE
:105A9000EC0F0024E48D03083DF4FFFF20BCBE4C56
:105AA0005C920308688C03086C92030878920308E0
:105AB000889203082A46B74930462CF031FC0B9BEC
:105AC00018437FF40CACB4495846FBF70BF9069821
:105AD000DBE900522946FBF7E5FB38AB04469D4263
