:020000040800F2
:100000000000082405C80008EDBB0008F9BB000883
:10001000FDBB000801BC000805BC00080000000092
:1000200000000000000000000000000009BC000803
:100030000DBC00080000000011BC000815BC000841
:1000400059C8000859C8000859C8000859C800080C
:1000500059C8000859C8000859C8000859C80008FC
:1000600059C8000859C8000859C8000819BC000838
:1000700059C8000859C8000859C8000859C80008DC
:1000800059C8000859C8000859C8000859C80008CC
:1000900059C8000859C8000859C8000859C80008BC
:1000A00059C8000859C8000859C8000859C80008AC
:1000B00025BC000859C8000859C8000859C80008DC
:1000C00059C8000859C8000859C8000859C800088C
:1000D00059C8000831BC00083DBC000849BC0008F4
:1000E00055BC000859C800080000000059C80008A5
:1000F00059C8000859C8000859C8000859C800085C
:1001000059C8000859C8000859C8000859C800084B
:100110005DBC000859C8000859C8000859C8000843
:1001200059C8000859C8000859C8000859C800082B
:1001300059C8000859C8000859C8000859C800081B
:1001400000000000000000000000000000000000AF
:1001500059C8000859C8000859C8000859C80008FB
:1001600059C8000859C8000859C8000859C80008EB
:1001700059C8000859C8000859C800080000000004
:1001800059C8000859C8000859C8000859C80008CB
:1001900059C8000859C8000859C8000859C80008BB
:1001A00059C8000859C8000859C8000859C80008AB
:1001B00059C8000859C8000859C8000859C800089B
:1001C00059C8000859C8000859C8000859C800088B
:1001D00059C8000859C8000859C8000859C800087B
:1001E00059C8000859C8000859C8000859C800086B
:1001F00059C8000859C8000859C8000859C800085B
:1002000059C8000859C8000859C8000859C800084A
:1002100059C8000859C8000859C8000859C800083A
:1002200059C8000859C8000859C800080000000053
:1002300059C8000859C800080000000059C8000843
:1002400059C8000859C8000859C8000859C800080A
:1002500059C8000859C8000859C8000859C80008FA
:1002600059C8000859C8000859C8000859C80008EA
:1002700059C8000859C8000859C800080000000003
:1002800059C8000859C8000859C8000800000000F3
:080290000000000059C800083D
:1002A00010B5054C237833B9044B13B10448AFF3B0
:1002B00000800123237010BD6003002400000000B3
:1002C0003873010808B5034B1BB103490348AFF36A
:1002D000008008BD0000000064030024387301089A
:1002E00010F8012B11F8013B012A28BF9A42F7D0E0
:1002F000D01A70470000000000000000000000005D
:1003000001F0FF01102A2BDB10F0070F08D010F8C6
:10031000013B013A8B422DD010F0070F42B3F6D1CA
:10032000F0B441EA012141EA014122F007047FF0E3
:1003300000070023F0E80256083C85EA010586EA3A
:10034000010685FA47F5A3FA87F586FA47F6A5FA76
:1003500087F68EB9EED1F0BC01F0FF0102F0070282
:1003600032B110F8013B013A83EA010313B1F8D12D
:100370000020704701387047002D06BF354603380E
:10038000073815F0010F07D1013015F4807F02BF47
:10039000013015F4C03F0130F0BC0138704700BF98
:1003A000034613F8012B002AFBD1181A01387047B5
:1003B00081F0004102E000BF83F0004330B54FEA16
:1003C00041044FEA430594EA050F08BF90EA020F83
:1003D0001FBF54EA000C55EA020C7FEA645C7FEA16
:1003E000655C00F0E2804FEA5454D4EB5555B8BF39
:1003F0006D420CDD2C4480EA020281EA030382EAAA
:10040000000083EA010180EA020281EA0303362D3B
:1004100088BF30BD11F0004F4FEA01314FF4801C0E
:100420004CEA113102D0404261EB410113F0004F20
:100430004FEA03334CEA133302D0524263EB4303D7
:1004400094EA050F00F0A780A4F10104D5F1200E75
:100450000DDB02FA0EFC22FA05F2801841F10001D0
:1004600003FA0EF2801843FA05F359410EE0A5F1A4
:1004700020050EF1200E012A03FA0EFC28BF4CF0D5
:10048000020C43FA05F3C01851EBE37101F000458B
:1004900007D54FF0000EDCF1000C7EEB00006EEB98
:1004A0000101B1F5801F1BD3B1F5001F0CD3490822
:1004B0005FEA30004FEA3C0C04F101044FEA445279
:1004C00012F5800F80F09A80BCF1004F08BF5FEA00
:1004D000500C50F1000041EB045141EA050130BDE0
:1004E0005FEA4C0C404141EB0101013C28BFB1F5F2
:1004F000801FE9D291F0000F04BF01460020B1FA3D
:1005000081F308BF2033A3F10B03B3F120020CDA0F
:100510000C3208DD02F1140CC2F10C0201FA0CF0ED
:1005200021FA02F10CE002F11402D8BFC2F1200C52
:1005300001FA02F120FA0CFCDCBF41EA0C01904008
:10054000E41AA2BF01EB0451294330BD6FEA040451
:100550001F3C1CDA0C340EDC04F11404C4F120023C
:1005600020FA04F001FA02F340EA030021FA04F34E
:1005700045EA030130BDC4F10C04C4F1200220FAA5
:1005800002F001FA04F340EA0300294630BD21FAE3
:1005900004F0294630BD94F0000F83F4801306BFA9
:1005A00081F480110134013D4EE77FEA645C18BF9D
:1005B0007FEA655C29D094EA050F08BF90EA020F34
:1005C00005D054EA000C04BF1946104630BD91EA2C
:1005D000030F1EBF0021002030BD5FEA545C05D12F
:1005E0004000494128BF41F0004130BD14F580046E
:1005F0003CBF01F5801130BD01F0004545F0FE41E2
:1006000041F470014FF0000030BD7FEA645C1ABF16
:10061000194610467FEA655C1CBF0B46024650EA4D
:10062000013406BF52EA033591EA030F41F4002179
:1006300030BD00BF90F0000F04BF0021704730B5FF
:100640004FF4806404F132044FF000054FF00001D4
:1006500050E700BF90F0000F04BF0021704730B595
:100660004FF4806404F1320410F0004548BF40426A
:100670004FF000013EE700BF42004FEAE2014FEABF
:1006800031014FEA02701FBF12F07F4393F07F4F9A
:1006900081F06051704732F07F4208BF704793F09D
:1006A0007F4F04BF41F40021704730B54FF46074B0
:1006B00001F0004521F000411CE700BF50EA0102B3
:1006C00008BF704730B54FF000050AE050EA01025C
:1006D00008BF704730B511F0004502D5404261EBCC
:1006E00041014FF4806404F132045FEA915C3FF40D
:1006F000D8AE4FF003025FEADC0C18BF03325FEAAA
:10070000DC0C18BF033202EBDC02C2F1200300FA5A
:1007100003FC20FA02F001FA03FE40EA0E0021FA7F
:1007200002F11444BDE600BF80F0004002E000BFCB
:1007300081F0004142001FBF5FEA410392EA030FCC
:100740007FEA226C7FEA236C6AD04FEA1262D2EB16
:100750001363C1BFD218414048404140B8BF5B421B
:10076000192B88BF704710F0004F40F4000020F0B4
:100770007F4018BF404211F0004F41F4000121F0CA
:100780007F4118BF494292EA030F3FD0A2F1010214
:1007900041FA03FC10EB0C00C3F1200301FA03F152
:1007A00000F0004302D5494260EB4000B0F5000F75
:1007B00013D3B0F1807F06D340084FEA310102F134
:1007C0000102FE2A51D2B1F1004F40EBC25008BFE6
:1007D00020F0010040EA03007047490040EB0000B0
:1007E000013A28BFB0F5000FEDD2B0FA80FCACF1B1
:1007F000080CB2EB0C0200FA0CF0AABF00EBC250DE
:1008000052421843BCBFD0401843704792F0000FCB
:1008100081F4000106BF80F400000132013BB5E71E
:100820004FEA41037FEA226C18BF7FEA236C21D094
:1008300092EA030F04D092F0000F08BF08467047F9
:1008400090EA010F1CBF0020704712F07F4F04D1C7
:10085000400028BF40F00040704712F100723CBFDA
:1008600000F50000704700F0004343F0FE4040F404
:10087000000070477FEA226216BF08467FEA2363C2
:100880000146420206BF5FEA412390EA010F40F4AD
:10089000800070474FF0000304E000BF10F00043F9
:1008A00048BF40425FEA000C08BF704743F09643E0
:1008B00001464FF000001CE050EA010208BF7047FB
:1008C0004FF000030AE000BF50EA010208BF704782
:1008D00011F0004302D5404261EB41015FEA010C97
:1008E00002BF84460146002043F0B64308BFA3F18F
:1008F0008053A3F50003BCFA8CF2083AA3EBC25371
:1009000010DB01FA02FC634400FA02FCC2F120028F
:10091000BCF1004F20FA02F243EB020008BF20F0C6
:100920000100704702F1200201FA02FCC2F120022C
:1009300050EA4C0021FA02F243EB020008BF20EA21
:10094000DC70704753B94AB9002908BF00281CBFA2
:100950004FF0FF314FF0FF3000F0C2B9ADF1080C9D
:100960006DE904CE00F040F8DDF804E0DDE9022393
:1009700004B0704708B502460B4643EC172BB5EEA2
:10098000C07BF1EE10FA03D4BDE8084000F00CB8CB
:10099000B1EE477B51EC170B00F006F8404261EBDB
:1009A000410108BD000000009FED0B6B41EC170BEF
:1009B0009FED0B5B27EE066BBCEEC66BB8EE464BAD
:1009C000A4EE457BFCEEC77B16EE101A17EE900ADC
:1009D000704700BFAFF30080000000000000F03D52
:1009E000000000000000F0412DE9F047089D8E4610
:1009F00004468846002B4AD18A42174662D9B2FA89
:100A000082F64EB1C6F1200301FA06F820FA03F38C
:100A1000B74043EA0808B4404FEA174E1FFA87FC74
:100A2000B8FBFEF1230C0EFB118843EA084301FBDF
:100A30000CF29A4209D9FB1801F1FF3080F0EA80EC
:100A40009A4240F2E78002393B449A1AA3B2B2FBC1
:100A5000FEF00EFB102243EA024300FB0CFC9C4517
:100A600009D9FB1800F1FF3280F0D6809C4540F296
:100A7000D3803B44023840EA0140A3EB0C03002141
:100A80001DB1F3400022C5E90032BDE8F0878B427A
:100A900005D90DB1C5E9000100210846F5E7B3FA13
:100AA00083F1002946D1734502D3824200F20581C9
:100AB000841A6EEB030201209046002DE5D0C5E9B3
:100AC0000048E2E7002A00F09080B2FA82F6002E99
:100AD00040F0A4808A1A030C4FEA174E80B2BCB2D1
:100AE0000121B2FBFEFC0EFB1C2243EA024304FB85
:100AF0000CF29A4207D9FB180CF1FF3802D29A4245
:100B000000F2E080C4469B1AB3FBFEF20EFB1233E8
:100B100040EA034302FB04F49C4207D9FB1802F1AC
:100B2000FF3002D29C4200F2CA8002461B1B42EAFE
:100B30000C40A5E7C1F120068B4022FA06F71F43BF
:100B40000EFA01F420FA06F32EFA06FE4FEA1749D0
:100B5000234300FA01F81FFA87FCBEFBF9F01C0CD6
:100B600009FB10EE44EA0E4400FB0CFEA64502FA17
:100B700001F209D93C1900F1FF3A80F09C80A645AA
:100B800040F2998002383C44A4EB0E041FFA83FE25
:100B9000B4FBF9F309FB13444EEA044403FB0CFCD9
:100BA000A44508D93C1903F1FF3E80F08280A4459A
:100BB0007FD9023B3C4443EA0040A4EB0C04A0FB79
:100BC00002EC64457346E14662D35FD05DB1B8EB99
:100BD000030264EB090404FA06F622FA01F31E4349
:100BE000CC40C5E9006400214FE7B1FBF2FC010CE9
:100BF00041EA0E4180B240EA01423B4638463C465B
:100C0000B846BE462026B1FBF7F1A2EB080241EA46
:100C10000C4166E7014618E710462CE7C6F12002B2
:100C20002EFA02F3B740B14020FA02F24FEA174E13
:100C30000A43B3FBFEF8BCB20EFB1833110C41EAB9
:100C4000034108FB04F9B04089454FEA104380B2E4
:100C50003ED9791808F1FF3C01D289451FD8A1EB94
:100C60000901B1FBFEF909FB04F80EFB191192B260
:100C700042EA0142424529D2BA1809F1FF31C4D2F1
:100C80004245C2D2A9F102013A44BEE7F0459DD2E5
:100C9000BEEB02036CEB070C0138E14696E7A7EBCD
:100CA00009094944A8F1020CB1FBFEF909FB04F85B
:100CB000DBE773467FE7504666E70846FDE63B44C0
:100CC000023A33E7ACF1020C3B441CE749469CE78F
:100CD000A1EB0901C446B1FBFEF909FB04F8C4E726
:100CE000704700BFF0B500F1080783B0076061B33B
:100CF000054608460E46FFF753FB0F2804460190B1
:100D00000ED8012806D133786C602B7200233B5536
:100D100003B0F0BD68B900236C603B5503B0F0BD73
:100D2000002201A9284611F07FFD019B074628609B
:100D3000AB6022463146384613F031F9019C2F68EA
:100D400000236C603B5503B0F0BD014811F041FD3C
:100D500068730108002873D02DE9F04F074683B06F
:100D6000D7F80C80B8F1000F60D0D8F80C90B9F12A
:100D7000000F52D0D9F80CA0BAF1000F44D0DAF825
:100D80000C40002C37D0D4F80CB0BBF1000F2BD0A6
:100D9000DBF80C60FEB1F568B5B1EB686BB1D868F3
:100DA0000193FFF7D7FF019B202118469B68019311
:100DB00011F04CFB019B002BF1D12846AD6820219E
:100DC00011F044FB002DE8D13046B668202111F027
:100DD0003DFB002EDFD1DBF808502021584611F0F2
:100DE00035FB0DB1AB46D3E72046A468202111F0B6
:100DF0002DFB002CC7D1DAF808402021504611F015
:100E000025FB0CB1A246BAE7D9F808402021484694
:100E100011F01CFB0CB1A146ACE7D8F8084020212A
:100E2000404611F013FB0CB1A0469EE73846BF6860
:100E3000202111F00BFB002F92D103B0BDE8F08F01
:100E4000704700BF2DE9F04F83B00190002800F0FB
:100E50000E81019BD3F80C80B8F1000F00F0EF80F9
:100E6000D8F80C90B9F1000F00F0CF80D9F80CA0A1
:100E7000BAF1000F00F0AF80DAF80C40002C00F05F
:100E80009080E568002D75D0EE68002E5BD0F76885
:100E9000002F3DD0FA6802B3D0680092FFF7D2FF6E
:100EA000009A106902F11801D2F808B088420DD0FA
:100EB0009169013111F0CAFA009A2C21104611F003
:100EC000C5FABBF1000F08D05A46E5E72C211046C1
:100ED00011F0BCFABBF1000FF6D1386907F1180226
:100EE000D7F808B090420CD0B969013111F0AEFAD0
:100EF0002C21384611F0AAFABBF1000F08D05F464A
:100F0000C8E72C21384611F0A1FABBF1000FF6D149
:100F1000306906F11803D6F808B098420CD0B169D0
:100F2000013111F093FA2C21304611F08FFABBF108
:100F3000000F08D05E46AAE72C21304611F086FA51
:100F4000BBF1000FF6D1286905F11803AE6898428D
:100F50000AD0A969013111F079FA2C21284611F043
:100F600075FA3EB135468FE72C21284611F06EFA0E
:100F7000002EF7D1206904F11803A56898420AD021
:100F8000A169013111F062FA2C21204611F05EFABC
:100F90003DB12C4675E72C21204611F057FA002D63
:100FA000F7D1DAF810000AF11803DAF8084098428D
:100FB0000BD0DAF81810013111F048FA2C21504604
:100FC00011F044FA3CB1A24656E72C21504611F0EC
:100FD0003DFA002CF7D1D9F8100009F11803D9F81F
:100FE000084098420BD0D9F81810013111F02EFAB0
:100FF0002C21484611F02AFA3CB1A14636E72C21B3
:10100000484611F023FA002CF7D1D8F8100008F167
:101010001803D8F8084098420BD0D8F818100131BE
:1010200011F014FA2C21404611F010FA3CB1A04600
:1010300016E72C21404611F009FA002CF7D1019D4A
:10104000286905F11803AC6898420AD0A9690131F2
:1010500011F0FCF92C21284611F0F8F93CB101946B
:10106000F7E628462C2111F0F1F9002CF7D103B056
:10107000BDE8F08F2DE9F04F83B00190002800F01B
:101080000E81019BD3F80C80B8F1000F00F0EF80C7
:10109000D8F80C90B9F1000F00F0CF80D9F80CA06F
:1010A000BAF1000F00F0AF80DAF80C40002C00F02D
:1010B0009080E568002D75D0EE68002E5BD0F76853
:1010C000002F3DD0FA6802B3D0680092FFF7D2FF3C
:1010D000009A106902F11801D2F808B088420DD0C8
:1010E0009169013111F0B2F9009A2C21104611F0EA
:1010F000ADF9BBF1000F08D05A46E5E72C211046A8
:1011000011F0A4F9BBF1000FF6D1386907F118020C
:10111000D7F808B090420CD0B969013111F096F9B6
:101120002C21384611F092F9BBF1000F08D05F4630
:10113000C8E72C21384611F089F9BBF1000FF6D130
:10114000306906F11803D6F808B098420CD0B1699E
:10115000013111F07BF92C21304611F077F9BBF108
:10116000000F08D05E46AAE72C21304611F06EF938
:10117000BBF1000FF6D1286905F11803AE6898425B
:101180000AD0A969013111F061F92C21284611F02A
:101190005DF93EB135468FE72C21284611F056F90E
:1011A000002EF7D1206904F11803A56898420AD0EF
:1011B000A169013111F04AF92C21204611F046F9BC
:1011C0003DB12C4675E72C21204611F03FF9002D4A
:1011D000F7D1DAF810000AF11803DAF8084098425B
:1011E0000BD0DAF81810013111F030F92C215046EB
:1011F00011F02CF93CB1A24656E72C21504611F0D3
:1012000025F9002CF7D1D9F8100009F11803D9F805
:10121000084098420BD0D9F81810013111F016F996
:101220002C21484611F012F93CB1A14636E72C2199
:10123000484611F00BF9002CF7D1D8F8100008F14E
:101240001803D8F8084098420BD0D8F8181001318C
:1012500011F0FCF82C21404611F0F8F83CB1A04602
:1012600016E72C21404611F0F1F8002CF7D1019D32
:10127000286905F11803AC6898420AD0A9690131C0
:1012800011F0E4F82C21284611F0E0F83CB101946B
:10129000F7E628462C2111F0D9F8002CF7D103B03D
:1012A000BDE8F08F2DE9F8438468071D64B30E464E
:1012B0009146B84665694A463146A94528BF2A463F
:1012C0001AB1206912F04DFD08B9A5EB09000028FC
:1012D000D4E902321BDBA0461C46002CEAD147456C
:1012E00012D0D8F814404A46A14528BF22462AB158
:1012F0003046D8F8101012F034FD08B9A9EB0400FC
:1013000017EA200738BF47463846BDE8F883144639
:10131000002CCFD1E3E700BF2DE9F04FD1E900A3C6
:1013200083B081469E100AEB0304002E40F3D38065
:101330004FEA860B55460AEB860812E0687811F0F2
:1013400067FD002867D0A87811F062FD002868D0FA
:10135000E8782F1D11F05CFD002864D0474566D069
:101360003D46287811F054FD0028E7D115E014F827
:10137000020C11F04DFD00284FD014F8030C11F0B1
:1013800047FD00284BD014F8040C11F041FD002853
:101390004BD0013EA4F1040453D014F8010C11F019
:1013A00037FD0028E3D1AC4215D9641B09F10800D0
:1013B00000220F2C0194C9E9000217DC012C1ED178
:1013C0002B78C9F8044089F80830002303554846B3
:1013D00003B0BDE8F08F002309F10802484689F800
:1013E0000830C9E9002303B0BDE8F08F01A94846E1
:1013F00011F01AFA019BC9F80000C9F8083022461A
:10140000294612F0CCFD019CD9F800000023C9F850
:1014100004400355DBE70135BFE7013CC3E7023C6D
:10142000C1E70235B9E70335B7E7033CBBE7A4EBF7
:101430000803022B41D0032B13D0012B32D02546B9
:10144000ABE7A4EB0A03022B24D0032B1BD0012B08
:1014500005D114F8010C11F0DBFC0028A3D0544690
:10146000A1E71AF80B0011F0D3FC20B3787811F043
:10147000CFFC00285ED0B87811F0CAFC00284FD00D
:101480002546002E89D114F8010C11F0C1FC00286A
:1014900089D0013C14F8010C11F0BAFC002882D06C
:1014A000013CD6E71AF80B0011F0B2FC00280CBF83
:1014B0004546254671E745466FE71AF80B0011F0DF
:1014C000A7FC0028F7D098F8010011F0A1FC002833
:1014D000B5D1053561E7022B06D0032B19D0012BBE
:1014E0000ED0254654465EE79AF8000011F090FCB5
:1014F000F0B19AF8010011F08BFCB0B12546C9E7B4
:101500009AF8000011F084FC00280CBF55462546CF
:101510009FE79AF8000011F07BFC80B15746A5E7E1
:10152000BD1C002E7FF439AFADE70AF10105B1E72C
:101530005546AFE77D1C002E7FF42FAFA3E755463D
:10154000A1E700BF2DE9F0432DED028BADF5137D32
:101550000D460646114606A81C46FFF7DDFE079B12
:101560003BB1162300225B4906A811F0E9FA0130CD
:1015700048D0296812AF9C9A0CAD23683846009178
:101580004FF40071CDE90162534A0EAE12F04EFBEA
:1015900038462E60FEF704FF0F280DF114090446AB
:1015A000C9F8000058D8012852D13B7832462B7236
:1015B00000234FF400716C6048481355484A2B686B
:1015C00012F034FB4548FEF7EBFE014643480AF0B3
:1015D0000FFC2868B04203D0A968013110F036FF33
:1015E0009FED408A069808AB984203D008990131D4
:1015F00010F02CFFB0EE480A0DF5137DBDEC028B08
:10160000BDE8F0831022002306980DEB020104933D
:1016100011F0F4FB049B069A9342AAD093F8008041
:10162000B8F1000FA5D1B0F5803F2BD2030424D42C
:1016300007462946204604F07DFC002834D007EEFA
:10164000907AB8EEE78AD0ED047A28EE278AC9E7C7
:1016500000283CD13246ABE700224946284611F02B
:10166000E3F8D9F800302860AB602246394612F022
:1016700096FCD9F800402A689AE7C043C0F30E00F0
:101680004742D6E7019612AF29680EAE9C980CAD82
:101690002368154A0290384600914FF4007112F009
:1016A000C5FA38462E6075E79C9A039712AF2968F1
:1016B0000CAD2368384600914FF40071CDE901620A
:1016C0000EAE0A4A12F0B2FA38462E6062E7304691
:1016D000CBE700BF00740108C0730108FC070024B9
:1016E0009C73010820BCBE4C187401085474010896
:1016F000924B2DE9F04F93F800808DB0B8F1000FB8
:1017000002D00DB0BDE8F08F04460D4601468C486E
:1017100004F074FC4668002E00F0D580214688480D
:1017200004F06CFC0168002900F0D680DFF824B2D8
:101730002B46844A58460294CDE900614FF400716B
:1017400012F074FAB0F5007F80F086807E4F594623
:101750007E4812F01CFC0437BC68BC4200F0DB8001
:10176000DFF810A27A4EDFF8E4912BE094ED0A7ACC
:10177000524680213046B7EEC77A8DED007B12F0DD
:1017800055FA7F2868DC3046FEF70AFE0546B8F1B8
:10179000000F52D16F48FEF703FEAB1C0344FF2B32
:1017A0004BD86C4D2846FEF7FBFD3146284412F01D
:1017B00019FB694B1B880380204610F0BFFEB8421E
:1017C00004460FD0D4E90432022ACFD11A78492A2C
:1017D000CCD15A78442AC9D1204610F0AFFEB84285
:1017E0000446EFD15B487D25FEF7DAFD03465948F4
:1017F0005B4403F8015CFEF7D3FD584B411C1C8889
:101800002BF8004053480AF0F3FAB8F1000F3FF408
:1018100078AF4E4E3046FEF7C3FD034630463344A4
:1018200003F8015CFEF7BCFD03463046591CF45238
:101830000DB0BDE8F04F0AF0DBBA4846FEF7B0FD48
:101840002B18B3F5007F07D202350544FF2D45D88C
:101850004FF001084D46A5E7172308AE002205A961
:1018600006A83F4D0027CDE9053610F0DDFF059BAA
:101870000690044608930FCDE360AB882060A382F6
:101880002868AB79A26061602061A375354ADDE903
:1018900005310793CF544FF40071069B324812F084
:1018A000C5F93148FEF77CFD01462F480AF0A0FA41
:1018B0000698B0423FF425AF0899013110F0C6FDFB
:1018C0000DB0BDE8F08F21461D4804F097FB01687C
:1018D000264E00297FF42AAF244927E7202308AEAB
:1018E000002205A906A8224C0027CDE9053610F0F4
:1018F0009BFF059B0690054608930FCC2860696006
:10190000AA60EB600FCCAA6128616961EB61154A9E
:10191000DDE90531BDE75846FEF742FD03467D226D
:1019200058465B4403F8012CFEF73AFD0B4A034688
:1019300058461288591C2BF8032079E7D43000242C
:10194000540E0024A07401082C0E0024FC03002473
:101950007C030024FC0500241875010880AF0108F1
:10196000CC7401089C730108FC070024FC75010875
:10197000F4740108E87401082DE9F04FD0E900740F
:101980000D469946E11B794B9346794AC91085B0BB
:1019900003FB01F1914200F0E580EB1BA74280467A
:1019A000009300F0B680B1EB410F4FEA410000F226
:1019B0008280002840F0CF80182682460190DBF814
:1019C0000030E91BD9F800200AEB010BA2EB030958
:1019D00000220BF10800B9F10F0FCDF80C904AF876
:1019E0000100CBF8042000F2A180B9F1010F00F052
:1019F0009980B9F1000F40F0A5800023BD42CBF8DB
:101A0000049000F809301CD00AF1080307F1080916
:101A10003E4643F8083CD6E90012494567D0B06815
:101A2000183609F11809B542186043E9021203F1AA
:101A30001803EED1A5F11806F61B26F0070630367E
:101A40005644A54228D006F1080305F10801A9462D
:101A5000A346D9F80020D9F804408A4243F8083C4C
:101A600033D043F8082C09F1180959F8102C183113
:101A7000CB4543E9014203F11803EAD15C463D4AF4
:101A8000631B183BDB0802FB03F323F060430133C5
:101A900003EB430306EBC3062FB1D8F80810384612
:101AA000C91B10F0D3FC019BC8E900A6C8F8083098
:101AB00005B0BDE8F08F304E304610F0D8FC8319E9
:101AC000824600F11806019379E709F118091846D2
:101AD000621C009112F063FA00990346D94501F1A6
:101AE000180140F8044C03F11803B2D1C6E70132E3
:101AF00049461846183612F052FA56F8142C034686
:101B0000AE4209F1180940F8042C03F1180380D102
:101B100090E70131CFD2914228BF114601EB41013C
:101B2000CE00C9E71B788BF8083066E703A9584652
:101B3000009310F079FEEB1B039A4AF80300009B18
:101B4000CBF808204A46194612F029FADDF80C9025
:101B5000DBF8000051E7904228BF104600EB400040
:101B6000C600A9E7054810F037FE00BFABAAAAAA35
:101B700055555505ABAAAA0AF8FFFF7F1C75010849
:101B800000232DE9F04F0C6887B0064683600F46AE
:101B90001546C0E9003348682044A04200F0EC80BC
:101BA000194600F1FF3C631E13F8012FAA4208BF3B
:101BB00001319C45F8D10131724B994200F2DE802F
:101BC000002940F08D8089464FF000080394A0EB77
:101BD000040C039B4FEAAC020493002A62DD04EB81
:101BE00082020BE06378AB4274D0A378AB4273D02F
:101BF000E378AB4272D00434A24251D02378AB4296
:101C0000F0D14945039426D0DDF810B009F1080061
:101C1000C9F80480A4EB0B0AC9F80000BAF10F0F51
:101C2000CDF814A029D8BAF1010F22D19BF80030C9
:101C300089F80830C9F804A000F80A8073681833DE
:101C40007360D7E90003184484420ED00134D6E90A
:101C500001910394BBE703AB304604AAFFF78CFE67
:101C6000D7E9000318448442F0D1304607B0BDE8FC
:101C7000F08FBAF1000FDDD009E0002205A9484637
:101C800010F0D2FD059BC9F80000C9F80830524693
:101C9000594612F084F9DDF814A0D9F80000C9E71C
:101CA000A0EB040CBCF1020F0BD0BCF1030F04D06D
:101CB000BCF1010F09D00446A3E72378AB42A0D0C2
:101CC00001342378AB429CD001342378AB4218BF57
:101CD000044696E7013494E7023492E7033490E730
:101CE00001EB4101CC00204610F0C1FB8146D6E952
:101CF00000BAD34517D000F108030BF10801D8460C
:101D000043F8083CD8E9000288421ED008F11808C0
:101D1000183143E9020258F8102CC24503F11803A8
:101D200043F8182CECD1BBF1000F05D0B168584630
:101D3000A1EB0B0110F08AFB09EB0401D7E900408D
:101D4000C6E900992044B1603EE70132184601918E
:101D500008F1180812F023F958F8142C03460199D9
:101D6000C24540F8042C01F1180103F11803C7D152
:101D7000BBF1000FDAD1DFE71824B4E7024810F016
:101D80002BFD00BF55555505387501082DE9F04F5D
:101D90008C6883B08B4681460192002C4AD0D2E9F0
:101DA000008A6669554627694046B245394628BFCC
:101DB00035462A4615B111F0D4FF08B9AAEB060042
:101DC00000281ADBE2680AB11446EAE7A3468DB19F
:101DD0002A464146384611F0C4FF58B100284FF05A
:101DE00000034846B4BFC9E9003BC9E9004303B05A
:101DF000BDE8F08FA6EB0A00F0E7A268002AE3D165
:101E0000DBF80C30A3420ED02046A34610F09AFB1C
:101E1000019B0446D0E90476D3E9008AB2455546D1
:101E200028BF3546D3E700234846C9E9003403B04C
:101E3000BDE8F08F0C1DDBF80C30A342E4D1F2E7D3
:101E40002DE9F04F064685B02C200F46904610F045
:101E50000EFB00F11809044600F1100AC0F81090BA
:101E60003846FEF79DFA0F280546029035D801281E
:101E70001FD13B7849460DF1080B2376002365619D
:101E8000524658464B553146D8F80030A362FFF70A
:101E90007DFFDDE9023595B183B30120331D2A466C
:101EA000214610F051FB73690133736105B0BDE841
:101EB000F08F00283AD149460DF1080BDEE7206982
:101EC000814503D0A169013110F0C0FA2C212046D0
:101ED00005B0BDE8F04F10F0B9BA0DF1080B0022C3
:101EE0005046594610F0A0FC029B2061A3612A468F
:101EF000394612F054F8029D2169BFE7331D9D4217
:101F000012D0D4F814806F694246B84528BF3A46CB
:101F100032B129692069019311F023FF019B08B9AF
:101F2000A8EB0700C00FBAE70120B8E748460DF15B
:101F3000080BDCE72DE9F04F064685B02C200F4654
:101F4000904610F094FA00F11809044600F1100AC6
:101F5000C0F810903846FEF723FA0F280546029085
:101F600035D801281FD13B7849460DF1080B23765F
:101F700000236561524658464B553146D8F800302B
:101F8000A362FFF703FFDDE9023595B183B30120BA
:101F9000331D2A46214610F0D7FA73690133736165
:101FA00005B0BDE8F08F00283AD149460DF1080B85
:101FB000DEE72069814503D0A169013110F046FABE
:101FC0002C21204605B0BDE8F04F10F03FBA0DF1CE
:101FD000080B00225046594610F026FC029B206157
:101FE000A3612A46394611F0DAFF029D2169BFE755
:101FF000331D9D4212D0D4F814806F694246B84513
:1020000028BF3A4632B129692069019311F0A9FE2F
:10201000019B08B9A8EB0700C00FBAE70120B8E799
:1020200048460DF1080BDCE72DE9F04F064685B078
:102030002C200F46904610F01AFA00F118090446B9
:1020400000F1100AC0F810903846FEF7A9F90F28E1
:102050000546029035D801281FD13B7849460DF13D
:10206000080B237600236561524658464B5531468E
:10207000D8F80030A362FFF789FEDDE9023595B19B
:1020800083B30120331D2A46214610F05DFA73699F
:102090000133736105B0BDE8F08F00283AD149469D
:1020A0000DF1080BDEE72069814503D0A1690131FC
:1020B00010F0CCF92C21204605B0BDE8F04F10F00F
:1020C000C5B90DF1080B00225046594610F0ACFB83
:1020D000029B2061A3612A46394611F060FF029DF0
:1020E0002169BFE7331D9D4212D0D4F814806F6977
:1020F0004246B84528BF3A4632B129692069019362
:1021000011F02FFE019B08B9A8EB0700C00FBAE73A
:102110000120B8E748460DF1080BDCE72DE9F04354
:1021200089B0D0F8008004AF0297002900F0A380A6
:10213000064608460D46FEF733F90F28044601907F
:1021400058D8012852D12B783A468DF81030002308
:10215000039440461355DDE902422146FFF7A2F8F9
:10216000BC42804604D004992046013110F06EF93B
:1021700033680433984536D02C2010F078F900F1FC
:102180001807044600F1100907612846FEF708F910
:102190000F28064602904DD8012848D12B78237687
:1021A0003B4600216661374D4A46995502A8D8F84A
:1021B00028302946A362FFF7E9FDDDE9022646B390
:1021C0002B1DF01AB0FA80F04009002A18BF40F029
:1021D000010000283DD02C4B3246214610F0B4F9C6
:1021E0006B6901336B6109B0BDE8F083002847D10A
:1021F0003A46ACE7002201A902A810F015FB019BAA
:10220000029004932246294611F0C9FEDDE90142FD
:102210009DE72069874203D0A169013110F016F9CA
:102220002C21204609B0BDE8F04310F00FB928BBBF
:102230003B46B6E7002202A9484610F0F5FA029B99
:102240002061A3613246294611F0A9FE029E23694E
:10225000A7E7D4F8148077694246B84528BF3A46C4
:102260002AB13169206911F07CFD034608B9A8EB59
:102270000703D80FAFE7054810F0ABFA3846E1E79F
:102280003846BFE72C0E0024300E00246873010886
:102290002DE9F84F1F460B1D0E4605469A424CD0BD
:1022A0001446D7E900A8D2E904B9C8451ED8B8F148
:1022B000000F7ED042465946504611F052FD08B9F3
:1022C000A8EB0900002853DBC845424628BF4A4610
:1022D0008AB15846514611F044FD60B100280EDB2A
:1022E0000023C5E900432846BDE8F88FB9F1000F87
:1022F0003BD04A46DFE7A9EB08000028F0DA336953
:10230000A3422CD0204610F019F98146D0E9041BD5
:10231000C3455A4628BF42461AB1504611F021FD26
:1023200008B9A8EB0B00002851DB28463A46314695
:10233000FFF72CFD2846BDE8F88F4B69002BF4D041
:102340000C69D7E90018D4E90409C1454A4628BFF9
:1023500042465AB311F005FD40B30028E5DA0023E8
:102360002846C5E90034BDE8F88FB8F1000FC6DA99
:10237000F368A34215D0204610F0E4F88146D0E976
:10238000040BC3455A4628BF42461AB1514611F0C4
:10239000E8FC08B9ABEB08000028C6DAD9F80C3025
:1023A000D3B12846C5E90044BDE8F88FA9EB080081
:1023B000D3E7C9F10003002B9DDACB689A42F0D035
:1023C000204610F0BFF88146D0F814B0E2E7E36889
:1023D0002BB1C5E9009986E7C5E9003983E7C5E96E
:1023E000003480E72DE9F04F846885B081460F46C0
:1023F00000F1040AD1E9006B74B3D04665695A460E
:102400003146AB4528BF2A461AB1206911F0A9FC14
:1024100008B9A5EB0B00002804DBA368A0462BB18C
:102420001C46EBE7E368002BFAD14446A24514D0E2
:1024300065695D452A4628BF5A4622B13046216962
:1024400011F08FFC08B9ABEB0500002805DB04F1A7
:10245000280005B0BDE8F08F54462C2010F007F896
:102460003A4600F11808054652F8086B00F11003CF
:10247000C0F8108096423FD000210661D7F804B022
:10248000B8687960397200213A602246A86102A8D2
:10249000A9624946C5F814B0FFF7FAFEDDE9024724
:1024A000D7B1AAEB0700B0FA80F04009002C18BFA2
:1024B00040F0010000283CD053463A4629462C46BD
:1024C00010F042F8D9F8143004F128000133C9F8AB
:1024D000143005B0BDE8F08FB04504D0A96930468E
:1024E00001310FF0B3FF28462C210FF0AFFF04F1AC
:1024F000280005B0BDE8F08FD7F804B0314640465B
:1025000001930BF1010211F04AFD002122463E60C9
:10251000796002A839720021019BA9624946C5F879
:1025200014B0FFF7B5FEDDE90247002FDBD04646C9
:10253000B7E77C695A46A34528BF224622B13046F8
:10254000396911F00EFC08B9ABEB0400C00FB3E71A
:102550002DE9F04F846885B081460F4600F1040AEA
:10256000D1E9006B74B3D04665695A463146AB4534
:1025700028BF2A461AB1206911F0F3FB08B9A5EB70
:102580000B00002804DBA368A0462BB11C46EBE738
:10259000E368002BFAD14446A24514D065695D4535
:1025A0002A4628BF5A4622B13046216911F0D9FB8C
:1025B00008B9ABEB0500002805DB04F1280005B0E5
:1025C000BDE8F08F54462C20A0460FF050FF00F1DC
:1025D000180604460661D7E9003500F110070F2DF3
:1025E000029507D8012D51D11B780376B4460DF121
:1025F000080B12E00DF1080B0022384601935946F2
:1026000010F012F9029A019B2061A2612A46194634
:1026100011F0C5FC029DD4F810C0002165613B4655
:1026200042460CF8051000215846A1624946FFF7C2
:102630002FFEDDE90275C5B1AAEB0500B0FA80F006
:102640004009002F18BF40F0010028B353462A4626
:1026500021460FF079FFD9F8143004F12800013336
:10266000C9F8143005B0BDE8F08F2069864203D068
:10267000A16901310FF0EAFE20463C462C210FF003
:10268000E5FE04F1280005B0BDE8F08F002DADD0C7
:1026900030460DF1080BB9E767696E693A46B742F3
:1026A00028BF324622B12969206911F05AFB00B9CE
:1026B000B81BC00FCAE700BF2DE9F04F174685B021
:1026C00006462C20984689460FF0D1FE044600F1BC
:1026D000100AD7E9003500F118070F2D02950761A0
:1026E0003DD8012D26D11B78BC460DF1080B037691
:1026F0000021656153464A460CF805105846D8F843
:102700000010A1623146FFF7C3FDDDE90258B8F1C0
:10271000000F15D0002D36D00120331D4246214632
:102720000FF012FF2546736928460133736105B027
:10273000BDE8F08F002D3ED1BC460DF1080BD7E768
:102740002069874203D0A16901310FF07FFE204646
:102750002C210FF07BFE284605B0BDE8F08F0DF16F
:10276000080B002250460193594610F05DF8029A7A
:10277000019B2061A2612A46194611F010FC029DBE
:10278000D4F810C0B4E7331D984512D06769D8F863
:1027900014503A46AF4228BF2A463AB1D8F8101032
:1027A0002069019311F0DDFA019B00B9781BC00F7D
:1027B000B4E70120B2E738460DF1080BDBE700BFB4
:1027C0002DE9F04F8C6883B08B4681460192002C36
:1027D0004AD0D2E9008A6669554627694046B24523
:1027E000394628BF35462A4615B111F0BAFA08B95C
:1027F000AAEB060000281ADBE2680AB11446EAE7F1
:10280000A3468DB12A464146384611F0AAFA58B17E
:1028100000284FF000034846B4BFC9E9003BC9E9AE
:10282000004303B0BDE8F08FA6EB0A00F0E7A26812
:10283000002AE3D1DBF80C30A3420ED02046A34699
:102840000FF080FE019B0446D0E90476D3E9008AAC
:10285000B245554628BF3546D3E700234846C9E967
:10286000003403B0BDE8F08F0C1DDBF80C30A34240
:10287000E4D1F2E72DE9F84F1F460B1D0E46054641
:102880009A424CD01446D7E900A8D2E904B9C84509
:102890001ED8B8F1000F7ED042465946504611F07E
:1028A00060FA08B9A8EB0900002853DBC845424686
:1028B00028BF4A468AB15846514611F052FA60B1D3
:1028C00000280EDB0023C5E900432846BDE8F88F49
:1028D000B9F1000F3BD04A46DFE7A9EB080000281A
:1028E000F0DA3369A3422CD020460FF027FE814650
:1028F000D0E9041BC3455A4628BF42461AB1504688
:1029000011F02FFA08B9A8EB0B00002851DB28467C
:102910003A463146FFF754FF2846BDE8F88F4B6929
:10292000002BF4D00C69D7E90018D4E90409C1459B
:102930004A4628BF42465AB311F013FA40B3002862
:10294000E5DA00232846C5E90034BDE8F88FB8F180
:10295000000FC6DAF368A34215D020460FF0F2FD4F
:102960008146D0E9040BC3455A4628BF42461AB1F6
:10297000514611F0F6F908B9ABEB08000028C6DAA9
:10298000D9F80C30D3B12846C5E90044BDE8F88F2A
:10299000A9EB0800D3E7C9F10003002B9DDACB684F
:1029A0009A42F0D020460FF0CDFD8146D0F814B009
:1029B000E2E7E3682BB1C5E9009986E7C5E900398C
:1029C00083E7C5E9003480E72DE9F04F154685B06F
:1029D00006462C200F460FF04AFD2A6800F1180821
:1029E000044600F11009C0F81080D2E900B50F2D9F
:1029F00002953AD8012D23D19BF80030C4460DF141
:102A0000080A0376002165613A464B460CF805102A
:102A10005046A1623146FFF72DFFDDE90257AFB105
:102A2000002D34D00120331D3A4621460FF08CFD95
:102A30002546736928460133736105B0BDE8F08F00
:102A4000002D3CD1C4460DF1080ADBE72069804522
:102A500003D0A16901310FF0F9FC20462C210FF0C1
:102A6000F5FC284605B0BDE8F08F0DF1080A0022FC
:102A7000484651460FF0D8FE029B2061A3612A46CA
:102A8000594611F08CFA029DD4F810C0BAE7331DF4
:102A90009F4212D0D4F814807D694246A84528BFD1
:102AA0002A4632B139692069019311F05AF9019B24
:102AB00008B9A8EB0500C00FB6E70120B4E740460F
:102AC0000DF1080ADBE700BF2DE9F04F902091B02F
:102AD0000FF0CDFCAB4A0546AB4BAC4EAC4C05F110
:102AE000080705F1200CA9462F60AB46C5F818C0B1
:102AF00003CA0822A860E9606A60EA6105F1380249
:102B000003CB2A6305F1500269623188A14B298702
:102B1000B178286285F83A100321186800232688C6
:102B20006963A478AA640422E96405F168012B743E
:102B300085F8283085F83B3085F8524005F190043F
:102B4000A86685F85330A046A5F85060C5E918126C
:102B500085F86C3085F884308F4BEA67186805F18A
:102B600080030097C5F88000AB678C4B9E68D9E95D
:102B7000005A002E00F01A811F1D74695246294622
:102B8000A24528BF22461AB1306911F0EAF808B907
:102B9000A4EB0A00002804DBB36837462BB11E46BD
:102BA000EBE7F368002BFAD13E467D4B9E4200F0E6
:102BB000FE8074695246A24528BF224622B12846AB
:102BC000316911F0CEF808B9AAEB04000028C0F270
:102BD000EE8009F118094FF0000AC145C6F828A097
:102BE000C3D170484446009F03F0FEF980466D480B
:102BF00003F0FCF95D46804500F0168106ABD8F87D
:102C0000045008F120080493CDE9000BCDE90274CB
:102C1000002D00F081802846FDF7C2FB0F280446F6
:102C20000A9000F2EA80012840F0F6802B788DF8B7
:102C3000183006AB059403F804A0584B049FD3F852
:102C40000890059EB9F1000F4ED04C4603F1040BDD
:102C50006569324639462069AE4228BF2A4612B11C
:102C600011F07FF800B9A81B0028D4E9023203DB79
:102C700033B1A3461C46EBE71346002AFAD15C4663
:102C8000474B9C4230D03246D4E90415AE4228BFAF
:102C90002A461AB1384611F064F800B9701B0028B2
:102CA00022DB414A0CAB07CA03C31A708DF839A066
:102CB000D8F80440C4B1C346D4E90405092D2ED880
:102CC000002D3AD1E468002CF6D1C3450CD0DBE9E5
:102CD0000414082C33D909220CA811F042F808B9C1
:102CE000C4F1090000282DDA06AB9F4204D00699F2
:102CF000384601310FF0AAFB08F13C03009A08F1B5
:102D00001C08424500F08D80984606AB58F81C5CC4
:102D10000493002D7FF47FAF06AB00248AE70922DD
:102D20000CA911F01EF808B9A5F109000028C9DBAB
:102D3000A346A468002CBFD1C7E72A46F0E7002CC1
:102D400040F08B80DBED0A7AFDEEE77A17EE903AE1
:102D50000B2BC9D1124DD9F8144032463946D9F857
:102D60001000A64228BF224612B110F0FAFF00B9A7
:102D7000A01B0028D9E9023222DB2BB34D4699462D
:102D8000E9E700BF4875010854750108607501083E
:102D9000647501086875010870750108FC0D002450
:102DA000000E0024540E002478750108314E31467F
:102DB0000AAA3148CDF82890FFF706FE064608E734
:102DC0001346002ADBD1A9462A4B994547D0D9F8AA
:102DD00014403246A64228BF22462AB1D9F8101024
:102DE000384610F0BEFF00B9301B002837DBD9F899
:102DF00028300133C9F8283076E704A800220AA950
:102E00000FF012FD0A9B049006932246294611F00A
:102E1000C6F80A9C049B0DE700283FF47DAF06A886
:102E2000F3E7DDE90157039C2E4657F8080C87426B
:102E30000ED0B1681836183701310FF007FBB442D5
:102E4000F3D19021284611B0BDE8F04F0FF0FEBA43
:102E500018361837B442E8D1F3E722463CE704AB12
:102E600049460AAA04480A93FFF7AEFD049F81462B
:102E7000BDE700BF000E0024FC0D00242DE9F04F3B
:102E8000154687B007462C200E460FF0F0FA2D6845
:102E900000F1180A0446A846C0F810A058F8083BEC
:102EA000434500F0C9800361AB6883616B6807F13B
:102EB000040BC5F8008063610023B3456B602B727F
:102EC0003546A36204F1100302937BD02269D4F843
:102ED0001490736900929945326901922CD8B9F126
:102EE000000F00F0B0804A460393DDE9000110F0C6
:102EF00038FF039B08B9A9EB030000287FDB994545
:102F00004A4628BF1A46DAB10393DDE9001010F0F3
:102F100028FF039BA0B1002816DB2069824503D05F
:102F2000A16901310FF092FA20462C210FF08EFAA0
:102F3000284607B0BDE8F08F002B5DD01A46D3E7D6
:102F4000A3EB09000028E8DA3A690393B24200F0E3
:102F5000A98030460FF0F2FA4A468046039BD0E93A
:102F60000415A94528BF2A46002A00F09E80009833
:102F7000039310F0F6FE039B08B9A9EB05000028A7
:102F8000C0F28580029A394604A8FFF719FCDDE9F2
:102F90000458B8F1000FC0D0281E18BF0120C34547
:102FA00008BF40F0010000285AD05B464246214647
:102FB00025460FF0C9FA7B69284601337B6107B0CB
:102FC000BDE8F08F7B69002BDCD0D7F81080D4E906
:102FD0000439D8E9040600934E45324628BF4A46D4
:102FE000002A58D0194610F0BCFE08B9A6EB09001B
:102FF0000028C7DA0025CCE7B9F1000FA4DAFB6896
:10300000B34216D030460FF09DFA80464A46D0E9CA
:103010000405A94528BF2A461AB1009910F0A1FE5F
:1030200008B9A5EB09000028ACDAD8F80C00002894
:10303000B5D0B0460120B8E76A6841465046013233
:1030400010F0ADFF32E75A42002ABFF679AFFB68B5
:10305000B342EED030460FF075FA80464569E0E79E
:103060002369D4F814900093D8E9042301924B45C6
:103070001A4628BF4A4632B10293DDE9000110F03A
:1030800070FE029B08B9A9EB0300C00F8DE7F26840
:10309000A2B145467DE7A6EB0906002EBFF672AF4A
:1030A00010467CE7B046002576E7A9EB0503002B28
:1030B000BFF668AFF3681BB1012070E7B046D6E7F2
:1030C000B046D1E72DE9F04FB94BB5B008220DF16C
:1030D000480893E80300002388E803008DF8503087
:1030E000B44B9D68CDE91082002D00F07A811F1D40
:1030F0002C46B946D4E90406082E00F2A581002E1C
:1031000040F0B481E468002CF4D1B94500F06C8142
:10311000D9F81440072C40F288820822D9F8101000
:10312000404610F01EFE08B9C4F108000028C0F2A5
:103130005B81D9F828302C460DF160090C939E4B29
:10314000CDF8589093E8030008231793002389E8EB
:1031500003008DF86830BA46D5E90406082E00F25F
:103160006381002E40F08081ED68002DF4D1BA45D6
:1031700000F07E81DAF81450072D40F251820822C7
:10318000DAF81010484610F0ECFD08B9C5F1080057
:103190000028C0F26D81DAF8283025460B93874B62
:1031A0001B68ADF878301B0C8DF87A301EAB079396
:1031B0001C9303231D9300238DF87B30BA46AB4646
:1031C000079ED4E90405032D00F2A081002D40F0F4
:1031D000AE81E468002CF4D1BA455D4600F0D1819F
:1031E000DAF81440022C40F207820322DAF81010B9
:1031F000079810F0B6FD08B9C4F103000028C0F22A
:10320000C081DAF8283024AE2C460A936C4B229603
:103210001B68ADF890301B0C8DF89230032323937C
:1032200000238DF89330BA46A346D5E90404032C55
:1032300000F25D81002C40F07881ED68002DF4D122
:10324000BA455C4600F08281DAF81450022D40F253
:10325000E2810322DAF81010304610F082FD08B93E
:10326000C5F103000028C0F27181DAF82830254644
:10327000544A09932AAB089328930423CDE92932B1
:1032800000238DF8AC30BB46DDF820A00D95D4E9C5
:103290000405042D00F21C81002D40F04C81E468EF
:1032A000002CF4D1BB450D9D00F08A81DBF8144061
:1032B000032C40F2A6810422DBF81010089810F0CD
:1032C00050FD08B9C4F104000028C0F2798104233C
:1032D0003D49DBF828400DF1C00BCDE92F3100232B
:1032E000CDF8B8B08DF8C430BA460D94D5E90404D1
:1032F000042C00F2DE80002C40F01B81ED68002DD4
:10330000F4D1BA450D9C00F01881DAF81450032D61
:1033100040F27C810422DAF81010584610F021FDAA
:1033200008B9C5F104000028C0F20781DAF8283096
:103330004FF40071099A049302920B9B0A9A00932E
:1033400001920C9B214A2248039410F06FFC2E98A6
:10335000584503D0309901310FF078F82898089B30
:10336000984203D02A9901310FF070F82298B042A8
:1033700003D0249901310FF069F81C98079B9842FB
:1033800003D01E9901310FF061F81698484503D01B
:10339000189901310FF05AF81098404503D012994E
:1033A00001310FF053F80A48FCF7FAFF12E000BFB2
:1033B00048750108FC0D002454750108607501086A
:1033C000647501086261632B6261632D8475010875
:1033D000FC09002401469B4835B0BDE8F04F08F0D9
:1033E00007BD994B1F1DB94610AB2EAA49469648FA
:1033F0002E930DF160090792FFF740FD836A079A4B
:103400000C93924BCDF8589093E803000823179340
:10341000002389E803008DF868308B4B9D68002DF0
:1034200000F00E812C4696E60822494610F099FCE1
:1034300008B9A6F108000028FFF696AEAA46AD68C6
:10344000002D7FF489AE92E60822414610F089FCF7
:1034500008B9A6F108000028FFF654AEA146A468FA
:10346000002C7FF447AE50E63246DEE73246ECE70A
:103470002EAA16AB514674482E930892FFF7FEFC15
:10348000836A089A0B93724B1B68ADF878301B0C5B
:103490008DF87A301EAB07931C9303231D930023F2
:1034A0008DF87B30684B9C68002C00F0C780254667
:1034B00084E60422594610F054FC00B9201F00286D
:1034C000FFF61CAFAA46AD68002D7FF40FAF18E7DA
:1034D0000422514610F045FC00B9281F0028FFF6D1
:1034E000DEAEA346A468002C7FF4D1AEDAE6032258
:1034F000314610F036FC00B9E01E0028FFF69DAE04
:10350000AA46AD68002D7FF490AE99E603223146BD
:1035100010F027FC00B9E81E0028FFF65AAEA246BC
:10352000A468002C7FF44DAE56E62246E0E72A461A
:10353000EDE72246BEE72A46CBE72EAA51460F9278
:1035400041480FAAFFF79AFC8246EFE62EAA22AB6B
:1035500051463D482E930D92FFF790FC836A3D4CF7
:1035600009932AAB0D9A089328930423CDE92934B3
:1035700000238DF8AC30344B9C68002C5CD0254681
:1035800081E62EAA1CAB51462F4824AE2E930892FA
:10359000FFF774FC836A089A0A932F4B22961B68E4
:1035A000ADF890301B0C8DF8923003232393002349
:1035B0008DF89330244B9D68002D3BD02C4632E68D
:1035C0002EAA28AB594620480DF1C00B2E930D9220
:1035D000FFF754FC1C4B846A9D6804231F480D9A16
:1035E000CDF8B8B0CDE92F3000238DF8C430002DD0
:1035F0007FF47AAEBA46A1E7002C3FF402AE224631
:10360000F4E5002C3FF463AE224655E6002D3FF46E
:103610008DAE2A467FE6002D3FF427AE2A4619E6F6
:10362000002D3FF4B8AD2A46AAE5002C3FF481AD49
:10363000224673E5BA468AE7BB46C2E7BA46A1E727
:10364000BA4616E7FC090024FC0D00245475010855
:10365000607501086261632B647501086261632D06
:103660002DE9F04F81464FF4D2702DED028BADF570
:103670002F7D05F0ABF94FF4D37005F0A7F9D9E928
:1036800000031B1A182B08D90A23002236490FF011
:1036900057FA0130D9F8000042D003680DF1B80B99
:1036A00080690DF1A0082AAD304A4FF400710090F6
:1036B00058460DF1880A10F0B9FA5846C8F800507B
:1036C000FCF76EFE0F280446CAF8000037D8012820
:1036D00031D19BF8003088F808302A4600234FF497
:1036E0000071C8F8044022481355224AD8F8003027
:1036F00010F09CFA1E48FCF753FE01461C4808F0E7
:1037000077FBD8F80000A84204D0D8F8081001319F
:103710000EF09CFE0DF52F7DBDEC028BBDE8F08F09
:103720000A230022104918300FF00AFA013023D082
:10373000D9F80000B1E70028CFD028460AE00022DF
:10374000514640460FF070F8DAF80030C8F8000033
:10375000C8F808302246594610F021FCDAF800403B
:10376000D8F80020BAE700BF007601080C760108FF
:10377000FC0700249C73010840F2A7100DF1880A91
:1037800005F024F9D9F800300A2200211868002534
:103790000FF034FB03464FF4D4700DF1B80B0A93CD
:1037A00005F014F9D9F8003000210A2298690FF0C9
:1037B00025FB034640F2A9101C46099305F006F9C3
:1037C00024AA00234FF4D570CAF80020CAF8045088
:1037D0008AF808500F9305F0F9F82146BA4802F02C
:1037E0000DFC0446059040F2AB1005F0EFF82346BF
:1037F000A6681833089330AB0393CBF80030002E43
:1038000001F0D68230460DF1A008FCF7C9FD0F2863
:103810000446C8F8000000F26581012841F01F80CD
:1038200033788BF80830039B0022CBF80440A7497B
:1038300058461A5503230FF06AF9039B0B90DBF8E7
:103840000000984204D0DBF8081001310EF0FEFDB4
:103850009F4C40F2A510089B00250226109305F00E
:10386000B5F8A068FDF706FC221D2C20A560656157
:10387000E26022610EF0FBFDDDED097A00F1180730
:10388000944B00F11002F8EEE77A85761B88044627
:103890000761C0ED0A7A0383466112A88C49FEF7DE
:1038A00075FADDE91205002D00F00A8400388A4A15
:1038B00018BF0120954208BF40F00100002801F028
:1038C000BE802A46844B21460EF03EFE804A536954
:1038D000013353618149D9E900239B1ADA10302B57
:1038E00001FB02F240F2FC8102230DF1A008DFEDA2
:1038F0007C8A04930023CDF818900C93049B013329
:10390000934280F01A854FF4D77005F05FF8049B5E
:1039100003EB4304069B1E68059B06EBC4069F68E9
:103920002AABE400C8F8003077B13846FCF738FD20
:103930000F280546CBF8000000F2FC81012800F0BA
:10394000DB81002840F035832AAB00253146002674
:10395000C8F8045040465E5502F0ECFA03460028D1
:1039600000F0FC818768039BCBF80030002F01F04A
:10397000AC833846FCF714FD0F280546119000F281
:103980006482012800F05D82002840F0D484039A0C
:103990000023CBF804505355039ADBF80030DAF8D3
:1039A0000000934201F0948324ADA842DBE90112A8
:1039B00000F03C82CAE90031DAF80830CAF8082081
:1039C000002800F03782CBF80830CBF80000002345
:1039D000CBF804300370039BDBF80000984204D05E
:1039E000DBF8081001310EF031FDD8F800002AABE9
:1039F000984204D0D8F8081001310EF027FD40F2AB
:103A0000AF1004F0E3FF069B1E6804F11803344472
:103A10001E44059B9F68039BCBF8003077B1384666
:103A2000FCF7BEFC0F280546C8F8000000F26E81C6
:103A3000012800F06681002840F0BD82039800252F
:103A40000023CBF804503246214643550A9B09987F
:103A500000935B46FDF776FDDBF80000039BB0EEBC
:103A6000408A8DED0F0A984204D0DBF8081001312E
:103A70000EF0ECFC4FF4D87004F0A8FF0898DAE9D7
:103A800000652A463146FDF70DFC059A02F11C033C
:103A90008342079300F0EE80146A002C00F07E81D0
:103AA000994667692A46BD4228BF3A4622B1314647
:103AB000206910F056F900B9781B002826DBA368AE
:103AC00043B3A1461C46ECE7540E0024447601089B
:103AD0002C0E0024E4740108300E0024ABAAAAAA1C
:103AE000000000002A46414658460EF09DFED8F8D8
:103AF0000030CBF80000CBF808302246314610F0F9
:103B00004EFAD8F80040DBF800308DE6E368002B71
:103B1000D8D14C46079BA34200F0418167692A46F1
:103B2000BD4228BF3A4622B13046216910F019F94A
:103B300000B9E81B0028C0F23281D4ED0A7AB4EE55
:103B4000678AF1EE10FA00F0AF80DAF80450092D20
:103B500000F0BB820A2D00F0D8840C2D40F0AA861C
:103B60002A46C349DAF8000010F0FBF80B9B184313
:103B700040F07284089C51462046FEF7E9FCBD499E
:103B800080ED008A5846FDF7ADF82046DBE900528B
:103B90002946FDF787FB039B04469D4205D0DBF8D1
:103BA0000810284601310EF051FC079B9C4201F0A1
:103BB0000B81D4ED0A7A5846AF4938EE278AFDF7D3
:103BC00091F859460898FEF70DFC039B80ED008A9A
:103BD000DBF80000984204D0DBF8081001310EF049
:103BE00035FC0124A54910A8FEF798FAA44910A8AD
:103BF000FEF794FA9F495846FDF774F80898DBE9F8
:103C000000623146FDF74EFB039B05469E4205D000
:103C1000DBF80810304601310EF018FC079BAB4270
:103C200005D005F1280293499648FEF783F9002C48
:103C300041F01481934B9C68DAE90076002C00F087
:103C4000A78603F104093246D4E90405AE4228BF31
:103C50002A461AB1394610F084F800B9A81B00288A
:103C6000D4E90232C0F26183002B00F04F87A146F5
:103C70001C46E8E70A2D00F0A081072D40F00881DE
:103C80002A467E49304610F06CF8002840F09C81AE
:103C90000FAA7A490898FEF7D3F80FAA774979480E
:103CA000FEF7CEF801230C93069B0499D3E900326A
:103CB0000231D21A744B0491D21003FB02F29142EA
:103CC000FFF41CAE0C9B5BB14FF4E67004F07EFE7B
:103CD000DDE90901FDF70CFD40F2CD1004F076FEA0
:103CE000DAF8000024AB98423FF414ADDAF808107B
:103CF00001310EF0ABFB0DE53B7888F808302AABBC
:103D000024E63B7803988BF8083099E60022414678
:103D100058460EF089FDD8F80030CBF80000CBF8FB
:103D200008302A46394610F03AF9D8F80050DBF846
:103D3000000085E60022594640460EF075FDDBF88E
:103D40000030C8F80000C8F808302A46394610F09C
:103D500026F9DBF80050D8F80030F7E54B49072288
:103D6000039E03C9CBF800603060ADF8C410090CA5
:103D7000DAF800008DF8C6108BF80F30CBF804206D
:103D8000039910F00CF9DBF80420DAF800000023A6
:103D9000CAF804208354DBF8000018E61C462C20E7
:103DA000A1460EF064FBDAF8045000F11806044650
:103DB0000F2D00F11007DAF80030CBF80050066143
:103DC00000F2A782012D00F0FF8135BB30460021B3
:103DD00065613B464A46415514A80899C4ED0A8AD4
:103DE000FEF756FADDE91475002D00F0D580079B2B
:103DF000581BB0FA80F04009002F18BF40F00100B6
:103E0000002800F032852A46079B21460EF09CFBD5
:103E1000059AD36A0133D3628FE630462A461946A3
:103E200010F0BDF8DBF800502069D0E7CAE9003196
:103E3000CAF80820039BCBF8003030AB1846039338
:103E4000C5E53B788BF80830A1E5324611A9584604
:103E50000EF0EAFC119BCBF80000CBF808302A46A4
:103E6000394610F09CF8119DDBF8002090E500BF6A
:103E70008C76010874760108807601086C7601085A
:103E8000787501082C0E0024ABAAAAAAB873010801
:103E9000092D40F099802A46A54930460FF061FF70
:103EA000002840F091800FAAA1490898FEF7BCF8BD
:103EB000A04D0FAA9E49A048FEF7B6F84FF4E17056
:103EC00004F084FD05F00AFD9C4BAE6807469DF8A2
:103ED00024901860002E00F0C385291D0C46337C09
:103EE0004B45D6E9020255D334460646002EF6D19C
:103EF0008C4200F0B585237C4B4500F25C8304F1D5
:103F000018030793FCEEC87AD4F81C90CDED0C7A18
:103F10009DF83050B9F1000F02D100F04DBF91462D
:103F200099F81010D9E902328D4236BF1A460023A3
:103F30000123002AF3D1002B40F0EF838D4215D9E5
:103F4000079B4B4540F02C87012620200EF08FFA6E
:103F500005740146002547614A46079B3046C1E982
:103F600006550EF0F1FAA36A0133A362BDEEC88ACA
:103F700018EE103A0B2B7FF495AE40F2C31004F00C
:103F800025FDFEF7A1FDFFF79DF84FF4E27004F068
:103F90001DFD87E61646A9E72069864203D0A16980
:103FA00001310EF053FA20462C213C460EF04EFA19
:103FB000C3E52AA8C9E60398B3E62A466049304615
:103FC0000FF0CFFE002852D0059B1C6A002C00F099
:103FD000F381DDF81C9067692A46BD4228BF3A4646
:103FE00022B1314620690FF0BCFE00B9781B0028D1
:103FF00004DBA36833B1A1461C46ECE7E368002B61
:10400000FAD14C46079BA34200F0D78167692A4644
:10401000BD4228BF3A4622B1216930460FF0A1FEC9
:1040200000B9E81B0028C0F2C8810C2D00F08A837B
:10403000414B9C68002C00F0AB8403F10409D4E9E7
:104040000407AF423A4628BF2A461AB131460FF05C
:1040500088FE00B9781B0028D4E9023203DBB3B133
:10406000A1461C46EBE78AB113461C46E7E70FAAB8
:1040700033490898FDF75EFF0B9B002B00F0A681EB
:104080000FAA2F492C48FDF755FF0BE64C462D4B48
:104090009C420ED0D4E90417AF423A4628BF2A46C4
:1040A0001AB130460FF05DFE00B9E81B0028BFF6DC
:1040B000F9AD21460FAB52461F48FEF7FDFAF1E578
:1040C00020462C210EF0C2F904E4DAF800602A46FA
:1040D000174930460FF045FE002878D02A461A4985
:1040E00030460FF03EFE059B1C6A2346002840F038
:1040F000B581002C00F04B87079FD4F81490B9F1DC
:10410000000F23D04A4625693146092A284628BF90
:1041100009220FF026FE08B9A9F109000028A368BA
:1041200014DB002B00F04D8527461C46E5E700BF59
:1041300078750108DC3000242C0E0024D8300024CF
:1041400074760108300E002480760108E368002BA5
:10415000EBD1079BBB4200F0B6877D69002D40F094
:104160006987B44910A887ED0A8AFDF7D7FFB249DD
:1041700010A8FDF7D3FFB14910A8FDF7CFFFB04B52
:104180009C68DAE90067002C00F0028403F104095E
:104190003A46D4E90405AF4228BF2A461AB131464F
:1041A0000FF0DFFD00B9E81B0028D4E9023205DB7F
:1041B000002B00F06B83A1461C46E9E7002A00F0C3
:1041C000648313461C46E3E71B780376FEE54FF451
:1041D000DB7004F0FBFB059B1C6A9DF82430DAE9D8
:1041E00000670C93002C00F01982DDF81C906569C3
:1041F0003A46AF4228BF2A4622B1314620690FF025
:10420000B0FD00B9E81B002804DBA36833B1A14668
:104210001C46ECE7E368002BFAD14C46079BA3420F
:1042200000F0FD8165693A46AF4228BF2A4622B1B7
:10423000304621690FF095FD00B9781B0028C0F2C7
:10424000EE81D4ED0A7A0C98FCEEE77ACDED0D7A8A
:10425000FCEEC87A9DF83410CDED0C7A9DF8302034
:1042600005F05CFB40F2B71004F0B0FB059B1C6A44
:10427000DAE90067002C00F01082DDF81C90656917
:104280003A46AF4228BF2A4622B1314620690FF094
:1042900068FD00B9E81B002804DBA36833B1A14620
:1042A0001C46ECE7E368002BFAD14C46079BA3427F
:1042B00000F0F48165693A46AF4228BF2A4622B130
:1042C000304621690FF04DFD00B9781B0028C0F27F
:1042D000E58110A8574984ED0A8AFDF71FFF10A851
:1042E0005649FDF71BFF10A85649FDF717FF0FAA07
:1042F00051495348FDF798FE4FF4DC7004F066FB1B
:10430000FEF7E2FBFEF7DEFE40F2B91004F05EFBC2
:10431000C8E40022594638460D930EF085FADBF8C2
:1043200000200D9B2061A26178E5002A00F0ED835A
:1043300013461C4687E4039891E5039F202300223F
:104340004146C8F800305846CBF8007000260EF001
:104350006BFA3D4CD8F800300546CBF80000CBF89E
:1043600008300FCC28606960AA60EB600FCC286130
:1043700069614FF40071AA61EB61D8F80030DBF895
:104380000020CBF804303148D654314ADBF80030F5
:104390000FF04CFC2D48FCF703F801462B4807F0C2
:1043A00027FDDBF80000B8423FF49AACDBF80810B8
:1043B00001310EF04BF893E4079C21460FAB5246B7
:1043C0000898FEF779F9DAE900652EE6214B0C240E
:1043D000039D93E80700CBF8005085E807002246CC
:1043E0000B99CBF80440089C8BF814102946204602
:1043F000FCF758FF079A90423FF442AED0ED0A7A9C
:104400005846104938EE278AFCF76CFC594620467E
:10441000FDF7E8FF80ED008ADBF80000A84204D039
:10442000DBF8081001310EF011F8064910A8FDF76D
:1044300075FE25E66C76010878750108747601082A
:104440002C0E00248076010848760108FC07002421
:104450009C7301088C760108059B1B6ADAF80060E2
:104460001C46002B00F0FE83DDF81C9067692A468D
:10447000BD4228BF3A4622B1314620690FF071FC97
:1044800000B9781B002804DBA36833B1A1461C46A1
:10449000ECE7E368002BFAD14C46079BA34200F0FF
:1044A000E28367692A46BD4228BF3A4622B12169A4
:1044B00030460FF056FC00B9E81B0028C0F2D38349
:1044C0009A4B84ED0A8A9C68002C00F0618203F10B
:1044D0000409D4E90407AF423A4628BF2A461AB174
:1044E00031460FF03EFC00B9781B0028D4E90232B7
:1044F00005DB002B3FF4CBADA1461C46E9E7002AC3
:104500003FF4C4AD13461C46E3E7894C2A46DAF86B
:10451000000021460FF025FC064600289CD1039F91
:1045200094E807003B46CBF8007003C31A80059A55
:104530008BF81260146A079ECBF80450002C00F030
:104540003F81A946D4E904050A2D26D88DBBE4682D
:10455000002CF7D1079B4D46B34200F031817469BE
:10456000092C40F2CB832A46316903980FF0F9FBFE
:1045700008B9C4F10A000028C0F2228186ED0A8A37
:104580000B9B002B00F0888210A86A49FDF7C6FD3E
:10459000694910A8FDF7C2FD72E50A2239460FF0FD
:1045A000E0FB08B9A5F10A000028D0DB2646A46884
:1045B000CEE72A46F2E72C2007910DF058FF067649
:1045C000C6610746866200F1180680F810900799C8
:1045D000C0E90866237C994580F0DD81EB68A34241
:1045E00007930DD020460C910DF0ACFF037C0246E2
:1045F0000C994B4580F01284C368002B00F017859E
:10460000224601203C4607964C4B21460DF09CFF6C
:104610006B6901336B614A4B1F6873E4079C2C2064
:10462000A1460DF024FFDAF8045000F11806044604
:104630000F2D00F11007DAF80030CBF800500661BA
:1046400000F26D83012D40F05E831B7803763046C7
:10465000002165613B464A464155002116A8A162EA
:104660000899FDF715FEDDE91675002D00F0838130
:10467000381E079B18BF0120AB4208BF40F0010065
:10468000002800F055842A46079B21460DF05CFF68
:10469000059AD36A0133D362D3E5079C2C20A14647
:1046A0000DF0E5FEDAF8045000F1180604460F2D6F
:1046B00000F11007DAF80030CBF80050066100F284
:1046C0003A83012D40F04A831B780376304600215F
:1046D00065613B464A464155002118A8A1620899E8
:1046E000FDF7D6FDDDE91875002D00F09B81079BD5
:1046F000581BB0FA80F04009002F18BF40F00100AD
:10470000002800F02584079B2A4621460DF01CFF57
:10471000059AD36A0133D362DBE5236A99453FF4F6
:104720000FAC48460DF00EFF017C07E42C0E002470
:10473000747601086C76010878750108E030002471
:10474000D83000242A46B04930460FF00AFB0B9BB4
:1047500018437FF46DACAD495846FCF7C3FA08988E
:10476000DBE900522946FCF79DFD039B04469D4270
:1047700005D0DBF80810284601310DF067FE079BD5
:10478000A3421AD0D4ED0A7A5846A149283438EE0B
:10479000278AFCF7A7FA59460898FDF723FE80ED13
:1047A000008A58460EF061F898499A482246FDF76B
:1047B000C1FB974910A8FDF7B1FCDAE9006537E4C1
:1047C0002C200DF054FEDBF80050039A00F118077E
:1047D000044600F110039542076100F087831146FB
:1047E000DBF8049032460561CBF80010DBF80810C6
:1047F000C0F8149081610021CBF804108BF80810E8
:10480000002181621AA80899FDF742FDDDE91A36F8
:10481000002E00F0A882079A901BB0FA80F04009A1
:10482000002B18BF40F00100002800F0CC83324676
:10483000079B21460DF088FE05992346CA6A01327E
:10484000CA62DBF8000083ED0A8A039B98423FF4BA
:1048500097AEDBF8081001310DF0F8FD90E6002866
:1048600000F0A6820398FFF748B967696E693A4677
:10487000B74228BF324622B1296920690FF071FA88
:1048800000B9B81BC00FFFF7BEBA4C46624B9C4242
:104890003FF40FAC3A46D4E90415AF4228BF2A468C
:1048A0002AB130460FF05DFA00287FF4FFAB781B89
:1048B000FFF7FCBB072D7FF4CFAD2A465749DAF846
:1048C00000000FF04EFA00287FF4C6AD5349584659
:1048D000FCF708FA059B1C6ADBE90076002C00F067
:1048E0002981DDF81C9065693246AE4228BF2A4610
:1048F00022B1394620690FF034FA00B9A81B00280C
:1049000004DBA36833B1A1461C46ECE7E368002B47
:10491000FAD14C46079BA34200F00D8165693246EF
:10492000AE4228BF2A4622B1216938460FF019FA53
:1049300000B9701B0028C0F2FE80039B84ED0A8A38
:104940009F4205D0DBF80810384601310DF07EFD9E
:1049500010A82E49FDF7E2FB10A82D49FDF7DEFB5C
:1049600010A82F49FDF7DAFB0FAA2C492948FDF7BB
:1049700067FAFFF797B92069864203D0A169013130
:104980000DF064FD20462C213C460DF05FFD58E4FF
:10499000214CFFF78EBB2BD92B690791A34200F066
:1049A000638220460DF0CAFD037C024607994B4501
:1049B00040F2EF82E368002B00F056823C46012073
:1049C000079621E6AE680EB95AE21E46317CD6E95A
:1049D0000223894536BF134600220122002BF4D161
:1049E000002A40F04E82324689454FD82746344649
:1049F0000020FCF7AFF938462C210DF027FD04F11B
:104A00001803079307E600BF8C7601087476010847
:104A1000807601082C0E0024300E00246C760108EC
:104A2000787501082069864203D0A16901310DF033
:104A30000DFD20462C213C460DF008FD49E4D5F83B
:104A40001480B8F1010F40F20382324638462969DA
:104A50000FF087F908B9C8F10200C00FFEF731BFA7
:104A60002C200DF004FD0023044680F810900376FE
:104A7000C361836200F118030793C0E908336B69CF
:104A8000002B9FD02A69137C4B459BD2BE498A429A
:104A900040F0EF810120B7E5BC495846FCF722F908
:104AA0000898DBE900522946FCF7FCFB039B04460F
:104AB0009D4205D0DBF80810284601310DF0C6FCF8
:104AC000079BA3423FF460ADD4ED0A7A5846B04943
:104AD00038EE278AFCF706F959460898FDF782FC5C
:104AE000039B80ED008ADBF80000984204D0DBF8DD
:104AF000081001310DF0AAFC10A8A649FDF70EFB25
:104B0000A54910A8FDF70AFB8FE44C46A34B9C4235
:104B10003FF4CFAA3246D4E90415AE4228BF2A4654
:104B20002AB138460FF01DF900287FF4BFAA701B88
:104B3000FFF7BCBA079C2C200DF099FCDBF8006055
:104B4000039B00F11809054600F110079E42C0F8CA
:104B5000109000F04782194622463B460661CBF88A
:104B60000010DBF808108161DBF8041041610C9142
:104B70000021CBF804108BF80810002181621EA8D8
:104B80000899FDF785FBDDE91E47002F00F03A810B
:104B9000079BD81BB0FA80F04009002C18BF40F0EA
:104BA0000100002800F07A82079B3A4629462C46ED
:104BB0000DF0CAFC059AD36A0133D362DBF80070AA
:104BC000BBE6079BA3420ED029464D46092D2A4637
:104BD000304628BF09220FF0C4F808B9C5F1090012
:104BE000002880F221822C200DF041FCDAF80450DC
:104BF00000F1180607460F2D00F11003DAF80090B7
:104C0000CBF80050066100F26581012D40F054811F
:104C100099F800200276304600217D6122464155F8
:104C200000211CA8B9620899FDF732FBDDE91C548C
:104C3000002C00F0D980079B181BB0FA80F04009C7
:104C4000002D18BF40F00100002800F01882079BDB
:104C5000224639460DF078FC059AD36A0133D362B7
:104C6000FFF77FBA079C2C2027460DF000FCDAF8EE
:104C7000045000F1180604460F2D00F11003DAF875
:104C80000090CBF80050066100F20A81012D00F07F
:104C9000038145BB3046002165613A4641550021FC
:104CA00020A8A1620899FDF7F3FADDE92075002D2F
:104CB00000F08D80079B581BB0FA80F04009002F50
:104CC00018BF40F00100002800F0CA81079B2A4667
:104CD00021460DF039FC059AD36A0133D362DAE933
:104CE0000065FFF7EDBB30462A4649460C930FF0AE
:104CF00056F9DBF8005020690C9BCCE7002C3FF400
:104D00003DAC25462FE4002D3FF4A1AC30462A46A9
:104D100019460FF044F9DBF80050206998E40022AE
:104D2000594638460D930DF07FFDDBF800200D9BB2
:104D30002061A261EBE70022594638460C930DF042
:104D400073FDDBF800200C9B2061A2612A46194606
:104D50000FF025F9DBF800502069B8E4002D3FF48E
:104D6000B5AC3046F2E7AF4206D0A16928460C93B5
:104D700001310DF06BFB0C9B20462C210C930DF0A8
:104D800065FB0C9B5DE500BFE03000248C760108DC
:104D9000807601086C76010878750108300E0024D1
:104DA00099F81060AE4294BF00260126FFF7CDB8F7
:104DB000039B0024FEF738BD079A236A91469A4266
:104DC0007FF4AFACFFF7C0B80024FEF70BBF20693B
:104DD000864203D0A16901310DF038FB20462C2119
:104DE0003C460DF033FB7AE73869864203D0B96957
:104DF00001310DF02BFB38462C212F460DF026FB00
:104E0000FFF7AFB9B14504D0A969304601310DF0C3
:104E10001DFB28462C210DF019FBCFE6AC680CB920
:104E2000A6E01446207CD4E90232814536BF1A46FA
:104E300000230123002AF4D1002B40F09A8022465F
:104E400081457FF6D5AD07F118033C4607931EE672
:104E5000B8F1000F3EF435AD0122F7E5A54910A8E1
:104E6000FDF75CF9FEF7E6BE224607F118033C4663
:104E70000793107C484594BF00200120FFF7C4BB76
:104E80009D4EEB689E4200F0D88030460DF05AFBF4
:104E90003246017C0646A7E599F800200276F9E63D
:104EA0000022184659460C930DF0BEFCDBF800209A
:104EB0000C9B2061A26117E7002D3FF4ACAE304699
:104EC0002A4649460C930FF06AF8DBF8005038691F
:104ED0000C9BA1E60022184659460C930DF0A4FC49
:104EE000DBF800200C9B3861BA61E9E7DBF804903D
:104EF00011461546384609F101020C930FF04FF8A0
:104F000000210C9B3246CBF804101AA88BF808102D
:104F10000021C4F81490A162CBF800500899FDF765
:104F2000B7F9DDE91A36002E3FF426AF3D4672E4AC
:104F300066696F693246BE4228BF3A4622B1296986
:104F400020690EF00EFF00B9F01BC00FFFF79BBBEE
:104F500066696F693246BE4228BF3A4622B1296966
:104F600020690EF0FEFE00B9F01BC00FFFF7CBBBAF
:104F7000614C079BA34200F0A080204607910DF0F2
:104F8000E1FA03462246007C1C46079958E7079C35
:104F900029E6AA680AB954E00246137C4B45D2E9D7
:104FA000023092BF0023184601230028F4D1002BC1
:104FB00048D11346107C484541D21A4607F11803E0
:104FC0003C46079363E577694F453A4628BF4A4612
:104FD00022B1284631690EF0C4FE08B9A9EB0700DA
:104FE000C00F24E4DBF80420194648461E4601326F
:104FF0000EF0D5FFDBF804103B4622460C911EA8AC
:1050000069610021CBF80060CBF804108BF8081020
:105010000021A9620899FDF73BF9DDE91E47002F41
:105020003FF4F7AE4E46B3E52746FFF79AB83C4645
:1050300007962CE539693C46C8E5324626E5144614
:10504000D6E42D4AEB689A423FF4FDAE10460C912F
:1050500007920DF077FA079A0C9913460246A9E7D2
:1050600066696F693246BE4228BF3A4622B1296955
:1050700020690EF076FE00B9F01BC00F26E67D69B0
:1050800066692A46B54228BF324622B1216938698D
:105090000EF067FE00B9A81BC00FD8E57C690C9A1A
:1050A000A24228BF224622B1304639690EF059FE8D
:1050B00008B90C9B181BC00F76E507F118032246B0
:1050C0003C460793E3E41C468DE50C480DF081FB5C
:1050D000DBF80420002A3EF45AAE012A7EF450AEDA
:1050E0009BF808300370DBF80420DAF80000FEF7C4
:1050F0004EBE00BF80760108E030002468730108CE
:105100002DE9F04F0446ADF5117D4FF4C87003F062
:105110005DFC6168002940D0B54A23681278012AF5
:1051200043D01A787B2A40D0012905D0303A092A89
:1051300002D85A783A2A50D010AF0AAC0CAEAD4A19
:105140004FF4007138460EF071FD384626600DF1BF
:105150001C08FBF725F90F280546C8F800002BD8D6
:1051600001281ED13B782372324600234FF4007190
:105170006560A1485355A14A23680EF057FD9E482B
:10518000FBF70EF901469C4806F032FE2068B0425B
:1051900003D0A16801310DF059F90DF5117DBDE87D
:1051A000F08F0028E0D030460FE018460DF5117D55
:1051B000BDE8F04F06F01CBE0022414620460DF02F
:1051C00033FBD8F800302060A3602A4639460EF041
:1051D000E6FED8F800502268C7E70DF11C0821460A
:1051E0004046FCF7CDFC864AD8E9003AAAEB030614
:1051F0000293482E4FEAE60302FB03F301D9DA07D4
:105200004DD5226810AF0AAC0CAE4FF4007100927D
:1052100038467C4A0EF00AFD38462660FBF7C0F897
:105220000F280546069000F28380012840F0EE80AA
:105230003B782372324600234FF4007165606E485C
:1052400053556E4A23680EF0F1FC6B48FBF7A8F843
:105250000146694806F0CCFD2068B04203D0A16841
:1052600001310DF0F3F8029B53450ED01D4603F1BA
:10527000080454F8080CA0426CD0A96818351834FA
:1052800001310DF0E3F8AA45F3D1029B002B84D045
:10529000D8F808101846C91A0DF0D8F87DE74FF471
:1052A000CD7003F093FB584B9E4200F2C280304613
:1052B00010AF0DF0DCF8831938601190BB60029BD1
:1052C0000390534500F0A78000F1180599460AACF9
:1052D000CDE904670EE0012E39D13B7805F8103C8A
:1052E00009F118094FF0000345F8146C1835CA4548
:1052F000835534D0A5F11000A5F11802AB4645F84E
:10530000180CD9E900760F2E2660E4D91046214604
:1053100000220DF089FA226845F8180C45F8102C87
:10532000324639460EF03BFE266855F8180CD7E792
:10533000002206A920460DF077FA069B2060A360A4
:105340002A4639460EF02BFE069D226873E7002E92
:10535000C6D0E5E718351834AA458AD195E7DDE9C6
:1053600004673846C7F804B0FEF77AF9039B9B45FB
:105370000ED01D4603F1080454F8080CA04231D0A9
:10538000A9681835183401310DF060F8AB45F3D138
:10539000314603980DF05AF840F29B1003F016FBCB
:1053A000029D05F1080454F8080C844215D0A96840
:1053B0001835183401310DF049F8AA45F3D1029B94
:1053C000002B3FF4EAAED8F808101846C91A0DF5BC
:1053D000117DBDE8F04F0DF039B818351834AA45E5
:1053E000E1D1ECE718351834AB45C5D1D0E700BFA3
:1053F000440E00249C760108FC0700249C730108DD
:10540000ABAAAAAAB4760108F8FFFF7F00283FF4F0
:1054100011AF304694E7044678603846FEF720F92D
:10542000204631460DF012F840F29B1003F0CEFA00
:10543000C5E70DF0CBF900BF2DE9F04F9C4DB3B09F
:105440000FCD26AC2EAFA2460FC495E8030084E82A
:1054500003005AF8045B2C97002D00F0C183284606
:10546000FAF79EFF0F280446209000F202830128DD
:1054700040F0FA822B788DF8B8303A4600232D940C
:1054800013558C4B9C68DDE92C65002C00F03483AF
:1054900003F10408A946C34665694A46A94528BFE1
:1054A0002A4622B1314620690EF05BFC08B9A5EB13
:1054B0000900002806DBA368002B00F06382A346E6
:1054C0001C46E9E7E368002BFAD15C467A4B4D466F
:1054D0009C4200F05C82D4F814902A464D4528BFC7
:1054E0004A4622B1216930460EF03BFC08B9A5EBD3
:1054F00009000028C0F24B820023BE42A36200F0E4
:1055000054822E99304601310CF0A0FF2CAB53454C
:105510009FD100246948CDE9174400F065FD82461B
:10552000664800F063FD824500F043830F940A94BF
:1055300008940990CDE91244CDE91044CDE90D4419
:10554000CDE90B44DAF804502C97002D00F00583C8
:105550002846FAF725FF0F280446269000F26782B6
:10556000012840F0C6822B788DF8B8303B464FF0CA
:1055700000022D941A55DDF8B4B0BBF1000F00F015
:105580006E824C4B2C9E9C68B4B3C146D4E9040592
:10559000AB450DD3D5B9A5EB0B000028D4E90232F9
:1055A00010DBB3B1A1461C46D4E90405AB45F1D2EA
:1055B0005A4631460EF0D5FB0028ECD00028D4E93D
:1055C0000232EEDA22B113461C46EDE72A46F0E736
:1055D0004C46444510D0D4E90415AB4500F2608236
:1055E0005A4630460EF0BDFB08B9ABEB050000286B
:1055F00002DBA26A0132A262089BBBF1080FDAF853
:1056000018402344089300F05082BBF1040F40F08F
:105610008D823378622B00F07382BE4204D0304614
:105620002E9901310CF012FF0AF13C0A099B5345F7
:1056300088D1234B1CAA93E8030008231A921B93DA
:105640000023C2E900018DF878301A4B9D68002DC7
:105650003AD02C46C246D4E90406082E00F2D7817F
:10566000002E40F01582E468002CF4D1C2452CD005
:10567000DAF81440072C40F282820822DAF810107F
:105680001CA80EF06EFB08B9C4F1080000281CDB52
:10569000DAF828302C460B4A159322AB0993209355
:1056A0000423CDE9213200238DF88C3026E000BFA1
:1056B00050730108140E0024180E0024540E002408
:1056C000547501086261632DC2461AAB51462CAA7B
:1056D000A5482C93FDF7D2FB836AA449159322AB0E
:1056E000099320930423CDE9213100238DF88C30D8
:1056F0009D4B9D68002D00F0F9802C46C246A146C6
:10570000099ED5E90404042C00F26381002C40F0CA
:10571000C381ED68002DF4D1C2454C4600F0E7800E
:10572000DAF81450032D40F220820422DAF8101027
:1057300009980EF016FB08B9C5F104000028C0F264
:10574000D680DAF8283025460DF1A00A1493884B4C
:10575000CDF898A01B68ADF8A0301B0C8DF8A230D6
:105760000323279300238DF8A330C346D4E904060E
:10577000032E00F21F81002E40F08C81E468002C83
:10578000F4D1C34500F0D280DBF81440022C40F283
:10579000E7810322DBF8101050460EF0E2FA08B958
:1057A000C4F103000028C0F2C180724BDBF82890DE
:1057B0001B682C97ADF8B8301B0C8DF8BA3003235A
:1057C0002D9300238DF8BB304646D5E90404032C05
:1057D00000F20E81002C40F06181ED68002DF4D1C3
:1057E00046450DD07469022C40F2C4810322316910
:1057F00038460EF0B6FA08B9C4F10300002807DAFB
:105800002CAB314619AA58481993FDF737FB0646C9
:10581000B36A4FF40071149A06930D9B049202939D
:10582000159B0E9A01930C9B03920093524A0B9B7B
:105830005248CDF814900EF0F9F92C98B84203D0E4
:105840002E9901310CF002FE2698504503D028997C
:1058500001310CF0FBFD2098099B984203D022995E
:1058600001310CF0F3FD1A981CAB984203D01C993F
:1058700001310CF0EBFD4148FAF792FD01463F483B
:1058800006F0B6FA322006F0A3FF18AB139C119D68
:10589000DDF83C90DDF84880109F0A9E4246039355
:1058A00017AB39463046019402934B46009500F001
:1058B000DDF918990794179C089B314ACDF8188098
:1058C00005950497CDF80C9000942C48CDE901166D
:1058D0004FF400710EF0AAF92848FAF761FD01466D
:1058E000264806F085FA33B0BDE8F08FC24620ABFB
:1058F00051462CAA1C482C93FDF7C0FA836A0DF17F
:10590000A00A14931A4BCDF898A01B68ADF8A030EC
:105910001B0C8DF8A2300323279300238DF8A330AE
:10592000114B9C680CB125461FE7C34626AB594670
:105930002CAA0D482C93FDF7A1FA0B4BD0F8289018
:105940009D680C4B2C971B68ADF8B8301B0C8DF87C
:10595000BA3003232D9300238DF8BB30002D7FF444
:1059600033AF46464CE700BF140E00246261632D3E
:105970006075010864750108E0760108FC0B0024DD
:105980007C770108984B4D469C427FF4A4AD2CAB2C
:10599000214620AA95482093FDF770FA2C9E0446D4
:1059A0000023BE42A3627FF4ACAD2CAB53457FF421
:1059B00050ADAEE5032251460EF0D3F900B9F01E0A
:1059C0000028FFF6DBAEA346A468002C7FF4CEAE21
:1059D000D7E6042231460EF0C4F900B9201F002892
:1059E000FFF697AEAA46AD68002D7FF48AAE93E627
:1059F000032239460EF0B5F900B9E01E0028FFF683
:105A0000ECAE2E46AD68002D7FF4DFAEE8E608224E
:105A10001CA90EF0A6F908B9A6F108000028FFF6A7
:105A200022AEA246A468002C7FF415AE1EE600222A
:105A300026A92CA80CF0F8FE269B2C902E9322462B
:105A400029460EF0ACFA269C2C9B4FF000022D94B8
:105A50001A55DDF8B4B0BBF1000F7FF492AD2C986D
:105A6000B8427FF4DDADDFE500283FF406AD3846EF
:105A700007E0002220A92CA80CF0D6FE209B2C9039
:105A80002E93224629460EF08AFA209C2C9AF5E4A1
:105A90003246BDE732468EE722469BE72246A8E71C
:105AA000002D3FF4A2AD2A469BE55A4650493046A8
:105AB0000EF057F958B15A464E4930460EF051F99A
:105AC00000287FF4AAAD0F9B23440F93A5E50A9B02
:105AD000DAF8380023440A9338B14749FAF700FC52
