:020000040800F2
:10000000000008241DCB000825C0000831C00008EE
:1000100035C0000839C000083DC0000800000000DD
:1000200000000000000000000000000041C00008C7
:1000300045C000080000000049C000084DC000088D
:1000400071CB000871CB000871CB000871CB0008A0
:1000500071CB000871CB000871CB000871CB000890
:1000600071CB000871CB000871CB000851C00008AB
:1000700071CB000871CB000871CB000871CB000870
:1000800071CB000871CB000871CB000871CB000860
:1000900071CB000871CB000871CB000871CB000850
:1000A00071CB000871CB000871CB000871CB000840
:1000B0005DC0000871CB000871CB000871CB00084F
:1000C00071CB000871CB000871CB000871CB000820
:1000D00071CB000869C0000875C0000881C0000825
:1000E0008DC0000871CB00080000000071CB000833
:1000F00071CB000871CB000871CB000871CB0008F0
:1001000071CB000871CB000871CB000871CB0008DF
:1001100095C0000871CB000871CB000871CB0008B6
:1001200071CB000871CB000871CB000871CB0008BF
:1001300071CB000871CB000871CB000871CB0008AF
:1001400000000000000000000000000000000000AF
:1001500071CB000871CB000871CB000871CB00088F
:1001600071CB000871CB000871CB000871CB00087F
:1001700071CB000871CB000871CB000800000000B3
:1001800071CB000871CB000871CB000871CB00085F
:1001900071CB000871CB000871CB000871CB00084F
:1001A00071CB000871CB000871CB000871CB00083F
:1001B00071CB000871CB000871CB000871CB00082F
:1001C00071CB000871CB000871CB000871CB00081F
:1001D00071CB000871CB000871CB000871CB00080F
:1001E00071CB000871CB000871CB000871CB0008FF
:1001F00071CB000871CB000871CB000871CB0008EF
:1002000071CB000871CB000871CB000871CB0008DE
:1002100071CB000871CB000871CB000871CB0008CE
:1002200071CB000871CB000871CB00080000000002
:1002300071CB000871CB00080000000071CB0008F2
:1002400071CB000871CB000871CB000871CB00089E
:1002500071CB000871CB000871CB000871CB00088E
:1002600071CB000871CB000871CB000871CB00087E
:1002700071CB000871CB000871CB000800000000B2
:1002800071CB000871CB000871CB000800000000A2
:080290000000000071CB000822
:1002A00010B5054C237833B9044B13B10448AFF3B0
:1002B00000800123237010BD5803002400000000BB
:1002C000F076010808B5034B1BB103490348AFF3AF
:1002D000008008BD000000005C030024F0760108E7
:1002E00010F8012B11F8013B012A28BF9A42F7D0E0
:1002F000D01A70470000000000000000000000005D
:1003000001F0FF01102A2BDB10F0070F08D010F8C6
:10031000013B013A8B422DD010F0070F42B3F6D1CA
:10032000F0B441EA012141EA014122F007047FF0E3
:1003300000070023F0E80256083C85EA010586EA3A
:10034000010685FA47F5A3FA87F586FA47F6A5FA76
:1003500087F68EB9EED1F0BC01F0FF0102F0070282
:1003600032B110F8013B013A83EA010313B1F8D12D
:100370000020704701387047002D06BF354603380E
:10038000073815F0010F07D1013015F4807F02BF47
:10039000013015F4C03F0130F0BC0138704700BF98
:1003A000034613F8012B002AFBD1181A01387047B5
:1003B00081F0004102E000BF83F0004330B54FEA16
:1003C00041044FEA430594EA050F08BF90EA020F83
:1003D0001FBF54EA000C55EA020C7FEA645C7FEA16
:1003E000655C00F0E2804FEA5454D4EB5555B8BF39
:1003F0006D420CDD2C4480EA020281EA030382EAAA
:10040000000083EA010180EA020281EA0303362D3B
:1004100088BF30BD11F0004F4FEA01314FF4801C0E
:100420004CEA113102D0404261EB410113F0004F20
:100430004FEA03334CEA133302D0524263EB4303D7
:1004400094EA050F00F0A780A4F10104D5F1200E75
:100450000DDB02FA0EFC22FA05F2801841F10001D0
:1004600003FA0EF2801843FA05F359410EE0A5F1A4
:1004700020050EF1200E012A03FA0EFC28BF4CF0D5
:10048000020C43FA05F3C01851EBE37101F000458B
:1004900007D54FF0000EDCF1000C7EEB00006EEB98
:1004A0000101B1F5801F1BD3B1F5001F0CD3490822
:1004B0005FEA30004FEA3C0C04F101044FEA445279
:1004C00012F5800F80F09A80BCF1004F08BF5FEA00
:1004D000500C50F1000041EB045141EA050130BDE0
:1004E0005FEA4C0C404141EB0101013C28BFB1F5F2
:1004F000801FE9D291F0000F04BF01460020B1FA3D
:1005000081F308BF2033A3F10B03B3F120020CDA0F
:100510000C3208DD02F1140CC2F10C0201FA0CF0ED
:1005200021FA02F10CE002F11402D8BFC2F1200C52
:1005300001FA02F120FA0CFCDCBF41EA0C01904008
:10054000E41AA2BF01EB0451294330BD6FEA040451
:100550001F3C1CDA0C340EDC04F11404C4F120023C
:1005600020FA04F001FA02F340EA030021FA04F34E
:1005700045EA030130BDC4F10C04C4F1200220FAA5
:1005800002F001FA04F340EA0300294630BD21FAE3
:1005900004F0294630BD94F0000F83F4801306BFA9
:1005A00081F480110134013D4EE77FEA645C18BF9D
:1005B0007FEA655C29D094EA050F08BF90EA020F34
:1005C00005D054EA000C04BF1946104630BD91EA2C
:1005D000030F1EBF0021002030BD5FEA545C05D12F
:1005E0004000494128BF41F0004130BD14F580046E
:1005F0003CBF01F5801130BD01F0004545F0FE41E2
:1006000041F470014FF0000030BD7FEA645C1ABF16
:10061000194610467FEA655C1CBF0B46024650EA4D
:10062000013406BF52EA033591EA030F41F4002179
:1006300030BD00BF90F0000F04BF0021704730B5FF
:100640004FF4806404F132044FF000054FF00001D4
:1006500050E700BF90F0000F04BF0021704730B595
:100660004FF4806404F1320410F0004548BF40426A
:100670004FF000013EE700BF42004FEAE2014FEABF
:1006800031014FEA02701FBF12F07F4393F07F4F9A
:1006900081F06051704732F07F4208BF704793F09D
:1006A0007F4F04BF41F40021704730B54FF46074B0
:1006B00001F0004521F000411CE700BF50EA0102B3
:1006C00008BF704730B54FF000050AE050EA01025C
:1006D00008BF704730B511F0004502D5404261EBCC
:1006E00041014FF4806404F132045FEA915C3FF40D
:1006F000D8AE4FF003025FEADC0C18BF03325FEAAA
:10070000DC0C18BF033202EBDC02C2F1200300FA5A
:1007100003FC20FA02F001FA03FE40EA0E0021FA7F
:1007200002F11444BDE600BF80F0004002E000BFCB
:1007300081F0004142001FBF5FEA410392EA030FCC
:100740007FEA226C7FEA236C6AD04FEA1262D2EB16
:100750001363C1BFD218414048404140B8BF5B421B
:10076000192B88BF704710F0004F40F4000020F0B4
:100770007F4018BF404211F0004F41F4000121F0CA
:100780007F4118BF494292EA030F3FD0A2F1010214
:1007900041FA03FC10EB0C00C3F1200301FA03F152
:1007A00000F0004302D5494260EB4000B0F5000F75
:1007B00013D3B0F1807F06D340084FEA310102F134
:1007C0000102FE2A51D2B1F1004F40EBC25008BFE6
:1007D00020F0010040EA03007047490040EB0000B0
:1007E000013A28BFB0F5000FEDD2B0FA80FCACF1B1
:1007F000080CB2EB0C0200FA0CF0AABF00EBC250DE
:1008000052421843BCBFD0401843704792F0000FCB
:1008100081F4000106BF80F400000132013BB5E71E
:100820004FEA41037FEA226C18BF7FEA236C21D094
:1008300092EA030F04D092F0000F08BF08467047F9
:1008400090EA010F1CBF0020704712F07F4F04D1C7
:10085000400028BF40F00040704712F100723CBFDA
:1008600000F50000704700F0004343F0FE4040F404
:10087000000070477FEA226216BF08467FEA2363C2
:100880000146420206BF5FEA412390EA010F40F4AD
:10089000800070474FF0000304E000BF10F00043F9
:1008A00048BF40425FEA000C08BF704743F09643E0
:1008B00001464FF000001CE050EA010208BF7047FB
:1008C0004FF000030AE000BF50EA010208BF704782
:1008D00011F0004302D5404261EB41015FEA010C97
:1008E00002BF84460146002043F0B64308BFA3F18F
:1008F0008053A3F50003BCFA8CF2083AA3EBC25371
:1009000010DB01FA02FC634400FA02FCC2F120028F
:10091000BCF1004F20FA02F243EB020008BF20F0C6
:100920000100704702F1200201FA02FCC2F120022C
:1009300050EA4C0021FA02F243EB020008BF20EA21
:10094000DC70704753B94AB9002908BF00281CBFA2
:100950004FF0FF314FF0FF3000F0C2B9ADF1080C9D
:100960006DE904CE00F040F8DDF804E0DDE9022393
:1009700004B0704708B502460B4643EC172BB5EEA2
:10098000C07BF1EE10FA03D4BDE8084000F00CB8CB
:10099000B1EE477B51EC170B00F006F8404261EBDB
:1009A000410108BD000000009FED0B6B41EC170BEF
:1009B0009FED0B5B27EE066BBCEEC66BB8EE464BAD
:1009C000A4EE457BFCEEC77B16EE101A17EE900ADC
:1009D000704700BFAFF30080000000000000F03D52
:1009E000000000000000F0412DE9F047089D8E4610
:1009F00004468846002B4AD18A42174662D9B2FA89
:100A000082F64EB1C6F1200301FA06F820FA03F38C
:100A1000B74043EA0808B4404FEA174E1FFA87FC74
:100A2000B8FBFEF1230C0EFB118843EA084301FBDF
:100A30000CF29A4209D9FB1801F1FF3080F0EA80EC
:100A40009A4240F2E78002393B449A1AA3B2B2FBC1
:100A5000FEF00EFB102243EA024300FB0CFC9C4517
:100A600009D9FB1800F1FF3280F0D6809C4540F296
:100A7000D3803B44023840EA0140A3EB0C03002141
:100A80001DB1F3400022C5E90032BDE8F0878B427A
:100A900005D90DB1C5E9000100210846F5E7B3FA13
:100AA00083F1002946D1734502D3824200F20581C9
:100AB000841A6EEB030201209046002DE5D0C5E9B3
:100AC0000048E2E7002A00F09080B2FA82F6002E99
:100AD00040F0A4808A1A030C4FEA174E80B2BCB2D1
:100AE0000121B2FBFEFC0EFB1C2243EA024304FB85
:100AF0000CF29A4207D9FB180CF1FF3802D29A4245
:100B000000F2E080C4469B1AB3FBFEF20EFB1233E8
:100B100040EA034302FB04F49C4207D9FB1802F1AC
:100B2000FF3002D29C4200F2CA8002461B1B42EAFE
:100B30000C40A5E7C1F120068B4022FA06F71F43BF
:100B40000EFA01F420FA06F32EFA06FE4FEA1749D0
:100B5000234300FA01F81FFA87FCBEFBF9F01C0CD6
:100B600009FB10EE44EA0E4400FB0CFEA64502FA17
:100B700001F209D93C1900F1FF3A80F09C80A645AA
:100B800040F2998002383C44A4EB0E041FFA83FE25
:100B9000B4FBF9F309FB13444EEA044403FB0CFCD9
:100BA000A44508D93C1903F1FF3E80F08280A4459A
:100BB0007FD9023B3C4443EA0040A4EB0C04A0FB79
:100BC00002EC64457346E14662D35FD05DB1B8EB99
:100BD000030264EB090404FA06F622FA01F31E4349
:100BE000CC40C5E9006400214FE7B1FBF2FC010CE9
:100BF00041EA0E4180B240EA01423B4638463C465B
:100C0000B846BE462026B1FBF7F1A2EB080241EA46
:100C10000C4166E7014618E710462CE7C6F12002B2
:100C20002EFA02F3B740B14020FA02F24FEA174E13
:100C30000A43B3FBFEF8BCB20EFB1833110C41EAB9
:100C4000034108FB04F9B04089454FEA104380B2E4
:100C50003ED9791808F1FF3C01D289451FD8A1EB94
:100C60000901B1FBFEF909FB04F80EFB191192B260
:100C700042EA0142424529D2BA1809F1FF31C4D2F1
:100C80004245C2D2A9F102013A44BEE7F0459DD2E5
:100C9000BEEB02036CEB070C0138E14696E7A7EBCD
:100CA00009094944A8F1020CB1FBFEF909FB04F85B
:100CB000DBE773467FE7504666E70846FDE63B44C0
:100CC000023A33E7ACF1020C3B441CE749469CE78F
:100CD000A1EB0901C446B1FBFEF909FB04F8C4E726
:100CE000704700BFF0B500F1080783B0076061B33B
:100CF000054608460E46FFF753FB0F2804460190B1
:100D00000ED8012806D133786C602B7200233B5536
:100D100003B0F0BD68B900236C603B5503B0F0BD73
:100D2000002201A9284611F00BFF019B074628600D
:100D3000AB6022463146384614F0DBF8019C2F6840
:100D400000236C603B5503B0F0BD014811F0CDFEAF
:100D5000F8770108002873D02DE9F04F074683B0DB
:100D6000D7F80C80B8F1000F60D0D8F80C90B9F12A
:100D7000000F52D0D9F80CA0BAF1000F44D0DAF825
:100D80000C40002C37D0D4F80CB0BBF1000F2BD0A6
:100D9000DBF80C60FEB1F568B5B1EB686BB1D868F3
:100DA0000193FFF7D7FF019B202118469B68019311
:100DB00011F0D8FC019B002BF1D12846AD68202111
:100DC00011F0D0FC002DE8D13046B668202111F09A
:100DD000C9FC002EDFD1DBF808502021584611F065
:100DE000C1FC0DB1AB46D3E72046A468202111F029
:100DF000B9FC002CC7D1DAF808402021504611F088
:100E0000B1FC0CB1A246BAE7D9F808402021484607
:100E100011F0A8FC0CB1A146ACE7D8F8084020219D
:100E2000404611F09FFC0CB1A0469EE73846BF68D3
:100E3000202111F097FC002F92D103B0BDE8F08F74
:100E4000704700BF2DE9F04F83B00190002800F0FB
:100E50000E81019BD3F80C80B8F1000F00F0EF80F9
:100E6000D8F80C90B9F1000F00F0CF80D9F80CA0A1
:100E7000BAF1000F00F0AF80DAF80C40002C00F05F
:100E80009080E568002D75D0EE68002E5BD0F76885
:100E9000002F3DD0FA6802B3D0680092FFF7D2FF6E
:100EA000009A106902F11801D2F808B088420DD0FA
:100EB0009169013111F056FC009A2C21104611F075
:100EC00051FCBBF1000F08D05A46E5E72C21104633
:100ED00011F048FCBBF1000FF6D1386907F1180298
:100EE000D7F808B090420CD0B969013111F03AFC42
:100EF0002C21384611F036FCBBF1000F08D05F46BC
:100F0000C8E72C21384611F02DFCBBF1000FF6D1BB
:100F1000306906F11803D6F808B098420CD0B169D0
:100F2000013111F01FFC2C21304611F01BFCBBF1EC
:100F3000000F08D05E46AAE72C21304611F012FCC3
:100F4000BBF1000FF6D1286905F11803AE6898428D
:100F50000AD0A969013111F005FC2C21284611F0B5
:100F600001FC3EB135468FE72C21284611F0FAFBF3
:100F7000002EF7D1206904F11803A56898420AD021
:100F8000A169013111F0EEFB2C21204611F0EAFBA2
:100F90003DB12C4675E72C21204611F0E3FB002DD6
:100FA000F7D1DAF810000AF11803DAF8084098428D
:100FB0000BD0DAF81810013111F0D4FB2C21504677
:100FC00011F0D0FB3CB1A24656E72C21504611F05F
:100FD000C9FB002CF7D1D9F8100009F11803D9F892
:100FE000084098420BD0D9F81810013111F0BAFB23
:100FF0002C21484611F0B6FB3CB1A14636E72C2126
:10100000484611F0AFFB002CF7D1D8F8100008F1DA
:101010001803D8F8084098420BD0D8F818100131BE
:1010200011F0A0FB2C21404611F09CFB3CB1A046E6
:1010300016E72C21404611F095FB002CF7D1019DBD
:10104000286905F11803AC6898420AD0A9690131F2
:1010500011F088FB2C21284611F084FB3CB101944F
:10106000F7E628462C2111F07DFB002CF7D103B0C8
:10107000BDE8F08F2DE9F04F83B00190002800F01B
:101080000E81019BD3F80C80B8F1000F00F0EF80C7
:10109000D8F80C90B9F1000F00F0CF80D9F80CA06F
:1010A000BAF1000F00F0AF80DAF80C40002C00F02D
:1010B0009080E568002D75D0EE68002E5BD0F76853
:1010C000002F3DD0FA6802B3D0680092FFF7D2FF3C
:1010D000009A106902F11801D2F808B088420DD0C8
:1010E0009169013111F03EFB009A2C21104611F05C
:1010F00039FBBBF1000F08D05A46E5E72C2110461A
:1011000011F030FBBBF1000FF6D1386907F118027E
:10111000D7F808B090420CD0B969013111F022FB28
:101120002C21384611F01EFBBBF1000F08D05F46A2
:10113000C8E72C21384611F015FBBBF1000FF6D1A2
:10114000306906F11803D6F808B098420CD0B1699E
:10115000013111F007FB2C21304611F003FBBBF1EC
:10116000000F08D05E46AAE72C21304611F0FAFAAB
:10117000BBF1000FF6D1286905F11803AE6898425B
:101180000AD0A969013111F0EDFA2C21284611F09D
:10119000E9FA3EB135468FE72C21284611F0E2FAF4
:1011A000002EF7D1206904F11803A56898420AD0EF
:1011B000A169013111F0D6FA2C21204611F0D2FAA2
:1011C0003DB12C4675E72C21204611F0CBFA002DBD
:1011D000F7D1DAF810000AF11803DAF8084098425B
:1011E0000BD0DAF81810013111F0BCFA2C2150465E
:1011F00011F0B8FA3CB1A24656E72C21504611F046
:10120000B1FA002CF7D1D9F8100009F11803D9F878
:10121000084098420BD0D9F81810013111F0A2FA09
:101220002C21484611F09EFA3CB1A14636E72C210C
:10123000484611F097FA002CF7D1D8F8100008F1C1
:101240001803D8F8084098420BD0D8F8181001318C
:1012500011F088FA2C21404611F084FA3CB1A046E6
:1012600016E72C21404611F07DFA002CF7D1019DA4
:10127000286905F11803AC6898420AD0A9690131C0
:1012800011F070FA2C21284611F06CFA3CB101944F
:10129000F7E628462C2111F065FA002CF7D103B0AF
:1012A000BDE8F08F2DE9F8438468071D64B30E464E
:1012B0009146B84665694A463146A94528BF2A463F
:1012C0001AB1206913F0E5FC08B9A5EB0900002864
:1012D000D4E902321BDBA0461C46002CEAD147456C
:1012E00012D0D8F814404A46A14528BF22462AB158
:1012F0003046D8F8101013F0CCFC08B9A9EB040064
:1013000017EA200738BF47463846BDE8F883144639
:10131000002CCFD1E3E700BF2DE9F04F81468FB01D
:10132000A7480C46494605F06DFD4568002D00F0C4
:1013300013814946A24805F065FD0268002A00F0C5
:101340001481DFF8A0B223464FF40071009558468F
:10135000CDE901299B4A13F001FCB0F5007F80F034
:10136000A080994E5946994813F0BBFD0436B468E5
:10137000B44200F011810027954DDFF85082DFF86C
:101380008CA2CDF81490D4E90492022A00F0CA800D
:10139000092A6ED18F494846049213F07AFC00283E
:1013A0006FD0049A48468C4913F073FC002868D02B
:1013B000D4ED0A7A4B4680212846B6EEE77AF4EE61
:1013C000477AB7EEE76AF1EE10FA8DED006B14BFC5
:1013D000824A834A13F0C2FB7F2860D82846FEF772
:1013E000DFFF8146002F40F08D807E48FEF7D8FF5A
:1013F00009F102020244FF2A00F28480DFF8E4913E
:101400004846FEF7CDFF2946484413F095FCBAF84C
:1014100000300380204611F01DFAB0420446B2D1DC
:1014200070487D25FEF7BCFF03466E485B4403F819
:10143000015CFEF7B5FF6C4B411C1C882BF800408B
:1014400068480AF0F1FE002F59D0604E3046FEF792
:10145000A7FF03463046334403F8015CFEF7A0FFC4
:1014600003463046591CF4520FB0BDE8F04F0AF065
:10147000DBBE0A2A61D15D49484613F00AFC002808
:1014800096D194ED0A7A4B46594A8021B7EEC77A35
:1014900028468DED007B13F061FB7F289ED9DDF897
:1014A00014904B4E4B46534A802130460AAD13F000
:1014B00055FB30460895FEF773FF0F28044607904A
:1014C00055D8012844D133788DF828302946002397
:1014D0000994494A0B554FF40071089B474813F093
:1014E0003DFB4648FEF75CFF014644480AF09CFE7F
:1014F0000898A84203D00A99013111F033F90FB0CE
:10150000BDE8F08F4046FEF74BFF09EB0002B2F555
:10151000007FC4D209F102030344FF2B36D8012710
:10152000C1466DE799F80020492A7FF441AF99F848
:101530000120442A7FF43CAF6CE7072A7FF438AFE0
:101540002F49484613F0A5FB00287FF431AF98E7F8
:101550000028BBD0284612E04946194805F052FC45
:101560000268284D002A7FF4ECAE264AE9E6002204
:1015700007A908A811F0E4FA079B08900A932246ED
:10158000134913F0B6FCDDE90741A0E7DDF814903C
:101590000F4E4B461C4A87E75846FEF701FF0346AD
:1015A0007D2258465B4403F8012CFEF7F9FE0E4AF3
:1015B000034658461288591C2BF8032054E700BFF5
:1015C0004C0E00242C780108240E0024F40300247F
:1015D0007403002498780108A4780108D0780108E1
:1015E000DC780108F40500248C7B0108B078010840
:1015F000C47801085878010878780108F4070024B5
:10160000BC780108E87A0108E87801081479010833
:1016100010B5084C4FF400710368074A204613F0D8
:101620009DFA2046FEF7BCFE01462046BDE810406C
:101630000AF0FABDF4070024787801082DE9F04F8C
:10164000D1E900A383B081469E100AEB0304002E6B
:1016500040F3D3804FEA860B55460AEB860812E02A
:10166000687812F06BFB002867D0A87812F066FB50
:10167000002868D0E8782F1D12F060FB002864D0A5
:10168000474566D03D46287812F058FB0028E7D140
:1016900015E014F8020C12F051FB00284FD014F89A
:1016A000030C12F04BFB00284BD014F8040C12F082
:1016B00045FB00284BD0013EA4F1040453D014F89C
:1016C000010C12F03BFB0028E3D1AC4215D9641B9E
:1016D00009F1080000220F2C0194C9E9000217DC6F
:1016E000012C1ED12B78C9F8044089F8083000235A
:1016F0000355484603B0BDE8F08F002309F1080206
:10170000484689F80830C9E9002303B0BDE8F08FE6
:1017100001A9484611F014FA019BC9F80000C9F864
:1017200008302246294613F0E4FB019CD9F800005A
:101730000023C9F804400355DBE70135BFE7013C4E
:10174000C3E7023CC1E70235B9E70335B7E7033C1D
:10175000BBE7A4EB0803022B41D0032B13D0012BD2
:1017600032D02546ABE7A4EB0A03022B24D0032B8F
:101770001BD0012B05D114F8010C12F0DFFA002860
:10178000A3D05446A1E71AF80B0012F0D7FA20B301
:10179000787812F0D3FA00285ED0B87812F0CEFA3A
:1017A00000284FD02546002E89D114F8010C12F0E4
:1017B000C5FA002889D0013C14F8010C12F0BEFAD9
:1017C000002882D0013CD6E71AF80B0012F0B6FAD6
:1017D00000280CBF4546254671E745466FE71AF8D5
:1017E0000B0012F0ABFA0028F7D098F8010012F0C5
:1017F000A5FA0028B5D1053561E7022B06D0032BE9
:1018000019D0012B0ED0254654465EE79AF8000009
:1018100012F094FAF0B19AF8010012F08FFAB0B118
:101820002546C9E79AF8000012F088FA00280CBF94
:10183000554625469FE79AF8000012F07FFA80B1DE
:101840005746A5E7BD1C002E7FF439AFADE70AF17E
:101850000105B1E75546AFE77D1C002E7FF42FAFA1
:10186000A3E75546A1E700BF30B5024689B00D4653
:1018700002A81146FFF7E2FE039C54B9029804AB9C
:10188000984203D00499013110F06CFF204609B052
:1018900030BD162300220F4902A811F0DDFA0130F5
:1018A00002D002980024EAE70024102201A902983D
:1018B000019412F039FA0346DDE901209042DED0AE
:1018C00012782AB9B3F5803F02D201242B80D6E7E3
:1018D0000024D4E71879010870B508238AB00D46B2
:1018E00000222749064611F09EFA30B129463046BB
:1018F0000AB0BDE8704005F021BA04460DF10601BA
:101900002846ADF80640FFF7AFFF002836D0BDF8F7
:1019100006304FF6FF72934222D00133194A052157
:1019200002A806AD13F01AF902A80495FEF738FDD7
:10193000012804461DD0B0B904F128030022059403
:1019400030466B4404A903F8102C05F0F7F9049B0A
:101950000446AB4204D006991846013110F002FF4C
:1019600020460AB070BD024602A9284613F0C1FA0B
:10197000E2E79DF808308DF81830DDE70446EFE720
:10198000307901083C7901082DE9F04F2DED028BEB
:10199000ADF5137D0C460546114606A81E46FFF719
:1019A0004DFE079A3AB116230022B54906A811F058
:1019B00053FA01304AD021680DF148089F9A0CACC7
:1019C0003368404600914FF400710EAFCDE90152EB
:1019D000AC4A13F0C3F840462760FEF7E1FC0F283D
:1019E00005AE0546306000F29380012D40F08B80FB
:1019F00098F800303A462372002365605355A24A96
:101A00004FF400712368A14813F0A8F89F48FEF72F
:101A1000C7FC01469D480AF007FC2068B84203D085
:101A2000A168013110F09EFE9FED998A069808ABDF
:101A3000984203D00899013110F094FEB0EE480AA4
:101A40000DF5137DBDEC028BBDE8F08F1022002355
:101A500006980DEB0201049312F066F9049B069AB6
:101A60000746934263D093F80090B9F1000F5ED11E
:101A7000B0F5803F80F0C1809E9B002B00F0168166
:101A80000DF1480814AED3F808B085B2C8F800606C
:101A9000BBF1000F00F0298158460CACFEF780FC2A
:101AA0000F288246206065D8012840F0D8809BF836
:101AB0000030324688F808300023C8F804A002F845
:101AC0000A309E9B1C7B462C00F0AA80D8E900A916
:101AD000B9F1090F66D0B9F10A0F40F0C4804A4647
:101AE0006C49504613F0D5F8002868D007EE905A9C
:101AF000B8EE678AB24599D0D8F80810504601313F
:101B000010F030FE92E7002D40F0F3803A4673E784
:101B100000223146204611F013F833682060A3609C
:101B20002A46414613F0E5F93568226864E72168E2
:101B30000DF148089F9A0CAC0EAF336840460091F7
:101B40004FF4007105AECDE901524E4A13F006F88C
:101B500040462760FEF724FC0F28054630603DD83C
:101B600001281AD0002840F0BE803B460022656064
:101B70005A5544E74A462146404610F0E1FF2368A3
:101B8000C8F80000C8F808305246594613F0B1F9B9
:101B9000D4F800A0D8F800208EE798F8003023721F
:101BA0003B46E3E74A463C49504613F072F830B1F1
:101BB0004A463A49504613F06CF8002896D1422C18
:101BC00045D0492C39D13FB29E9B07EE907A93EDD8
:101BD000048AF8EEE77A27EE888A8BE700223146FE
:101BE000204610F0ADFF33682060A3602A464146CE
:101BF00013F07FF935682368B8E79F980DF148081E
:101C000001950EAF21680CAC3368254A029040461E
:101C100000914FF4007112F0A1FF40462760DCE60E
:101C20003BB2D8F800A008EE103A9E9BB8EEC88AE6
:101C3000D3ED047A28EE278A5CE707EE905A9E9B44
:101C4000B8EE678AD3ED047A28EE278A52E7F7EEDA
:101C5000007A9FED147A002D07FE278A4AE70028B4
:101C600043D0304690E7B9F1070F7FF43FAF4A46C3
:101C70000D49504613F00DF80028A0D036E700BFFC
:101C8000187901084C79010878780108F4070024D4
:101C900020BCBE4CB078010898780108A4780108EF
:101CA0008C79010800000000BC78010803900DF158
:101CB000480821680EAF9F980CAC336805AE0E4AF9
:101CC00000914FF40071CDE90150404612F046FFFB
:101CD00040462760FEF764FB0F28054630607FF61C
:101CE00084AE9E9A15E7384680E732464FF0000AE8
:101CF000E2E6384614E700BFC879010870B504462B
:101D000008460D46FEF74CFB6668864201D000206F
:101D100070BD46B132462946206812F0BAFFB0FACB
:101D200080F0400970BD012070BD00BF2DE9F04F6B
:101D3000D0E900740D469946E11B794B9346794AE8
:101D4000C91085B003FB01F1914200F0E580EB1B67
:101D5000A7428046009300F0B680B1EB410F4FEAF6
:101D6000410000F28280002840F0CF801826824691
:101D70000190DBF80030E91BD9F800200AEB010BD9
:101D8000A2EB030900220BF10800B9F10F0FCDF807
:101D90000C904AF80100CBF8042000F2A180B9F1C0
:101DA000010F00F09980B9F1000F40F0A5800023E9
:101DB000BD42CBF8049000F809301CD00AF10803AA
:101DC00007F108093E4643F8083CD6E900124945A8
:101DD00067D0B068183609F11809B542186043E9B0
:101DE000021203F11803EED1A5F11806F61B26F036
:101DF000070630365644A54228D006F1080305F1FF
:101E00000801A946A346D9F80020D9F804408A421F
:101E100043F8083C33D043F8082C09F1180959F865
:101E2000102C1831CB4543E9014203F11803EAD1E4
:101E30005C463D4A631B183BDB0802FB03F323F0BF
:101E40006043013303EB430306EBC3062FB1D8F81D
:101E500008103846C91B10F085FC019BC8E900A694
:101E6000C8F8083005B0BDE8F08F304E304610F0AD
:101E70008AFC8319824600F11806019379E709F17B
:101E800018091846621C009113F033F800990346B4
:101E9000D94501F1180140F8044C03F11803B2D1FF
:101EA000C6E7013249461846183613F022F856F8AC
:101EB000142C0346AE4209F1180940F8042C03F132
:101EC000180380D190E70131CFD2914228BF11464B
:101ED00001EB4101CE00C9E71B788BF8083066E7BB
:101EE00003A95846009310F02BFEEB1B039A4AF807
:101EF0000300009BCBF808204A46194612F0F9FF70
:101F0000DDF80C90DBF8000051E7904228BF104646
:101F100000EB4000C600A9E7054810F0E9FD00BF4E
:101F2000ABAAAAAA55555505ABAAAA0AF8FFFF7F86
:101F3000147A010800232DE9F04F0C6887B006469B
:101F400083600F461546C0E9003348682044A0422C
:101F500000F0EC80194600F1FF3C631E13F8012FDE
:101F6000AA4208BF01319C45F8D10131724B994218
:101F700000F2DE80002940F08D8089464FF0000895
:101F80000394A0EB040C039B4FEAAC020493002AD9
:101F900062DD04EB82020BE06378AB4274D0A3787D
:101FA000AB4273D0E378AB4272D00434A24251D03A
:101FB0002378AB42F0D14945039426D0DDF810B028
:101FC00009F10800C9F80480A4EB0B0AC9F8000065
:101FD000BAF10F0FCDF814A029D8BAF1010F22D110
:101FE0009BF8003089F80830C9F804A000F80A808E
:101FF000736818337360D7E90003184484420ED025
:102000000134D6E901910394BBE703AB304604AA3F
:10201000FFF78CFED7E9000318448442F0D1304624
:1020200007B0BDE8F08FBAF1000FDDD009E0002263
:1020300005A9484610F084FD059BC9F80000C9F8C1
:1020400008305246594612F054FFDDF814A0D9F872
:102050000000C9E7A0EB040CBCF1020F0BD0BCF1EF
:10206000030F04D0BCF1010F09D00446A3E7237885
:10207000AB42A0D001342378AB429CD0013423780A
:10208000AB4218BF044696E7013494E7023492E766
:10209000033490E701EB4101CC00204610F073FBC4
:1020A0008146D6E900BAD34517D000F108030BF1F9
:1020B0000801D84643F8083CD8E9000288421ED0FF
:1020C00008F11808183143E9020258F8102CC245EB
:1020D00003F1180343F8182CECD1BBF1000F05D025
:1020E000B1685846A1EB0B0110F03CFB09EB040171
:1020F000D7E90040C6E900992044B1603EE70132CB
:102100001846019108F1180812F0F3FE58F8142C43
:1021100003460199C24540F8042C01F1180103F16E
:102120001803C7D1BBF1000FDAD1DFE71824B4E7F9
:10213000024810F0DDFC00BF55555505307A010806
:102140002DE9F04F8C6883B08B4681460192002CBC
:102150004AD0D2E9008A6669554627694046B245A9
:10216000394628BF35462A4615B112F092FD08B906
:10217000AAEB060000281ADBE2680AB11446EAE777
:10218000A3468DB12A464146384612F082FD58B129
:1021900000284FF000034846B4BFC9E9003BC9E935
:1021A000004303B0BDE8F08FA6EB0A00F0E7A26899
:1021B000002AE3D1DBF80C30A3420ED02046A34620
:1021C00010F04CFB019B0446D0E90476D3E9008A69
:1021D000B245554628BF3546D3E700234846C9E9EE
:1021E000003403B0BDE8F08F0C1DDBF80C30A342C7
:1021F000E4D1F2E72DE9F04F064685B02C200F46DA
:10220000904610F0C0FA00F11809044600F1100AD7
:10221000C0F810903846FEF7C3F80F280546029024
:1022200035D801281FD13B7849460DF1080B23769C
:1022300000236561524658464B553146D8F8003068
:10224000A362FFF77DFFDDE9023595B183B301207D
:10225000331D2A46214610F003FB73690133736175
:1022600005B0BDE8F08F00283AD149460DF1080BC2
:10227000DEE72069814503D0A169013110F072FACF
:102280002C21204605B0BDE8F04F10F06BBA0DF1DF
:10229000080B00225046594610F052FC029B206168
:1022A000A3612A46394612F024FE029D2169BFE748
:1022B000331D9D4212D0D4F814806F694246B84550
:1022C00028BF3A4632B129692069019312F0E1FC36
:1022D000019B08B9A8EB0700C00FBAE70120B8E7D7
:1022E00048460DF1080BDCE72DE9F04F064685B0B6
:1022F0002C200F46904610F046FA00F118090446CB
:1023000000F1100AC0F810903846FEF749F80F287F
:102310000546029035D801281FD13B7849460DF17A
:10232000080B237600236561524658464B553146CB
:10233000D8F80030A362FFF703FFDDE9023595B15D
:1023400083B30120331D2A46214610F089FA7369B0
:102350000133736105B0BDE8F08F00283AD14946DA
:102360000DF1080BDEE72069814503D0A169013139
:1023700010F0F8F92C21204605B0BDE8F04F10F020
:10238000F1B90DF1080B00225046594610F0D8FB68
:10239000029B2061A3612A46394612F0AAFD029DE4
:1023A0002169BFE7331D9D4212D0D4F814806F69B4
:1023B0004246B84528BF3A4632B12969206901939F
:1023C00012F067FC019B08B9A8EB0700C00FBAE741
:1023D0000120B8E748460DF1080BDCE72DE9F04F86
:1023E000064685B02C200F46904610F0CCF900F13F
:1023F0001809044600F1100AC0F810903846FDF79D
:10240000CFFF0F280546029035D801281FD13B7811
:1024100049460DF1080B2376002365615246584664
:102420004B553146D8F80030A362FFF789FEDDE94D
:10243000023595B183B30120331D2A46214610F0A1
:102440000FFA73690133736105B0BDE8F08F00289E
:102450003AD149460DF1080BDEE72069814503D0EA
:10246000A169013110F07EF92C21204605B0BDE8AC
:10247000F04F10F077B90DF1080B00225046594685
:1024800010F05EFB029B2061A3612A46394612F0E0
:1024900030FD029D2169BFE7331D9D4212D0D4F863
:1024A00014806F694246B84528BF3A4632B129695F
:1024B0002069019312F0EDFB019B08B9A8EB07001E
:1024C000C00FBAE70120B8E748460DF1080BDCE77A
:1024D0002DE9F04389B0D0F8008004AF02970029BD
:1024E00000F0A380064608460D46FDF759FF0F2869
:1024F0000446019058D8012852D12B783A468DF8DD
:1025000010300023039440461355DDE90242214672
:10251000FEF7C8FEBC42804604D004992046013133
:1025200010F020F933680433984536D02C2010F091
:102530002AF900F11807044600F11009076128463E
:10254000FDF72EFF0F28064602904DD8012848D1EE
:102550002B7823763B4600216661374D4A469955D4
:1025600002A8D8F828302946A362FFF7E9FDDDE983
:10257000022646B32B1DF01AB0FA80F04009002A5B
:1025800018BF40F0010000283DD02C4B32462146B8
:1025900010F066F96B6901336B6109B0BDE8F08337
:1025A000002847D13A46ACE7002201A902A810F062
:1025B000C7FA019B029004932246294612F099FC27
:1025C000DDE901429DE72069874203D0A16901311D
:1025D00010F0C8F82C21204609B0BDE8F04310F0F7
:1025E000C1B828BB3B46B6E7002202A9484610F016
:1025F000A7FA029B2061A3613246294612F079FCBA
:10260000029E2369A7E7D4F8148077694246B8454B
:1026100028BF3A462AB13169206912F03AFB0346D5
:1026200008B9A8EB0703D80FAFE7054810F05DFA2B
:102630003846E1E73846BFE7240E0024280E002480
:10264000F87701082DE9F84F1F460B1D0E46054689
:102650009A424CD01446D7E900A8D2E904B9C8453B
:102660001ED8B8F1000F7ED042465946504612F0AF
:1026700010FB08B9A8EB0900002853DBC845424607
:1026800028BF4A468AB15846514612F002FB60B153
:1026900000280EDB0023C5E900432846BDE8F88F7B
:1026A000B9F1000F3BD04A46DFE7A9EB080000284C
:1026B000F0DA3369A3422CD0204610F0CBF88146E3
:1026C000D0E9041BC3455A4628BF42461AB15046BA
:1026D00012F0DFFA08B9A8EB0B00002851DB2846FE
:1026E0003A463146FFF72CFD2846BDE8F88F4B6986
:1026F000002BF4D00C69D7E90018D4E90409C145CE
:102700004A4628BF42465AB312F0C3FA40B30028E3
:10271000E5DA00232846C5E90034BDE8F88FB8F1B2
:10272000000FC6DAF368A34215D0204610F096F8E1
:102730008146D0E9040BC3455A4628BF42461AB128
:10274000514612F0A6FA08B9ABEB08000028C6DA29
:10275000D9F80C30D3B12846C5E90044BDE8F88F5C
:10276000A9EB0800D3E7C9F10003002B9DDACB6881
:102770009A42F0D0204610F071F88146D0F814B09B
:10278000E2E7E3682BB1C5E9009986E7C5E90039BE
:1027900083E7C5E9003480E72DE9F04F846885B010
:1027A00081460F4600F1040AD1E9006B74B3D046AC
:1027B00065695A463146AB4528BF2A461AB1206999
:1027C00012F067FA08B9A5EB0B00002804DBA36838
:1027D000A0462BB11C46EBE7E368002BFAD1444638
:1027E000A24514D065695D452A4628BF5A4622B1E4
:1027F0003046216912F04DFA08B9ABEB050000280C
:1028000005DB04F1280005B0BDE8F08F54462C200C
:102810000FF0B9FF3A4600F11808054652F8086B68
:1028200000F11003C0F8108096423FD000210661ED
:10283000D7F804B0B8687960397200213A6022464E
:10284000A86102A8A9624946C5F814B0FFF7FAFECC
:10285000DDE90247D7B1AAEB0700B0FA80F04009E2
:10286000002C18BF40F0010000283CD053463A46E7
:1028700029462C460FF0F4FFD9F8143004F1280053
:102880000133C9F8143005B0BDE8F08FB04504D06D
:10289000A969304601310FF065FF28462C210FF061
:1028A00061FF04F1280005B0BDE8F08FD7F804B04F
:1028B0003146404601930BF1010212F01AFB002150
:1028C00022463E60796002A839720021019BA9620C
:1028D0004946C5F814B0FFF7B5FEDDE90247002F01
:1028E000DBD04646B7E77C695A46A34528BF224657
:1028F00022B13046396912F0CCF908B9ABEB0400CB
:10290000C00FB3E72DE9F04F846885B081460F46CC
:1029100000F1040AD1E9006B74B3D04665695A46E8
:102920003146AB4528BF2A461AB1206912F0B1F9E9
:1029300008B9A5EB0B00002804DBA368A0462BB167
:102940001C46EBE7E368002BFAD14446A24514D0BD
:1029500065695D452A4628BF5A4622B1304621693D
:1029600012F097F908B9ABEB0500002805DB04F17C
:10297000280005B0BDE8F08F54462C20A0460FF08B
:1029800002FF00F1180604460661D7E9003500F1A0
:1029900010070F2D029507D8012D51D11B78037612
:1029A000B4460DF1080B12E00DF1080B0022384679
:1029B0000193594610F0C4F8029A019B2061A2616C
:1029C0002A46194612F095FA029DD4F810C000214B
:1029D00065613B4642460CF8051000215846A1624D
:1029E0004946FFF72FFEDDE90275C5B1AAEB0500E8
:1029F000B0FA80F04009002F18BF40F0010028B362
:102A000053462A4621460FF02BFFD9F8143004F123
:102A100028000133C9F8143005B0BDE8F08F2069F3
:102A2000864203D0A16901310FF09CFE20463C464E
:102A30002C210FF097FE04F1280005B0BDE8F08FBF
:102A4000002DADD030460DF1080BB9E767696E690E
:102A50003A46B74228BF324622B12969206912F0AE
:102A600018F900B9B81BC00FCAE700BF2DE9F04F35
:102A7000174685B006462C20984689460FF083FEFF
:102A8000044600F1100AD7E9003500F118070F2DB0
:102A9000029507613DD8012D26D11B78BC460DF16A
:102AA000080B03760021656153464A460CF8051071
:102AB0005846D8F80010A1623146FFF7C3FDDDE9A2
:102AC0000258B8F1000F15D0002D36D00120331D6B
:102AD000424621460FF0C4FE25467369284601335D
:102AE000736105B0BDE8F08F002D3ED1BC460DF1FD
:102AF000080BD7E72069874203D0A16901310FF0A5
:102B000031FE20462C210FF02DFE284605B0BDE8F1
:102B1000F08F0DF1080B002250460193594610F03A
:102B20000FF8029A019B2061A2612A46194612F011
:102B3000E0F9029DD4F810C0B4E7331D984512D0D7
:102B40006769D8F814503A46AF4228BF2A463AB1CE
:102B5000D8F810102069019312F09BF8019B00B97E
:102B6000781BC00FB4E70120B2E738460DF1080B1F
:102B7000DBE700BF2DE9F04F846883B080468946CB
:102B800000F1040B0192D1E9006A64B35F46656904
:102B900052463146AA4528BF2A461AB1206912F08A
:102BA00078F808B9A5EB0A00002804DBA2682746DC
:102BB0002AB11446EBE7E268002AFAD13C46A34565
:102BC00012D065695246AA4528BF2A4622B130462E
:102BD000216912F05EF808B9AAEB0500002803DBB2
:102BE00003B0BDE8F08F5C46019B4A462146404653
:102BF000FFF73CFF03B0BDE8F08F00BF2DE9F04FB9
:102C00008C6883B08B4681460192002C4AD0D2E971
:102C1000008A6669554627694046B245394628BF4D
:102C200035462A4615B112F034F808B9AAEB060069
:102C300000281ADBE2680AB11446EAE7A3468DB120
:102C40002A464146384612F024F858B100284FF081
:102C500000034846B4BFC9E9003BC9E9004303B0DB
:102C6000BDE8F08FA6EB0A00F0E7A268002AE3D1E6
:102C7000DBF80C30A3420ED02046A3460FF0EEFD49
:102C8000019B0446D0E90476D3E9008AB245554653
:102C900028BF3546D3E700234846C9E9003403B0CE
:102CA000BDE8F08F0C1DDBF80C30A342E4D1F2E755
:102CB0002DE9F84F1F460B1D0E4605469A424CD093
:102CC0001446D7E900A8D2E904B9C8451ED8B8F11E
:102CD000000F7ED042465946504611F0DAFF08B93F
:102CE000A8EB0900002853DBC845424628BF4A46E6
:102CF0008AB15846514611F0CCFF60B100280EDB76
:102D00000023C5E900432846BDE8F88FB9F1000F5C
:102D10003BD04A46DFE7A9EB08000028F0DA336928
:102D2000A3422CD020460FF095FD8146D0E9041B2C
:102D3000C3455A4628BF42461AB1504611F0A9FF72
:102D400008B9A8EB0B00002851DB28463A4631466B
:102D5000FFF754FF2846BDE8F88F4B69002BF4D0ED
:102D60000C69D7E90018D4E90409C1454A4628BFCF
:102D700042465AB311F08DFF40B30028E5DA002334
:102D80002846C5E90034BDE8F88FB8F1000FC6DA6F
:102D9000F368A34215D020460FF060FD8146D0E9CC
:102DA000040BC3455A4628BF42461AB1514611F09A
:102DB00070FF08B9ABEB08000028C6DAD9F80C3070
:102DC000D3B12846C5E90044BDE8F88FA9EB080057
:102DD000D3E7C9F10003002B9DDACB689A42F0D00B
:102DE00020460FF03BFD8146D0F814B0E2E7E368DF
:102DF0002BB1C5E9009986E7C5E9003983E7C5E944
:102E0000003480E72DE9F04F154685B006462C20AA
:102E10000F460FF0B8FC2A6800F11808044600F1CC
:102E20001009C0F81080D2E900B50F2D02953AD8EC
:102E3000012D23D19BF80030C4460DF1080A03761A
:102E4000002165613A464B460CF805105046A162D8
:102E50003146FFF72DFFDDE90257AFB1002D34D029
:102E60000120331D3A4621460FF0FAFC25467369CE
:102E700028460133736105B0BDE8F08F002D3CD1C9
:102E8000C4460DF1080ADBE72069804503D0A1693B
:102E900001310FF067FC20462C210FF063FC28461F
:102EA00005B0BDE8F08F0DF1080A002248465146F2
:102EB0000FF046FE029B2061A3612A46594612F09C
:102EC00018F8029DD4F810C0BAE7331D9F4212D003
:102ED000D4F814807D694246A84528BF2A4632B1FD
:102EE00039692069019311F0D4FE019B08B9A8EB60
:102EF0000500C00FB6E70120B4E740460DF1080A0F
:102F0000DBE700BF2DE9F04F902091B00FF03BFCC4
:102F1000AB4A0546AB4BAC4EAC4C05F1080705F18E
:102F2000200CA9462F60AB46C5F818C003CA08227A
:102F3000A860E9606A60EA6105F1380203CB2A63A0
:102F400005F1500269623188A14B2987B178286266
:102F500085F83A1003211868002326886963A4784D
:102F6000AA640422E96405F168012B7485F828300D
:102F700085F83B3085F8524005F19004A86685F845
:102F80005330A046A5F85060C5E9181285F86C309A
:102F900085F884308F4BEA67186805F18003009745
:102FA000C5F88000AB678C4B9E68D9E9005A002EAB
:102FB00000F01A811F1D746952462946A24528BF98
:102FC00022461AB1306911F064FE08B9A4EB0A0078
:102FD000002804DBB36837462BB11E46EBE7F368E5
:102FE000002BFAD13E467D4B9E4200F0FE80746974
:102FF0005246A24528BF224622B12846316911F027
:1030000048FE08B9AAEB04000028C0F2EE8009F1DE
:1030100018094FF0000AC145C6F828A0C3D170486E
:103020004446009F03F0E4FE80466D4803F0E2FE54
:103030005D46804500F0168106ABD8F8045008F1D3
:1030400020080493CDE9000BCDE90274002D00F0B7
:1030500081802846FDF7A4F90F2804460A9000F263
:10306000EA80012840F0F6802B788DF8183006AB06
:10307000059403F804A0584B049FD3F80890059ECC
:10308000B9F1000F4ED04C4603F1040B656932468E
:1030900039462069AE4228BF2A4612B111F0F9FD27
:1030A00000B9A81B0028D4E9023203DB33B1A346E0
:1030B0001C46EBE71346002AFAD15C46474B9C427C
:1030C00030D03246D4E90415AE4228BF2A461AB1A0
:1030D000384611F0DEFD00B9701B002822DB414AA2
:1030E0000CAB07CA03C31A708DF839A0D8F8044096
:1030F000C4B1C346D4E90405092D2ED8002D3AD118
:10310000E468002CF6D1C3450CD0DBE90414082C8C
:1031100033D909220CA811F0BCFD08B9C4F109008B
:1031200000282DDA06AB9F4204D0069938460131BB
:103130000FF018FB08F13C03009A08F11C08424507
:1031400000F08D80984606AB58F81C5C0493002D67
:103150007FF47FAF06AB00248AE709220CA911F0A7
:1031600098FD08B9A5F109000028C9DBA346A468A9
:10317000002CBFD1C7E72A46F0E7002C40F08B8037
:10318000DBED0A7AFDEEE77A17EE903A0B2BC9D108
:10319000124DD9F8144032463946D9F81000A642EB
:1031A00028BF224612B111F074FD00B9A01B0028FF
:1031B000D9E9023222DB2BB34D469946E9E700BF3D
:1031C000407A01084C7A0108587A01085C7A0108B3
:1031D000607A0108687A0108F40D0024F80D0024D3
:1031E0004C0E002498780108314E31460AAA314825
:1031F000CDF82890FFF706FE064608E71346002A9A
:10320000DBD1A9462A4B994547D0D9F8144032461C
:10321000A64228BF22462AB1D9F81010384611F02C
:1032200038FD00B9301B002837DBD9F828300133CE
:10323000C9F8283076E704A800220AA90FF080FC1C
:103240000A9B049006932246294611F052FE0A9CDE
:10325000049B0DE700283FF47DAF06A8F3E7DDE906
:103260000157039C2E4657F8080C87420ED0B168D0
:103270001836183701310FF075FAB442F3D19021A6
:10328000284611B0BDE8F04F0FF06CBA1836183769
:10329000B442E8D1F3E722463CE704AB49460AAA28
:1032A00004480A93FFF7AEFD049F8146BDE700BFC7
:1032B000F80D0024F40D00242DE9F04F154687B0D9
:1032C00007462C200E460FF05EFA2D6800F1180A12
:1032D0000446A846C0F810A058F8083B434500F043
:1032E000C9800361AB6883616B6807F1040BC5F8A3
:1032F000008063610023B3456B602B723546A36287
:1033000004F1100302937BD02269D4F814907369FE
:1033100000929945326901922CD8B9F1000F00F062
:10332000B0804A460393DDE9000111F0B2FC039B33
:1033300008B9A9EB030000287FDB99454A4628BF5E
:103340001A46DAB10393DDE9001011F0A2FC039BE9
:10335000A0B1002816DB2069824503D0A1690131A4
:103360000FF000FA20462C210FF0FCF9284607B098
:10337000BDE8F08F002B5DD01A46D3E7A3EB090020
:103380000028E8DA3A690393B24200F0A980304697
:103390000FF060FA4A468046039BD0E90415A94520
:1033A00028BF2A46002A00F09E800098039311F05F
:1033B00070FC039B08B9A9EB05000028C0F28580CA
:1033C000029A394604A8FFF719FCDDE90458B8F160
:1033D000000FC0D0281E18BF0120C34508BF40F011
:1033E000010000285AD05B464246214625460FF090
:1033F00037FA7B69284601337B6107B0BDE8F08F5F
:103400007B69002BDCD0D7F81080D4E90439D8E9E7
:10341000040600934E45324628BF4A46002A58D03B
:10342000194611F036FC08B9A6EB09000028C7DAE6
:103430000025CCE7B9F1000FA4DAFB68B34216D03F
:1034400030460FF00BFA80464A46D0E90405A945FC
:1034500028BF2A461AB1009911F01BFC08B9A5EB48
:1034600009000028ACDAD8F80C000028B5D0B04626
:103470000120B8E76A6841465046013211F039FD33
:1034800032E75A42002ABFF679AFFB68B342EED06A
:1034900030460FF0E3F980464569E0E72369D4F848
:1034A00014900093D8E9042301924B451A4628BF93
:1034B0004A4632B10293DDE9000111F0EAFB029BBA
:1034C00008B9A9EB0300C00F8DE7F268A2B1454629
:1034D0007DE7A6EB0906002EBFF672AF10467CE72B
:1034E000B046002576E7A9EB0503002BBFF668AFD1
:1034F000F3681BB1012070E7B046D6E7B046D1E7CC
:103500002DE9F04FB94BB5B008220DF1480893E80A
:103510000300002388E803008DF85030B44B9D6809
:10352000CDE91082002D00F07A811F1D2C46B9468E
:10353000D4E90406082E00F2A581002E40F0B481E3
:10354000E468002CF4D1B94500F06C81D9F814403E
:10355000072C40F288820822D9F81010404611F05A
:1035600098FB08B9C4F108000028C0F25B81D9F8C3
:1035700028302C460DF160090C939E4BCDF85890E5
:1035800093E8030008231793002389E803008DF8CC
:103590006830BA46D5E90406082E00F26381002E91
:1035A00040F08081ED68002DF4D1BA4500F07E81B5
:1035B000DAF81450072D40F251820822DAF8101080
:1035C000484611F066FB08B9C5F108000028C0F2B2
:1035D0006D81DAF8283025460B93874B1B68ADF8D0
:1035E00078301B0C8DF87A301EAB07931C930323A5
:1035F0001D9300238DF87B30BA46AB46079ED4E975
:103600000405032D00F2A081002D40F0AE81E46896
:10361000002CF4D1BA455D4600F0D181DAF81440AF
:10362000022C40F207820322DAF81010079811F0FA
:1036300030FB08B9C4F103000028C0F2C081DAF8F9
:10364000283024AE2C460A936C4B22961B68ADF8AA
:1036500090301B0C8DF892300323239300238DF8B8
:103660009330BA46A346D5E90404032C00F25D81E9
:10367000002C40F07881ED68002DF4D1BA455C460D
:1036800000F08281DAF81450022D40F2E281032228
:10369000DAF81010304611F0FCFA08B9C5F1030051
:1036A0000028C0F27181DAF828302546544A09937F
:1036B0002AAB089328930423CDE9293200238DF8FF
:1036C000AC30BB46DDF820A00D95D4E90405042DEF
:1036D00000F21C81002D40F04C81E468002CF4D1F4
:1036E000BB450D9D00F08A81DBF81440032C40F2AD
:1036F000A6810422DBF81010089811F0CAFA08B964
:10370000C4F104000028C0F2798104233D49DBF8AC
:1037100028400DF1C00BCDE92F310023CDF8B8B012
:103720008DF8C430BA460D94D5E90404042C00F297
:10373000DE80002C40F01B81ED68002DF4D1BA45ED
:103740000D9C00F01881DAF81450032D40F27C81B2
:103750000422DAF81010584611F09BFA08B9C5F1A6
:1037600004000028C0F20781DAF828304FF4007115
:10377000099A049302920B9B0A9A009301920C9B64
:10378000214A2248039411F0E9F92E98584503D0B4
:10379000309901310EF0E6FF2898089B984203D03B
:1037A0002A9901310EF0DEFF2298B04203D024990D
:1037B00001310EF0D7FF1C98079B984203D01E9949
:1037C00001310EF0CFFF1698484503D0189901310A
:1037D0000EF0C8FF1098404503D0129901310EF049
:1037E000C1FF0A48FCF7DCFD12E000BF407A010887
:1037F000F40D00244C7A0108587A01085C7A01081B
:103800006261632B6261632D707A0108F409002400
:1038100001469B4835B0BDE8F04F08F005BD994B17
:103820001F1DB94610AB2EAA494696482E930DF19E
:1038300060090792FFF740FD836A079A0C93924B49
:10384000CDF8589093E8030008231793002389E8E4
:1038500003008DF868308B4B9D68002D00F00E81C1
:103860002C4696E60822494611F013FA08B9A6F14B
:1038700008000028FFF696AEAA46AD68002D7FF43A
:1038800089AE92E60822414611F003FA08B9A6F182
:1038900008000028FFF654AEA146A468002C7FF46F
:1038A00047AE50E63246DEE73246ECE72EAA16ABCC
:1038B000514674482E930892FFF7FEFC836A089ADB
:1038C0000B93724B1B68ADF878301B0C8DF87A3077
:1038D0001EAB07931C9303231D9300238DF87B30AD
:1038E000684B9C68002C00F0C780254684E60422C3
:1038F000594611F0CEF900B9201F0028FFF61CAF81
:10390000AA46AD68002D7FF40FAF18E70422514698
:1039100011F0BFF900B9281F0028FFF6DEAEA3465C
:10392000A468002C7FF4D1AEDAE60322314611F010
:10393000B0F900B9E01E0028FFF69DAEAA46AD68BA
:10394000002D7FF490AE99E60322314611F0A1F9E3
:1039500000B9E81E0028FFF65AAEA246A468002C63
:103960007FF44DAE56E62246E0E72A46EDE72246D2
:10397000BEE72A46CBE72EAA51460F9241480FAA2E
:10398000FFF79AFC8246EFE62EAA22AB51463D484D
:103990002E930D92FFF790FC836A3D4C09932AAB5E
:1039A0000D9A089328930423CDE9293400238DF838
:1039B000AC30344B9C68002C5CD0254681E62EAAA6
:1039C0001CAB51462F4824AE2E930892FFF774FC8F
:1039D000836A089A0A932F4B22961B68ADF89030A1
:1039E0001B0C8DF892300323239300238DF8933022
:1039F000244B9D68002D3BD02C4632E62EAA28ABE6
:103A0000594620480DF1C00B2E930D92FFF754FC40
:103A10001C4B846A9D6804231F480D9ACDF8B8B0EA
:103A2000CDE92F3000238DF8C430002D7FF47AAE1D
:103A3000BA46A1E7002C3FF402AE2246F4E5002C82
:103A40003FF463AE224655E6002D3FF48DAE2A4684
:103A50007FE6002D3FF427AE2A4619E6002D3FF4FD
:103A6000B8AD2A46AAE5002C3FF481AD224673E5A5
:103A7000BA468AE7BB46C2E7BA46A1E7BA4616E7A6
:103A8000F4090024F40D00244C7A0108587A010846
:103A90006261632B5C7A01086261632D2DE9F04F4E
:103AA0009C4DB3B00FCD26AC2EAFA2460FC495E807
:103AB000030084E803005AF8045B2C97002D00F003
:103AC000C3832846FCF76CFC0F280446209000F2C4
:103AD0000483012840F0FC822B788DF8B8303A46F8
:103AE00000232D9413558C4B9C68DDE92C65002C2C
:103AF00000F0368303F10408A946C34665694A46C7
:103B0000A94528BF2A4622B13146206911F0C1F8E3
:103B100008B9A5EB0900002806DBA368002B00F01C
:103B20006582A3461C46E9E7E368002BFAD15C46B0
:103B30007A4B4D469C4200F05E82D4F814902A469F
:103B40004D4528BF4A4622B12169304611F0A1F8FF
:103B500008B9A5EB09000028C0F24D820023BE423F
:103B6000A36200F056822E99304601310EF0FAFD24
:103B70002CAB53459FD100246948CDE9174403F08D
:103B800037F98246664803F035F9824500F04583EF
:103B90000F940A9408940990CDE91244CDE9104499
:103BA000CDE90D44CDE90B44DAF804502C97002DF3
:103BB00000F007832846FCF7F3FB0F280446269005
:103BC00000F26982012840F0C8822B788DF8B83065
:103BD0003B464FF000022D941A55DDF8B4B0BBF10E
:103BE000000F00F070824C4B2C9E9C68B4B3C14611
:103BF000D4E90405AB450DD3D5B9A5EB0B000028DE
:103C0000D4E9023210DBB3B1A1461C46D4E9040565
:103C1000AB45F1D25A46314611F03BF80028ECD0C2
:103C20000028D4E90232EEDA22B113461C46EDE751
:103C30002A46F0E74C46444510D0D4E90415AB457C
:103C400000F262825A46304611F023F808B9ABEB15
:103C50000500002802DBA26A0132A262089BBBF1C8
:103C6000080FDAF818402344089300F05282BBF1A1
:103C7000040F40F08F823378622B00F07582BE42D1
:103C800004D030462E9901310EF06CFD0AF13C0A49
:103C9000099B534588D1234B1CAA93E803000823B2
:103CA0001A921B930023C2E900018DF878301A4B59
:103CB0009D68002D3AD02C46C246D4E90406082E51
:103CC00000F2D981002E40F01782E468002CF4D174
:103CD000C2452CD0DAF81440072C40F28482082226
:103CE000DAF810101CA810F0D4FF08B9C4F10800CD
:103CF00000281CDBDAF828302C460B4A159322AB3F
:103D0000099320930423CDE9213200238DF88C30D0
:103D100026E000BF087701080C0E0024100E0024D6
:103D20004C0E00244C7A01086261632DC2461AAB26
:103D300051462CAAA6482C93FFF7BEFA836AA549E0
:103D4000159322AB099320930423CDE9213100235D
:103D50008DF88C309E4B9D68002D00F0FC802C4629
:103D6000C246A146099ED5E90404042C00F26581EF
:103D7000002C40F0C581ED68002DF4D1C2454C46C1
:103D800000F0EA80DAF81450032D40F22282042277
:103D9000DAF81010099810F07CFF08B9C5F104009A
:103DA0000028C0F2D980DAF8283025460DF1A00AA3
:103DB0001493894BCDF898A01B68ADF8A0301B0C6C
:103DC0008DF8A2300323279300238DF8A330C34638
:103DD000D4E90406032E00F22181002E40F08E81EA
:103DE000E468002CF4D1C34500F0D580DBF8144022
:103DF000022C40F2E9810322DBF81010504610F04B
:103E000048FF08B9C4F103000028C0F2C480734B16
:103E1000DBF828901B682C97ADF8B8301B0C8DF898
:103E2000BA3003232D9300238DF8BB304646D5E9E5
:103E30000404032C00F21081002C40F06381ED6833
:103E4000002DF4D146450DD07469022C40F2C68194
:103E500003223169384610F01CFF08B9C4F1030091
:103E6000002807DA2CAB314619AA59481993FFF7F5
:103E700023FA0646B36A4FF40071149A06930D9B19
:103E800004920293159B0E9A01930C9B039200934C
:103E9000534A0B9B5348CDF8149010F05FFE2C98BA
:103EA000B84203D02E9901310EF05CFC26985045A3
:103EB00003D0289901310EF055FC2098099B9842B7
:103EC00003D0229901310EF04DFC1A981CAB984298
:103ED00003D01C9901310EF045FC4248FCF760FA12
:103EE0000146404808F0A0F9322008F0FDFD18AB6B
:103EF000139C119DDDF83C90DDF84880109F0A9ED0
:103F00004246039317AB39463046019402934B4621
:103F1000009502F0C9FD18990794179C089B324A36
:103F2000CDF8188005950497CDF80C9000942D4895
:103F3000CDE901164FF4007110F010FE2948FCF78E
:103F40002FFA0146274808F06FF9322008F0CCFD1F
:103F500033B0BDE8F08FC24620AB51462CAA1C48B6
:103F60002C93FFF7A9F9836A0DF1A00A14931A4B59
:103F7000CDF898A01B68ADF8A0301B0C8DF8A230CE
:103F80000323279300238DF8A330114B9C680CB1B9
:103F900025461CE7C34626AB59462CAA0C482C9351
:103FA000FFF78AF90A4BD0F828909D680B4B2C97A5
:103FB0001B68ADF8B8301B0C8DF8BA3003232D9375
:103FC00000238DF8BB30002D7FF430AF464649E723
:103FD0000C0E00246261632D587A01085C7A010896
:103FE000F47A0108F40B0024907B0108984B4D46AD
:103FF0009C427FF4A2AD2CAB214620AA9548209389
:10400000FFF75AF92C9E04460023BE42A3627FF4B8
:10401000AAAD2CAB53457FF44EADACE5032251461F
:1040200010F037FE00B9F01E0028FFF6D9AEA34607
:10403000A468002C7FF4CCAED5E60422314610F003
:1040400028FE00B9201F0028FFF695AEAA46AD68ED
:10405000002D7FF488AE91E60322394610F019FE58
:1040600000B9E01E0028FFF6EAAE2E46AD68002D2E
:104070007FF4DDAEE6E608221CA910F00AFE08B9BE
:10408000A6F108000028FFF620AEA246A468002C86
:104090007FF413AE1CE6002226A92CA80EF050FDDA
:1040A000269B2C902E932246294610F022FF269C18
:1040B0002C9B4FF000022D941A55DDF8B4B0BBF1E3
:1040C000000F7FF490AD2C98B8427FF4DBADDDE5B6
:1040D00000283FF404AD384607E0002220A92CA8B0
:1040E0000EF02EFD209B2C902E932246294610F098
:1040F00000FF209C2C9AF3E43246BDE732468EE75F
:1041000022469BE72246A8E7002D3FF4A0AD2A46B1
:1041100099E55A465049304610F0BBFD58B15A4611
:104120004E49304610F0B5FD00287FF4A8AD0F9B36
:1041300023440F93A3E50A9BDAF8380023440A933B
:1041400038B14749FCF7CCF818B90C9B01330C93F4
:1041500095E50B9B01330B9391E590B33846A2E7AD
:10416000DFF8EC80444646E77378721C612B3FD041
:104170007278731C612A7FF482AD13F8012F632AD1
:104180007FF47DAD5B782D2B7FF479AD119B2344BB
:10419000119374E5BBF1030F7FF471AD3378432BBA
:1041A0007FF46DAD7278462A47D07278462A7FF444
:1041B00066ADB3782D2B7FF462AD139B234413932C
:1041C0005DE53B46002404E5002C3FF420AE22468A
:1041D00012E6002D3FF4E7AD2A46D9E5002C3FF466
:1041E00049AE224635E6002C3FF484AD224677E501
:1041F00012F8013F632BBBD153782B2BB8D1109B06
:10420000DAF838002344109398B11549FCF768F8A0
:1042100078B90E9B01330E9331E5CDE91244CDE917
:1042200010440F940A940894CDE90D44CDE90B4451
:1042300031E50D9B01330D9321E5B3782B2BB4D1E0
:10424000129B234412931AE506480EF04EFC00BF61
:10425000100E00240C0E0024407A01084C7A01084C
:10426000EC7A0108F87701082DE9F041044682B0A4
:1042700016461D4661B10120231D324629460EF027
:10428000EFFA636928460133636102B0BDE8F0814B
:10429000031D9A4212D05769D5F81480B84542469A
:1042A00028BF3A4632B131692869019310F0F1FC18
:1042B000019B08B9A8EB0700C00FDEE70120DCE78F
:1042C0002DE9F04F81460068D9F804301B1A182BED
:1042D0002DED048BADF5397D08D90A230022344930
:1042E0000EF0BAFD0130D9F8000040D003680DF19E
:1042F000E00B80690DF1C80A34AD2E4A4FF400710D
:10430000009058462CAE10F029FC5846CAF80050D0
:10431000FCF746F80F280446306037D8012831D121
:104320009BF800308AF808302A4600234FF40071C9
:10433000CAF8044020481355204ADAF8003010F03B
:104340000DFC1D48FCF72CF801461B4807F06CFFDC
:10435000DAF80000A84204D0DAF8081001310EF0B3
:1043600001FA0DF5397DBDEC048BBDE8F08F0A2311
:1043700000220F4918300EF06FFD013020D0D9F81F
:104380000000B3E70028CFD0284609E000223146DC
:1043900050460EF0D5FB3368CAF80000CAF8083062
:1043A0002246594610F0A5FD3468DAF80020BCE733
:1043B000347C0108407C0108F40700247878010867
:1043C000D9F800300A22002118680FF0ADFCD9F8A6
:1043D00000300A2200210B9098690FF0A5FC22AB57
:1043E00001460A9020930023A94821938DF8883034
:1043F0000023119302F006FD0346816806901833EE
:104400000793002901F025800DF1E00B5846FCF7D9
:1044100069FC032300229F4958460EF004FD3AAB85
:104420000C90DBF80000984204D0DBF80810013152
:104430000EF098F9984C079BA0681293FCF702FDC8
:10444000221D00232C20A3606361E26022610EF034
:104450009AF900F11005044690492846FCF742FC01
:10446000DDED0A7A2A468C49F8EEE77A14A8C4ED05
:104470000A7AFDF765FEDDE91412002A00F0FA80E1
:1044800023468548FFF7F0FE8549D9E90032D21A64
:10449000D310302A01FB03F341F27B830222DFEDCC
:1044A000818A9FED819ACA46059200220D92059A53
:1044B00001329A4281F08181069B9D683AABCBF82C
:1044C0000030002D00F0508628460DF1C809FBF79A
:1044D00067FF0F280446C9F8000000F2B2810128E6
:1044E00040F063822B783AAA8BF808300023CBF88F
:1044F000044058461355059BDAF8001003EB4306B9
:1045000001EBC601FDF7E8F93AAB0446DBF8000021
:10451000F500984204D0DBF8081001310EF022F9C2
:10452000002C00F0A281A7683846FBF739FF3B4614
:104530000090219A002120A80EF0F2FB069BD3F8F0
:1045400008803AABCBF80030B8F1000F10D04046ED
:104550000DF1C809FBF724FF0F280746C9F8000032
:1045600000F25B81012800F05281002840F02F8288
:104570003AAB00270022CBF804704C495846DA5574
:1045800008230EF050FC002840F00A81002C00F0B7
:104590000781237BDBF80000462B3AAB00F02C822E
:1045A000984204D0DBF8081001310EF0DBF805F179
:1045B0001803DAF800703D441F44069BD3F80880C6
:1045C0003AABCBF80030B8F1000F10D040460DF1F7
:1045D000C809FBF7E5FE0F280646C9F8000000F2FF
:1045E000D081012800F0C781002840F0BB853AA89F
:1045F00000260023CBF804603A46294683550B9BDE
:104600000A9801935B460094FDF7BEF9DBF80000C1
:104610003AAB8DED110A984204D0DBF80810013155
:104620000EF0A0F8022309930798DDE920652A46D9
:104630003146FCF737FE069A02F11C0383420893C9
:1046400000F0B280146A002C00F01281984667696D
:104650002A46BD4228BF3A4622B13146206910F0B1
:1046600018FB00B9781B002822DBA36823B3A046FF
:104670001C46ECE7206904F11803984203D0A169B5
:1046800001310EF06FF820462C210EF06BF8FBE69E
:104690004C0E0024847C0108240E00249478010828
:1046A000ABAAAAAA20BCBE4C0000000030790108C9
:1046B000E368002BDCD14446089BA34200F0D9807C
:1046C00067692A46BD4228BF3A4622B13046216971
:1046D00010F0DFFA00B9E81B0028C0F2CA80D4ED60
:1046E0000A7A9DED118AF4EE487AF1EE10FA34D090
:1046F000219F092F00F0B3830A2F00F0C9850C2FEA
:1047000040F058863A46B349209810F0C2FA0C9B04
:10471000184301F07980B04920A8FDF7EFFA00288E
:1047200040F08B87AD4920A8FDF7E8FA002840F05B
:104730008487AB4920A8FDF7E1FA002840F07D8787
:1047400020A90798FEF7DEF880ED008A11AA20A9BB
:10475000A448FEF70FFA01230D930599099B19440C
:10476000DAE9002305919B1A9F4ADB1002FB03F351
:104770009942FFF49CAE0D9B002B01F00A829B4BEB
:104780001B781BB9DDE90A01FCF7C6FD209822ABB6
:1047900098423FF4E6AD229901310DF0E3FFE0E5E8
:1047A000DBF800003AABFBE60A2D00F04D82072D46
:1047B00000F04084092D40F02F862A468C4930466F
:1047C00010F067FA002800F04984854920A8FDF719
:1047D00095FA002840F04882069B1C6A002C00F0E5
:1047E0002D86DDF8208067692A46BD4228BF3A46FB
:1047F00022B13146206910F04CFA00B9781B00282C
:104800007CDBA368002B7DD0A0461C46EBE798F824
:1048100000308BF808303AABACE6002249465846E7
:104820000EF08EF9D9F80030CBF80000CBF8083044
:104830003A46414610F05DFBD9F80070DBF80030D5
:1048400098E60022494658460EF07AF9D9F8003029
:10485000CBF80000CBF808302246294610F049FB7F
:10486000D9F80040DBF8002040E60720614F5EE603
:104870001C462C20A0460DF086FF219D00F1180655
:1048800004460F2D00F11007DDF88090CBF80050A2
:10489000066100F2A583012D00F026832DBB304672
:1048A000002165613B464246415516A8079984EDB3
:1048B0000A9AFDF7C7FEDDE91675002D7AD0089B30
:1048C000581BB0FA80F04009002F18BF40F00100DB
:1048D000002800F08E862A46089B21460DF0C0FF76
:1048E000069AD36A0133D362F9E630462A4649462E
:1048F00010F0FFFADBF800502069D1E7E368002BE5
:1049000083D14446089BA34200F0998567692A46F3
:10491000BD4228BF3A4622B12169304610F0B9F9AC
:1049200000B9E81B0028C0F28A850C2D00F0F4863F
:104930002C4B9C68002C00F0C28703F104082A4627
:10494000D4E90407BD4228BF3A461AB1314610F0F7
:10495000A0F900B9781B0028D4E9023205DB002B4E
:1049600000F0ED83A0461C46E9E7002A00F0E6834C
:1049700013461C46E3E798F800303AA88BF8083055
:1049800037E60022494658460EF0DAF8D9F80030EA
:10499000CBF80000CBF808303246414610F0A9FAB7
:1049A000D9F80060DBF8000023E6002800F0DC8383
:1049B0003AA851E72069864203D0A16901310DF080
:1049C000D1FE20462C213C460DF0CCFE87E63AA8CD
:1049D0002EE700BF487D0108687D0108747D01084D
:1049E000847D0108240E0024ABAAAAAAE42700248F
:1049F0009878010844790108984204D0DBF808103F
:104A000001310DF0AFFE8A4ADAE90093A3EB090306
:104A100009EB0500DB1002FB03F3059A03329A420F
:104A2000C0F09180183526AF09EB05030993069B6A
:104A30009D6828AB08933B6075B12846FBF7B0FC36
:104A40000F288046CBF8000000F2C080012800F05B
:104A5000B980002840F0EF84089B4FF00008002543
:104A6000C7F80480099903F808500DF1B0084046D2
:104A7000FCF7E4FDD8F8043043B116232A466D490B
:104A800040460EF0E9F9013000F0B4820B9B34ACE3
:104A9000694A4FF40071029358460A9B019359F8F2
:104AA00036300DF1C80900933B6810F057F85846AE
:104AB000C9F80040FBF774FC0F280546139000F27C
:104AC0009781012800F08B81A0BB224600234FF480
:104AD0000071C9F8045059485355594AD9F8003063
:104AE00010F03CF85548FBF75BFC0146534807F0D3
:104AF0009BFBD9F80000A04204D0D9F8081001317E
:104B00000DF030FEB0EE688AD8F800002EAB984267
:104B100004D0D8F8081001310DF024FE3868089B45
:104B20008DED118A98423FF47DADB96801310DF0E9
:104B300019FE77E520462A46594610F0DAF9139D0A
:104B4000D9F80020C2E7002426A905F13007ADF806
:104B50009840ADF8B040FCF787FE002800F0CC8705
:104B6000DAF800002CA93844FCF77EFE002800F09B
:104B7000C387BDF89830BDF8B0200133DAF8006083
:104B80009BB29A4240F0BA870DF1C80905F11800AE
:104B9000ABF8004030444946A9F80040FCF764FEF9
:104BA00028B305F1480059463044FCF75DFEF0B1EA
:104BB000B9F80020BBF8003043EA02431193042304
:104BC000099331E52B783B72089B48E70022594650
:104BD00038460DF0B5FFDBF800203860BA60424679
:104BE000294610F086F9DBF800803B6837E74B4632
:104BF000D1469A46069B9B68002B00F035840B9AA1
:104C00004FF40071584602920A9A0192D9F8002096
:104C1000525900920B4A0FF0A1FF59465046FCF73B
:104C200061F85046FCF7F4FC50460DF0AAFFADE5E4
:104C3000ABAAAAAA187901084C790108F407002444
:104C400078780108087D01082A46A949304610F005
:104C500020F8002800F0B4802A46A649304610F01B
:104C600018F800287FF4B1AD2CACA34BCDF834A0DC
:104C70000DF1C00825464FF00009DDF820A00FCB4C
:104C800084E80F003AAB55F8044BCBF80030002C09
:104C900001F08E802046FBF783FB0F2806463290FA
:104CA00000F2B180012800F09F80002840F0758557
:104CB0003AABCBF8046003F806900798DBE9007282
:104CC0003946FCF7EFFA3AAB06469F4205D0DBF8CF
:104CD0000810384601310DF045FDB24500F07F82E5
:104CE0004545CFD1069BDDF834A01C6ADDE920677D
:104CF000002C00F0B183DDF8208065693A46AF42B0
:104D000028BF2A4622B1314620690FF0C2FF00B900
:104D1000E81B002804DBA36833B1A0461C46ECE77F
:104D2000E368002BFAD14446089BA34200F0958328
:104D300065693A46AF4228BF2A4622B1304621690A
:104D40000FF0A7FF00B9781B0028C0F28683119CE2
:104D500020A90798FDF7D6FD6849046012A8FDF761
:104D6000B7FB644912A8FDF7B3FB654912A8FDF72C
:104D7000AFFB644912A8FDF7ABFB634B9C68DDE910
:104D80002067002C00F09B8503F104083A46D4E923
:104D90000405AF4228BF2A461AB131460FF079FF09
:104DA00000B9E81B0028D4E9023204DB002B3DD017
:104DB000A0461C46EAE7002A37D013461C46E5E722
:104DC00011AA4B490798FDF78FFA0C9B002B00F0B6
:104DD000CF8111AA46494C48FDF786FABBE49BF8FF
:104DE000003089F8083070E623788BF808305FE7E8
:104DF000002213A948460DF0A3FE139BC9F800003A
:104E0000C9F8083097E6002232A958460DF098FEFE
:104E1000329BCBF80000CBF808303246214610F028
:104E200068F8329EDBF8003043E74446374B9C423B
:104E30000ED03A46D4E90415AF4228BF2A461AB12B
:104E400030460FF026FF00B9781B0028BFF683AC70
:104E5000214611AB20AA2C48FDF708FE7BE4209CDC
:104E60003A462B4920460FF014FF002856D03A4608
:104E7000204628490FF00DFF00287FF44CAC20A9F4
:104E80000798FDF73FFD244980ED008A12A8FDF741
:104E90001FFB1F4912A8FDF71BFB154912A8FDF7C0
:104EA00017FB194B9C68DDE92067002C00F0078593
:104EB00003F104083A46D4E90405AF4228BF2A4664
:104EC0001AB131460FF0E5FE00B9E81B0028D4E91D
:104ED000023204DB002BA9D0A0461C46EAE7002AD8
:104EE000A3D013461C46E5E799F800300376D6E4D4
:104EF000B0780108687D010820770108587D010815
:104F0000747D0108847D0108240E0024280E0024ED
:104F100098780108A4780108BC78010820A90798AE
:104F2000FDF7F0FCD0ED007A9DF82800FCEEE77A62
:104F3000CDED0E7AFCEEC87A9DF83810CDED0D7AE5
:104F40009DF8342004F0F0FE069B1C6ADDE9206722
:104F5000002C00F0F081DDF8208065693A46AF4210
:104F600028BF2A4622B1314620690FF092FE00B9CF
:104F7000E81B002804DBA36833B1A0461C46ECE71D
:104F8000E368002BFAD14446089BA34200F0D48189
:104F900065693A46AF4228BF2A4622B130462169A8
:104FA0000FF077FE00B9781B0028C0F2C58112A867
:104FB000AE4984ED0A8AFDF78BFA12A8AC49FDF7D9
:104FC00087FA12A8AB49FDF783FA11AAAA49AB48A0
:104FD000FDF704FAFDF796FFFEF792FAFFF7BBBB69
:104FE0000022594638460DF0ABFDDBF80030206159
:104FF000A3617BE4102213A9D8F8000013950EF0EA
:1050000093FE139A0346D8F80000904200F03982CC
:105010001278002A40F03582B3F5803F80F08F850A
:105020001BB2D4ED047A08EE103AB8EEC88A28EE26
:10503000278A6BE52A468D4930460FF02AFE002864
:105040007FF4C3AB11AA07988849FDF7D3F811AADA
:1050500086498A48FDF7CEF8FFF77DBB11AA86493D
:105060000798874FFDF7BAF911AA83498348FDF7DE
:10507000B5F904F0F1FD834BBC6806469DF8288025
:105080001860002C00F0108507F104094D46237CC0
:105090004345D4E902124FD325460C46002CF6D1E5
:1050A0004D4500F001852B7C434500F2738205F1EC
:1050B00018049DED118AD5F81C90FCEEC87ACDED50
:1050C000087A9DF82080B9F1000F02D100F052BD9E
:1050D000914699F81010D9E90232884536BF1A4630
:1050E00000230123002AF3D1002B40F0928288454F
:1050F00015D94C4540F04585012720200DF043FB94
:1051000023460146002480F810804A46466138460E
:10511000C1E906440DF0A4FBAB6A0133AB62BDEEFE
:10512000C88A18EE103A0B2B7FF415ABFDF7EAFE98
:10513000FEF7E6F9FFF70FBB1446AFE74446524BC4
:105140009C423FF485AE2A46D4E90417BD4228BFED
:105150003A462AB130460FF09CFD00287FF475AE28
:10516000E81B72E63AA817E43AAA0024FFF7BEB992
:1051700046495846FBF7B6FD0798DBE90052294639
:10518000FCF790F83AAB04469D4205D0DBF80810D6
:10519000284601310DF0E6FA089B9C423FF419AE17
:1051A000DDED117A584694ED0A8A324938EE278AA5
:1051B000FBF798FD59460798FDF7EEFA3AAB80EDFC
:1051C000008ADBF80000984204D0DBF808100131B7
:1051D0000DF0C8FA274912A8FDF77AF9F9E52C2055
:1051E0000DF0D1FA0646204606F1180706F1100325
:1051F00037610E93FBF7D4F80F280346CBF8000075
:1052000000F2F883012800F0F28328BB3846002121
:1052100073610E9AC154002307991EA8B362FCF76C
:105220008FFFDDE91E34002C00F0BA82AAEB0400E7
:10523000B0FA80F04009002B18BF40F001000028B0
:1052400000F0F7842246534631460DF009FB069ADA
:10525000D36A0133D36243E538461A4621460FF03C
:1052600048FEDBF800303069D1E700BFBC780108A8
:10527000B0780108A478010898780108240E002469
:10528000F8270024F4270024280E0024487D010874
:10529000B64C3A46209821460FF0FBFC0546002804
:1052A0007FF439AA3AAB94E80700CBF80030089CA9
:1052B00003C31A80069B8BF812501D6ACBF804704A
:1052C000002D00F00381D5E904060A2E25D886BBFF
:1052D000ED68002DF7D1089BA34200F0F7806569C7
:1052E000092D40F23F833A4621693AA80FF0D1FCDC
:1052F00008B9C5F10A000028C0F2E88084ED0A8AE6
:105300000C9B002B00F0FC8212A89949FDF7E0F8F5
:10531000984912A8FDF7DCF85BE50A223AA90FF0DC
:10532000B8FC08B9A6F10A000028D1DB2C46AD680C
:10533000CFE73246F2E7089C2C20A1460DF023FA75
:10534000219D00F1180604460F2D00F11007DDF82D
:105350008080CBF80050066100F26483012D40F09C
:10536000558398F8003003763046002165613B464E
:105370004A464155002118A8A1620799FDF762F934
:10538000DDE91875002D00F03182381E089B18BF2A
:105390000120AB4208BF40F00100002800F05B8410
:1053A000089B2A4621460DF05BFA069AD36A013320
:1053B000D362FCE5072F40F035813A466C492098CE
:1053C0000FF067FC00287FF4A6A969495846FBF74F
:1053D00089FC59460798FDF7DFF93AAB80ED008A62
:1053E000DBF80000984204D0DBF8081001310DF022
:1053F000B9F912A85D49FDF76BF812A85E49FDF7EF
:1054000067F812A85B49FDF763F811AA58495B4891
:10541000FCF7F0FEFFF79FB90E2D28D00C2D7FF47E
:10542000D4A92A46564930460FF033FC00283FF4F1
:105430001BACFFF7CAB90898FFF7D1BB089C2146FF
:1054400011AB20AA0798FDF711FBDDE92065FFF7F6
:105450006CBA4C49FEF7D8BF089C214611AB20AA74
:105460000798FDF703FB72E4464BFFF7C8BB2A46DB
:10547000454930460FF00DFC00283FF4F5ABFFF72F
:10548000A4B90B9B4FF40071404A5846029334ACC8
:105490000A9B019359F836300DF1C80900933B6817
:1054A0000FF05CFB59464846FBF71CFC4846FCF7EE
:1054B000AFF83298A04203D0349901310DF052F97F
:1054C0009FED338AD8F80000FFF720BB2C200DF0A9
:1054D0005AF9DBF800603AAA00F11807054600F116
:1054E00010039642076100F07F833AA9DBF804803D
:1054F00022460661CBF80010DBF80810C0F81480D3
:1055000081610021CBF804108BF808100021816222
:105510001AA80799FDF796F8DDE91A94002C00F017
:10552000DF82B9F10000089B18BF0120A34208BF29
:1055300040F00100002800F0DD832246089B294648
:10554000A9460DF08DF9069AD36A0133D362DBF8D0
:1055500000003AAB89ED0A8A98423FF4D1AEDBF8FD
:10556000081001310DF0FEF8CAE600BFB07801085E
:10557000BC78010898780108A4780108240E00245A
:10558000747D0108E87A0108587D01084C7901080A
:1055900020BCBE4C2C200DF0F6F80476C461064603
:1055A000846200F1180480F81080C0E908442B7C64
:1055B000984580F04182FB689D420DD028460893B3
:1055C0000DF04CF9017C0246089B414580F0538365
:1055D000C368002B00F0D5832A4601203546B94B1D
:1055E00029460DF03DF97B6901337B61B64B1E689E
:1055F0005FE567696E693A46B74228BF324622B115
:10560000296920690FF045FB00B9B81BC00FFFF7EF
:1056100062B92B6A4B453FF46CAD48460DF01EF95C
:10562000017C64E50E2F7FF476A83A46A7492098BE
:105630000FF02FFB00287FF46EA826ADA44BCDF809
:1056400034A00DF1C809A84634ACDDF820A00FCB7A
:1056500085E80F0058F8046BC9F80040002E00F0F0
:10566000A7833046FAF79CFE0F280546CBF80000CA
:1056700046D8012840D0002834D123464FF00002FC
:10568000C9F8045007985A55D9E900522946FBF742
:1056900009FEA542074605D0D9F808102846013171
:1056A0000DF060F8BA4500F062812AAB9845D1D17F
:1056B00020A90798DDF834A0FDF724F9834980ED8F
:1056C000008A12A8FCF704FF824912A8FCF700FF29
:1056D000814912A8FCF7FCFE804912A8FCF7F8FEED
:1056E000FFF734B820462A4631460FF002FCDBF8BB
:1056F0000050D9F80030C1E7337889F80830BCE7AA
:105700000022594648460DF01BFADBF80030C9F874
:105710000000C9F80830E6E72A46714930460FF024
:10572000B8FA0C9B18437FF403A96E495846FBF75F
:10573000D9FA0798DBE900522946FBF7B3FD3AABEB
:1057400004469D4205D0DBF80810284601310DF0D3
:1057500009F8089BA3421CD0DDED117A584694ED60
:105760000A8A2834604938EE278AFBF7BBFA594683
:105770000798FDF711F880ED008A58460DF001FA00
:1057800058495A482246FCF7AFFD574912A8FCF782
:105790009FFEDDE92065FFF7CBB83AA8FFF73DBBD8
:1057A0003069874203D0B16901310CF0DBFF30462C
:1057B0002C210CF0D7FFFFF793BA0A9B4FF400712E
:1057C0004B4A58460FF0CAF9594632A8FBF78AFAF5
:1057D00032A8FBF71DFF329834AB98423EF4D6AFA7
:1057E000349901310CF0BEFFFEF7D0BF206986422C
:1057F00003D0A16901310CF0B5FF20462C213C46B5
:105800000CF0B0FFFFF7D3BB079C20A92046FDF7A3
:1058100079F8344980ED008A5846FBF763FA204650
:10582000DBE900522946FBF73DFD3AAB04469D42B9
:1058300005D0DBF80810284601310CF093FF089BD7
:105840009C4200F07A81D4ED0A7A58462649012418
:1058500038EE278AFBF746FA59460798FCF79CFF73
:1058600080ED008A58460DF08CF9224912A8FCF709
:105870002FFE214912A8FCF72BFE1A495846FBF7C8
:1058800031FA0798DBE900623146FBF70BFD3AABD2
:1058900005469E4205D0DBF80810304601310CF079
:1058A00061FF089B9D4205D005F128020D490F4874
:1058B000FCF71AFD002C3EF449AF0B490DE70F4CE5
:1058C000FFF7C6BAFC270024F4270024587D0108FE
:1058D00020770108687D0108747D0108847D010836
:1058E000487D0108B0780108A4780108240E00243E
:1058F000887C0108BC78010898780108280E0024EB
:10590000B1495846FBF7EEF90798DBE90052294602
:10591000FBF7C8FC3AAB04469D4205D0DBF8081003
:10592000284601310CF01EFF089B9C423FF4ECAC72
:10593000D4ED0A7A5846A54938EE278AFBF7D2F902
:1059400059460798FCF728FF80ED008A58460DF06D
:1059500018F912A89E49FCF7BBFD9E4912A8FCF756
:10596000B7FD37E4002D3FF4C9AC2F46BBE42C2033
:105970000CF009FF0546304605F118030E932B6124
:1059800005F110030893FAF70BFD0F280746CBF833
:10599000000000F29281012800F04881002840F0C8
:1059A00000820E9B00216F61089A1CA8D955002324
:1059B0000799AB62FCF7C4FBDDE91C36002E00F052
:1059C000F680AAEB0600B0FA80F04009002B18BF61
:1059D00040F00100002800F0C181324653462946BC
:1059E0000CF03EFF069AD36A0133D3625DE622785B
:1059F00032760BE400220F9059460E980DF0A0F875
:105A0000DBF800200F9B3061B26126E4002D3FF4EB
:105A1000ABAC30462A4641460FF06BFADBF800503B
:105A20002069A2E40022594638460DF089F8DBF8D7
:105A300000302061A361EDE72CD93B69AB4200F057
:105A4000328128460CF006FF037C0246434540F2B3
:105A50006D81EB68002B00F0268135460120BEE504
:105A6000D7F80890B9F1000F01D137E1994699F8BC
:105A70001010D9E90223884536BF134600220122BF
:105A8000002BF3D1002A40F02B814A46884520D8CC
:105A90002E464D46002005F11804FBF75BF9304611
:105AA0002C210CF05FFEA1E52C200CF06CFE0023F5
:105AB00000F1180405460376C36183627B6980F8B0
:105AC0001080C0E90844002BCAD03A69137C4345D2
:105AD000C6D2DFF810914A4540F0E98001207EE50A
