:020000040800F2
:1000000000000824F9C60008C5BA0008D1BA0008E3
:10001000D5BA0008D9BA0008DDBA0008000000000F
:10002000000000000000000000000000E1BA00082D
:10003000E5BA000800000000E9BA0008EDBA0008BF
:100040004DC700084DC700084DC700084DC7000840
:100050004DC700084DC700084DC700084DC7000830
:100060004DC700084DC700084DC70008F1BA000889
:100070004DC700084DC700084DC700084DC7000810
:100080004DC700084DC700084DC700084DC7000800
:100090004DC700084DC700084DC700084DC70008F0
:1000A0004DC700084DC700084DC700084DC70008E0
:1000B000FDBA00084DC700084DC700084DC700082D
:1000C0004DC700084DC700084DC700084DC70008C0
:1000D0004DC7000809BB000815BB000821BB00087C
:1000E0002DBB00084DC70008000000004DC70008E8
:1000F0004DC700084DC700084DC700084DC7000890
:100100004DC700084DC700084DC700084DC700087F
:1001100035BB00084DC700084DC700084DC7000893
:100120004DC700084DC700084DC700084DC700085F
:100130004DC700084DC700084DC700084DC700084F
:1001400000000000000000000000000000000000AF
:100150004DC700084DC700084DC700084DC700082F
:100160004DC700084DC700084DC700084DC700081F
:100170004DC700084DC700084DC70008000000002B
:100180004DC700084DC700084DC700084DC70008FF
:100190004DC700084DC700084DC700084DC70008EF
:1001A0004DC700084DC700084DC700084DC70008DF
:1001B0004DC700084DC700084DC700084DC70008CF
:1001C0004DC700084DC700084DC700084DC70008BF
:1001D0004DC700084DC700084DC700084DC70008AF
:1001E0004DC700084DC700084DC700084DC700089F
:1001F0004DC700084DC700084DC700084DC700088F
:100200004DC700084DC700084DC700084DC700087E
:100210004DC700084DC700084DC700084DC700086E
:100220004DC700084DC700084DC70008000000007A
:100230004DC700084DC70008000000004DC700086A
:100240004DC700084DC700084DC700084DC700083E
:100250004DC700084DC700084DC700084DC700082E
:100260004DC700084DC700084DC700084DC700081E
:100270004DC700084DC700084DC70008000000002A
:100280004DC700084DC700084DC70008000000001A
:08029000000000004DC700084A
:1002A00010B5054C237833B9044B13B10448AFF3B0
:1002B00000800123237010BD5803002400000000BB
:1002C000C872010808B5034B1BB103490348AFF3DB
:1002D000008008BD000000005C030024C872010813
:1002E00010F8012B11F8013B012A28BF9A42F7D0E0
:1002F000D01A70470000000000000000000000005D
:1003000001F0FF01102A2BDB10F0070F08D010F8C6
:10031000013B013A8B422DD010F0070F42B3F6D1CA
:10032000F0B441EA012141EA014122F007047FF0E3
:1003300000070023F0E80256083C85EA010586EA3A
:10034000010685FA47F5A3FA87F586FA47F6A5FA76
:1003500087F68EB9EED1F0BC01F0FF0102F0070282
:1003600032B110F8013B013A83EA010313B1F8D12D
:100370000020704701387047002D06BF354603380E
:10038000073815F0010F07D1013015F4807F02BF47
:10039000013015F4C03F0130F0BC0138704700BF98
:1003A000034613F8012B002AFBD1181A01387047B5
:1003B00081F0004102E000BF83F0004330B54FEA16
:1003C00041044FEA430594EA050F08BF90EA020F83
:1003D0001FBF54EA000C55EA020C7FEA645C7FEA16
:1003E000655C00F0E2804FEA5454D4EB5555B8BF39
:1003F0006D420CDD2C4480EA020281EA030382EAAA
:10040000000083EA010180EA020281EA0303362D3B
:1004100088BF30BD11F0004F4FEA01314FF4801C0E
:100420004CEA113102D0404261EB410113F0004F20
:100430004FEA03334CEA133302D0524263EB4303D7
:1004400094EA050F00F0A780A4F10104D5F1200E75
:100450000DDB02FA0EFC22FA05F2801841F10001D0
:1004600003FA0EF2801843FA05F359410EE0A5F1A4
:1004700020050EF1200E012A03FA0EFC28BF4CF0D5
:10048000020C43FA05F3C01851EBE37101F000458B
:1004900007D54FF0000EDCF1000C7EEB00006EEB98
:1004A0000101B1F5801F1BD3B1F5001F0CD3490822
:1004B0005FEA30004FEA3C0C04F101044FEA445279
:1004C00012F5800F80F09A80BCF1004F08BF5FEA00
:1004D000500C50F1000041EB045141EA050130BDE0
:1004E0005FEA4C0C404141EB0101013C28BFB1F5F2
:1004F000801FE9D291F0000F04BF01460020B1FA3D
:1005000081F308BF2033A3F10B03B3F120020CDA0F
:100510000C3208DD02F1140CC2F10C0201FA0CF0ED
:1005200021FA02F10CE002F11402D8BFC2F1200C52
:1005300001FA02F120FA0CFCDCBF41EA0C01904008
:10054000E41AA2BF01EB0451294330BD6FEA040451
:100550001F3C1CDA0C340EDC04F11404C4F120023C
:1005600020FA04F001FA02F340EA030021FA04F34E
:1005700045EA030130BDC4F10C04C4F1200220FAA5
:1005800002F001FA04F340EA0300294630BD21FAE3
:1005900004F0294630BD94F0000F83F4801306BFA9
:1005A00081F480110134013D4EE77FEA645C18BF9D
:1005B0007FEA655C29D094EA050F08BF90EA020F34
:1005C00005D054EA000C04BF1946104630BD91EA2C
:1005D000030F1EBF0021002030BD5FEA545C05D12F
:1005E0004000494128BF41F0004130BD14F580046E
:1005F0003CBF01F5801130BD01F0004545F0FE41E2
:1006000041F470014FF0000030BD7FEA645C1ABF16
:10061000194610467FEA655C1CBF0B46024650EA4D
:10062000013406BF52EA033591EA030F41F4002179
:1006300030BD00BF90F0000F04BF0021704730B5FF
:100640004FF4806404F132044FF000054FF00001D4
:1006500050E700BF90F0000F04BF0021704730B595
:100660004FF4806404F1320410F0004548BF40426A
:100670004FF000013EE700BF42004FEAE2014FEABF
:1006800031014FEA02701FBF12F07F4393F07F4F9A
:1006900081F06051704732F07F4208BF704793F09D
:1006A0007F4F04BF41F40021704730B54FF46074B0
:1006B00001F0004521F000411CE700BF50EA0102B3
:1006C00008BF704730B54FF000050AE050EA01025C
:1006D00008BF704730B511F0004502D5404261EBCC
:1006E00041014FF4806404F132045FEA915C3FF40D
:1006F000D8AE4FF003025FEADC0C18BF03325FEAAA
:10070000DC0C18BF033202EBDC02C2F1200300FA5A
:1007100003FC20FA02F001FA03FE40EA0E0021FA7F
:1007200002F11444BDE600BF80F0004002E000BFCB
:1007300081F0004142001FBF5FEA410392EA030FCC
:100740007FEA226C7FEA236C6AD04FEA1262D2EB16
:100750001363C1BFD218414048404140B8BF5B421B
:10076000192B88BF704710F0004F40F4000020F0B4
:100770007F4018BF404211F0004F41F4000121F0CA
:100780007F4118BF494292EA030F3FD0A2F1010214
:1007900041FA03FC10EB0C00C3F1200301FA03F152
:1007A00000F0004302D5494260EB4000B0F5000F75
:1007B00013D3B0F1807F06D340084FEA310102F134
:1007C0000102FE2A51D2B1F1004F40EBC25008BFE6
:1007D00020F0010040EA03007047490040EB0000B0
:1007E000013A28BFB0F5000FEDD2B0FA80FCACF1B1
:1007F000080CB2EB0C0200FA0CF0AABF00EBC250DE
:1008000052421843BCBFD0401843704792F0000FCB
:1008100081F4000106BF80F400000132013BB5E71E
:100820004FEA41037FEA226C18BF7FEA236C21D094
:1008300092EA030F04D092F0000F08BF08467047F9
:1008400090EA010F1CBF0020704712F07F4F04D1C7
:10085000400028BF40F00040704712F100723CBFDA
:1008600000F50000704700F0004343F0FE4040F404
:10087000000070477FEA226216BF08467FEA2363C2
:100880000146420206BF5FEA412390EA010F40F4AD
:10089000800070474FF0000304E000BF10F00043F9
:1008A00048BF40425FEA000C08BF704743F09643E0
:1008B00001464FF000001CE050EA010208BF7047FB
:1008C0004FF000030AE000BF50EA010208BF704782
:1008D00011F0004302D5404261EB41015FEA010C97
:1008E00002BF84460146002043F0B64308BFA3F18F
:1008F0008053A3F50003BCFA8CF2083AA3EBC25371
:1009000010DB01FA02FC634400FA02FCC2F120028F
:10091000BCF1004F20FA02F243EB020008BF20F0C6
:100920000100704702F1200201FA02FCC2F120022C
:1009300050EA4C0021FA02F243EB020008BF20EA21
:10094000DC70704753B94AB9002908BF00281CBFA2
:100950004FF0FF314FF0FF3000F0C2B9ADF1080C9D
:100960006DE904CE00F040F8DDF804E0DDE9022393
:1009700004B0704708B502460B4643EC172BB5EEA2
:10098000C07BF1EE10FA03D4BDE8084000F00CB8CB
:10099000B1EE477B51EC170B00F006F8404261EBDB
:1009A000410108BD000000009FED0B6B41EC170BEF
:1009B0009FED0B5B27EE066BBCEEC66BB8EE464BAD
:1009C000A4EE457BFCEEC77B16EE101A17EE900ADC
:1009D000704700BFAFF30080000000000000F03D52
:1009E000000000000000F0412DE9F047089D8E4610
:1009F00004468846002B4AD18A42174662D9B2FA89
:100A000082F64EB1C6F1200301FA06F820FA03F38C
:100A1000B74043EA0808B4404FEA174E1FFA87FC74
:100A2000B8FBFEF1230C0EFB118843EA084301FBDF
:100A30000CF29A4209D9FB1801F1FF3080F0EA80EC
:100A40009A4240F2E78002393B449A1AA3B2B2FBC1
:100A5000FEF00EFB102243EA024300FB0CFC9C4517
:100A600009D9FB1800F1FF3280F0D6809C4540F296
:100A7000D3803B44023840EA0140A3EB0C03002141
:100A80001DB1F3400022C5E90032BDE8F0878B427A
:100A900005D90DB1C5E9000100210846F5E7B3FA13
:100AA00083F1002946D1734502D3824200F20581C9
:100AB000841A6EEB030201209046002DE5D0C5E9B3
:100AC0000048E2E7002A00F09080B2FA82F6002E99
:100AD00040F0A4808A1A030C4FEA174E80B2BCB2D1
:100AE0000121B2FBFEFC0EFB1C2243EA024304FB85
:100AF0000CF29A4207D9FB180CF1FF3802D29A4245
:100B000000F2E080C4469B1AB3FBFEF20EFB1233E8
:100B100040EA034302FB04F49C4207D9FB1802F1AC
:100B2000FF3002D29C4200F2CA8002461B1B42EAFE
:100B30000C40A5E7C1F120068B4022FA06F71F43BF
:100B40000EFA01F420FA06F32EFA06FE4FEA1749D0
:100B5000234300FA01F81FFA87FCBEFBF9F01C0CD6
:100B600009FB10EE44EA0E4400FB0CFEA64502FA17
:100B700001F209D93C1900F1FF3A80F09C80A645AA
:100B800040F2998002383C44A4EB0E041FFA83FE25
:100B9000B4FBF9F309FB13444EEA044403FB0CFCD9
:100BA000A44508D93C1903F1FF3E80F08280A4459A
:100BB0007FD9023B3C4443EA0040A4EB0C04A0FB79
:100BC00002EC64457346E14662D35FD05DB1B8EB99
:100BD000030264EB090404FA06F622FA01F31E4349
:100BE000CC40C5E9006400214FE7B1FBF2FC010CE9
:100BF00041EA0E4180B240EA01423B4638463C465B
:100C0000B846BE462026B1FBF7F1A2EB080241EA46
:100C10000C4166E7014618E710462CE7C6F12002B2
:100C20002EFA02F3B740B14020FA02F24FEA174E13
:100C30000A43B3FBFEF8BCB20EFB1833110C41EAB9
:100C4000034108FB04F9B04089454FEA104380B2E4
:100C50003ED9791808F1FF3C01D289451FD8A1EB94
:100C60000901B1FBFEF909FB04F80EFB191192B260
:100C700042EA0142424529D2BA1809F1FF31C4D2F1
:100C80004245C2D2A9F102013A44BEE7F0459DD2E5
:100C9000BEEB02036CEB070C0138E14696E7A7EBCD
:100CA00009094944A8F1020CB1FBFEF909FB04F85B
:100CB000DBE773467FE7504666E70846FDE63B44C0
:100CC000023A33E7ACF1020C3B441CE749469CE78F
:100CD000A1EB0901C446B1FBFEF909FB04F8C4E726
:100CE000704700BFF0B500F1080783B0076061B33B
:100CF000054608460E46FFF753FB0F2804460190B1
:100D00000ED8012806D133786C602B7200233B5536
:100D100003B0F0BD68B900236C603B5503B0F0BD73
:100D2000002201A9284611F0F9FC019B0746286022
:100D3000AB6022463146384613F0C7FE019C2F684F
:100D400000236C603B5503B0F0BD014811F0BBFCC3
:100D5000D0730108002873D02DE9F04F074683B007
:100D6000D7F80C80B8F1000F60D0D8F80C90B9F12A
:100D7000000F52D0D9F80CA0BAF1000F44D0DAF825
:100D80000C40002C37D0D4F80CB0BBF1000F2BD0A6
:100D9000DBF80C60FEB1F568B5B1EB686BB1D868F3
:100DA0000193FFF7D7FF019B202118469B68019311
:100DB00011F0C6FA019B002BF1D12846AD68202125
:100DC00011F0BEFA002DE8D13046B668202111F0AE
:100DD000B7FA002EDFD1DBF808502021584611F079
:100DE000AFFA0DB1AB46D3E72046A468202111F03D
:100DF000A7FA002CC7D1DAF808402021504611F09C
:100E00009FFA0CB1A246BAE7D9F80840202148461B
:100E100011F096FA0CB1A146ACE7D8F808402021B1
:100E2000404611F08DFA0CB1A0469EE73846BF68E7
:100E3000202111F085FA002F92D103B0BDE8F08F88
:100E4000704700BF2DE9F04F83B00190002800F0FB
:100E50000E81019BD3F80C80B8F1000F00F0EF80F9
:100E6000D8F80C90B9F1000F00F0CF80D9F80CA0A1
:100E7000BAF1000F00F0AF80DAF80C40002C00F05F
:100E80009080E568002D75D0EE68002E5BD0F76885
:100E9000002F3DD0FA6802B3D0680092FFF7D2FF6E
:100EA000009A106902F11801D2F808B088420DD0FA
:100EB0009169013111F044FA009A2C21104611F089
:100EC0003FFABBF1000F08D05A46E5E72C21104647
:100ED00011F036FABBF1000FF6D1386907F11802AC
:100EE000D7F808B090420CD0B969013111F028FA56
:100EF0002C21384611F024FABBF1000F08D05F46D0
:100F0000C8E72C21384611F01BFABBF1000FF6D1CF
:100F1000306906F11803D6F808B098420CD0B169D0
:100F2000013111F00DFA2C21304611F009FABBF114
:100F3000000F08D05E46AAE72C21304611F000FAD7
:100F4000BBF1000FF6D1286905F11803AE6898428D
:100F50000AD0A969013111F0F3F92C21284611F0CA
:100F6000EFF93EB135468FE72C21284611F0E8F91C
:100F7000002EF7D1206904F11803A56898420AD021
:100F8000A169013111F0DCF92C21204611F0D8F9CA
:100F90003DB12C4675E72C21204611F0D1F9002DEA
:100FA000F7D1DAF810000AF11803DAF8084098428D
:100FB0000BD0DAF81810013111F0C2F92C2150468B
:100FC00011F0BEF93CB1A24656E72C21504611F073
:100FD000B7F9002CF7D1D9F8100009F11803D9F8A6
:100FE000084098420BD0D9F81810013111F0A8F937
:100FF0002C21484611F0A4F93CB1A14636E72C213A
:10100000484611F09DF9002CF7D1D8F8100008F1EE
:101010001803D8F8084098420BD0D8F818100131BE
:1010200011F08EF92C21404611F08AF93CB1A0460E
:1010300016E72C21404611F083F9002CF7D1019DD1
:10104000286905F11803AC6898420AD0A9690131F2
:1010500011F076F92C21284611F072F93CB1019477
:10106000F7E628462C2111F06BF9002CF7D103B0DC
:10107000BDE8F08F2DE9F04F83B00190002800F01B
:101080000E81019BD3F80C80B8F1000F00F0EF80C7
:10109000D8F80C90B9F1000F00F0CF80D9F80CA06F
:1010A000BAF1000F00F0AF80DAF80C40002C00F02D
:1010B0009080E568002D75D0EE68002E5BD0F76853
:1010C000002F3DD0FA6802B3D0680092FFF7D2FF3C
:1010D000009A106902F11801D2F808B088420DD0C8
:1010E0009169013111F02CF9009A2C21104611F070
:1010F00027F9BBF1000F08D05A46E5E72C2110462E
:1011000011F01EF9BBF1000FF6D1386907F1180292
:10111000D7F808B090420CD0B969013111F010F93C
:101120002C21384611F00CF9BBF1000F08D05F46B6
:10113000C8E72C21384611F003F9BBF1000FF6D1B6
:10114000306906F11803D6F808B098420CD0B1699E
:10115000013111F0F5F82C21304611F0F1F8BBF116
:10116000000F08D05E46AAE72C21304611F0E8F8BF
:10117000BBF1000FF6D1286905F11803AE6898425B
:101180000AD0A969013111F0DBF82C21284611F0B1
:10119000D7F83EB135468FE72C21284611F0D0F81C
:1011A000002EF7D1206904F11803A56898420AD0EF
:1011B000A169013111F0C4F82C21204611F0C0F8CA
:1011C0003DB12C4675E72C21204611F0B9F8002DD1
:1011D000F7D1DAF810000AF11803DAF8084098425B
:1011E0000BD0DAF81810013111F0AAF82C21504672
:1011F00011F0A6F83CB1A24656E72C21504611F05A
:101200009FF8002CF7D1D9F8100009F11803D9F88C
:10121000084098420BD0D9F81810013111F090F81D
:101220002C21484611F08CF83CB1A14636E72C2120
:10123000484611F085F8002CF7D1D8F8100008F1D5
:101240001803D8F8084098420BD0D8F8181001318C
:1012500011F076F82C21404611F072F83CB1A0460E
:1012600016E72C21404611F06BF8002CF7D1019DB8
:10127000286905F11803AC6898420AD0A9690131C0
:1012800011F05EF82C21284611F05AF83CB1019477
:10129000F7E628462C2111F053F8002CF7D103B0C3
:1012A000BDE8F08F2DE9F8438468071D64B30E464E
:1012B0009146B84665694A463146A94528BF2A463F
:1012C0001AB1206913F0D1FA08B9A5EB090000287A
:1012D000D4E902321BDBA0461C46002CEAD147456C
:1012E00012D0D8F814404A46A14528BF22462AB158
:1012F0003046D8F8101013F0B8FA08B9A9EB04007A
:1013000017EA200738BF47463846BDE8F883144639
:10131000002CCFD1E3E700BF2DE9F04F81468FB01D
:10132000A7480C46494605F07FF84568002D00F0B7
:1013300013814946A24805F077F80268002A00F0B8
:101340001481DFF8A0B223464FF40071009558468F
:10135000CDE901299B4A13F0EDF9B0F5007F80F04B
:10136000A080994E5946994813F0A7FB0436B468FB
:10137000B44200F011810027954DDFF85082DFF86C
:101380008CA2CDF81490D4E90492022A00F0CA800D
:10139000092A6ED18F494846049213F066FA002854
:1013A0006FD0049A48468C4913F05FFA002868D041
:1013B000D4ED0A7A4B4680212846B6EEE77AF4EE61
:1013C000477AB7EEE76AF1EE10FA8DED006B14BFC5
:1013D000824A834A13F0AEF97F2860D82846FEF788
:1013E000DFFF8146002F40F08D807E48FEF7D8FF5A
:1013F00009F102020244FF2A00F28480DFF8E4913E
:101400004846FEF7CDFF2946484413F081FABAF862
:1014100000300380204611F00BF8B0420446B2D1F0
:1014200070487D25FEF7BCFF03466E485B4403F819
:10143000015CFEF7B5FF6C4B411C1C882BF800408B
:1014400068480AF041FC002F59D0604E3046FEF744
:10145000A7FF03463046334403F8015CFEF7A0FFC4
:1014600003463046591CF4520FB0BDE8F04F0AF065
:101470002BBC0A2A61D15D49484613F0F6F90028D1
:1014800096D194ED0A7A4B46594A8021B7EEC77A35
:1014900028468DED007B13F04DF97F289ED9DDF8AD
:1014A00014904B4E4B46534A802130460AAD13F000
:1014B00041F930460895FEF773FF0F280446079060
:1014C00055D8012844D133788DF828302946002397
:1014D0000994494A0B554FF40071089B474813F093
:1014E00029F94648FEF75CFF014644480AF0ECFB48
:1014F0000898A84203D00A99013110F021FF0FB0DB
:10150000BDE8F08F4046FEF74BFF09EB0002B2F555
:10151000007FC4D209F102030344FF2B36D8012710
:10152000C1466DE799F80020492A7FF441AF99F848
:101530000120442A7FF43CAF6CE7072A7FF438AFE0
:101540002F49484613F091F900287FF431AF98E70E
:101550000028BBD0284612E04946194804F064FF31
:101560000268284D002A7FF4ECAE264AE9E6002204
:1015700007A908A811F0D2F8079B08900A93224601
:10158000134913F0A2FADDE90741A0E7DDF8149052
:101590000F4E4B461C4A87E75846FEF701FF0346AD
:1015A0007D2258465B4403F8012CFEF7F9FE0E4AF3
:1015B000034658461288591C2BF8032054E700BFF5
:1015C0004C0E002404740108240E0024F4030024AB
:1015D00074030024707401087C740108A874010865
:1015E000B4740108F40500246477010888740108C4
:1015F0009C7401083074010850740108F407002439
:1016000094740108C0760108C0740108EC740108E4
:1016100010B5084C4FF400710368074A204613F0D8
:1016200089F82046FEF7BCFE01462046BDE8104082
:101630000AF04ABBF4070024507401082DE9F04F6A
:10164000D1E900A383B081469E100AEB0304002E6B
:1016500040F3D3804FEA860B55460AEB860812E02A
:10166000687812F057F9002867D0A87812F052F97C
:10167000002868D0E8782F1D12F04CF9002864D0BB
:10168000474566D03D46287812F044F90028E7D156
:1016900015E014F8020C12F03DF900284FD014F8B0
:1016A000030C12F037F900284BD014F8040C12F098
:1016B00031F900284BD0013EA4F1040453D014F8B2
:1016C000010C12F027F90028E3D1AC4215D9641BB4
:1016D00009F1080000220F2C0194C9E9000217DC6F
:1016E000012C1ED12B78C9F8044089F8083000235A
:1016F0000355484603B0BDE8F08F002309F1080206
:10170000484689F80830C9E9002303B0BDE8F08FE6
:1017100001A9484611F002F8019BC9F80000C9F878
:1017200008302246294613F0D0F9019CD9F8000070
:101730000023C9F804400355DBE70135BFE7013C4E
:10174000C3E7023CC1E70235B9E70335B7E7033C1D
:10175000BBE7A4EB0803022B41D0032B13D0012BD2
:1017600032D02546ABE7A4EB0A03022B24D0032B8F
:101770001BD0012B05D114F8010C12F0CBF8002876
:10178000A3D05446A1E71AF80B0012F0C3F820B317
:10179000787812F0BFF800285ED0B87812F0BAF866
:1017A00000284FD02546002E89D114F8010C12F0E4
:1017B000B1F8002889D0013C14F8010C12F0AAF805
:1017C000002882D0013CD6E71AF80B0012F0A2F8EC
:1017D00000280CBF4546254671E745466FE71AF8D5
:1017E0000B0012F097F80028F7D098F8010012F0DB
:1017F00091F80028B5D1053561E7022B06D0032BFF
:1018000019D0012B0ED0254654465EE79AF8000009
:1018100012F080F8F0B19AF8010012F07BF8B0B144
:101820002546C9E79AF8000012F074F800280CBFAA
:10183000554625469FE79AF8000012F06BF880B1F4
:101840005746A5E7BD1C002E7FF439AFADE70AF17E
:101850000105B1E75546AFE77D1C002E7FF42FAFA1
:10186000A3E75546A1E700BF30B5024689B00D4653
:1018700002A81146FFF7E2FE039C54B9029804AB9C
:10188000984203D00499013110F05AFD204609B066
:1018900030BD162300220F4902A811F0CBF8013009
:1018A00002D002980024EAE70024102201A902983D
:1018B000019412F025F80346DDE901209042DED0C4
:1018C00012782AB9B3F5803F02D201242B80D6E7E3
:1018D0000024D4E7F074010870B508238AB00D46DF
:1018E00000222749064611F08CF830B129463046CF
:1018F0000AB0BDE8704004F033BD04460DF10601A6
:101900002846ADF80640FFF7AFFF002836D0BDF8F7
:1019100006304FF6FF72934222D00133194A052157
:1019200002A806AD12F006FF02A80495FEF738FDE6
:10193000012804461DD0B0B904F128030022059403
:1019400030466B4404A903F8102C04F009FD049BF5
:101950000446AB4204D006991846013110F0F0FC61
:1019600020460AB070BD024602A9284613F0ADF821
:10197000E2E79DF808308DF81830DDE70446EFE720
:1019800008750108147501082DE9F04F2DED028B43
:10199000ADF5137D0C460546114606A81E46FFF719
:1019A0004DFE079A3AB116230022B04906A811F05D
:1019B00041F801304AD021680DF148089F9A0CACDB
:1019C0003368404600914FF400710EAFCDE90152EB
:1019D000A74A12F0AFFE40462760FEF7E1FC0F2851
:1019E00005AE0546306000F28C80012D40F0848009
:1019F00098F800303A4623720023656053559D4A9B
:101A00004FF4007123689C4812F094FE9A48FEF748
:101A1000C7FC014698480AF057F92068B84203D03D
:101A2000A168013110F08CFC9FED948A069808ABF8
:101A3000984203D00899013110F082FCB0EE480AB8
:101A40000DF5137DBDEC028BBDE8F08F1022002355
:101A500006980DEB0201049311F052FF049B069AC5
:101A6000074693425CD093F80090B9F1000F57D12C
:101A7000B0F5803F80F0C8809E9B002B00F00C8169
:101A80000DF1480814AED3F808B085B2C8F800606C
:101A9000BBF1000F00F01F8158460CACFEF780FC34
:101AA0000F28824620605ED8012840F0DA809BF83B
:101AB0000030324688F808300023C8F804A002F845
:101AC0000A30D8E90094092C65D00A2C40F0B78080
:101AD00022466B49484612F0C8FE002868D007EE3F
:101AE000905AB8EE678AB145A0D0D8F80810484699
:101AF000013110F025FC99E7002D40F0F0803A46C6
:101B00007AE700223146204610F008FE3368206054
:101B1000A3602A46414612F0D8FF356822686BE779
:101B200021680DF148089F9A0CAC0EAF336840460F
:101B300000914FF4007105AECDE901524C4A12F00C
:101B4000F9FD40462760FEF72BFC0F280546306064
:101B50004BD801281AD0002840F0BB803B46002219
:101B600065605A554BE74A462146404610F0D6FD7F
:101B70002368C8F80000C8F808305246594612F0E9
:101B8000A4FFD4F800A0D8F8002095E798F800301A
:101B900023723B46E3E722463A49484612F065FE87
:101BA00030B122463849484612F05FFE002896D1EF
:101BB0009E9B1B7B462B0DD0492B0BD0422B36D046
:101BC00007EE905A9E9BB8EE678AD3ED047A28EE12
:101BD000278A88E73FB29E9B07EE907A93ED048AAE
:101BE000F8EEE77A27EE888A7DE700223146204624
:101BF00010F094FD33682060A3602A46414612F03D
:101C000064FF35682368AAE79F980DF1480801959D
:101C10000EAF21680CAC33681C4A0290404600911C
:101C20004FF4007112F086FD40462760D5E6F7EECE
:101C3000007A9FED177A002D07FE278A53E7072CBD
:101C40007FF44DAF22461349484612F00EFE00289D
:101C5000AED007EE905AB145B8EE678A7FF445AF33
:101C6000E4E6002837D0304687E700BFF07401086B
:101C70002475010850740108F407002420BCBE4CF0
:101C800088740108707401087C7401086475010887
:101C9000000000009474010803900DF148082168C9
:101CA0000EAF9F980CAC336805AE0E4A00914FF40E
:101CB0000071CDE90150404612F03CFD40462760DE
:101CC000FEF76EFB0F28054630607FF68EAE9E9ABB
:101CD00018E7384691E732464FF0000AECE63846FE
:101CE00017E700BFA075010870B5044608460D4609
:101CF000FEF756FB6668864201D0002070BD46B1F3
:101D000032462946206812F0B0FDB0FA80F0400952
:101D100070BD012070BD00BF2DE9F04FD0E9007407
:101D20000D469946E11B794B9346794AC91085B017
:101D300003FB01F1914200F0E580EB1BA7428046D6
:101D4000009300F0B680B1EB410F4FEA410000F282
:101D50008280002840F0CF80182682460190DBF870
:101D60000030E91BD9F800200AEB010BA2EB0309B4
:101D700000220BF10800B9F10F0FCDF80C904AF8D2
:101D80000100CBF8042000F2A180B9F1010F00F0AE
:101D90009980B9F1000F40F0A5800023BD42CBF837
:101DA000049000F809301CD00AF1080307F1080973
:101DB0003E4643F8083CD6E90012494567D0B06872
:101DC000183609F11809B542186043E9021203F107
:101DD0001803EED1A5F11806F61B26F007063036DB
:101DE0005644A54228D006F1080305F10801A9468A
:101DF000A346D9F80020D9F804408A4243F8083CA9
:101E000033D043F8082C09F1180959F8102C18316F
:101E1000CB4543E9014203F11803EAD15C463D4A50
:101E2000631B183BDB0802FB03F323F06043013321
:101E300003EB430306EBC3062FB1D8F8081038466E
:101E4000C91B10F07DFA019BC8E900A6C8F808304C
:101E500005B0BDE8F08F304E304610F082FA83199D
:101E6000824600F11806019379E709F1180918462E
:101E7000621C009112F029FE00990346D94501F138
:101E8000180140F8044C03F11803B2D1C6E701323F
:101E900049461846183612F018FE56F8142C034618
:101EA000AE4209F1180940F8042C03F1180380D15F
:101EB00090E70131CFD2914228BF114601EB410199
:101EC000CE00C9E71B788BF8083066E703A95846AF
:101ED000009310F023FCEB1B039A4AF80300009BCD
:101EE000CBF808204A46194612F0EFFDDDF80C90B9
:101EF000DBF8000051E7904228BF104600EB40009D
:101F0000C600A9E7054810F0E1FB00BFABAAAAAAEA
:101F100055555505ABAAAA0AF8FFFF7FEC750108D5
:101F200000232DE9F04F0C6887B0064683600F460A
:101F30001546C0E9003348682044A04200F0EC8018
:101F4000194600F1FF3C631E13F8012FAA4208BF97
:101F500001319C45F8D10131724B994200F2DE808B
:101F6000002940F08D8089464FF000080394A0EBD3
:101F7000040C039B4FEAAC020493002A62DD04EBDD
:101F800082020BE06378AB4274D0A378AB4273D08B
:101F9000E378AB4272D00434A24251D02378AB42F2
:101FA000F0D14945039426D0DDF810B009F10800BE
:101FB000C9F80480A4EB0B0AC9F80000BAF10F0FAE
:101FC000CDF814A029D8BAF1010F22D19BF8003026
:101FD00089F80830C9F804A000F80A80736818333B
:101FE0007360D7E90003184484420ED00134D6E967
:101FF00001910394BBE703AB304604AAFFF78CFEC4
:10200000D7E9000318448442F0D1304607B0BDE858
:10201000F08FBAF1000FDDD009E0002205A9484693
:1020200010F07CFB059BC9F80000C9F80830524647
:10203000594612F04AFDDDF814A0D9F80000C9E7AE
:10204000A0EB040CBCF1020F0BD0BCF1030F04D0C9
:10205000BCF1010F09D00446A3E72378AB42A0D01E
:1020600001342378AB429CD001342378AB4218BFB3
:10207000044696E7013494E7023492E7033490E78C
:1020800001EB4101CC00204610F06BF98146D6E906
:1020900000BAD34517D000F108030BF10801D84668
:1020A00043F8083CD8E9000288421ED008F118081D
:1020B000183143E9020258F8102CC24503F1180305
:1020C00043F8182CECD1BBF1000F05D0B16858468D
:1020D000A1EB0B0110F034F909EB0401D7E9004042
:1020E000C6E900992044B1603EE7013218460191EB
:1020F00008F1180812F0E9FC58F8142C034601996D
:10210000C24540F8042C01F1180103F11803C7D1AE
:10211000BBF1000FDAD1DFE71824B4E7024810F072
:10212000D5FA00BF55555505087601082DE9F04F41
:102130008C6883B08B4681460192002C4AD0D2E94C
:10214000008A6669554627694046B245394628BF28
:1021500035462A4615B112F088FB08B9AAEB0600ED
:1021600000281ADBE2680AB11446EAE7A3468DB1FB
:102170002A464146384612F078FB58B100284FF005
:1021800000034846B4BFC9E9003BC9E9004303B0B6
:10219000BDE8F08FA6EB0A00F0E7A268002AE3D1C1
:1021A000DBF80C30A3420ED02046A34610F044F9D1
:1021B000019B0446D0E90476D3E9008AB24555462E
:1021C00028BF3546D3E700234846C9E9003403B0A9
:1021D000BDE8F08F0C1DDBF80C30A342E4D1F2E730
:1021E0002DE9F04F064685B02C200F46904610F0A2
:1021F000B8F800F11809044600F1100AC0F8109070
:102200003846FEF7CDF80F280546029035D801284C
:102210001FD13B7849460DF1080B237600236561F9
:10222000524658464B553146D8F80030A362FFF766
:102230007DFFDDE9023595B183B30120331D2A46C8
:10224000214610F0FBF873690133736105B0BDE8F6
:10225000F08F00283AD149460DF1080BDEE72069DE
:10226000814503D0A169013110F06AF82C21204684
:1022700005B0BDE8F04F10F063B80DF1080B002277
:102280005046594610F04AFA029B2061A3612A4643
:10229000394612F01AFC029D2169BFE7331D9D42A9
:1022A00012D0D4F814806F694246B84528BF3A4628
:1022B00032B129692069019312F0D7FA019B08B95C
:1022C000A8EB0700C00FBAE70120B8E748460DF1B8
:1022D000080BDCE72DE9F04F064685B02C200F46B1
:1022E000904610F03EF800F11809044600F1100A7B
:1022F000C0F810903846FEF753F80F2805460290B4
:1023000035D801281FD13B7849460DF1080B2376BB
:1023100000236561524658464B553146D8F8003087
:10232000A362FFF703FFDDE9023595B183B3012016
:10233000331D2A46214610F081F873690133736119
:1023400005B0BDE8F08F00283AD149460DF1080BE1
:10235000DEE72069814503D0A16901310FF0F0FF6C
:102360002C21204605B0BDE8F04F0FF0E9BF0DF17C
:10237000080B00225046594610F0D0F9029B20610C
:10238000A3612A46394612F0A0FB029D2169BFE7EE
:10239000331D9D4212D0D4F814806F694246B8456F
:1023A00028BF3A4632B129692069019312F05DFADB
:1023B000019B08B9A8EB0700C00FBAE70120B8E7F6
:1023C00048460DF1080BDCE72DE9F04F064685B0D5
:1023D0002C200F4690460FF0C4FF00F11809044668
:1023E00000F1100AC0F810903846FDF7D9FF0F2809
:1023F0000546029035D801281FD13B7849460DF19A
:10240000080B237600236561524658464B553146EA
:10241000D8F80030A362FFF789FEDDE9023595B1F7
:1024200083B30120331D2A46214610F007F8736953
:102430000133736105B0BDE8F08F00283AD14946F9
:102440000DF1080BDEE72069814503D0A169013158
:102450000FF076FF2C21204605B0BDE8F04F0FF0BD
:102460006FBF0DF1080B00225046594610F056F987
:10247000029B2061A3612A46394612F026FB029D89
:102480002169BFE7331D9D4212D0D4F814806F69D3
:102490004246B84528BF3A4632B1296920690193BE
:1024A00012F0E3F9019B08B9A8EB0700C00FBAE7E7
:1024B0000120B8E748460DF1080BDCE72DE9F043B1
:1024C00089B0D0F8008004AF0297002900F0A38003
:1024D000064608460D46FDF763FF0F2804460190A7
:1024E00058D8012852D12B783A468DF81030002365
:1024F000039440461355DDE902422146FEF7D2FE21
:10250000BC42804604D00499204601310FF018FFE8
:1025100033680433984536D02C200FF022FF00F1A9
:102520001807044600F1100907612846FDF738FF37
:102530000F28064602904DD8012848D12B782376E3
:102540003B4600216661374D4A46995502A8D8F8A6
:1025500028302946A362FFF7E9FDDDE9022646B3EC
:102560002B1DF01AB0FA80F04009002A18BF40F085
:10257000010000283DD02C4B324621460FF05EFF73
:102580006B6901336B6109B0BDE8F083002847D166
:102590003A46ACE7002201A902A810F0BFF8019B5F
:1025A000029004932246294612F08FFADDE9014297
:1025B0009DE72069874203D0A16901310FF0C0FE79
:1025C0002C21204609B0BDE8F0430FF0B9BE28BB6E
:1025D0003B46B6E7002202A9484610F09FF8029B4E
:1025E0002061A3613246294612F06FFA029E2369E8
:1025F000A7E7D4F8148077694246B84528BF3A4621
:102600002AB13169206912F030F9034608B9A8EB04
:102610000703D80FAFE7054810F055F83846E1E753
:102620003846BFE7240E0024280E0024D07301088A
:102630002DE9F84F1F460B1D0E4605469A424CD019
:102640001446D7E900A8D2E904B9C8451ED8B8F1A4
:10265000000F7ED042465946504612F006F908B99E
:10266000A8EB0900002853DBC845424628BF4A466C
:102670008AB15846514612F0F8F860B100280EDBD6
:102680000023C5E900432846BDE8F88FB9F1000FE3
:102690003BD04A46DFE7A9EB08000028F0DA3369AF
:1026A000A3422CD020460FF0C3FE8146D0E9041B84
:1026B000C3455A4628BF42461AB1504612F0D5F8D3
:1026C00008B9A8EB0B00002851DB28463A463146F2
:1026D000FFF72CFD2846BDE8F88F4B69002BF4D09E
:1026E0000C69D7E90018D4E90409C1454A4628BF56
:1026F00042465AB312F0B9F840B30028E5DA002395
:102700002846C5E90034BDE8F88FB8F1000FC6DAF5
:10271000F368A34215D020460FF08EFE8146D0E923
:10272000040BC3455A4628BF42461AB1514612F01F
:102730009CF808B9ABEB08000028C6DAD9F80C30D1
:10274000D3B12846C5E90044BDE8F88FA9EB0800DD
:10275000D3E7C9F10003002B9DDACB689A42F0D091
:1027600020460FF069FE8146D0F814B0E2E7E36836
:102770002BB1C5E9009986E7C5E9003983E7C5E9CA
:10278000003480E72DE9F04F846885B081460F461C
:1027900000F1040AD1E9006B74B3D04665695A466A
:1027A0003146AB4528BF2A461AB1206912F05DF8C0
:1027B00008B9A5EB0B00002804DBA368A0462BB1E9
:1027C0001C46EBE7E368002BFAD14446A24514D03F
:1027D00065695D452A4628BF5A4622B130462169BF
:1027E00012F043F808B9ABEB0500002805DB04F153
:1027F000280005B0BDE8F08F54462C200FF0B1FD45
:102800003A4600F11808054652F8086B00F110032B
:10281000C0F8108096423FD000210661D7F804B07E
:10282000B8687960397200213A602246A86102A82E
:10283000A9624946C5F814B0FFF7FAFEDDE9024780
:10284000D7B1AAEB0700B0FA80F04009002C18BFFE
:1028500040F0010000283CD053463A4629462C4619
:102860000FF0ECFDD9F8143004F128000133C9F859
:10287000143005B0BDE8F08FB04504D0A9693046EA
:1028800001310FF05DFD28462C210FF059FD04F1B8
:10289000280005B0BDE8F08FD7F804B031464046B7
:1028A00001930BF1010212F010F9002122463E6063
:1028B000796002A839720021019BA9624946C5F8D6
:1028C00014B0FFF7B5FEDDE90247002FDBD0464626
:1028D000B7E77C695A46A34528BF224622B1304655
:1028E000396911F0C2FF08B9ABEB0400C00FB3E7C0
:1028F0002DE9F04F846885B081460F4600F1040A47
:10290000D1E9006B74B3D04665695A463146AB4590
:1029100028BF2A461AB1206911F0A7FF08B9A5EB14
:102920000B00002804DBA368A0462BB11C46EBE794
:10293000E368002BFAD14446A24514D065695D4591
:102940002A4628BF5A4622B13046216911F08DFF30
:1029500008B9ABEB0500002805DB04F1280005B041
:10296000BDE8F08F54462C20A0460FF0FAFC00F191
:10297000180604460661D7E9003500F110070F2D4F
:10298000029507D8012D51D11B780376B4460DF17D
:10299000080B12E00DF1080B00223846019359464E
:1029A0000FF0BCFE029A019B2061A2612A461946E3
:1029B00012F08BF8029DD4F810C0002165613B46EF
:1029C00042460CF8051000215846A1624946FFF71F
:1029D0002FFEDDE90275C5B1AAEB0500B0FA80F063
:1029E0004009002F18BF40F0010028B353462A4683
:1029F00021460FF023FDD9F8143004F128000133EB
:102A0000C9F8143005B0BDE8F08F2069864203D0C4
:102A1000A16901310FF094FC20463C462C210FF0B7
:102A20008FFC04F1280005B0BDE8F08F002DADD07B
:102A300030460DF1080BB9E767696E693A46B7424F
:102A400028BF324622B12969206911F00EFF00B972
:102A5000B81BC00FCAE700BF2DE9F04F174685B07D
:102A600006462C20984689460FF07BFC044600F170
:102A7000100AD7E9003500F118070F2D02950761FC
:102A80003DD8012D26D11B78BC460DF1080B0376ED
:102A90000021656153464A460CF805105846D8F89F
:102AA0000010A1623146FFF7C3FDDDE90258B8F11D
:102AB000000F15D0002D36D00120331D424621468F
:102AC0000FF0BCFC2546736928460133736105B0DD
:102AD000BDE8F08F002D3ED1BC460DF1080BD7E7C5
:102AE0002069874203D0A16901310FF029FC2046FB
:102AF0002C210FF025FC284605B0BDE8F08F0DF124
:102B0000080B00225046019359460FF007FE029A27
:102B1000019B2061A2612A46194611F0D6FF029D51
:102B2000D4F810C0B4E7331D984512D06769D8F8BF
:102B300014503A46AF4228BF2A463AB1D8F810108E
:102B40002069019311F091FE019B00B9781BC00F21
:102B5000B4E70120B2E738460DF1080BDBE700BF10
:102B60002DE9F04F846883B08046894600F1040B5C
:102B70000192D1E9006A64B35F4665695246314605
:102B8000AA4528BF2A461AB1206911F06EFE08B97D
:102B9000A5EB0A00002804DBA26827462AB11446E8
:102BA000EBE7E268002AFAD13C46A34512D06569FA
:102BB0005246AA4528BF2A4622B13046216911F063
:102BC00054FE08B9AAEB0500002803DB03B0BDE8FA
:102BD000F08F5C46019B4A4621464046FFF73CFF8A
:102BE00003B0BDE8F08F00BF2DE9F04F8C6883B0D3
:102BF0008B4681460192002C4AD0D2E9008A666950
:102C0000554627694046B245394628BF35462A46CB
:102C100015B111F02AFE08B9AAEB060000281ADB4C
:102C2000E2680AB11446EAE7A3468DB12A46414656
:102C3000384611F01AFE58B100284FF000034846FC
:102C4000B4BFC9E9003BC9E9004303B0BDE8F08F58
:102C5000A6EB0A00F0E7A268002AE3D1DBF80C300B
:102C6000A3420ED02046A3460FF0E6FB019B04468C
:102C7000D0E90476D3E9008AB245554628BF3546E7
:102C8000D3E700234846C9E9003403B0BDE8F08F1C
:102C90000C1DDBF80C30A342E4D1F2E72DE9F84F2C
:102CA0001F460B1D0E4605469A424CD01446D7E9E6
:102CB00000A8D2E904B9C8451ED8B8F1000F7ED0EB
:102CC00042465946504611F0D0FD08B9A8EB09001C
:102CD000002853DBC845424628BF4A468AB15846B9
:102CE000514611F0C2FD60B100280EDB0023C5E99A
:102CF00000432846BDE8F88FB9F1000F3BD04A46A3
:102D0000DFE7A9EB08000028F0DA3369A3422CD0F2
:102D100020460FF08DFB8146D0E9041BC3455A467F
:102D200028BF42461AB1504611F09FFD08B9A8EBE2
:102D30000B00002851DB28463A463146FFF754FF86
:102D40002846BDE8F88F4B69002BF4D00C69D7E911
:102D50000018D4E90409C1454A4628BF42465AB37F
:102D600011F083FD40B30028E5DA00232846C5E9C9
:102D70000034BDE8F88FB8F1000FC6DAF368A3425B
:102D800015D020460FF058FB8146D0E9040BC3450F
:102D90005A4628BF42461AB1514611F066FD08B99D
:102DA000ABEB08000028C6DAD9F80C30D3B12846BE
:102DB000C5E90044BDE8F88FA9EB0800D3E7C9F1E5
:102DC0000003002B9DDACB689A42F0D020460FF02A
:102DD00033FB8146D0F814B0E2E7E3682BB1C5E9D4
:102DE000009986E7C5E9003983E7C5E9003480E743
:102DF0002DE9F04F154685B006462C200F460FF002
:102E0000B0FA2A6800F11808044600F11009C0F869
:102E10001080D2E900B50F2D02953AD8012D23D1AB
:102E20009BF80030C4460DF1080A03760021656165
:102E30003A464B460CF805105046A1623146FFF762
:102E40002DFFDDE90257AFB1002D34D00120331D35
:102E50003A4621460FF0F2FA2546736928460133B7
:102E6000736105B0BDE8F08F002D3CD1C4460DF173
:102E7000080ADBE72069804503D0A16901310FF022
:102E80005FFA20462C210FF05BFA284605B0BDE81A
:102E9000F08F0DF1080A0022484651460FF03EFC23
:102EA000029B2061A3612A46594611F00EFE029D45
:102EB000D4F810C0BAE7331D9F4212D0D4F8148062
:102EC0007D694246A84528BF2A4632B13969206942
:102ED000019311F0CAFC019B08B9A8EB0500C00FD3
:102EE000B6E70120B4E740460DF1080ADBE700BF72
:102EF0002DE9F04F902091B00FF033FAAB4A054620
:102F0000AB4BAC4EAC4C05F1080705F1200CA946C3
:102F10002F60AB46C5F818C003CA0822A860E96054
:102F20006A60EA6105F1380203CB2A6305F15002B9
:102F300069623188A14B2987B178286285F83A10F7
:102F400003211868002326886963A478AA640422F0
:102F5000E96405F168012B7485F8283085F83B3069
:102F600085F8524005F19004A86685F85330A046D4
:102F7000A5F85060C5E9181285F86C3085F88430E2
:102F80008F4BEA67186805F180030097C5F8800049
:102F9000AB678C4B9E68D9E9005A002E00F01A816D
:102FA0001F1D746952462946A24528BF22461AB100
:102FB000306911F05AFC08B9A4EB0A00002804DBC0
:102FC000B36837462BB11E46EBE7F368002BFAD106
:102FD0003E467D4B9E4200F0FE8074695246A245FB
:102FE00028BF224622B12846316911F03EFC08B9BB
:102FF000AAEB04000028C0F2EE8009F118094FF096
:10300000000AC145C6F828A0C3D170484446009FB5
:1030100003F000FA80466D4803F0FEF95D468045F6
:1030200000F0168106ABD8F8045008F1200804938C
:10303000CDE9000BCDE90274002D00F08180284617
:10304000FDF7AEF90F2804460A9000F2EA80012845
:1030500040F0F6802B788DF8183006AB059403F815
:1030600004A0584B049FD3F80890059EB9F1000FB7
:103070004ED04C4603F1040B65693246394620694F
:10308000AE4228BF2A4612B111F0EFFB00B9A81BCF
:103090000028D4E9023203DB33B1A3461C46EBE738
:1030A0001346002AFAD15C46474B9C4230D0324648
:1030B000D4E90415AE4228BF2A461AB1384611F0A9
:1030C000D4FB00B9701B002822DB414A0CAB07CAB5
:1030D00003C31A708DF839A0D8F80440C4B1C346B0
:1030E000D4E90405092D2ED8002D3AD1E468002C2E
:1030F000F6D1C3450CD0DBE90414082C33D90922DE
:103100000CA811F0B2FB08B9C4F1090000282DDAAF
:1031100006AB9F4204D00699384601310FF010F9F2
:1031200008F13C03009A08F11C08424500F08D802C
:10313000984606AB58F81C5C0493002D7FF47FAFD3
:1031400006AB00248AE709220CA911F08EFB08B90E
:10315000A5F109000028C9DBA346A468002CBFD153
:10316000C7E72A46F0E7002C40F08B80DBED0A7AB7
:10317000FDEEE77A17EE903A0B2BC9D1124DD9F834
:10318000144032463946D9F81000A64228BF2246DC
:1031900012B111F06AFB00B9A01B0028D9E9023274
:1031A00022DB2BB34D469946E9E700BF18760108AC
:1031B0002476010830760108347601083876010853
:1031C00040760108F40D0024F80D00244C0E002474
:1031D00070740108314E31460AAA3148CDF8289062
:1031E000FFF706FE064608E71346002ADBD1A9468C
:1031F0002A4B994547D0D9F814403246A64228BFF9
:1032000022462AB1D9F81010384611F02EFB00B929
:10321000301B002837DBD9F828300133C9F82830B3
:1032200076E704A800220AA90FF078FA0A9B049016
:1032300006932246294611F048FC0A9C049B0DE7A0
:1032400000283FF47DAF06A8F3E7DDE90157039CB2
:103250002E4657F8080C87420ED0B168183618373A
:1032600001310FF06DF8B442F3D19021284611B02E
:10327000BDE8F04F0FF064B818361837B442E8D103
:10328000F3E722463CE704AB49460AAA04480A93FE
:10329000FFF7AEFD049F8146BDE700BFF80D002497
:1032A000F40D00242DE9F04F154687B007462C2079
:1032B0000E460FF056F82D6800F1180A0446A8468D
:1032C000C0F810A058F8083B434500F0C9800361DE
:1032D000AB6883616B6807F1040BC5F8008063611C
:1032E0000023B3456B602B723546A36204F11003D3
:1032F00002937BD02269D4F81490736900929945A7
:10330000326901922CD8B9F1000F00F0B0804A4622
:103310000393DDE9000111F0A8FA039B08B9A9EBBA
:10332000030000287FDB99454A4628BF1A46DAB1D8
:103330000393DDE9001011F098FA039BA0B1002877
:1033400016DB2069824503D0A16901310EF0F8FF38
:1033500020462C210EF0F4FF284607B0BDE8F08F80
:10336000002B5DD01A46D3E7A3EB09000028E8DA6A
:103370003A690393B24200F0A98030460FF058F842
:103380004A468046039BD0E90415A94528BF2A4632
:10339000002A00F09E800098039311F066FA039BC8
:1033A00008B9A9EB05000028C0F28580029A3946C9
:1033B00004A8FFF719FCDDE90458B8F1000FC0D0EC
:1033C000281E18BF0120C34508BF40F00100002897
:1033D0005AD05B464246214625460FF02FF87B69BE
:1033E000284601337B6107B0BDE8F08F7B69002B75
:1033F000DCD0D7F81080D4E90439D8E9040600936A
:103400004E45324628BF4A46002A58D0194611F088
:103410002CFA08B9A6EB09000028C7DA0025CCE78A
:10342000B9F1000FA4DAFB68B34216D030460FF0B2
:1034300003F880464A46D0E90405A94528BF2A4634
:103440001AB1009911F011FA08B9A5EB090000288A
:10345000ACDAD8F80C000028B5D0B0460120B8E7A7
:103460006A6841465046013211F02FFB32E75A425A
:10347000002ABFF679AFFB68B342EED030460EF0BB
:10348000DBFF80464569E0E72369D4F81490009398
:10349000D8E9042301924B451A4628BF4A4632B167
:1034A0000293DDE9000111F0E0F9029B08B9A9EBF4
:1034B0000300C00F8DE7F268A2B145467DE7A6EB99
:1034C0000906002EBFF672AF10467CE7B046002515
:1034D00076E7A9EB0503002BBFF668AFF3681BB1D5
:1034E000012070E7B046D6E7B046D1E72DE9F04FAE
:1034F000B94BB5B008220DF1480893E8030000234A
:1035000088E803008DF85030B44B9D68CDE91082F7
:10351000002D00F07A811F1D2C46B946D4E904061F
:10352000082E00F2A581002E40F0B481E468002C42
:10353000F4D1B94500F06C81D9F81440072C40F261
:1035400088820822D9F81010404611F08EF908B987
:10355000C4F108000028C0F25B81D9F828302C465D
:103560000DF160090C939E4BCDF8589093E8030041
:1035700008231793002389E803008DF86830BA46C2
:10358000D5E90406082E00F26381002E40F0808108
:10359000ED68002DF4D1BA4500F07E81DAF81450C0
:1035A000072D40F251820822DAF81010484611F037
:1035B0005CF908B9C5F108000028C0F26D81DAF89D
:1035C000283025460B93874B1B68ADF878301B0CD1
:1035D0008DF87A301EAB07931C9303231D930023B1
:1035E0008DF87B30BA46AB46079ED4E90405032D1F
:1035F00000F2A081002D40F0AE81E468002CF4D1EF
:10360000BA455D4600F0D181DAF81440022C40F250
:1036100007820322DAF81010079811F026F908B98A
:10362000C4F103000028C0F2C081DAF8283024AECB
:103630002C460A936C4B22961B68ADF890301B0CFD
:103640008DF892300323239300238DF89330BA46EC
:10365000A346D5E90404032C00F25D81002C40F060
:103660007881ED68002DF4D1BA455C4600F0828186
:10367000DAF81450022D40F2E2810322DAF8101039
:10368000304611F0F2F808B9C5F103000028C0F285
:103690007181DAF828302546544A09932AAB0893F9
:1036A00028930423CDE9293200238DF8AC30BB46A2
:1036B000DDF820A00D95D4E90405042D00F21C814D
:1036C000002D40F04C81E468002CF4D1BB450D9DE9
:1036D00000F08A81DBF81440032C40F2A68104221A
:1036E000DBF81010089811F0C0F808B9C4F1040014
:1036F0000028C0F2798104233D49DBF828400DF110
:10370000C00BCDE92F310023CDF8B8B08DF8C4300F
:10371000BA460D94D5E90404042C00F2DE80002C96
:1037200040F01B81ED68002DF4D1BA450D9C00F0EE
:103730001881DAF81450032D40F27C810422DAF863
:103740001010584611F091F808B9C5F1040000288E
:10375000C0F20781DAF828304FF40071099A049317
:1037600002920B9B0A9A009301920C9B214A2248D9
:10377000039410F0DFFF2E98584503D030990131A3
:103780000EF0DEFD2898089B984203D02A9901315B
:103790000EF0D6FD2298B04203D0249901310EF0EC
:1037A000CFFD1C98079B984203D01E9901310EF063
:1037B000C7FD1698484503D0189901310EF0C0FD99
:1037C0001098404503D0129901310EF0B9FD0A4816
:1037D000FCF7E6FD12E000BF18760108F40D0024A6
:1037E0002476010830760108347601086261632B83
:1037F0006261632D48760108F409002401469B4864
:1038000035B0BDE8F04F08F05FBA994B1F1DB946BF
:1038100010AB2EAA494696482E930DF160090792E7
:10382000FFF740FD836A079A0C93924BCDF85890AE
:1038300093E8030008231793002389E803008DF819
:1038400068308B4B9D68002D00F00E812C4696E66B
:103850000822494611F009F808B9A6F10800002825
:10386000FFF696AEAA46AD68002D7FF489AE92E6CB
:103870000822414610F0F9FF08B9A6F10800002817
:10388000FFF654AEA146A468002C7FF447AE50E684
:103890003246DEE73246ECE72EAA16AB51467448B4
:1038A0002E930892FFF7FEFC836A089A0B93724BE3
:1038B0001B68ADF878301B0C8DF87A301EAB07937F
:1038C0001C9303231D9300238DF87B30684B9C6869
:1038D000002C00F0C780254684E60422594610F0EB
:1038E000C4FF00B9201F0028FFF61CAFAA46AD6830
:1038F000002D7FF40FAF18E70422514610F0B5FFFA
:1039000000B9281F0028FFF6DEAEA346A468002CED
:103910007FF4D1AEDAE60322314610F0A6FF00B9FB
:10392000E01E0028FFF69DAEAA46AD68002D7FF48C
:1039300090AE99E60322314610F097FF00B9E81ED9
:103940000028FFF65AAEA246A468002C7FF44DAEC4
:1039500056E62246E0E72A46EDE72246BEE72A463B
:10396000CBE72EAA51460F9241480FAAFFF79AFCC7
:103970008246EFE62EAA22AB51463D482E930D9289
:10398000FFF790FC836A3D4C09932AAB0D9A08938C
:1039900028930423CDE9293400238DF8AC30344B2F
:1039A0009C68002C5CD0254681E62EAA1CAB5146B3
:1039B0002F4824AE2E930892FFF774FC836A089A6E
:1039C0000A932F4B22961B68ADF890301B0C8DF894
:1039D00092300323239300238DF89330244B9D686A
:1039E000002D3BD02C4632E62EAA28AB5946204863
:1039F0000DF1C00B2E930D92FFF754FC1C4B846A03
:103A00009D6804231F480D9ACDF8B8B0CDE92F303A
:103A100000238DF8C430002D7FF47AAEBA46A1E7BA
:103A2000002C3FF402AE2246F4E5002C3FF463AED6
:103A3000224655E6002D3FF48DAE2A467FE6002D46
:103A40003FF427AE2A4619E6002D3FF4B8AD2A46CA
:103A5000AAE5002C3FF481AD224673E5BA468AE719
:103A6000BB46C2E7BA46A1E7BA4616E7F409002406
:103A7000F40D002424760108307601086261632B7E
:103A8000347601086261632D2DE9F04F9C4DB3B08F
:103A90000FCD26AC2EAFA2460FC495E8030084E8F4
:103AA00003005AF8045B2C97002D00F0C3832846CE
:103AB000FCF776FC0F280446209000F204830128CE
:103AC00040F0FC822B788DF8B8303A4600232D94D4
:103AD00013558C4B9C68DDE92C65002C00F0368377
:103AE00003F10408A946C34665694A46A94528BFAB
:103AF0002A4622B13146206910F0B7FE08B9A5EB7D
:103B00000900002806DBA368002B00F06582A346AD
:103B10001C46E9E7E368002BFAD15C467A4B4D4638
:103B20009C4200F05E82D4F814902A464D4528BF8E
:103B30004A4622B12169304610F097FE08B9A5EB3C
:103B400009000028C0F24D820023BE42A36200F0AB
:103B500056822E99304601310EF0F2FB2CAB5345C4
:103B60009FD100246948CDE9174402F053FC8246F6
:103B7000664802F051FC824500F045830F940A9498
:103B800008940990CDE91244CDE91044CDE90D44E3
:103B9000CDE90B44DAF804502C97002D00F0078390
:103BA0002846FCF7FDFB0F280446269000F26982A8
:103BB000012840F0C8822B788DF8B8303B464FF092
:103BC00000022D941A55DDF8B4B0BBF1000F00F0DF
:103BD00070824C4B2C9E9C68B4B3C146D4E904055A
:103BE000AB450DD3D5B9A5EB0B000028D4E90232C3
:103BF00010DBB3B1A1461C46D4E90405AB45F1D2B4
:103C00005A46314610F031FE0028ECD00028D4E9A5
:103C10000232EEDA22B113461C46EDE72A46F0E7FF
:103C20004C46444510D0D4E90415AB4500F26282FD
:103C30005A46304610F019FE08B9ABEB05000028D3
:103C400002DBA26A0132A262089BBBF1080FDAF81C
:103C500018402344089300F05282BBF1040F40F057
:103C60008F823378622B00F07582BE4204D03046DA
:103C70002E9901310EF064FB0AF13C0A099B534571
:103C800088D1234B1CAA93E8030008231A921B93A4
:103C90000023C2E900018DF878301A4B9D68002D91
:103CA0003AD02C46C246D4E90406082E00F2D98147
:103CB000002E40F01782E468002CF4D1C2452CD0CD
:103CC000DAF81440072C40F284820822DAF8101047
:103CD0001CA810F0CAFD08B9C4F1080000281CDBBC
:103CE000DAF828302C460B4A159322AB099320931F
:103CF0000423CDE9213200238DF88C3026E000BF6B
:103D0000E07201080C0E0024100E00244C0E00245A
:103D1000247601086261632DC2461AAB51462CAA73
:103D2000A6482C93FFF7BEFA836AA549159322ABE8
:103D3000099320930423CDE9213100238DF88C30A1
:103D40009E4B9D68002D00F0FC802C46C246A1468B
:103D5000099ED5E90404042C00F26581002C40F092
:103D6000C581ED68002DF4D1C2454C4600F0EA80D3
:103D7000DAF81450032D40F222820422DAF81010EF
:103D8000099810F072FD08B9C5F104000028C0F2CE
:103D9000D980DAF8283025460DF1A00A1493894B12
:103DA000CDF898A01B68ADF8A0301B0C8DF8A230A0
:103DB0000323279300238DF8A330C346D4E90406D8
:103DC000032E00F22181002E40F08E81E468002C49
:103DD000F4D1C34500F0D580DBF81440022C40F24A
:103DE000E9810322DBF81010504610F03EFD08B9BF
:103DF000C4F103000028C0F2C480734BDBF82890A4
:103E00001B682C97ADF8B8301B0C8DF8BA30032323
:103E10002D9300238DF8BB304646D5E90404032CCE
:103E200000F21081002C40F06381ED68002DF4D188
:103E300046450DD07469022C40F2C68103223169D7
:103E4000384610F012FD08B9C4F10300002807DA63
:103E50002CAB314619AA59481993FFF723FA0646A5
:103E6000B36A4FF40071149A06930D9B0492029367
:103E7000159B0E9A01930C9B03920093534A0B9B44
:103E80005348CDF8149010F055FC2C98B84203D04C
:103E90002E9901310EF054FA2698504503D02899F6
:103EA00001310EF04DFA2098099B984203D02299D7
:103EB00001310EF045FA1A981CAB984203D01C99B8
:103EC00001310EF03DFA4248FCF76AFA01464048DB
:103ED00007F0FAFE322008F0F5FB18AB139C119D99
:103EE000DDF83C90DDF84880109F0A9E424603931F
:103EF00017AB39463046019402934B46009502F0C9
:103F0000E5F818990794179C089B324ACDF8188059
:103F100005950497CDF80C9000942D48CDE9011635
:103F20004FF4007110F006FC2948FCF739FA0146FD
:103F3000274807F0C9FE322008F0C4FB33B0BDE8C3
:103F4000F08FC24620AB51462CAA1C482C93FFF799
:103F5000A9F9836A0DF1A00A14931A4BCDF898A021
:103F60001B68ADF8A0301B0C8DF8A23003232793FB
:103F700000238DF8A330114B9C680CB125461CE73B
:103F8000C34626AB59462CAA0C482C93FFF78AF956
:103F90000A4BD0F828909D680B4B2C971B68ADF806
:103FA000B8301B0C8DF8BA3003232D9300238DF805
:103FB000BB30002D7FF430AF464649E70C0E00249D
:103FC0006261632D3076010834760108CC760108F1
:103FD000F40B002468770108984B4D469C427FF40F
:103FE000A2AD2CAB214620AA95482093FFF75AF9A1
:103FF0002C9E04460023BE42A3627FF4AAAD2CABE4
:1040000053457FF44EADACE50322514610F02DFC34
:1040100000B9F01E0028FFF6D9AEA346A468002C14
:104020007FF4CCAED5E60422314610F01EFC00B978
:10403000201F0028FFF695AEAA46AD68002D7FF43C
:1040400088AE91E60322394610F00FFC00B9E01E5D
:104050000028FFF6EAAE2E46AD68002D7FF4DDAEF7
:10406000E6E608221CA910F000FC08B9A6F1080039
:104070000028FFF620AEA246A468002C7FF413AE01
:104080001CE6002226A92CA80EF048FB269B2C90AB
:104090002E932246294610F018FD269C2C9B4FF0AB
:1040A00000022D941A55DDF8B4B0BBF1000F7FF477
:1040B00090AD2C98B8427FF4DBADDDE500283FF4ED
:1040C00004AD384607E0002220A92CA80EF026FBFC
:1040D000209B2C902E932246294610F0F6FC209C23
:1040E0002C9AF3E43246BDE732468EE722469BE740
:1040F0002246A8E7002D3FF4A0AD2A4699E55A468E
:104100005049304610F0B1FB58B15A464E4930463E
:1041100010F0ABFB00287FF4A8AD0F9B23440F9356
:10412000A3E50A9BDAF8380023440A9338B14749DB
:10413000FCF7D6F818B90C9B01330C9395E50B9B53
:1041400001330B9391E590B33846A2E7DFF8EC809A
:10415000444646E77378721C612B3FD07278731C1B
:10416000612A7FF482AD13F8012F632A7FF47DADBD
:104170005B782D2B7FF479AD119B2344119374E56B
:10418000BBF1030F7FF471AD3378432B7FF46DAD3A
:104190007278462A47D07278462A7FF466ADB378A3
:1041A0002D2B7FF462AD139B234413935DE53B46B7
:1041B000002404E5002C3FF420AE224612E6002D38
:1041C0003FF4E7AD2A46D9E5002C3FF449AE22463C
:1041D00035E6002C3FF484AD224677E512F8013F26
:1041E000632BBBD153782B2BB8D1109BDAF8380056
:1041F0002344109398B11549FCF772F878B90E9BD7
:1042000001330E9331E5CDE91244CDE910440F940A
:104210000A940894CDE90D44CDE90B4431E50D9B9A
:1042200001330D9321E5B3782B2BB4D1129B23449A
:1042300012931AE506480EF046FA00BF100E00244D
:104240000C0E00241876010824760108C4760108B3
:10425000D07301082DE9F041044682B016461D4690
:1042600061B10120231D324629460EF0E7F863694B
:1042700028460133636102B0BDE8F081031D9A4214
:1042800012D05769D5F81480B845424628BF3A463F
:1042900032B131692869019310F0E7FA019B08B93E
:1042A000A8EB0700C00FDEE70120DCE72DE9F04FA7
:1042B00004462DED048BADF2DC4D6368069000687A
:1042C0001B1A182B07D90A23002224490EF0B2FB2F
:1042D00001304BD02068036836AE80694FF400711E
:1042E0001F4A0DF5367B0090304610F023FAB8AB2C
:1042F000304630ADCBF800300593FCF751F80F286D
:104300000446286000F29981012840F091813378B9
:104310008BF80830059A00234FF40071CBF8044065
:1043200010481355104ADBF8003010F003FA0D481E
:10433000FCF736F801460B4807F0C6FCDBF8000036
:10434000059B984204D0DBF8081001310DF0F8FF0E
:104350000DF2DC4DBDEC048BBDE8F08F0C7801084C
:1043600018780108F407002450740108069C0A23F9
:104370000022BB49206818300EF05CFB0130A9D147
:10438000069C0A220021236818680FF0B9FA2368F6
:104390000A2200210C9098690FF0B2FA20AB014676
:1043A0000A901E930023AF481F938DF8803000239E
:1043B000119302F039F80346816807901833099386
:1043C000002901F05C800DF5367B5846FCF78AFC2D
:1043D00003230022A44958460EF013FBB8AB0E90FD
:1043E000DBF800000593984204D0DBF80810013197
:1043F0000DF0A6FF9D4C0025099BA0681293FCF7C9
:1044000021FD221D2C20A560E260226165610DF076
:10441000A8FF974B00F11002DDED0A7A04461B88D5
:10442000F8EEE77A9149038300F11803857603617A
:104430000223C0ED0A7A436114A8FDF777FEDDE997
:104440001412002A00F01E8123468848FFF702FF5D
:10445000069B8849D3E90032D21AD310302A01FBD7
:1044600003F341F23E830222DFED838A9FED839ABC
:10447000089200220F92089A01329A4281F020811C
:10448000079B9E68059BCBF80030002E00F07186DC
:10449000304630ACFBF784FF0F280546206000F261
:1044A000B381012840F02E833378059A8BF80830C9
:1044B0000023CBF8045058465355089B03EB4307A1
:1044C000069B19684FEAC70801EBC701FDF704FA1C
:1044D000059B0546DBF80000984204D0DBF8081085
:1044E00001310DF02DFF002D00F0A081AC682046B9
:1044F000FBF756FF234600901F9A00211EA80EF0DE
:10450000FDF9079BD3F80890059BCBF80030B9F173
:10451000000F0ED0484630ACFBF742FF0F2806468E
:10452000206000F25F81012800F05681002840F0F1
:10453000FB82059B00260022CBF8046050495846B8
:104540009A5508230EF05DFA002840F01781002DDF
:1045500000F014812B7BDBF80000462B059B00F05C
:10456000F182984204D0DBF8081001310DF0E8FE2A
:10457000069B08F118021B68984403EB0209079B8D
:104580009E68059BCBF8003076B1304630ACFBF727
:1045900007FF0F280746206000F2D581012800F0B0
:1045A000CD81002840F06B85059800270023CBF8CB
:1045B00004704A464146C3550C9B0A9801935B46DA
:1045C0000095FDF7E1F9DBF80000059B8DED110A80
:1045D000984204D0DBF8081001310DF0B1FE02233F
:1045E0000B930998DDE91E7632463946FCF75AFEF0
:1045F000079B03F11C05854200F0C4801C6A002C57
:1046000000F01781A946D4F814803246464528BFE9
:10461000424622B13946206910F027F908B9A8EBC3
:104620000600002833DBA368ABB3A1461C46EAE7CB
:1046300000283FF46FAE059809E00022294658464D
:104640000EF06CF82B68CBF80000CBF8083022464F
:10465000314610F03AFA2C68DBF800205BE600BF28
:104660000C7801084C0E00245C780108240E00240C
:104670006C740108ABAAAAAA20BCBE4C00000000C2
:104680000875010820462C210DF05AFEE0E6E3688B
:10469000002BCBD14C46A54200F0CC80D4F814803E
:1046A0003246464528BF424622B13846216910F0BD
:1046B000DCF808B9A6EB08000028C0F2BB80D4EDF6
:1046C0000A7A9DED118AF4EE487AF1EE10FA31D0B3
:1046D000DDF87C80B8F1090F00F0F683B8F10A0F1D
:1046E00000F04586B8F10C0F40F0DC8442469F494B
:1046F0001E9810F0BAF80E9B184301F013809C49E5
:104700001EA8FDF7F1FA002840F0DC8499491EA8A4
:10471000FDF7EAFA002840F0D5841EA90998FEF7B3
:10472000E7F880ED008A11AA1EA99348FEF718FA4F
:1047300001230F9308990B9B069A1944D2E9002391
:1047400008919B1A8D4ADB1002FB03F39942FFF498
:1047500092AE0F9B002B01F0C481894B1B781BB9D3
:104760000C990A98FCF7D8FD1E9820AB98423FF4AC
:10477000EFAD209901310DF0E3FDE9E5DBF8000034
:10478000059BEEE60A2E00F06383072E40F0FE80C4
:1047900032467C49384610F068F8002800F07683ED
:1047A000079B1C6A002C00F05686A946D4F814809A
:1047B0003246464528BF424622B13946206910F0AC
:1047C00054F808B9A8EB0600002879DBA368002B91
:1047D0007AD0A1461C46E9E799F800308BF80830FA
:1047E000059BA8E60022214658460DF097FF236856
:1047F000CBF80000CBF808303246494610F065F996
:104800002668DBF8003096E60022214658460DF077
:1048100085FF2368CBF80000CBF808302A463146E4
:1048200010F053F92568DBF8002041E60720564CCC
:1048300060E62C462C20A1460DF093FD1F9E00F152
:10484000180704460F2E00F11008DDF878A0CBF809
:104850000060076100F2D983012E00F09E8336BB11
:1048600038460021666143464A46815516A8099993
:1048700084ED0A9AFDF7DCFEDDE91686002E00F0D5
:104880004681A81BB0FA80F04009B8F1000F18BFAC
:1048900040F00100002800F09C8632462B4621465D
:1048A0000DF0CCFD079AD36A0133D36207E738468F
:1048B0003246514610F009F9DBF800602069D0E774
:1048C000E368002B86D14C46A54200F0C585D4F89C
:1048D00014803246464528BF424622B121693846F7
:1048E0000FF0C3FF08B9A6EB08000028C0F2B4859A
:1048F0000C2E00F09686204B9C68002C00F06B87F5
:1049000003F10408D4E90405B5422A4628BF32461B
:104910001AB139460FF0A9FF00B9A81B0028D4E945
:10492000023205DB002B00F09983A0461C46E9E724
:10493000002A00F0928313461C46E3E7337805987B
:104940008BF8083032E60022214658460DF0E6FE8C
:104950002368CBF80000CBF808303A46314610F017
:10496000B4F82768DBF8000020E600BF7079010882
:104970009C790108AC790108240E0024ABAAAAAAEC
:104980004C290024947401081C750108092E00F0BC
:1049900029840E2E41F08D813246644938460FF04D
:1049A00064FF00287FF4FCAE2AAC614B4FF0000995
:1049B000059F26460FCB84E80F0056F8044BCBF832
:1049C0000070002C01F08E812046FBF7E9FC0F28D7
:1049D0008046309000F2BB82012800F06882A8BBBC
:1049E0003B46CBF8048003F808900998DBE900A265
:1049F0005146FCF757FCBA45804605D0DBF8081055
:104A0000504601310DF09CFC454500F064842EAB0E
:104A10009E42D2D1079B1C6ADDE91E78002C00F073
:104A20002585A94666694246B04528BF324622B16F
:104A3000394620690FF019FF08B9A6EB08000028D5
:104A40000EDBA36883B1A1461C46EBE7384642461D
:104A5000214610F03AF8DDF8C080DBF80030C0E7FE
:104A6000E368002BF0D14C46A54200F00085656953
:104A70004246A84528BF2A4622B1384621690FF090
:104A8000F4FE08B9A8EB05000028C0F2F084119CE0
:104A90001EA90998FDF72CFF2449046012A8FDF710
:104AA0000DFD244912A8FDF709FD234912A8FDF7C1
:104AB00005FD224912A8FDF701FD214B9C68DDE9A7
:104AC0001E67002C00F0878603F104083A46D4E9FB
:104AD0000405AF4228BF2A461AB131460FF0C5FE81
:104AE00000B9E81B0028D4E9023205DB002B00F0F6
:104AF0003A82A0461C46E9E7002A00F033821346BA
:104B00001C46E3E7002800F03483059886E6206918
:104B1000874203D0A16901310DF012FC20462C21FF
:104B200044460DF00DFCCAE5059865E6807901085C
:104B3000F8720108907901089C790108AC790108A4
:104B4000240E0024984204D0DBF8081001310DF047
:104B5000F7FB069BB749D3E900239B1A02EB080039
:104B6000DB1001FB03F3089903319942C0F0D480B4
:104B7000079B9B68002B00F094810C9908F11806A4
:104B80000DF1D80830AC03910A9940460291915931
:104B900001914FF4007152F837200092A64A0FF0AD
:104BA000C9FD059B4046CBF80030FBF7F9FB0F2809
:104BB0008146206000F20C81012800F0EB80002883
:104BC00040F08584059A00234FF40071CBF80490DF
:104BD0009A4802F809309A4ADBF800300FF0AAFD33
:104BE0009648FBF7DDFB0146944807F06DF8DBF8CB
:104BF0000000059B984204D0DBF8081001310DF04D
:104C00009FFB069B0DF190081B6803EB060A0D93B2
:104C1000079B9E6826AB0B93C8F8003076B13046F0
:104C2000FBF7BEFB0F288146CBF8000000F2BC80EA
:104C3000012800F0B480002840F097830B9B4FF0D0
:104C400000090026C8F8049051462AA803F8096014
:104C5000FCF7F4FC2B9B43B11623324679492AA872
:104C60000DF0E8FE013000F0DA810C9B32AE764A9E
:104C70004FF40071029358460A9B01930D9B53F821
:104C800037300093D8F800300FF054FD58462660B6
:104C9000FBF786FB0F280546139000F20C810128D4
:104CA00000F0018180BB324600234FF40071656043
:104CB00062485355624A23680FF03CFD5F48FBF79A
:104CC0006FFB01465D4806F0FFFF2068B04203D04D
:104CD000A16801310DF034FBB0EE688A2A982CAB44
:104CE000984203D02C9901310DF02AFBD8F800002E
:104CF0000B9B8DED118A98423FF471ACD8F80810E7
:104D000001310DF01DFB6AE430462A4659460FF08A
:104D1000DCFE139D2268C7E7002724A908F13006AE
:104D2000ADF89070ADF8A870FCF79EFD069B0028CA
:104D300000F0858618682AA93044FCF795FD002804
:104D400000F07C86BDF89030BDF8A82001330699AC
:104D50009BB20D689A4240F0738630AC08F118009F
:104D6000ABF80070284421462780FCF77DFD002821
:104D700041D008F1480059462844FCF775FD002849
:104D800039D02288BBF8003043EA02431193042350
:104D90000B9326E498F800308BF8083012E733784C
:104DA00088F808300B9B4CE70022594640460DF02E
:104DB000B5FCDBF80020C8F80000C8F808204A4617
:104DC00031460FF082FEDBF80090D8F8003038E76B
:104DD0000022214658460DF0A1FC2368CBF80000C4
:104DE000CBF808304A4641460FF06FFED4F80090E9
:104DF000DBF80020E7E6079B9B68002B00F042836E
:104E00000C9A4FF4007136A802920A9A0192069AFF
:104E1000126852F8082000920C4A0FF08BFC36A959
:104E20005846FBF75FFF5846FCF7F2FB58460DF07B
:104E300096FC99E4ABAAAAAA8C780108F40700248E
:104E400050740108F07401082475010830790108D4
:104E500032468C4938460FF008FD40B132468A4947
:104E600038460FF002FD00283FF49EAD98E411AAE9
:104E700084490998FDF72EFA0E9B002B00F07D81E6
:104E800011AA80498148FDF725FA51E411AA099831
:104E90007F49FDF7A5F911AA7D497C48FDF7A0F9E6
:104EA00046E47C4B69E69BF800302372FBE62378EE
:104EB0008BF8083094E5002213A920460DF02EFC53
:104EC000139B2060A36020E71E9C42467249204647
:104ED0000FF0CBFC002864D0424620466F490FF00B
:104EE000C4FC00287FF40BAC1EA90998FDF700FD57
:104EF000674980ED008A12A8FDF7E0FA664912A81A
:104F0000FDF7DCFA5F4912A8FDF7D8FA5F4B9C6801
:104F1000DDE91E67002C00F05E8403F104083A46C8
:104F2000D4E90405AF4228BF2A461AB131460FF032
:104F30009CFC00B9E81B0028D4E9023203DB93B1E2
:104F4000A0461C46EBE76AB113461C46E7E7002281
:104F500030A958460DF0E2FB309BCBF80000CBF8AF
:104F6000083074E544464E4B9C420ED03A46D4E994
:104F70000415AF4228BF2A461AB130460FF075FC1F
:104F800000B9781B0028BFF6D3AB214611AB1EAA8F
:104F90003E48FDF761FDFFF7CBBB9AF80030037682
:104FA0005EE4099C1EA92046FDF7A2FCD0ED007A24
:104FB000BCEEC87A9DF82800FCEEE77A8DED0D7AFC
:104FC000CDED0F7A9DF834209DF83C1004F006FCDE
:104FD0001EA92046FDF78CFC2D4980ED008A12A801
:104FE000FDF76CFA12A82749FDF768FA12A82B49B9
:104FF000FDF764FA11AA28492448FDF7E5F9FDF701
:1050000077FFFEF773FAFFF793BB0022594640463D
:105010000DF084FBDBF800202061A26148E410223F
:1050200013A92A9813960EF06BFC139A03462A983C
:10503000904200F029821278002A40F02582B3F5D0
:10504000803F80F015851BB2D5ED047A08EE103A4A
:10505000B8EEC88A28EE278A41E64446104B9C42A7
:1050600093D0D4E90415B5422A4628BF324622B16E
:1050700038460FF0FAFB002884D1701B82E70598B0
:105080006BE400BF8874010890790108240E0024A5
:1050900094740108C0760108707401087C740108DA
:1050A000280E0024B8F1070F00F0C983B8F10E0FE5
:1050B0007FF425AB4246B7491E980FF0D6FB002877
:1050C0007FF41DAB24AFB44B30AC32AEB9460FCB3E
:1050D00087E80F0059F8047B2660002F00F0028655
:1050E0003846FBF75DF90F288046CBF8000000F248
:1050F0008582012800F07F8290BB33464FF000028A
:10510000C4F80480099803F80820D4E900A25146A5
:10511000FCF7C8F8B245804604D0A168504601317A
:105120000DF00EF9454500F0BE8328AB9945D1D16D
:105130001EA90998FDF7DCFB964980ED008A12A8AC
:10514000FDF7BCF9954912A8FDF7B8F9944912A8E2
:10515000FDF7B4F9934912A8FDF7B0F9FFF7E3BAE8
:105160003046424639460FF0B0FCDBF80080236839
:10517000C4E7059A0025FFF79BB98B4B0C24059ECD
:1051800093E80700CBF8006086E8070022460E99F6
:10519000CBF80440099C8BF8141031462046FCF7EC
:1051A00081F885423FF46CAE90ED0A8A5846DDEDF9
:1051B000117A7E4938EE278AFBF794FD594620463E
:1051C000FDF7E0FA80ED008ADBF80000B04204D081
:1051D000DBF8081001310DF0B3F8744912A8FDF79F
:1051E0006DF94DE63246724938460FF03EFB002815
:1051F0007FF4D6AA11AA6E4909986E4EFDF7E4F81D
:1052000011AA6B496C48FDF7DFF8DFF8B4A104F090
:105210007DFAB36807469DF82850CAF80000002BB5
:1052200000F0D48306F1040844461A7CAA42D3E96C
:1052300002014ED31C460346002BF6D1444500F034
:10524000C583227CAA4200F2948104F118099DEDE5
:10525000118AD4F81C80FCEEC87ACDED0D7A9DF849
:105260003460B8F1000F02D100F01DBC904698F8F0
:105270001010D8E902328E4236BF1A4600230123AD
:10528000002AF3D1002B40F0C3818E4214D9C145CE
:1052900040F01084012520200DF063F801460674CB
:1052A0004B464761284600254246C1E906550DF0A8
:1052B000C5F8A36A0133A362BDEEC88A18EE103A9E
:1052C0000B2B7FF435AAFDF713FEFEF70FF9FFF75E
:1052D0002FBA0B46B0E72C200DF043F8804620464D
:1052E00008F1180A08F11003C8F810A00D93FBF795
:1052F00057F80F280346CBF8000000F2218301285D
:1053000000F01A8338BB50460021C8F814300D9ABB
:10531000C154002309991CA8C8F82830FCF706FFDF
:10532000DDE91C34002C00F0BC81281BB0FA80F0B1
:105330004009002B18BF40F00100002800F019843C
:1053400022462B4641460DF079F8079AD36A01337D
:10535000D362FFF75CBB50461A4621460FF0B5FBFF
:10536000DBF80030D8F81000CEE70B9827E51E9C3C
:105370004246124E204631460FF077FA074608B3F0
:105380004246204605490FF070FA00283FF49AAED5
:10539000FFF7B5B980790108F87201089079010822
:1053A0009C790108AC790108707901087C740108C6
:1053B0007074010860290024240E002488740108F8
:1053C0005C290024059B96E80700CBF800309C463A
:1053D00003C31A80079A8BF812702F46146ACBF811
:1053E0000480002C75D0A9466646D4E904050A2D30
:1053F00023D875BBE468002CF7D1B9454D4668D079
:105400007C69092C40F24A824246396905980FF0BE
:105410002CFA08B9C4F10A0000285ADB87ED0A8A81
:105420000E9B002B00F0DA8112A8B349FDF746F875
:10543000B24912A8FDF742F822E50A2231460FF0E0
:1054400014FA08B9A5F10A000028D3DB2746A4689E
:10545000D1E72A46F2E72C46214611AB1EAA09984D
:10546000FDF7FAFADDE91E76FFF742BA2C4621462F
:1054700011AB1EAA0998FDF7EFFAFFF708BBA04988
:10548000FEF7A1BF9E4BBBE40C9B4FF400719D4AFD
:105490005846029332AE0A9B01930D9B53F8373066
:1054A0000093D8F800300FF045F959462046FBF735
:1054B00019FC2046FCF7ACF82068B04203D0A16884
:1054C00001310CF03DFF9FED908A2A9807E4059882
:1054D00088E42C200CF045FFDBF80060059A00F111
:1054E0001808044600F110039642C0F8108000F03E
:1054F00006831146DBF804903A460661CBF80010AB
:10550000DBF80810C0F8149081610021CBF804107A
:105510008BF808100021816218A80999FDF788F816
:10552000DDE918A7002F00F06C82E81BB0FA80F0CC
:105530004009BAF1000F18BF40F00100002800F048
:1055400056833A462B462146A2460CF077FF079A2F
:10555000D36A0133D362DBF80000059B8AED0A8A27
:1055600098423FF45DAFDBF8081001310CF0E8FE23
:1055700056E72C200D930CF0F4FE0D9B00F118095A
:10558000057403760746C3618362C0E90899237CEA
:105590009D4280F0E381F368A3420DD020460D9335
:1055A0000CF04AFF017C02460D9BA94280F0C982A3
:1055B000C368002B00F06783224601203C46534B12
:1055C00021460CF03BFF736901337361DAF8007018
:1055D0003DE6D4F8148077694246B84528BF3A467C
:1055E00022B1316920690FF040F908B9A8EB070032
:1055F000C00FFFF752B93B7823727EE5002259466F
:1056000020460DF08BF8DBF800302060A360A8E5A1
:10561000236A43453FF43BAE40460CF00DFF017C4E
:1056200033E632463A4938460FF01FF90E9B1843CD
:105630007FF461A937495846FBF754FB0998DBE929
:1056400000623146FBF72EFE059B04469E4205D0C4
:10565000DBF80810304601310CF072FEAC421CD071
:10566000DDED117A584694ED0A8A28342A4938EE3D
:10567000278AFBF737FB59460998FDF783F880ED39
:10568000008A58460DF06BF8224924482246FCF760
:1056900021FE214912A8FCF711FFDDE91E76FFF774
:1056A0002AB9D8F81000824504D0D8F81810013172
:1056B0000CF046FE40462C210CF042FEFFF7A7B945
:1056C0000A9B4FF40071164A36A80FF033F836A93A
:1056D0005846FBF707FB5846FBF79AFFDBF800003C
:1056E000059B98423FF440A8DBF8081001310CF00C
:1056F00027FEFFF739B800BF9474010870740108E1
:10570000C07601082475010820BCBE4C6429002421
:1057100070790108887401087C740108240E002443
:1057200060780108099C1EA92046FDF7E1F8BB49F5
:1057300080ED008A5846FBF7D5FA2046DBE9006287
:105740003146FBF7AFFD059B04469E4205D0DBF8D2
:105750000810304601310CF0F3FDAC4200F08681B8
:10576000D4ED0A7A5846AE49012438EE278AFBF771
:10577000B9FA59460998FDF705F880ED008A5846B0
:105780000CF0EDFFA74912A8FCF798FEA64912A855
:10579000FCF794FEA1495846FBF7A4FA0998DBE907
:1057A00000723946FBF77EFD059B06469F4205D0F9
:1057B000DBF80810384601310CF0C2FDB54205D0C7
:1057C00006F1280295499948FCF784FD002C3EF427
:1057D000AAAF9349BFE4964CFFF7D7BB954958460B
:1057E000FBF780FA0998DBE900623146FBF75AFDC6
:1057F000059B04469E4205D0DBF808103046013177
:105800000CF09EFDAC423FF40FAED4ED0A7A584640
:10581000834938EE278AFBF765FA59460998FCF761
:10582000B1FF80ED008A58460CF099FF12A87D491F
:10583000FCF744FE7C4912A8FCF740FECDE442464A
:1058400078491E980FF011F800287EF458AF75497A
:105850005846FBF747FA59460998FCF793FF059B12
:1058600080ED008ADBF80000984204D0DBF80810D5
:1058700001310CF065FD12A86849FCF71FFE12A863
:105880006749FCF71BFE12A86749FCF717FE11AA2F
:1058900064496648FCF7A4FCFEF74ABF002C3FF4BD
:1058A000BDADA046B0E52C200CF05BFD804638462F
:1058B00008F1180A08F11003C8F810A00D93FAF7C0
:1058C0006FFD0F280346CBF8000000F26C81012821
:1058D00000F0658130BB51460020C8F814300D9AA5
:1058E000C854002309991AA8C8F82830FCF71EFCF0
:1058F000DDE91A37002F00F0E580E81BB0FA80F0F0
:105900004009002B18BF40F00100002800F0A681DC
:105910003A462B4641460CF091FD079AD36A013373
:10592000D36202E450461A4639460FF0CEF8DBF84F
:105930000030D8F81010CFE7227888F81820E2E479
:1059400000220F9059460D980CF0E8FEDBF800207D
:105950000F9BC8F81000C8F81820FDE42CD9336953
:105960009C4200F02E8120460CF062FD037C024632
:10597000AB4240F25981E368002B00F022813C46A3
:1059800001201CE6D6F80880B8F1000F01D122E111
:10599000984698F81010D8E902238D4236BF134676
:1059A00000220122002BF3D1002A40F0168142464A
:1059B0008D421FD827464446002004F11809FBF702
:1059C000C9F938462C210CF0BBFCFFE52C200CF06B
:1059D000C8FC002300F1180904460376C361836202
:1059E00073690574C0E90899002BCBD03269137C28
:1059F000AB42C7D2DFF84080424540F0E68001204C
:105A0000DDE5B04504D0A169304601310CF098FCC9
:105A100020462C210CF094FC9DE500BF8874010801
:105A20007C7401089474010870740108240E002429
:105A3000280E00247079010864290024069B1D6843
:105A4000079B9B68002B00F0E2800C9A4FF40071DA
:105A500036A803920A9A0292AA59019255F8082090
:105A60000092A24A0EF066FEFFF7D9B9002489E63B
:105A70000C9B4FF400719E4A584602930A9B019377
:105A80000D9B53F837300093D8F800300EF052FEDB
:105A900059462046FBF726F92046FBF7B9FD20467C
:105AA0000CF05DFE0FE5236AC84699457FF4B4AD5E
:105AB000FFF7F0BB98F81050B54294BF00250125C0
:105AC000FFF7E9BBD8F81000824504D0D8F81810C9
:105AD00001310CF035FC40462C210CF031FCFFF775
