:020000040800F2
:10000000000008248DB9000875AD000881AD000816
:1000100085AD000889AD00088DAD00080000000026
:1000200000000000000000000000000091AD00088A
:1000300095AD00080000000099AD00089DAD0008D6
:10004000E1B90008E1B90008E1B90008E1B9000828
:10005000E1B90008E1B90008E1B90008E1B9000818
:10006000E1B90008E1B90008E1B90008A1AD000854
:10007000E1B90008E1B90008E1B90008E1B90008F8
:10008000E1B90008E1B90008E1B90008E1B90008E8
:10009000E1B90008E1B90008E1B90008E1B90008D8
:1000A000E1B90008E1B90008E1B90008E1B90008C8
:1000B000ADAD0008E1B90008E1B90008E1B90008F8
:1000C000E1B90008E1B90008E1B90008E1B90008A8
:1000D000E1B90008B9AD0008C5AD0008D1AD000810
:1000E000DDAD0008E1B9000800000000E1B900083A
:1000F000E1B90008E1B90008E1B90008E1B9000878
:10010000E1B90008E1B90008E1B90008E1B9000867
:10011000E5AD0008E1B90008E1B90008E1B900085F
:10012000E1B90008E1B90008E1B90008E1B9000847
:10013000E1B90008E1B90008E1B90008E1B9000837
:1001400000000000000000000000000000000000AF
:10015000E1B90008E1B90008E1B90008E1B9000817
:10016000E1B90008E1B90008E1B90008E1B9000807
:10017000E1B90008E1B90008E1B900080000000099
:10018000E1B90008E1B90008E1B90008E1B90008E7
:10019000E1B90008E1B90008E1B90008E1B90008D7
:1001A000E1B90008E1B90008E1B90008E1B90008C7
:1001B000E1B90008E1B90008E1B90008E1B90008B7
:1001C000E1B90008E1B90008E1B90008E1B90008A7
:1001D000E1B90008E1B90008E1B90008E1B9000897
:1001E000E1B90008E1B90008E1B90008E1B9000887
:1001F000E1B90008E1B90008E1B90008E1B9000877
:10020000E1B90008E1B90008E1B90008E1B9000866
:10021000E1B90008E1B90008E1B90008E1B9000856
:10022000E1B90008E1B90008E1B9000800000000E8
:10023000E1B90008E1B9000800000000E1B90008D8
:10024000E1B90008E1B90008E1B90008E1B9000826
:10025000E1B90008E1B90008E1B90008E1B9000816
:10026000E1B90008E1B90008E1B90008E1B9000806
:10027000E1B90008E1B90008E1B900080000000098
:10028000E1B90008E1B90008E1B900080000000088
:0802900000000000E1B90008C4
:1002A00010B5054C237833B9044B13B10448AFF3B0
:1002B00000800123237010BD6003002400000000B3
:1002C000C064010808B5034B1BB103490348AFF3F1
:1002D000008008BD0000000064030024C064010821
:1002E00010F8012B11F8013B012A28BF9A42F7D0E0
:1002F000D01A70470000000000000000000000005D
:1003000001F0FF01102A2BDB10F0070F08D010F8C6
:10031000013B013A8B422DD010F0070F42B3F6D1CA
:10032000F0B441EA012141EA014122F007047FF0E3
:1003300000070023F0E80256083C85EA010586EA3A
:10034000010685FA47F5A3FA87F586FA47F6A5FA76
:1003500087F68EB9EED1F0BC01F0FF0102F0070282
:1003600032B110F8013B013A83EA010313B1F8D12D
:100370000020704701387047002D06BF354603380E
:10038000073815F0010F07D1013015F4807F02BF47
:10039000013015F4C03F0130F0BC0138704700BF98
:1003A000034613F8012B002AFBD1181A01387047B5
:1003B00081F0004102E000BF83F0004330B54FEA16
:1003C00041044FEA430594EA050F08BF90EA020F83
:1003D0001FBF54EA000C55EA020C7FEA645C7FEA16
:1003E000655C00F0E2804FEA5454D4EB5555B8BF39
:1003F0006D420CDD2C4480EA020281EA030382EAAA
:10040000000083EA010180EA020281EA0303362D3B
:1004100088BF30BD11F0004F4FEA01314FF4801C0E
:100420004CEA113102D0404261EB410113F0004F20
:100430004FEA03334CEA133302D0524263EB4303D7
:1004400094EA050F00F0A780A4F10104D5F1200E75
:100450000DDB02FA0EFC22FA05F2801841F10001D0
:1004600003FA0EF2801843FA05F359410EE0A5F1A4
:1004700020050EF1200E012A03FA0EFC28BF4CF0D5
:10048000020C43FA05F3C01851EBE37101F000458B
:1004900007D54FF0000EDCF1000C7EEB00006EEB98
:1004A0000101B1F5801F1BD3B1F5001F0CD3490822
:1004B0005FEA30004FEA3C0C04F101044FEA445279
:1004C00012F5800F80F09A80BCF1004F08BF5FEA00
:1004D000500C50F1000041EB045141EA050130BDE0
:1004E0005FEA4C0C404141EB0101013C28BFB1F5F2
:1004F000801FE9D291F0000F04BF01460020B1FA3D
:1005000081F308BF2033A3F10B03B3F120020CDA0F
:100510000C3208DD02F1140CC2F10C0201FA0CF0ED
:1005200021FA02F10CE002F11402D8BFC2F1200C52
:1005300001FA02F120FA0CFCDCBF41EA0C01904008
:10054000E41AA2BF01EB0451294330BD6FEA040451
:100550001F3C1CDA0C340EDC04F11404C4F120023C
:1005600020FA04F001FA02F340EA030021FA04F34E
:1005700045EA030130BDC4F10C04C4F1200220FAA5
:1005800002F001FA04F340EA0300294630BD21FAE3
:1005900004F0294630BD94F0000F83F4801306BFA9
:1005A00081F480110134013D4EE77FEA645C18BF9D
:1005B0007FEA655C29D094EA050F08BF90EA020F34
:1005C00005D054EA000C04BF1946104630BD91EA2C
:1005D000030F1EBF0021002030BD5FEA545C05D12F
:1005E0004000494128BF41F0004130BD14F580046E
:1005F0003CBF01F5801130BD01F0004545F0FE41E2
:1006000041F470014FF0000030BD7FEA645C1ABF16
:10061000194610467FEA655C1CBF0B46024650EA4D
:10062000013406BF52EA033591EA030F41F4002179
:1006300030BD00BF90F0000F04BF0021704730B5FF
:100640004FF4806404F132044FF000054FF00001D4
:1006500050E700BF90F0000F04BF0021704730B595
:100660004FF4806404F1320410F0004548BF40426A
:100670004FF000013EE700BF42004FEAE2014FEABF
:1006800031014FEA02701FBF12F07F4393F07F4F9A
:1006900081F06051704732F07F4208BF704793F09D
:1006A0007F4F04BF41F40021704730B54FF46074B0
:1006B00001F0004521F000411CE700BF50EA0102B3
:1006C00008BF704730B54FF000050AE050EA01025C
:1006D00008BF704730B511F0004502D5404261EBCC
:1006E00041014FF4806404F132045FEA915C3FF40D
:1006F000D8AE4FF003025FEADC0C18BF03325FEAAA
:10070000DC0C18BF033202EBDC02C2F1200300FA5A
:1007100003FC20FA02F001FA03FE40EA0E0021FA7F
:1007200002F11444BDE600BF80F0004002E000BFCB
:1007300081F0004142001FBF5FEA410392EA030FCC
:100740007FEA226C7FEA236C6AD04FEA1262D2EB16
:100750001363C1BFD218414048404140B8BF5B421B
:10076000192B88BF704710F0004F40F4000020F0B4
:100770007F4018BF404211F0004F41F4000121F0CA
:100780007F4118BF494292EA030F3FD0A2F1010214
:1007900041FA03FC10EB0C00C3F1200301FA03F152
:1007A00000F0004302D5494260EB4000B0F5000F75
:1007B00013D3B0F1807F06D340084FEA310102F134
:1007C0000102FE2A51D2B1F1004F40EBC25008BFE6
:1007D00020F0010040EA03007047490040EB0000B0
:1007E000013A28BFB0F5000FEDD2B0FA80FCACF1B1
:1007F000080CB2EB0C0200FA0CF0AABF00EBC250DE
:1008000052421843BCBFD0401843704792F0000FCB
:1008100081F4000106BF80F400000132013BB5E71E
:100820004FEA41037FEA226C18BF7FEA236C21D094
:1008300092EA030F04D092F0000F08BF08467047F9
:1008400090EA010F1CBF0020704712F07F4F04D1C7
:10085000400028BF40F00040704712F100723CBFDA
:1008600000F50000704700F0004343F0FE4040F404
:10087000000070477FEA226216BF08467FEA2363C2
:100880000146420206BF5FEA412390EA010F40F4AD
:10089000800070474FF0000304E000BF10F00043F9
:1008A00048BF40425FEA000C08BF704743F09643E0
:1008B00001464FF000001CE050EA010208BF7047FB
:1008C0004FF000030AE000BF50EA010208BF704782
:1008D00011F0004302D5404261EB41015FEA010C97
:1008E00002BF84460146002043F0B64308BFA3F18F
:1008F0008053A3F50003BCFA8CF2083AA3EBC25371
:1009000010DB01FA02FC634400FA02FCC2F120028F
:10091000BCF1004F20FA02F243EB020008BF20F0C6
:100920000100704702F1200201FA02FCC2F120022C
:1009300050EA4C0021FA02F243EB020008BF20EA21
:10094000DC70704753B94AB9002908BF00281CBFA2
:100950004FF0FF314FF0FF3000F0C2B9ADF1080C9D
:100960006DE904CE00F040F8DDF804E0DDE9022393
:1009700004B0704708B502460B4643EC172BB5EEA2
:10098000C07BF1EE10FA03D4BDE8084000F00CB8CB
:10099000B1EE477B51EC170B00F006F8404261EBDB
:1009A000410108BD000000009FED0B6B41EC170BEF
:1009B0009FED0B5B27EE066BBCEEC66BB8EE464BAD
:1009C000A4EE457BFCEEC77B16EE101A17EE900ADC
:1009D000704700BFAFF30080000000000000F03D52
:1009E000000000000000F0412DE9F047089D8E4610
:1009F00004468846002B4AD18A42174662D9B2FA89
:100A000082F64EB1C6F1200301FA06F820FA03F38C
:100A1000B74043EA0808B4404FEA174E1FFA87FC74
:100A2000B8FBFEF1230C0EFB118843EA084301FBDF
:100A30000CF29A4209D9FB1801F1FF3080F0EA80EC
:100A40009A4240F2E78002393B449A1AA3B2B2FBC1
:100A5000FEF00EFB102243EA024300FB0CFC9C4517
:100A600009D9FB1800F1FF3280F0D6809C4540F296
:100A7000D3803B44023840EA0140A3EB0C03002141
:100A80001DB1F3400022C5E90032BDE8F0878B427A
:100A900005D90DB1C5E9000100210846F5E7B3FA13
:100AA00083F1002946D1734502D3824200F20581C9
:100AB000841A6EEB030201209046002DE5D0C5E9B3
:100AC0000048E2E7002A00F09080B2FA82F6002E99
:100AD00040F0A4808A1A030C4FEA174E80B2BCB2D1
:100AE0000121B2FBFEFC0EFB1C2243EA024304FB85
:100AF0000CF29A4207D9FB180CF1FF3802D29A4245
:100B000000F2E080C4469B1AB3FBFEF20EFB1233E8
:100B100040EA034302FB04F49C4207D9FB1802F1AC
:100B2000FF3002D29C4200F2CA8002461B1B42EAFE
:100B30000C40A5E7C1F120068B4022FA06F71F43BF
:100B40000EFA01F420FA06F32EFA06FE4FEA1749D0
:100B5000234300FA01F81FFA87FCBEFBF9F01C0CD6
:100B600009FB10EE44EA0E4400FB0CFEA64502FA17
:100B700001F209D93C1900F1FF3A80F09C80A645AA
:100B800040F2998002383C44A4EB0E041FFA83FE25
:100B9000B4FBF9F309FB13444EEA044403FB0CFCD9
:100BA000A44508D93C1903F1FF3E80F08280A4459A
:100BB0007FD9023B3C4443EA0040A4EB0C04A0FB79
:100BC00002EC64457346E14662D35FD05DB1B8EB99
:100BD000030264EB090404FA06F622FA01F31E4349
:100BE000CC40C5E9006400214FE7B1FBF2FC010CE9
:100BF00041EA0E4180B240EA01423B4638463C465B
:100C0000B846BE462026B1FBF7F1A2EB080241EA46
:100C10000C4166E7014618E710462CE7C6F12002B2
:100C20002EFA02F3B740B14020FA02F24FEA174E13
:100C30000A43B3FBFEF8BCB20EFB1833110C41EAB9
:100C4000034108FB04F9B04089454FEA104380B2E4
:100C50003ED9791808F1FF3C01D289451FD8A1EB94
:100C60000901B1FBFEF909FB04F80EFB191192B260
:100C700042EA0142424529D2BA1809F1FF31C4D2F1
:100C80004245C2D2A9F102013A44BEE7F0459DD2E5
:100C9000BEEB02036CEB070C0138E14696E7A7EBCD
:100CA00009094944A8F1020CB1FBFEF909FB04F85B
:100CB000DBE773467FE7504666E70846FDE63B44C0
:100CC000023A33E7ACF1020C3B441CE749469CE78F
:100CD000A1EB0901C446B1FBFEF909FB04F8C4E726
:100CE000704700BFF0B500F1080783B0076061B33B
:100CF000054608460E46FFF753FB0F2804460190B1
:100D00000ED8012806D133786C602B7200233B5536
:100D100003B0F0BD68B900236C603B5503B0F0BD73
:100D2000002201A9284610F043FE019B07462860D7
:100D3000AB6022463146384612F0F5F9019C2F6827
:100D400000236C603B5503B0F0BD014810F005FE78
:100D5000B8650108002873D02DE9F04F074683B02D
:100D6000D7F80C80B8F1000F60D0D8F80C90B9F12A
:100D7000000F52D0D9F80CA0BAF1000F44D0DAF825
:100D80000C40002C37D0D4F80CB0BBF1000F2BD0A6
:100D9000DBF80C60FEB1F568B5B1EB686BB1D868F3
:100DA0000193FFF7D7FF019B202118469B68019311
:100DB00010F010FC019B002BF1D12846AD682021DA
:100DC00010F008FC002DE8D13046B668202110F064
:100DD00001FC002EDFD1DBF808502021584610F02E
:100DE000F9FB0DB1AB46D3E72046A468202110F0F3
:100DF000F1FB002CC7D1DAF808402021504610F052
:100E0000E9FB0CB1A246BAE7D9F8084020214846D0
:100E100010F0E0FB0CB1A146ACE7D8F80840202167
:100E2000404610F0D7FB0CB1A0469EE73846BF689D
:100E3000202110F0CFFB002F92D103B0BDE8F08F3E
:100E4000704700BF2DE9F04F83B00190002800F0FB
:100E50000E81019BD3F80C80B8F1000F00F0EF80F9
:100E6000D8F80C90B9F1000F00F0CF80D9F80CA0A1
:100E7000BAF1000F00F0AF80DAF80C40002C00F05F
:100E80009080E568002D75D0EE68002E5BD0F76885
:100E9000002F3DD0FA6802B3D0680092FFF7D2FF6E
:100EA000009A106902F11801D2F808B088420DD0FA
:100EB0009169013110F08EFB009A2C21104610F040
:100EC00089FBBBF1000F08D05A46E5E72C211046FC
:100ED00010F080FBBBF1000FF6D1386907F1180262
:100EE000D7F808B090420CD0B969013110F072FB0C
:100EF0002C21384610F06EFBBBF1000F08D05F4686
:100F0000C8E72C21384610F065FBBBF1000FF6D185
:100F1000306906F11803D6F808B098420CD0B169D0
:100F2000013110F057FB2C21304610F053FBBBF180
:100F3000000F08D05E46AAE72C21304610F04AFB8D
:100F4000BBF1000FF6D1286905F11803AE6898428D
:100F50000AD0A969013110F03DFB2C21284610F080
:100F600039FB3EB135468FE72C21284610F032FB85
:100F7000002EF7D1206904F11803A56898420AD021
:100F8000A169013110F026FB2C21204610F022FB34
:100F90003DB12C4675E72C21204610F01BFB002D9F
:100FA000F7D1DAF810000AF11803DAF8084098428D
:100FB0000BD0DAF81810013110F00CFB2C21504640
:100FC00010F008FB3CB1A24656E72C21504610F029
:100FD00001FB002CF7D1D9F8100009F11803D9F85A
:100FE000084098420BD0D9F81810013110F0F2FAED
:100FF0002C21484610F0EEFA3CB1A14636E72C21F0
:10100000484610F0E7FA002CF7D1D8F8100008F1A4
:101010001803D8F8084098420BD0D8F818100131BE
:1010200010F0D8FA2C21404610F0D4FA3CB1A0467A
:1010300016E72C21404610F0CDFA002CF7D1019D87
:10104000286905F11803AC6898420AD0A9690131F2
:1010500010F0C0FA2C21284610F0BCFA3CB10194E3
:10106000F7E628462C2110F0B5FA002CF7D103B092
:10107000BDE8F08F2DE9F04F83B00190002800F01B
:101080000E81019BD3F80C80B8F1000F00F0EF80C7
:10109000D8F80C90B9F1000F00F0CF80D9F80CA06F
:1010A000BAF1000F00F0AF80DAF80C40002C00F02D
:1010B0009080E568002D75D0EE68002E5BD0F76853
:1010C000002F3DD0FA6802B3D0680092FFF7D2FF3C
:1010D000009A106902F11801D2F808B088420DD0C8
:1010E0009169013110F076FA009A2C21104610F027
:1010F00071FABBF1000F08D05A46E5E72C211046E3
:1011000010F068FABBF1000FF6D1386907F1180248
:10111000D7F808B090420CD0B969013110F05AFAF2
:101120002C21384610F056FABBF1000F08D05F466C
:10113000C8E72C21384610F04DFABBF1000FF6D16C
:10114000306906F11803D6F808B098420CD0B1699E
:10115000013110F03FFA2C21304610F03BFABBF180
:10116000000F08D05E46AAE72C21304610F032FA74
:10117000BBF1000FF6D1286905F11803AE6898425B
:101180000AD0A969013110F025FA2C21284610F067
:1011900021FA3EB135468FE72C21284610F01AFA85
:1011A000002EF7D1206904F11803A56898420AD0EF
:1011B000A169013110F00EFA2C21204610F00AFA34
:1011C0003DB12C4675E72C21204610F003FA002D86
:1011D000F7D1DAF810000AF11803DAF8084098425B
:1011E0000BD0DAF81810013110F0F4F92C21504628
:1011F00010F0F0F93CB1A24656E72C21504610F011
:10120000E9F9002CF7D1D9F8100009F11803D9F841
:10121000084098420BD0D9F81810013110F0DAF9D3
:101220002C21484610F0D6F93CB1A14636E72C21D6
:10123000484610F0CFF9002CF7D1D8F8100008F18B
:101240001803D8F8084098420BD0D8F8181001318C
:1012500010F0C0F92C21404610F0BCF93CB1A0467A
:1012600016E72C21404610F0B5F9002CF7D1019D6E
:10127000286905F11803AC6898420AD0A9690131C0
:1012800010F0A8F92C21284610F0A4F93CB10194E3
:10129000F7E628462C2110F09DF9002CF7D103B079
:1012A000BDE8F08F2DE9F8438468071D64B30E464E
:1012B0009146B84665694A463146A94528BF2A463F
:1012C0001AB1206911F011FE08B9A5EB0900002838
:1012D000D4E902321BDBA0461C46002CEAD147456C
:1012E00012D0D8F814404A46A14528BF22462AB158
:1012F0003046D8F8101011F0F8FD08B9A9EB040039
:1013000017EA200738BF47463846BDE8F883144639
:10131000002CCFD1E3E700BF2DE9F04FD1E900A3C6
:1013200083B081469E100AEB0304002E40F3D38065
:101330004FEA860B55460AEB860812E0687810F0F3
:101340002BFE002867D0A87810F026FE002868D071
:10135000E8782F1D10F020FE002864D0474566D0A5
:101360003D46287810F018FE0028E7D115E014F863
:10137000020C10F011FE00284FD014F8030C10F0EE
:101380000BFE00284BD014F8040C10F005FE0028CA
:101390004BD0013EA4F1040453D014F8010C10F01A
:1013A000FBFD0028E3D1AC4215D9641B09F108000C
:1013B00000220F2C0194C9E9000217DC012C1ED178
:1013C0002B78C9F8044089F80830002303554846B3
:1013D00003B0BDE8F08F002309F10802484689F800
:1013E0000830C9E9002303B0BDE8F08F01A94846E1
:1013F00010F0DEFA019BC9F80000C9F80830224657
:10140000294611F090FE019CD9F800000023C9F88C
:1014100004400355DBE70135BFE7013CC3E7023C6D
:10142000C1E70235B9E70335B7E7033CBBE7A4EBF7
:101430000803022B41D0032B13D0012B32D02546B9
:10144000ABE7A4EB0A03022B24D0032B1BD0012B08
:1014500005D114F8010C10F09FFD0028A3D05446CC
:10146000A1E71AF80B0010F097FD20B3787810F080
:1014700093FD00285ED0B87810F08EFD00284FD084
:101480002546002E89D114F8010C10F085FD0028A6
:1014900089D0013C14F8010C10F07EFD002882D0A8
:1014A000013CD6E71AF80B0010F076FD00280CBFBF
:1014B0004546254671E745466FE71AF80B0010F0E0
:1014C0006BFD0028F7D098F8010010F065FD0028AA
:1014D000B5D1053561E7022B06D0032B19D0012BBE
:1014E0000ED0254654465EE79AF8000010F054FDF1
:1014F000F0B19AF8010010F04FFDB0B12546C9E7F0
:101500009AF8000010F048FD00280CBF554625460B
:101510009FE79AF8000010F03FFD80B15746A5E71D
:10152000BD1C002E7FF439AFADE70AF10105B1E72C
:101530005546AFE77D1C002E7FF42FAFA3E755463D
:10154000A1E700BF2DE9F0432DED028BADF5137D32
:101550000D460646114606A81C46FFF7DDFE079B12
:101560003BB1162300225B4906A810F0ADFB013009
:1015700048D0296812AF9C9A0CAD23683846009178
:101580004FF40071CDE90162534A0EAE11F012FC26
:1015900038462E60FEF704FF0F280DF114090446AB
:1015A000C9F8000058D8012852D13B7832462B7236
:1015B00000234FF400716C6048481355484A2B686B
:1015C00011F0F8FB4548FEF7EBFE0146434809F0F1
:1015D000D3FC2868B04203D0A96801310FF0FAFFAC
:1015E0009FED408A069808AB984203D008990131D4
:1015F0000FF0F0FFB0EE480A0DF5137DBDEC028B45
:10160000BDE8F0831022002306980DEB020104933D
:1016100010F0B8FC049B069A9342AAD093F800807D
:10162000B8F1000FA5D1B0F5803F2BD2030424D42C
:1016300007462946204604F07DFC002834D007EEFA
:10164000907AB8EEE78AD0ED047A28EE278AC9E7C7
:1016500000283CD13246ABE700224946284610F02C
:10166000A7F9D9F800302860AB602246394611F05E
:101670005AFDD9F800402A689AE7C043C0F30E002B
:101680004742D6E7019612AF29680EAE9C980CAD82
:101690002368154A0290384600914FF4007111F00A
:1016A00089FB38462E6075E79C9A039712AF29682C
:1016B0000CAD2368384600914FF40071CDE901620A
:1016C0000EAE0A4A11F076FB38462E6062E73046CD
:1016D000CBE700BF5066010810660108FC07002434
:1016E000EC65010820BCBE4C68660108A4660108D0
:1016F000924B2DE9F04F93F800808DB0B8F1000FB8
:1017000002D00DB0BDE8F08F04460D4601468C486E
:1017100004F074FC4668002E00F0D580214688480D
:1017200004F06CFC0168002900F0D680DFF824B2D8
:101730002B46844A58460294CDE900614FF400716B
:1017400011F038FBB0F5007F80F086807E4F59465F
:101750007E4811F0E0FC0437BC68BC4200F0DB803E
:10176000DFF810A27A4EDFF8E4912BE094ED0A7ACC
:10177000524680213046B7EEC77A8DED007B11F0DE
:1017800019FB7F2868DC3046FEF70AFE0546B8F1F3
:10179000000F52D16F48FEF703FEAB1C0344FF2B32
:1017A0004BD86C4D2846FEF7FBFD3146284411F01E
:1017B000DDFB694B1B88038020460FF083FFB84296
:1017C00004460FD0D4E90432022ACFD11A78492A2C
:1017D000CCD15A78442AC9D120460FF073FFB842C1
:1017E0000446EFD15B487D25FEF7DAFD03465948F4
:1017F0005B4403F8015CFEF7D3FD584B411C1C8889
:101800002BF80040534809F0B7FBB8F1000F3FF444
:1018100078AF4E4E3046FEF7C3FD034630463344A4
:1018200003F8015CFEF7BCFD03463046591CF45238
:101830000DB0BDE8F04F09F09FBB4846FEF7B0FD84
:101840002B18B3F5007F07D202350544FF2D45D88C
:101850004FF001084D46A5E7172308AE002205A961
:1018600006A83F4D0027CDE9053610F0A1F8059BED
:101870000690044608930FCDE360AB882060A382F6
:101880002868AB79A26061602061A375354ADDE903
:1018900005310793CF544FF40071069B324811F085
:1018A00089FA3148FEF77CFD01462F4809F064FBB8
:1018B0000698B0423FF425AF089901310FF08AFE37
:1018C0000DB0BDE8F08F21461D4804F097FB01687C
:1018D000264E00297FF42AAF244927E7202308AEAB
:1018E000002205A906A8224C0027CDE9053610F0F4
:1018F0005FF8059B0690054608930FCC2860696049
:10190000AA60EB600FCCAA6128616961EB61154A9E
:10191000DDE90531BDE75846FEF742FD03467D226D
:1019200058465B4403F8012CFEF73AFD0B4A034688
:1019300058461288591C2BF8032079E7A424002468
:10194000540E0024F06601082C0E0024FC03002431
:101950007C030024FC05002468670108C8690108AD
:101960001C670108EC650108FC0700244C680108AD
:1019700044670108386701082DE9F04FD0E9007489
:101980000D469946E11B794B9346794AC91085B0BB
:1019900003FB01F1914200F0E580EB1BA74280467A
:1019A000009300F0B680B1EB410F4FEA410000F226
:1019B0008280002840F0CF80182682460190DBF814
:1019C0000030E91BD9F800200AEB010BA2EB030958
:1019D00000220BF10800B9F10F0FCDF80C904AF876
:1019E0000100CBF8042000F2A180B9F1010F00F052
:1019F0009980B9F1000F40F0A5800023BD42CBF8DB
:101A0000049000F809301CD00AF1080307F1080916
:101A10003E4643F8083CD6E90012494567D0B06815
:101A2000183609F11809B542186043E9021203F1AA
:101A30001803EED1A5F11806F61B26F0070630367E
:101A40005644A54228D006F1080305F10801A9462D
:101A5000A346D9F80020D9F804408A4243F8083C4C
:101A600033D043F8082C09F1180959F8102C183113
:101A7000CB4543E9014203F11803EAD15C463D4AF4
:101A8000631B183BDB0802FB03F323F060430133C5
:101A900003EB430306EBC3062FB1D8F80810384612
:101AA000C91B0FF097FD019BC8E900A6C8F80830D4
:101AB00005B0BDE8F08F304E30460FF09CFD831925
:101AC000824600F11806019379E709F118091846D2
:101AD000621C009111F027FB00990346D94501F1E2
:101AE000180140F8044C03F11803B2D1C6E70132E3
:101AF00049461846183611F016FB56F8142C0346C2
:101B0000AE4209F1180940F8042C03F1180380D102
:101B100090E70131CFD2914228BF114601EB41013C
:101B2000CE00C9E71B788BF8083066E703A9584652
:101B300000930FF03DFFEB1B039A4AF80300009B54
:101B4000CBF808204A46194611F0EDFADDF80C9062
:101B5000DBF8000051E7904228BF104600EB400040
:101B6000C600A9E705480FF0FBFE00BFABAAAAAA72
:101B700055555505ABAAAA0AF8FFFF7F6C67010807
:101B800000232DE9F04F0C6887B0064683600F46AE
:101B90001546C0E9003348682044A04200F0EC80BC
:101BA000194600F1FF3C631E13F8012FAA4208BF3B
:101BB00001319C45F8D10131724B994200F2DE802F
:101BC000002940F08D8089464FF000080394A0EB77
:101BD000040C039B4FEAAC020493002A62DD04EB81
:101BE00082020BE06378AB4274D0A378AB4273D02F
:101BF000E378AB4272D00434A24251D02378AB4296
:101C0000F0D14945039426D0DDF810B009F1080061
:101C1000C9F80480A4EB0B0AC9F80000BAF10F0F51
:101C2000CDF814A029D8BAF1010F22D19BF80030C9
:101C300089F80830C9F804A000F80A8073681833DE
:101C40007360D7E90003184484420ED00134D6E90A
:101C500001910394BBE703AB304604AAFFF78CFE67
:101C6000D7E9000318448442F0D1304607B0BDE8FC
:101C7000F08FBAF1000FDDD009E0002205A9484637
:101C80000FF096FE059BC9F80000C9F808305246CF
:101C9000594611F048FADDF814A0D9F80000C9E758
:101CA000A0EB040CBCF1020F0BD0BCF1030F04D06D
:101CB000BCF1010F09D00446A3E72378AB42A0D0C2
:101CC00001342378AB429CD001342378AB4218BF57
:101CD000044696E7013494E7023492E7033490E730
:101CE00001EB4101CC0020460FF085FC8146D6E98E
:101CF00000BAD34517D000F108030BF10801D8460C
:101D000043F8083CD8E9000288421ED008F11808C0
:101D1000183143E9020258F8102CC24503F11803A8
:101D200043F8182CECD1BBF1000F05D0B168584630
:101D3000A1EB0B010FF04EFC09EB0401D7E90040C9
:101D4000C6E900992044B1603EE70132184601918E
:101D500008F1180811F0E7F958F8142C0346019916
:101D6000C24540F8042C01F1180103F11803C7D152
:101D7000BBF1000FDAD1DFE71824B4E702480FF017
:101D8000EFFD00BF55555505886701082DE9F04F57
:101D90008C6883B08B4681460192002C4AD0D2E9F0
:101DA000008A6669554627694046B245394628BFCC
:101DB00035462A4615B111F098F808B9AAEB060085
:101DC00000281ADBE2680AB11446EAE7A3468DB19F
:101DD0002A464146384611F088F858B100284FF09D
:101DE00000034846B4BFC9E9003BC9E9004303B05A
:101DF000BDE8F08FA6EB0A00F0E7A268002AE3D165
:101E0000DBF80C30A3420ED02046A3460FF05EFC58
:101E1000019B0446D0E90476D3E9008AB2455546D1
:101E200028BF3546D3E700234846C9E9003403B04C
:101E3000BDE8F08F0C1DDBF80C30A342E4D1F2E7D3
:101E40002DE9F04F064685B02C200F4690460FF046
:101E5000D2FB00F11809044600F1100AC0F81090F6
:101E60003846FEF79DFA0F280546029035D801281E
:101E70001FD13B7849460DF1080B2376002365619D
:101E8000524658464B553146D8F80030A362FFF70A
:101E90007DFFDDE9023595B183B30120331D2A466C
:101EA00021460FF015FC73690133736105B0BDE87D
:101EB000F08F00283AD149460DF1080BDEE7206982
:101EC000814503D0A16901310FF084FB2C2120460C
:101ED00005B0BDE8F04F0FF07DBB0DF1080B0022FF
:101EE000504659460FF064FD029B2061A3612A46CB
:101EF000394611F018F9029D2169BFE7331D9D4253
:101F000012D0D4F814806F694246B84528BF3A46CB
:101F100032B129692069019310F0E7FF019B08B9EC
:101F2000A8EB0700C00FBAE70120B8E748460DF15B
:101F3000080BDCE72DE9F04F064685B02C200F4654
:101F400090460FF058FB00F11809044600F1100A02
:101F5000C0F810903846FEF723FA0F280546029085
:101F600035D801281FD13B7849460DF1080B23765F
:101F700000236561524658464B553146D8F800302B
:101F8000A362FFF703FFDDE9023595B183B30120BA
:101F9000331D2A4621460FF09BFB736901337361A1
:101FA00005B0BDE8F08F00283AD149460DF1080B85
:101FB000DEE72069814503D0A16901310FF00AFBFA
:101FC0002C21204605B0BDE8F04F0FF003BB0DF10A
:101FD000080B0022504659460FF0EAFC029B206194
:101FE000A3612A46394611F09EF8029D2169BFE798
:101FF000331D9D4212D0D4F814806F694246B84513
:1020000028BF3A4632B129692069019310F06DFF6B
:10201000019B08B9A8EB0700C00FBAE70120B8E799
:1020200048460DF1080BDCE72DE9F04F064685B078
:102030002C200F4690460FF0DEFA00F118090446F6
:1020400000F1100AC0F810903846FEF7A9F90F28E1
:102050000546029035D801281FD13B7849460DF13D
:10206000080B237600236561524658464B5531468E
:10207000D8F80030A362FFF789FEDDE9023595B19B
:1020800083B30120331D2A4621460FF021FB7369DB
:102090000133736105B0BDE8F08F00283AD149469D
:1020A0000DF1080BDEE72069814503D0A1690131FC
:1020B0000FF090FA2C21204605B0BDE8F04F0FF04C
:1020C00089BA0DF1080B0022504659460FF070FCFA
:1020D000029B2061A3612A46394611F024F8029D33
:1020E0002169BFE7331D9D4212D0D4F814806F6977
:1020F0004246B84528BF3A4632B129692069019362
:1021000010F0F3FE019B08B9A8EB0700C00FBAE777
:102110000120B8E748460DF1080BDCE72DE9F04354
:1021200089B0D0F8008004AF0297002900F0A380A6
:10213000064608460D46FEF733F90F28044601907F
:1021400058D8012852D12B783A468DF81030002308
:10215000039440461355DDE902422146FFF7A2F8F9
:10216000BC42804604D00499204601310FF032FA77
:1021700033680433984536D02C200FF03CFA00F138
:102180001807044600F1100907612846FEF708F910
:102190000F28064602904DD8012848D12B78237687
:1021A0003B4600216661374D4A46995502A8D8F84A
:1021B00028302946A362FFF7E9FDDDE9022646B390
:1021C0002B1DF01AB0FA80F04009002A18BF40F029
:1021D000010000283DD02C4B324621460FF078FA02
:1021E0006B6901336B6109B0BDE8F083002847D10A
:1021F0003A46ACE7002201A902A80FF0D9FB019BE7
:10220000029004932246294610F08DFFDDE9014239
:102210009DE72069874203D0A16901310FF0DAF907
:102220002C21204609B0BDE8F0430FF0D3B928BBFC
:102230003B46B6E7002202A948460FF0B9FB029BD5
:102240002061A3613246294610F06DFF029E23698A
:10225000A7E7D4F8148077694246B84528BF3A46C4
:102260002AB13169206910F040FE034608B9A8EB95
:102270000703D80FAFE705480FF06FFB3846E1E7DB
:102280003846BFE72C0E0024300E0024B865010844
:102290002DE9F84F1F460B1D0E4605469A424CD0BD
:1022A0001446D7E900A8D2E904B9C8451ED8B8F148
:1022B000000F7ED042465946504610F016FE08B92F
:1022C000A8EB0900002853DBC845424628BF4A4610
:1022D0008AB15846514610F008FE60B100280EDB66
:1022E0000023C5E900432846BDE8F88FB9F1000F87
:1022F0003BD04A46DFE7A9EB08000028F0DA336953
:10230000A3422CD020460FF0DDF98146D0E9041B12
:10231000C3455A4628BF42461AB1504610F0E5FD63
:1023200008B9A8EB0B00002851DB28463A46314695
:10233000FFF72CFD2846BDE8F88F4B69002BF4D041
:102340000C69D7E90018D4E90409C1454A4628BFF9
:1023500042465AB310F0C9FD40B30028E5DA002325
:102360002846C5E90034BDE8F88FB8F1000FC6DA99
:10237000F368A34215D020460FF0A8F98146D0E9B2
:10238000040BC3455A4628BF42461AB1514610F0C5
:10239000ACFD08B9ABEB08000028C6DAD9F80C3060
:1023A000D3B12846C5E90044BDE8F88FA9EB080081
:1023B000D3E7C9F10003002B9DDACB689A42F0D035
:1023C00020460FF083F98146D0F814B0E2E7E368C5
:1023D0002BB1C5E9009986E7C5E9003983E7C5E96E
:1023E000003480E72DE9F04F846885B081460F46C0
:1023F00000F1040AD1E9006B74B3D04665695A460E
:102400003146AB4528BF2A461AB1206910F06DFD50
:1024100008B9A5EB0B00002804DBA368A0462BB18C
:102420001C46EBE7E368002BFAD14446A24514D0E2
:1024300065695D452A4628BF5A4622B13046216962
:1024400010F053FD08B9ABEB0500002805DB04F1E3
:10245000280005B0BDE8F08F54462C200FF0CBF8D3
:102460003A4600F11808054652F8086B00F11003CF
:10247000C0F8108096423FD000210661D7F804B022
:10248000B8687960397200213A602246A86102A8D2
:10249000A9624946C5F814B0FFF7FAFEDDE9024724
:1024A000D7B1AAEB0700B0FA80F04009002C18BFA2
:1024B00040F0010000283CD053463A4629462C46BD
:1024C0000FF006F9D9F8143004F128000133C9F8E7
:1024D000143005B0BDE8F08FB04504D0A96930468E
:1024E00001310FF077F828462C210FF073F804F132
:1024F000280005B0BDE8F08FD7F804B0314640465B
:1025000001930BF1010210F00EFE002122463E6005
:10251000796002A839720021019BA9624946C5F879
:1025200014B0FFF7B5FEDDE90247002FDBD04646C9
:10253000B7E77C695A46A34528BF224622B13046F8
:10254000396910F0D2FC08B9ABEB0400C00FB3E757
:102550002DE9F04F846885B081460F4600F1040AEA
:10256000D1E9006B74B3D04665695A463146AB4534
:1025700028BF2A461AB1206910F0B7FC08B9A5EBAC
:102580000B00002804DBA368A0462BB11C46EBE738
:10259000E368002BFAD14446A24514D065695D4535
:1025A0002A4628BF5A4622B13046216910F09DFCC8
:1025B00008B9ABEB0500002805DB04F1280005B0E5
:1025C000BDE8F08F54462C20A0460FF014F800F11F
:1025D000180604460661D7E9003500F110070F2DF3
:1025E000029507D8012D51D11B780376B4460DF121
:1025F000080B12E00DF1080B0022384601935946F2
:102600000FF0D6F9029A019B2061A2612A46194671
:1026100010F089FD029DD4F810C0002165613B4691
:1026200042460CF8051000215846A1624946FFF7C2
:102630002FFEDDE90275C5B1AAEB0500B0FA80F006
:102640004009002F18BF40F0010028B353462A4626
:1026500021460FF03DF8D9F8143004F12800013379
:10266000C9F8143005B0BDE8F08F2069864203D068
:10267000A16901310EF0AEFF20463C462C210EF040
:10268000A9FF04F1280005B0BDE8F08F002DADD002
:1026900030460DF1080BB9E767696E693A46B742F3
:1026A00028BF324622B12969206910F01EFC00B90A
:1026B000B81BC00FCAE700BF2DE9F04F174685B021
:1026C00006462C20984689460EF095FF044600F1F8
:1026D000100AD7E9003500F118070F2D02950761A0
:1026E0003DD8012D26D11B78BC460DF1080B037691
:1026F0000021656153464A460CF805105846D8F843
:102700000010A1623146FFF7C3FDDDE90258B8F1C0
:10271000000F15D0002D36D00120331D4246214632
:102720000EF0D6FF2546736928460133736105B064
:10273000BDE8F08F002D3ED1BC460DF1080BD7E768
:102740002069874203D0A16901310EF043FF204682
:102750002C210EF03FFF284605B0BDE8F08F0DF1AB
:10276000080B00225046019359460FF021F9029AB6
:10277000019B2061A2612A46194610F0D4FC029DFB
:10278000D4F810C0B4E7331D984512D06769D8F863
:1027900014503A46AF4228BF2A463AB1D8F8101032
:1027A0002069019310F0A1FB019B00B9781BC00FB9
:1027B000B4E70120B2E738460DF1080BDBE700BFB4
:1027C0002DE9F04F8C6883B08B4681460192002C36
:1027D0004AD0D2E9008A6669554627694046B24523
:1027E000394628BF35462A4615B110F07EFB08B998
:1027F000AAEB060000281ADBE2680AB11446EAE7F1
:10280000A3468DB12A464146384610F06EFB58B1BA
:1028100000284FF000034846B4BFC9E9003BC9E9AE
:10282000004303B0BDE8F08FA6EB0A00F0E7A26812
:10283000002AE3D1DBF80C30A3420ED02046A34699
:102840000EF044FF019B0446D0E90476D3E9008AE8
:10285000B245554628BF3546D3E700234846C9E967
:10286000003403B0BDE8F08F0C1DDBF80C30A34240
:10287000E4D1F2E72DE9F84F1F460B1D0E46054641
:102880009A424CD01446D7E900A8D2E904B9C84509
:102890001ED8B8F1000F7ED042465946504610F07F
:1028A00024FB08B9A8EB0900002853DBC8454246C1
:1028B00028BF4A468AB15846514610F016FB60B10F
:1028C00000280EDB0023C5E900432846BDE8F88F49
:1028D000B9F1000F3BD04A46DFE7A9EB080000281A
:1028E000F0DA3369A3422CD020460EF0EBFE81468D
:1028F000D0E9041BC3455A4628BF42461AB1504688
:1029000010F0F3FA08B9A8EB0B00002851DB2846B9
:102910003A463146FFF754FF2846BDE8F88F4B6929
:10292000002BF4D00C69D7E90018D4E90409C1459B
:102930004A4628BF42465AB310F0D7FA40B300289F
:10294000E5DA00232846C5E90034BDE8F88FB8F180
:10295000000FC6DAF368A34215D020460EF0B6FE8B
:102960008146D0E9040BC3455A4628BF42461AB1F6
:10297000514610F0BAFA08B9ABEB08000028C6DAE5
:10298000D9F80C30D3B12846C5E90044BDE8F88F2A
:10299000A9EB0800D3E7C9F10003002B9DDACB684F
:1029A0009A42F0D020460EF091FE8146D0F814B045
:1029B000E2E7E3682BB1C5E9009986E7C5E900398C
:1029C00083E7C5E9003480E72DE9F04F154685B06F
:1029D00006462C200F460EF00EFE2A6800F118085D
:1029E000044600F11009C0F81080D2E900B50F2D9F
:1029F00002953AD8012D23D19BF80030C4460DF141
:102A0000080A0376002165613A464B460CF805102A
:102A10005046A1623146FFF72DFFDDE90257AFB105
:102A2000002D34D00120331D3A4621460EF050FED1
:102A30002546736928460133736105B0BDE8F08F00
:102A4000002D3CD1C4460DF1080ADBE72069804522
:102A500003D0A16901310EF0BDFD20462C210EF0FE
:102A6000B9FD284605B0BDE8F08F0DF1080A002237
:102A7000484651460EF09CFF029B2061A3612A4606
:102A8000594610F050FB029DD4F810C0BAE7331D30
:102A90009F4212D0D4F814807D694246A84528BFD1
:102AA0002A4632B139692069019310F01EFA019B60
:102AB00008B9A8EB0500C00FB6E70120B4E740460F
:102AC0000DF1080ADBE700BF2DE9F04F902091B02F
:102AD0000EF091FDAB4A0546AB4BAC4EAC4C05F14C
:102AE000080705F1200CA9462F60AB46C5F818C0B1
:102AF00003CA0822A860E9606A60EA6105F1380249
:102B000003CB2A6305F1500269623188A14B298702
:102B1000B178286285F83A100321186800232688C6
:102B20006963A478AA640422E96405F168012B743E
:102B300085F8283085F83B3085F8524005F190043F
:102B4000A86685F85330A046A5F85060C5E918126C
:102B500085F86C3085F884308F4BEA67186805F18A
:102B600080030097C5F88000AB678C4B9E68D9E95D
:102B7000005A002E00F01A811F1D74695246294622
:102B8000A24528BF22461AB1306910F0AEF908B943
:102B9000A4EB0A00002804DBB36837462BB11E46BD
:102BA000EBE7F368002BFAD13E467D4B9E4200F0E6
:102BB000FE8074695246A24528BF224622B12846AB
:102BC000316910F092F908B9AAEB04000028C0F2AC
:102BD000EE8009F118094FF0000AC145C6F828A097
:102BE000C3D170484446009F03F0FEF980466D480B
:102BF00003F0FCF95D46804500F0168106ABD8F87D
:102C0000045008F120080493CDE9000BCDE90274CB
:102C1000002D00F081802846FDF7C2FB0F280446F6
:102C20000A9000F2EA80012840F0F6802B788DF8B7
:102C3000183006AB059403F804A0584B049FD3F852
:102C40000890059EB9F1000F4ED04C4603F1040BDD
:102C50006569324639462069AE4228BF2A4612B11C
:102C600010F043F900B9A81B0028D4E9023203DBB5
:102C700033B1A3461C46EBE71346002AFAD15C4663
:102C8000474B9C4230D03246D4E90415AE4228BFAF
:102C90002A461AB1384610F028F900B9701B0028EE
:102CA00022DB414A0CAB07CA03C31A708DF839A066
:102CB000D8F80440C4B1C346D4E90405092D2ED880
:102CC000002D3AD1E468002CF6D1C3450CD0DBE9E5
:102CD0000414082C33D909220CA810F006F908B9FD
:102CE000C4F1090000282DDA06AB9F4204D00699F2
:102CF000384601310EF06EFC08F13C03009A08F1F1
:102D00001C08424500F08D80984606AB58F81C5CC4
:102D10000493002D7FF47FAF06AB00248AE70922DD
:102D20000CA910F0E2F808B9A5F109000028C9DBE8
:102D3000A346A468002CBFD1C7E72A46F0E7002CC1
:102D400040F08B80DBED0A7AFDEEE77A17EE903AE1
:102D50000B2BC9D1124DD9F8144032463946D9F857
:102D60001000A64228BF224612B110F0BEF800B9EA
:102D7000A01B0028D9E9023222DB2BB34D4699462D
:102D8000E9E700BF98670108A4670108B067010878
:102D9000B4670108B8670108C0670108FC0D00248A
:102DA000000E0024540E0024C8670108314E31463D
:102DB0000AAA3148CDF82890FFF706FE064608E734
:102DC0001346002ADBD1A9462A4B994547D0D9F8AA
:102DD00014403246A64228BF22462AB1D9F8101024
:102DE000384610F082F800B9301B002837DBD9F8DC
:102DF00028300133C9F8283076E704A800220AA950
:102E00000EF0D6FD0A9B049006932246294610F048
:102E10008AF90A9C049B0DE700283FF47DAF06A8C1
:102E2000F3E7DDE90157039C2E4657F8080C87426B
:102E30000ED0B1681836183701310EF0CBFBB44212
:102E4000F3D19021284611B0BDE8F04F0EF0C2BB7F
:102E500018361837B442E8D1F3E722463CE704AB12
:102E600049460AAA04480A93FFF7AEFD049F81462B
:102E7000BDE700BF000E0024FC0D00242DE9F04F3B
:102E8000154687B007462C200E460EF0B4FB2D6881
:102E900000F1180A0446A846C0F810A058F8083BEC
:102EA000434500F0C9800361AB6883616B6807F13B
:102EB000040BC5F8008063610023B3456B602B727F
:102EC0003546A36204F1100302937BD02269D4F843
:102ED0001490736900929945326901922CD8B9F126
:102EE000000F00F0B0804A460393DDE900010FF0C7
:102EF000FCFF039B08B9A9EB030000287FDB994581
:102F00004A4628BF1A46DAB10393DDE900100FF0F4
:102F1000ECFF039BA0B1002816DB2069824503D09B
:102F2000A16901310EF056FB20462C210EF052FB18
:102F3000284607B0BDE8F08F002B5DD01A46D3E7D6
:102F4000A3EB09000028E8DA3A690393B24200F0E3
:102F5000A98030460EF0B6FB4A468046039BD0E976
:102F60000415A94528BF2A46002A00F09E80009833
:102F700003930FF0BAFF039B08B9A9EB05000028E3
:102F8000C0F28580029A394604A8FFF719FCDDE9F2
:102F90000458B8F1000FC0D0281E18BF0120C34547
:102FA00008BF40F0010000285AD05B464246214647
:102FB00025460EF08DFB7B69284601337B6107B007
:102FC000BDE8F08F7B69002BDCD0D7F81080D4E906
:102FD0000439D8E9040600934E45324628BF4A46D4
:102FE000002A58D019460FF080FF08B9A6EB090057
:102FF0000028C7DA0025CCE7B9F1000FA4DAFB6896
:10300000B34216D030460EF061FB80464A46D0E906
:103010000405A94528BF2A461AB100990FF065FF9B
:1030200008B9A5EB09000028ACDAD8F80C00002894
:10303000B5D0B0460120B8E76A6841465046013233
:1030400010F071F832E75A42002ABFF679AFFB68F8
:10305000B342EED030460EF039FB80464569E0E7DA
:103060002369D4F814900093D8E9042301924B45C6
:103070001A4628BF4A4632B10293DDE900010FF03B
:1030800034FF029B08B9A9EB0300C00F8DE7F2687B
:10309000A2B145467DE7A6EB0906002EBFF672AF4A
:1030A00010467CE7B046002576E7A9EB0503002B28
:1030B000BFF668AFF3681BB1012070E7B046D6E7F2
:1030C000B046D1E72DE9F04FB94BB5B008220DF16C
:1030D000480893E80300002388E803008DF8503087
:1030E000B44B9D68CDE91082002D00F07A811F1D40
:1030F0002C46B946D4E90406082E00F2A581002E1C
:1031000040F0B481E468002CF4D1B94500F06C8142
:10311000D9F81440072C40F288820822D9F8101000
:1031200040460FF0E2FE08B9C4F108000028C0F2E2
:103130005B81D9F828302C460DF160090C939E4B29
:10314000CDF8589093E8030008231793002389E8EB
:1031500003008DF86830BA46D5E90406082E00F25F
:103160006381002E40F08081ED68002DF4D1BA45D6
:1031700000F07E81DAF81450072D40F251820822C7
:10318000DAF8101048460FF0B0FE08B9C5F1080093
:103190000028C0F26D81DAF8283025460B93874B62
:1031A0001B68ADF878301B0C8DF87A301EAB079396
:1031B0001C9303231D9300238DF87B30BA46AB4646
:1031C000079ED4E90405032D00F2A081002D40F0F4
:1031D000AE81E468002CF4D1BA455D4600F0D1819F
:1031E000DAF81440022C40F207820322DAF81010B9
:1031F00007980FF07AFE08B9C4F103000028C0F266
:10320000C081DAF8283024AE2C460A936C4B229603
:103210001B68ADF890301B0C8DF89230032323937C
:1032200000238DF89330BA46A346D5E90404032C55
:1032300000F25D81002C40F07881ED68002DF4D122
:10324000BA455C4600F08281DAF81450022D40F253
:10325000E2810322DAF8101030460FF046FE08B97A
:10326000C5F103000028C0F27181DAF82830254644
:10327000544A09932AAB089328930423CDE92932B1
:1032800000238DF8AC30BB46DDF820A00D95D4E9C5
:103290000405042D00F21C81002D40F04C81E468EF
:1032A000002CF4D1BB450D9D00F08A81DBF8144061
:1032B000032C40F2A6810422DBF8101008980FF0CE
:1032C00014FE08B9C4F104000028C0F27981042377
:1032D0003D49DBF828400DF1C00BCDE92F3100232B
:1032E000CDF8B8B08DF8C430BA460D94D5E90404D1
:1032F000042C00F2DE80002C40F01B81ED68002DD4
:10330000F4D1BA450D9C00F01881DAF81450032D61
:1033100040F27C810422DAF8101058460FF0E5FDE7
:1033200008B9C5F104000028C0F20781DAF8283096
:103330004FF40071099A049302920B9B0A9A00932E
:1033400001920C9B214A224803940FF033FD2E98E2
:10335000584503D0309901310EF03CF92898089B6C
:10336000984203D02A9901310EF034F92298B042E4
:1033700003D0249901310EF02DF91C98079B984237
:1033800003D01E9901310EF025F91698484503D057
:10339000189901310EF01EF91098404503D012998A
:1033A00001310EF017F90A48FCF7FAFF12E000BFEE
:1033B00098670108FC0D0024A4670108B0670108A4
:1033C000B46701086261632B6261632DD4670108F1
:1033D000FC09002401469B4835B0BDE8F04F07F0DA
:1033E000CBBD994B1F1DB94610AB2EAA4946964836
:1033F0002E930DF160090792FFF740FD836A079A4B
:103400000C93924BCDF8589093E803000823179340
:10341000002389E803008DF868308B4B9D68002DF0
:1034200000F00E812C4696E6082249460FF05DFD1D
:1034300008B9A6F108000028FFF696AEAA46AD68C6
:10344000002D7FF489AE92E6082241460FF04DFD33
:1034500008B9A6F108000028FFF654AEA146A468FA
:10346000002C7FF447AE50E63246DEE73246ECE70A
:103470002EAA16AB514674482E930892FFF7FEFC15
:10348000836A089A0B93724B1B68ADF878301B0C5B
:103490008DF87A301EAB07931C9303231D930023F2
:1034A0008DF87B30684B9C68002C00F0C780254667
:1034B00084E6042259460FF018FD00B9201F0028A9
:1034C000FFF61CAFAA46AD68002D7FF40FAF18E7DA
:1034D000042251460FF009FD00B9281F0028FFF60D
:1034E000DEAEA346A468002C7FF4D1AEDAE6032258
:1034F00031460FF0FAFC00B9E01E0028FFF69DAE41
:10350000AA46AD68002D7FF490AE99E603223146BD
:103510000FF0EBFC00B9E81E0028FFF65AAEA246F9
:10352000A468002C7FF44DAE56E62246E0E72A461A
:10353000EDE72246BEE72A46CBE72EAA51460F9278
:1035400041480FAAFFF79AFC8246EFE62EAA22AB6B
:1035500051463D482E930D92FFF790FC836A3D4CF7
:1035600009932AAB0D9A089328930423CDE92934B3
:1035700000238DF8AC30344B9C68002C5CD0254681
:1035800081E62EAA1CAB51462F4824AE2E930892FA
:10359000FFF774FC836A089A0A932F4B22961B68E4
:1035A000ADF890301B0C8DF8923003232393002349
:1035B0008DF89330244B9D68002D3BD02C4632E68D
:1035C0002EAA28AB594620480DF1C00B2E930D9220
:1035D000FFF754FC1C4B846A9D6804231F480D9A16
:1035E000CDF8B8B0CDE92F3000238DF8C430002DD0
:1035F0007FF47AAEBA46A1E7002C3FF402AE224631
:10360000F4E5002C3FF463AE224655E6002D3FF46E
:103610008DAE2A467FE6002D3FF427AE2A4619E6F6
:10362000002D3FF4B8AD2A46AAE5002C3FF481AD49
:10363000224673E5BA468AE7BB46C2E7BA46A1E727
:10364000BA4616E7FC090024FC0D0024A467010813
:10365000B06701086261632BB46701086261632D82
:103660002DE9F04F81464FF4D2702DED028BADF570
:103670002F7D04F071FA4FF4D37004F06DFAD9E99C
:1036800000031B1A182B08D90A23002236490EF012
:103690001BFB0130D9F8000042D003680DF1B80BD4
:1036A00080690DF1A0082AAD304A4FF400710090F6
:1036B00058460DF1880A0FF07DFB5846C8F80050B7
:1036C000FCF76EFE0F280446CAF8000037D8012820
:1036D00031D19BF8003088F808302A4600234FF497
:1036E0000071C8F8044022481355224AD8F8003027
:1036F0000FF060FB1E48FCF753FE01461C4807F024
:103700003BFCD8F80000A84204D0D8F808100131DA
:103710000DF060FF0DF52F7DBDEC028BBDE8F08F45
:103720000A230022104918300EF0CEFA013023D0BF
:10373000D9F80000B1E70028CFD028460AE00022DF
:10374000514640460EF034F9DAF80030C8F800006F
:10375000C8F80830224659460FF0E5FCDAF8004078
:10376000D8F80020BAE700BF506801085C6801087B
:10377000FC070024EC65010840F2A7100DF1880A4F
:1037800004F0EAF9D9F800300A220021186800256F
:103790000EF0F8FB03464FF4D4700DF1B80B0A930A
:1037A00004F0DAF9D9F8003000210A2298690EF005
:1037B000E9FB034640F2A9101C46099304F0CCF93A
:1037C00024AA00234FF4D570CAF80020CAF8045088
:1037D0008AF808500F9304F0BFF92146BA4802F066
:1037E0000DFC0446059040F2AB1004F0B5F92346F9
:1037F000A6681833089330AB0393CBF80030002E43
:1038000001F0D68230460DF1A008FCF7C9FD0F2863
:103810000446C8F8000000F26581012841F01F80CD
:1038200033788BF80830039B0022CBF80440A7497B
:1038300058461A5503230EF02EFA039B0B90DBF823
:103840000000984204D0DBF8081001310DF0C2FEF0
:103850009F4C40F2A510089B00250226109304F00F
:103860007BF9A068FDF706FC221D2C20A560656190
:10387000E26022610DF0BFFEDDED097A00F118076C
:10388000944B00F11002F8EEE77A85761B88044627
:103890000761C0ED0A7A0383466112A88C49FEF7DE
:1038A00075FADDE91205002D00F00A8400388A4A15
:1038B00018BF0120954208BF40F00100002801F028
:1038C000BE802A46844B21460DF002FF804A536990
:1038D000013353618149D9E900239B1ADA10302B57
:1038E00001FB02F240F2FC8102230DF1A008DFEDA2
:1038F0007C8A04930023CDF818900C93049B013329
:10390000934280F01A854FF4D77004F025F9049B98
:1039100003EB4304069B1E68059B06EBC4069F68E9
:103920002AABE400C8F8003077B13846FCF738FD20
:103930000F280546CBF8000000F2FC81012800F0BA
:10394000DB81002840F035832AAB00253146002674
:10395000C8F8045040465E5502F0ECFA03460028D1
:1039600000F0FC818768039BCBF80030002F01F04A
:10397000AC833846FCF714FD0F280546119000F281
:103980006482012800F05D82002840F0D484039A0C
:103990000023CBF804505355039ADBF80030DAF8D3
:1039A0000000934201F0948324ADA842DBE90112A8
:1039B00000F03C82CAE90031DAF80830CAF8082081
:1039C000002800F03782CBF80830CBF80000002345
:1039D000CBF804300370039BDBF80000984204D05E
:1039E000DBF8081001310DF0F5FDD8F800002AAB26
:1039F000984204D0D8F8081001310DF0EBFD40F2E8
:103A0000AF1004F0A9F8069B1E6804F118033444B3
:103A10001E44059B9F68039BCBF8003077B1384666
:103A2000FCF7BEFC0F280546C8F8000000F26E81C6
:103A3000012800F06681002840F0BD82039800252F
:103A40000023CBF804503246214643550A9B09987F
:103A500000935B46FDF776FDDBF80000039BB0EEBC
:103A6000408A8DED0F0A984204D0DBF8081001312E
:103A70000DF0B0FD4FF4D87004F06EF80898DAE954
:103A800000652A463146FDF70DFC059A02F11C033C
:103A90008342079300F0EE80146A002C00F07E81D0
:103AA000994667692A46BD4228BF3A4622B1314647
:103AB00020690FF01AFA00B9781B002826DBA368EA
:103AC00043B3A1461C46ECE7540E00249468010859
:103AD0002C0E002434670108300E0024ABAAAAAAD9
:103AE000000000002A46414658460DF061FFD8F814
:103AF0000030CBF80000CBF80830224631460FF0FA
:103B000012FBD8F80040DBF800308DE6E368002BAC
:103B1000D8D14C46079BA34200F0418167692A46F1
:103B2000BD4228BF3A4622B1304621690FF0DDF987
:103B300000B9E81B0028C0F23281D4ED0A7AB4EE55
:103B4000678AF1EE10FA00F0AF80DAF80450092D20
:103B500000F0BB820A2D00F0D8840C2D40F0AA861C
:103B60002A46C349DAF800000FF0BFF90B9B18434F
:103B700040F07284089C51462046FEF7E9FCBD499E
:103B800080ED008A5846FDF7ADF82046DBE900528B
:103B90002946FDF787FB039B04469D4205D0DBF8D1
:103BA0000810284601310DF015FD079B9C4201F0DD
:103BB0000B81D4ED0A7A5846AF4938EE278AFDF7D3
:103BC00091F859460898FEF70DFC039B80ED008A9A
:103BD000DBF80000984204D0DBF8081001310DF04A
:103BE000F9FC0124A54910A8FEF798FAA44910A8E9
:103BF000FEF794FA9F495846FDF774F80898DBE9F8
:103C000000623146FDF74EFB039B05469E4205D000
:103C1000DBF80810304601310DF0DCFC079BAB42AD
:103C200005D005F1280293499648FEF783F9002C48
:103C300041F01481934B9C68DAE90076002C00F087
:103C4000A78603F104093246D4E90405AE4228BF31
:103C50002A461AB139460FF048F900B9A81B0028C6
:103C6000D4E90232C0F26183002B00F04F87A146F5
:103C70001C46E8E70A2D00F0A081072D40F00881DE
:103C80002A467E4930460FF030F9002840F09C81EA
:103C90000FAA7A490898FEF7D3F80FAA774979480E
:103CA000FEF7CEF801230C93069B0499D3E900326A
:103CB0000231D21A744B0491D21003FB02F29142EA
:103CC000FFF41CAE0C9B5BB14FF4E67003F044FFB5
:103CD000DDE90901FDF70CFD40F2CD1003F03CFFDA
:103CE000DAF8000024AB98423FF414ADDAF808107B
:103CF00001310DF06FFC0DE53B7888F808302AABF8
:103D000024E63B7803988BF8083099E60022414678
:103D100058460DF04DFED8F80030CBF80000CBF837
:103D200008302A4639460FF0FEF9D8F80050DBF883
:103D3000000085E60022594640460DF039FEDBF8CA
:103D40000030C8F80000C8F808302A4639460FF09D
:103D5000EAF9DBF80050D8F80030F7E54B490722C4
:103D6000039E03C9CBF800603060ADF8C410090CA5
:103D7000DAF800008DF8C6108BF80F30CBF804206D
:103D800003990FF0D0F9DBF80420DAF800000023E3
:103D9000CAF804208354DBF8000018E61C462C20E7
:103DA000A1460DF028FCDAF8045000F1180604468C
:103DB0000F2D00F11007DAF80030CBF80050066143
:103DC00000F2A782012D00F0FF8135BB30460021B3
:103DD00065613B464A46415514A80899C4ED0A8AD4
:103DE000FEF756FADDE91475002D00F0D580079B2B
:103DF000581BB0FA80F04009002F18BF40F00100B6
:103E0000002800F032852A46079B21460DF060FC11
:103E1000059AD36A0133D3628FE630462A461946A3
:103E20000FF081F9DBF800502069D0E7CAE90031D2
:103E3000CAF80820039BCBF8003030AB1846039338
:103E4000C5E53B788BF80830A1E5324611A9584604
:103E50000DF0AEFD119BCBF80000CBF808302A46E0
:103E600039460FF060F9119DDBF8002090E500BFA6
:103E7000DC680108C4680108D0680108BC68010852
:103E8000C86701082C0E0024ABAAAAAA086601087C
:103E9000092D40F099802A46A54930460FF025F8B3
:103EA000002840F091800FAAA1490898FEF7BCF8BD
:103EB000A04D0FAA9E49A048FEF7B6F84FF4E17056
:103EC00003F04AFE04F0D0FD9C4BAE6807469DF817
:103ED00024901860002E00F0C385291D0C46337C09
:103EE0004B45D6E9020255D334460646002EF6D19C
:103EF0008C4200F0B585237C4B4500F25C8304F1D5
:103F000018030793FCEEC87AD4F81C90CDED0C7A18
:103F10009DF83050B9F1000F02D100F04DBF91462D
:103F200099F81010D9E902328D4236BF1A460023A3
:103F30000123002AF3D1002B40F0EF838D4215D9E5
:103F4000079B4B4540F02C87012620200DF053FBAA
:103F500005740146002547614A46079B3046C1E982
:103F600006550DF0B5FBA36A0133A362BDEEC88A06
:103F700018EE103A0B2B7FF495AE40F2C31003F00D
:103F8000EBFDFEF7A1FDFFF79DF84FF4E27003F0A3
:103F9000E3FD87E61646A9E72069864203D0A169BA
:103FA00001310DF017FB20462C213C460DF012FB91
:103FB000C3E52AA8C9E60398B3E62A466049304615
:103FC0000EF093FF002852D0059B1C6A002C00F0D5
:103FD000F381DDF81C9067692A46BD4228BF3A4646
:103FE00022B1314620690EF080FF00B9781B00280D
:103FF00004DBA36833B1A1461C46ECE7E368002B61
:10400000FAD14C46079BA34200F0D78167692A4644
:10401000BD4228BF3A4622B1216930460EF065FF05
:1040200000B9E81B0028C0F2C8810C2D00F08A837B
:10403000414B9C68002C00F0AB8403F10409D4E9E7
:104040000407AF423A4628BF2A461AB131460EF05D
:104050004CFF00B9781B0028D4E9023203DBB3B16E
:10406000A1461C46EBE78AB113461C46E7E70FAAB8
:1040700033490898FDF75EFF0B9B002B00F0A681EB
:104080000FAA2F492C48FDF755FF0BE64C462D4B48
:104090009C420ED0D4E90417AF423A4628BF2A46C4
:1040A0001AB130460EF021FF00B9E81B0028BFF618
:1040B000F9AD21460FAB52461F48FEF7FDFAF1E578
:1040C00020462C210DF086FA04E4DAF800602A4636
:1040D000174930460EF009FF002878D02A461A49C1
:1040E00030460EF002FF059B1C6A2346002840F074
:1040F000B581002C00F04B87079FD4F81490B9F1DC
:10410000000F23D04A4625693146092A284628BF90
:1041100009220EF0EAFE08B9A9F109000028A368F7
:1041200014DB002B00F04D8527461C46E5E700BF59
:10413000C8670108AC2400242C0E0024A824002405
:10414000C4680108300E0024D0680108E368002B21
:10415000EBD1079BBB4200F0B6877D69002D40F094
:104160006987B44910A887ED0A8AFDF7D7FFB249DD
:1041700010A8FDF7D3FFB14910A8FDF7CFFFB04B52
:104180009C68DAE90067002C00F0028403F104095E
:104190003A46D4E90405AF4228BF2A461AB131464F
:1041A0000EF0A3FE00B9E81B0028D4E9023205DBBB
:1041B000002B00F06B83A1461C46E9E7002A00F0C3
:1041C000648313461C46E3E71B780376FEE54FF451
:1041D000DB7003F0C1FC059B1C6A9DF82430DAE912
:1041E00000670C93002C00F01982DDF81C906569C3
:1041F0003A46AF4228BF2A4622B1314620690EF026
:1042000074FE00B9E81B002804DBA36833B1A146A3
:104210001C46ECE7E368002BFAD14C46079BA3420F
:1042200000F0FD8165693A46AF4228BF2A4622B1B7
:10423000304621690EF059FE00B9781B0028C0F203
:10424000EE81D4ED0A7A0C98FCEEE77ACDED0D7A8A
:10425000FCEEC87A9DF83410CDED0C7A9DF8302034
:1042600004F022FC40F2B71003F076FC059B1C6AB8
:10427000DAE90067002C00F01082DDF81C90656917
:104280003A46AF4228BF2A4622B1314620690EF095
:104290002CFE00B9E81B002804DBA36833B1A1465B
:1042A0001C46ECE7E368002BFAD14C46079BA3427F
:1042B00000F0F48165693A46AF4228BF2A4622B130
:1042C000304621690EF011FE00B9781B0028C0F2BB
:1042D000E58110A8574984ED0A8AFDF71FFF10A851
:1042E0005649FDF71BFF10A85649FDF717FF0FAA07
:1042F00051495348FDF798FE4FF4DC7003F02CFC55
:10430000FEF7E2FBFEF7DEFE40F2B91003F024FCFC
:10431000C8E40022594638460D930DF049FBDBF8FE
:1043200000200D9B2061A26178E5002A00F0ED835A
:1043300013461C4687E4039891E5039F202300223F
:104340004146C8F800305846CBF8007000260DF002
:104350002FFB3D4CD8F800300546CBF80000CBF8D9
:1043600008300FCC28606960AA60EB600FCC286130
:1043700069614FF40071AA61EB61D8F80030DBF895
:104380000020CBF804303148D654314ADBF80030F5
:104390000EF010FD2D48FCF703F801462B4806F0FF
:1043A000EBFDDBF80000B8423FF49AACDBF80810F4
:1043B00001310DF00FF993E4079C21460FAB5246F3
:1043C0000898FEF779F9DAE900652EE6214B0C240E
:1043D000039D93E80700CBF8005085E807002246CC
:1043E0000B99CBF80440089C8BF814102946204602
:1043F000FCF758FF079A90423FF442AED0ED0A7A9C
:104400005846104938EE278AFCF76CFC594620467E
:10441000FDF7E8FF80ED008ADBF80000A84204D039
:10442000DBF8081001310DF0D5F8064910A8FDF7AA
:1044300075FE25E6BC680108C8670108C468010864
:104440002C0E0024D068010898680108FC0700249D
:10445000EC650108DC680108059B1B6ADAF800605E
:104460001C46002B00F0FE83DDF81C9067692A468D
:10447000BD4228BF3A4622B1314620690EF035FDD3
:1044800000B9781B002804DBA36833B1A1461C46A1
:10449000ECE7E368002BFAD14C46079BA34200F0FF
:1044A000E28367692A46BD4228BF3A4622B12169A4
:1044B00030460EF01AFD00B9E81B0028C0F2D38385
:1044C0009A4B84ED0A8A9C68002C00F0618203F10B
:1044D0000409D4E90407AF423A4628BF2A461AB174
:1044E00031460EF002FD00B9781B0028D4E90232F3
:1044F00005DB002B3FF4CBADA1461C46E9E7002AC3
:104500003FF4C4AD13461C46E3E7894C2A46DAF86B
:10451000000021460EF0E9FC064600289CD1039FCE
:1045200094E807003B46CBF8007003C31A80059A55
:104530008BF81260146A079ECBF80450002C00F030
:104540003F81A946D4E904050A2D26D88DBBE4682D
:10455000002CF7D1079B4D46B34200F031817469BE
:10456000092C40F2CB832A46316903980EF0BDFC3A
:1045700008B9C4F10A000028C0F2228186ED0A8A37
:104580000B9B002B00F0888210A86A49FDF7C6FD3E
:10459000694910A8FDF7C2FD72E50A2239460EF0FE
:1045A000A4FC08B9A5F10A000028D0DB2646A468BF
:1045B000CEE72A46F2E72C2007910DF01CF806768C
:1045C000C6610746866200F1180680F810900799C8
:1045D000C0E90866237C994580F0DD81EB68A34241
:1045E00007930DD020460C910DF070F8037C024625
:1045F0000C994B4580F01284C368002B00F017859E
:10460000224601203C4607964C4B21460DF060F8AF
:104610006B6901336B614A4B1F6873E4079C2C2064
:10462000A1460CF0E8FFDAF8045000F11806044641
:104630000F2D00F11007DAF80030CBF800500661BA
:1046400000F26D83012D40F05E831B7803763046C7
:10465000002165613B464A464155002116A8A162EA
:104660000899FDF715FEDDE91675002D00F0838130
:10467000381E079B18BF0120AB4208BF40F0010065
:10468000002800F055842A46079B21460DF020F8AB
:10469000059AD36A0133D362D3E5079C2C20A14647
:1046A0000CF0A9FFDAF8045000F1180604460F2DAB
:1046B00000F11007DAF80030CBF80050066100F284
:1046C0003A83012D40F04A831B780376304600215F
:1046D00065613B464A464155002118A8A1620899E8
:1046E000FDF7D6FDDDE91875002D00F09B81079BD5
:1046F000581BB0FA80F04009002F18BF40F00100AD
:10470000002800F02584079B2A4621460CF0E0FF94
:10471000059AD36A0133D362DBE5236A99453FF4F6
:104720000FAC48460CF0D2FF017C07E42C0E0024AD
:10473000C4680108BC680108C8670108B0240024E7
:10474000A82400242A46B04930460EF0CEFB0B9B2D
:1047500018437FF46DACAD495846FCF7C3FA08988E
:10476000DBE900522946FCF79DFD039B04469D4270
:1047700005D0DBF80810284601310CF02BFF079B11
:10478000A3421AD0D4ED0A7A5846A149283438EE0B
:10479000278AFCF7A7FA59460898FDF723FE80ED13
:1047A000008A58460DF025F998499A482246FDF7A7
:1047B000C1FB974910A8FDF7B1FCDAE9006537E4C1
:1047C0002C200CF018FFDBF80050039A00F11807BA
:1047D000044600F110039542076100F087831146FB
:1047E000DBF8049032460561CBF80010DBF80810C6
:1047F000C0F8149081610021CBF804108BF80810E8
:10480000002181621AA80899FDF742FDDDE91A36F8
:10481000002E00F0A882079A901BB0FA80F04009A1
:10482000002B18BF40F00100002800F0CC83324676
:10483000079B21460CF04CFF05992346CA6A0132BA
:10484000CA62DBF8000083ED0A8A039B98423FF4BA
:1048500097AEDBF8081001310CF0BCFE90E60028A2
:1048600000F0A6820398FFF748B967696E693A4677
:10487000B74228BF324622B1296920690EF035FBC4
:1048800000B9B81BC00FFFF7BEBA4C46624B9C4242
:104890003FF40FAC3A46D4E90415AF4228BF2A468C
:1048A0002AB130460EF021FB00287FF4FFAB781BC5
:1048B000FFF7FCBB072D7FF4CFAD2A465749DAF846
:1048C00000000EF012FB00287FF4C6AD5349584695
:1048D000FCF708FA059B1C6ADBE90076002C00F067
:1048E0002981DDF81C9065693246AE4228BF2A4610
:1048F00022B1394620690EF0F8FA00B9A81B002849
:1049000004DBA36833B1A1461C46ECE7E368002B47
:10491000FAD14C46079BA34200F00D8165693246EF
:10492000AE4228BF2A4622B1216938460EF0DDFA90
:1049300000B9701B0028C0F2FE80039B84ED0A8A38
:104940009F4205D0DBF80810384601310CF042FEDA
:1049500010A82E49FDF7E2FB10A82D49FDF7DEFB5C
:1049600010A82F49FDF7DAFB0FAA2C492948FDF7BB
:1049700067FAFFF797B92069864203D0A169013130
:104980000CF028FE20462C213C460CF023FE58E477
:10499000214CFFF78EBB2BD92B690791A34200F066
:1049A000638220460CF08EFE037C024607994B453D
:1049B00040F2EF82E368002B00F056823C46012073
:1049C000079621E6AE680EB95AE21E46317CD6E95A
:1049D0000223894536BF134600220122002BF4D161
:1049E000002A40F04E82324689454FD82746344649
:1049F0000020FCF7AFF938462C210CF0EBFD04F158
:104A00001803079307E600BFDC680108C4680108C3
:104A1000D06801082C0E0024300E0024BC68010868
:104A2000C86701082069864203D0A16901310CF0F2
:104A3000D1FD20462C213C460CF0CCFD49E4D5F8B4
:104A40001480B8F1010F40F20382324638462969DA
:104A50000EF04BFA08B9C8F10200C00FFEF731BFE3
:104A60002C200CF0C8FD0023044680F8109003763B
:104A7000C361836200F118030793C0E908336B69CF
:104A8000002B9FD02A69137C4B459BD2BE498A429A
:104A900040F0EF810120B7E5BC495846FCF722F908
:104AA0000898DBE900522946FCF7FCFB039B04460F
:104AB0009D4205D0DBF80810284601310CF08AFD34
:104AC000079BA3423FF460ADD4ED0A7A5846B04943
:104AD00038EE278AFCF706F959460898FDF782FC5C
:104AE000039B80ED008ADBF80000984204D0DBF8DD
:104AF000081001310CF06EFD10A8A649FDF70EFB61
:104B0000A54910A8FDF70AFB8FE44C46A34B9C4235
:104B10003FF4CFAA3246D4E90415AE4228BF2A4654
:104B20002AB138460EF0E1F900287FF4BFAA701BC5
:104B3000FFF7BCBA079C2C200CF05DFDDBF8006091
:104B4000039B00F11809054600F110079E42C0F8CA
:104B5000109000F04782194622463B460661CBF88A
:104B60000010DBF808108161DBF8041041610C9142
:104B70000021CBF804108BF80810002181621EA8D8
:104B80000899FDF785FBDDE91E47002F00F03A810B
:104B9000079BD81BB0FA80F04009002C18BF40F0EA
:104BA0000100002800F07A82079B3A4629462C46ED
:104BB0000CF08EFD059AD36A0133D362DBF80070E6
:104BC000BBE6079BA3420ED029464D46092D2A4637
:104BD000304628BF09220EF088F908B9C5F109004E
:104BE000002880F221822C200CF005FDDAF8045018
:104BF00000F1180607460F2D00F11003DAF80090B7
:104C0000CBF80050066100F26581012D40F054811F
:104C100099F800200276304600217D6122464155F8
:104C200000211CA8B9620899FDF732FBDDE91C548C
:104C3000002C00F0D980079B181BB0FA80F04009C7
:104C4000002D18BF40F00100002800F01882079BDB
:104C5000224639460CF03CFD059AD36A0133D362F3
:104C6000FFF77FBA079C2C2027460CF0C4FCDAF82B
:104C7000045000F1180604460F2D00F11003DAF875
:104C80000090CBF80050066100F20A81012D00F07F
:104C9000038145BB3046002165613A4641550021FC
:104CA00020A8A1620899FDF7F3FADDE92075002D2F
:104CB00000F08D80079B581BB0FA80F04009002F50
:104CC00018BF40F00100002800F0CA81079B2A4667
:104CD00021460CF0FDFC059AD36A0133D362DAE970
:104CE0000065FFF7EDBB30462A4649460C930EF0AF
:104CF0001AFADBF8005020690C9BCCE7002C3FF43B
:104D00003DAC25462FE4002D3FF4A1AC30462A46A9
:104D100019460EF008FADBF80050206998E40022EA
:104D2000594638460D930CF043FEDBF800200D9BEE
:104D30002061A261EBE70022594638460C930CF043
:104D400037FEDBF800200C9B2061A2612A46194641
:104D50000EF0E9F9DBF800502069B8E4002D3FF4CB
:104D6000B5AC3046F2E7AF4206D0A16928460C93B5
:104D700001310CF02FFC0C9B20462C210C930CF0E5
:104D800029FC0C9B5DE500BFB0240024DC68010811
:104D9000D0680108BC680108C8670108300E00240B
:104DA00099F81060AE4294BF00260126FFF7CDB8F7
:104DB000039B0024FEF738BD079A236A91469A4266
:104DC0007FF4AFACFFF7C0B80024FEF70BBF20693B
:104DD000864203D0A16901310CF0FCFB20462C2156
:104DE0003C460CF0F7FB7AE73869864203D0B96994
:104DF00001310CF0EFFB38462C212F460CF0EAFB7A
:104E0000FFF7AFB9B14504D0A969304601310CF0C4
:104E1000E1FB28462C210CF0DDFBCFE6AC680CB999
:104E2000A6E01446207CD4E90232814536BF1A46FA
:104E300000230123002AF4D1002B40F09A8022465F
:104E400081457FF6D5AD07F118033C4607931EE672
:104E5000B8F1000F3EF435AD0122F7E5A54910A8E1
:104E6000FDF75CF9FEF7E6BE224607F118033C4663
:104E70000793107C484594BF00200120FFF7C4BB76
:104E80009D4EEB689E4200F0D88030460CF01EFC30
:104E90003246017C0646A7E599F800200276F9E63D
:104EA0000022184659460C930CF082FDDBF80020D6
:104EB0000C9B2061A26117E7002D3FF4ACAE304699
:104EC0002A4649460C930EF02EF9DBF8005038695B
:104ED0000C9BA1E60022184659460C930CF068FD85
:104EE000DBF800200C9B3861BA61E9E7DBF804903D
:104EF00011461546384609F101020C930EF013F9DC
:104F000000210C9B3246CBF804101AA88BF808102D
:104F10000021C4F81490A162CBF800500899FDF765
:104F2000B7F9DDE91A36002E3FF426AF3D4672E4AC
:104F300066696F693246BE4228BF3A4622B1296986
:104F400020690DF0D2FF00B9F01BC00FFFF79BBB2B
:104F500066696F693246BE4228BF3A4622B1296966
:104F600020690DF0C2FF00B9F01BC00FFFF7CBBBEB
:104F7000614C079BA34200F0A080204607910CF0F3
:104F8000A5FB03462246007C1C46079958E7079C70
:104F900029E6AA680AB954E00246137C4B45D2E9D7
:104FA000023092BF0023184601230028F4D1002BC1
:104FB00048D11346107C484541D21A4607F11803E0
:104FC0003C46079363E577694F453A4628BF4A4612
:104FD00022B1284631690DF088FF08B9A9EB070016
:104FE000C00F24E4DBF80420194648461E4601326F
:104FF0000EF099F8DBF804103B4622460C911EA8EF
:1050000069610021CBF80060CBF804108BF8081020
:105010000021A9620899FDF73BF9DDE91E47002F41
:105020003FF4F7AE4E46B3E52746FFF79AB83C4645
:1050300007962CE539693C46C8E5324626E5144614
:10504000D6E42D4AEB689A423FF4FDAE10460C912F
:1050500007920CF03BFB079A0C9913460246A9E70E
:1050600066696F693246BE4228BF3A4622B1296955
:1050700020690DF03AFF00B9F01BC00F26E67D69EC
:1050800066692A46B54228BF324622B1216938698D
:105090000DF02BFF00B9A81BC00FD8E57C690C9A56
:1050A000A24228BF224622B1304639690DF01DFFC9
:1050B00008B90C9B181BC00F76E507F118032246B0
:1050C0003C460793E3E41C468DE50C480CF045FC98
:1050D000DBF80420002A3EF45AAE012A7EF450AEDA
:1050E0009BF808300370DBF80420DAF80000FEF7C4
:1050F0004EBE00BFD0680108B0240024B865010886
:105100002DE9F04F0446ADF5117D4FF4C87002F063
:1051100023FD6168002940D0B54A23681278012A2E
:1051200043D01A787B2A40D0012905D0303A092A89
:1051300002D85A783A2A50D010AF0AAC0CAEAD4A19
:105140004FF4007138460DF035FE384626600DF1FB
:105150001C08FBF725F90F280546C8F800002BD8D6
:1051600001281ED13B782372324600234FF4007190
:105170006560A1485355A14A23680DF01BFE9E4867
:10518000FBF70EF901469C4805F0F6FE2068B04298
:1051900003D0A16801310CF01DFA0DF5117DBDE8B9
:1051A000F08F0028E0D030460FE018460DF5117D55
:1051B000BDE8F04F05F0E0BE0022414620460CF06D
:1051C000F7FBD8F800302060A3602A4639460DF07E
:1051D000AAFFD8F800502268C7E70DF11C08214645
:1051E0004046FCF7CDFC864AD8E9003AAAEB030614
:1051F0000293482E4FEAE60302FB03F301D9DA07D4
:105200004DD5226810AF0AAC0CAE4FF4007100927D
:1052100038467C4A0DF0CEFD38462660FBF7C0F8D4
:105220000F280546069000F28380012840F0EE80AA
:105230003B782372324600234FF4007165606E485C
:1052400053556E4A23680DF0B5FD6B48FBF7A8F87F
:105250000146694805F090FE2068B04203D0A1687D
:1052600001310CF0B7F9029B53450ED01D4603F1F6
:10527000080454F8080CA0426CD0A96818351834FA
:1052800001310CF0A7F9AA45F3D1029B002B84D081
:10529000D8F808101846C91A0CF09CF97DE74FF4AD
:1052A000CD7002F059FC584B9E4200F2C28030464D
:1052B00010AF0CF0A0F9831938601190BB60029B0D
:1052C0000390534500F0A78000F1180599460AACF9
:1052D000CDE904670EE0012E39D13B7805F8103C8A
:1052E00009F118094FF0000345F8146C1835CA4548
:1052F000835534D0A5F11000A5F11802AB4645F84E
:10530000180CD9E900760F2E2660E4D91046214604
:1053100000220CF04DFB226845F8180C45F8102CC3
:10532000324639460DF0FFFE266855F8180CD7E7CF
:10533000002206A920460CF03BFB069B2060A360E0
:105340002A4639460DF0EFFE069D226873E7002ECF
:10535000C6D0E5E718351834AA458AD195E7DDE9C6
:1053600004673846C7F804B0FEF77AF9039B9B45FB
:105370000ED01D4603F1080454F8080CA04231D0A9
:10538000A9681835183401310CF024F9AB45F3D174
:10539000314603980CF01EF940F29B1002F0DCFB42
:1053A000029D05F1080454F8080C844215D0A96840
:1053B0001835183401310CF00DF9AA45F3D1029BD0
:1053C000002B3FF4EAAED8F808101846C91A0DF5BC
:1053D000117DBDE8F04F0CF0FDB818351834AA4522
:1053E000E1D1ECE718351834AB45C5D1D0E700BFA3
:1053F000440E0024EC680108FC070024EC65010859
:10540000ABAAAAAA04690108F8FFFF7F00283FF4AD
:1054100011AF304694E7044678603846FEF720F92D
:10542000204631460CF0D6F840F29B1002F094FB77
:10543000C5E70CF08FFA00BF2DE9F04F9C4DB3B0DB
:105440000FCD26AC2EAFA2460FC495E8030084E82A
:1054500003005AF8045B2C97002D00F0C183284606
:10546000FAF79EFF0F280446209000F202830128DD
:1054700040F0FA822B788DF8B8303A4600232D940C
:1054800013558C4B9C68DDE92C65002C00F03483AF
:1054900003F10408A946C34665694A46A94528BFE1
:1054A0002A4622B1314620690DF01FFD08B9A5EB4F
:1054B0000900002806DBA368002B00F06382A346E6
:1054C0001C46E9E7E368002BFAD15C467A4B4D466F
:1054D0009C4200F05C82D4F814902A464D4528BFC7
:1054E0004A4622B1216930460DF0FFFC08B9A5EB10
:1054F00009000028C0F24B820023BE42A36200F0E4
:1055000054822E99304601310CF064F82CAB53458F
:105510009FD100246948CDE9174400F065FD82461B
:10552000664800F063FD824500F043830F940A94BF
:1055300008940990CDE91244CDE91044CDE90D4419
:10554000CDE90B44DAF804502C97002D00F00583C8
:105550002846FAF725FF0F280446269000F26782B6
:10556000012840F0C6822B788DF8B8303B464FF0CA
:1055700000022D941A55DDF8B4B0BBF1000F00F015
:105580006E824C4B2C9E9C68B4B3C146D4E9040592
:10559000AB450DD3D5B9A5EB0B000028D4E90232F9
:1055A00010DBB3B1A1461C46D4E90405AB45F1D2EA
:1055B0005A4631460DF099FC0028ECD00028D4E979
:1055C0000232EEDA22B113461C46EDE72A46F0E736
:1055D0004C46444510D0D4E90415AB4500F2608236
:1055E0005A4630460DF081FC08B9ABEB05000028A7
:1055F00002DBA26A0132A262089BBBF1080FDAF853
:1056000018402344089300F05082BBF1040F40F08F
:105610008D823378622B00F07382BE4204D0304614
:105620002E9901310BF0D6FF0AF13C0A099B534534
:1056300088D1234B1CAA93E8030008231A921B93DA
:105640000023C2E900018DF878301A4B9D68002DC7
:105650003AD02C46C246D4E90406082E00F2D7817F
:10566000002E40F01582E468002CF4D1C2452CD005
:10567000DAF81440072C40F282820822DAF810107F
:105680001CA80DF032FC08B9C4F1080000281CDB8E
:10569000DAF828302C460B4A159322AB0993209355
:1056A0000423CDE9213200238DF88C3026E000BFA1
:1056B000D8640108140E0024180E0024540E00248F
:1056C000A46701086261632DC2461AAB51462CAA39
:1056D000A5482C93FDF7D2FB836AA449159322AB0E
:1056E000099320930423CDE9213100238DF88C30D8
:1056F0009D4B9D68002D00F0F9802C46C246A146C6
:10570000099ED5E90404042C00F26381002C40F0CA
:10571000C381ED68002DF4D1C2454C4600F0E7800E
:10572000DAF81450032D40F220820422DAF8101027
:1057300009980DF0DAFB08B9C5F104000028C0F2A1
:10574000D680DAF8283025460DF1A00A1493884B4C
:10575000CDF898A01B68ADF8A0301B0C8DF8A230D6
:105760000323279300238DF8A330C346D4E904060E
:10577000032E00F21F81002E40F08C81E468002C83
:10578000F4D1C34500F0D280DBF81440022C40F283
:10579000E7810322DBF8101050460DF0A6FB08B994
:1057A000C4F103000028C0F2C180724BDBF82890DE
:1057B0001B682C97ADF8B8301B0C8DF8BA3003235A
:1057C0002D9300238DF8BB304646D5E90404032C05
:1057D00000F20E81002C40F06181ED68002DF4D1C3
:1057E00046450DD07469022C40F2C4810322316910
:1057F00038460DF07AFB08B9C4F10300002807DA37
:105800002CAB314619AA58481993FDF737FB0646C9
:10581000B36A4FF40071149A06930D9B049202939D
:10582000159B0E9A01930C9B03920093524A0B9B7B
:105830005248CDF814900DF0BDFA2C98B84203D020
:105840002E9901310BF0C6FE2698504503D02899B9
:1058500001310BF0BFFE2098099B984203D022999A
:1058600001310BF0B7FE1A981CAB984203D01C997B
:1058700001310BF0AFFE4148FAF792FD01463F4877
:1058800005F07AFB322006F067F818AB139C119DE7
:10589000DDF83C90DDF84880109F0A9E4246039355
:1058A00017AB39463046019402934B46009500F001
:1058B000DDF918990794179C089B314ACDF8188098
:1058C00005950497CDF80C9000942C48CDE901166D
:1058D0004FF400710DF06EFA2848FAF761FD0146A9
:1058E000264805F049FB33B0BDE8F08FC24620AB37
:1058F00051462CAA1C482C93FDF7C0FA836A0DF17F
:10590000A00A14931A4BCDF898A01B68ADF8A030EC
:105910001B0C8DF8A2300323279300238DF8A330AE
:10592000114B9C680CB125461FE7C34626AB594670
:105930002CAA0D482C93FDF7A1FA0B4BD0F8289018
:105940009D680C4B2C971B68ADF8B8301B0C8DF87C
:10595000BA3003232D9300238DF8BB30002D7FF444
:1059600033AF46464CE700BF140E00246261632D3E
:10597000B0670108B467010830690108FC0B002416
:10598000CC690108984B4D469C427FF4A4AD2CABEA
:10599000214620AA95482093FDF770FA2C9E0446D4
:1059A0000023BE42A3627FF4ACAD2CAB53457FF421
:1059B00050ADAEE5032251460DF097FA00B9F01E46
:1059C0000028FFF6DBAEA346A468002C7FF4CEAE21
:1059D000D7E6042231460DF088FA00B9201F0028CE
:1059E000FFF697AEAA46AD68002D7FF48AAE93E627
:1059F000032239460DF079FA00B9E01E0028FFF6BF
:105A0000ECAE2E46AD68002D7FF4DFAEE8E608224E
:105A10001CA90DF06AFA08B9A6F108000028FFF6E3
:105A200022AEA246A468002C7FF415AE1EE600222A
:105A300026A92CA80BF0BCFF269B2C902E93224667
:105A400029460DF070FB269C2C9B4FF000022D94F4
:105A50001A55DDF8B4B0BBF1000F7FF492AD2C986D
:105A6000B8427FF4DDADDFE500283FF406AD3846EF
:105A700007E0002220A92CA80BF09AFF209B2C9075
:105A80002E93224629460DF04EFB209C2C9AF5E4DD
:105A90003246BDE732468EE722469BE72246A8E71C
:105AA000002D3FF4A2AD2A469BE55A4650493046A8
:105AB0000DF01BFA58B15A464E4930460DF015FA12
:105AC00000287FF4AAAD0F9B23440F93A5E50A9B02
:105AD000DAF8380023440A9338B14749FAF700FC52
