:020000040800F2
:100000000000082475A50008C5A10008C7A10008C4
:10001000C9A10008CBA10008CDA100080000000084
:10002000000000000000000000000000CFA1000858
:10003000D1A1000800000000D3A10008D5A100084C
:10004000C5A50008C5A50008C5A50008C5A50008E8
:10005000C5A50008C5A50008D9A10008C5A50008C8
:10006000C5A50008C5A50008C5A50008E1A10008B0
:10007000C5A50008C5A50008C5A50008C5A50008B8
:10008000C5A50008C5A50008C5A50008C5A50008A8
:10009000C5A50008C5A50008C5A50008C5A5000898
:1000A000C5A50008C5A50008C5A50008C5A5000888
:1000B000EDA10008C5A50008C5A50008C5A5000854
:1000C000C5A50008C5A50008C5A50008C5A5000868
:1000D000C5A50008F9A1000805A2000811A20008A2
:1000E000C5A50008C5A5000800000000C5A50008BA
:1000F000C5A50008C5A50008C5A50008C5A5000838
:10010000C5A50008C5A50008C5A50008C5A5000827
:10011000C5A500081DA20008C5A50008C5A50008C2
:10012000C5A50008C5A50008C5A50008C5A5000807
:10013000C5A50008C5A50008C5A50008C5A50008F7
:1001400000000000000000000000000000000000AF
:10015000C5A50008C5A50008C5A50008C5A50008D7
:10016000C5A50008C5A50008C5A50008C5A50008C7
:10017000C5A50008C5A50008C5A500080000000029
:10018000C5A50008C5A50008C5A50008C5A50008A7
:10019000C5A50008C5A50008C5A50008C5A5000897
:1001A000C5A50008C5A50008C5A50008C5A5000887
:1001B000C5A50008C5A50008C5A50008C5A5000877
:1001C000C5A50008C5A50008C5A50008C5A5000867
:1001D000C5A50008C5A50008C5A50008C5A5000857
:1001E000C5A50008C5A50008C5A50008C5A5000847
:1001F000C5A50008C5A50008C5A50008C5A5000837
:10020000C5A50008C5A50008C5A50008C5A5000826
:10021000C5A50008C5A50008C5A50008C5A5000816
:10022000C5A50008C5A50008C5A500080000000078
:10023000C5A50008C5A5000800000000C5A5000868
:10024000C5A50008C5A50008C5A50008C5A50008E6
:10025000C5A50008C5A50008C5A50008C5A50008D6
:10026000C5A50008C5A50008C5A50008C5A50008C6
:10027000C5A50008C5A50008C5A500080000000028
:10028000C5A50008C5A50008C5A500080000000018
:0802900000000000C5A50008F4
:1002A00010B5054C237833B9044B13B10448AFF3B0
:1002B00000800123237010BDD8010024000000003D
:1002C0003838010808B5034B1BB103490348AFF3A5
:1002D000008008BD00000000DC010024383801085F
:1002E00001F0FF01102A2BDB10F0070F08D010F8E7
:1002F000013B013A8B422DD010F0070F42B3F6D1EB
:10030000F0B441EA012141EA014122F007047FF003
:1003100000070023F0E80256083C85EA010586EA5A
:10032000010685FA47F5A3FA87F586FA47F6A5FA96
:1003300087F68EB9EED1F0BC01F0FF0102F00702A2
:1003400032B110F8013B013A83EA010313B1F8D14D
:100350000020704701387047002D06BF354603382E
:10036000073815F0010F07D1013015F4807F02BF67
:10037000013015F4C03F0130F0BC0138704700BFB8
:10038000034613F8012B002AFBD1181A01387047D5
:1003900081F0004102E000BF83F0004330B54FEA36
:1003A00041044FEA430594EA050F08BF90EA020FA3
:1003B0001FBF54EA000C55EA020C7FEA645C7FEA36
:1003C000655C00F0E2804FEA5454D4EB5555B8BF59
:1003D0006D420CDD2C4480EA020281EA030382EACA
:1003E000000083EA010180EA020281EA0303362D5C
:1003F00088BF30BD11F0004F4FEA01314FF4801C2F
:100400004CEA113102D0404261EB410113F0004F40
:100410004FEA03334CEA133302D0524263EB4303F7
:1004200094EA050F00F0A780A4F10104D5F1200E95
:100430000DDB02FA0EFC22FA05F2801841F10001F0
:1004400003FA0EF2801843FA05F359410EE0A5F1C4
:1004500020050EF1200E012A03FA0EFC28BF4CF0F5
:10046000020C43FA05F3C01851EBE37101F00045AB
:1004700007D54FF0000EDCF1000C7EEB00006EEBB8
:100480000101B1F5801F1BD3B1F5001F0CD3490842
:100490005FEA30004FEA3C0C04F101044FEA445299
:1004A00012F5800F80F09A80BCF1004F08BF5FEA20
:1004B000500C50F1000041EB045141EA050130BD00
:1004C0005FEA4C0C404141EB0101013C28BFB1F512
:1004D000801FE9D291F0000F04BF01460020B1FA5D
:1004E00081F308BF2033A3F10B03B3F120020CDA30
:1004F0000C3208DD02F1140CC2F10C0201FA0CF00E
:1005000021FA02F10CE002F11402D8BFC2F1200C72
:1005100001FA02F120FA0CFCDCBF41EA0C01904028
:10052000E41AA2BF01EB0451294330BD6FEA040471
:100530001F3C1CDA0C340EDC04F11404C4F120025C
:1005400020FA04F001FA02F340EA030021FA04F36E
:1005500045EA030130BDC4F10C04C4F1200220FAC5
:1005600002F001FA04F340EA0300294630BD21FA03
:1005700004F0294630BD94F0000F83F4801306BFC9
:1005800081F480110134013D4EE77FEA645C18BFBD
:100590007FEA655C29D094EA050F08BF90EA020F54
:1005A00005D054EA000C04BF1946104630BD91EA4C
:1005B000030F1EBF0021002030BD5FEA545C05D14F
:1005C0004000494128BF41F0004130BD14F580048E
:1005D0003CBF01F5801130BD01F0004545F0FE4102
:1005E00041F470014FF0000030BD7FEA645C1ABF37
:1005F000194610467FEA655C1CBF0B46024650EA6E
:10060000013406BF52EA033591EA030F41F4002199
:1006100030BD00BF90F0000F04BF0021704730B51F
:100620004FF4806404F132044FF000054FF00001F4
:1006300050E700BF90F0000F04BF0021704730B5B5
:100640004FF4806404F1320410F0004548BF40428A
:100650004FF000013EE700BF42004FEAE2014FEADF
:1006600031014FEA02701FBF12F07F4393F07F4FBA
:1006700081F06051704732F07F4208BF704793F0BD
:100680007F4F04BF41F40021704730B54FF46074D0
:1006900001F0004521F000411CE700BF50EA0102D3
:1006A00008BF704730B54FF000050AE050EA01027C
:1006B00008BF704730B511F0004502D5404261EBEC
:1006C00041014FF4806404F132045FEA915C3FF42D
:1006D000D8AE4FF003025FEADC0C18BF03325FEACA
:1006E000DC0C18BF033202EBDC02C2F1200300FA7B
:1006F00003FC20FA02F001FA03FE40EA0E0021FAA0
:1007000002F11444BDE600BF53B94AB9002908BF3D
:1007100000281CBF4FF0FF314FF0FF3000F0C0B990
:10072000ADF1080C6DE904CE00F03EF8DDF804E010
:10073000DDE9022304B0704708B502460B4643ECDE
:10074000172BB5EEC07BF1EE10FA03D4BDE80840DC
:1007500000F00AB8B1EE477B51EC170B00F004F83B
:10076000404261EB410108BD9FED0B6B41EC170B63
:100770009FED0B5B27EE066BBCEEC66BB8EE464BEF
:10078000A4EE457BFCEEC77B16EE101A17EE900A1E
:10079000704700BFAFF30080000000000000F03D94
:1007A000000000000000F0412DE9F047089D8E4652
:1007B00004468846002B4AD18A42174662D9B2FACB
:1007C00082F64EB1C6F1200301FA06F820FA03F3CF
:1007D000B74043EA0808B4404FEA174E1FFA87FCB7
:1007E000B8FBFEF1230C0EFB118843EA084301FB22
:1007F0000CF29A4209D9FB1801F1FF3080F0EA802F
:100800009A4240F2E78002393B449A1AA3B2B2FB03
:10081000FEF00EFB102243EA024300FB0CFC9C4559
:1008200009D9FB1800F1FF3280F0D6809C4540F2D8
:10083000D3803B44023840EA0140A3EB0C03002183
:100840001DB1F3400022C5E90032BDE8F0878B42BC
:1008500005D90DB1C5E9000100210846F5E7B3FA55
:1008600083F1002946D1734502D3824200F205810B
:10087000841A6EEB030201209046002DE5D0C5E9F5
:100880000048E2E7002A00F09080B2FA82F6002EDB
:1008900040F0A4808A1A030C4FEA174E80B2BCB213
:1008A0000121B2FBFEFC0EFB1C2243EA024304FBC7
:1008B0000CF29A4207D9FB180CF1FF3802D29A4287
:1008C00000F2E080C4469B1AB3FBFEF20EFB12332B
:1008D00040EA034302FB04F49C4207D9FB1802F1EF
:1008E000FF3002D29C4200F2CA8002461B1B42EA41
:1008F0000C40A5E7C1F120068B4022FA06F71F4302
:100900000EFA01F420FA06F32EFA06FE4FEA174912
:10091000234300FA01F81FFA87FCBEFBF9F01C0C18
:1009200009FB10EE44EA0E4400FB0CFEA64502FA59
:1009300001F209D93C1900F1FF3A80F09C80A645EC
:1009400040F2998002383C44A4EB0E041FFA83FE67
:10095000B4FBF9F309FB13444EEA044403FB0CFC1B
:10096000A44508D93C1903F1FF3E80F08280A445DC
:100970007FD9023B3C4443EA0040A4EB0C04A0FBBB
:1009800002EC64457346E14662D35FD05DB1B8EBDB
:10099000030264EB090404FA06F622FA01F31E438B
:1009A000CC40C5E9006400214FE7B1FBF2FC010C2B
:1009B00041EA0E4180B240EA01423B4638463C469D
:1009C000B846BE462026B1FBF7F1A2EB080241EA89
:1009D0000C4166E7014618E710462CE7C6F12002F5
:1009E0002EFA02F3B740B14020FA02F24FEA174E56
:1009F0000A43B3FBFEF8BCB20EFB1833110C41EAFC
:100A0000034108FB04F9B04089454FEA104380B226
:100A10003ED9791808F1FF3C01D289451FD8A1EBD6
:100A20000901B1FBFEF909FB04F80EFB191192B2A2
:100A300042EA0142424529D2BA1809F1FF31C4D233
:100A40004245C2D2A9F102013A44BEE7F0459DD227
:100A5000BEEB02036CEB070C0138E14696E7A7EB0F
:100A600009094944A8F1020CB1FBFEF909FB04F89D
:100A7000DBE773467FE7504666E70846FDE63B4402
:100A8000023A33E7ACF1020C3B441CE749469CE7D1
:100A9000A1EB0901C446B1FBFEF909FB04F8C4E768
:100AA000704700BF38B5044604B938BDE068FFF7A9
:100AB000F9FFA568204620212C460EF0D4F9F3E773
:100AC000531A0F2B73B504460D461646019306D9EB
:100AD000002201A90EF0CAFA019B2060A3603246F1
:100AE000294620680EF0FEFA019B2268002163600F
:100AF000D15402B070BD000008B54368C3F17F5304
:100B000003F57F1303F57F533F339A4202D903481D
:100B10000EF086FABDE808400EF045BB50380108DB
:100B200008B5034678B1084A904206D9074A904270
:100B300001D90EF06CFA0EF067FA18205843BDE8A0
:100B400008400EF092B908BD55555505AAAAAA0A43
:100B500000F1080373B504460D46036011B90F4850
:100B60000EF058FA0846FFF70BFC0F2805EB0006BD
:100B7000019007D9002201A920460EF077FA019BC7
:100B80002060A3603246294620680EF0ABFA019B34
:100B9000226800216360D15402B070BD653801083D
:100BA00000F1080373B503600446D1E900530F2B2D
:100BB00005EB0306019306D9002201A90EF056FAAF
:100BC000019B2060A3603246294620680EF085FA1A
:100BD000019B226800216360D15402B070BD000007
:100BE000F7B5164604460D460FF002FD07680FF0F4
:100BF000FFFC0023324601A9036020460EF078FC7A
:100C0000019B06469C4202D10C480EF006FA0FF0FA
:100C1000EFFC0368222B02D108480EF004FA15B14C
:100C2000019B1B1B2B600FF0E3FC036813B90FF053
:100C3000DFFC0760304603B0F0BD00BF9738010805
:100C400038B5044604B938BDE068FFF7F9FF04F190
:100C50001000A5680EF02BFA20462C212C460EF031
:100C600002F9EFE7F8B500F108070C460546076002
:100C700008460EF0F5F904F10806626860B1013229
:100C800003D0314638460FF0E0FC636826606B60A5
:100C9000002363602372F8BD23682B60A368AB60F8
:100CA000F3E7F8B5164604468B680D1D01223BB9E3
:100CB000E2B1CA68AA420ED1C4E900352046F8BDA7
:100CC0001A691D46B242D3E90270CBBF012200224D
:100CD0003B460346EBE728460EF030F90369B34282
:100CE0004FF00003E8DBC4E90003E7E72846F5E737
:100CF000F8B5164604468B680D1D01223BB9E2B1DA
:100D0000CA68AA420ED1C4E900352046F8BD1A7C53
:100D10001D46B242D3E902708BBF012200223B463E
:100D20000346EBE728460EF009F9037CB3424FF087
:100D30000003E8D3C4E90003E7E72846F5E72DE917
:100D4000F04105462C200E460EF08FF805F11001FB
:100D500004461030FFF724FFAB6AE868A3622B78E3
:100D6000666023700023C4E9023318B12146FFF7FF
:100D7000E6FFE060AE6827464FF0000816B920464F
:100D8000BDE8F0812C200EF070F806F11001054648
:100D90001030FFF705FFB36AAB623378C5E902880C
:100DA0002B70BD606F60F06818B12946FFF7C7FF70
:100DB000E860B6682F46E1E710B5084C4FF40071C3
:100DC0000368074A20460FF099FA2046FFF7D8FA41
:100DD00001462046BDE8104009F0D0BA7404002452
:100DE0009C3801082DE9F74F0F46164600230446AC
:100DF000D1E90021C0E9003311448360914203F13D
:100E0000010805D16D4B984508D96D480EF008F9D9
:100E100012F8010BB04208BF4346EFE7B8F1000FEC
:100E200014D04046FFF77CFE05468246D4E9009B7D
:100E3000CB4520D1206818B1A168091A0EF013F82B
:100E40001823C4E9005503FB0855A560D7F800B086
:100E50005846D7E900321344A3EB0B01891000294F
:100E6000824614DC191A02294CD0032945D00129E5
:100E70004ED09A4614E049465046FFF7F3FE4846E6
:100E80000AF1180A09F118090EF011F9D0E70078F3
:100E9000B04205D09AF80100B0421CD10AF1010A13
:100EA000D4E90193994539D009F1080352465946CE
:100EB0004846C9F800300023C9F80430FFF700FEA7
:100EC000636818336360D7E900310B449A4571D0E9
:100ED0000AF1010BBCE79AF80200B04202D10AF114
:100EE000020ADDE79AF803500AF10400B54202D184
:100EF0000AF1030AD4E70139B1E70178B142CFD052
:100F000000F1010A9AF80010B142C9D00AF1010AB1
:100F10009AF80010B14218BF9A46C1E72368294ADF
:100F2000A9EB0301CD105543244A954201D126482F
:100F30006CE7994514BF284601202D182CD21F4A72
:100F4000954228BF15462846CDE90031FFF7E8FD58
:100F500001998046084400F1080248F80120002168
:100F6000524641605946FFF7ABFD009B40469B4609
:100F700000F11802D945009210D123B1A16818469A
:100F8000C91A0DF070FF009BC4F80080636018233D
:100F900003FB0583A36096E7084DD4E75946019308
:100FA000FFF760FE58460EF082F80BF1180BDDE9F2
:100FB0000003DDE7204603B0BDE8F08F5555550529
:100FC000B7380108ABAAAAAAC738010810B5044669
:100FD0008068FFF735FE204610BD10B50446A830E6
:100FE0000EF065F804F190000EF061F804F178005D
:100FF0000EF05DF804F160000EF059F804F14800BD
:10100000FFF7E4FF04F130000EF051F804F118008E
:101010000EF04DF820460EF04AF8204610BD70B58F
:101020000446D0E90056AE4207D1206818B1A16845
:10103000091A0DF018FF204670BD284618350EF02D
:1010400036F8F0E770B54668044608460D46FFF7E7
:1010500097F9864209D156B13246294620680FF0E9
:10106000E8F9B0FA80F0400970BD0020FCE70120EB
:10107000FAE72DE9F041044608460D461746FFF70A
:101080007FF904F108030646D7E9008723600023AF
:1010900039182046636023720EF06AF832462946FA
:1010A0002046FFF729FD20463A464146FFF724FD3A
:1010B0002046BDE8F08138B500230D46011D0446E9
:1010C000037183604361C0E90311A86880B1FFF731
:1010D00036FE03461A469B68002BFBD10346E260AE
:1010E0001A46DB68002BFBD16B6922616361A0604B
:1010F000204638BD426808B54B689A4208D14AB1CB
:10110000096800680FF095F9B0FA80F0400908BD51
:101110000020FCE70120FAE72DE9F3471E460746C9
:10112000D4200D460DF0A1FE336800F114080446EA
:101130001E68C022002107F10409066140460FF035
:10114000A2F904F1340204F11C03A945E26204F19E
:101150004C0263614FF00003626422462377AA4683
:1011600084F8343084F84C3002F8603F84F87C30E6
:1011700084F8943084F8AC3084F8C430C4E91A227E
:1011800004F17C02626704F19402C4F88C2004F13B
:10119000AC02C4F8A42004F1C402C4F8BC200FD1EE
:1011A0007B692BB1D7F810A0DAF81030B3422BDBF3
:1011B000324639466846FFF774FDDDE9005A1EE005
:1011C0002B69B3420CDDFB68AB4207D028460DF01B
:1011D000B5FE0369B342EBDAC36853B301201BE0E9
:1011E00029DA3B69AB420FD028460DF0A5FE036912
:1011F0000546B342DCDDDAF80C303BB18246BAF189
:10120000000F18D0002DE9D1D145E7D0DAF8103021
:101210009E42ACBF002001204B4652462146254647
:101220000DF08EFE7B6901337B61284602B0BDE87C
:10123000F0878246E8E74046FFF7CFFED4212046FC
:101240000DF011FEF1E70000F0B5051D0A460C682F
:1012500085B08368294683B98D4202D00B69A342C9
:1012600007DD02AB0392094A009303ABFFF754FF7B
:10127000014601F1140005B0F0BD1E69D3E9027CFE
:10128000B442D6BF194663463B46E4E7CC4A010860
:10129000364B2DE9F0411B788AB00C460390002BA9
:1012A00047D103A93248FFF7CFFF03A905683048AB
:1012B000FFF7CAFFD0F890302E4E4FF400712E4A3F
:1012C0002E4804362E4FDFF8CC80CDE9005323465C
:1012D0000FF014F8B468B44213D1284C2046FFF73D
:1012E0004FF87D232044274900F8013C20460FF0A9
:1012F000D2F82046FFF744F80146204609F03EF8B0
:1013000017E094ED0A7A424680211D48B7EEC77A6D
:101310008DED007B23690EF0F1FF7F280CDD1A496B
:1013200004A8FFF715FC04A8FFF746FD04A80DF07C
:10133000BEFE0AB0BDE8F0811048FFF721F805466F
:101340003846FFF71DF80544B5F5007F01D30F4976
:10135000E6E7394609480FF09EF80D4907480FF0B7
:101360009AF820460DF0E8FD0446B4E7B40B0024DB
:10137000D406002474060024E13801087402002415
:10138000F40100246A4A01080F3901083C390108B8
:1013900003390108053901082DE9F7431D460746C1
:1013A0002C200C4607F104090DF05FFD2B6800F1BD
:1013B0001802A145064693F800804FF00003254629
:1013C00080F810800376C3618362C0E908220DD1E2
:1013D0007B691BB13D692B7C434528D34246394686
:1013E0006846FFF785FCDDE900451DE0237C4345A9
:1013F0000CD9FB68A34207D020460DF09FFD037C6B
:101400004345EBD2C36833B3012017E025D23B69D3
:10141000A3420CD020460DF08FFD037C04464345CB
:10142000DCD9EB682BB10546BDB1002CECD1A94548
:10143000EAD0287C404594BF002001204B462A4634
:10144000314634460DF07CFD7B6901337B612046DB
:1014500003B0BDE8F0830546E9E70020FFF722FB73
:101460002C2130460DF0FFFCF1E708B50DF0E6FE4B
:10147000C00F08BDF8B5041D0F46866825465EB945
:10148000AC4207D005F110013846FFF7EEFF002807
:1014900018BF25462846F8BD06F110003946FFF76B
:1014A000E4FF0028D6E902320ABF354616461E463A
:1014B000E5E7000038B54B6805460C4623B90E49F0
:1014C000FFF746FB284638BD0C491046FFF7BAFD2A
:1014D000214660B10A48FFF7CDFF0A4B984218BF7A
:1014E00000F1280428462146FFF75AFBEAE70648A0
:1014F000FFF7C0FF054BF1E76339010868390108C0
:10150000BC060024C0060024A4060024A80600246B
:1015100038B5456804463DB105F110000DF0C7FD32
:101520002C2128460DF09FFC204638BD2DE9F041C6
:1015300004460F4690468D680E1D012045B908B33C
:10154000FB68B34211D1256066602046BDE8F0819A
:1015500005F110014046FFF788FF00282E46D5E927
:10156000022314BF15461D46E8E730460DF0E6FCA1
:101570000546414605F11000FFF777FF20B1002333
:101580002360E1E73546F4E7C4E90050DDE72DE9E3
:10159000F341066802AB04461746456806F10408A5
:1015A00003E90600A9B9424513D002F1100105F183
:1015B0001000FFF75AFF43463A4629460DF0C0FC9B
:1015C00073692846013373610023636002B0BDE88C
:1015D000F0810120EFE7F0B585B005460E4600909A
:1015E0002C200DF042FC00F110070446316838460B
:1015F000FFF7AEFA736801943A46A36202AC29463B
:101600002046FFF793FF039B23B1684694E806004A
:10161000FFF7BDFF6846FFF77BFF05B0F0BD70B573
:101620000E468568041D0DB9204670BD05F11000F9
:101630003146FFF71AFF0028D5E902230ABF2C46DE
:101640001D461546EFE72DE9F8431E460B1D0446DF
:101650000F469A42154613D14B694BB10D6931467D
:1016600005F11000FFF701FF10B10023236027E010
:10167000324639462046FFF759FF2046BDE8F88339
:1016800002F1100930464946FFF7EFFE8046C8B127
:10169000FB68AB4202D123606360EEE728460DF0A1
:1016A0004DFC314680461030FFF7DFFE0028DFD0CA
:1016B000D8F80C301BB92360C4F80480DDE725603E
:1016C0006560DAE731464846FFF7CFFEB0B13B69C7
:1016D000AB4202D1C4F80080DEE728460DF02CFCB6
:1016E000804600F110013046FFF7BFFE0028BFD052
:1016F000EB68002BBAD0C4F80080DDE7C4E90050E5
:10170000BBE72DE9FF4180460E46FFF788FF044600
:1017100008F10403984205D000F110013046FFF7AC
:10172000A4FE00B32C20CDF800800DF09EFB00F14C
:101730001007054631463846FFF732FA0023019577
:101740002246AB6202AD3B4641462846FFF77BFF8F
:10175000039B6BB1684695E80600FFF718FF044647
:101760006846FFF7D5FE04F1280004B0BDE8F0811B
:10177000029CF5E72DE9FF4180460E46FFF74FFF3B
:10178000044608F10403984205D000F110013046E8
:10179000FFF76BFE00B32C20CDF800800DF065FB49
:1017A00000F11007054631463846FFF75BFA002383
:1017B00001952246AB6202AD3B4641462846FFF703
:1017C00042FF039B6BB1684695E80600FFF7DFFE1A
:1017D00004466846FFF79CFE04F1280004B0BDE80B
:1017E000F081029CF5E72DE9FF4104460F46FFF723
:1017F00016FF0546231D984205D000F1100138461A
:10180000FFF733FEF0B12C2000940DF02EFB00F119
:101810001008064639464046FFF724FABB69019690
:101820002A46B36202AE434621463046FFF70BFF1D
:10183000039B23B1684696E80600FFF7A8FE6846BA
:10184000FFF766FE04B0BDE8F0812DE9F0410446E3
:101850000F4690468D680E1D012045B908B3FB6800
:10186000B34211D1256066602046BDE8F08105F1E4
:1018700010014046FFF7F9FD00282E46D5E9022366
:1018800014BF15461D46E8E730460DF057FB0546E8
:10189000414605F11000FFF7E8FD20B10023236069
:1018A000E1E73546F4E7C4E90050DDE72DE9F74FFD
:1018B000074674201C4689460DF0D7FA054600F10C
:1018C0001008216805F1280A07F1040B40464E462E
:1018D000FFF766F94C22002150460EF0D4FD05F1C9
:1018E000300305F14802CB45AB624FF000032A6498
:1018F00005F1640285F8303085F84830EA6585F8EE
:10190000643011D17B693BB13C69414604F1100060
:10191000FFF7ABFD002865D1424639466846FFF720
:1019200094FFDDE900642EE009F1100440462146F1
:10193000FFF79BFD80B1FB684B450BD048460DF08F
:10194000FDFA414604461030FFF78FFD0028E3D032
:10195000E368D3B1344616E041462046FFF785FDE3
:1019600050B33C694C453DD048460DF0E5FA04467D
:1019700000F110014046FFF778FD0028CCD0D9F8DF
:101980000C3033B126465CB30EB9A34502D1012019
:1019900005E04C4604F110014046FFF766FD5B464A
:1019A000224629462C460DF0CBFA7B6901337B6138
:1019B000204603B0BDE8F08F4C4605F15C000DF009
:1019C00076FB05F140000DF072FB50460DF06FFB09
:1019D00040460DF06CFB742128460DF044FAE7E711
:1019E0003446EAE7002CD0D1E7E700002DE9FF41BB
:1019F000071D80460E4685683C46B5B9A74205D00E
:101A000004F110013046FFF730FD48B102AB21462A
:101A10000C4A4046009303AB0396FFF747FF04468A
:101A200004F1280004B0BDE8F08105F11000314652
:101A3000FFF71BFD0028D5E902230ABF2C461D46EF
:101A40001546DAE7CC4A01081046102270B51E464A
:101A50000D46006800212DED028B86B0FFF7C0F81F
:101A6000204904463046FFF7EDFA294648B31E48A0
:101A7000FFF700FD1D4B834210D12A461C496846E2
:101A8000FFF7F7FA6846FFF797F968460DF00FFB86
:101A90009FED180A06B0BDEC028B70BD23042946E9
:101AA000114842BFE443C4F30E04644207EE904A77
:101AB000B8EEE78AFFF79AFFD0ED0C7A28EE270AF6
:101AC000E8E70D48FFF7D6FC0C4B834202D12A46CB
:101AD0000B49D4E707EE904A2946181FB8EEE78A6B
:101AE000E8E700BF68390108BC060024C0060024EE
:101AF0006F39010820BCBE4CA4060024A8060024AF
:101B0000963901082DE9F04F0546D0E900032DED87
:101B1000028B1B1ACFB0182B0ED85C491EA8FFF7FA
:101B200017F81EA8FFF748F91EA80DF0C0FA4FB02D
:101B3000BDEC028BBDE8F08F002255490DF070FB23
:101B40000130EAD128680022514918300DF068FBB5
:101B50000130E2D12B680A22002100271868FFF724
:101B60003FF82B680A22002104909869FFF738F8A3
:101B70000DAB08A9089047480B930C978DF834706B
:101B8000FFF762FB044601461EA8434EFFF708F824
:101B900004F1180124A8FFF703F804F130012AA882
:101BA000FEF7FEFF04F1480130A8FFF784FA04F1C4
:101BB000600136A8FEF7F4FF04F178013CA8FEF7B7
:101BC000EFFF04F1900142A8FEF7EAFF04F1A8013B
:101BD00048A8FEF7E5FF30A911A8FFF76CFAB06836
:101BE000FFF72EF8331D2C20B76077610996089F08
:101BF000C6E903330DF039F900F11008044627490E
:101C00004046FEF7A5FF07EE907A0A944246F8EEAA
:101C1000E77A3146C4ED0A7A17AC2046FFF786FC16
:101C2000189B23B109A894E80600FFF7B0FC4FF019
:101C300000094FF00208174E09A8FFF769FC184980
:101C4000D5E900239B1ADB104B43984507D3B9F124
:101C5000000F12D004990898FFF71AFB0DE008F165
:101C600001018B4220D80F4917A8FEF771FF17A872
:101C7000FFF7A2F817A80DF01AFA11A8FFF7A6F9B6
:101C80001EA8FFF7AAF90BA84FE700BFBB39010850
:101C9000DA390108D406002474060024E539010865
:101CA000ABAAAAAAE8390108182708A9304607FBF9
:101CB00008F702EB070AFFF7C7FA00F1A80217A816
:101CC0005146FFF7F7FB17A80DF0CAF9DDF860B031
:101CD0008246002800F0AB80BBF1000F04D05A46CA
:101CE00017990B980DF0EDF9189B00210B9A0C93A6
:101CF000D1540023179A17A8189313700DF0D7F931
:101D00002A68DDF820A008A902EB070B1837304637
:101D10001744FFF799FA594600F1A8033A4650468E
:101D2000FFF792FEB0EE408A139F0DF1480A002F94
:101D300040F0938012AB9A4500F079820AF11001CD
:101D40000BA8FFF792FB002840F071820BA911A8A5
:101D5000FFF7D7FCD0ED007AB4EE678AF1EE10FA07
:101D600062D0A1490BA8FFF76DF9002800F082802E
:101D70009E4F17A83946FEF7EBFE17A911A8FFF7EB
:101D8000F9FC036809A99A4809979A4F0A93FFF743
:101D900022FC17A80DF08BF9394617A8FEF7D8FEDC
:101DA00017A911A8FFF7E6FC036809A9904809974D
:101DB000914F0A93FFF70FFC17A80DF078F93946F9
:101DC00017A8FEF7C5FE17A911A8FFF7D3FC0368F3
:101DD00009A987480A930997FFF7FDFB17A80DF09B
:101DE00066F90BA911A89DF82070FFF78AFCD0EDC9
:101DF000007A3846FCEEE77ACDED037AFCEEC87A3D
:101E00009DF80C10CDED027A9DF8082007F05AFFDE
:101E100008A93046FFF718FA0BA94830FFF771FC04
:101E200080ED008A4FF0010908F1020807E70BA8CE
:101E30000DF016F960B90D9B0B980593179BCDE932
:101E40000B3B199B0D9328B1059B1790199350E7F5
:101E50005046F3E719AB17934BE707F110000BA9B6
:101E6000FFF703FB0028D7E902320ABFBA4617463C
:101E70001F465CE708A93046FFF7E6F900F130019C
:101E80000BA8FFF737F9002856D0584F2046DFF847
:101E900064913946FEF75CFE214611A8FFF76AFC03
:101EA000036809A952480A930997FFF794FB204653
:101EB000514F0DF0FCF84C492046FEF749FE2146F3
:101EC00011A8FFF757FC484B09A909930368484834
:101ED0000A93FFF780FB20460DF0E9F839462046CB
:101EE000FEF736FE214611A8FFF744FC036809A956
:101EF0003F480A930997FFF76EFB20460DF0D7F88D
:101F000008A93E48FFF7A0F9074649462046FEF7D4
:101F10001FFE214607F14800FFF72CFC80ED008AE8
:101F200020460DF0C4F82146CDF85C908DED188A5E
:101F30002F48FFF750FB6BE72F4F0BA83946FFF7F1
:101F400081F800285CD0294F17A83946FEF700FE1B
:101F500017A911A8FFF70EFC036809A924480A93E2
:101F60000997FFF738FB17A8224F0DF0A0F81E497C
:101F700017A8FEF7EDFD17A911A8FFF7FBFB1A4BF9
:101F800009A9099303681A480A93FFF724FB17A8C5
:101F90000DF08DF8394617A8FEF7DAFD17A911A83C
:101FA000FFF7E8FB036809A911480A930997FFF7AF
:101FB00012FB17A80DF07BF808A91048FFF744F9A9
:101FC0000BA94830FFF79DFB80ED008A0BA917A8ED
:101FD000FEF7E6FD17A906488DED1D8AFFF703FC05
:101FE00017A80DF064F813E7073A0108113A010841
:101FF00074060024193A0108243A0108D406002482
:1020000008A99948FFF720F900F118010BA8FFF77C
:1020100071F80028DAD0DFF85C9217A84946FEF77D
:1020200097FD17A911A8FFF7A5FB036809A98F4819
:102030000A93CDF82490FFF7CEFA17A8DFF8449260
:102040000DF035F8394617A8FEF782FD17A911A83B
:10205000FFF790FB036809A984480A930997FFF7E3
:10206000BAFA17A80DF023F8814917A8FEF770FDFA
:1020700017A911A8FFF77EFB7D4B09A909930368F7
:102080007A480A93FFF7A7FA17A80DF010F808A9E5
:102090007548FFF7D9F80746494617A8FEF758FDD7
:1020A00017A907F14800FFF765FB80ED008A17A824
:1020B0000CF0FDFF17A9CDF85C908DED188A37E77D
:1020C0006C4F08A93046FFF7BFF817A9483017979B
:1020D0008DED188AFFF77FFA17A9644817978DEDE1
:1020E000188AFFF778FA62490BA8FEF7ABFF814622
:1020F00000283FF497AE07F00FFB5F4F5F4B09A935
:1021000004379DF8202018607B6838460A70002B41
:1021100076D1874202D03B7C934209D907AB179115
:10212000574A3946009317AB5348FFF735F907462E
:10213000524AFCEEC87A49461368FA69039307F1DC
:102140001803CDED027A9A469DF808B00293002A52
:1021500060D1002969D03A6A524505D050460CF04A
:10216000EDFE027C5A451DD2029B534507D09AF8DA
:102170001090D94594BF4FF000094FF0010920207D
:102180000CF073FE039B014680F810B043610023FE
:102190005246C0E90633029B48460CF0D1FEBB6AAA
:1021A0000133BB620BA917A8FEF7FAFC17A92F4849
:1021B0008DED1D8AFFF717FB17A80CF078FF31E6AD
:1021C0002948FFF741F807460BA917A8FEF7E8FCD6
:1021D00017A907F148008DED1D8AFFF704FB17A82A
:1021E0000CF065FF0BA917A8FEF7DAFC17A91F482A
:1021F0008DED1D8AFFF7F7FA17A80CF058FF72E76C
:1022000093F810A0D3E902CE92452ABF1F46734629
:1022100063467CE7117C92465945D2E902038DBFA3
:10222000494600211A46024691E7504699E708A917
:102230003046FFF709F800F130010BA8FEF75AFF0E
:1022400000287FF43DAF08A93046FEF7FDFF00F1FE
:1022500018010BA8FEF74EFF08A90028B0D00248CD
:10226000084FFEF7F1FF30E7D4060024740600247F
:10227000073A0108193A0108BC0B0024B80B0024E6
:10228000CC4A0108113A01084168F0B504468BB008
:10229000002942D02D4B00681B78012B04D10BB0D4
:1022A000BDE8F04008F06AB803787B2BF7D001292D
:1022B00005D0303B092B02D842783A2A0CD0244969
:1022C00004A8FEF745FC04A8FEF776FD04A80CF070
:1022D000EEFED4E90001E2E701A82146FEF782FD07
:1022E0001C4BDDE901577E1BF010482E03FB00F06C
:1022F0001CD9C3071AD4FEF713FC06440446049005
:102300000696AF420BD104A80594FFF7FBFB04A887
:10231000FEF785FE01A8FEF782FE0BB0F0BD294650
:10232000204618351834FEF73BFCEAE70A4904A8B2
:10233000FEF70EFC04A8FEF73FFD04A80CF0B7FE64
:10234000D4E9000108F01AF8E4E700BF8C06002485
:102350002E3A0108ABAAAAAA6E3A0108044B002241
:10236000191D1A719A605A61C3E90311704700BFC1
:102370007406002408B50248FEF728FE08BD00BF19
:102380007406002400F1080373B504460D4603608B
:1023900011B90F480CF03EFE0846FDF7F1FF0F287B
:1023A00005EB0006019007D9002201A920460CF098
:1023B0005DFE019B2060A3603246294620680CF038
:1023C00091FE019B226800216360D15402B070BD70
:1023D0006538010800F1080373B503600446D1E9CC
:1023E00000530F2B05EB0306019306D9002201A928
:1023F0000CF03CFE019B2060A36032462946206819
:102400000CF06BFE019B226800216360D15402B086
:1024100070BDF8B5164604468B680D1D01223BB908
:10242000E2B1CA68AA420ED1C4E900352046F8BD1F
:102430001A691D46B242D3E90270CBBF01220022C5
:102440003B460346EBE728460CF078FD0369B342B0
:102450004FF00003E8DBC4E90003E7E72846F5E7AF
:102460002DE9F04105462C200E460CF0FEFC05F14E
:10247000100104461030FFF7ADFFAB6AE868A362B5
:102480002B78666023700023C4E9023318B121461B
:10249000FFF7E6FFE060AE6827464FF0000816B988
:1024A0002046BDE8F0812C200CF0DFFC06F1100185
:1024B00005461030FFF78EFFB36AAB623378C5E98B
:1024C00002882B70BD606F60F06818B12946FFF775
:1024D000C7FFE860B6682F46E1E700220270C0E956
:1024E0000120C0E90302704738B5044604B938BD7D
:1024F000E068FFF7F9FFA56804F11400FEF76DFD31
:102500002046D4212C460CF0AEFCEFE710B5044673
:1025100034300CF0CCFD04F118000CF0C8FD20465E
:102520000CF0C5FD204610BD10B504461830FFF76D
:10253000EDFF20460CF0BBFD204610BD38B504462B
:1025400004B938BDE068FFF7F9FFA56804F1100091
:10255000FFF7EAFF204674212C460CF084FCEFE7DD
:1025600073B500240D460646019409F07FF8114822
:10257000202301A9036102230460C0E9013401237F
:10258000C36009F0CFF9044650B109F0ADF802B0CC
:1025900070BD3244012009F009F90028F5D1013459
:1025A0006201A54202F10161F3DC09F085F8002027
:1025B000EDE700BF900600247FB502AB68460093AC
:1025C000002301938DF808300CF071FD07B05DF821
:1025D00004FB70B504460D46FFF7FCFE04F14C0603
:1025E00005F1180104F11800FFF7F4FE05F13001C0
:1025F00004F13000FFF7EEFE3046FFF76EFF286D66
:1026000088B13146FFF72CFF03461A469B68002B22
:10261000FBD1034662651A46DB68002BFBD1EB6DEC
:10262000A265E365206505F1600104F16000FFF734
:10263000D1FE05F1780104F17800FFF7CBFE05F13A
:10264000900104F19000FFF7C5FE04F1A80005F128
:10265000A801FFF7BFFE204670BD2DE9FF4700F13E
:10266000040A6B4604460D46504683E80600FFF711
:1026700034FF019BC42202FB035904352B1F9945EB
:1026800003D1204604B0BDE8F087636955F8047CA7
:102690001BB126693369BB4208DB3A46214602A8D2
:1026A000FFF7B7FE039EE6B1029BE3B9B2451AD02D
:1026B0003369BB42D4BF00270127D4200CF0D5FBDF
:1026C00055F8043C8046294603611430FFF781FF2A
:1026D00053463246414638460CF032FC63690133BA
:1026E0006361C435CAE70127E7E738B504460D46FC
:1026F000FFF770FE05F1180104F11800FFF76AFEFC
:102700002B6B04F1340005F134012363FFF762FE03
:10271000204638BD38B504461546FFF75BFE29460E
:1027200004F11800FFF7E1FF204638BD2DE9FF470F
:1027300000F104096B4604460D46484683E806004E
:10274000FFF7CBFE019B642202FB035AAA4503D18B
:10275000204604B0BDE8F087636933B12669294695
:1027600006F11000FEF781FE58BB2A46214602A85A
:10277000FFF76BF8039E06B3029B03BBB1451ED067
:1027800006F110012846FEF770FE074674200CF093
:102790006CFB804629461030FFF71CFE05F118013E
:1027A00008F12800FFF7A1FF4B4632464146384664
:1027B0000CF0C6FB6369013363616435C6E701272A
:1027C000E4E7002EDAD1F8E72DE9F04FADF5E34D5F
:1027D000E449412789B00DF61C70FFF7D3FDE249AB
:1027E0000DF63470FFF7CEFDE0490DF64C70FFF7A3
:1027F000C9FD0DF66870FFF770FEDD490DF67C70BF
:10280000FFF7C0FDDB490DF69470FFF7BBFDDA4919
:102810000DF6AC70FFF7B6FDD8490DF6C470FFF7A2
:10282000B1FD0DF583430DF57F500DF61C7120337E
:102830002030A3F5E27565232B602C46FFF7C9FE17
:10284000CF490DF6DC70FFF79DFDC7490DF6F4701A
:10285000FFF798FD0DF58153C449A3F11400FFF76C
:1028600091FD0DF5815303F10800FFF736FE0DF5DC
:102870008153BF4903F11C00FFF784FD0DF581531F
:10288000BC4903F13400FFF77DFD0DF58153BD49CF
:1028900003F14C00FFF776FD0DF58153B74903F1C5
:1028A0006400FFF76FFD14230DF6DC71C5F8C4302A
:1028B0000DF57F53203303F1C400FFF78AFE0DF5B9
:1028C0008450B1491C30FFF75DFD0DF58553A649D5
:1028D00003F11400FFF756FD0DF58553A34903F1ED
:1028E0002C00FFF74FFD0DF5855303F14800FFF76E
:1028F000F4FD0DF585539E4903F15C00FFF742FDA1
:102900000DF585539B4903F17400FFF73BFD0DF571
:1029100085539C4903F18C00FFF734FD0DF5855379
:10292000964903F1A400FFF72DFD15230DF5845101
:10293000C5F888310DF57F531C31203303F5C47081
:10294000FFF747FE0DF58A5090491C30FFF71AFD3E
:102950000DF58D538449A3F12C00FFF713FD0DF500
:102960008D538249A3F11400FFF70CFD0DF58D5333
:1029700003F10800FFF7B1FD0DF58D537C4903F11C
:102980001C00FFF7FFFC0DF58D537A4903F134006D
:10299000FFF7F8FC0DF58D537A4903F14C00FFF772
:1029A000F1FC0DF58D53754903F16400FFF7EAFC66
:1029B00016230DF58A51C5F84C320DF57F531C31A5
:1029C000203303F51370FFF704FE0DF590507049A6
:1029D0001C30FFF7D7FC0DF59153634903F1140048
:1029E000FFF7D0FC0DF59153604903F12C00FFF780
:1029F000C9FC0DF5915303F14800FFF76EFD0DF58D
:102A000091535B4903F15C00FFF7BCFC0DF591535A
:102A1000584903F17400FFF7B5FC0DF591535D497A
:102A200003F18C00FFF7AEFC0DF59153534903F110
:102A3000A400FFF7A7FC17230DF59051C5F810333C
:102A40000DF57F531C31203303F54470FFF7C1FDB2
:102A50000DF5965050491C30FFF794FC0DF5995335
:102A60004149A3F12C00FFF78DFC0DF599533F4927
:102A7000A3F11400FFF786FC0DF5995303F108004C
:102A8000FFF72BFD0DF59953394903F11C00FFF7B2
:102A900079FC0DF59953374903F13400FFF772FCC7
:102AA0000DF599533B4903F14C00FFF76BFC0DF515
:102AB0009953324903F16400FFF764FC18230DF5C4
:102AC0009651C5F8D4330DF57F531C31203303F5EF
:102AD0007570FFF77EFD0DF59C5030491C30FFF7F7
:102AE00051FC0DF59D53204903F11400FFF74AFCFA
:102AF0000DF59D531D4903F12C00FFF743FC0DF527
:102B00009D5303F14800FFF7E8FC0DF59D5318496C
:102B100003F15C00FFF736FC0DF59D53154903F1F9
:102B20007400FFF72FFC0DF59D531A4903F18C003B
:102B3000FFF728FC0DF59D53104903F1A400FFF7A2
:102B400021FC19230DF59C51C5F898340DF57F53E0
:102B50001C31203303F59360FFF73BFD0DF5A250C8
:102B60001EE000BF9C3A0108113A0108193A010819
:102B7000A23A0108A73A0108AE3A010868390108EB
:102B8000B93A0108C63A0108CF3A0108DC3A01080F
:102B9000E93A0108F63A0108FB3A0108083B010846
:102BA000E5491C30FFF7EEFB0DF5A553E349A3F112
:102BB0002C00FFF7E7FB0DF5A553E149A3F1140045
:102BC000FFF7E0FB0DF5A55303F10800FFF785FCC7
:102BD0000DF5A553DB4903F11C00FFF7D3FB0DF501
:102BE000A553D94903F13400FFF7CCFB0DF5A553EC
:102BF000D64903F14C00FFF7C5FB0DF5A553D449A9
:102C000003F16400FFF7BEFB45230DF5A251C5F8A3
:102C10005C350DF57F531C31203303F25C50FFF718
:102C2000D8FC0DF5A850CB491C30FFF7ABFB0DF5D8
:102C3000A953C24903F11400FFF7A4FB0DF5A953F2
:102C4000BF4903F12C00FFF79DFB0DF5A95303F1DC
:102C50004800FFF742FC0DF5A953BA4903F15C00A7
:102C6000FFF790FB0DF5A953B74903F17400FFF787
:102C700089FB0DF5A953B54903F18C00FFF782FBE1
:102C80000DF5A953B24903F1A400FFF77BFB4623DE
:102C90000DF5A8510DF58C40C5F820361C31FFF715
:102CA00098FC0DF5AE50AC491C30FFF76BFB0DF5F1
:102CB000B153A249A3F12C00FFF764FB0DF5B1530A
:102CC0009F49A3F11400FFF75DFB0DF5B15303F12C
:102CD0000800FFF702FC0DF5B1539A4903F11C00FF
:102CE000FFF750FB0DF5B153974903F13400FFF79F
:102CF00049FB0DF5B153954903F14C00FFF742FB39
:102D00000DF5B153924903F16400FFF73BFB122329
:102D10000DF5AE51C5F8E4360DF57F531C31203367
:102D200003F2E460FFF755FC0DF5B4508B491C30FD
:102D3000FFF728FB0DF5B553804903F11400FFF7A9
:102D400021FB0DF5B5537E4903F12C00FFF71AFB6B
:102D50000DF5B55303F14800FFF7BFFB0DF5B55373
:102D6000784903F15C00FFF70DFB0DF5B55376498B
:102D700003F17400FFF706FB0DF5B553734903F13A
:102D80008C00FFF7FFFA0DF5B553714903F1A4006C
:102D9000FFF7F8FA0A230DF5B451C5F8A8370DF579
:102DA0007F531C31203303F5F560FFF712FC0DF55E
:102DB000BA506B491C30FFF7E5FA0DF5BD535F497A
:102DC000A3F12C00FFF7DEFA0DF5BD535C49A3F12A
:102DD0001400FFF7D7FA0DF5BD5303F10800FFF714
:102DE0007CFB0DF5BD53574903F11C00FFF7CAFAF0
:102DF0000DF5BD535B4903F13400FFF7C3FA0DF540
:102E0000BD53594903F14C00FFF7BCFA0DF5BD5312
:102E10004F4903F16400FFF7B5FA64230DF5BA5189
:102E2000C5F86C380DF57F531C31203303F66C0068
:102E3000FFF7CFFB0DF5C0504C491C30FFF7A2FA4D
:102E40000DF5C1533D4903F11400FFF79BFA0DF551
:102E5000C1533B4903F12C00FFF794FA0DF5C15320
:102E600003F14800FFF739FB0DF5C153354903F174
:102E70005C00FFF787FA0DF5C1533A4903F174007E
:102E8000FFF780FA0DF5C153394903F18C00FFF7C4
:102E900079FA0DF5C1532E4903F1A400FFF772FA38
:102EA0001C230DF5C051C5F830390DF57F531C3189
:102EB000203303F51360FFF78CFB0DF5C6502D4949
:102EC0001C30FFF75FFA0DF5C9531C49A3F12C0024
:102ED000FFF758FA0DF5C9531949A3F11400FFF78C
:102EE00051FA0DF5C95303F10800FFF7F6FA0DF595
:102EF000C953144903F11C00FFF744FA0DF5C953F7
:102F0000184903F13400FFF73DFA0DF5C95318498C
:102F100003F14C00FFF736FA0DF5C9530C4903F1E4
:102F20006400FFF72FFA1D230DF5C651C5F8F439DB
:102F30000DF57F531C311FE0153B0108113A0108C4
:102F4000193A0108A23A0108A73A0108233B0108EF
:102F500068390108273B0108353B0108453B01085A
:102F6000513B0108573B0108AE3A01085E3B01089E
:102F7000683B0108713B0108203303F6F410FFF7AA
:102F800028FB0DF5CC50E6491C30FFF7FBF90DF599
:102F9000CD53E44903F11400FFF7F4F90DF5CD53D7
:102FA000E14903F12C00FFF7EDF90DF5CD5303F1E5
:102FB0004800FFF792FA0DF5CD53DC4903F15C00B0
:102FC000FFF7E0F90DF5CD53D94903F17400FFF790
:102FD000D9F90DF5CD53D74903F18C00FFF7D2F99C
:102FE0000DF5CD53D44903F1A400FFF7CBF91E230F
:102FF0000DF5CC51C5F8B83A0DF57F531C3120338F
:1030000003F6B820FFF7E5FA0DF5D250CB491C3096
:10301000FFF7B8F90DF5D553C249A3F12C00FFF71E
:10302000B1F90DF5D553C049A3F11400FFF7AAF982
:103030000DF5D55303F10800FFF74FFA0DF5D55301
:10304000BA4903F11C00FFF79DF90DF5D553B849B6
:1030500003F13400FFF796F90DF5D553B54903F1A7
:103060004C00FFF78FF90DF5D553B34903F1640018
:10307000FFF788F91F230DF5D251C5F87C3B0DF5FC
:103080007F531C31203303F67C30FFF7A2FA0DF595
:10309000D850AB491C30FFF775F90DF5D953A1494C
:1030A00003F11400FFF76EF90DF5D9539E4903F1B2
:1030B0002C00FFF767F90DF5D95303F14800FFF72E
:1030C0000CFA0DF5D953994903F15C00FFF75AF951
:1030D0000DF5D953964903F17400FFF753F90DF537
:1030E000D953944903F18C00FFF74CF90DF5D953EE
:1030F000914903F1A400FFF745F920230DF5D851BC
:103100000DF59840C5F8403C1C312030FFF761FABE
:103110000DF5DE508B491C30FFF734F90DF5E15306
:103120008049A3F12C00FFF72DF90DF5E1537E49FD
:10313000A3F11400FFF726F90DF5E15303F10800A0
:10314000FFF7CBF90DF5E153784903F11C00FFF7C8
:1031500019F90DF5E153764903F13400FFF712F93F
:103160000DF5E153734903F14C00FFF70BF90DF531
:10317000E153714903F16400FFF704F921230DF5D0
:10318000DE51C5F8043D0DF57F531C31203303F6A5
:103190000450FFF71EFA0DF5E4506B491C30FFF7A1
:1031A000F1F80DF5E5535F4903F11400FFF7EAF874
:1031B0000DF5E5535C4903F12C00FFF7E3F80DF53D
:1031C000E55303F14800FFF788F90DF5E55357493A
:1031D00003F15C00FFF7D6F80DF5E553544903F110
:1031E0007400FFF7CFF80DF5E553524903F18C0059
:1031F000FFF7C8F80DF5E5534F4903F1A400FFF7B9
:10320000C1F822230DF5E451C5F8C83D0DF57F53F3
:103210001C31203303F6C850FFF7DBF90DF5EA50F7
:103220004A491C30FFF7AEF80DF5ED533D49A3F1C7
:103230002C00FFF7A7F80DF5ED533B49A3F114005F
:10324000FFF7A0F80DF5ED5303F10800FFF745F97E
:103250000DF5ED53354903F11C00FFF793F80DF51B
:10326000ED53334903F13400FFF78CF80DF5ED53BE
:10327000304903F14C00FFF785F80DF5ED532E4969
:1032800003F16400FFF77EF823230DF5EA51C5F83A
:103290008C3E0DF57F531C31203303F68C60FFF715
:1032A00098F90DF5F0502A491C30FFF76BF80DF531
:1032B000F1531C4903F11400FFF764F80DF5F153C5
:1032C000194903F12C00FFF75DF80DF5F15303F1F7
:1032D0004800FFF702F90DF5F153144903F15C00C2
:1032E000FFF750F80DF5F153114903F17400FFF7A2
:1032F00049F80DF5F1530F4903F18C00FFF742F83F
:103300000DF5F1530C4903F1A400FFF73BF824231A
:103310000DF5F051C5F8503F0DF57F531AE000BF91
:10332000803B0108113A0108193A0108A23A010844
:10333000573B0108683B0108683901088F3B0108C9
:103340009E3B0108AD3B0108B73B0108C53B0108A6
:10335000D13B01081C31203303F57560FFF739F9C3
:103360000DF5F650E5491C30FFF70CF80DF5F95353
:10337000E349A3F12C00FFF705F80DF5F953E149F6
:10338000A3F11400FEF7FEFF0DF5F95303F1080059
:10339000FFF7A3F80DF5F953DB4903F11C00FEF725
:1033A000F1FF0DF5F953D94903F13400FEF7EAFFB7
:1033B0000DF5F953D64903F14C00FEF7E3FF0DF587
:1033C000F953D44903F16400FEF7DCFF0DF58343A4
:1033D0000DF5F65120331C3103F63C6625233046AB
:1033E00073611830FFF7F5F80DF5FC50CA491C3031
:1033F000FEF7C8FF0DF5FD53C14903F11400FEF7B8
:10340000C1FF0DF5FD53BF4903F12C00FEF7BAFFD4
:103410000DF5FD5303F14800FFF75FF80DF5FD537F
:10342000B94903F15C00FEF7ADFF0DF5FD53B74957
:1034300003F17400FEF7A6FF0DF5FD53B44903F147
:103440008C00FEF79FFF0DF5FD53B24903F1A40078
:10345000FEF798FF262305F586500DF5FC51C6F8BA
:10346000D8301C311C30FFF7B4F80DF50150AB49D2
:103470001C30FEF787FF0DF50253A1492033A3F15D
:103480002C00FEF77FFF0DF502539E492033A3F178
:103490001400FEF777FF0DF50253203303F1080007
:1034A000FFF71BF80DF502539749203303F11C0079
:1034B000FEF768FF0DF502539449203303F1340001
:1034C000FEF760FF0DF502539149203303F14C00E4
:1034D000FEF758FF0DF502538E49203303F16400C7
:1034E000FEF750FF27230DF5015105F58D50C6F865
:1034F0009C311C31FFF76DF80DF5045088491C30E4
:10350000FEF740FF0DF504537D49203303F114000D
:10351000FEF738FF0DF504537A49203303F12C00F0
:10352000FEF730FF0DF50453203303F14800FEF79A
:10353000D4FF0DF504537449203303F15C00FEF70A
:1035400021FF0DF504537149203303F17400FEF798
:1035500019FF0DF504536E49203303F18C00FEF77B
:1035600011FF0DF504536B49203303F1A400FEF75E
:1035700009FF28230DF504510DF5A440C6F860326B
:103580001C314030FFF725F80DF5075065491C3018
:10359000FEF7F8FE0DF5085359492033A3F12C002E
:1035A000FEF7F0FE0DF5085356492033A3F1140041
:1035B000FEF7E8FE0DF50853203303F10800FEF78F
:1035C0008CFF0DF508535049203303F11C00FEF722
:1035D000D9FE0DF508534D49203303F13400FEF7B1
:1035E000D1FE0DF508534A49203303F14C00FEF794
:1035F000C9FE0DF508534749203303F16400FEF777
:10360000C1FE292305F599500DF50751C6F824335D
:103610001C310830FEF7DDFF0DF50A5042491C3021
:10362000FEF7B0FE0DF50A533549203303F11400BF
:10363000FEF7A8FE0DF50A533249203303F12C00A2
:10364000FEF7A0FE0DF50A53203303F14800FEF704
:1036500044FF0DF50A532C49203303F15C00FEF7BB
:1036600091FE0DF50A532949203303F17400FEF74A
:1036700089FE0DF50A532649203303F18C00FEF72D
:1036800081FE0DF50A532349203303F1A400FEF710
:1036900079FE2A2305F59F500DF50A51C6F8E83347
:1036A0001C310C30FEF795FF0DF50D501F491C30F5
:1036B000FEF768FE0DF50E5311492033A3F12C00DF
:1036C000FEF760FE0DF50E530E492033A3F11400F2
:1036D000FEF758FE0DF50E53203303F10800FEF7F8
:1036E000FCFE0DF50E530849203303F11C00FEF7D4
:1036F00049FE0DF50E530549203319E0DD3B010865
:10370000113A0108193A0108A23A0108573B010889
:10371000683B010868390108EC3B0108FB3B0108E4
:103720000A3C0108143C01081E3C0108283C010821
:1037300003F13400FEF726FE0DF50E53E749203362
:1037400003F14C00FEF71EFE0DF50E53E449203345
:1037500003F16400FEF716FE2B2305F5A5500DF5C9
:103760000D51C6F8AC341C311030FEF732FF0DF5A8
:103770001050DC491C30FEF705FE0DF51053DA49F8
:10378000203303F11400FEF7FDFD0DF51053D7496A
:10379000203303F12C00FEF7F5FD0DF51053203317
:1037A00003F14800FEF799FE0DF51053D049203380
:1037B00003F15C00FEF7E6FD0DF51053CD49203313
:1037C00003F17400FEF7DEFD0DF51053C3492033FD
:1037D00003F18C00FEF7D6FD0DF51053C0492033E0
:1037E00003F1A400FEF7CEFD2C2305F5AB500DF53B
:1037F0001051C6F870351C311430FEF7EAFE0DF595
:103800001350BD491C30FEF7BDFD0DF51453B649EC
:103810002033A3F12C00FEF7B5FD0DF51453B34989
:103820002033A3F11400FEF7ADFD0DF51453203342
:1038300003F10800FEF751FE0DF51453AC49203397
:1038400003F11C00FEF79EFD0DF51453A94920332A
:1038500003F13400FEF796FD0DF514539F49203314
:1038600003F14C00FEF78EFD0DF514539C492033F7
:1038700003F16400FEF786FD2D2305F5B1500DF52B
:103880001351C6F834361C311830FEF7A2FE0DF580
:1038900016509A491C30FEF775FD0DF516539249E6
:1038A000203303F11400FEF76DFD0DF516538F491B
:1038B000203303F12C00FEF765FD0DF51653203380
:1038C00003F14800FEF709FE0DF516538849203331
:1038D00003F15C00FEF756FD0DF5165385492033C4
:1038E00003F17400FEF74EFD0DF516537B492033AE
:1038F00003F18C00FEF746FD0DF516537849203391
:1039000003F1A400FEF73EFD2E2305F5B7500DF59B
:103910001651C6F8F8361C311C30FEF75AFE0DF56C
:10392000195077491C30FEF72DFD0DF51A536E49DD
:103930002033A3F12C00FEF725FD0DF51A536B493A
:103940002033A3F11400FEF71DFD0DF51A532033AB
:1039500003F10800FEF7C1FD0DF51A536449203349
:1039600003F11C00FEF70EFD0DF51A5361492033DB
:1039700003F13400FEF706FD0DF51A5357492033C5
:1039800003F14C00FEF7FEFC0DF51A5354492033A9
:1039900003F16400FEF7F6FC2F230DF5195105F530
:1039A000BE50C6F8BC371C31FEF713FE0DF51C5097
:1039B00054491C30FEF7E6FC0DF51C534A492033F0
:1039C00003F11400FEF7DEFC0DF51C5347492033CC
:1039D00003F12C00FEF7D6FC0DF51C53203303F148
:1039E0004800FEF77AFD0DF51C534149203303F1E1
:1039F0005C00FEF7C7FC0DF51C533E49203303F174
:103A00007400FEF7BFFC0DF51C533449203303F15D
:103A10008C00FEF7B7FC0DF51C533149203303F140
:103A2000A400FEF7AFFC30230DF51C51C6F880381A
:103A30000DF57F531C31203303F5C450FEF7C9FD4B
:103A40000DF51F5030491C30FEF79CFC0DF520533E
:103A500025492033A3F12C00FEF794FC0DF52053EB
:103A600022492033A3F11400FEF78CFC0DF52053FE
:103A7000203303F10800FEF730FD0DF520531C49FB
:103A8000203303F11C00FEF77DFC0DF5205319498E
:103A9000203303F13400FEF775FC0DF520530F4978
:103AA000203303F14C00FEF76DFC0DF520530C495B
:103AB000203303F16400FEF765FC312305F5CA509D
:103AC0000DF51F51C6F844391C310830FEF781FD51
:103AD0000DF522500D491C301AE000BF683B01086B
:103AE00068390108323C0108113A0108193A010805
:103AF000A23A0108573B01083C3C01084C3C010834
:103B00005C3C01086C3C01087C3C0108863C0108D7
:103B1000FEF738FC0DF52253E749203303F114007A
:103B2000FEF730FC0DF52253E449203303F12C005D
:103B3000FEF728FC0DF52253203303F14800FEF771
:103B4000CCFC0DF52253DE49203303F15C00FEF777
:103B500019FC0DF52253DB49203303F17400FEF705
:103B600011FC0DF52253D849203303F18C00FEF7E8
:103B700009FC0DF52253D549203303F1A400FEF7CB
:103B800001FC322305F5D0500DF52251C6F8083A54
:103B90001C310C30FEF71DFD0DF52550CC491C30B5
:103BA000FEF7F0FB0DF52653C3492033A3F12C009B
:103BB000FEF7E8FB0DF52653C0492033A3F11400AE
:103BC000FEF7E0FB0DF52653203303F10800FEF766
:103BD00084FC0DF52653BA49203303F11C00FEF78F
:103BE000D1FB0DF52653B749203303F13400FEF71E
:103BF000C9FB0DF52653B449203303F14C00FEF701
:103C0000C1FB0DF52653B149203303F16400FEF7E3
:103C1000B9FB012305F5D6500DF52551C6F8CC3A70
:103C20001C311030FEF7D5FC0DF52850A9491C3089
:103C3000FEF7A8FB0DF528539F49203303F114002C
:103C4000FEF7A0FB0DF528539C49203303F12C000F
:103C5000FEF798FB0DF52853203303F14800FEF7DB
:103C60003CFC0DF528539649203303F15C00FEF728
:103C700089FB0DF528539349203303F17400FEF7B7
:103C800081FB0DF528539049203303F18C00FEF79A
:103C900079FB0DF528538D49203303F1A400FEF77D
:103CA00071FB022305F5DC500DF52851C6F8903B59
:103CB0001C311430FEF78DFC0DF52B5086491C305D
:103CC000FEF760FB0DF52C537B492033A3F12C004C
:103CD000FEF758FB0DF52C5378492033A3F114005F
:103CE000FEF750FB0DF52C53203303F10800FEF7CF
:103CF000F4FB0DF52C537249203303F11C00FEF741
:103D000041FB0DF52C536F49203303F13400FEF7CE
:103D100039FB0DF52C536C49203303F14C00FEF7B1
:103D200031FB0DF52C536949203303F16400FEF794
:103D300029FB032305F5E2500DF52B51C6F8543C41
:103D40001C311830FEF745FC0DF52E5063491C3030
:103D5000FEF718FB0DF52E535749203303F11400DD
:103D6000FEF710FB0DF52E535449203303F12C00C0
:103D7000FEF708FB0DF52E53203303F14800FEF744
:103D8000ACFB0DF52E534E49203303F15C00FEF7DA
:103D9000F9FA0DF52E534B49203303F17400FEF769
:103DA000F1FA0DF52E534849203303F18C00FEF74C
:103DB000E9FA0DF52E534549203303F1A400FEF72F
:103DC000E1FA042305F5E8500DF52E51C6F8183D2B
:103DD0001C311C30FEF7FDFB0DF5315040491C3005
:103DE000FEF7D0FA0DF5325333492033A3F12C00FE
:103DF000FEF7C8FA0DF5325330492033A3F1140011
:103E0000FEF7C0FA0DF53253203303F10800FEF738
:103E100064FB0DF532532A49203303F11C00FEF7F1
:103E2000B1FA0DF532532749203303F13400FEF780
:103E3000A9FA0DF532532449203303F14C00FEF763
:103E4000A1FA0DF532532149203303F16400FEF746
:103E500099FA33230DF5315105F5EF50C6F8DC3DE5
:103E60001C31FEF7B6FB0DF534501E491C30FEF731
:103E700089FA0DF534531049203303F11400FEF78D
:103E800081FA0DF534530D49203303F12C00FEF770
:103E900079FA0DF53453203303F14800FEF71DFB8A
:103EA0000DF534530649203303F15C00FEF76AFA3E
:103EB0000DF5345318E000BF113A0108193A010812
:103EC000A23A0108573B0108683B0108683901081C
:103ED000923C0108A13C0108B03C0108BF3C01082C
:103EE000CE3C0108DB3C0108E749203303F17400B4
:103EF000FEF748FA0DF53453E449203303F18C0002
:103F0000FEF740FA0DF53453E149203303F1A400E4
:103F1000FEF738FA34230DF534510DF5BD40C6F8DF
:103F2000A03E1C31FEF755FB0DF53750D9491C302A
:103F3000FEF728FA0DF53853D7492033A3F12C00AA
:103F4000FEF720FA0DF53853D4492033A3F11400BD
:103F5000FEF718FA0DF53853203303F10800FEF789
:103F6000BCFA0DF53853CE49203303F11C00FEF79F
:103F700009FA0DF53853C449203303F13400FEF734
:103F800001FA0DF53853C149203303F14C00FEF717
:103F9000F9F90DF53853BE49203303F16400FEF7FB
:103FA000F1F9352305F5FB500DF53751C6F8643F9F
:103FB00005F500561C310830FEF70BFB0DF53A50A5
:103FC000B8491C30FEF7DEF90DF53A53B2492033FB
:103FD00003F11400FEF7D6F90DF53A53AF4920333B
:103FE00003F12C00FEF7CEF90DF53A53203303F11F
:103FF0004800FEF772FA0DF53A53A949203303F150
:104000005C00FEF7BFF90DF53A539F49203303F1E9
:104010007400FEF7B7F90DF53A539C49203303F1CC
:104020008C00FEF7AFF90DF53A539949203303F1AF
:10403000A400FEF7A7F9392330460DF53A51B362D3
:104040001C312C30FEF7C5FA0DF53D5096491C3059
:10405000FEF798F90DF53E538F492033A3F12C005C
:10406000FEF790F90DF53E538C492033A3F114006F
:10407000FEF788F90DF53E53203303F10800FEF7F3
:104080002CFA0DF53E538649203303F11C00FEF750
:1040900079F90DF53E537C49203303F13400FEF7E6
:1040A00071F90DF53E537949203303F14C00FEF7C9
:1040B00069F90DF53E537649203303F16400FEF7AC
:1040C00061F93A2305F503500DF53D51C6F8EC3082
:1040D0001C313030FEF77DFA0DF5405073491C302D
:1040E000FEF750F90DF540536B49203303F11400EE
:1040F000FEF748F90DF540536849203303F12C00D1
:10410000FEF740F90DF54053203303F14800FEF768
:10411000E4F90DF540536249203303F15C00FEF7EA
:1041200031F90DF540535849203303F17400FEF77F
:1041300029F90DF540535E49203303F18C00FEF759
:1041400021F90DF540535249203303F1A400FEF745
:1041500019F90C2305F506500DF54051C6F8B0319C
:104160001C313430FEF735FA0DF5435051491C30FF
:10417000FEF708F90DF5445347492033A3F12C000D
:10418000FEF700F90DF5445344492033A3F1140020
:10419000FEF7F8F80DF54453203303F10800FEF75D
:1041A0009CF90DF544533E49203303F11C00FEF702
:1041B000E9F80DF544533449203303F13400FEF798
:1041C000E1F80DF544533A49203303F14C00FEF772
:1041D000D9F80DF544532E49203303F16400FEF75E
:1041E000D1F80D2305F509500DF54351C6F8743289
:1041F0001C313830FEF7EDF90DF546502E491C30D4
:10420000FEF7C0F80DF546532349203303F114009F
:10421000FEF7B8F80DF546532049203303F12C0082
:10422000FEF7B0F80DF54653203303F14800FEF7D2
:1042300054F90DF546531A49203303F15C00FEF79B
:10424000A1F80DF546531049203303F17400FEF731
:1042500099F80DF546531649203303F18C00FEF70B
:1042600091F80DF546530A49203303F1A400FEF7F7
:1042700089F80B2305F50C500DF54651C6F8383377
:104280001C313C301AE000BF573B0108683B010875
:1042900068390108E83C0108113A0108193A010897
:1042A000A23A0108ED3C0108FB3C0108093D010868
:1042B000153D0108193D0108283D0108FEF789F95F
:1042C0000DF54950E7491C30FEF75CF80DF54953F0
:1042D000E549203303F11400FEF754F80DF5495376
:1042E000E249203303F12C00FEF74CF80DF5495359
:1042F000203303F14800FEF7F0F80DF54953DC498F
:10430000203303F15C00FEF73DF80DF54953D94920
:10431000203303F17400FEF735F80DF54953D64903
:10432000203303F18C00FEF72DF80DF54953D349E6
:10433000203303F1A400FEF725F80F230DF54951B2
:1043400005F51050C6F8FC331C31FEF742F90DF5A7
:104350004C50CB491C30FEF715F80DF54C53C249B3
:10436000203303F11400FEF70DF80DF54C53BF494F
:10437000203303F12C00FEF705F80DF54C532033E4
:1043800003F14800FEF7A9F80DF54C53B849203366
:1043900003F15C00FDF7F6FF0DF54C53B5492033F2
:1043A00003F17400FDF7EEFF0DF54C53B2492033D5
:1043B00003F18C00FDF7E6FF0DF54C53AF492033B8
:1043C00003F1A400FDF7DEFF10230DF54C51C6F8F4
:1043D000C0340DF57F531C31203303F51350FEF725
:1043E000F8F80DF54F50A7491C30FDF7CBFF0DF540
:1043F0004F539D49203303F11400FDF7C3FF0DF522
:104400004F539A49203303F12C00FDF7BBFF0DF504
:104410004F53203303F14800FEF75FF80DF54F537B
:104420009349203303F15C00FDF7ACFF0DF54F53CA
:104430009049203303F17400FDF7A4FF0DF54F53AD
:104440008D49203303F18C00FDF79CFF0DF54F5390
:104450008A49203303F1A400FDF794FF112305F5E9
:1044600016500DF54F51C6F884351C310830FEF753
:10447000B0F80DF5525084491C30FDF783FF0DF55F
:1044800052537949203303F11400FDF77BFF0DF5FA
:1044900052537649203303F12C00FDF773FF0DF5DD
:1044A0005253203303F14800FEF717F80DF552532D
:1044B0006F49203303F15C00FDF764FF0DF55253A3
:1044C0006C49203303F17400FDF75CFF0DF5525386
:1044D0006949203303F18C00FDF754FF0DF5525369
:1044E0006649203303F1A400FDF74CFF082305F5CE
:1044F00019500DF55251C6F848361C310C30FEF7F4
:1045000068F80DF5555061491C30FDF73BFF0DF57E
:1045100055535549203303F11400FDF733FF0DF5D2
:1045200055535249203303F12C00FDF72BFF0DF5B5
:104530005553203303F14800FDF7CFFF0DF55553D8
:104540004B49203303F15C00FDF71CFF0DF555537B
:104550004849203303F17400FDF714FF0DF555535E
:104560004549203303F18C00FDF70CFF0DF5555341
:104570004249203303F1A400FDF704FF062305F5AB
:104580001C500DF55551C6F80C371C311030FEF794
:1045900020F80DF558503E491C30FDF7F3FE0DF59F
:1045A00058533149203303F11400FDF7EBFE0DF5AC
:1045B00058532E49203303F12C00FDF7E3FE0DF58F
:1045C0005853203303F14800FDF787FF0DF558538A
:1045D0002749203303F15C00FDF7D4FE0DF5585355
:1045E0002449203303F17400FDF7CCFE0DF5585338
:1045F0002149203303F18C00FDF7C4FE0DF558531B
:104600001E49203303F1A400FDF7BCFE072305F586
:104610001F500DF55851C6F8D0371C311430FDF736
:10462000D8FF0DF55B501B491C30FDF7ABFE0DF5B7
:104630005B530D49203303F11400FDF7A3FE0DF584
:104640005B530A49203303F12C00FDF79BFE0DF567
:104650005B53203303F14800FDF73FFF0DF55B533B
:104660001AE000BF323D0108113A0108193A010869
:10467000A23A0108573B0108153D010868390108B5
:10468000423D0108503D0108593D0108653D0108C2
:10469000743D0108813D0108E749203303F15C00C6
:1046A000FDF770FE0DF55B53E449203303F1740010
:1046B000FDF768FE0DF55B53E149203303F18C00F3
:1046C000FDF760FE0DF55B53DE49203303F1A400D6
:1046D000FDF758FE052305F522500DF55B51C6F890
:1046E00094381C311830FDF774FF0DF55E50D64933
:1046F0001C30FDF747FE0DF55E53D449203303F11E
:104700001400FDF73FFE0DF55E53D149203303F150
:104710002C00FDF737FE0DF55E53203303F1480002
:10472000FDF7DBFE0DF55E53C349203303F15C005A
:10473000FDF728FE0DF55E53C049203303F17400E8
:10474000FDF720FE0DF55E53BD49203303F18C00CB
:10475000FDF718FE0DF55E53BA49203303F1A400AE
:10476000FDF710FE0E2305F525500DF55E51C6F838
:1047700058391C311C30FDF72CFF0DF56150B5493F
:104780001C30FDF7FFFD0DF56153B049203303F1F7
:104790001400FDF7F7FD0DF56153AD49203303F12A
:1047A0002C00FDF7EFFD0DF56153203303F14800B8
:1047B000FDF793FE0DF561539F49203303F15C0033
:1047C000FDF7E0FD0DF561539C49203303F17400C2
:1047D000FDF7D8FD0DF561539F49203303F18C009F
:1047E000FDF7D0FD0DF561539649203303F1A40088
:1047F000FDF7C8FD3B2305F528500DF56151C6F8BE
:104800001C3A1C312030FDF7E4FE0DF5645093494D
:104810001C30FDF7B7FD0DF564538C49203303F1CF
:104820001400FDF7AFFD0DF564538949203303F102
:104830002C00FDF7A7FD0DF56453203303F148006C
:10484000FDF74BFE0DF564537B49203303F15C000B
:10485000FDF798FD0DF564537849203303F174009A
:10486000FDF790FD0DF564537B49203303F18C0077
:10487000FDF788FD0DF564537249203303F1A40060
:10488000FDF780FD3C2305F52B500DF56451C6F86E
:10489000E03A1C312430FDF79CFE0DF5675070495D
:1048A0001C30FDF76FFD0DF567536849203303F1A8
:1048B0001400FDF767FD0DF567536549203303F1DB
:1048C0002C00FDF75FFD0DF56753203303F1480021
:1048D000FDF703FE0DF567535749203303F15C00E4
:1048E000FDF750FD0DF567535449203303F1740073
:1048F000FDF748FD0DF567535749203303F18C0050
:10490000FDF740FD0DF567534E49203303F1A40038
:10491000FDF738FD3D2305F52E500DF56751C6F81E
:10492000A43B1C312830FDF754FE0DF56A504D496B
:104930001C30FDF727FD0DF56A534449203303F180
:104940001400FDF71FFD0DF56A534149203303F1B3
:104950002C00FDF717FD0DF56A53203303F14800D5
:10496000FDF7BBFD0DF56A533349203303F15C00BD
:10497000FDF708FD0DF56A533049203303F174004B
:10498000FDF700FD0DF56A533349203303F18C0028
:10499000FDF7F8FC0DF56A532A49203303F1A40012
:1049A000FDF7F0FC3E2305F531500DF56A51C6F8D0
:1049B000683C1C312C30FDF70CFE0DF56D502A497A
:1049C0001C30FDF7DFFC0DF56D532049203303F15A
:1049D0001400FDF7D7FC0DF56D531D49203303F18D
:1049E0002C00FDF7CFFC0DF56D53203303F148008B
:1049F000FDF773FD0DF56D530F49203303F15C0096
:104A0000FDF7C0FC0DF56D530C49203303F1740024
:104A1000FDF7B8FC0DF56D530F49203303F18C0001
:104A2000FDF7B0FC0DF56D530649203303F1A400EA
:104A3000FDF7A8FC1AE000BFA23A0108573B0108A5
:104A4000153D0108683901088C3D0108113A01083B
:104A5000193A0108993D0108683B0108A03D010889
:104A6000A93D0108B03D0108B73D01083F2305F508
:104A700034500DF56D51C6F82C3D1C313030FDF72A
:104A8000A8FD0DF57050E9491C30FDF77BFC0DF5D4
:104A90007053E749203303F11400FDF773FC0DF563
:104AA0007053E449203303F12C00FDF76BFC0DF546
:104AB0007053203303F14800FDF70FFD0DF57053DF
:104AC000DD49203303F15C00FDF75CFC0DF570530C
:104AD000DA49203303F17400FDF754FC0DF57053EF
:104AE000D749203303F18C00FDF74CFC0DF57053D2
:104AF000D449203303F1A400FDF744FC402305F51D
:104B000037500DF57051C6F8F03D1C313430FDF7CB
:104B100060FD0DF57350CC491C30FDF733FC0DF5ED
:104B20007353C349203303F11400FDF72BFC0DF53B
:104B30007353C049203303F12C00FDF723FC0DF51E
:104B40007353203303F14800FDF7C7FC0DF5735391
:104B5000B949203303F15C00FDF714FC0DF57353E4
:104B6000B649203303F17400FDF70CFC0DF57353C7
:104B7000B349203303F18C00FDF704FC0DF57353AA
:104B8000B049203303F1A400FDF7FCFB05F53A50D2
:104B90000DF57351C6F8B47E38301C31FDF719FDA0
:104BA0000DF57650A9491C30FDF7ECFB0DF5765359
:104BB0009F49203303F11400FDF7E4FB0DF5765314
:104BC0009C49203303F12C00FDF7DCFB0DF57653F7
:104BD000203303F14800FDF780FC0DF5765396492C
:104BE000203303F15C00FDF7CDFB0DF576539349BF
:104BF000203303F17400FDF7C5FB0DF5765394499E
:104C0000203303F18C00FDF7BDFB0DF576538D4984
:104C1000203303F1A400FDF7B5FB132305F53D5048
:104C20000DF57651C6F8783F05F540551C313C30FE
:104C3000FDF7CFFC0DF5795086490DF56D661C30FA
:104C4000FDF7A0FB0DF579537949203303F11400EA
:104C5000FDF798FB0DF579537649203303F12C00CD
:104C6000FDF790FB0DF57953203303F14800FDF774
:104C700034FC0DF579537049203303F15C00FDF7E6
:104C800081FB0DF579536D49203303F17400FDF775
:104C900079FB0DF579536A49203303F18C00FDF758
:104CA00071FB0DF579536749203303F1A400FDF73B
:104CB00069FB42230DF5795104F54150EB631C313A
:104CC000FDF787FC0DF57C5063491C30FDF75AFB5E
:104CD0000DF57C535649203303F11400FDF752FBC8
:104CE0000DF57C535349203303F12C00FDF74AFBAB
:104CF0000DF57C53203303F14800FDF7EEFB0DF575
:104D00007C534D49203303F15C00FDF73BFB0DF56F
:104D10007C534A49203303F17400FDF733FB0DF552
:104D20007C534749203303F18C00FDF72BFB0DF535
:104D30007C534449203303F1A400FDF723FB4723B0
:104D40000DF57C51C5F800310DF57F531C31203332
:104D500003F54450FDF73DFC17AA0DF68463009659
:104D60003E48CDE9174706CAFDF777FC0DF57F539E
:104D70000DF57F5720331C3703F54754C43C201DE5
:104D8000FCF72BF9BC42F9D10DF57C500DF58D5592
:104D9000DFF8CCA04FF07E541C300DF55A69FCF7BB
:104DA0001CF90DF579500DF546581C30FCF715F936
:104DB0000DF5765008F120081C30FCF70EF90DF5C2
:104DC00073501C30FCF709F90DF570501C30FCF7DE
:104DD00004F90DF56D501C30FCF7FFF80DF56A5025
:104DE0001C30FCF7FAF80DF567501C30FCF7F5F8AD
:104DF0000DF564501C30FCF7F0F80DF561501C30D7
:104E0000FCF7EBF80DF55E501C30FCF7E6F80DF5FD
:104E10005B501C30FCF7E1F80DF558501C30FCF7E6
:104E2000DCF80DF555501C301CE000BFC63D0108F4
:104E3000113A0108193A0108A23A0108573B010842
:104E4000683B010868390108D53D0108E43D0108C7
:104E5000153D0108ED3D0108FD3D0108D406002483
:104E6000CDCCCC3DFCF7B9F80DF552501C30FCF719
:104E7000B4F80DF54F501C30FCF7AFF80DF54C5061
:104E80001C30FCF7AAF80DF549501C30FCF7A5F8CA
:104E90000DF546501C30FCF7A0F80DF543501C30C2
:104EA000FCF79BF80DF540501C30FCF796F80DF51B
:104EB0003D501C30FCF791F80DF53A501C30FCF7D2
:104EC0008CF80DF537501C30FCF787F80DF5345091
:104ED0001C30FCF782F80DF531501C30FCF77DF8E2
:104EE0000DF52E501C30FCF778F80DF52B501C30CA
:104EF000FCF773F80DF528501C30FCF76EF80DF533
:104F000025501C30FCF769F80DF522501C30FCF7D9
:104F100064F80DF51F501C30FCF75FF80DF51C50C0
:104F20001C30FCF75AF80DF519501C30FCF755F8F9
:104F30000DF516501C30FCF750F80DF513501C30D1
:104F4000FCF74BF80DF510501C30FCF746F80DF54A
:104F50000D501C30FCF741F80DF50A501C30FCF7E1
:104F60003CF80DF507501C30FCF737F80DF50450F0
:104F70001C30FCF732F80DF501501C30FCF72DF811
:104F80000DF5FC501C30FCF728F80DF5F6501C30E0
:104F9000FCF723F80DF5F0501C30FCF71EF80DF56A
:104FA000EA501C30FCF719F80DF5E4501C30FCF702
:104FB00014F80DF5DE501C30FCF70FF80DF5D85045
:104FC0001C30FCF70AF80DF5D2501C30FCF705F840
:104FD0000DF5CC501C30FCF700F80DF5C6501C3018
:104FE000FBF7FBFF0DF5C0501C30FBF7F6FF0DF58E
:104FF000BA501C30FBF7F1FF0DF5B4501C30FBF735
:10500000ECFF0DF5AE501C30FBF7E7FF0DF5A85097
:105010001C30FBF7E2FF0DF5A2501C30FBF7DDFF63
:105020000DF59C501C30FBF7D8FF0DF596501C3049
:10503000FBF7D3FF0DF590501C30FBF7CEFF0DF5BD
:105040008A501C30FBF7C9FF0DF584501C30FBF76C
:10505000C4FF0DF6DC70FBF7C0FF0DF61C70FBF70C
:10506000BCFFD2491BA8FDF78DF9D1490DF694007C
:10507000FDF788F9CF490DF6AC00FDF783F9A5F6E9
:105080000C13CD490DF6C800C3F830A0FDF77AF92E
:105090000DF694021BA93846FDF73CFBC74921A831
:1050A000FDF770F9C6490DF50E60FDF76BF9C149C2
:1050B0000DF6F800FDF766F9A5F50C63BE490DF68F
:1050C0001410C3F830A0FDF75DF90DF57F530DF511
:1050D0000E6221A9203303F16000FDF71BFBB949E3
:1050E00027A8FDF74FF9B8490DF62C10FDF74AF93E
:1050F000B0490DF64410FDF745F9A5F67403AE4925
:105100000DF51660C3F830A0FDF73CF90DF57F539F
:105110000DF62C1227A9203303F1C400FDF7FAFA8B
:10512000AA492DA8FDF72EF9A9490DF67810FDF72B
:1051300029F9A8490DF51960FDF724F9A5F628030A
:10514000A5490DF6AC101C63FDF71CF90DF57F5356
:105150000DF678122DA9203303F59470FDF7DAFAD5
:105160009E4933A8FDF70EF99D490DF6C410FDF7D1
:1051700009F998490DF6DC10FDF704F9A5F2DC7386
:1051800098490DF6F8101C63FDF7FCF80DF57F53F8
:105190000DF6C41233A9203303F5C670FDF7BAFA31
:1051A000914939A8FDF7EEF890490DF52160FDF71A
:1051B000E9F888490DF62820FDF7E4F8A5F5F26333
:1051C00088490DF644201C63FDF7DCF80DF57F538C
:1051D0000DF5216239A9203303F5F870FDF79AFA2D
:1051E00083493FA8FDF7CEF882490DF65C20FDF714
:1051F000C9F870490DF67420FDF7C4F8A5F24473A0
:1052000078490DF52960C3F830A0FDF7BBF80DF51E
:105210007F530DF65C223FA9203303F51570FDF78F
:1052200079FA45AB744918460393FDF7ABF8734917
:105230000DF6A820FDF7A6F866490DF52C60FDF7E0
:10524000A1F8A5F5DF6367490DF6DC201C63FDF7C7
:1052500099F80DF57F530DF6A8220399203303F535
:105260002E70FDF757FA66494BA8FDF78BF8654994
:105270000DF6F420FDF786F84E490DF60C30FDF7DB
:1052800081F8A5F2AC6357490DF62830C3F830A079
:10529000FDF778F80DF57F530DF6F4224BA9203376
:1052A00003F54770FDF736FA574951A8FDF76AF83C
:1052B00056490DF53460FDF765F83E490DF6583056
:1052C000FDF760F8A5F5CC6346490DF67430C3F8D8
:1052D00030A0FDF757F80DF57F530DF5346251A955
:1052E000203303F56070FDF715FA494957A8FDF71B
:1052F00049F848490DF68C30FDF744F846490DF65B
:10530000A430FDF73FF8A5F2146343490DF53C6066
:105310001C63FDF737F80DF57F530DF68C3257A956
:10532000203303F57970FDF7F5F93C495DA8FDF7E9
:1053300029F83B490DF6D830FDF724F825490DF53D
:105340003F60FDF71FF8A5F5B96336490DF60C402F
:105350001C63FDF717F80DF57F530DF6D8325DA9E4
:10536000203303F58960FDF7D5F92F4963A8FDF7D0
:1053700009F82E490DF62440FDF704F815490DF6FD
:105380003C40FCF7FFFFA5F27C5329490DF658403D
:105390001C63FCF7F7FF0DF57F530DF6244263A95C
:1053A000203303F2AC40FDF7B5F943E0053E0108B8
:1053B0000A3E0108123E0108183E01082A3E010873
:1053C0002F3E01083C3E0108413E0108513E0108C4
:1053D000563E0108613E0108653E0108693E01082C
:1053E0006E3E0108793E0108843E0108893E0108AD
:1053F000963E01089B3E0108A33E0108A83E010815
:10540000B23E0108B73E0108C33E0108C83E01088C
:10541000D33E0108D83E01086B4A0108DE3E010870
:10542000E33E0108003F0108ED3E0108F23E01089D
:10543000FE3E0108D24969A8FCF7A4FFD1490DF549
:105440004760FCF79FFFD0490DF68840FCF79AFFB4
:10545000A5F5A663CD490DF6A440C3F830A0FCF72E
:1054600091FF0DF57F530DF5476269A9203303F5D0
:10547000A260FDF74FF9C6496FA8FCF783FFC54945
:105480000DF6BC40FCF77EFFC3490DF6D440FCF797
:1054900079FFA5F2E443C1490DF54F601C63FCF7A9
:1054A00071FF0DF57F530DF6BC426FA9203303F257
:1054B0007450FDF72FF9BA4975A8FCF763FFB94995
:1054C0000DF60850FCF75EFFB7490DF55260FCF78A
:1054D00059FFA5F59363B1490DF63C501C63FCF7E9
:1054E00051FF0DF57F530DF6085275A9203303F5D2
:1054F000BB60FDF70FF9AD497BA8FCF743FFAC4952
:105500000DF65450FCF73EFFA3490DF66C50FCF726
:1055100039FFA5F24C43A7490DF688501C63FCF7F0
:1055200031FF0DF57F530DF654527BA9203303F262
:105530003C60FDF7EFF8A04981A8FCF723FF48463F
:105540009E49FCF71FFF94490DF6B850FCF71AFF6F
:10555000C9F830409A490DF6D450FCF713FF4A467B
:1055600081A90DF58D40FDF7D5F887AB95490DF56F
:10557000065918460393FCF705FF93490DF6EC50C6
:1055800009F12009FCF7FEFE83490DF60460FCF7E3
:10559000F9FEA5F56D737D490DF562601C63FCF79E
:1055A000F1FE0DF57F530DF6EC520399203303F213
:1055B0000470FDF7AFF885498DA8FCF7E3FE844938
:1055C0000DF63860FCF7DEFE73490DF56560FCF7FB
:1055D000D9FEA5F55A737F490DF66C601C63FCF784
:1055E000D1FE0DF57F530DF638628DA9203303F5FA
:1055F000ED60FDF78FF8784993A8FCF7C3FE774973
:105600000DF68460FCF7BEFE63490DF69C60FCF766
:10561000B9FEA5F547736A490DF6B8601C63FCF73F
:10562000B1FE0DF57F530DF6846293A9203303F28A
:10563000CC70FDF76FF86A4999A8FCF7A3FE694999
:105640000DF56D60FCF79EFE53490DF6E860FCF722
:1056500099FEA5F534735A490DF604701C63FCF7E6
:1056600091FE0DF57F530DF56D6299A9203303F579
:105670000360FDF74FF85C499FA8FCF783FE5B4988
:105680000DF61C70FCF77EFE43490DF63470FCF7F6
:1056900079FEA5F521734A490DF575601C63FCF789
:1056A00071FE0DF57F530DF61C729FA9203303F692
:1056B0009400FDF72FF8A5AB4D4918460393FCF76E
:1056C00061FE4C490DF6DC70FCF75CFE4A490DF6B4
:1056D000F470FCF757FEA5F5E27347491C630DF51E
:1056E0008153A3F11000FCF74DFE0DF57F530DF62D
:1056F000DC720399203303F6F800FDF70BF83F49FD
:10570000ABA8FCF73FFE0DF584503D491C30FCF77B
:1057100039FE0DF58553384903F11400FCF732FECC
:105720000DF5855345F8D44C03F130003249FCF7B0
:1057300029FE0DF57F530DF58452ABA920331C32A1
:1057400003F65C10FCF7E6FF2E49B1A8FCF71AFE41
:105750000DF58A502C491C30FCF714FEA5F12C00E5
:105760000949FCF70FFEA5F11000124945F814ACE9
:10577000FCF708FE0DF58A520DF5934046E000BF98
:105780000F3F0108143F0108123E0108653E010861
:105790001B3F0108203F0108613E0108B14201089A
:1057A000273F01082C3F0108393F01083E3F01080F
:1057B000433F01084C3F0108543F0108593F01088D
:1057C000663F0108743F0108073A0108793F010864
:1057D0007E3F0108793E0108863F01088B3F0108A2
:1057E000983F01089D3F0108A63F0108AB3F010813
:1057F000B83F0108BD3F01086B4A0108C43F0108DA
:10580000C93F0108D23F0108D73F0108B1A91C32A6
:105810002030FCF77FFFD849B7A8FCF7B3FD0DF5A2
:105820009050D6491C30FCF7ADFD0DF59153D4498D
:1058300003F11400FCF7A6FDA9F68473D1491C639B
:105840000DF5915303F13000FCF79CFD0DF57F53EE
:105850000DF59052B7A920331C3203F62420FCF733
:1058600059FFC949BDA8FCF78DFD0DF59650C749F4
:105870001C30FCF787FD0DF59953C549A3F12C00A9
:10588000FCF780FDA9F6C463BE491C630DF599536E
:10589000A3F11000FCF776FD0DF57F530DF5965240
:1058A000BDA920331C3203F68820FCF733FFC3ABBD
:1058B000B84918460393FCF765FD0DF59C50B649B1
:1058C0001C30FCF75FFD0DF59D53B44903F1140046
:1058D000FCF758FDA9F60463B149C3F830A00DF5F3
:1058E0009D5303F13000FCF74DFD0DF57F530DF591
:1058F0009C52039920331C3203F6EC20FCF70AFF7C
:10590000A849C9A8FCF73EFD0DF5A250A6491C30D8
:10591000FCF738FD0DF5A553A049A3F12C00FCF7C9
:1059200031FDA9F644539E49C3F830A00DF5A553A7
:10593000A3F11000FCF726FD0DF57F530DF5A252E3
:10594000C9A920331C3203F53560FCF7E3FE974903
:10595000CFA8FCF717FD0DF5A85095491C30FCF7B2
:1059600011FD0DF5A9538D4903F11400FCF70AFD53
:10597000A9F684438A49C3F830A00DF5A95303F171
:105980003000FCF7FFFC0DF57F530DF5A852CFA9B1
:1059900020331C3203F6B430FCF7BCFE8549D5A891
:1059A000FCF7F0FC0DF5AE5083491C30FCF7EAFC27
:1059B0000DF5B1537249A3F12C00FCF7E3FCA9F6F5
:1059C000C4337E491C630DF5B153A3F11000FCF7FD
:1059D000D9FC0DF57F530DF5AE52D5A920331C32FD
:1059E00003F61840FCF796FE7549DBA8FCF7CAFCE5
:1059F0000DF5B45073491C30FCF7C4FC0DF5B553DC
:105A0000664903F11400FCF7BDFCA9F604336449B0
:105A1000C3F830A00DF5B55303F13000FCF7B2FC2C
:105A20000DF57F530DF5B452DBA920331C3203F67C
:105A30007C40FCF76FFE6449E1A8FCF7A3FC0DF580
:105A4000BA5062491C30FCF79DFC0DF5BD5350491E
:105A5000A3F12C00FCF796FCA9F6442357491C63DC
:105A60000DF5BD53A3F11000FCF78CFC0DF57F5331
:105A70000DF5BA52E1A920331C3203F54E60FCF754
:105A800049FEE7AB524918460393FCF77BFC0DF542
:105A9000C05050491C30FCF775FC0DF5C1533F490F
:105AA00003F11400FCF76EFCA9F684134A49C3F80D
:105AB00030A00DF5C15303F13000FCF763FC0DF588
:105AC0007F530DF5C052039920331C3203F6445026
:105AD000FCF720FE4149EDA8FCF754FC0DF5C6503B
