:020000040800F2
:1040000000000420457F00087D7B00087F7B0008BE
:10401000817B0008837B0008857B0008000000008E
:10402000000000000000000000000000877B000886
:10403000897B0008000000008B7B00088D7B000856
:10404000957F0008957F0008957F0008917B000808
:10405000957F00089D7B00089F7B0008A57B0008DA
:10406000AB7B0008957F0008957F0008957F0008CE
:10407000957F0008957F0008B17B0008957F0008B8
:10408000957F0008957F0008957F0008957F0008C0
:10409000957F0008957F0008957F0008BD7B00088C
:1040A000957F0008957F0008957F0008957F0008A0
:1040B000957F0008957F0008957F0008957F000890
:1040C000957F0008957F0008957F0008957F000880
:1040D000957F0008D17B0008957F0008DD7B0008F4
:1040E000957F0008957F0008957F0008957F000860
:1040F000957F0008957F0008957F0008957F000850
:1041000000000000957F0008957F0008957F00085B
:104110000000000000000000957F0008957F000867
:10412000957F0008957F0008957F0008957F00081F
:10413000957F0008957F0008957F0008957F00080F
:10414000957F0008957F0008957F0008957F0008FF
:10415000957F0008957F0008957F0008957F0008EF
:10416000957F0008957F0008000000000000000017
:10417000000000000000000000000000000000003F
:10418000957F0008957F00080000000000000000F7
:10419000957F0008957F00080000000000000000E7
:1041A000000000000000000000000000000000000F
:1041B000957F00080000000000000000957F0008C7
:0441C000957F0008DF
:1041D00010B5054C237833B9044B13B10448AFF341
:1041E00000800123237010BD180300200000000090
:1041F00044F6000808B5034B1BB103490348AFF36D
:10420000008008BD000000001C03002044F60008E8
:1042100010F8012B11F8013B012A28BF9A42F7D070
:10422000D01A7047000000000000000000000000ED
:1042300001F0FF01102A2BDB10F0070F08D010F857
:10424000013B013A8B422DD010F0070F42B3F6D15B
:10425000F0B441EA012141EA014122F007047FF074
:1042600000070023F0E80256083C85EA010586EACB
:10427000010685FA47F5A3FA87F586FA47F6A5FA07
:1042800087F68EB9EED1F0BC01F0FF0102F0070213
:1042900032B110F8013B013A83EA010313B1F8D1BE
:1042A0000020704701387047002D06BF354603389F
:1042B000073815F0010F07D1013015F4807F02BFD8
:1042C000013015F4C03F0130F0BC0138704700BF29
:1042D000034613F8012B002AFBD1181A0138704746
:1042E00081F0004102E000BF83F0004330B54FEAA7
:1042F00041044FEA430594EA050F08BF90EA020F14
:104300001FBF54EA000C55EA020C7FEA645C7FEAA6
:10431000655C00F0E2804FEA5454D4EB5555B8BFC9
:104320006D420CDD2C4480EA020281EA030382EA3A
:10433000000083EA010180EA020281EA0303362DCC
:1043400088BF30BD11F0004F4FEA01314FF4801C9F
:104350004CEA113102D0404261EB410113F0004FB1
:104360004FEA03334CEA133302D0524263EB430368
:1043700094EA050F00F0A780A4F10104D5F1200E06
:104380000DDB02FA0EFC22FA05F2801841F1000161
:1043900003FA0EF2801843FA05F359410EE0A5F135
:1043A00020050EF1200E012A03FA0EFC28BF4CF066
:1043B000020C43FA05F3C01851EBE37101F000451C
:1043C00007D54FF0000EDCF1000C7EEB00006EEB29
:1043D0000101B1F5801F1BD3B1F5001F0CD34908B3
:1043E0005FEA30004FEA3C0C04F101044FEA44520A
:1043F00012F5800F80F09A80BCF1004F08BF5FEA91
:10440000500C50F1000041EB045141EA050130BD70
:104410005FEA4C0C404141EB0101013C28BFB1F582
:10442000801FE9D291F0000F04BF01460020B1FACD
:1044300081F308BF2033A3F10B03B3F120020CDAA0
:104440000C3208DD02F1140CC2F10C0201FA0CF07E
:1044500021FA02F10CE002F11402D8BFC2F1200CE3
:1044600001FA02F120FA0CFCDCBF41EA0C01904099
:10447000E41AA2BF01EB0451294330BD6FEA0404E2
:104480001F3C1CDA0C340EDC04F11404C4F12002CD
:1044900020FA04F001FA02F340EA030021FA04F3DF
:1044A00045EA030130BDC4F10C04C4F1200220FA36
:1044B00002F001FA04F340EA0300294630BD21FA74
:1044C00004F0294630BD94F0000F83F4801306BF3A
:1044D00081F480110134013D4EE77FEA645C18BF2E
:1044E0007FEA655C29D094EA050F08BF90EA020FC5
:1044F00005D054EA000C04BF1946104630BD91EABD
:10450000030F1EBF0021002030BD5FEA545C05D1BF
:104510004000494128BF41F0004130BD14F58004FE
:104520003CBF01F5801130BD01F0004545F0FE4172
:1045300041F470014FF0000030BD7FEA645C1ABFA7
:10454000194610467FEA655C1CBF0B46024650EADE
:10455000013406BF52EA033591EA030F41F400210A
:1045600030BD00BF90F0000F04BF0021704730B590
:104570004FF4806404F132044FF000054FF0000165
:1045800050E700BF90F0000F04BF0021704730B526
:104590004FF4806404F1320410F0004548BF4042FB
:1045A0004FF000013EE700BF42004FEAE2014FEA50
:1045B00031014FEA02701FBF12F07F4393F07F4F2B
:1045C00081F06051704732F07F4208BF704793F02E
:1045D0007F4F04BF41F40021704730B54FF4607441
:1045E00001F0004521F000411CE700BF50EA010244
:1045F00008BF704730B54FF000050AE050EA0102ED
:1046000008BF704730B511F0004502D5404261EB5C
:1046100041014FF4806404F132045FEA915C3FF49D
:10462000D8AE4FF003025FEADC0C18BF03325FEA3A
:10463000DC0C18BF033202EBDC02C2F1200300FAEB
:1046400003FC20FA02F001FA03FE40EA0E0021FA10
:1046500002F11444BDE600BF70B54FF0FF0C4CF4FE
:10466000E06C1CEA11541DBF1CEA135594EA0C0FB0
:1046700095EA0C0F00F0DEF82C4481EA030621EAEB
:104680004C5123EA4C5350EA013518BF52EA033526
:1046900041F4801143F4801338D0A0FB02CE4FF0D8
:1046A0000005E1FB02E506F00042E0FB03E54FF008
:1046B0000006E1FB03569CF0000F18BF4EF0010E00
:1046C000A4F1FF04B6F5007F64F5407404D25FEAFC
:1046D0004E0E6D4146EB060642EAC62141EA5551AF
:1046E0004FEAC52040EA5E504FEACE2EB4F1FD0CF1
:1046F00088BFBCF5E06F1ED8BEF1004F08BF5FEA6F
:10470000500E50F1000041EB045170BD06F0004620
:1047100046EA010140EA020081EA0301B4EB5C04CD
:10472000C2BFD4EB0C0541EA045170BD41F48011C5
:104730004FF0000E013C00F3AB8014F1360FDEBFEA
:10474000002001F0004170BDC4F10004203C35DAC6
:104750000C341BDC04F11404C4F1200500FA05F349
:1047600020FA04F001FA05F240EA020001F00042EA
:1047700021F0004110EBD37021FA04F642EB060160
:104780005EEA430E08BF20EAD37070BDC4F10C048A
:10479000C4F1200500FA04F320FA05F001FA04F24E
:1047A00040EA020001F0004110EBD37041F100013A
:1047B0005EEA430E08BF20EAD37070BDC4F1200545
:1047C00000FA05F24EEA020E20FA04F301FA05F2AD
:1047D00043EA020321FA04F001F0004121FA04F255
:1047E00020EA020000EBD3705EEA430E08BF20EA25
:1047F000D37070BD94F0000F0FD101F0004640005F
:1048000041EB010111F4801F08BF013CF7D041EAE0
:10481000060195F0000F18BF704703F000465200E4
:1048200043EB030313F4801F08BF013DF7D043EAB5
:104830000603704794EA0C0F0CEA135518BF95EA6B
:104840000C0F0CD050EA410618BF52EA4306D1D1F2
:1048500081EA030101F000414FF0000070BD50EA11
:10486000410606BF1046194652EA430619D094EA9B
:104870000C0F02D150EA013613D195EA0C0F05D185
:1048800052EA03361CBF104619460AD181EA0301D9
:1048900001F0004141F0FE4141F470014FF0000091
:1048A00070BD41F0FE4141F4780170BD70B54FF02C
:1048B000FF0C4CF4E06C1CEA11541DBF1CEA1355AC
:1048C00094EA0C0F95EA0C0F00F0A7F8A4EB05048E
:1048D00081EA030E52EA03354FEA013100F0888085
:1048E0004FEA03334FF0805545EA131343EA12634E
:1048F0004FEA022245EA111545EA10654FEA002603
:104900000EF000419D4208BF964244F1FD0404F5BB
:10491000407402D25B084FEA3202B61A65EB030517
:104920005B084FEA32024FF480104FF4002CB6EBD4
:10493000020E75EB030E22BFB61A754640EA0C0054
:104940005B084FEA3202B6EB020E75EB030E22BF94
:10495000B61A754640EA5C005B084FEA3202B6EBD5
:10496000020E75EB030E22BFB61A754640EA9C0094
:104970005B084FEA3202B6EB020E75EB030E22BF64
:10498000B61A754640EADC0055EA060E18D04FEA22
:10499000051545EA16754FEA06164FEAC30343EAC2
:1049A00052734FEAC2025FEA1C1CC0D111F4801F8F
:1049B0000BD141EA00014FF000004FF0004CB6E788
:1049C00011F4801F04BF01430020B4F1FD0C88BF27
:1049D000BCF5E06F3FF6AFAEB5EB030C04BFB6EB32
:1049E000020C5FEA500C50F1000041EB045170BD25
:1049F0000EF0004E4EEA113114EB5C04C2BFD4EB52
:104A00000C0541EA045170BD41F480114FF0000ED5
:104A1000013C90E645EA060E8DE60CEA135594EA51
:104A20000C0F08BF95EA0C0F3FF43BAF94EA0C0F54
:104A30000AD150EA01347FF434AF95EA0C0F7FF4C9
:104A400025AF104619462CE795EA0C0F06D152EA1D
:104A500003353FF4FDAE1046194622E750EA410601
:104A600018BF52EA43067FF4C5AE50EA41047FF412
:104A70000DAF52EA43057FF4EBAE12E74FF0FF3C77
:104A800006E000BF4FF0010C02E000BF4FF0010C48
:104A90004DF804CD4FEA410C7FEA6C5C4FEA430CC1
:104AA00018BF7FEA6C5C1BD001B050EA410C0CBF10
:104AB00052EA430C91EA030F02BF90EA020F002072
:104AC000704710F1000F91EA030F58BF994208BFD9
:104AD00090422CBFD8176FEAE37040F00100704796
:104AE0004FEA410C7FEA6C5C02D150EA013C07D1ED
:104AF0004FEA430C7FEA6C5CD6D152EA033CD3D038
:104B00005DF8040B704700BF8446104662468C4631
:104B10001946634600E000BF01B5FFF7B7FF002864
:104B200048BF10F1000F01BD4DF808EDFFF7F4FF8D
:104B30000CBF012000205DF808FB00BF4DF808ED18
:104B4000FFF7EAFF34BF012000205DF808FB00BF3B
:104B50004DF808EDFFF7E0FF94BF012000205DF85D
:104B600008FB00BF4DF808EDFFF7CEFF94BF012012
:104B700000205DF808FB00BF4DF808EDFFF7C4FF0B
:104B800034BF012000205DF808FB00BF4FEA410C54
:104B90007FEA6C5C02D150EA013C0AD14FEA430C37
:104BA0007FEA6C5C02D152EA033C02D14FF0000074
:104BB00070474FF0010070474FEA410212F50012B2
:104BC00015D211D56FF47873B3EB625212D94FEA54
:104BD000C12343F0004343EA505311F0004F23FA3E
:104BE00002F018BF404270474FF00000704750EA93
:104BF000013005D111F0004008BF6FF00040704750
:104C00004FF00000704700BF4A0011D212F50012A9
:104C100011D20DD56FF47873B3EB62520ED44FEA14
:104C2000C12343F0004343EA505323FA02F0704794
:104C30004FF00000704750EA013002D14FF0FF30D2
:104C400070474FF0000070474FEA4102B2F1E04375
:104C500024BFB3F5001CDCF1FE5C0DD901F0004C63
:104C60004FEAC0024CEA5070B2F1004F40EB8300B3
:104C700008BF20F00100704711F0804F21D113F1DF
:104C80003872BCBF01F00040704741F480114FEA18
:104C90005252C2F11802C2F1200C10FA0CF320FAA1
:104CA00002F018BF40F001004FEAC1234FEAD323BE
:104CB00003FA0CFC40EA0C0023FA02F34FEA430328
:104CC000CCE77FEA625307D150EA01331EBF4FF0B1
:104CD000FE4040F44000704701F0004040F0FE40CC
:104CE00040F40000704700BF53B94AB9002908BF1B
:104CF00000281CBF4FF0FF314FF0FF3000F0BEB96D
:104D0000ADF1080C6DE904CE00F03CF8DDF804E0EC
:104D1000DDE9022304B0704738B5002200230446C1
:104D20000D46FFF70BFF28B920462946BDE838405D
:104D300000F00AB8204605F1004100F005F84042B5
:104D400061EB410138BD00BFD0B50C4B00220646D7
:104D50000F46FFF781FCFFF757FF0446FFF702FC01
:104D6000074B0022FFF778FC02460B4630463946D7
:104D7000FFF7BAFAFFF748FF2146D0BD0000F03D2B
:104D80000000F0412DE9F047089D8E460446884614
:104D9000002B4AD18A42174662D9B2FA82F64EB146
:104DA000C6F1200301FA06F820FA03F3B74043EAFC
:104DB0000808B4404FEA174E1FFA87FCB8FBFEF113
:104DC000230C0EFB118843EA084301FB0CF29A42C4
:104DD00009D9FB1801F1FF3080F0EA809A4240F2D5
:104DE000E78002393B449A1AA3B2B2FBFEF00EFBF5
:104DF000102243EA024300FB0CFC9C4509D9FB1836
:104E000000F1FF3280F0D6809C4540F2D3803B44D5
:104E1000023840EA0140A3EB0C0300211DB1F3402E
:104E20000022C5E90032BDE8F0878B4205D90DB1FB
:104E3000C5E9000100210846F5E7B3FA83F100292E
:104E400046D1734502D3824200F20581841A6EEB8B
:104E5000030201209046002DE5D0C5E90048E2E7B5
:104E6000002A00F09080B2FA82F6002E40F0A48072
:104E70008A1A030C4FEA174E80B2BCB20121B2FB72
:104E8000FEFC0EFB1C2243EA024304FB0CF29A4296
:104E900007D9FB180CF1FF3802D29A4200F2E080E9
:104EA000C4469B1AB3FBFEF20EFB123340EA0343E7
:104EB00002FB04F49C4207D9FB1802F1FF3002D236
:104EC0009C4200F2CA8002461B1B42EA0C40A5E746
:104ED000C1F120068B4022FA06F71F430EFA01F4B7
:104EE00020FA06F32EFA06FE4FEA1749234300FA8A
:104EF00001F81FFA87FCBEFBF9F01C0C09FB10EE51
:104F000044EA0E4400FB0CFEA64502FA01F209D960
:104F10003C1900F1FF3A80F09C80A64540F2998050
:104F200002383C44A4EB0E041FFA83FEB4FBF9F3F1
:104F300009FB13444EEA044403FB0CFCA44508D9C6
:104F40003C1903F1FF3E80F08280A4457FD9023BEB
:104F50003C4443EA0040A4EB0C04A0FB02EC644593
:104F60007346E14662D35FD05DB1B8EB030264EBF8
:104F7000090404FA06F622FA01F31E43CC40C5E9FF
:104F8000006400214FE7B1FBF2FC010C41EA0E4145
:104F900080B240EA01423B4638463C46B846BE46EF
:104FA0002026B1FBF7F1A2EB080241EA0C4166E7CB
:104FB000014618E710462CE7C6F120022EFA02F34C
:104FC000B740B14020FA02F24FEA174E0A43B3FB52
:104FD000FEF8BCB20EFB1833110C41EA034108FB8A
:104FE00004F9B04089454FEA104380B23ED97918A0
:104FF00008F1FF3C01D289451FD8A1EB0901B1FBA3
:10500000FEF909FB04F80EFB191192B242EA0142C3
:10501000424529D2BA1809F1FF31C4D24245C2D261
:10502000A9F102013A44BEE7F0459DD2BEEB02036E
:105030006CEB070C0138E14696E7A7EB09094944F8
:10504000A8F1020CB1FBFEF909FB04F8DBE773469B
:105050007FE7504666E70846FDE63B44023A33E701
:10506000ACF1020C3B441CE749469CE7A1EB09016B
:10507000C446B1FBFEF909FB04F8C4E7704700BF62
:105080002DE9F84F002210213B483C4CDFF80C8101
:10509000DFF80CB103F04EFC142002F00BFE0122ED
:1050A0001021354803F046FC022002F003FE344B89
:1050B00093ED007A334BD3ED007A77EE277A002513
:1050C000C7EE876A4FF0000ADFED2F7A86EEA77AE7
:1050D000DFED2E7AC7EE277A17EE900AFFF764FA13
:1050E0001FA3D3E90023FFF7B7FAFFF7ADFD284B65
:1050F0001860284BD3F8009027492046FFF788F81E
:10510000D4ED077AF8EEE77A064617EE900AFFF735
:105110004BFAF6B914A3D3E90023FFF79DFA06462C
:1051200048460F46FFF740FA02460B4630463946DE
:10513000FFF7BCFB52465B46FFF78EFAFFF784FD94
:105140000135032D48F8040B04F14C04D4D1BDE81B
:10515000F88F07A3D3E90023FFF77EFAEAE700BF41
:105160005A643BDF4F8DF13F17265305A392E83F6A
:1051700017265305A392F83F00080240680000205C
:10518000140000201800002000007A4400A84D46BA
:1051900040030020100000206CF6000834030020BB
:1051A0000000703E10B5182345F255529E21012093
:1051B00000F0E6FA182345F255529E21022000F035
:1051C000DFFA182345F255529E21032000F0D8FA49
:1051D00018234FF41562E121012000F0D1FA1823C1
:1051E0004FF41562E121022000F0CAFA18234FF4AF
:1051F0001562E121032000F0C3FA182340F6825221
:10520000DD21012000F0BCFA182340F68252DD2196
:10521000022000F0B5FABDE81040182340F6825293
:10522000DD21032000F0ACBA10B518230022DD21E7
:10523000012000F0A5FA18230022DD21022000F051
:105240009FFA18230022DD21032000F099FA182389
:105250000022E121012000F093FA18230022E1212D
:10526000022000F08DFA18230022E121032000F033
:1052700087FA182300229E21012000F081FA1823CA
:1052800000229E21022000F07BFABDE81040182386
:1052900000229E21032000F073BA00002DE9F8439C
:1052A000FFF780FF18234FF489329821012000F086
:1052B00067FA18234FF489329821022000F060FA2F
:1052C00018234FF489329821032000F059FA102353
:1052D0001A46CE21012000F053FA10231A46CE219F
:1052E000022000F04DFA10231A46CE21032000F0D0
:1052F00047FA724A724CDFF8F891DFF8F881714F83
:10530000714E18238F21012000F03AFA6B4A1823BE
:105310008F21022000F034FA684A18238F210320DD
:1053200000F02EFA226818237321012000F028FAD9
:10533000226818237321022000F022FA2268634CAD
:1053400018237321032000F01BFA2268182374210C
:10535000012000F015FA226818237421022000F0C1
:105360000FFA22685A4C18237421032000F008FA1F
:10537000226818237521012000F002FA2268182300
:105380007521022000F0FCF92268524C1823752187
:10539000032000F0F5F9226818237E21012000F097
:1053A000EFF9226818237E21022000F0E9F9226833
:1053B000494C18237E21032000F0E2F922681823CB
:1053C0007F21012000F0DCF9226818237F210220D0
:1053D00000F0D6F92268414C18237F21032000F009
:1053E000CFF9226818238021012000F0C9F9226832
:1053F00018238021022000F0C3F92268182380219D
:10540000032000F0BDF90124E5B259F8042B18235C
:105410006F21284600F0B4F958F8042B18236E21A8
:10542000284600F0ADF957F8042B18236D212846C3
:1054300000F0A6F9013456F8042B182370212846F1
:1054400000F09EF9042CDFD1FFF7EEFE4FF4FA7066
:1054500002F030FC18221321012000F02FF9204C1B
:10546000204B94ED007A07EE900AF8EEE77A1822C6
:1054700067EE877A14210120C3ED007A00F01EF94F
:1054800007EE900A94ED007A174BF8EEE77A1822AF
:1054900067EE877A15210120C3ED007A00F00EF93E
:1054A00007EE900A94ED007A104BF8EEE77A67EE7B
:1054B000877AC3ED007ABDE8F88300BFB70B100010
:1054C000F8030020CC030020C0030020F4030020D8
:1054D000F00300200404002000040020FC0300204E
:1054E000400300209C0C0020980C0020940C00200D
:1054F000E4030020D803002000B51822A1B09821B1
:10550000012000F0DBF863490246684606F002F825
:105510006846FEF7DDFE0146684600F005FF0A20FA
:1055200002F0C8FB18229821022000F0C7F85A495F
:105530000246684605F0EEFF6846FEF7C9FE0146E2
:10554000684600F0F1FE0A2002F0B4FB1822982110
:10555000032000F0B3F851490246684605F0DAFF2F
:105560006846FEF7B5FE0146684600F0DDFE0A20FB
:1055700002F0A0FB1022CE21012000F09FF8484944
:105580000246684605F0C6FF6846FEF7A1FE0146E2
:10559000684600F0C9FE0A2002F08CFB1022CE21E2
:1055A000022000F08BF83F490246684605F0B2FF42
:1055B0006846FEF78DFE0146684600F0B5FE0A20FB
:1055C00002F078FB1022CE21032000F077F8364954
:1055D0000246684605F09EFF6846FEF779FE0146E2
:1055E000684600F0A1FE0A2002F064FB18222E217A
:1055F000012000F063F82D490246684605F08AFF55
:105600006846FEF765FE0146684600F08DFE0A20FA
:1056100002F050FB18222E21022000F04FF82449FE
:105620000246684605F076FF6846FEF751FE0146E1
:10563000684600F079FE0A2002F03CFB18222E2179
:10564000032000F03BF81B490246684605F062FF64
:105650006846FEF73DFE0146684600F065FE0A20FA
:1056600002F028FB10229321012000F027F81249B4
:105670000246684605F04EFF6846FEF729FE0146E1
:10568000684600F051FE0A2002F014FB21B05DF8DC
:1056900004FB00BF6FF6000880F6000891F60008D2
:1056A000A2F60008B3F60008C4F60008D5F6000814
:1056B000E7F60008F9F600080BF7000870B586B0A9
:1056C0000024822302940494D6088DF808300546FD
:1056D000CDF80B40CDF813408DF809100DF10903FA
:1056E0002246A64210DC06F118036B44C1F17D018D
:1056F000022D03F80E1C0BD0032D21D0012D0DD14E
:10570000002210211B4807E003F8012F0134E8E7CD
:10571000194800224FF4006103F00CF96423009350
:105720001648F31C04AA02A904F054F8022D0BD069
:10573000032D1BD0012D0DD12A4610210D4807E065
:1057400000224FF40051DDE70B4801224FF40061C5
:1057500003F0F0F89DF813309DF812209DF8140026
:105760001B0203EB0243184406B070BD01224FF444
:105770000051E3E70004024000080240F40B00205F
:1057800073B5DD08044681238DF80110A81C7F390C
:105790008DF80030C9B2684400239D4213DC6A1CB6
:1057A00002239A4216DA05F108036B44C943022C1E
:1057B00003F8061C14D0032C28D0012C16D100228B
:1057C00010211A4810E0DE0022FA06F600F8016DFA
:1057D0000133E2E71DF803000144C9B20133E0E7F9
:1057E000134800224FF4006103F0A4F81148642329
:1057F000EA1C694603F03EFF022C0BD0032C11D0AB
:10580000012C0DD122461021084807E000224FF458
:105810000051D6E7064801224FF4006103F08AF8F0
:1058200002B070BD01224FF40051EDE700040240C8
:1058300000080240F40B0020F8B5002407460826B3
:105840002546182239460120FFF738FF041945EB99
:10585000E0750A2002F02EFA013EF2D1281E02DA8B
:10586000073440F10000E40844EA4070F8BD00004D
:10587000F7B5FFF797FC182300227E210120FFF7E0
:105880007FFF182300227E210220FFF779FF1823D3
:1058900000227E210320FFF773FF182300227F21BF
:1058A0000120FFF76DFF182300227F210220FFF760
:1058B00067FF182300227F210320FFF761FF1823D1
:1058C000002280210120FFF75BFF182300228021A6
:1058D0000220FFF755FF1823002280210320FFF745
:1058E0004FFF4FF4167002F0E5F91320FFF7A4FF05
:1058F00004461420FFF7A0FF05461520FFF79CFF84
:105900006D426242294C2A4E2A4F25F07F45256080
:105910004042294D20F07F4022F07F42286018232A
:105920007E2101203260FFF72BFF326818237E2191
:105930000220FFF725FF326818237E210320FFF79E
:105940001FFF226818237F210120FFF719FF22681B
:1059500018237F210220FFF713FF226818237F21DD
:105960000320FFF70DFF2A68182380210120FFF78D
:1059700007FF2A68182380210220FFF701FF2A6809
:10598000182380210320FFF7FBFEFFF74DFC01F0F9
:1059900065FA2B680193236800933368074A7821DE
:1059A000384605F081FD384603B0F0BD0004002004
:1059B0000404002045030020FC0300201BF700081E
:1059C00030B52DED028B83B00023054601AA0846B1
:1059D000AA49019305F0C0FDA9492846FEF718FC25
:1059E000044600286AD1FFF7DDFB22461823732105
:1059F0000120FFF7C5FE2246182373210220FFF77E
:105A0000BFFE1823224673210320FFF7B9FE4FF48F
:105A1000167002F04FF9182213210120FFF74EFEF5
:105A2000984B08EE100AD3ED007A0198B8EEC88AB8
:105A300028EE278AFEF7B8FD934B0022FEF70CFEF6
:105A4000FFF7BAF8FEF79EFD044618EE100A0D4661
:105A5000FEF7AAFD8C4B0022FEF7FEFD02460B4628
:105A600020462946FEF740FCFFF7A6F807EE100A8D
:105A7000B8EEC77A854BC7EE087A73210120FDEE98
:105A8000E77A17EE904AC3ED007A22461823FFF713
:105A900077FE1823224673210220FFF771FE182398
:105AA000224673210320FFF76BFEFFF7BDFB01F0D9
:105AB000D5F9774803B0BDEC028B30BD7549284657
:105AC000FEF7A6FB0446002867D1FFF76BFB2246D2
:105AD000182374210120FFF753FE22461823742156
:105AE0000220FFF74DFE1823224674210320FFF702
:105AF00047FE4FF4167002F0DDF818221421012041
:105B0000FFF7DCFD5F4B08EE100AD3ED007A019839
:105B1000B8EEC88A28EE278AFEF746FD5A4B0022C7
:105B2000FEF79AFDFFF748F8FEF72CFD044618EE45
:105B3000100A0D46FEF738FD534B0022FEF78CFD90
:105B400002460B4620462946FEF7CEFBFFF734F807
:105B500007EE100AB8EEC77A4F4BC7EE087A7421E9
:105B60000120FDEEE77A17EE904AC3ED007A224657
:105B70001823FFF705FE1823224674210220FFF7A1
:105B8000FFFD1823224674210320FFF7F9FDFFF7DC
:105B90004BFB01F063F941488CE741492846FEF789
:105BA00037FB0446002867D1FFF7FCFA224618238A
:105BB00075210120FFF7E4FD2246182375210220FC
:105BC000FFF7DEFD1823224675210320FFF7D8FDDD
:105BD0004FF4167002F06EF8182215210120FFF71D
:105BE0006DFD284B08EE100AD3ED007A0198B8EE4F
:105BF000C88A28EE278AFEF7D7FC234B0022FEF73F
:105C00002BFDFEF7D9FFFEF7BDFC044618EE100A87
:105C10000D46FEF7C9FC1C4B0022FEF71DFD024697
:105C20000B4620462946FEF75FFBFEF7C5FF07EE51
:105C3000100AB8EEC77A1B4BC7EE087A752101200F
:105C4000FDEEE77A17EE904AC3ED007A224618235C
:105C5000FFF796FD1823224675210220FFF790FDDD
:105C60001823224675210320FFF78AFDFFF7DCFA8F
:105C700001F0F4F80C481DE70C481BE7AFF70008EB
:105C8000B2F70008400300200000F040F8030020B5
:105C90004DF70008B5F70008F403002064F700088A
:105CA000B8F70008F00300207BF7000892F700081F
:105CB000F0B52DED028B83B000231546044601AAF2
:105CC00008469149009305F047FC90496A462846EA
:105CD00005F042FC8E492046FEF79AFA0546002858
:105CE00057D1FFF75FFA18232A466F219DF8040069
:105CF000FFF746FD4FF4167001F0DCFF18220F216C
:105D00009DF80400FFF7DAFC019E824B08EE100AB2
:105D1000771E03EB8703D3ED007A0098B8EEC88AAC
:105D200028EE278AFEF740FC7B4B0022FEF794FC0E
:105D3000FEF742FFFEF726FC044618EE100A0D4659
:105D4000FEF732FC744B0022FEF786FC02460B463F
:105D500020462946FEF7C8FAFEF72EFF07EE100A86
:105D6000B8EEC77A6D4BC7EE087A6F21F0B2FDEE40
:105D7000E77A17EE902A43F827201823FFF700FD53
:105D8000FFF752FA01F06AF8654803B0BDEC028BE8
:105D9000F0BD64492046FEF73BFA0546002854D181
:105DA000FFF700FA18232A466E219DF80400FFF73A
:105DB000E7FC4FF4167001F07DFF18220E219DF8CC
:105DC0000400FFF77BFC019E524B08EE100A771E81
:105DD00003EB8703D3ED007A0098B8EEC88A28EE6B
:105DE000278AFEF7E1FB4C4B0022FEF735FCFEF75D
:105DF000E3FEFEF7C7FB044618EE100A0D46FEF759
:105E0000D3FB454B0022FEF727FC02460B462046FB
:105E10002946FEF769FAFEF7CFFE07EE100AB8EE44
:105E2000C77A414BC7EE087A6E21F0B2FDEEE77AF1
:105E300017EE902A43F827201823FFF7A1FCFFF75D
:105E4000F3F901F00BF839489FE720463849FEF78F
:105E5000DFF90446002854D1FFF7A4F9182322469D
:105E60006D219DF80400FFF78BFC4FF4167001F0D4
:105E700021FF18220D219DF80400FFF71FFC019E51
:105E8000244B08EE100A771E03EB8703D3ED007A4C
:105E90000098B8EEC88A28EE278AFEF785FB1E4BCD
:105EA0000022FEF7D9FBFEF787FEFEF76BFB0446E8
:105EB00018EE100A0D46FEF777FB174B0022FEF78F
:105EC000CBFB02460B4620462946FEF70DFAFEF7AD
:105ED00073FE07EE100AB8EEC77A164BC7EE087AC3
:105EE0006D21F0B2FDEEE77A17EE902A43F82720F5
:105EF0001823FFF745FCFFF797F900F0AFFF0E48B6
:105F000043E70E4841E700BF00F80008AFF700087C
:105F100003F80008340300200000F040E4030020F0
:105F2000BBF7000806F80008D8030020D2F70008E5
:105F300009F80008CC030020E9F7000892F70008F0
:105F40002DE9F04F1022D7B073210120FFF7B6FBE7
:105F50001022044674210120FFF7B0FB10220546F1
:105F600075210120FFF7AAFB2B4622462949009004
:105F700024A805F0CFFA24A8FEF7AAF9014624A820
:105F800000F0D2F902AD05AE08AFB946B246AB4655
:105F900001245FFA84F810226F214046FFF78EFB40
:105FA00010224BF8040B6E214046FFF787FB1022AE
:105FB0004AF8040B6D214046FFF780FB0134042CA6
:105FC00049F8040BE5D11449DFF8548024A805F002
:105FD0006CFC002457F8043B009356F8043B55F83A
:105FE000042B41460BA805F095FA01340BA924A80F
:105FF00005F055FB032CEDD1084924A805F04FFB13
:1060000024A8FEF765F9014624A800F08DF957B0E1
:10601000BDE8F08F0CF8000821F80008F3F800083C
:106020002BF8000870B5104E9EB03068FEF7BCFA31
:106030000446B0680D46FEF7B7FACDE90201706874
:10604000FEF7B2FA2246CDE900012B46074905A822
:1060500005F060FA05A8FEF73BF9014605A800F037
:1060600063F91EB070BD00BF880C002039F800082D
:1060700070B5104E9EB03068FEF796FA0446B068D0
:106080000D46FEF791FACDE902017068FEF78CFA31
:106090002246CDE900012B46074905A805F03AFA4A
:1060A00005A8FEF715F9014605A800F03DF91EB058
:1060B00070BD00BF700C00204BF800082DE9F04FB8
:1060C0002DED048B4C4B4D4F18684D4ED9B0FEF75B
:1060D0006BFA4C4B044618680D46FEF765FACDE99D
:1060E0000201494B1868FEF75FFA2246CDE900012C
:1060F0002B464649464D26A805F00CFAA946B2465D
:10610000B8460324FAEC017A58F8040BCDED097A6D
:10611000FEF74AFA59F804BB02460B465846CDE949
:106120000A23FEF741FACDE902010998FEF73CFA8D
:10613000DDE90A23CDE9000136490DA805F0EAF9A9
:106140000DA926A805F0ABFA013CDBD13249DFF8F6
:10615000CCA0DFF8CC90DFF8C08026A805F09FFA2D
:1061600026A8FEF7B5F8014626A800F0DDF851464E
:1061700026A805F09AFBF5EC018AB6EC019AB7EC7B
:10618000018A18EE900AFEF70FFACDE9060119EE22
:10619000100AFEF709FACDE9040118EE100A38EEEC
:1061A000098AFEF701FA78EE287ACDE9020117EEA6
:1061B000900AFEF7F9F901342246CDE9000149467B
:1061C0000DA805F0A7F90DA926A805F068FA414623
:1061D00026A805F064FA26A8FEF77AF8014626A854
:1061E00000F0A2F8322001F065FD032CBFD159B0B8
:1061F000BDEC048BBDE8F08F9C0C0020B80C002097
:10620000AC0C0020940C0020980C002057F80008DB
:10621000A00C002070F80008F3F80008F4F800085B
:1062200081F800082DE9F04F1822E9B01321012070
:10623000FFF744FA1822824614210120FFF73EFAA4
:106240001822834615210120FFF738FA1822044648
:106250000F210120FFF732FA182207460E210120F4
:10626000FFF72CFA182280460D210120FFF726FAAD
:10627000182281464B210120FFF720FA18220390B3
:106280004B210220FFF71AFA182205464B21032062
:10629000FFF714FA5B46064652461549009404A8D7
:1062A00005F038F943463A461249CDF8009036A831
:1062B00005F030F936A904A805F0F1F9039A0E4962
:1062C00000962B4636A805F025F936A904A805F056
:1062D000E6F90A4904A805F0E2F904A8FDF7F8FF79
:1062E000014604A800F020F869B0BDE8F08F00BFB7
:1062F000B7F80008CDF80008DDF80008F3F800084A
:10630000074B10B54FF4007422460021184605F0E3
:10631000BEF922460146BDE81040024804F0E7B845
:106320000A060020440A00208AB20A2301460148D6
:1063300003F0C1BEFC0900202DE9F04FADF6EC1DC5
:1063400079238DF813309F4B83420C460DD10129E0
:106350000FD19D4B1B78422B0BD10A460A230DF11E
:10636000130103F0A8FE00F05FFE0DF6EC1DBDE882
:10637000F08F40F2FF17A74228BF27460DF57A7825
:1063800091493A464046002505F097FA08F807502B
:10639000FFF7B6FF002CE8D08C4E33883B44B3F5B2
:1063A000007F06DB8A4835804FF40072294605F0ED
:1063B0006EF93588864C60193D44ADB23A46414687
:1063C00005F07BFA0023635535808249204605F0AD
:1063D00088F90028C9D0051B0DF5BD682A4621465D
:1063E000404605F06AFA002308F805303788AF42C6
:1063F00006D9635D0D2B00F0B8800A2B00F0B58044
:106400007A1C521B6119204605F027F998F80030D4
:106410007F1B3780002BD8D06422002105A805F00F
:1064200036F90DF5FD65642200211EA805F02FF94F
:1064300037AF4FF400720021284605F028F90DF51A
:10644000A07964220021384605F021F96422002158
:10645000484605F01CF9B422002169A805F017F997
:10646000CDE901795C4900951EAB05AA404605F0CF
:1064700073F80028A9DD9DF878A0BAF1000F0FD1BC
:106480009DF814303BB105AA12F8013B002B9CD0BB
:10649000303B092BF8D905A8FDF71AFF022894D93B
:1064A0004E4905A8FDF7B4FE4D49002805A80CBFCC
:1064B0004FF0430B4FF0000BFDF7AAFE49490028AF
:1064C00005A808BF4FF0530BFDF7A2FE002874D0BB
:1064D000BBF1000F40F0D88005A8FDF7F9FE0128B8
:1064E00037D1BAF1000F34D09DF81430532B3ED180
:1064F0003D491EA8FDF78CFE002800F0C8803B49EE
:106500001EA8FDF785FE002800F0C18038491EA8AE
:10651000FDF77EFE002800F0BA8036491EA8FDF780
:1065200077FE002800F0B38033491EA8FDF770FE07
:10653000002800F0AC8031491EA8FDF769FE002854
:1065400000F0A5802E491EA8FDF762FE002800F08D
:106550009E80B4212B4A434669A804F0A5FF69A890
:10656000FDF7B6FE014669A8DAE001353FE7472BA3
:1065700050D11A491EA8FDF74BFEF0B122491EA8C2
:10658000FDF746FEC8B121491EA8FDF741FEA0B1A6
:1065900016491EA8FDF73CFE78B115491EA8FDF767
:1065A00037FE50B113491EA8FDF732FE28B1184935
:1065B0001EA8FDF72DFE0028CBD129461EA800F00D
:1065C0006FFA5FE0440A00200A0600200804002059
:1065D0000A040020F2F80008F5F800080FF9000896
:1065E00019F9000813F9000817F900081DF9000847
:1065F0003EF9000824F9000829F900082EF90008DE
:1066000039F9000872F9000843F900084AF900084E
:106610004EF90008432B9CD143491EA8FDF7F8FD15
:1066200048B342491EA8FDF7F3FD20B340491EA818
:10663000FDF7EEFDF8B13F491EA8FDF7E9FDD0B129
:106640003D491EA8FDF7E4FDA8B13C491EA8FDF791
:10665000DFFD80B13A491EA8FDF7DAFD58B139498E
:106660001EA8FDF7D5FD30B137491EA8FDF7D0FDB6
:1066700000287FF46EAF2C491EA8FDF7C9FD60B954
:10668000FFF7F6F8014643E0BBF1530FF3D13A466A
:1066900029461EA800F092F8F4E724491EA8FDF749
:1066A000B7FD48B122491EA8FDF7B2FD20B121492E
:1066B0001EA8FDF7ADFD20B929461EA8FFF780F9F9
:1066C000E0E71D491EA8FDF7A3FD48B11B491EA820
:1066D000FDF79EFD20B11A491EA8FDF799FD28B9C6
:1066E0003A4629461EA8FFF7E3FACBE715491EA84C
:1066F000FDF78EFD10B939462846DFE712491EA87E
:10670000FDF786FD18B94A4639462846EBE70F499A
:1067100096A805F0CAF896A8FDF7DAFD014696A8F6
:10672000FFF702FE51E600BF55F90008B2F7000876
:10673000B5F70008B8F7000803F8000806F80008E5
:1067400009F800085CF90008C5FA00085EF90008BD
:1067500030B5174B984285B0054626D10024154B1D
:1067600015481C804FF40072214604F090FF2B68FE
:1067700000941A6800925A680092009A01941A686C
:1067800001925A680192019A02941A6802925A6818
:106790000292029A03941A6803925B680393039B24
:1067A00005B0BDE83040FFF7ABBD05B030BD00BF60
:1067B000440A0020080400200A0400202DE9F043C8
:1067C0000C4699B0904905461746FDF721FD70B972
:1067D000FEF756FC8D4B01241C70FEF75FFDFEF7A3
:1067E0008BFE8B4B8B481C7019B0BDE8F0838A4937
:1067F0002846FDF70DFD0646002866D1631E2022BF
:1068000013F8015F6DB920468449DFF8109204F057
:1068100079FFE8460446474684B1182D05D18048E3
:10682000E2E73A2D08BF1A70EAE747F8044B4946F9
:10683000002004F067FF01350446EDE7112DEED18D
:10684000784B0099784F1F22184604F037FF3D46D9
:10685000C477A14658F8041F1322284604F02EFFDF
:10686000049985F81390132205F1140004F026FF13
:10687000D8F8101085F82790132205F1280004F0AD
:106880001DFF85F83B90D8F81C0003F05DFE013435
:10689000032C686405F14C05DCD10AAC002554F8E2
:1068A000040F03F051FE0136B864E16807F13C00C3
:1068B000072204F003FF032E87F8435007F14C072B
:1068C000EDD100F0AFFA59488EE759492846FDF757
:1068D0009FFC002832D157492046FDF799FCC0B9EA
:1068E00055493846FDF794FC50B154493846FDF7F8
:1068F0008FFC28B152493846FDF78AFC00287AD12E
:106900003B78504A5048303B1370504B00221A706D
:106910006AE74F492046FDF77BFC20B94B4B4D48B9
:1069200001221A7060E74C492046FDF771FC0028EF
:1069300063D1464B494802221A7055E74849284618
:10694000FDF766FC002843D146492046FDF760FC70
:106950000546D8B9344C44494448072204F0AEFEF9
:10696000414984F84350072204F1880004F0A6FE50
:106970003D4984F88F50072204F1D40004F09EFEB4
:1069800084F8DB5000F04EFA39482DE720463949AB
:10699000FDF73EFC044690BB234D374933480722A0
:1069A00004F08CFE344985F84340072205F1880045
:1069B00004F084FE304985F88F40072205F1D400A9
:1069C00004F07CFE85F8DB4000F02CFA2B480BE746
:1069D0002B492846FDF71CFC48B12A492846FDF7FB
:1069E00017FC20B128492846FDF712FC48B900F0F1
:1069F0001BFB2648F8E62648F6E62648F4E6264835
:106A0000F2E62648F0E600BF17F900089A090020D0
:106A10004403002093F900081DF9000819FE00083E
:106A2000A9F900081E00002040000020C1F900085C
:106A30003EF900080FF90008B1FA0008CEFB000883
:106A4000B3FA00081D000020F0F900081C00002027
:106A5000B5FA000818FA00084AF900082EFA0008EA
:106A600024F90008B9FA0008BEFA00087C000020EA
:106A700058FA0008C3FA0008C7FA00086FFA0008BD
:106A800029F900082EF9000839F9000899FA0008D8
:106A9000D1F9000844FA000885FA000892F70008C6
:106AA00010B52DED048B7D4990B00446FDF7B0FB89
:106AB00030B9FFF745FA7A4810B0BDEC048B10BD31
:106AC00078492046FDF7A4FB002800F0DC807649D9
:106AD0002046FDF79DFB18B9FEF70EFD7348EBE766
:106AE00073492046FDF794FB002834D1714B0F9376
:106AF000A3F14C020E92A3F198020D92DA680C9267
:106B000053F8402C0B9253F88C2C0A929A680992F5
:106B100053F8442C089253F8902C0792A3F11402D6
:106B20000692A3F160020592A3F1AC020492A3F1D4
:106B3000C0020392A3F13C020292A3F18802D43B6B
:106B4000CDE900325C485D4B5D4A4FF4C87104F0FA
:106B5000ABFC5948B0E75B492046FDF759FB60B9EB
:106B6000544B0193A3F14C020092983B564A524871
:106B70004FF4C87104F098FCEBE754492046FDF748
:106B800047FB00286CD1FEF70DFB012210461823AD
:106B90009D21FEF7F5FD182301229D210220FEF71D
:106BA000EFFD182301229D210320FEF7E9FDFEF7EA
:106BB0003BFB18222F210120FEF780FD182208EE52
:106BC000100A2F210220FEF779FD414C9FED419ADA
:106BD000182208EE900A2F210320FEF76FFDD4ED56
:106BE000377A07EE100AF8EEE77AF6EE009AB8EE7A
:106BF000477A67EEA97AF8EE688A67EE877AB8EE88
:106C0000488AC7EE897A17EE900AFDF7CDFCCDE9E8
:106C10000401D4ED247AF8EEE77A67EEA97A67EEFC
:106C2000A87AC7EE897A17EE900AFDF7BDFCCDE988
:106C30000201D4ED117AF8EEE77A67EEA97A67EEF1
:106C4000887AC7EE897A17EE900AFDF7ADFC224AE2
:106C5000CDE900014FF4C871174804F025FC78E72E
:106C60001E492046FDF7D4FA78B91D4B1B7873B145
:106C7000012B0ED0022B0ED01A4A0F484FF4C871C8
:106C800004F012FC65E7184816E7184814E718489E
:106C900012E7184810E718480EE700BF0FF9000880
:106CA000CBFA000843F900084AF9000836FB00084F
:106CB0001DF90008140100200A0800201E00002011
:106CC00065FB000824F90008A0FB00084EF9000845
:106CD0004000002000007A44AFFB00083EF90008A5
:106CE0001C000020C1FB0008DCFA000892F7000835
:106CF00051FB00085BFB000847FB000830B50A4D5C
:106D000001444FF0FF3310F8012B5340082243F3A6
:106D10000004013A2C4012F0FF0284EA5303F6D13A
:106D20008842F0D1D84330BD2083B8ED2DE9F04141
:106D300000F10C0405460021E822204604F0A7FCDF
:106D40001649174EDFF86480164F0123C5E900137A
:106D5000F423AB60F03556F8041B1322204604F0F0
:106D6000ADFC1322414604F1140004F0A7FC1322E9
:106D7000394604F1280004F0A1FC072204F13C008C
:106D8000094904F09BFC4FF47A720123C4E91123F2
:106D90004C34AC42DFD1BDE8F08100BF504C4731EC
:106DA000A8FE00086CF60008C7FA0008CAFB000835
:106DB000F0B587B005460C4616460021142201A8FE
:106DC0001F4604F064FC0023009301F0BDFB68B98A
:106DD0000223019005936946012301A803940493BB
:106DE00001F098FC044620B101F0C0FB002007B080
:106DF000F0BD325900232919022001F0E9FB0028D7
:106E0000F2D10434A742F4D801F0B0FB0028EDD150
:106E10003A463146284604F010FCB0FA80F04009AA
:106E2000E5E7000000B5BFB001A8FFF77FFFE4224F
:106E3000084904A804F041FDF02101A8FFF75EFF16
:106E4000F4233D9001AA0A210348FFF7B1FF3FB0A8
:106E50005DF804FB4000002000000C0830B597B03E
:106E60001D491E4A002315930123CDE9001307CACB
:106E700006AC84E807001A4A1A4B07CA09AC84E832
:106E80000700194A1B68039307CA184B1B68049331
:106E90000CAC174B84E80700164A1B68059358256D
:106EA000029507CA144B0FAC1B6884E807001293C5
:106EB000124B1B681393124B54211B6814936846A2
:106EC000FFF71CFF2B4615906A460B210D48FFF774
:106ED0006FFF17B030BD00BF43414C31E4030020C9
:106EE000D8030020F8030020CC030020F403002086
:106EF000F0030020C0030020040400200004002050
:106F0000FC03002000000E0810B5BEB0F4221549A5
:106F100001A804F0D2FC144B019A9A420CD1029CB5
:106F2000012C09D1039BF42B06D1F02101A8FFF716
:106F3000E5FE3D9B98420CD001A8FFF7F7FEE42246
:106F400004A90A4804F0B9FC3EB0BDE81040FFF7C0
:106F500069BFE42204A9054804F0AFFC20463EB016
:106F600010BD00BF00000C08504C4731400000200D
:106F700010B596B058222049684604F09EFC1F4B7D
:106F8000009A9A4235D1019C012C32D1029B582B98
:106F90002FD154216846FFF7B1FE159B984228D1A6
:106FA000174B039A1A60174B049A1A60164B059AEE
:106FB0001A6006AA07CA154B83E8070009AA07CA80
:106FC000134B83E807000CAA07CA124B83E807009B
:106FD0000FAA07CA104B83E80700104B129A1A60D9
:106FE0000F4B139A1A600F4B149A1A60204616B072
:106FF00010BD0020FBE700BF00000E0843414C31EC
:10700000F8030020F4030020F0030020E403002034
:10701000D8030020CC030020C0030020040400207B
:1070200000040020FC030020094B0A4A1A60BFF349
:107030004F8FBFF36F8FBFF34F8F0749074BCA685E
:1070400002F4E0621343CB60BFF34F8F00BFFDE754
:1070500000000020AD1007B000ED00E00400FA05CC
:1070600010B594B01422002108A804F010FB1422DB
:10707000002102A804F00BFB00231F4A0093116CAF
:1070800041F080511164126C02F080520092009A1B
:107090001A4A0193116841F440411160126802F4E8
:1070A000404201920224019A119406220820CDE95F
:1070B0000D43079264230122CDE90F03CDE9092294
:1070C0000423102207A8CDE912340B9201F068FEC8
:1070D00008B172B6FEE70F23CDE902344FF48053B6
:1070E000CDE905300490032102A801F06DFC08B140
:1070F00072B6FEE714B010BD0038024000700040C8
:107100002DE9F04FB64BC5B012AA03F13805186847
:107110005968144603C40833AB422246F7D11868B5
:1071200099889B792060A180A371252200210DF10F
:10713000870004F0ACFAAB4B2BAA03F138051868B2
:107140005968144603C40833AB422246F7D1186885
:1071500099889B79A37125222060A1800DF1EB0015
:1071600000210024A04D04F092FA00F039FFFFF74F
:1071700077FF142200210DA804F089FA02942B6BEA
:107180009A4843F004032B632B6B03F00403029330
:10719000029B03942B6B43F080032B632B6B03F058
:1071A00080030393039B04942B6B43F001032B6335
:1071B0002B6B03F001030493049B05942B6B43F0AA
:1071C00002032B632B6B03F002030593059B0694CC
:1071D0002B6B43F008032B632B6B03F00803069320
:1071E00001221021069B01F0A5FB8148224642F2B4
:1071F000100101F09FFB7D4822464FF4106101F021
:1072000099FB22467B484FF4006101F093FB012774
:1072100079480F940DA94FF002094FF48816CDE973
:107220000D7401F0C7FA74480F940DA94FF0050AC8
:10723000CDE90D9601F0BEFA6E480F940DA9CDE987
:107240000DA601F0B7FA41F20A026A480F940DA99F
:10725000CDE90D244FF0100801F0ACFA63480DA9F8
:107260004FF0060BCDE90D87CDE90F7401F0A2FABE
:107270005F480F940DA9CDE90DB401F09BFA42F2DD
:1072800010025B480DA9CDE90D27CDE90F9401F05F
:1072900091FA4FF4825255480F940DA9CDE90D246F
:1072A00001F088FA4FF4807250480DA9CDE90D27FE
:1072B000CDE90F4401F07EFA4FF400624D480DA96C
:1072C000CDE90D27CDE90F4401F074FA4FF40062C7
:1072D00046480DA9CDE90D27CDE90F9401F06AFAD2
:1072E000042246480F940DA9CDE90D2401F062FA5D
:1072F000A0223F480F940DA9CDE90D2601F05AFABE
:1073000022463946584600F0A9FE584600F0D8FEFD
:1073100049462246072000F0A1FE072000F0D0FEDB
:1073200022460321082000F099FE082000F0C8FE44
:1073300022465146172000F091FE172000F0C0FEB3
:1073400001942B6B43F400132B632B6B03F400139A
:107350002246514601930E20019B00F07FFE0E2035
:1073600000F0AEFE2648274B04614FF461290C253E
:10737000C0E90039C0E90244C0E90554C46102F023
:107380006BFE034608B172B6FEE71F481F4AC0E90C
:107390000233C0E90435C0E90633C0E9002902F030
:1073A0005BFE034608B172B6FEE71948194C8362CA
:1073B0004FF48272C0E90042C0E90233C0E90437E9
:1073C000C0E908334FF4007530220A23C0E90652A1
:1073D000C36202F0F3F80546F0B172B6FEE700BFF3
:1073E000E2FB000821FC00080038024000080240CF
:1073F0000004024000000240001C0240000C024059
:10740000440A002000100140FC0900200048004010
:10741000F40B0020003001400146424609A804F068
:1074200036F99B4C424629460DA8CDE9075504F094
:107430002EF94FF08043C4E9003520464FF0FF336A
:10744000C4E90335A560A56102F04AFB08B172B634
:10745000FEE74FF4805309A92046099302F066FC29
:1074600008B172B6FEE7204602F066FB08B172B6BC
:10747000FEE7CDE9070007A9204602F0F1FC02462D
:1074800008B172B6FEE7CDE90D07CDE90F000DA9F1
:10749000204602F0B5FB08B172B6FEE708220DA93E
:1074A000204602F0ADFB08B172B6FEE70025794C2C
:1074B000102229460DA8CDE9095504F0E8F8764BCD
:1074C000A5604FF6FF772046C4E90035C4E903758F
:1074D000A56102F031FB08B172B6FEE7CDE9090003
:1074E00009A9204602F0BCFC024608B172B6FEE7CC
:1074F0004FF00108CDE90E800D9010900DA92046A7
:1075000002F07EFB08B172B6FEE708220DA9204604
:1075100002F076FB054608B172B6FEE7014610227E
:1075200009A804F0B4F85D4C102229460DA8CDE955
:10753000075504F0ACF85A4B25612046C4E90035E4
:10754000C4E90257A56102F0CBFA08B172B6FEE7B2
:107550004FF4805309A92046099302F0E7FB08B1D4
:1075600072B6FEE7204602F0E7FA08B172B6FEE70F
:10757000CDE9070007A9204602F072FC08B172B6F7
:10758000FEE7CDE90D08CDE90F00082220460DA940
:1075900002F036FB044608B172B6FEE7014610223F
:1075A0000DA804F074F83F483F4B0461C0E9003473
:1075B000C0E90247846102F093FA08B172B6FEE7AF
:1075C000384802F0B9FA024608B172B6FEE7012364
:1075D000CDE90E300D9010900DA9324802F010FB4D
:1075E00008B172B6FEE7314C3149A06042F20F7328
:1075F000CDE90D00C4E90013A0614FF6FF732046EA
:10760000E36002F06DFA08B172B6FEE7CDE90D0055
:107610000DA9204602F024FC054608B172B6FEE72B
:10762000014614220DA804F032F8224C224B099591
:107630007F22C4E900352046FF23C4E90223C4E9C0
:107640000455A56101F0B1FD024608B172B6FEE72E
:10765000CDE91000ADF834008DF836000DA92046B4
:1076600001F0F6FD024608B172B6FEE7134B09932E
:1076700009A9204601F046FE014608B172B6FEE7B0
:107680000422204601F086FED0B172B6FEE700BFAC
:10769000AC0B00201C0B002000080040640B0020F5
:1076A000000400408C0A002000480140D40A002059
:1076B000001000404C0C0020002800400101010097
:1076C00012A8FCF705FE014612A8FEF72DFE4FF4A6
:1076D000FA7000F0EFFA2BA8FCF7FAFD01462BA890
:1076E000FEF722FEFFF710FC0546FFF741FC0446BB
:1076F0000DB9FFF797FB0CB9FFF7B0FB174A184815
:10770000136843F04003136000214FF4007203F04C
:10771000BEFF134913484FF4007202F0E8FEFDF774
:10772000AFFC052000F0C6FAFDF7B8FD052000F01B
:10773000C1FA0D4B01241C70FDF7DEFE052000F0A0
:10774000B9FA0A4822464FF4006101F0F3F80848FC
:1077500000224FF4807101F0EDF8FEE700300140A7
:107760000A060020440A00209A0900200000024076
:107770000008024072B6FEE707B5104B00220092E7
:10778000596C41F480415964596C01F48041009175
:1077900000990192196C41F0805119641B6C03F03F
:1077A0008053019311460520019B00F057FC0520F2
:1077B00003B05DF804EB00F083BC00BF003802406A
:1077C00010B5044690B03C22002101A803F05FFFF1
:1077D00022680E4B9A4216D10823019301A84FF458
:1077E0008073089301F0AAF908B1FFF7C3FF084BB3
:1077F0000122C3F83C2E00220320114600F02EFC8B
:10780000032000F05DFC10B010BD00BF0028004058
:107810000000474210B5044688B01422002103A896
:1078200003F035FF2268144B9A4222D103F58433CA
:10783000002101915A6C114842F480525A645A6CEA
:1078400002F480520192019A02911A6B42F00102F5
:107850001A631B6B03F001030293029BE0220223D5
:107860000321CDE903230523CDE9061303A900F085
:10787000A1FF08B010BD00BF003001400000024071
:1078800070B504468EB01422002109A803F0FFFE53
:107890002368B3F1804F37D103F50E3300240194F0
:1078A0001A6C424842F001021A641A6C02F001029A
:1078B0000192019A02941A6B42F002021A631A6B47
:1078C00002F002020292029A03941A6B42F0010241
:1078D0001A631B6B03F001030393039B02264FF40F
:1078E0008063012509A9CDE909360D9500F062FFF5
:1078F0004FF40043CDE90936CDE90B442C480D95F2
:1079000009A900F057FF2FE02A4A93421DD12A4BC4
:10791000002104911A6C42F002021A641A6C02F0FF
:1079200002020492049A05911A6B42F002021A6351
:107930001B6B03F002030593059B01210223CDE994
:1079400009131A480D9309A9DBE71C4A93420DD18C
:1079500000230693184B1A6C42F010021A641B6C39
:1079600003F010030693069B0EB070BD144A9342B9
:10797000FAD1114B002107915A6C42F480225A64CB
:107980005A6C02F480220792079A08911A6B42F00F
:1079900002021A631B6B03F002030893089B4FF467
:1079A00000720223CDE909230323CAE70004024041
:1079B0000000024000040040003802400010004077
:1079C0000048014010B5044688B01422002103A8E5
:1079D00003F05DFE2268134B9A4220D103F50C336D
:1079E000002101911A6C104842F004021A641A6CCA
:1079F00002F004020192019A02911A6B42F0020213
:107A00001A631B6B03F002030293029B4FF4A072F4
:107A1000022303A9CDE90323079300F0CBFE08B0AE
:107A200010BD00BF00080040000402402DE9F043F3
:107A300014228BB0064600210DEB020003F027FE56
:107A40003368474A934239D1464B47480025019550
:107A50005A6C42F010025A645A6C02F01002019201
:107A6000019A02951A6B42F001021A631B6B03F034
:107A7000010302930724029B02274FF4007303269D
:107A800005A9CDE90537CDE9086400F093FE4FF470
:107A90008063CDE9053734480994012305A9CDE970
:107AA000073600F087FE25202A46214600F0D6FA48
:107AB000252000F005FB0BB0BDE8F0832B4A934274
:107AC000F9D1284B2A48002503951A6C42F48022EC
:107AD0001A641A6C02F480220392039A04951A6BBA
:107AE00042F004021A631B6B03F00403049307249F
:107AF000049B4FF0020920234FF0030805A9CDE9AC
:107B00000539CDE908844FF4806700F053FE012366
:107B10001748099405A9174CCDE90738CDE905792F
:107B200000F048FE144A4FF00063C4E900232046E9
:107B30004023C4E90235C4E90475C4E90655C4E923
:107B4000085500F0F5FA08B1FFF714FEB4632720DA
:107B500000220821A66300F081FA2720A9E700BFD0
:107B60000010014000380240000002400048004080
:107B7000000802409C09002058600240FEE7FEE732
:107B8000FEE7FEE7FEE770477047704700F042BA35
:107B9000014801F065BC00BF4C0C0020704701207B
:107BA00000F0D8BE022000F0D5BE042000F0D2BE06
:107BB000014800F08BBB00BF9C09002008B52020C5
:107BC00000F0C8FEBDE80840802000F0C3BE000001
:107BD000014802F023BB00BF440A0020014802F024
:107BE0001DBB00BFFC0900200120704708B503F051
:107BF0002FFE162303604FF0FF3008BD08B503F0D9
:107C000027FE16230360FEE770B50D4614460E46A8
:107C1000731B9C4201DC204670BDAFF3008006F868
:107C2000010BF5E770B50D4614460E46731B9C42DA
:107C300001DC204670BD16F8010BAFF30080F5E7BC
:107C40004FF0FF3070474FF400534B6000207047F7
:107C500001207047002070470B4A116810B5034699
:107C600009B90A491160106809490A4C0344091B03
:107C70008B4206D903F0ECFD0C2303604FF0FF307C
:107C800010BD1360FCE700BF6C0C0020180E002034
:107C90000000042000400000044BD3F8882042F488
:107CA0007002C3F88820024A9A60704700ED00E035
:107CB0000040000838B5074D0446284601F010FF83
:107CC000284601F083FE0A232A685C43536A9C42DB
:107CD000FCD838BDD40A00202DE9F84F8748DFF8DA
:107CE0005892874E874D4FF4006100F028FE864879
:107CF00001224FF4807100F01DFEB246CB460024F5
:107D000004F101085FFA88F718220F213846FDF7C1
:107D1000D5FC07EE900A95ED007AF8EEE77A182286
:107D200067EE877A0E21EBEC017A3846FDF7C6FC48
:107D300007EE900AB5EC017AF8EEE77A182267EEC2
:107D4000877A0D21EAEC017A3846FDF7B7FC07EE99
:107D5000900A15ED017A6D4BF8EEE77A03EB840497
:107D600067EE877AC4ED007A4446032CC8D1DFF869
:107D7000CC81DFED677A98ED007A664F664D6748F3
:107D800067499FED684AB4EEE77AF1EE10FA54BF06
:107D9000B0EE476AB0EE676A97ED007AB4EEE77A24
:107DA000F1EE10FA54BFF0EE475AF0EE675A95ED37
:107DB000007A9C46B4EEE77A5B4BF1EE10FA48BFCE
:107DC000B0EE677A00221C46F6EE003AF6EC017A35
:107DD000F9EC016AD3ED004A67EEA57A0132E6EECE
:107DE000867A032AFCEC016AE6EE877AD1ED006A16
:107DF000E0EC017A77EEA66AE1EC017A66EEA36A1E
:107E000086EE845A75EE246AE3EC016ADED13E48C0
:107E100000224FF4807100F08DFD444B1B78012B44
:107E200051D1DFF81091424E99F800303278013389
:107E3000DBB201320F2B89F80030327004D1FEF72B
:107E4000F1F8002389F8003033781E2B39D118223D
:107E500013210120FDF732FCDFF8E49007EE900AD1
:107E600099ED007AF8EEE77A182267EE877A142106
:107E70000120C8ED007AFDF721FC07EE900A99ED8C
:107E8000007AF8EEE77A182267EE877A152101204A
:107E9000C7ED007AFDF712FC07EE900A99ED007A23
:107EA000F8EEE77A142067EE877AC5ED007AFFF7DF
:107EB00001FFFEF7DDF8002323606360A360002369
:107EC0003370BDE8F88F022B12D11A4A184C137880
:107ED0000133137023780133DBB21E2B2370F0D1F2
:107EE0003220FFF7E7FEFEF79DF900232370E8E755
:107EF000002BE6D1BDE8F84FFEF7E0B800000240E5
:107F0000AC0C00203403002000080240A00C00202C
:107F100000006643980C0020940C0020880C002080
:107F20007C0C002000006145700C00201C0000202B
:107F3000C40C0020C50C0020B80C00209C0C0020B4
:107F400040030020DFF834D00D480E490E4A0023CC
:107F500002E0D458C4500433C4188C42F9D30B4AFD
:107F60000B4C002301E013600432A242FBD3FFF765
:107F700093FE03F073FCFFF7C3F870470000042082
:107F80001000002018030020380101081803002009
:107F9000180E0020FEE7000038B50E4B1A784FF49B
:107FA0007A73B3FBF2F30C4A05461068B0FBF3F0AA
:107FB00000F094F8044658B90F2D09D80246294616
:107FC0004FF0FF3000F04AF8044B20461D6038BDEA
:107FD0000120FCE728010020240100202C010020C2
:107FE00008B50B4B1A6842F400721A601A6842F422
:107FF00080621A601A6842F480721A60032000F0EE
:108000001BF80F20FFF7C8FFFFF7B6FB002008BDE5
:10801000003C0240034A044B11681B780B44136078
:10802000704700BFC80C002028010020014B1868D1
:10803000704700BFC80C00200749CA6822F4E062FC
:108040000302120403F4E063120C134343F0BF6312
:1080500043F40033CB60704700ED00E0164B30B5C1
:10806000DC68C4F30224C4F10703251D042B28BFD8
:108070000423062D4FF0FF358CBF033C002405FA86
:1080800003F321EA0303A54022EA0502A3400028E6
:1080900043EA0203ACBF00F16040084A4FEA031311
:1080A000B8BF00F00F00DBB2AABF00F56140135467
:1080B00080F8003330BD00BF00ED00E014ED00E0BB
:1080C000002807DB044A4109012300F01F00834018
:1080D00042F82130704700BF00E100E00138B0F104
:1080E000807F0BD24FF0E023054A5861F02182F8DF
:1080F00023100020072298611A6170470120704701
:1081000000ED00E0036810B5084C0246D9B2103902
:108110001820B1FBF0F0205CD06523F47F7020F0D4
:1081200003005F2988BF0430906510BDCCFE0008B5
:1081300070B50446FFF77AFF0546002C60D0022395
:1081400084F835302268002384F83430136823F033
:108150000103136022681368D8072ED413683248CD
:10816000A1691840D4E901352B43E5682B43256903
:108170002B4365692B43E5690B432B43256A2B434E
:108180000343606A042802BFD4E90B5635432B43EE
:1081900013605369042823F0070343EA000335D131
:1081A000A06AE56A03438DB391B9012820D030F06D
:1081B00002012BD1E90129D51DE0FFF737FF401B54
:1081C0000528C7D920230320636584F8350070BDD6
:1081D000B1F5005F16D1032818D801A151F820F09D
:1081E000F7810008B5810008F7810008F1810008D7
:1081F000B5F1C07F0AD140236365012384F835308F
:108200000120E4E70228F6D90328D3D053612046A1
:10821000FFF778FFE26D3F23934083600020012346
:10822000606584F83530D2E73F8010F070B50446C1
:10823000866DFFF7FBFE94F83530022B054606D01D
:10824000802363650120002384F8343070BD2368E7
:108250001A6822F016021A605A6922F080025A61E6
:10826000226C0AB9A26C1AB11A6822F008021A60CC
:108270001A6822F001021A602368186810F00100E1
:1082800007D1E26D3F239340B360012384F835307A
:10829000D9E7FFF7CBFE401B0528EDD920230320AB
:1082A000636584F83500CEE790F83530022B03D0B3
:1082B00080234365012070470268052380F835302C
:1082C000136823F00103136000207047F7B5002303
:1082D00001935C4B856D1F68C36D2E6808229A4020
:1082E000324204460CD001680868400708D5086887
:1082F00020F004000860AA60626D42F0010262652D
:1083000001229A40324208D021684969090641BFDA
:10831000AA60626D42F00202626504229A40324213
:1083200008D021680968880741BFAA60626D42F0E1
:108330000402626510229A40324210D02368196804
:1083400009070CD5AA601A68500337D51B681903B2
:1083500001D4236C00E0A36C0BB120469847E16D7B
:1083600020228A4032423AD023681868C60636D5A1
:10837000AA6094F83520052A1A6827D122F016023F
:108380001A605A6922F080025A61226C0AB9A26C02
:108390001AB11A6822F008021A603F238B40AB60C2
:1083A000012384F83530002384F83430236D002B0A
:1083B00045D0204603B0BDE8F04018471A68D20502
:1083C0005EBF1A6822F008021A60C2E7500327D580
:1083D0001B68190331D4636C0BB120469847636D59
:1083E0006BB3636DDA0719D522684FF41653B7FBE8
:1083F000F3F7052384F83530136823F00103136085
:10840000019B0133BB42019302D81368DB07F7D409
:10841000012384F83530002384F83430E36CC6E758
:108420001A6812F4807208D1196821F010011960DD
:10843000012384F8353084F83420E36BCCE703B0B3
:10844000F0BD00BF24010020094910B50C6924F4D7
:1084500040740C610C6944F440740C610C6944F084
:1084600001040C610260BFF36F8F436010BD00BF59
:10847000003C0240074B1A6922F440721A611A69E3
:1084800042F400721A611A6942F001021A61016035
:10849000704700BF003C0240074B1A6922F440724B
:1084A0001A611A6942F480721A611A6942F0010273
:1084B0001A610180704700BF003C0240204BDA681F
:1084C000D00606D51F49CA6942F01002CA611022BF
:1084D000DA60DA68910606D51A49CA6942F00802DC
:1084E000CA612022DA60164BDA68520606D51549B1
:1084F000CA6942F00402CA614022DA60DA681006F2
:1085000006D51049CA6942F00202CA618022DA60C7
:108510000B4BDA68D10507D50A49CA6942F0010256
:10852000CA614FF48072DA60DA68920706D50549AD
:10853000CA6942F02002CA610222DA60704700BFB5
:10854000003C024030010020064B1A69002ABFBFE0
:10855000054A5A6002F188325A60BABF1869C00FE2
:1085600000207047003C024023016745034A13691D
:1085700043F0004313610020704700BF003C0240FD
:10858000114B70B500220446DA61FFF74FFD0F4D25
:108590000646EB68DA030CD4EB68DB0744BF012323
:1085A000EB60E86810F4F97007D0FFF787FF01204F
:1085B00003E0611CEDD00CB9032070BDFFF736FD60
:1085C000801BA042E5D9F7E730010020003C0240C3
:1085D0002DE9F0411F4E9846337E012B07460D468C
:1085E000144635D001234CF250303376FFF7C8FFE4
:1085F000B0B9CFB9184B1A6922F440721A611A69DE
:108600001A611A69E4B242F001021A612C704CF24C
:108610005030FFF7B5FF104A136923F001031361CF
:1086200000233376BDE8F081012F04D1A1B22846A2
:10863000FFF732FFEBE7022F04D121462846FFF770
:1086400019FFE4E7224643462846FFF7FDFEDEE732
:108650000220E7E730010020003C0240074B1A6986
:1086600022F440721A611A6942F004021A611A690E
:1086700042EA002242F480321A617047003C024014
:108680000D4B1A6922F440721A611A69022994BFCB
:1086900009024FF440710A431A611A6922F0F80284
:1086A0001A611A6942EAC00040F0020018611A69B2
:1086B00042F480321A617047003C0240144B1A6841
:1086C00091050FD51A6822F400721A601A6842F4F4
:1086D00000621A601A6822F400621A601A6842F492
:1086E00000721A600A4B1A6852050FD51A6822F4F4
:1086F00080621A601A6842F480521A601A6822F482
:1087000080521A601A6842F480621A60704700BF93
:10871000003C02402DE9F843DFF8948098F81830C7
:10872000012B05460F463FD001234CF2503088F80C
:108730001830FFF725FF0446A0B94FF0FF333B6028
:108740002B68012B14D1287CFFF788FF4CF25030A6
:10875000FFF716FF154A136923F00403044613615B
:10876000FFF7ACFF002388F818302046BDE8F883F7
:10877000AE68DFF83890D5E902231344B342EFD94D
:10878000297C3046FFF77CFF4CF25030FFF7F8FEB3
:10879000D9F8103023F0FA03C9F8103010B13E6058
:1087A0000446DDE70136E6E70224DEE7003C02404E
:1087B000300100202DE9F74FDFF874915A4A002369
:1087C0000D6801249C4004EA0506AC4340F09F80FC
:1087D0004D68032705F003044FEA430807FA08FC35
:1087E000671E012F6FEA0C0C34D8876807EA0C0E5D
:1087F000CF6807FA08F747EA0E078760476827EA55
:10880000060EC5F300179F4047EA0E074760C7688A
:1088100007EA0C0E8F6807FA08F747EA0E07022CE2
:10882000C76019D14FEAD30A00EB8A0A03F0070B9D
:10883000DAF820704FEA8B0B4FF00F0E0EFA0BFE9A
:1088400027EA0E0E0F6907FA0BF747EA0E07CAF878
:10885000207001E0032CDAD1076804FA08F407EA73
:108860000C073C4315F4403F046050D000240194B1
:10887000D9F8444044F48044C9F84440D9F844400D
:1088800023F0030707F1804704F4804407F59C3781
:10889000019403F0030C019CD7F808E04FEA8C0C1C
:1088A0000F2404FA0CF42EEA040E204CA04235D01A
:1088B00004F58064A04233D004F58064A04231D036
:1088C00004F58064A04214BF0724032404FA0CF4C6
:1088D00044EA0E04BC609468F74315F4801F0CBF93
:1088E0003C4034439460D46815F4001F0CBF3C40F6
:1088F0003443D460546815F4003F0CBF3C4034430B
:1089000054601468ED0354BF3C4034431460013399
:10891000102B7FF455AF03B0BDE8F08F0024D5E7EE
:108920000124D3E70224D1E7003C014000000240CB
:10893000003802400AB1816170470904FBE74369CE
:1089400001EA030221EA030141EA02418161704721
:1089500070470000044A5169014208B502D05061D5
:10896000FFF7F6FF08BD00BF003C0140134908B502
:108970008B6803F00C03042B1CD0082B1CD14A6815
:108980004B68496813F4800314BF0D480D48C1F3C8
:10899000881118BF002302F03F02A1FB0001FCF781
:1089A000A3F9064B5B68C3F3014301335B00B0FBE3
:1089B000F3F008BD0248FCE70248FAE7003802403D
:1089C00040787D010024F4002DE9F0410D46044675
:1089D00010B90120BDE8F081434B1A6802F007028C
:1089E0008A4228D321688F072DD4C80740D43E4B34
:1089F0001A6802F00702AA4265D8226851076BD4B0
:108A0000130707D5394A2169936823F4604343EA81
:108A1000C1039360FFF7AAFF344B354A9B68C3F349
:108A20000313D35CD840334B1860334B1868FFF7FF
:108A3000B3FA0020CEE7CAB21A701B6803F007032E
:108A40008B42C6D1CEE7294B11F0040F1EBF9A68A6
:108A500042F4E0529A600E0742BF9A6842F46042C4
:108A60009A609A68A06822F0F00202439A60BCE71C
:108A700062681E4B012A1CD11B6813F4003FA8D06A
:108A80001A4EB36823F003031343B360FFF7CEFA23
:108A900041F288380746B368626803F00C03B3EB11
:108AA000820FA4D0FFF7C2FAC01B4045F3D90320C0
:108AB00090E7911E01291B6802D813F0007FDEE7C2
:108AC00013F0020FDBE7EAB21A701B6803F007032A
:108AD000AB427FF47EAF90E70449E0688B6823F4F3
:108AE000E05303438B608BE7003C024000380240B8
:108AF000BCFE0008240100202C010020044B054A84
:108B00009B68C3F38223D35C034A1068D840704744
:108B100000380240B4FE000824010020044B054A3E
:108B20009B68C3F34233D35C034A1068D840704754
:108B300000380240B4FE00082401002002682DE93C
:108B4000F34112F0010504460BD091494569D1F873
:108B50008C3023F0C0632B43B5FA85F5C1F88C3017
:108B60006D0997070BD58A48A169D0F88C3023F09E
:108B7000C0530B430029C0F88C3008BF01251607ED
:108B800031D500230193824B824E1A6C42F0805201
:108B90001A641B6C03F080530193019B336843F408
:108BA00080733360FFF742FA07463368D80555D51E
:108BB000774EE269336F13F4407358D1E36903F4DD
:108BC0004072B2F5407F724A71D1916823F07040D3
:108BD00021F4F81120F4407001439160116FC3F348
:108BE0000B030B43136723685B0742BF6A4B94F880
:108BF0003820C3F8E0212268D70608D56449606AA6
:108C0000D1F8943023F440030343C1F8943096061E
:108C10000CD55F48A16AD0F8943023F000630B4371
:108C2000B1F1006FC0F8943008BF0125500608D597
:108C30005749206AD1F8943023F080530343C1F898
:108C40009430012D37D0802A35D02268D10500F12B
:108C50008A80930500F19180002005E0FFF7E6F996
:108C6000C01B0228A1D9032002B0BDE8F08102F4A4
:108C700040729342A2D0336F484A0121C2F8401E8D
:108C800023F440730021C2F8401E3367336FD907C5
:108C900094D5FFF7CBF941F288380746336F9A072E
:108CA0008CD4FFF7C3F9C01B4045F7D9DBE79168C7
:108CB00021F4F81191E7394B354E00229A66FFF7FF
:108CC000B5F9054633681B0147D4334B626BC3F8D3
:108CD000D8202268D70701D563698BB1960701D5E3
:108CE000A3696BB1950603D5A36AB3F1006F07D0F2
:108CF000500612D5236A83B9A36AB3F1006F0CD171
:108D0000D4E902131B0643EA811361680B4321690E
:108D100043EA01731E49C1F8843011060CD5D4E929
:108D200002231B0643EA821362681343226943EA63
:108D30000273174AC2F88430184B154E01229A6606
:108D4000FFF774F9054633681A013FF57EAFFFF768
:108D50006DF9401B0228F6D985E7FFF767F9401B3C
:108D60000228AFD97FE70A49E06AD1F88C3023F0B6
:108D700000430343C1F88C306BE7054A216BD2F8FE
:108D80008C3023F400430B43C2F88C3064E700BFFF
:108D90000038024000700040001047420000474287
:108DA0002DE9F341044640B30368DE0710D423687D
:108DB0009D075BD42368190700F19D8023685A073B
:108DC00000F1BD80A369002B40F0248100202CE03D
:108DD0008D4B9A6802F00C02042A07D09A6802F0C0
:108DE0000C02082A0BD15B68590208D5864B1B6818
:108DF0009A03DCD56368002BD9D1012015E06368A4
:108E0000814DB3F5803F13D12B6843F480332B6041
:108E1000FFF70CF97C4E054633689B03C7D4FFF778
:108E200005F9401B6428F7D9032002B0BDE8F081A2
:108E3000B3F5A02F04D12B6843F480232B60E3E724
:108E40002A6822F480322A602A6822F480222A606A
:108E5000002BDDD1FFF7EAF806462B689F03A6D565
:108E6000FFF7E4F8801B6428F7D9DDE7664B9A68C2
:108E700012F00C0F07D09A6802F00C02082A11D1E8
:108E80005B685D020ED4604A1368990702D5E368F7
:108E9000012BB2D11368216923F0F80343EAC1031F
:108EA000136087E7E268594BB2B101221A60FFF7FD
:108EB000BDF8554D06462B689B0707D52B682269E0
:108EC00023F0F80343EAC2032B6073E7FFF7AEF821
:108ED000801B0228EFD9A7E71A60FFF7A7F84A4ED0
:108EE000054633689F077FF565AFFFF79FF8401B86
:108EF0000228F6D998E76269444B82B10122C3F88F
:108F0000802EFFF793F8404E0546736F9B073FF5A1
:108F100055AFFFF78BF8401B0228F6D984E7C3F85A
:108F2000802EFFF783F8384E0546736F9F077FF555
:108F300045AFFFF77BF8401B0228F6D974E7324BA8
:108F40001A6C12F0805228D101921A6C42F08052B1
:108F50001A641B6C03F080530193019B01272C4D75
:108F60002B68D8051BD5A368274D012B27D12B6F64
:108F700043F001032B67FFF759F8234E054641F2F2
:108F80008838336F9A0739D5002F3FF41BAF1E4A3C
:108F9000136C23F08053136414E70027DFE72B687A
:108FA00043F480732B60FFF741F806462B68D90520
:108FB000D9D4FFF73BF8801B0228F7D934E7052BFB
:108FC00004D12B6F43F004032B67D0E72A6F22F004
:108FD00001022A672A6F22F004022A67002BCAD1F5
:108FE000FFF724F841F2883806462B6F9B07CBD554
:108FF000FFF71CF8801B4045F7D915E7FFF716F877
:10900000401B4045BDD90FE70038024000004742F1
:10901000007000403C4DAA6802F00C02082A41D0C2
:10902000022B3A4B4FF000021A662ED1FEF7FEFFDC
:1090300006462B68990122D4D4E907321343626AA9
:1090400043EA8213E26A43EA0263226B43EA027351
:10905000A26A5208013A43EA02436B602B4B2A4D45
:1090600001221A66FEF7E2FF04462B689A013FF5DB
:10907000ADAEFEF7DBFF001B0228F6D9D4E6FEF703
:10908000D5FF801B0228D4D9CEE6FEF7CFFF0446D9
:109090002B689B017FF59AAEFEF7C8FF001B0228E4
:1090A000F6D9C1E6012B3FF4A8AE6B68E26903F480
:1090B000800191427FF4A1AE216A03F03F028A420F
:1090C0007FF49BAE616A47F6C0721A40B2EB811F13
:1090D0007FF493AEA26A520803F44031013AB1EB37
:1090E000024F7FF48AAEE16A03F07062B2EB016F67
:1090F0007FF483AE226B03F0E043B3EB027F14BF37
:109100000120002091E600BF0038024000004742E5
:1091100038B50368094ADA600446FEF787FF05465A
:109120002368DB689B0601D5002038BDFEF77EFF73
:10913000401BB0F57A7FF3D90320F6E75F3F0100CB
:10914000036870B5DC6814F04004054617D1DA688E
:1091500042F08002DA60FEF769FF06462B68DB68A2
:109160005B0600D40CB1204670BDFEF75FFF801B8C
:10917000B0F57A7F82BF04236B770124EEE70024E9
:10918000F1E70368DA6822F0800210B5DA609B68C4
:109190009B06044601D5002010BDFFF7B9FF00284B
:1091A000F9D0042363770120F6E710B504460028C0
:1091B00041D0437F03F0FF0213B90277FEF700FBB3
:1091C000022363772368DA68D20603D50123637725
:1091D000002010BDCA225A6253225A622046FFF76D
:1091E000AFFF10BB236820699A6822F4E00222F0E6
:1091F00040029A60626899680243606902430A43C8
:109200009A60E2681A611A69A16842EA01421A6129
:109210002046FFF7B6FF40B92368A1691A6C22F413
:1092200080221A641A6C0A431A642368FF225A6265
:109230000028CBD0CDE70120CBE70023092803D8B5
:1092400040EA0310C0B270470A380133C0B2F5E7F4
:109250002DE9F041037F012B06460F464FF0020037
:1092600041D0012331683377707738787D78BC78C6
:109270008B68002A39D113F0400308BFFB70FFF759
:10928000DCFF80462846FFF7D8FF02462046FFF75E
:10929000D4FFFB7840EA835343EA084343EA0224BD
:1092A000CA234B6253234B623046FFF749FFA8B9EC
:1092B000326804F07F3424F0FE441460936823F491
:1092C00080239360D7E90330916803430B43936095
:1092D0003046FFF756FF08B9012373773368FF2242
:1092E0005A6200233377BDE8F08113F0400308BFD2
:1092F000FB702D02FA7845EA004545EA040343EA8B
:109300008254CDE7F8B5037F012B05464FF00200EC
:1093100027D001232B7768770E78C8784C788F7820
:109320007603FAB146EA00433B4343EA04242B6840
:10933000CA225A6253225A622846FFF701FF58B9DF
:109340002A6824F07F4424F0C00454602846FFF7C4
:1093500018FF08B901236B772B68FF225A6200239C
:109360002B77F8BDE30642BF24F010040A344C709A
:10937000FFF763FF04464878FFF75FFF0246384671
:10938000FFF75BFF40EA060343EA044343EA022493
:10939000CDE7000037B5304B1D684FF4FA43B5FBFD
:1093A000F3F54FF47A735D43037F0195012B044677
:1093B0004FF0020017D00123237723686077CA207B
:1093C000586253205862986810F4806F11D0019849
:1093D00001380190019840B9FF225A620323637754
:1093E00000232377032003B030BDD86810F0040FAA
:1093F000ECE7986820F480609860D868C0B260F4A8
:109400009060D8600195019801380190019800287A
:10941000E2D0D8684007F6D5986820F00700986039
:10942000986802439A600D4A5961116841F48001BD
:109430001160916841F4800191609A6842F4804221
:109440009A609A6842F480629A60FF225A62002011
:10945000012363772077C6E724010020003C014008
:10946000094B4FF4800210B55A610268D3685B055E
:10947000044606D5D368DBB263F49063D360FEF78D
:109480002BFC0123637710BD003C01402DE9F3471D
:109490001F46894690460446FEF7C8FD0A9D3D4496
:1094A0002D1AFEF7C3FD264B1E68C6F3CB366E435E
:1094B000824601962268936839EA03030CBF0123B0
:1094C0000023434501D100202EE07B1CF3D0FEF7A2
:1094D000ADFDA0EB0A00A84229D323685A6822F008
:1094E000E0025A606268B2F5827F0AD1A268B2F5E2
:1094F000004F02D0B2F5806F03D11A6822F040020B
:109500001A60A26AB2F5005F07D11A6822F400520D
:109510001A601A6842F400521A60012384F851302C
:10952000002384F85030032002B0BDE8F087019B8F
:109530001BB1019B013B0193BCE71D46BAE700BF8D
:1095400024010020F0B585B00B4600920E46174668
:10955000022101220446FFF799FF054628B1636DF9
:1095600043F020036365032515E0124B1868124B86
:10957000B0FBF3F04FF47A73584363680390B3F58C
:10958000827F0BD1009733462A4680212046FFF781
:109590007DFF0028E3D1284605B0F0BD039B002BDA
:1095A000F9D0039B013B039323689B681B06F5D40A
:1095B000F1E700BF2401002000366E0110B504461B
:1095C000002855D0436A002B4ED14268B2F5827F05
:1095D00000D0C3610023A36294F8513003F0FF026E
:1095E00023B984F850202046FEF714F92168A068BA
:1095F000A269022384F851300B6823F040030B600A
:10960000636800F4044003F482730343E06800F4E9
:1096100000600343206900F002000343606900F02A
:109620000100034302F400700343E06900F03800D6
:109630000343206A00F080000343A06A00F4005056
:1096400003430B60636A120C03F0100302F0040280
:109650001A434A60CB6923F40063CB6100200123E5
:10966000606584F8513010BD0023C0E90433B1E7D0
:109670000120F8E72DE9F74304461F460D469046C2
:10968000FEF7D4FC94F85130012B8146D8B240F05B
:109690009F80002D74D0B8F1000F71D094F8503035
:1096A000012B00F09580032384F85130002363657B
:1096B000C4E91033A4F83680A363A387E387A368C3
:1096C000266884F85000B3F5004F2563A4F8348071
:1096D00007D1336823F040033360336843F4804399
:1096E00033603368E2685B065EBF336843F0400373
:1096F0003360B2F5006F636845D113B1B8F1010F63
:1097000007D135F8023BF3602563E38E013B9BB242
:10971000E386E38E9BB2D3B94A4639462046FFF72B
:1097200011FF002851D1A36833B901932368DA6887
:1097300001929B680193019B012384F85130606D75
:109740000023C01A84F8503018BF012018E02268A6
:109750009368980705D5236B33F8021BD160236308
:10976000D3E7FEF763FCA0EB0900B842D1D3791C24
:10977000CFD0012384F85130002384F850300320E7
:1097800003B0BDE8F08313B1B8F1010F08D12B7815
:109790003373236B01332363E38E013B9BB2E38678
:1097A000E38E9BB2002BB7D023689A68920703D54B
:1097B000226B12781A73ECE7FEF738FCA0EB090075
:1097C000B842EDD37B1CEBD0D3E720236365AAE737
:1097D0000220D5E72DE9F74304460D4691461E4683
:1097E000DDF82880FEF722FC94F851306268012BE6
:1097F0000746D9B20AD0B2F5827F40F0E580A3686F
:10980000002B40F0E180042940F0DE80002D4BD099
:10981000B9F1000F48D0002E46D094F85030012BFB
:1098200000F0D280012384F8503094F85130C4F80D
:109830003890042B1CBF052384F851300023636546
:10984000C4E910332368E687E6861968A6874906C7
:1098500058BF1968256358BF41F04001A68658BF1C
:109860001960E168B1F5006F55D10AB1012E07D139
:1098700035F8022BDA60E38E2563013B9BB2E38669
:109880000125E38E9BB28BB9E38F9BB273B93A4645
:1098900041462046FFF756FE002800F08180202335
:1098A0006365002384F85030012031E021688B6823
:1098B0009A070DD5E38E9BB253B145B1236B33F8B4
:1098C000022BCA602363E38E013B9BB2E386002533
:1098D0008A6812F001020CD0E38F9BB24BB1A36BEC
:1098E000C96823F8021BA363E38F013B9BB2E387A4
:1098F0001546FEF79BFBC01B4045C2D3B8F1FF3FA6
:10990000BFD0012384F85130002384F85030032065
:1099100003B0BDE8F0830AB1012E08D12A781A738A
:10992000236B01332363E38E013B9BB2E386012566
:109930002DE0226893689B070ED5E38E9BB25BB146
:109940004DB1236B1B781373236B01332363E38EB9
:10995000013B9BB2E38600252268916811F001016A
:109960000DD0E38F9BB253B1A36BD2681A70A36B77
:109970000133A363E38F013B9BB2E3870D46FEF700
:1099800055FBC01B404502D3B8F1FF3FB9D1E38E70
:109990009BB2002BCDD1E38F9BB2002BC9D176E7D0
:1099A000A36833B901932368DA6801929B68019335
:1099B000019B012384F85130606D0023C01A84F8A4
:1099C000503018BF0120A3E70220A1E790F83D30F6
:1099D000012B2CD10223174A80F83D3003689342B3
:1099E0001AD0B3F1804F17D0A2F57C42934213D026
:1099F00002F5806293420FD002F5806293420BD051
:109A000002F57842934207D002F57052934203D098
:109A1000A2F59432934204D19A6802F00702062A12
:109A200003D01A6842F001021A600020704701203A
:109A3000704700BF00000140274A0368904212D0DF
:109A4000B0F1804F0FD0A2F57C4290420BD002F5CE
:109A50008062904207D002F58062904203D002F506
:109A60007842904208D14A6823F070031343CA68D1
:109A700023F44073134316E0184A9042F7D002F5DE
:109A800080629042F3D002F580629042EFD0A2F55E
:109A900098329042EBD002F580629042E7D002F516
:109AA00080629042E3D04A6923F0800313438A68BE
:109AB000C2620A688262084A904203D002F580625C
:109AC000904201D10A690263026842F00402026016
:109AD00001224261036070470000014000400140E4
