:020000040800F2
:10280000006000206D810008697C00086B7C000876
:1028100000000000000000000000000000000000B8
:102820000000000000000000000000006D7C0008B7
:1028300000000000000000006F7C0008717C0008B0
:10284000BD810008BD810008797C0008BD810008B9
:10285000897C0008BD810008BD810008BD81000899
:10286000BD8100088D7C0008BD810008BD81000885
:10287000BD810008BD810008BD810008BD81000840
:10288000BD8100080000000000000000BD810008BC
:1028900000000000BD810008BD810008BD81000866
:1028A000BD810008BD810008BD8100089D7C000835
:1028B000AD7C0008000000000000000000000000E7
:1028C00010B5064C2378002B07D1054B002B02D006
:1028D000044800E000BF0123237010BDC4010020A4
:1028E0000000000040CF0008044B10B5002B03D0BF
:1028F0000349044800E000BF10BDC04600000000CE
:10290000C801002040CF000802780B78002A03D0CD
:10291000013001319A42F7D0D01A70470023C25CCF
:102920000133002AFBD1581E7047000002B47146E3
:1029300049084900095C49008E4402BC7047C04602
:1029400003B47146490840004900095E49008E44BD
:1029500003BC7047002243088B4274D303098B42A7
:102960005FD3030A8B4244D3030B8B4228D3030C5F
:102970008B420DD3FF22090212BA030C8B4202D301
:102980001212090265D0030B8B4219D300E0090A29
:10299000C30B8B4201D3CB03C01A5241830B8B4232
:1029A00001D38B03C01A5241430B8B4201D34B031B
:1029B000C01A5241030B8B4201D30B03C01A524180
:1029C000C30A8B4201D3CB02C01A5241830A8B4205
:1029D00001D38B02C01A5241430A8B4201D34B02EE
:1029E000C01A5241030A8B4201D30B02C01A524152
:1029F000CDD2C3098B4201D3CB01C01A5241830906
:102A00008B4201D38B01C01A524143098B4201D33F
:102A10004B01C01A524103098B4201D30B01C01A6A
:102A20005241C3088B4201D3CB00C01A52418308E4
:102A30008B4201D38B00C01A524143088B4201D311
:102A40004B00C01A5241411A00D201465241104671
:102A50007047FFE701B5002000F0F0F802BDC04666
:102A60000029F7D076E7704703460B437FD4002256
:102A700043088B4274D303098B425FD3030A8B4212
:102A800044D3030B8B4228D3030C8B420DD3FF227C
:102A9000090212BA030C8B4202D31212090265D04A
:102AA000030B8B4219D300E0090AC30B8B4201D3FD
:102AB000CB03C01A5241830B8B4201D38B03C01A44
:102AC0005241430B8B4201D34B03C01A5241030BBB
:102AD0008B4201D30B03C01A5241C30A8B4201D36C
:102AE000CB02C01A5241830A8B4201D38B02C01A17
:102AF0005241430A8B4201D34B02C01A5241030A8E
:102B00008B4201D30B02C01A5241CDD2C3098B4272
:102B100001D3CB01C01A524183098B4201D38B01EF
:102B2000C01A524143098B4201D34B01C01A524192
:102B300003098B4201D30B01C01A5241C3088B42D7
:102B400001D3CB00C01A524183088B4201D38B00C2
:102B5000C01A524143088B4201D34B00C01A524164
:102B6000411A00D201465241104670475DE0CA0F3B
:102B700000D04942031000D34042534000229C46FB
:102B800003098B422DD3030A8B4212D3FC22890105
:102B900012BA030A8B420CD3890192118B4208D3DB
:102BA000890192118B4204D389013AD0921100E03D
:102BB0008909C3098B4201D3CB01C01A5241830951
:102BC0008B4201D38B01C01A524143098B4201D37E
:102BD0004B01C01A524103098B4201D30B01C01AA9
:102BE0005241C3088B4201D3CB00C01A5241830823
:102BF0008B4201D38B00C01A5241D9D243088B4279
:102C000001D34B00C01A5241411A00D2014663461B
:102C100052415B10104601D34042002B00D549427F
:102C2000704763465B1000D3404201B5002000F0BE
:102C300005F802BD0029F8D016E770477047C04676
:102C4000844608006146FFE71FB500F0C3FB00287B
:102C500001D40021C8421FBD10B500F04BFB40421B
:102C6000013010BD10B500F0B5FB002801DB0020DD
:102C700010BD012010BDC04610B500F0ABFB002810
:102C800001DD002010BD012010BDC04610B500F0D0
:102C900059FB002801DC002010BD012010BDC046FA
:102CA00010B500F04FFB002801DA002010BD012014
:102CB00010BDC0469E2110B5C905041CFFF7F0FFEA
:102CC000002803D1201C00F0A1FF10BD9E21201C74
:102CD000C90500F021FD00F099FF80231B069C46EA
:102CE0006044F2E7F8B54B025A0A94464A00C90F0D
:102CF000CE4647468946450046022D0E120E80B547
:102D00009909770AC40FB609AB1A4C4520D0002B9D
:102D10000CDD002A34D100292AD05A1E012B00D103
:102D20008FE0FF2B00D1CDE013002FE0002B60D00F
:102D3000531B002D00D0EEE0002E00D13EE15C1EC2
:102D4000012B00D16BE1FF2B00D1B9E02300E7E0BC
:102D5000002B00DCA4E0002A69D0FF2D00D1B1E0F7
:102D60008022D20411431B2B00DCE9E02B00053646
:102D7000F708FF2B00D1A5E07A02520AD8B230E062
:102D8000FF2D00D19EE08022D204114301201B2B95
:102D900008DC08002022D840D31A99400B005A1EA4
:102DA00093411843361A730100D471E0B601B70994
:102DB000380002F01DFB3B000538834085424DDDA5
:102DC000B44E2D1A1E405A0768D00F221340042B10
:102DD00064D00436730161D5681CFE2D54D1FF20E8
:102DE0000022C0051043E4072043C0BCB946B046EA
:102DF000F8BDFE229046681C0200404610426BD18E
:102E0000002D00D0DDE0002E00D102E10029B3D07A
:102E10008022771AD204174200D136E14C468E1B2D
:102E200061D00120164230D10023F708A4E7002921
:102E30009ED05A1E012B00D1CAE0FF2B42D01300B6
:102E400091E7711A4B0100D4D1E08F01BF0938001E
:102E500002F0CEFA3B000538834001252022401BBA
:102E60000130121A1E009340C6405A1E93411E4361
:102E700039D0730700D11BE10F2300253340042B09
:102E8000A7D1012072017CD5C0B2B201520AA8E7D5
:102E9000730703D00F233340042B9AD12B0067E72D
:102EA000002B23D0531B002D7BD1002E00D186E0B8
:102EB0005D1E012B00D18BE0FF2B02D02B0075E0B3
:102EC0004C466746002F00D189E78022D2033A435F
:102ED0005202FF20520A84E7771A7B016BD4002F3D
:102EE00000D065E70024002000227AE7FE226B1C58
:102EF0001A4249D1002D00D09FE0002E00D1BAE047
:102F0000002900D1CFE07218530100D4CDE0920126
:102F10000120520A65E7FF2AD2D08020C004064370
:102F200001201B2B08DC30002024D840E31A9E40EF
:102F300033005C1EA34118434C4615000E1A32E7BD
:102F400008002022D840D31A99400B005A1E934102
:102F50000343F61873019BD50135FF2D00D13EE7E1
:102F600001234D49720833400A401A4316005307A3
:102F700004D00F231340042B00D02AE7730100D59F
:102F80002AE72B00F708F7E6FF2B00D127E7711897
:102F900049084A072FD00F220A40042A2BD00E1DC1
:102FA000E6E6FF2A8DD08020C00406431B2B24DDDB
:102FB00013004E1DDCE64C468F1BF9E64C460E0016
:102FC000D6E6002E49D1002968D067464C467CE7FA
:102FD0007018430174D5304940080140430709D0B7
:102FE0000F230340042B05D002230E1DC0E601234E
:102FF000CF08C1E60223CF08BEE620253000D84026
:10300000EB1A9E4033005D1EAB41034315005E1872
:10301000A0E7002900D165E74C466746ACE68F1B68
:103020007B012ED5BF01BF09380002F0E1F93B005A
:10303000053883404C46013510E7002E00D140E7AB
:10304000002900D141E78023DB039F4200D23CE707
:103050009C4500D339E7674637E7002900D134E7BC
:103060008023DB039F4200D22FE79C4500D32CE74F
:103070004C46674629E7002900D134E70023CF08F2
:103080007AE64C460123FF0876E6002F00D129E7B7
:10309000FF0871E6FFFFFFFBFFFFFF7D802200249A
:1030A000FF20D2039DE6002366E60023D70863E6EF
:1030B0000120720100D5E7E631000023CF085BE66E
:1030C0000123C70858E6C046F0B546464F46D646E7
:1030D0004502C0B5C30F470098460E1C6D0A3F0E4F
:1030E0005BD0FF2F21D08023ED00DB041D430023A4
:1030F00099469A467F3F74027300640A1B0EF60FCE
:10310000002B20D0FF2B43D080220020E400D204EB
:1031100014437F3B4246FF1A4B4672400F2B00D9A7
:103120009DE071499B00CB589F46002D5AD1082342
:103130009946063B74029A467300FF27640A1B0EE9
:10314000F60F002BDED1002C3BD10123424649462D
:10315000724019430E2918D86448890041588F4697
:103160005346022B00D1B8E0032B6ED042462C0010
:10317000012B40D100200024C0052043D20710437A
:10318000E0BCBA46B146A846F0BDFF200024F3E7F4
:10319000002C20D10223FF3FD8E7002D05D10423C6
:1031A0009946033B00279A46A5E7280002F020F93C
:1031B0007627431F9D4000237F4299469A463F1A37
:1031C00099E7200002F014F9431F9C4076235B42EC
:1031D0001B1A00209EE703234A461A439146032008
:1031E000FC3397E70C239946093BFF279A4682E771
:1031F00003282CD0320038007F30002847DD6307D9
:1032000004D00F232340042B00D00434230103D522
:103210003800374B80301C40FE28B6DCA401640A1D
:10322000C0B2A9E780240022FF20E403A4E78023A2
:10323000DB031D4201D01C420BD08024E4032C434D
:1032400064024246FF20640A96E746462C0080232B
:10325000DB031C4364023200FF20640A8CE76D012B
:10326000600185422DD21B230024013F0126290045
:1032700064006D00002901DB854201D32D1A34431F
:10328000013B002BF3D16B1E9D412C43B3E701237F
:103290001B1A1B2B00DD6DE721009E37D940BC4077
:1032A0000B00611E8C412343590704D00F211940A4
:1032B000042900D00433590113D49B0100205C0A77
:1032C0005AE71A2301242D1AD0E7981E4342584189
:1032D000404232000024C0B24EE74246FF200024A4
:1032E0004AE70120002447E780CF0008C0CF00084C
:1032F000FFFFFFF770B542004E024C0045026D0A19
:10330000120EC30F760A240EC90FFF2A10D0FF2C0D
:103310000CD00120A2420AD1B54208D18B420FD075
:10332000002A04D12800431E984100E0012070BD0E
:103330000120FF2CFBD13543F9D14B401800F6E7B3
:103340000020F4E730B5420044024D02C30F4800AC
:10335000640A120E6D0A000EC90FFF2A18D0FF284A
:103360000AD0002A1ED100280AD1002D29D0002C15
:103370002DD14800013830BD002D25D1002A01D1C2
:10338000002CF6D08B4219D001205B421843F2E7A3
:10339000002C19D1FF28F7D1002D15D100208B4228
:1033A000F2D1E8E70028EFD08B42EDD18242EBDC8E
:1033B00004DBAC42E8D80020AC42DCD25800013833
:1033C000D9E7002CD7D0DFE702204042D3E78B4279
:1033D000DAD1EEE730B5420044024D02C30F480097
:1033E000640A120E6D0A000EC90FFF2A17D0FF28BB
:1033F0000AD0002A1BD100280AD1002D1DD0002C94
:103400002DD14800013811E0002D0ED1002A01D144
:10341000002CF6D08B420CD15800013806E0002C6D
:1034200003D1FF2805D1002D15D0022030BD002882
:1034300006D101205B421843F8E7002CF6D0F8E7EC
:103440008B42F6D18242F4DCE6DBAC42F1D80020BC
:10345000AC42EBD2E0E700208B42EAD1E6E78B42B8
:10346000E7D1F2E7F0B54F464646D6464400C0B530
:1034700046020F1C760A240EC50F002C00D1DAE09C
:10348000FF2C74D08023F600DB041E4300239946F2
:103490009A467F3C7B025B0A98467B001B0EFF0F1F
:1034A000002B74D0FF2B00D18EE042468021D20049
:1034B000C90411437F3B2A00E4184B467A408846F2
:1034C000D2B20A2B75DC4B460020022B0FDD494699
:1034D00001238B40A621C9000B4269D190218900AC
:1034E0000B4200D000E18821194200D0F5E04146AE
:1034F0000904090C43460800350C36041B0C360C35
:10350000704369435E435D437618030C9B199942EF
:1035100003D9802149028C46654400041904000C3B
:1035200009188E01701E86411B0C890E5B190E4313
:103530009B011E431B016CD423007F33002B00DC56
:10354000B1E0150071070BD00F2021003040042896
:1035500006D00436320103D56E4B1E400B0080337B
:10356000FE2B00DDBDE0B201520ADBB248E0002EC6
:1035700000D092E008239946063B9A467B025B0AFC
:1035800098467B00FF241B0EFF0F002B8AD142467A
:10359000002A64D149460132114389460A2908DCD0
:1035A0007D400120EAB2022991DC1500002227E0CB
:1035B00015005346022B00D193E0032B1AD0012BA8
:1035C0002CD1002300221BE04346FF34002B55D0B2
:1035D00003214B460B4319000A2B00DC92E00F2B12
:1035E00000D08CE08022D203164203D0434613421F
:1035F00000D17DE08022D20332435202520AFF23DF
:10360000D805ED0710432843E0BCBA46B146A846AA
:10361000F0BD0123150071081E400E4323008033C6
:10362000611C002B41DD720794D00F223240042A26
:1036300000D08EE78EE7002E05D104239946033B88
:1036400000249A4626E7300001F0D2FE7624431F7C
:103650009E400023644299469A46241A1AE740463F
:1036600001F0C6FE4B46241A763C0A2BA1DC4346E9
:10367000053883407D409846EAB224E74A46023343
:1036800013432A007A40D2B20A2B92DC4946150035
:10369000002926D09946022019E70C239946093BB8
:1036A000FF249A46F6E6150021000122D31A1B2BAF
:1036B00000DD86E79E3132008E40DA40731E9E4167
:1036C0003243530704D00F231340042B00D004329D
:1036D000530110D50123002292E73D004646824661
:1036E00067E7FF2300228BE780220025D20386E7CD
:1036F0003D001A4383E792010023520A80E73D0010
:10370000464677E72A0001237A408B400320D2B255
:10371000E9E6C046FFFFFFF7F8B54746CE4643024D
:1037200080B55F0A9B0945004A009C464B02C40FC6
:10373000CE0F2D0E580A120E9909FF2A6BD00123C5
:103740005E40AB1AB4424BD0002B00DCFFE0002AF5
:1037500000D188E0FF2D00D1EFE08022D204114398
:1037600001201B2B08DC08002022D840D31A9940E6
:103770000B005A1E9341184363461B1A9C4663462E
:103780005B0100D4CDE063469F01BF09380001F022
:103790002FFE3B0005388340854200DCA2E0B74A9B
:1037A0002D1A1A4094465A0700D1C3E00F22134045
:1037B000042B00D1BEE004239846C44463465B0159
:1037C00000D4B7E0681CFE2D00D0A5E0FF20002249
:1037D000C0051043E4072043C0BCB946B046F8BD5D
:1037E000002B00DCEBE1002A46D0FF2D00D1A4E045
:1037F0008022D20411431B2B00DCFBE005239846FA
:103800002B00C4446246D708FF2B00D195E07A0212
:10381000520AD8B2DCE72B00FF3B9946002918D1A9
:1038200001235E40B44200D1CAE04B46002B2DD0AC
:10383000002D00D03CE1FF236446002C00D15FE165
:103840005D1E012B00D174E13400FF2B74D02B00DE
:1038500003E1B44200D19CE0002B17D0002DEAD048
:10386000070034006CE00029CCD05A1E012B2BD06D
:10387000FF2B62D0130073E70029C3D05A1E012B1F
:1038800000D11EE1FF2B58D01300B4E7FE226B1CC1
:103890001A420DD1002D60D06346002B00D020E1EC
:1038A000002900D028E180220024FF20D2038FE7E6
:1038B00063465F1A7B0100D5FEE0002F00D065E76C
:1038C00000240020002283E76346591A4B0100D4EC
:1038D00019E18F01BF09380001F08AFD3B0005386E
:1038E000834001252022401B0130121A1900934009
:1038F000C1405A1E934119438C460B1EE1D05B0711
:1039000000D152E10F2300250B40042B00D052E7D9
:1039100001204A0100D492E0C0B263469A01520AE3
:1039200056E763465B0705D00F2362461340042B1E
:1039300000D040E72B0065E70700002F00D145E7E6
:103940008022D2033A435202FF20520A40E7002B62
:1039500079D1FE226B1C1A42AAD16346002B00D1FA
:10396000F5E0002900D1D1E05F1A8023DB041F427B
:1039700000D10EE1624601248A1A944600203440A8
:10398000002A00D124E701201A42C6D10023D7081B
:103990003DE7002B17D0002D00D0AFE0FF23654698
:1039A000002D00D1ADE05E1E012B00D189E0FF2B80
:1039B000C2D01B2E00DCABE04B1D9C46130021E760
:1039C0004B46002B70D1FE226B1C1A425ED1002D9B
:1039D00000D0C3E06346002B00D1D0E0002900D125
:1039E00094E00A006244530100D4D8E0920101201F
:1039F000520AEDE608002022D840D31A99400B0065
:103A00005A1E934103439C4463465B0189D50135AB
:103A1000FF2D00D1DAE6624601231949134052080E
:103A20000A401A43130094465B0704D00F23134047
:103A3000042B00D0BFE663465B0100D5C2E66346B7
:103A4000DF082B00E3E6531B002D00D1F4E68020B5
:103A50006446C0040443A446340001201B2B09DC47
:103A600020256046D840EB1A65469D402B005D1E20
:103A7000AB4118430B1A9C46150080E6FFFFFFFB85
:103A8000FFFFFF7DFE226B1C1342A3D0FF2B00D152
:103A90009CE6614449084A0749D00F220A40042A9B
:103AA00045D00A1D9446ADE6002D00D176E78DE69F
:103AB0003400FF2000228BE663460124CF1A3440F5
:103AC00064E661444B016DD5480844490140430711
:103AD0002CD00F230340042B28D00B1D9C4602231F
:103AE00090E6002900D12BE78023DB039F4200D220
:103AF00026E7984200D323E70124344007001FE75C
:103B000034008C467EE60123CF0880E600237EE663
:103B100020206546801B854063462800F340451EF3
:103B2000A84103439C4615008C446DE70223CF084F
:103B30006DE60F1B7B0128D5BF01BF09380001F0DE
:103B400057FC3B000538834034000125CAE60029B4
:103B500000D1B5E601240700344058E66346002B47
:103B600000D1E9E6002900D1EAE68023DB039F4289
:103B700000D2E5E6984200D3E2E60700E0E600293D
:103B800000D19EE60023CF0841E634000123FF0860
:103B90003DE6002F00D193E60023FF0837E600231F
:103BA000D70834E60123CF0831E680220B00D20487
:103BB00001201340114200D0AEE6CF0827E6002BCB
:103BC00000D15FE7561B002D01D13300E7E68023CB
:103BD0006046DB0418438446EBE6C046FFFFFF7DEA
:103BE00043024A02400049005B0A520A090E000ED5
:103BF000FF2806D00020FF2902D1531E9A41100051
:103C00007047FE38002BFBD1F4E7C046410242006A
:103C1000C30F490A0020120E7E2A03DD9D2A02DD11
:103C2000094A98187047802000040143952A07DC50
:103C30009620821AD1404842002BF3D10800F1E7C8
:103C4000963A9140F7E7C046FFFFFF7F70B5002826
:103C500012D0C317C5185D40C40F280001F0C8FB7F
:103C60009E231B1A962B0FDC082838D00838854075
:103C70006D026D0AD8B202E0002400200025C005C4
:103C80002843E407204370BD992B14DC421F954064
:103C90002A001549114055071CD00F252A40042A37
:103CA00018D00431CA08490115D59F235202181AA9
:103CB000550AC0B2E3E705222900121AD1400200DA
:103CC0001B3295402A00551EAA410A43064911405D
:103CD0005507E2D1CA085202550AD8B2CFE76D02A1
:103CE0006D0A8E30CBE7C046FFFFFFFB10B5041E08
:103CF0000DD001F07DFB9E231B1A962B0CDC0828AF
:103D000034D0083884406402640AD8B201E000204C
:103D10000024C005204310BD992B13DC421F9440A2
:103D2000144A224061071CD00F212140042918D0D9
:103D30000432D408520115D59F236402181A640A6C
:103D4000C0B2E6E7020021001B3291400A00511E7A
:103D50008A410521091ACC401443064A22406107D2
:103D6000E2D1D4086402640AD8B2D2E76402640AD9
:103D70008E30CEE7FFFFFFFBF0B5DE4645465746E7
:103D80004E46E0B587B0009201930B031B0B9B4698
:103D9000CA0F4B00040080465B0D029200D198E0F0
:103DA0007C4A934237D05946420FC9000A438021CA
:103DB00009041143C2009046774A894692469A44C4
:103DC000002300240393009E019F3B031B0B9B4693
:103DD0007B0030005B0DFD0F002B59D06D4A9342E4
:103DE00048D05946720FC9000A4380210904114383
:103DF0008B466949F2008C4651466344CB1A9A4679
:103E00000021029E6E40F6B20F2C00D9CEE0634B2B
:103E1000A4001B599F465A460243914600D090E0A9
:103E20009A460223904608240393CCE7CB464246A9
:103E3000029D0399022900D1DEE1032900D18DE022
:103E4000012900D079E12E000022002300249046B1
:103E50001B052343F60733434046190007B0F0BC67
:103E6000BB46B246A946A046F0BD002200249046BB
:103E7000484BEDE75A46009B1A43494B9C46E244A7
:103E8000002A59D102231C43002302219B46B8E794
:103E90005A46009B1A4349D05B46002B00D19CE157
:103EA000584601F0A5FA020003000B3A1D27009EB8
:103EB000BA1A19005846D6400839884032000243E1
:103EC0009346009A8A40374953448A4600219A44CF
:103ED00097E75B460343994621D05B46002B00D110
:103EE00069E1584601F084FA0B235B429C460200CC
:103EF000844466461D239B1B260011005846DE4065
:103F00000839884033000343994623008B40984684
:103F1000254B00249B1A9A460023039353E7002362
:103F200098469A460133042403934CE701231C432B
:103F3000002301219B4664E70323320003211C4335
:103F40005FE79A460323D9460C2403933BE70023FB
:103F50008024984600260F4B240379E780245B4693
:103F600024031C4324032E0090460A4B240B6FE7C6
:103F700080244B462403234202D05B462342F0D0E8
:103F800080244B4624031C432403029E014B240B34
:103F90005EE7C046FF07000001FCFFFFFCCF000802
:103FA00001F8FFFFF30300000DFCFFFFCB4500D23B
:103FB000F8E000D1F3E001235B429C4644464846CA
:103FC0000025E2445B46170E1B021F43190C3B04FD
:103FD000120200971F0C914602910397FEF740FDD5
:103FE00002007A430B04210C804619438A4209D906
:103FF000009F0123BC465B4261449C46E0448F42E3
:1040000000D85CE1881A0299FEF72AFD039A24047D
:1040100042430904240C03000C43A24206D9009930
:10402000013B8C466444A14200D842E1A01A4246BA
:1040300012041A4393464B4659461B0C1F00049327
:104040000B0449460904090C0C001B0C5C43120CC0
:104050007B43884651437A43270CBC465B18634434
:10406000994203D9802149028C466244190C2404E8
:104070001B04240C8A181C19904202D316D1A542A5
:1040800014D25B46009F013B4D4405934D459B4137
:10409000BC465B426344C018874200D302E18242BF
:1040A00000D929E100D124E1059B9B462C1BA542A8
:1040B000AD41009B801A6D42401B834200D10FE14D
:1040C0000299FEF7CDFC039A0B044243210C050034
:1040D00019438A4200D9CBE0881A0299FEF7C0FC46
:1040E000039A240442430904240C03000C43A24213
:1040F00000D9CAE04146A41A2A041A43049F1304B3
:104100001B0C594340467B439C46150C68430B0CE3
:10411000844463447D43984203D98020400284460E
:104120006544180C09041B04090C40195B188442EF
:1041300027D323D0012335001A43944B5344002B3B
:1041400060DD510700D086E02E00D1085A46D2012A
:1041500006D55A468E4B1A4080239346DB005344C3
:104160008C4A934200DD80E65A4652070A43904645
:104170005A465B055402240B5B0D69E63500002BA3
:10418000DBD0009D511EAC466444AC4200D29EE0A0
:10419000844200D2E1E000D1EEE00A00CAE74245E5
:1041A00000D908E74B46DC07580843465B081C4328
:1041B0004346DD0706E701F01BF915239C468444BE
:1041C0000200634620321C2B00DC92E623000838F4
:1041D00083409946002398469AE601F009F90200C7
:1041E0000300153220331C2A00DC5FE600990838F2
:1041F000814000228B4666E600222E000024904675
:10420000654B25E62E000121C91A382900DD1BE681
:104210001F297EDC6148140050445B468240834085
:10422000CC40501E824123431A435B46CB4051078A
:1042300009D00F211140042905D0111D914292414E
:1042400052429B180A00190200D49BE0002201236D
:1042500000249046FCE50F211140042900D173E7AA
:10426000111D9142924152422E00C90893446DE7BC
:10427000009B013D9C4661448B4200D92CE78A4259
:1042800000D829E7851E614426E70099013B8C464A
:104290006444A14200D92DE7A24200D82AE7831E38
:1042A000644427E7874200D0FEE6A94500D9FBE633
:1042B000F5E6A24200D8B9E6831E6444B6E68A4217
:1042C00000D89FE6BC46831E984661449AE60A00E1
:1042D000844200D02EE74B4500D02BE735002CE779
:1042E0002A4B2F4A5344924543DB01220021934439
:1042F0002CE7AC4200D8D7E602235B429C460099EB
:104300004D444D459B41E3448C465B426344C01899
:10431000CCE61F204042C31A5846D840202904D07A
:104320005946204B534499400A43531E9A41072350
:104330001900024300241140134209D008331340EE
:10434000042B1DD0131D934289411A00494249078D
:10435000D2080A43904600237AE54946009F4D0063
:104360004D458941BC4649426144A946023A641818
:10437000AEE70122524246E79945EED30A00AAE78A
:104380000021E5E759075B021C0BE1E7FF03000092
:10439000FFFFFFFEFE070000FF0700001E040000F5
:1043A00002FCFFFF3E040000F0B557464E46DE46D5
:1043B0004546E0B51F000B031B0B16009A46CA0FBB
:1043C0004B000400914685B05B0D00D1CFE1CD4A92
:1043D000934255D05146420FC9000A438021090437
:1043E0001143C2009046C84A8A4693469B44002324
:1043F000002502933C037B00FA0F0196240B5B0D12
:10440000009200D188E1BF4A934200D192E0BE4AB7
:10441000944663449B440A2D42DCE400730F23431B
:104420008024494624041C43F3000193009B002090
:104430005940CBB20393022D00DC94E00123AB4042
:104440001D00A6232A00DB001A401D4200D029E2ED
:1044500090239B001D4200D14DE200238024994609
:104460002403A84B10004A461B052343D2071343DD
:10447000190005B0F0BCBB46B246A946A046F0BD47
:1044800052460243904600D0ACE19B46022392463E
:1044900008250293AEE7009BA2469946019B9846E9
:1044A000029B022B00D1CAE1032B00D192E1012B28
:1044B00010D1002300240022D4E701227B083A40D7
:1044C00013435246D2071343984653465B089A4615
:1044D000039B99465B46581C8023DB005B44002B02
:1044E00000DCB1E1424652070BD00F2241460A40A0
:1044F000042A06D04246111D414592418846524247
:1045000092445246D20106D55246804B1A4080232F
:104510009246DB00C3187E4A934200DD8FE142469B
:10452000D108524652070A4351465B054C02240B00
:104530005B0D97E7734B26439C46E344002E00D166
:104540006FE1032349461D43009B5940CBB20393BF
:104550000A2D00DD33E10123AB401D00032302934C
:1045600088222A4297D1424643461204120C160072
:1045700001981D0C030C0004000C4643B4461E00B9
:104580006E430096160007005E436146B0466F43D7
:104590000E0CB8444644B74205D9802149028846EA
:1045A000009F4744009761460904090C370C360404
:1045B0008C463100614401911100260C2404240C26
:1045C00061438C462100694389466146090C88464F
:1045D00072434A4442447543914503D980214902BC
:1045E00088464544110C884661460904090C8C46EE
:1045F00012046244B91802915146090C8C46514686
:104600000F043F0C3900414345448846614641430D
:104610008A4641466046090C894658437B435344C9
:104620004B449A4503D98021490289464844190CD4
:10463000894641460904090C8846390061431B0438
:104640004344884661464C4371438C464146774318
:104650000E0C3F19F6194844B44203D9802149028F
:104660008946CC440299009F894631044F448946CB
:104670004146974292410C04240C4C44FF1852428C
:104680006419A1189F429B41884682465B42994625
:1046900090459241AC42A441C244D144524264424A
:1046A000144399459B41824592415B4252421343D8
:1046B0004A46360CA419E31863445B02D20D1A4330
:1046C000019992467A020A43501E8241FF0D174318
:1046D0004A4652021743B846DB0100D5EDE60D4BC2
:1046E000039A5B449146002B00DCACE03A00520791
:1046F00000D110E70F2258463A40042A00D0F9E6CC
:1047000009E7C046FF07000001FCFFFFFFFFFFFEB7
:10471000FE070000FF030000220032436FD0002C90
:1047200000D1C2E0200000F063FE020003000B3A5B
:104730001D20821A30001900D04008398C40020038
:10474000224334008C405946CB1A86498B469B4401
:104750000A2D00DDA4E64946009B01945940CBB2E6
:10476000140000200393022D00DD67E6FBE65346AC
:10477000034398463CD05346002B00D1A3E050465B
:1047800000F036FE0B235B429C460200844411007D
:104790005046083988401D23804660461B1A200079
:1047A000D8400300404603439A4623008B40984676
:1047B0006C4B00259B1A9B46002302931AE60F2D93
:1047C00000D0C9E0802352461B031A4202D01C428B
:1047D00000D192E08024534624031C432403424624
:1047E000240B3EE69B46032380460C25029301E6FC
:1047F00000239A469B46013304250293FAE50121E2
:104800000D430A2D00DD4BE6494600984140C9B2F0
:104810000391022D00DC96E0002300240120019387
:104820000CE649460223009A2B435140CAB2039238
:104830000A2B00DD34E6002D57D1039B9946002456
:104840000022494B0EE658460121C91A382900DDDD
:104850002FE61F2956DD1F2254465242D31ADC4050
:10486000202907D0414B42469C4653466044834032
:104870001A43904642460721531E9A410B00224399
:1048800013400024114209D00F231340042B5DD0A4
:10489000111D91429B410A005B425B07D2081A43FB
:1048A0000023DFE5039B9946FAE5019800F0A0FD9F
:1048B00002000300153220331C2A00DC38E7019A7D
:1048C000083882403FE700F093FD15239C4684445E
:1048D0000200634620321C2B00DC58E70023984678
:1048E0002300083883409A4662E71D000023002415
:1048F00002200193A2E5029032E61C43009B019A3C
:104900009946AEE51A4B5246C31840469A40C840F5
:104910000243404698400300581E834154461A43C0
:10492000CC40530709D00F231340042B05D0131D8F
:10493000934292415242A4181A00230208D501233F
:10494000002400228EE5894600248BE50023A5E79C
:1049500063076402240BA1E7009BA2469946019BD2
:10496000984637E70DFCFFFFFF0700003E040000FC
:104970001E040000F0B557464E464546DE46E0B5FB
:1049800083B0009001910C034D00CE0F610A009C92
:104990005F00640F0C43009900920193C800190353
:1049A0007B0D9946019BCC4FDB0F9C464B0A00992F
:1049B0008046490F1943009B8B46DA0092466D0DE5
:1049C000B94500D1BFE00123614659404B468C46B2
:1049D000EB1A8E4275D0002B00DCA3E24946002979
:1049E00000D1CEE0BD4200D100E20127382B19DC16
:1049F000802759463F0439438B461F2B00DDFAE1DF
:104A00002027F91A8C4659466746B9400F00110015
:104A1000D9400F4361468A40511E8A415946D940C8
:104A20001743641AC71BB84280414042241A23022C
:104A300000D440E16402640A002C00D154E120005B
:104A400000F0D6FC0300083B20213800CA1AD040F1
:104A50009C4002009F4022439D4200DDA6E1581B7E
:104A60000130091A3C008F40C4407B1E9F41130057
:104A70008B4027431F43C2403B00140000251343D3
:104A800000D1F7E17B0700D177E30F2338003B40EB
:104A9000042B04D0381DB842BF417F42E4192302E1
:104AA00000D468E38C4B01359D4200D1F4E08B4B80
:104AB0006D051C406D0D6707C00864020743240B99
:104AC000ECE0002B00DC29E34946002900D0D6E0C9
:104AD0005946114300D12EE1591E012B00D1E6E1C8
:104AE000BB4200D182E101270B00382914DC1F2BC7
:104AF00000DD3CE22027F91A8C4659466746B9404A
:104B00000F001100D9400F4361468A40511E8A416F
:104B10005946D940174364183F18874280414042A4
:104B20002418230200D4C6E06B4B01359D4200D10E
:104B3000B2E00121694B7A081C4039400A43E7077B
:104B4000174364089EE7664B11438A46EB18002919
:104B500028D066452CD0002B5BD0002D00D12CE155
:104B60005B4666465F07D2081743DD083B002B43D0
:104B700000D1E2E0802424032C432403564D240B6F
:104B80008CE05946114300D1D5E0591E012B00D1CC
:104B9000B9E1BB4200D1B1E101270B00382900DDAA
:104BA00040E72AE76146012779408C466645D2D125
:104BB000002B00D1C5E0002D00D055E14B4625006B
:104BC000054300D112E2591E8C46012B00D149E267
:104BD000414DAB4200D18FE20127382911DC6346F9
:104BE0001F2B00DD5BE26146202327005B1A0500D6
:104BF00098409F40CD40431E9841CC402F430743EF
:104C0000A344BF189742924152425A4414004D4661
:104C100087E7344F6B1C3B4200D0B6E05946230077
:104C200011430F000343002D00D026E1002B00D1DB
:104C3000C0E1002900D1A1E0831A98465B464045B7
:104C4000AD41E31A6D425B1B80252D042B4200D140
:104C50004BE15B46101A824292411C1B0700012661
:104C600063465242A41A27431E40002F00D142E15E
:104C70002C4200D16DE2194B01251C401BE7BD42BF
:104C800000D13BE10127382B00DD45E7802759465D
:104C90003F0439438B462AE7002400272D0525438E
:104CA000F60735433800290003B0F0BCBB46B246D6
:104CB000A946A046F0BD7B0704D00F233B40042B40
:104CC00000D0E7E62B00F808034A67070743E5082A
:104CD000934200D14AE7A5E0FF070000FFFF7FFFF6
:104CE00001F8FFFFFE070000380000F081FB030021
:104CF00018331F2B00DCA7E63A00083882409D429B
:104D000000DD8AE05B1B581C1F2800DCD8E117007F
:104D10001F3BDF40202805D040231B1A9A40531E1A
:104D20009A4117430025002F00D1E5E07B0700D012
:104D3000ABE62C00C6E7C008C6E700270024D14D2B
:104D4000ACE7D14F6B1C3B4271D123000343002DD4
:104D500000D04EE15746002B00D1B5E1002F0DD019
:104D60008318834280415C4440422418220200D5CB
:104D7000C8E11F009846274300D1BCE043466707BF
:104D8000DB081F43E50800234CE0831A98465B4686
:104D90004045BF41E31A7F42DB1B1F027CD44746DC
:104DA0001F4300D1A6E01C00474645E6B74CED1A6C
:104DB00014407B0700D080E784E74B46250005437D
:104DC00066D05F1E012B00D1FCE0AE4DAB4200D19E
:104DD0005EE16646382F00DCB4E00120171ABA42C3
:104DE00092415B4652424D469C1A20E66707C00836
:104DF0000743E508BAE61F005946203FF9400F0077
:104E0000202B05D04021CB1A594699400A4392469F
:104E100053465A1E93411F4304E6EB1A9B4D15401F
:104E20006F07ED082C035D05240B6D0D36E7954DDE
:104E3000AB4200D1D6E08218210082428041594421
:104E400040420818C707520817434408520700D4C5
:104E500085E10F221D003A40042A00D01AE6FF081F
:104E6000640727430509DDE75B46D2085F07174360
:104E7000DD087BE60027002410E7002B00D0D6E0F9
:104E8000002900D02FE1802400267E4D240305E771
:104E900066465C46D00817E75B46171ABA4292414D
:104EA0001C1B012663465242A41A1E40C4E5831807
:104EB000834280415C44404225182A0200D4DAE053
:104EC000724A5B081540EA071A4369085B0700D479
:104ED0004AE10F231340042B00D1FCE0171D974239
:104EE000A441644202256418ECE647461C001F43B7
:104EF00000D043E7002600250024CFE6C00867075E
:104F00000743E50832E6871A5B46B8428041E41A57
:104F10004042241A230228D46307FF081F43E508F0
:104F200001237FE7002B00D173E64B465F1B3B005C
:104F3000002D00D142E7382F00DDECE080230E0089
:104F40001B041C431F2F25DC20252300ED1B010023
:104F5000A840AB40F940451EA8410B43FC40184314
:104F60005B461B1B9B4639E76646012562E51F0031
:104F70005946203FF9408C46202B05D04027594602
:104F8000FB1A99400A43924657467B1E9F4163464F
:104F90001F43C1E53B002500203BDD40202F04D00E
:104FA0004023DB1B9C40204380464046431E9841E3
:104FB000284313E700299DD0012663465C469046AE
:104FC0001E40DBE6171A5B46BA4292411C1B524256
:104FD000A41A2302C8D46307FF081F4366460123AF
:104FE000E5081FE71D000024002757E65C46D008AF
:104FF0006AE6002B00D137E75346C008670707432E
:10500000E508002B00D1B1E580231B031D4208D029
:105010005946C808184204D1D20849070A43170064
:1050200005007B0FFF00FF085B071F439EE5C008DC
:1050300063071843E508002953D080231B031D4252
:105040000AD05946CC081C4206D1012663462500E9
:10505000D008490708431E40470FC000C0087F071B
:10506000074383E58318934292415C445242A5185A
:105070002A0200D524E76F07DB081F43ED08012350
:10508000D0E6C046FF070000FE070000FFFF7FFFDD
:105090005B46D2085F0766461743DD0866E52500D4
:1050A000203BDD406346202B05D0402361465B1A40
:1050B0009C402043804647467B1E9F412F43A0E5EE
:1050C00020210027091AD2E4002F00D113E75C4603
:1050D00017000025F6E5D708490702230F432D09DD
:1050E000A0E6070042E55B4601265F07DD08634650
:1050F000D20817431E4039E55B46D2085F071743C5
:10510000DD0833E51E4ADB0822405707520201251D
:105110001F43140BC2E50E0001205FE6002B0DD0EB
:105120004B465B1B9C46002D00D148E50127382BE0
:1051300000DD66E580231B041C4350E56B1C114D0C
:105140002B4200D073E65946230011438A4603439D
:1051500000E66707C00800230743E50862E6640726
:10516000FF08274305095DE6D208490711430F00F0
:1051700002232D0956E60700A4E538008FE4C04657
:10518000FFFF7FFFFE0700000B00020070B5164D09
:105190000C0382B04900002000920193240B490DBA
:1051A000DE0FA94204DD1148814203DD104BF018E7
:1051B00002B070BD8020400320430E4C641A1F2CA7
:1051C00008DD0D4B5B1AD84003005842002EEFD18A
:1051D0001800EDE7094B009A9C46030061448B40A0
:1051E000E2401343F1E7C046FE0300001D04000047
:1051F000FFFFFF7F3304000013040000EDFBFFFFFF
:1052000070B5002816D0C317C5185D40C40F28001C
:1052100000F0EEF8104B1B1A5B055B0D0A2814DC3E
:1052200002002E00153296400B22121AD5402D0393
:105230002D0B03E000240023002500261B052B4333
:10524000E40723433000190070BD0B3885402D035F
:1052500000262D0BF2E7C0461E04000070B5420286
:105260004300C40FFE201B0E591C550A08420CD0E7
:10527000E02189008C466D07120B63441B05134324
:10528000E40723432800190070BD002B14D1002D22
:105290001BD0280000F0ACF80A281CDC0B232A00E5
:1052A0001B1ADA40030015339D400E4B12031B1AE4
:1052B0005B05120B5B0DE1E7002D09D0130B80227B
:1052C00012031A436D07084BD8E700230022D5E7E5
:1052D0000022054BD2E703002A000B3B9A40002531
:1052E000E3E7C04689030000FF070000F0B54B006C
:1052F0000F035B0D3A4C450F83B07F0A5E1C2F43B2
:1053000000900191CA0FC50026420BD035495C18A8
:10531000FE2C13DDFF200023C0051843D2071043E5
:1053200003B0F0BD3D43002B01D10020F4E7002D78
:10533000F0D08023DB03FF203B43EDE7002C0CDDA6
:10534000009BFF009B01581E8341690F3B430B43A9
:10535000590727D1DB08E0B2DEE72100173131DB46
:1053600080211E2009043943001B1F282DDD022641
:105370007642341B0E00E6403400202804D01A4840
:105380008446634499400D432B00591E8B412343AF
:10539000590703D00F21194004290BD19B0100208C
:1053A0005B0AB9E70F211940042904D19B015B0A6C
:1053B000E0B2B1E7002404335901F7D501340023EA
:1053C000E0B2A9E700200023A6E7084C1C192B0037
:1053D000A540C340A140681E854129430B43D7E740
:1053E000FE07000080FCFFFFA2FCFFFF82FCFFFF26
:1053F0001C2101231B04984201D3000C10391B0A05
:10540000984201D3000A08391B09984201D30009C8
:10541000043902A2105C40187047C046040302021F
:10542000010101010000000000000000F8B52F4C50
:10543000182322687321012000F0ACFB2268182396
:105440007321022000F0A6FB226818237321032099
:1054500000F0A0FB264C182322687421012000F0E4
:1054600099FB226818237421022000F093FB226824
:1054700018237421032000F08DFB1E4C1823226892
:105480007521012000F086FB226818237521022077
:1054900000F080FB226818237521032000F07AFBBE
:1054A00000241826671C144AA400FDB212593300C8
:1054B0006F21280000F06EFB104A330012596E2154
:1054C000280000F067FB0E4A330012596D212800B6
:1054D00000F060FB0B4A330012597021280000F0E5
:1054E00059FB3C00032FDDD1F8BDC046A4020020CB
:1054F000A00200209C0200209002002084020020D4
:10550000780200206C020020374BF7B51D68374B3E
:10551000281C1968FDF7E6FB291CFDF7D5FD344969
:10552000FDF7D2FD3349FDF7CFFDFFF797FE324B74
:10553000324AFEF739FFFFF7D9FE0025304B314CD8
:105540001B682060304C019330492000FDF7DCF9E6
:105550000600E069FEF77AFB236A0093002E27D14C
:105560002B49FDF77FFF0199061C081CFDF7BAFBCC
:105570002849FDF777FF1E49FDF774FF009B071CC4
:10558000002B12DD1800FEF761FB011C381CFDF733
:1055900069FF011C301CFDF797FD1F4AAB00013568
:1055A000D0504C34032DCFD1F7BDFE218905EDE756
:1055B000FFF754FE009B06000F00002B11DD1800C2
:1055C000FEF744FBFFF74AFE0022144BFEF7ECFE09
:1055D00002000B0030003900FEF7CEFBFFF786FE1D
:1055E000DBE700200E49EFE7140000201800002040
:1055F00000007A4400A84D464F8DF13F5A643BDFCE
:1056000010000020EC010020680000203CD00008C1
:105610007F6A8C3F00D84846E00100205E846841E4
:105620000000F03F10B51D4C182322009E210120E0
:1056300000F0B0FA220018239E21022000F0AAFAFE
:1056400022009524182324019E21032000F0A2FAB1
:1056500022001823E121012000F09CFA22001823E7
:10566000E121022000F096FA22000D4C1823E121DE
:10567000032000F08FFA22001823DD21012000F022
:1056800089FA22001823DD21022000F083FA182372
:105690002200DD21032000F07DFA10BD55550000E9
:1056A000820D000010B518230022DD21012000F03A
:1056B00071FA18230022DD21022000F06BFA182372
:1056C0000022DD21032000F065FA18230022E121E9
:1056D000012000F05FFA18230022E121022000F0EF
:1056E00059FA18230022E121032000F053FA18236D
:1056F00000229E21012000F04DFA182300229E2155
:10570000022000F047FA182300229E21032000F017
:1057100041FA10BDF8B5FFF785FF892218239821BB
:105720000120520200F036FA892218239821022023
:10573000520200F02FFA89221823982103205202E6
:1057400000F028FA1023CE211A00012000F022FADE
:105750001023CE211A00022000F01CFA1023CE21C3
:105760001A00032000F016FA18238F2101205B4A4B
:1057700000F010FA18238F210220584A00F00AFA8C
:1057800018238F210320554A00F004FAFFF74EFE3C
:10579000534C182322687E21012000F0FBF9226877
:1057A00018237E21022000F0F5F9226818237E21BB
:1057B000032000F0EFF94B4C182322687F210120D1
:1057C00000F0E8F9226818237F21022000F0E2F9B6
:1057D000226818237F21032000F0DCF9424C1823B3
:1057E00022688021012000F0D5F922681823802149
:1057F000022000F0CFF9226818238021032000F056
:10580000C9F9002401271826384AFDB2125933007D
:105810007A21280000F0BEF9354A33001259792167
:10582000280000F0B7F9334A3300125978212800D4
:1058300000F0B0F9304A330012597B21280000F003
:10584000A9F92E4A330012596F21280000F0A2F95D
:105850002B4A330012596E21280000F09BF9294A87
:10586000330012596D21280000F094F9264A3300C4
:10587000125970212800043400F08CF901370C2CE7
:10588000C2D1FFF70FFFFA20400002F011FB1822EF
:105890001321012000F022F9FEF7D8F91B4C1C4D12
:1058A0002168FDF7DFFD182214212860012000F097
:1058B00015F9FEF7CBF92168FDF7D4FD154D182237
:1058C00015212860012000F009F9FEF7BFF92168D1
:1058D000FDF7C8FD104D2860F8BDC046B70B10009D
:1058E000E0020020DC020020D8020020CC020020D0
:1058F000C0020020B4020020A80200209002002074
:1059000084020020780200206C020020EC010020BC
:10591000B4090020B0090020AC09002000B518220D
:10592000A1B09821012000F0D9F862490200684630
:1059300005F03EFD6846FCF7F1FF0100684600F007
:105940001BFF0A2002F0B4FA18229821022000F06E
:10595000C5F859490200684605F02AFD6846FCF77B
:10596000DDFF0100684600F007FF0A2002F0A0FA00
:1059700018229821032000F0B1F85049020068462F
:1059800005F016FD6846FCF7C9FF0100684600F007
:10599000F3FE0A2002F08CFA1022CE21012000F042
:1059A0009DF847490200684605F002FD6846FCF78D
:1059B000B5FF0100684600F0DFFE0A2002F078FA29
:1059C0001022CE21022000F089F83E4902006846EC
:1059D00005F0EEFC6846FCF7A1FF0100684600F008
:1059E000CBFE0A2002F064FA1022CE21032000F040
:1059F00075F835490200684605F0DAFC6846FCF7A0
:105A00008DFF0100684600F0B7FE0A2002F050FA50
:105A100018222E21012000F061F82C49020068466E
:105A200005F0C6FC6846FCF779FF0100684600F007
:105A3000A3FE0A2002F03CFA18222E21022000F0D8
:105A40004DF823490200684605F0B2FC6846FCF7B1
:105A500065FF0100684600F08FFE0A2002F028FA78
:105A600018222E21032000F039F81A490200684656
:105A700005F09EFC6846FCF751FF0100684600F007
:105A80007BFE0A2002F014FA10229321012000F07C
:105A900025F811490200684605F08AFC6846FCF7C3
:105AA0003DFF0100684600F067FE0A2002F000FAA0
:105AB00021B000BD3FD0000850D0000861D00008E0
:105AC00072D0000883D0000894D00008A5D0000848
:105AD000B7D00008C9D00008DBD00008F0B587B007
:105AE0000F00150000210722040004AE02A805F0F3
:105AF00007FD07220021300005F002FD6A468223DF
:105B00001372002357721A00ED089D422DDC7D228E
:105B100002AB5B19D21B9A70022C2BD0032C2DD018
:105B2000012C05D100220221A020C00502F01AFF9D
:105B3000642217480092EB1C320002A903F044FFD4
:105B4000022C1ED0032C20D0012C05D122000221D2
:105B5000A020C00502F006FFB378F2783079120277
:105B60001B049B18C01807B0F0BD02A9C9188A70A1
:105B70000133CAE7802100220901D5E70022102164
:105B8000D2E7802101220901E2E701221021DFE7AB
:105B9000F8080020F7B5DD0804008123684603708B
:105BA0004170280000237F39C9B2684401389D4202
:105BB00026DC0223681C984228DA2B00C9436B4478
:105BC0009970022C28D0032C2AD0012C05D1002258
:105BD0000221A020C00502F0C5FE642369461548D5
:105BE000EA1C03F017FE022C1DD0032C1FD0012C41
:105BF00005D122000221A020C00502F0B3FEF7BDAE
:105C00001700DE00F74001338770CFE76A46D25CA9
:105C100001338918C9B2CEE7802100220901D8E7F3
:105C200000221021D5E7802101220901E3E70122AA
:105C30001021E0E7F8080020F7B507000826002447
:105C40000025182239000120FFF748FFC3170090F4
:105C500001930A20009A019B013EA4185D4102F0C5
:105C600027F9002EEDD10723EA171A403100100062
:105C7000001969414B07C0081843FEBD73B5FFF713
:105C8000D1FC182300227E210120FFF783FF182377
:105C900000227E210220FFF77DFF182300227E21B3
:105CA0000320FFF777FF182300227F210120FFF751
:105CB00071FF182300227F210220FFF76BFF1823BA
:105CC00000227F210320FFF765FF18230022802197
:105CD0000120FFF75FFF1823002280210220FFF739
:105CE00059FF1823002280210320FFF753FF96203D
:105CF000800002F0DDF81320FFF79EFF050014205E
:105D0000FFF79AFF04001520FFF796FF64426A42EE
:105D10002402454D240A40422C600002434C444E6C
:105D2000000A1202120A206018237E21012032602C
:105D3000FFF730FF326818237E210220FFF72AFF89
:105D4000326818237E210320FFF724FF2A681823D6
:105D50007F210120FFF71EFF2A6818237F210220E0
:105D6000FFF718FF2A6818237F210320FFF712FF8F
:105D70002268182380210120FFF70CFF22681823D6
:105D800080210220FFF706FF2268182380210320CC
:105D9000FFF700FFFA2002F08BF8326818237E210B
:105DA0000120FFF7F7FE326818237E210220FFF75B
:105DB000F1FE326818237E210320FFF7EBFE2A68EC
:105DC00018237F210120FFF7E5FE2A6818237F2191
:105DD0000220FFF7DFFE2A6818237F210320FFF748
:105DE000D9FE2268182380210120FFF7D3FE226804
:105DF000182380210220FFF7CDFE2268182380217E
:105E00000320FFF7C7FEFFF74DFC01F019FA094820
:105E10002368040001932B68782100933368064AB5
:105E200005F090FA200076BDDC020020D8020020A8
:105E3000E0020020F1010020EBD000080023F7B5BC
:105E40000500080001A9019301F0C6FC9F4B002842
:105E500000D1D7E028009E49FCF756FD041E70D003
:105E600028009C49FCF750FD041E00D1CCE028001E
:105E70009949FCF749FD994B041E00D0C2E0FFF799
:105E8000D1FB2200182375210120FFF783FE220099
:105E9000182375210220FFF77DFE182322007521AB
:105EA0000320FFF777FE9620800002F001F8182209
:105EB00015210120FFF712FEFDF7C8FE884B196877
:105EC000FDF7D0FA041C0198FFF7C8F90022854BB2
:105ED000FEF76AFAFFF758F9FFF792F90600201C5F
:105EE0000F00FFF7BBF900227E4BFEF75DFA0200C0
:105EF0000B0030003900FEF73DFDFFF745F9FDF7D7
:105F0000A5FE211CFDF7E0F8FDF780FE0400764BAE
:105F100002001860752118230120FFF73BFE1823AB
:105F2000220075210220FFF735FE1823220075217B
:105F30000320FFF72FFEFFF7B5FB01F081F96B4B54
:105F400060E0FFF76FFB2200182373210120FFF7A9
:105F500021FE2200182373210220FFF71BFE1823C5
:105F6000220073210320FFF715FE9620800001F028
:105F70009FFF182213210120FFF7B0FDFDF766FEF9
:105F8000574B1968FDF76EFA041C0198FFF766F984
:105F90000022544BFEF708FAFFF7F6F8FFF730F946
:105FA0000600201C0F00FFF759F900224D4BFEF7A9
:105FB000FBF902000B0030003900FEF7DBFCFFF7B5
:105FC000E3F8FDF743FE211CFDF77EF8FDF71EFE0A
:105FD0000400474B02001860732118230120FFF7CB
:105FE000D9FD1823220073210220FFF7D3FD1823C7
:105FF000220073210320FFF7CDFDFFF753FB01F0D3
:106000001FF93C4B1800FEBDFFF70CFB22001823C4
:1060100074210120FFF7BEFD220018237421022005
:10602000FFF7B8FD1823220074210320FFF7B2FD0B
:106030009620800001F03CFF182214210120FFF778
:106040004DFDFDF703FE264B1968FDF70BFA041C06
:106050000198FFF703F90022224BFEF7A5F9FFF79D
:1060600093F8FFF7CDF80600201C0F00FFF7F6F8B5
:1060700000221C4BFEF798F902000B00300039009B
:10608000FEF778FCFFF780F8FDF7E0FD211CFDF737
:106090001BF8FDF7BBFD0400174B020018607421CC
:1060A00018230120FFF776FD182322007421022017
:1060B000FFF770FD1823220074210320FFF76AFD0B
:1060C000FFF7F0FA01F0BCF80C4B9BE71DD100087C
:1060D0008FD1000892D1000895D1000833D1000873
:1060E000EC0100200000F0409C02002078D1000864
:1060F000A40200204AD10008A002002061D10008BB
:10610000F0B50023150085B003AA040008008F49EC
:10611000029305F06FF9280002A901F05DFB8C4B9A
:10612000002866D020008B49FCF7EEFB051E0CD042
:1061300020008949FCF7E8FB002806D020008749A9
:10614000FCF7E2FB864B002853D1039A854B013ABA
:10615000022A4ED8002D4FD1FFF764FA0398182376
:106160002A006F21C0B2FFF715FD9620800001F0D4
:106170009FFE039818220F21C0B2FFF7AFFC039CCB
:10618000FDF764FD651E784BAD00E958FDF76AF92F
:1061900001900298FFF762F80022744BFEF704F9B1
:1061A000FEF7F2FFFFF72CF8060001980F00FFF74B
:1061B00055F800226D4BFEF7F7F802000B00300097
:1061C0003900FEF7D7FBFEF7DFFFFDF73FFD019932
:1061D000FCF77AFFFDF71AFD654B02006F21E850CE
:1061E0001823E0B2FFF7D6FCFFF75CFA01F028F8BD
:1061F000604B180005B0F0BD20005749FCF784FB48
:10620000051E4DD1FFF70EFA039818232A006E21C0
:10621000C0B2FFF7BFFC9620800001F049FE039852
:1062200018220E21C0B2FFF759FC039CFDF70EFDAA
:10623000651E4D4BAD00E958FDF714F90190029829
:10624000FFF70CF80022494BFEF7AEF8FEF79CFF73
:10625000FEF7D6FF060001980F00FEF7FFFF0022B1
:10626000424BFEF7A1F802000B0030003900FEF7A8
:1062700081FBFEF789FFFDF7E9FC0199FCF724FF9C
:10628000FDF7C4FC3C4B02006E21E8501823E0B23D
:10629000FFF780FCFFF706FA00F0D2FF374BA8E7C4
:1062A00020002E49FCF730FB354B041EA1D1FFF72F
:1062B000B9F90398182322006D21C0B2FFF76AFCD8
:1062C0009620800001F0F4FD039818220D21C0B241
:1062D000FFF704FC039CFDF7B9FC651E224BAD00E3
:1062E000E958FDF7BFF801900298FEF7B7FF0022CA
:1062F0001E4BFEF759F8FEF747FFFEF781FF060039
:1063000001980F00FEF7AAFF0022184BFEF74CF889
:1063100002000B0030003900FEF72CFBFEF734FFC3
:10632000FDF794FC0199FCF7CFFEFDF76FFC154BD0
:1063300002006D21E8501823E0B2FFF72BFCFFF7B5
:10634000B1F900F07DFF104B53E7C04620D20008A2
:106350001DD1000823D2000826D2000829D2000847
:1063600098D10008AFD10008E00100200000F04003
:1063700090020020BFD1000884020020D6D100087E
:1063800004D2000878020020EDD10008F0B51022F8
:10639000D7B073210120FFF7A1FB10220400742164
:1063A0000120FFF79BFB1022050075210120FFF75C
:1063B00095FB22002B002A49009024A804F0F8FF46
:1063C00024A8FCF7ABFA010024A800F0D5F90024BA
:1063D0001026671CFDB232006F212800FFF77EFBFC
:1063E00008226B46A4009B18185132006E21280029
:1063F000FFF774FB14226B469B18185132006D2175
:106400002800FFF76BFB08AB18513C00032FE0D1CD
:10641000144924A805F079F9002408ABE3581422A4
:1064200000936B4608209B186A4612181B59125994
:106430000D490BA804F0BCFF04340BA924A805F0F7
:1064400067F80C2CE9D1094924A805F061F824A8C3
:10645000FCF764FA010024A800F08EF957B0F0BDF3
:106460002CD2000841D200084BD200086AD30008A1
:1064700070B5134CA8B0226807AD0123102103A802
:1064800001F028FA0BAE626801231021280001F008
:1064900021FAA26801231021300001F01BFA094AF9
:1064A00003AB6421019600950FA804F04BFF0FA8E1
:1064B000FCF734FA01000FA800F05EF928B070BDB7
:1064C000A009002059D2000870B5134CAAB0226868
:1064D00007AD0623142102A801F0FCF90CAE626896
:1064E00006231421280001F0F5F9A26806231421DF
:1064F000300001F0EFF9094A02AB642101960095E2
:1065000011A804F01FFF11A8FCF708FA010011A858
:1065100000F032F92AB070BD8809002065D2000869
:106520000021F0B5314BD9B01B780991013BDAB2AB
:10653000022A00D809932E4A0123102112680AA8C2
:1065400001F0C8F92B4A0123102112680EA801F0AE
:10655000C1F9294A01231021126812A801F0BAF9E1
:10656000099B264E9C00A2590223102116A801F077
:10657000B1F9234F0223E25910211AA801F0AAF918
:10658000204D0223625910211EA801F0A3F9E15900
:10659000A059FCF7A7FB6159FCF7A4FB22AC021C35
:1065A00002231021200001F095F91EA905911AA9D6
:1065B000049116A9039112A9099B02910EA90191B8
:1065C0000AA9114A013300910694C82126A804F0B3
:1065D000B9FE26A8FCF7A2F9010026A800F0CCF825
:1065E000322001F065FC59B0F0BDC0461C0000200F
:1065F000B4090020B0090020AC090020D009002017
:10660000C4090020B809002071D20008F0B5182292
:10661000EDB013210120FFF761FA182207001421C1
:106620000120FFF75BFA1822039015210120FFF7E4
:1066300055FA182205000F210120FFF74FFA182202
:1066400004900E210120FFF749FA182205900D2130
:106650000120FFF743FA182204004B210120FFF725
:106660003DFA182206904B210220FFF737FA182234
:1066700007904B210320FFF731FA06003A00039BF5
:106680001349009508A804F093FE059B049A11494C
:1066900000943AA804F08CFE3AA908A804F038FF48
:1066A000079B069A0C4900963AA804F081FE3AA985
:1066B00008A804F02DFF094908A804F029FF08A83C
:1066C000FCF72CF9010008A800F056F86DB0F0BDF9
:1066D000D1D20008E7D20008F7D200086AD3000838
:1066E00070B58025064CAD002A000021200004F082
:1066F00007FF2A002100034804F08EFC70BDC0464D
:10670000E503002018080020F8B50C1E1EDD8023CC
:106710005B00994200DD1C000D4B0E4E3278D7B263
:10672000002A10D10C4D01002200280004F0F5FFD2
:10673000012329000948A2B2337003F045FC002868
:1067400004D0377002E0013B002BE7D1F8BDC04612
:1067500020A10700E4030020E40200201808002024
:10676000034B834202D10022024B1A707047C0468D
:1067700018080020E403002010B5FFF7C5FF10BD86
:10678000F0B58026714C6422A54405900F0006A840
:1067900000211FACFFAD04F0B3FEC435642200211C
:1067A0002000B60004F0ACFE32000021280004F006
:1067B000A7FE6422002138A804F0A2FE6422002172
:1067C00051A804F09DFEB422002183A804F098FE95
:1067D0005F4B059A9A4250D13B1CB74201D35D4BA7
:1067E0001B889EB2B0AF32005B49380004F095FFC1
:1067F0000023BB55FFF774FF51AB029338AB0193F5
:10680000380023005549009506AA04F0F3FD00283E
:1068100033DD02AB1B7C06AA002B35D1504906A8FC
:10682000FCF772F8434258414326404206404D4926
:1068300006A8FCF769F8002800D153264A4906A8A3
:10684000FCF762F8002800D16EE0532E66D0432E8C
:1068500000D06EE020004549FCF756F800281AD118
:10686000FFF70CFA01006AA804F04FFF6AA8FCF7D2
:1068700055F801006AA8FFF747FF3D4B9D44F0BD66
:10688000303B0132092BC9D81378002BF8D123787B
:10689000002BC3D1F1E720003649FCF735F800287A
:1068A0000BD020003449FCF72FF8002805D0200039
:1068B0003249FCF729F8002804D129002000FFF70D
:1068C000BDFACFE720002E49FCF71EF800280BD0B8
:1068D00020002C49FCF718F8002805D020002A4990
:1068E000FCF712F8002805D12900200038AAFFF78C
:1068F00007FCB7E720002549FCF706F8002802D17D
:10690000280038A9DBE722492000FBF7FDFF2149D9
:106910000028A8D1280051AA38A9E8E729002000BA
:1069200038AA00F045F89DE72900200000F0F4F9AE
:1069300098E7B4213B00184A83A804F003FD83A81C
:10694000FBF7ECFF010083A895E7C0463CF9FFFF89
:106950001808002064D70008E50300200CD30008C5
:1069600026D3000874D400082AD300082ED30008C8
:10697000C40600008FD1000892D1000895D100080C
:1069800023D2000826D2000829D2000835D30008F7
:10699000B6D4000837D300084BD30008034B10B51A
:1069A000834201D1FFF79CFE10BDC04618080020AD
:1069B000F0B50C0099B0A54905001600FBF7A4FF3F
:1069C00000280ED10124FEF79FFDA14B1C70FEF79D
:1069D000A1FEFEF7A3FF9F4B1C709F4B180019B040
:1069E000F0BD28009D49FBF78FFF002800D08BE009
:1069F000230020221F78002F0BD1994E2000310058
:106A000004F0A8FD0500002D12D0182F06D1954BDB
:106A1000E4E73A2F00D11A700133EBE76A46BB0076
:106A2000310000209D5004F095FD01370500EAE794
:106A30008C4B112FD2D18C4C1F222000009904F0D6
:106A400074FD8A4E132201993000E57704F06DFD44
:106A500013220299864804F068FD132203998548A1
:106A600004F063FD049F844D13223900280004F0D4
:106A70005CFD824C13223900200004F056FD1322E5
:106A800039007F4804F051FD132205997D4804F038
:106A90004CFD132206997C4804F047FD1322079908
:106AA0007A4804F042FD089804F0E7FA7064099807
:106AB00004F0E3FA3300903318600A9804F0DDFA2A
:106AC0003300DC3318600B9804F0D7FAB0640C98EC
:106AD00004F0D3FA803528600D9804F0CEFA8034A3
:106AE00007220E9920606A4804F01FFD07220F99C3
:106AF000684804F01AFD07221099674804F015FD54
:106B000000F088FB654B69E728006549FBF7FCFE50
:106B100000283AD120006349FBF7F6FE00281CD17B
:106B200030006149FBF7F0FE00280DD030005F49CE
:106B3000FBF7EAFE002807D030005D49FBF7E4FED2
:106B40005C4B002800D049E732785B4B303A1A7032
:106B500000225A4B1A705A4B40E720005949FBF764
:106B6000D3FE002804D10122544B1A70564B35E74E
:106B700020005649FBF7C8FE554B002800D02DE7F2
:106B800002224E4B1A70534B28E728005249FBF75C
:106B9000BBFE00280BD028005049FBF7B5FE0028AB
:106BA00005D028004E49FBF7AFFE00280FD14D4B12
:106BB0004D4A1A60BFF34F8FBFF36F8FBFF34F8FF4
:106BC0004A4B4B4ADA60BFF34F8FC046FDE72800BF
:106BD0004849FBF799FE484B002800D0FEE620000C
:106BE0004649FBF791FE002813D1454C07222100AE
:106BF000274804F09AFC07222100264804F095FC5F
:106C000007222100244804F090FC00F003FB3D4BD8
:106C1000E4E620003C49FBF777FE3C4B002800D01F
:106C2000DCE63B4C07222100194804F07EFC0722D9
:106C30002100184804F079FC07222100164804F0CE
:106C400074FC00F0E7FA334BC8E6C04672D4000883
:106C500025070020F00100206CD3000878D400083C
:106C60001AD7000882D300081E0000204000002030
:106C70008C000020D800002054000020A00000203C
:106C8000EC00002068000020B4000020000100207B
:106C90007C000020C8000020140100209AD30008C6
:106CA000A0D4000826D300087FD40008D9D5000856
:106CB00081D40008AAD300081C0000201D00002079
:106CC000C9D3000883D40008F1D3000887D4000892
:106CD0001DD4000807D400088BD4000890D4000805
:106CE0009BD4000800000020AD1007B000ED00E0CC
:106CF0000400FA05A5D4000804D20008AAD40008AC
:106D0000AFD4000831D40008B4D400085ED4000821
:106D1000B8D4000848D40008F0B5A3B010AD040002
:106D20002A00784B43CB43C220007749FBF7ECFDA8
:106D3000002805D1FFF72AFB744A100023B0F0BDEC
:106D400020007349FBF7E0FD724A0028F5D02000CF
:106D50007149FBF7D9FD002803D1FEF7DFFD6F4A2B
:106D6000EBE720006E49FBF7CFFD002830D16D49DD
:106D70006D4C0F916D496E4B0E916E496E4A0D919F
:106D80006E4924680D000C9494352D680C000B9509
:106D90008D6C14340A950D00DC352D686848099512
:106DA0000D0090352D6808954D6C03940795654D41
:106DB000654C0695654D02940595654D0495654CA9
:106DC0000091A0210194490004F0BCFA5C4AB4E7A8
:106DD00020006149FBF798FD002811D15F4B604A04
:106DE0001B78002BA9D05F4A012BA6D05E4A022B4C
:106DF000A3D0A0215D4A4900514804F0A3FAE5E779
:106E000020005B49FBF780FD00280BD14549494B29
:106E100001914649574A4A480091A021490004F08F
:106E200091FAD3E720005449FBF76EFD534A041E44
:106E300000D082E7414E706CFCF708FFFC21890509
:106E4000FCF710FB4E49FCF73FF9A7000134E8516D
:106E50004C36032CEFD1FEF7E5FB0122182310007E
:106E60009D21FEF797FE182301229D210220FEF7A7
:106E700091FE1823200001229D21FEF78BFEFEF7D4
:106E800011FC18222F210120FEF728FE18220600EF
:106E90002F210220FEF722FE182207002F212000BA
:106EA000FEF71CFE04003800FCF720FF6968FCF7C1
:106EB000D9FA071C2000FCF719FFA968FCF7D2FAE1
:106EC000041C3000FCF712FF1099FCF7CBFA18AD48
:106ED000021C0623142113A800F0FCFC1DAE06239F
:106EE00014213A1C280000F0F5FC0623221C142172
:106EF000300000F0EFFC234A11480196009513ABD7
:106F00008BE7C04668CF000826D30008BCD4000831
:106F100056D50008CDD4000887D4000827D500082E
:106F200078D400081401002020010020C8000020AF
:106F30001E0000207C0000205DD5000840000020DD
:106F4000E505002000010020D8000020B40000204A
:106F5000680000208C000020A0D400081D00002044
:106F600038D5000842D500084CD5000898D500084F
:106F7000A5D40008A1D50008B0D5000804D20008A7
:106F800000007A44B7D5000870B5B62504006D003E
:106F90002A00002104F0B4FA012620002C4B666080
:106FA0002360A56013222B490C3004F0BEFA2000A8
:106FB00013222949583004F0B8FA20001322274937
:106FC000A43004F0B2FA2000254D132229003430F9
:106FD00004F0ABFA200029001322803004F0A5FA57
:106FE000200029001322CC3004F09FFA20001D4D10
:106FF00013222900203004F098FA200029001322DF
:107000006C3004F092FA200029001322B83004F00A
:107010008CFA2000144D07222900483004F085FA2C
:10702000200029000722943004F07FFA2000290074
:107030000722E03004F079FAFA2322009B0066650B
:1070400023659C32EC3456601360D364266070BDB7
:10705000504C4731C3D50008C9D50008CFD500082A
:107060003CD00008D5D50008B8D40008F0B505001C
:10707000012302000126082069350A4FFF355B42D3
:1070800011784B4001001C003440644201393C40FF
:107090005B08C9B263400029F5D10132AA42EFD1A1
:1070A000D843F0BD2083B8ED0023F0B53A4FE3B0EC
:1070B0003C880193394E631E9BB20100B34219D83C
:1070C000374B6408E402E418B6256D002A0007A8CF
:1070D00004F023FB334B07A807930123099508937A
:1070E000FFF7C4FF619001F0A9FA011E04D000204F
:1070F00063B0F0BD2C4CE7E7082205A804F000FAC5
:107100000223398804934A1E92B23D33B24201D819
:107110004B08013B0593012301A904A80693002510
:1071200001F01EFBA84202D001F09AFADFE701222B
:107130005242D31702920393B6235B005A1B082ACC
:1071400000D9082207AB591902A804F0E6FA029AFE
:10715000039B0120291901F0BFFA0028E4D1B823CC
:1071600008355B009D42E2D101F07AFA0028BED1D9
:107170003888431E9BB2B3420CD8094B4008C0026A
:10718000C018B62207A9520004F0ACF94342584196
:10719000C0B2ADE70448F4E7A075FF1FFDFF000093
:1071A00000F8FF07504C473100F80108144B154A0E
:1071B000198870B54B1E9BB2040093421ED8124B27
:1071C0004908C902C918B6256D002A00200004F03C
:1071D000A4FA0E4B226800209A420ED16368012B5C
:1071E0000BD1A368AB4208D12000FFF73FFFFC346E
:1071F000E36E181A42425041C0B270BD0449E2E742
:10720000A075FF1FFDFF000000F8FF07504C47313D
:1072100000F8010800B5DDB001A8FFF7C7FF00289E
:1072200002D101A8FFF7B0FEE422044904A804F04B
:1072300074FA01A8FFF738FF5DB000BD40000020E0
:1072400030B5DDB001A8FFF7B1FF002802D101A8D9
:10725000FFF79AFE184B194A1B683D93184B1B68A1
:107260003E93184B1B683F9340AB190031CA31C1A4
:10727000154A31CA31C1154A31CA31C1144A31CA1D
:1072800031C1144A144B12684C92144A12684D9240
:10729000134A12684E924FAA13CB13C2114B13CB51
:1072A00013C2114B13CB13C2104B13CB13C201A843
:1072B000FFF7FAFE5DB030BDA4020020900200206E
:1072C000A00200209C0200208402002078020020FE
:1072D0006C020020E0020020CC020020DC02002032
:1072E000D8020020C0020020B4020020A802002022
:1072F00000B5DDB001A8FFF759FF002807D0E42250
:10730000074804A904F009FA01205DB000BD01A8F6
:10731000FFF73AFE01A8FFF7C7FE0028EFD1F4E718
:107320004000002070B5DCB001A8FFF73FFF002847
:107330002FD03D9A1B4B1A603E9A1B4B1A603F9A06
:107340001A4B1A6040AB1900194A70C970C2194A29
:1073500070C970C2184A70C970C2184A70C970C228
:10736000174A4C994E9B11604D99164A1160164A66
:107370001360164B4FAA31CA31C3154B31CA31C302
:10738000144B31CA31C3144B31CA31C301205CB034
:1073900070BD01A8FFF7F8FD01A8FFF785FE0028E2
:1073A000C7D1F4E7A4020020A00200209C02002024
:1073B0009002002084020020780200206C0200204D
:1073C000E0020020DC020020D8020020CC020020D5
:1073D000C0020020B4020020A802002030B507251A
:1073E00001248FB01C22002107A804F089F8142280
:1073F000002101A804F084F8114A06A81368AB43E1
:10740000234313600A230693F633099300230A9358
:1074100040330B930C9401F0B3FA002801D072B6FC
:10742000FEE70290039004900590210001A80195C9
:1074300001F048FC002801D072B6FEE70FB030BD65
:1074400000200240F0B5C7B03E22D04914A804F095
:1074500064F98E2026220021684404F051F83E226F
:10746000CB492DA804F059F9F220262200216844C6
:1074700004F046F800F0CCFEFFF7B0FF1422002124
:107480000AA804F03DF8042201250224A020C14EE0
:107490002100736BC00513437363736B8127134023
:1074A0000293029B736B00222B437363736B3F0148
:1074B0002B400393039B736B23437363736B2340D2
:1074C0000493049B01F04EFAA02039002A00C00565
:1074D00001F048FA80210022AF48490001F042FA49
:1074E000A0200A9400240AA9C0050B950C940D94C1
:1074F00001F07EF9A0200AA9C0050A970B950C950A
:107500000D9401F075F98023A3485B000AA90A9342
:107510000B950C940D9401F06BF9B36B22002B4387
:10752000B363B36B21002B4009200193019B00F052
:107530008DFE092000F0B4FE822398485B00436072
:10754000E023DB00C360802328279B00944E8361E7
:10755000FA3BFF3B0660846004614561C7610462D9
:1075600044628462C3620463446302F0DBF8A042B5
:1075700001D072B6FEE78B4C8B4BA0602360E123F9
:107580001B0363600C23E0602061A061E061206266
:107590006062A0622000636103F0E4FB011E01D081
:1075A00072B6FEE7200003F0F5FC011E01D072B6B2
:1075B000FEE7200003F00EFD002801D072B6FEE7C2
:1075C000200003F0C9FC041E01D072B6FEE70100E2
:1075D000142205A803F094FF3A0021000AA80094A1
:1075E00003F08EFF714F724B38003B607F23BB600E
:1075F0007A33FB608023DB057C603C617C61BC618D
:10760000FB613C6201F096FD002801D072B6FEE7F6
:107610006B462A009882987505A9069008900990F3
:10762000380001F0E1FD002801D072B6FEE7614BA1
:107630002A0069463800009301F03EFE002801D080
:1076400072B6FEE76B462A2218859B1818705A4BB3
:107650000B900F9329236B440D900E901090119076
:10766000DD7780232A005B0038000AA9139301F01C
:1076700075FE002801D072B6FEE700F0DFFF00289B
:1076800001D072B6FEE700F0EBFF071E01D072B624
:10769000FEE70C24010010220AA803F031FF2200AB
:1076A000390005A803F02CFF444D454B28002B6002
:1076B0002F236B60434BAF60EB602F616F61AF6155
:1076C00002F030FB002801D072B6FEE780232800CC
:1076D0005B010AA90A9302F05BFB002801D072B695
:1076E000FEE705900690079005A9280002F0E8FB48
:1076F000031E01D072B6FEE73348344A836002604D
:10770000E12212034260C360036144618361C3618B
:1077100003624362836203F025FB002801D072B646
:10772000FEE714A8FBF7FAF8010014A8FFF724F805
:10773000FA20400000F0BCFB2DA8FBF7EFF8010099
:107740002DA8FFF719F84023326813433360FEF782
:10775000C7FF164800F010FBFFF7CAFDFFF7E2FD78
:10776000FDF7D2FE052000F0A3FBFDF7D3FF0520B7
:1077700000F09EFB0122164B1A70FEF7CFF8052091
:1077800000F096FB00F0A6FBFCE7C046DBD5000846
:1077900019D600080010024000040050F80800202C
:1077A0000030014018080020003801405C0900202A
:1077B000002800400101010080808080AC0800208A
:1077C000002C0140FFFF000084070020004400401F
:1077D0002507002072B6FEE7F0B585B00300041E51
:1077E00002916DD00C1E6BD00821384E1A78B05C17
:1077F00008420BD12D2A0BD12E3A013303920024DB
:10780000012204200A27944601940FE00133EDE79A
:1078100001212B3A039151424A419B18EFE76446FC
:107820000199013379433039521801921A78B55CC5
:10783000290001400542F2D1012508002E2A09D174
:10784000224A0A2194465B19664604271A78B65CD8
:107850003E4203D11D4A082194460AE01C4CA54231
:1078600003D848434D433038801801240133EBE7F7
:10787000013366461A78B65C37000F400E42F7D1E6
:10788000002C1DD0002A1ED1FCF730FA061C28005F
:10789000FCF72CFA011C301CFBF716FC051C0198A8
:1078A000FCF724FA011C281CFBF71CFA051C0398A2
:1078B000FCF7CCF9011C281CFBF7D4FD029B1860D7
:1078C000200005B0F0BD3C00FAE7C046F5D700083F
:1078D0003F420F00F0B5050089B00E00101C0021DA
:1078E000141C0593FBF7BEF980231B06E3180693CF
:1078F000002800D10694002D02D1002009B0F0BD6F
:10790000002EFAD0211C201CFCF76AF900280DD1AA
:1079100067007F082E49381CFCF762F900280DD15A
:107920002B49381CFBF7A8F9002807D130232B700E
:10793000012EE2D0002301206B70DFE76B46059A31
:107940001B7D062A00D90623DBB2079301270023FB
:107950000A2207998B4226D13800FCF7C7F906990D
:10796000FBF780FDFC218905FBF7BCF9FBF7A2F9C9
:107970003900FBF775F8059B07000691201C0021D4
:10798000002B14D1FBF76EF9124B002800D1124BDB
:1079900031002800114A009703F0D4FC0028ADDA2A
:1079A00000232B70A9E701335743DBB2D1E7FBF784
:1079B00059F9084B002800D1074B0699280002917D
:1079C0000799074A01910097310003F0BBFCE5E7F6
:1079D000FFFF7F7F5CD700086BD3000857D60008F5
:1079E0005DD6000807B501210C4B04201A6C0A4330
:1079F0001A641A6C0A4080210092009ADA6B4905D9
:107A00000A43DA630022DB6B0B4001931100019BF8
:107A100000F01CFC042000F043FC07BD00100240F5
:107A200010B504008AB02022002102A803F068FDEE
:107A3000144B22689A4222D140230293C133FF3370
:107A400002A8099301F01AFA002801D0FFF7C2FE3C
:107A500080220D4B1202D96D02200A438021DA6583
:107A6000DA6BC9000A43DA63DB6B00220B40019337
:107A70000121019B00F0EAFB022000F011FC0AB09A
:107A800010BDC046002800400010024010B50400A0
:107A900090B01422002103A803F032FD202200211F
:107AA00008A803F02DFD174B22689A4227D1042322
:107AB00008A8089301F0E2F9002801D0FFF78AFE38
:107AC0008021114B49011A6CA0200A431A641A6CD8
:107AD000C0050A4001210192019A5A6B0A435A6378
:107AE0005B6B0B400293029BE0230393DE3B04930A
:107AF000002303A905930693079300F079FE10B0C5
:107B000010BDC0460030014000100240084B026822
:107B100082B09A4209D18021064B09011A6C0A43AE
:107B20001A641B6C0B400193019B02B07047C04666
:107B3000002C01400010024070B5060092B01422E3
:107B4000002105A803F0DCFC202200210AA803F094
:107B5000D7FC33683F4A934255D101230AA80A93C0
:107B600001F08CF9002801D0FFF734FE80213A4B58
:107B7000C9011A6CA0200A431A641A6C00250A4035
:107B80000192019A0122596B0224114359635B6BE4
:107B900005A913400293029B0423C0050592069495
:107BA00009930795089500F023FE8023A0205B0031
:107BB0000593C005F23B05A906940993079508951E
:107BC00000F016FE254C264B200023603323636013
:107BD000233BA3607033E56023616561A561E561C6
:107BE000256200F0BDFBA84201D0FFF7F3FD0022A3
:107BF0001B201100F467A66200F028FB1B2000F098
:107C00004FFB12B070BD174A9342FAD18021124B3C
:107C10008902DA6BA0200A43DA63DA6BC0050A40F6
:107C20000392039A0122596B114359635B6B05A9B7
:107C300013400493049B0C2305930A3B069309927B
:107C400000F0D6FD00221C20110000F0FFFA1C20DD
:107C5000D5E7C04600380140001002402807002048
:107C60000800024000440040FEE7FEE7704770470E
:107C700010B500F0D9FA10BD10B5024801F0D6F9E0
:107C800010BDC0465C0900207047000010B50248D6
:107C900000F080FC10BDC0462807002010B5024847
:107CA00002F046FA10BDC0461808002010B5024880
:107CB00002F03EFA10BDC046840700200120704744
:107CC00010B503F0F5FC162303600120404210BDFF
:107CD00010B503F0EDFC16230360FEE770B50E004F
:107CE00014000025A54201DB200070BD00E000BFAC
:107CF00070550135F6E770B50E0014000025A54259
:107D000001DB200070BD705D00E000BF0135F6E7CB
:107D100001204042704780239B0100204B60704748
:107D200001207047002070470B490C4A0300521A8B
:107D30000B4910B50868002801D10A480860086896
:107D4000C318934206D903F0B3FC0C23036001204F
:107D5000404210BD0B60FCE7000400000060002002
:107D600084090020480B0020014B024A9A607047AA
:107D700000ED00E000280008F0B50027060093B0F1
:107D800003AC14220021200008AD03F0B9FB282227
:107D900039002800029703F0B3FB3A0021003000BD
:107DA00001F08AFBB84201D0FFF714FD0022300039
:107DB00002A901F0A9FB002801D0FFF70BFDA07874
:107DC00002A90130C0B2A0706278237889783B287C
:107DD00006D900200132D2B2A0703B2A25D86270A9
:107DE000A3782288AB7000232A806B60EB706B61F4
:107DF000AB61EB6102AB9A78192302A95B18802171
:107E000030004900DA77696201F0CEF8002801D02D
:107E1000FFF7E0FC00222900300001F09FFA002863
:107E200001D0FFF7D7FC13B0F0BD0133DBB26070B7
:107E3000172B01D82370D3E70131CBB20193019AFC
:107E400002AB9A701B7820700133DBB2072B00D98C
:107E5000012302AA137013005278D8781F23112A25
:107E60000FD8124B01279C46974061461E230F42B4
:107E700007D10133022A04D11C3B03405F427B41FE
:107E80001C3301999942ABD90123D21802A9D2B26D
:107E90008B70122A01D84A70A2E702AA537064219B
:107EA0000130FAF7DDFD02ABD97099E7500202000C
:107EB00070B5074D0400280001F0C4FE0A2000221E
:107EC00060432B685A625A6A8242FCD370BDC04636
:107ED000AC080020F0B589B0864A1378002B01D198
:107EE00009B0F0BD72B61378002B03D01378013BB4
:107EF000DBB2137062B600247F4D631C01936B46A6
:107F00001E7918220F213000FDF7E8FDFBF79EFED9
:107F10002968FBF7A7FA794FA400E71918220E2168
:107F200038603000FDF7DAFDFBF790FE2968FBF7BB
:107F300099FA734F1822E7190D2138603000FDF7C8
:107F4000CDFD704BE418FBF781FE02CDFBF78AFAFA
:107F50002060019C032CD0D16B4B6C491C680293B0
:107F6000201CFAF77FFE002800D09FE00394684BA6
:107F700066491C68201CFAF775FE002800D098E0BE
:107F80000494644B61491C68201CFAF76BFE0028BE
:107F900000D091E0059400255F4B604F0193604B4A
:107FA000604E069313206843069B5F49C018FAF79A
:107FB000ABFC524B079059590398FBF753FA079BB8
:107FC000041C002B12D04E4B04985959FBF74AFA67
:107FD000211CFAF787FE4B4B041C59590598FBF7F7
:107FE00041FA011C201CFAF77DFE041C019B31683C
:107FF00010C3201C0193FAF775FEFC218905FBF7DD
:1080000031FA4A49FBF760F8011C3868FAF76AFE52
:10801000043501C710C60C2DC4D1454B1B78012B6C
:108020004DD1444D444C2B7822780133DBB20132E0
:108030002B7022700F2B03D1FEF71AFA00232B703E
:1080400023781E2B00D047E7182213210120FDF7CB
:1080500045FDFBF7FBFD394D2968FBF703FA029B51
:108060001822186014210120FDF738FDFBF7EEFD02
:108070002968FBF7F7F9264E1822152130600120F8
:10808000FDF72CFDFBF7E2FD2968FBF7EBF9214E2C
:1080900030601420FFF70CFFFEF716FA00221F4B8A
:1080A0001A605A609A600023237015E7174B0393F8
:1080B0005DE7164B049364E7144B05936BE7022BC3
:1080C00011D11C4A1C4C13780133137023780133EF
:1080D000DBB223701E2B00D0FEE63220FFF7E8FE55
:1080E000FEF794FADFE7002B00D0F5E6FEF718FA6A
:1080F000F2E6C046DC090020E0010020D0090020A3
:10810000C4090020B8090020B4090020000066431B
:10811000B0090020AC090020A00900208809002037
:108120007C00002094090020AFD4000800006145C5
:108130001D000020DE090020DD090020EC010020E8
:1081400010B5FFF719FE80210648490000F010FC29
:10815000054A1378FF2B03D013780133DBB2137079
:1081600010BDC04600040050DC0900200D488546C3
:10817000FFF7FAFD002103E00B4B5B58435004313D
:108180000A480B4B42189A42F6D30A4A02E00023EF
:1081900013600432084B9A42F9D303F08FFAFFF7C9
:1081A00051F9FEE70060002000D90008100000200F
:1081B000C4010020C4010020480B0020FEE700009D
:1081C00070B5104B05001978002901D1012070BD50
:1081D000FA208000FAF7BEFB0B4C01002068FAF78A
:1081E000B9FB00F069F8041EF0D1032DEED80200AF
:1081F00001202900404200F029F8044B20001D60B6
:10820000E5E7C04628010020240100202C010020C1
:1082100010B50320FFF7D4FF041E03D1FFF7E2FBE4
:10822000200010BD0124FBE7034A044B11681B78B2
:108230005B1813607047C046E00900202801002049
:10824000014B18687047C046E009002010B5FF24B4
:1082500003220B0021000240D20091409B012340E9
:10826000C943934000280ADBC0240B4A80088000E1
:108270008018A40002590A401343035110BD0F2275
:1082800010400838054A800880008018C2691140F3
:108290001943C161F2E7C04600E100E000ED00E0F3
:1082A000002805DB1F2318401E3B8340014A136052
:1082B0007047C04600E100E08022431E52040120C6
:1082C00093420DD2C021074A07485360036A09064A
:1082D0001B021B0A0B4303620020072390601360FC
