:020000040800F2
:1028000000600020518A00086D8400086F84000871
:1028100000000000000000000000000000000000B8
:1028200000000000000000000000000071840008AB
:102830000000000000000000738400087584000898
:10284000A18A0008A18A00087D840008A18A0008E6
:102850008D840008A18A0008A18A0008A18A0008C6
:10286000A18A000891840008A18A0008A18A0008B2
:10287000A18A0008A18A0008A18A0008A18A00088C
:10288000A18A00080000000000000000A18A0008E2
:1028900000000000A18A0008A18A0008A18A00089F
:1028A000A18A0008A18A0008A18A0008A184000862
:1028B000B1840008000000000000000000000000DB
:1028C00010B5064C2378002B07D1054B002B02D006
:1028D000044800E000BF0123237010BD5003002016
:1028E00000000000E8D20008044B10B5002B03D014
:1028F0000349044800E000BF10BDC04600000000CE
:1029000054030020E8D2000802780B78002A03D094
:10291000013001319A42F7D0D01A70470023C25CCF
:102920000133002AFBD1581E7047000002B47146E3
:1029300049084900095C49008E4402BC7047C04602
:1029400003B47146490840004900095E49008E44BD
:1029500003BC7047002243088B4274D303098B42A7
:102960005FD3030A8B4244D3030B8B4228D3030C5F
:102970008B420DD3FF22090212BA030C8B4202D301
:102980001212090265D0030B8B4219D300E0090A29
:10299000C30B8B4201D3CB03C01A5241830B8B4232
:1029A00001D38B03C01A5241430B8B4201D34B031B
:1029B000C01A5241030B8B4201D30B03C01A524180
:1029C000C30A8B4201D3CB02C01A5241830A8B4205
:1029D00001D38B02C01A5241430A8B4201D34B02EE
:1029E000C01A5241030A8B4201D30B02C01A524152
:1029F000CDD2C3098B4201D3CB01C01A5241830906
:102A00008B4201D38B01C01A524143098B4201D33F
:102A10004B01C01A524103098B4201D30B01C01A6A
:102A20005241C3088B4201D3CB00C01A52418308E4
:102A30008B4201D38B00C01A524143088B4201D311
:102A40004B00C01A5241411A00D201465241104671
:102A50007047FFE701B5002000F0F0F802BDC04666
:102A60000029F7D076E7704703460B437FD4002256
:102A700043088B4274D303098B425FD3030A8B4212
:102A800044D3030B8B4228D3030C8B420DD3FF227C
:102A9000090212BA030C8B4202D31212090265D04A
:102AA000030B8B4219D300E0090AC30B8B4201D3FD
:102AB000CB03C01A5241830B8B4201D38B03C01A44
:102AC0005241430B8B4201D34B03C01A5241030BBB
:102AD0008B4201D30B03C01A5241C30A8B4201D36C
:102AE000CB02C01A5241830A8B4201D38B02C01A17
:102AF0005241430A8B4201D34B02C01A5241030A8E
:102B00008B4201D30B02C01A5241CDD2C3098B4272
:102B100001D3CB01C01A524183098B4201D38B01EF
:102B2000C01A524143098B4201D34B01C01A524192
:102B300003098B4201D30B01C01A5241C3088B42D7
:102B400001D3CB00C01A524183088B4201D38B00C2
:102B5000C01A524143088B4201D34B00C01A524164
:102B6000411A00D201465241104670475DE0CA0F3B
:102B700000D04942031000D34042534000229C46FB
:102B800003098B422DD3030A8B4212D3FC22890105
:102B900012BA030A8B420CD3890192118B4208D3DB
:102BA000890192118B4204D389013AD0921100E03D
:102BB0008909C3098B4201D3CB01C01A5241830951
:102BC0008B4201D38B01C01A524143098B4201D37E
:102BD0004B01C01A524103098B4201D30B01C01AA9
:102BE0005241C3088B4201D3CB00C01A5241830823
:102BF0008B4201D38B00C01A5241D9D243088B4279
:102C000001D34B00C01A5241411A00D2014663461B
:102C100052415B10104601D34042002B00D549427F
:102C2000704763465B1000D3404201B5002000F0BE
:102C300005F802BD0029F8D016E770477047C04676
:102C4000844608006146FFE71FB500F0C3FB00287B
:102C500001D40021C8421FBD10B500F04BFB40421B
:102C6000013010BD10B500F0B5FB002801DB0020DD
:102C700010BD012010BDC04610B500F0ABFB002810
:102C800001DD002010BD012010BDC04610B500F0D0
:102C900059FB002801DC002010BD012010BDC046FA
:102CA00010B500F04FFB002801DA002010BD012014
:102CB00010BDC0469E2110B5C905041CFFF7F0FFEA
:102CC000002803D1201C00F0A1FF10BD9E21201C74
:102CD000C90500F021FD00F099FF80231B069C46EA
:102CE0006044F2E7F8B54B025A0A94464A00C90F0D
:102CF000CE4647468946450046022D0E120E80B547
:102D00009909770AC40FB609AB1A4C4520D0002B9D
:102D10000CDD002A34D100292AD05A1E012B00D103
:102D20008FE0FF2B00D1CDE013002FE0002B60D00F
:102D3000531B002D00D0EEE0002E00D13EE15C1EC2
:102D4000012B00D16BE1FF2B00D1B9E02300E7E0BC
:102D5000002B00DCA4E0002A69D0FF2D00D1B1E0F7
:102D60008022D20411431B2B00DCE9E02B00053646
:102D7000F708FF2B00D1A5E07A02520AD8B230E062
:102D8000FF2D00D19EE08022D204114301201B2B95
:102D900008DC08002022D840D31A99400B005A1EA4
:102DA00093411843361A730100D471E0B601B70994
:102DB000380002F005F83B000538834085424DDDC0
:102DC000B44E2D1A1E405A0768D00F221340042B10
:102DD00064D00436730161D5681CFE2D54D1FF20E8
:102DE0000022C0051043E4072043C0BCB946B046EA
:102DF000F8BDFE229046681C0200404610426BD18E
:102E0000002D00D0DDE0002E00D102E10029B3D07A
:102E10008022771AD204174200D136E14C468E1B2D
:102E200061D00120164230D10023F708A4E7002921
:102E30009ED05A1E012B00D1CAE0FF2B42D01300B6
:102E400091E7711A4B0100D4D1E08F01BF0938001E
:102E500001F0B6FF3B000538834001252022401BCE
:102E60000130121A1E009340C6405A1E93411E4361
:102E700039D0730700D11BE10F2300253340042B09
:102E8000A7D1012072017CD5C0B2B201520AA8E7D5
:102E9000730703D00F233340042B9AD12B0067E72D
:102EA000002B23D0531B002D7BD1002E00D186E0B8
:102EB0005D1E012B00D18BE0FF2B02D02B0075E0B3
:102EC0004C466746002F00D189E78022D2033A435F
:102ED0005202FF20520A84E7771A7B016BD4002F3D
:102EE00000D065E70024002000227AE7FE226B1C58
:102EF0001A4249D1002D00D09FE0002E00D1BAE047
:102F0000002900D1CFE07218530100D4CDE0920126
:102F10000120520A65E7FF2AD2D08020C004064370
:102F200001201B2B08DC30002024D840E31A9E40EF
:102F300033005C1EA34118434C4615000E1A32E7BD
:102F400008002022D840D31A99400B005A1E934102
:102F50000343F61873019BD50135FF2D00D13EE7E1
:102F600001234D49720833400A401A4316005307A3
:102F700004D00F231340042B00D02AE7730100D59F
:102F80002AE72B00F708F7E6FF2B00D127E7711897
:102F900049084A072FD00F220A40042A2BD00E1DC1
:102FA000E6E6FF2A8DD08020C00406431B2B24DDDB
:102FB00013004E1DDCE64C468F1BF9E64C460E0016
:102FC000D6E6002E49D1002968D067464C467CE7FA
:102FD0007018430174D5304940080140430709D0B7
:102FE0000F230340042B05D002230E1DC0E601234E
:102FF000CF08C1E60223CF08BEE620253000D84026
:10300000EB1A9E4033005D1EAB41034315005E1872
:10301000A0E7002900D165E74C466746ACE68F1B68
:103020007B012ED5BF01BF09380001F0C9FE3B006E
:10303000053883404C46013510E7002E00D140E7AB
:10304000002900D141E78023DB039F4200D23CE707
:103050009C4500D339E7674637E7002900D134E7BC
:103060008023DB039F4200D22FE79C4500D32CE74F
:103070004C46674629E7002900D134E70023CF08F2
:103080007AE64C460123FF0876E6002F00D129E7B7
:10309000FF0871E6FFFFFFFBFFFFFF7D802200249A
:1030A000FF20D2039DE6002366E60023D70863E6EF
:1030B0000120720100D5E7E631000023CF085BE66E
:1030C0000123C70858E6C046F0B546464F46D646E7
:1030D0004502C0B5C30F470098460E1C6D0A3F0E4F
:1030E0005BD0FF2F21D08023ED00DB041D430023A4
:1030F00099469A467F3F74027300640A1B0EF60FCE
:10310000002B20D0FF2B43D080220020E400D204EB
:1031100014437F3B4246FF1A4B4672400F2B00D9A7
:103120009DE071499B00CB589F46002D5AD1082342
:103130009946063B74029A467300FF27640A1B0EE9
:10314000F60F002BDED1002C3BD10123424649462D
:10315000724019430E2918D86448890041588F4697
:103160005346022B00D1B8E0032B6ED042462C0010
:10317000012B40D100200024C0052043D20710437A
:10318000E0BCBA46B146A846F0BDFF200024F3E7F4
:10319000002C20D10223FF3FD8E7002D05D10423C6
:1031A0009946033B00279A46A5E7280001F008FE50
:1031B0007627431F9D4000237F4299469A463F1A37
:1031C00099E7200001F0FCFD431F9C4076235B4201
:1031D0001B1A00209EE703234A461A439146032008
:1031E000FC3397E70C239946093BFF279A4682E771
:1031F00003282CD0320038007F30002847DD6307D9
:1032000004D00F232340042B00D00434230103D522
:103210003800374B80301C40FE28B6DCA401640A1D
:10322000C0B2A9E780240022FF20E403A4E78023A2
:10323000DB031D4201D01C420BD08024E4032C434D
:1032400064024246FF20640A96E746462C0080232B
:10325000DB031C4364023200FF20640A8CE76D012B
:10326000600185422DD21B230024013F0126290045
:1032700064006D00002901DB854201D32D1A34431F
:10328000013B002BF3D16B1E9D412C43B3E701237F
:103290001B1A1B2B00DD6DE721009E37D940BC4077
:1032A0000B00611E8C412343590704D00F211940A4
:1032B000042900D00433590113D49B0100205C0A77
:1032C0005AE71A2301242D1AD0E7981E4342584189
:1032D000404232000024C0B24EE74246FF200024A4
:1032E0004AE70120002447E728D3000868D30008F4
:1032F000FFFFFFF770B542004E024C0045026D0A19
:10330000120EC30F760A240EC90FFF2A10D0FF2C0D
:103310000CD00120A2420AD1B54208D18B420FD075
:10332000002A04D12800431E984100E0012070BD0E
:103330000120FF2CFBD13543F9D14B401800F6E7B3
:103340000020F4E730B5420044024D02C30F4800AC
:10335000640A120E6D0A000EC90FFF2A18D0FF284A
:103360000AD0002A1ED100280AD1002D29D0002C15
:103370002DD14800013830BD002D25D1002A01D1C2
:10338000002CF6D08B4219D001205B421843F2E7A3
:10339000002C19D1FF28F7D1002D15D100208B4228
:1033A000F2D1E8E70028EFD08B42EDD18242EBDC8E
:1033B00004DBAC42E8D80020AC42DCD25800013833
:1033C000D9E7002CD7D0DFE702204042D3E78B4279
:1033D000DAD1EEE730B5420044024D02C30F480097
:1033E000640A120E6D0A000EC90FFF2A17D0FF28BB
:1033F0000AD0002A1BD100280AD1002D1DD0002C94
:103400002DD14800013811E0002D0ED1002A01D144
:10341000002CF6D08B420CD15800013806E0002C6D
:1034200003D1FF2805D1002D15D0022030BD002882
:1034300006D101205B421843F8E7002CF6D0F8E7EC
:103440008B42F6D18242F4DCE6DBAC42F1D80020BC
:10345000AC42EBD2E0E700208B42EAD1E6E78B42B8
:10346000E7D1F2E7F0B54F464646D6464400C0B530
:1034700046020F1C760A240EC50F002C00D1DAE09C
:10348000FF2C74D08023F600DB041E4300239946F2
:103490009A467F3C7B025B0A98467B001B0EFF0F1F
:1034A000002B74D0FF2B00D18EE042468021D20049
:1034B000C90411437F3B2A00E4184B467A408846F2
:1034C000D2B20A2B75DC4B460020022B0FDD494699
:1034D00001238B40A621C9000B4269D190218900AC
:1034E0000B4200D000E18821194200D0F5E04146AE
:1034F0000904090C43460800350C36041B0C360C35
:10350000704369435E435D437618030C9B199942EF
:1035100003D9802149028C46654400041904000C3B
:1035200009188E01701E86411B0C890E5B190E4313
:103530009B011E431B016CD423007F33002B00DC56
:10354000B1E0150071070BD00F2021003040042896
:1035500006D00436320103D56E4B1E400B0080337B
:10356000FE2B00DDBDE0B201520ADBB248E0002EC6
:1035700000D092E008239946063B9A467B025B0AFC
:1035800098467B00FF241B0EFF0F002B8AD142467A
:10359000002A64D149460132114389460A2908DCD0
:1035A0007D400120EAB2022991DC1500002227E0CB
:1035B00015005346022B00D193E0032B1AD0012BA8
:1035C0002CD1002300221BE04346FF34002B55D0B2
:1035D00003214B460B4319000A2B00DC92E00F2B12
:1035E00000D08CE08022D203164203D0434613421F
:1035F00000D17DE08022D20332435202520AFF23DF
:10360000D805ED0710432843E0BCBA46B146A846AA
:10361000F0BD0123150071081E400E4323008033C6
:10362000611C002B41DD720794D00F223240042A26
:1036300000D08EE78EE7002E05D104239946033B88
:1036400000249A4626E7300001F0BAFB7624431F97
:103650009E400023644299469A46241A1AE740463F
:1036600001F0AEFB4B46241A763C0A2BA1DC434604
:10367000053883407D409846EAB224E74A46023343
:1036800013432A007A40D2B20A2B92DC4946150035
:10369000002926D09946022019E70C239946093BB8
:1036A000FF249A46F6E6150021000122D31A1B2BAF
:1036B00000DD86E79E3132008E40DA40731E9E4167
:1036C0003243530704D00F231340042B00D004329D
:1036D000530110D50123002292E73D004646824661
:1036E00067E7FF2300228BE780220025D20386E7CD
:1036F0003D001A4383E792010023520A80E73D0010
:10370000464677E72A0001237A408B400320D2B255
:10371000E9E6C046FFFFFFF7F8B54746CE4643024D
:1037200080B55F0A9B0945004A009C464B02C40FC6
:10373000CE0F2D0E580A120E9909FF2A6BD00123C5
:103740005E40AB1AB4424BD0002B00DCFFE0002AF5
:1037500000D188E0FF2D00D1EFE08022D204114398
:1037600001201B2B08DC08002022D840D31A9940E6
:103770000B005A1E9341184363461B1A9C4663462E
:103780005B0100D4CDE063469F01BF09380001F022
:1037900017FB3B0005388340854200DCA2E0B74AB6
:1037A0002D1A1A4094465A0700D1C3E00F22134045
:1037B000042B00D1BEE004239846C44463465B0159
:1037C00000D4B7E0681CFE2D00D0A5E0FF20002249
:1037D000C0051043E4072043C0BCB946B046F8BD5D
:1037E000002B00DCEBE1002A46D0FF2D00D1A4E045
:1037F0008022D20411431B2B00DCFBE005239846FA
:103800002B00C4446246D708FF2B00D195E07A0212
:10381000520AD8B2DCE72B00FF3B9946002918D1A9
:1038200001235E40B44200D1CAE04B46002B2DD0AC
:10383000002D00D03CE1FF236446002C00D15FE165
:103840005D1E012B00D174E13400FF2B74D02B00DE
:1038500003E1B44200D19CE0002B17D0002DEAD048
:10386000070034006CE00029CCD05A1E012B2BD06D
:10387000FF2B62D0130073E70029C3D05A1E012B1F
:1038800000D11EE1FF2B58D01300B4E7FE226B1CC1
:103890001A420DD1002D60D06346002B00D020E1EC
:1038A000002900D028E180220024FF20D2038FE7E6
:1038B00063465F1A7B0100D5FEE0002F00D065E76C
:1038C00000240020002283E76346591A4B0100D4EC
:1038D00019E18F01BF09380001F072FA3B00053889
:1038E000834001252022401B0130121A1900934009
:1038F000C1405A1E934119438C460B1EE1D05B0711
:1039000000D152E10F2300250B40042B00D052E7D9
:1039100001204A0100D492E0C0B263469A01520AE3
:1039200056E763465B0705D00F2362461340042B1E
:1039300000D040E72B0065E70700002F00D145E7E6
:103940008022D2033A435202FF20520A40E7002B62
:1039500079D1FE226B1C1A42AAD16346002B00D1FA
:10396000F5E0002900D1D1E05F1A8023DB041F427B
:1039700000D10EE1624601248A1A944600203440A8
:10398000002A00D124E701201A42C6D10023D7081B
:103990003DE7002B17D0002D00D0AFE0FF23654698
:1039A000002D00D1ADE05E1E012B00D189E0FF2B80
:1039B000C2D01B2E00DCABE04B1D9C46130021E760
:1039C0004B46002B70D1FE226B1C1A425ED1002D9B
:1039D00000D0C3E06346002B00D1D0E0002900D125
:1039E00094E00A006244530100D4D8E0920101201F
:1039F000520AEDE608002022D840D31A99400B0065
:103A00005A1E934103439C4463465B0189D50135AB
:103A1000FF2D00D1DAE6624601231949134052080E
:103A20000A401A43130094465B0704D00F23134047
:103A3000042B00D0BFE663465B0100D5C2E66346B7
:103A4000DF082B00E3E6531B002D00D1F4E68020B5
:103A50006446C0040443A446340001201B2B09DC47
:103A600020256046D840EB1A65469D402B005D1E20
:103A7000AB4118430B1A9C46150080E6FFFFFFFB85
:103A8000FFFFFF7DFE226B1C1342A3D0FF2B00D152
:103A90009CE6614449084A0749D00F220A40042A9B
:103AA00045D00A1D9446ADE6002D00D176E78DE69F
:103AB0003400FF2000228BE663460124CF1A3440F5
:103AC00064E661444B016DD5480844490140430711
:103AD0002CD00F230340042B28D00B1D9C4602231F
:103AE00090E6002900D12BE78023DB039F4200D220
:103AF00026E7984200D323E70124344007001FE75C
:103B000034008C467EE60123CF0880E600237EE663
:103B100020206546801B854063462800F340451EF3
:103B2000A84103439C4615008C446DE70223CF084F
:103B30006DE60F1B7B0128D5BF01BF09380001F0DE
:103B40003FF93B000538834034000125CAE60029CF
:103B500000D1B5E601240700344058E66346002B47
:103B600000D1E9E6002900D1EAE68023DB039F4289
:103B700000D2E5E6984200D3E2E60700E0E600293D
:103B800000D19EE60023CF0841E634000123FF0860
:103B90003DE6002F00D193E60023FF0837E600231F
:103BA000D70834E60123CF0831E680220B00D20487
:103BB00001201340114200D0AEE6CF0827E6002BCB
:103BC00000D15FE7561B002D01D13300E7E68023CB
:103BD0006046DB0418438446EBE6C046FFFFFF7DEA
:103BE00043024A02400049005B0A520A090E000ED5
:103BF000FF2806D00020FF2902D1531E9A41100051
:103C00007047FE38002BFBD1F4E7C046410242006A
:103C1000C30F490A0020120E7E2A03DD9D2A02DD11
:103C2000094A98187047802000040143952A07DC50
:103C30009620821AD1404842002BF3D10800F1E7C8
:103C4000963A9140F7E7C046FFFFFF7F70B5002826
:103C500012D0C317C5185D40C40F280001F0B0F89A
:103C60009E231B1A962B0FDC082838D00838854075
:103C70006D026D0AD8B202E0002400200025C005C4
:103C80002843E407204370BD992B14DC421F954064
:103C90002A001549114055071CD00F252A40042A37
:103CA00018D00431CA08490115D59F235202181AA9
:103CB000550AC0B2E3E705222900121AD1400200DA
:103CC0001B3295402A00551EAA410A43064911405D
:103CD0005507E2D1CA085202550AD8B2CFE76D02A1
:103CE0006D0A8E30CBE7C046FFFFFFFB10B5041E08
:103CF0000DD001F065F89E231B1A962B0CDC0828CA
:103D000034D0083884406402640AD8B201E000204C
:103D10000024C005204310BD992B13DC421F9440A2
:103D2000144A224061071CD00F212140042918D0D9
:103D30000432D408520115D59F236402181A640A6C
:103D4000C0B2E6E7020021001B3291400A00511E7A
:103D50008A410521091ACC401443064A22406107D2
:103D6000E2D1D4086402640AD8B2D2E76402640AD9
:103D70008E30CEE7FFFFFFFBF0B557464E46DE46DE
:103D80004546E0B51F000B031B0B16009A46CA0FF1
:103D90004B000400914685B05B0D00D1CFE1CD4AC8
:103DA000934255D05146420FC9000A43802109046D
:103DB0001143C2009046C84A8A4693469B4400235A
:103DC000002502933C037B00FA0F0196240B5B0D48
:103DD000009200D188E1BF4A934200D192E0BE4AEE
:103DE000944663449B440A2D42DCE400730F234352
:103DF0008024494624041C43F3000193009B0020C7
:103E00005940CBB20393022D00DC94E00123AB4078
:103E10001D00A6232A00DB001A401D4200D029E223
:103E200090239B001D4200D14DE20023802499463F
:103E30002403A84B10004A461B052343D207134313
:103E4000190005B0F0BCBB46B246A946A046F0BD7D
:103E500052460243904600D0ACE19B460223924674
:103E600008250293AEE7009BA2469946019B98461F
:103E7000029B022B00D1CAE1032B00D192E1012B5E
:103E800010D1002300240022D4E701227B083A400D
:103E900013435246D2071343984653465B089A464B
:103EA000039B99465B46581C8023DB005B44002B38
:103EB00000DCB1E1424652070BD00F2241460A40D6
:103EC000042A06D04246111D41459241884652427D
:103ED00092445246D20106D55246804B1A40802366
:103EE0009246DB00C3187E4A934200DD8FE14246D2
:103EF000D108524652070A4351465B054C02240B37
:103F00005B0D97E7734B26439C46E344002E00D19C
:103F10006FE1032349461D43009B5940CBB20393F5
:103F20000A2D00DD33E10123AB401D000323029382
:103F300088222A4297D1424643461204120C1600A8
:103F400001981D0C030C0004000C4643B4461E00EF
:103F50006E430096160007005E436146B0466F430D
:103F60000E0CB8444644B74205D980214902884620
:103F7000009F4744009761460904090C370C36043A
:103F80008C463100614401911100260C2404240C5C
:103F900061438C462100694389466146090C884685
:103FA00072434A4442447543914503D980214902F2
:103FB00088464544110C884661460904090C8C4624
:103FC00012046244B91802915146090C8C465146BC
:103FD0000F043F0C39004143454488466146414344
:103FE0008A4641466046090C894658437B43534400
:103FF0004B449A4503D98021490289464844190C0B
:10400000894641460904090C8846390061431B046E
:104010004344884661464C4371438C46414677434E
:104020000E0C3F19F6194844B44203D980214902C5
:104030008946CC440299009F894631044F44894601
:104040004146974292410C04240C4C44FF185242C2
:104050006419A1189F429B41884682465B4299465B
:1040600090459241AC42A441C244D1445242644280
:10407000144399459B41824592415B42524213430E
:104080004A46360CA419E31863445B02D20D1A4366
:10409000019992467A020A43501E8241FF0D17434E
:1040A0004A4652021743B846DB0100D5EDE60D4BF8
:1040B000039A5B449146002B00DCACE03A005207C7
:1040C00000D110E70F2258463A40042A00D0F9E602
:1040D00009E7C046FF07000001FCFFFFFFFFFFFEEE
:1040E000FE070000FF030000220032436FD0002CC7
:1040F00000D1C2E0200000F063FE020003000B3A92
:104100001D20821A30001900D04008398C4002006E
:10411000224334008C405946CB1A86498B469B4437
:104120000A2D00DDA4E64946009B01945940CBB21C
:10413000140000200393022D00DD67E6FBE65346E2
:10414000034398463CD05346002B00D1A3E0504691
:1041500000F036FE0B235B429C46020084441100B3
:104160005046083988401D23804660461B1A2000AF
:10417000D8400300404603439A4623008B409846AC
:104180006C4B00259B1A9B46002302931AE60F2DC9
:1041900000D0C9E0802352461B031A4202D01C42C1
:1041A00000D192E08024534624031C43240342465A
:1041B000240B3EE69B46032380460C25029301E632
:1041C00000239A469B46013304250293FAE5012118
:1041D0000D430A2D00DD4BE6494600984140C9B227
:1041E0000391022D00DC96E00023002401200193BE
:1041F0000CE649460223009A2B435140CAB203926F
:104200000A2B00DD34E6002D57D1039B994600248C
:104210000022494B0EE658460121C91A382900DD13
:104220002FE61F2956DD1F2254465242D31ADC4086
:10423000202907D0414B42469C4653466044834068
:104240001A43904642460721531E9A410B002243CF
:1042500013400024114209D00F231340042B5DD0DA
:10426000111D91429B410A005B425B07D2081A4331
:104270000023DFE5039B9946FAE5019800F0A0FDD5
:1042800002000300153220331C2A00DC38E7019AB3
:10429000083882403FE700F093FD15239C46844494
:1042A0000200634620321C2B00DC58E700239846AE
:1042B0002300083883409A4662E71D00002300244B
:1042C00002200193A2E5029032E61C43009B019A72
:1042D0009946AEE51A4B5246C31840469A40C8402C
:1042E0000243404698400300581E834154461A43F7
:1042F000CC40530709D00F231340042B05D0131DC6
:10430000934292415242A4181A00230208D5012375
:10431000002400228EE5894600248BE50023A5E7D2
:1043200063076402240BA1E7009BA2469946019B08
:10433000984637E70DFCFFFFFF0700003E04000032
:104340001E040000F0B557464E464546DE46E0B531
:1043500083B0009001910C034D00CE0F610A009CC8
:104360005F00640F0C43009900920193C800190389
:104370007B0D9946019BCC4FDB0F9C464B0A009965
:104380008046490F1943009B8B46DA0092466D0D1B
:10439000B94500D1BFE00123614659404B468C46E8
:1043A000EB1A8E4275D0002B00DCA3E249460029AF
:1043B00000D1CEE0BD4200D100E20127382B19DC4C
:1043C000802759463F0439438B461F2B00DDFAE115
:1043D0002027F91A8C4659466746B9400F0011004C
:1043E000D9400F4361468A40511E8A415946D940FF
:1043F0001743641AC71BB84280414042241A230263
:1044000000D440E16402640A002C00D154E1200091
:1044100000F0D6FC0300083B20213800CA1AD04027
:104420009C4002009F4022439D4200DDA6E1581BB4
:104430000130091A3C008F40C4407B1E9F4113008D
:104440008B4027431F43C2403B0014000025134309
:1044500000D1F7E17B0700D177E30F2338003B4021
:10446000042B04D0381DB842BF417F42E419230217
:1044700000D468E38C4B01359D4200D1F4E08B4BB6
:104480006D051C406D0D6707C00864020743240BCF
:10449000ECE0002B00DC29E34946002900D0D6E0FF
:1044A0005946114300D12EE1591E012B00D1E6E1FE
:1044B000BB4200D182E101270B00382914DC1F2BFD
:1044C00000DD3CE22027F91A8C4659466746B94080
:1044D0000F001100D9400F4361468A40511E8A41A6
:1044E0005946D940174364183F18874280414042DB
:1044F0002418230200D4C6E06B4B01359D4200D145
:10450000B2E00121694B7A081C4039400A43E707B1
:10451000174364089EE7664B11438A46EB1800294F
:1045200028D066452CD0002B5BD0002D00D12CE18B
:104530005B4666465F07D2081743DD083B002B4306
:1045400000D1E2E0802424032C432403564D240BA5
:104550008CE05946114300D1D5E0591E012B00D102
:10456000B9E1BB4200D1B1E101270B00382900DDE0
:1045700040E72AE76146012779408C466645D2D15B
:10458000002B00D1C5E0002D00D055E14B462500A1
:10459000054300D112E2591E8C46012B00D149E29D
:1045A000414DAB4200D18FE20127382911DC63462F
:1045B0001F2B00DD5BE26146202327005B1A05000C
:1045C00098409F40CD40431E9841CC402F43074325
:1045D000A344BF189742924152425A4414004D4698
:1045E00087E7344F6B1C3B4200D0B6E059462300AE
:1045F00011430F000343002D00D026E1002B00D112
:10460000C0E1002900D1A1E0831A98465B464045ED
:10461000AD41E31A6D425B1B80252D042B4200D176
:104620004BE15B46101A824292411C1B0700012697
:1046300063465242A41A27431E40002F00D142E194
:104640002C4200D16DE2194B01251C401BE7BD42F5
:1046500000D13BE10127382B00DD45E78027594693
:104660003F0439438B462AE7002400272D052543C4
:10467000F60735433800290003B0F0BCBB46B2460C
:10468000A946A046F0BD7B0704D00F233B40042B76
:1046900000D0E7E62B00F808034A67070743E50860
:1046A000934200D14AE7A5E0FF070000FFFF7FFF2C
:1046B00001F8FFFFFE070000380000F081FB030057
:1046C00018331F2B00DCA7E63A00083882409D42D1
:1046D00000DD8AE05B1B581C1F2800DCD8E11700B6
:1046E0001F3BDF40202805D040231B1A9A40531E51
:1046F0009A4117430025002F00D1E5E07B0700D049
:10470000ABE62C00C6E7C008C6E700270024D14D61
:10471000ACE7D14F6B1C3B4271D123000343002D0A
:1047200000D04EE15746002B00D1B5E1002F0DD04F
:104730008318834280415C4440422418220200D501
:10474000C8E11F009846274300D1BCE043466707F5
:10475000DB081F43E50800234CE0831A98465B46BC
:104760004045BF41E31A7F42DB1B1F027CD4474612
:104770001F4300D1A6E01C00474645E6B74CED1AA2
:1047800014407B0700D080E784E74B4625000543B3
:1047900066D05F1E012B00D1FCE0AE4DAB4200D1D4
:1047A0005EE16646382F00DCB4E00120171ABA42F9
:1047B00092415B4652424D469C1A20E66707C0086C
:1047C0000743E508BAE61F005946203FF9400F00AD
:1047D000202B05D04021CB1A594699400A439246D6
:1047E00053465A1E93411F4304E6EB1A9B4D154056
:1047F0006F07ED082C035D05240B6D0D36E7954D15
:10480000AB4200D1D6E08218210082428041594457
:1048100040420818C707520817434408520700D4FB
:1048200085E10F221D003A40042A00D01AE6FF0855
:10483000640727430509DDE75B46D2085F07174396
:10484000DD087BE60027002410E7002B00D0D6E02F
:10485000002900D02FE1802400267E4D240305E7A7
:1048600066465C46D00817E75B46171ABA42924183
:104870001C1B012663465242A41A1E40C4E583183D
:10488000834280415C44404225182A0200D4DAE089
:10489000724A5B081540EA071A4369085B0700D4AF
:1048A0004AE10F231340042B00D1FCE0171D97426F
:1048B000A441644202256418ECE647461C001F43ED
:1048C00000D043E7002600250024CFE6C008670794
:1048D0000743E50832E6871A5B46B8428041E41A8E
:1048E0004042241A230228D46307FF081F43E50827
:1048F00001237FE7002B00D173E64B465F1B3B0093
:10490000002D00D142E7382F00DDECE080230E00BF
:104910001B041C431F2F25DC20252300ED1B010059
:10492000A840AB40F940451EA8410B43FC4018434A
:104930005B461B1B9B4639E76646012562E51F0067
:104940005946203FF9408C46202B05D04027594638
:10495000FB1A99400A43924657467B1E9F41634685
:104960001F43C1E53B002500203BDD40202F04D044
:104970004023DB1B9C40204380464046431E984119
:10498000284313E700299DD0012663465C469046E4
:104990001E40DBE6171A5B46BA4292411C1B52428C
:1049A000A41A2302C8D46307FF081F4366460123E5
:1049B000E5081FE71D000024002757E65C46D008E5
:1049C0006AE6002B00D137E75346C0086707074364
:1049D000E508002B00D1B1E580231B031D4208D060
:1049E0005946C808184204D1D20849070A4317009B
:1049F00005007B0FFF00FF085B071F439EE5C00813
:104A000063071843E508002953D080231B031D4288
:104A10000AD05946CC081C4206D10126634625001F
:104A2000D008490708431E40470FC000C0087F0751
:104A3000074383E58318934292415C445242A51890
:104A40002A0200D524E76F07DB081F43ED08012386
:104A5000D0E6C046FF070000FE070000FFFF7FFF13
:104A60005B46D2085F0766461743DD0866E525000A
:104A7000203BDD406346202B05D0402361465B1A76
:104A80009C402043804647467B1E9F412F43A0E524
:104A900020210027091AD2E4002F00D113E75C4639
:104AA00017000025F6E5D708490702230F432D0913
:104AB000A0E6070042E55B4601265F07DD08634686
:104AC000D20817431E4039E55B46D2085F071743FB
:104AD000DD0833E51E4ADB08224057075202012554
:104AE0001F43140BC2E50E0001205FE6002B0DD022
:104AF0004B465B1B9C46002D00D148E50127382B17
:104B000000DD66E580231B041C4350E56B1C114D42
:104B10002B4200D073E65946230011438A460343D3
:104B200000E66707C00800230743E50862E664075C
:104B3000FF08274305095DE6D208490711430F0026
:104B400002232D0956E60700A4E538008FE4C0468D
:104B5000FFFF7FFFFE0700000B00020070B5164D3F
:104B60000C0382B04900002000920193240B490DF0
:104B7000DE0FA94204DD1148814203DD104BF0181D
:104B800002B070BD8020400320430E4C641A1F2CDD
:104B900008DD0D4B5B1AD84003005842002EEFD1C0
:104BA0001800EDE7094B009A9C46030061448B40D6
:104BB000E2401343F1E7C046FE0300001D0400007D
:104BC000FFFFFF7F3304000013040000EDFBFFFF35
:104BD00070B5002816D0C317C5185D40C40F280053
:104BE00000F0EEF8104B1B1A5B055B0D0A2814DC75
:104BF00002002E00153296400B22121AD5402D03CA
:104C00002D0B03E000240023002500261B052B4369
:104C1000E40723433000190070BD0B3885402D0395
:104C200000262D0BF2E7C0461E04000070B54202BC
:104C30004300C40FFE201B0E591C550A08420CD01D
:104C4000E02189008C466D07120B63441B0513435A
:104C5000E40723432800190070BD002B14D1002D58
:104C60001BD0280000F0ACF80A281CDC0B232A001B
:104C70001B1ADA40030015339D400E4B12031B1A1A
:104C80005B05120B5B0DE1E7002D09D0130B8022B1
:104C900012031A436D07084BD8E700230022D5E71B
:104CA0000022054BD2E703002A000B3B9A40002567
:104CB000E3E7C04689030000FF070000F0B54B00A2
:104CC0000F035B0D3A4C450F83B07F0A5E1C2F43E8
:104CD00000900191CA0FC50026420BD035495C18DF
:104CE000FE2C13DDFF200023C0051843D20710431C
:104CF00003B0F0BD3D43002B01D10020F4E7002DAF
:104D0000F0D08023DB03FF203B43EDE7002C0CDDDC
:104D1000009BFF009B01581E8341690F3B430B43DF
:104D2000590727D1DB08E0B2DEE72100173131DB7C
:104D300080211E2009043943001B1F282DDD022677
:104D40007642341B0E00E6403400202804D01A4876
:104D50008446634499400D432B00591E8B412343E5
:104D6000590703D00F21194004290BD19B010020C2
:104D70005B0AB9E70F211940042904D19B015B0AA2
:104D8000E0B2B1E7002404335901F7D50134002320
:104D9000E0B2A9E700200023A6E7084C1C192B006D
:104DA000A540C340A140681E854129430B43D7E776
:104DB000FE07000080FCFFFFA2FCFFFF82FCFFFF5C
:104DC0001C2101231B04984201D3000C10391B0A3B
:104DD000984201D3000A08391B09984201D30009FF
:104DE000043902A2105C40187047C0460403020256
:104DF000010101010000000000000000F8B52F4C87
:104E0000182322687321012000F0A8FB22681823D0
:104E10007321022000F0A2FB2268182373210320D3
:104E200000F09CFB264C182322687421012000F01E
:104E300095FB226818237421022000F08FFB226862
:104E400018237421032000F089FB1E4C18232268CC
:104E50007521012000F082FB2268182375210220B1
:104E600000F07CFB226818237521032000F076FBFC
:104E700000241826671C144AA400FDB212593300FE
:104E80006F21280000F06AFB104A330012596E218E
:104E9000280000F063FB0E4A330012596D212800F0
:104EA00000F05CFB0B4A330012597021280000F01F
:104EB00055FB3C00032FDDD1F8BDC046480400205F
:104EC0004404002040040020340400202804002072
:104ED0001C04002010040020F0B5364B87B01D687C
:104EE000354B281C1968FDF7FDFE291CFEF7ECF870
:104EF0003249FEF7E9F83249FEF7E6F8FFF796FE89
:104F0000304B314AFEF738FFFFF7D8FE00252F4B14
:104F10002F4C1B68206002932E4B01932E4B059360
:104F20000027059B5C192D492000FDF7EDFC04903E
:104F30006069FEF78BFE049BA6690390002B2FD1BE
:104F40002749FEF78FFA02990390081CFDF7CAFE65
:104F50002449FEF787FA1949FEF784FA0490002ED7
:104F60001BDD3000FEF772FE011C0498FEF77AFA92
:104F7000011C0398FEF7A8F8019ABB000137D05036
:104F80003C34032FCFD113000C3301939C23D03535
:104F90009B009D42C4D107B0F0BDFE218905E4E726
:104FA000002E04DD3000FEF751FE0F49DEE7FE2043
:104FB0008005FAE7140000201800002000007A4461
:104FC00000A84D464F8DF13F5A643BDF1000002092
:104FD000900300206C0300207C000020A4D3000874
:104FE0007F6A8C3F00D84846F022444B10B51D4CD8
:104FF000182322009E21012000F0B0FA220018237D
:105000009E21022000F0AAFA2200952418232401F0
:105010009E21032000F0A2FA22001823E1210120A2
:1050200000F09CFA22001823E121022000F096FAF9
:1050300022000D4C1823E121032000F08FFA2200FA
:105040001823DD21012000F089FA22001823DD2138
:10505000022000F083FA18232200DD21032000F053
:105060007DFA10BD55550000820D000010B51823C3
:105070000022DD21012000F071FA18230022DD2139
:10508000022000F06BFA18230022DD21032000F03B
:1050900065FA18230022E121012000F05FFA1823AD
:1050A0000022E121022000F059FA18230022E12118
:1050B000032000F053FA182300229E21012000F063
:1050C0004DFA182300229E21022000F047FA1823EF
:1050D00000229E21032000F041FA10BDF8B5FFF731
:1050E00085FF8922182398210120520200F036FA08
:1050F0008922182398210220520200F02FFA8922D7
:10510000182398210320520200F028FA1023CE2100
:105110001A00012000F022FA1023CE211A000220EA
:1051200000F01CFA1023CE211A00032000F016FA1A
:1051300018238F2101205B4A00F010FA18238F21D9
:105140000220584A00F00AFA18238F210320554AFA
:1051500000F004FAFFF752FE534C182322687E2118
:10516000012000F0FBF9226818237E21022000F0C4
:10517000F5F9226818237E21032000F0EFF94B4C4B
:10518000182322687F21012000F0E8F92268182303
:105190007F21022000F0E2F9226818237F210320FA
:1051A00000F0DCF9424C182322688021012000F035
:1051B000D5F9226818238021022000F0CFF9226857
:1051C00018238021032000F0C9F9002401271826A4
:1051D000384AFDB2125933007A21280000F0BEF996
:1051E000354A330012597921280000F0B7F9334AC3
:1051F000330012597821280000F0B0F9304A33000A
:1052000012597B21280000F0A9F92E4A33001259C7
:105210006F21280000F0A2F92B4A330012596E21A9
:10522000280000F09BF9294A330012596D2128000B
:1052300000F094F9264A33001259702128000434F2
:1052400000F08CF901370C2CC2D1FFF70FFFFA20C8
:10525000400003F031FA18221321012000F022F956
:10526000FEF7F4FC1B4C1C4D2168FEF7FBF81822DE
:1052700014212860012000F015F9FEF7E7FC2168F1
:10528000FEF7F0F8154D182215212860012000F0D6
:1052900009F9FEF7DBFC2168FEF7E4F8104D286001
:1052A000F8BDC046B70B1000840400208004002025
:1052B0007C040020700400206404002058040020B6
:1052C0004C04002034040020280400201C0400208A
:1052D0001004002090030020881900208419002069
:1052E0008019002000B51822A1B09821012000F0FB
:1052F000D9F862490200684606F01EFA6846FDF7D2
:105300000DFB0100684601F0A9F90A2003F0D4F969
:1053100018229821022000F0C5F859490200684679
:1053200006F00AFA6846FDF7F9FA0100684601F04E
:1053300095F90A2003F0C0F918229821032000F003
:10534000B1F850490200684606F0F6F96846FDF7E4
:10535000E5FA0100684601F081F90A2003F0ACF992
:105360001022CE21012000F09DF847490200684636
:1053700006F0E2F96846FDF7D1FA0100684601F04F
:105380006DF90A2003F098F91022CE21022000F0D6
:1053900089F83E490200684606F0CEF96846FDF7F6
:1053A000BDFA0100684601F059F90A2003F084F9BA
:1053B0001022CE21032000F075F83549020068461E
:1053C00006F0BAF96846FDF7A9FA0100684601F04F
:1053D00045F90A2003F070F918222E21012000F06F
:1053E00061F82C490200684606F0A6F96846FDF708
:1053F00095FA0100684601F031F90A2003F05CF9E2
:1054000018222E21022000F04DF8234902006846A0
:1054100006F092F96846FDF781FA0100684601F04E
:105420001DF90A2003F048F918222E21032000F06C
:1054300039F81A490200684606F07EF96846FDF719
:105440006DFA0100684601F009F90A2003F034F909
:1054500010229321012000F025F81149020068462E
:1054600006F06AF96846FDF759FA0100684601F04E
:10547000F5F80A2003F020F921B000BDA7D30008F9
:10548000B8D30008C9D30008DAD30008EBD300086A
:10549000FCD300080DD400081FD4000831D4000844
:1054A00043D40008F0B587B00F0015000021072293
:1054B000040004AE02A806F0E7F90722002130003C
:1054C00006F0E2F96A4682231372002357721A002B
:1054D000ED089D422DDC7D2202AB5B19D21B9A7038
:1054E000022C2BD0032C2DD0012C05D1002202211F
:1054F000A020C00503F0AAFE642217480092EB1C0E
:10550000320002A904F0D4FE022C1ED0032C20D0BD
:10551000012C05D122000221A020C00503F096FE37
:10552000B378F278307912021B049B18C01807B0C8
:10553000F0BD02A9C9188A700133CAE78021002290
:105540000901D5E700221021D2E7802101220901BB
:10555000E2E701221021DFE760180020F7B5DD083F
:1055600004008123684603704170280000237F39BE
:10557000C9B2684401389D4226DC0223681C984267
:1055800028DA2B00C9436B449970022C28D0032CD5
:105590002AD0012C05D100220221A020C00503F051
:1055A00055FE642369461548EA1C04F0A7FD022C49
:1055B0001DD0032C1FD0012C05D122000221A020D8
:1055C000C00503F043FEF7BD1700DE00F7400133CE
:1055D0008770CFE76A46D25C01338918C9B2CEE73B
:1055E000802100220901D8E700221021D5E780217F
:1055F00001220901E3E701221021E0E76018002001
:10560000F7B50700082600240025182239000120DC
:10561000FFF748FFC317009001930A20009A019BEF
:10562000013EA4185D4103F047F8002EEDD1072399
:10563000EA171A4031001000001969414B07C008F1
:105640001843FEBD73B5FFF7D1FC182300227E215D
:105650000120FFF783FF182300227E210220FFF79D
:105660007DFF182300227E210320FFF777FF1823F8
:1056700000227F210120FFF771FF182300227F21E4
:105680000220FFF76BFF182300227F210320FFF782
:1056900065FF1823002280210120FFF75FFF1823F8
:1056A000002280210220FFF759FF182300228021C9
:1056B0000320FFF753FF9620800002F0FDFF132028
:1056C000FFF79EFF05001420FFF79AFF0400152046
:1056D000FFF796FF64426A422402454D240A404285
:1056E0002C600002434C444E000A1202120A206051
:1056F00018237E2101203260FFF730FF3268182323
:105700007E210220FFF72AFF326818237E21032022
:10571000FFF724FF2A6818237F210120FFF71EFFCF
:105720002A6818237F210220FFF718FF2A68182310
:105730007F210320FFF712FF226818238021012018
:10574000FFF70CFF2268182380210220FFF706FFD5
:105750002268182380210320FFF700FFFA2002F0BF
:10576000ABFF326818237E210120FFF7F7FE326875
:1057700018237E210220FFF7F1FE326818237E21D4
:105780000320FFF7EBFE2A6818237F210120FFF793
:10579000E5FE2A6818237F210220FFF7DFFE2A6832
:1057A00018237F210320FFF7D9FE226818238021C8
:1057B0000120FFF7D3FE2268182380210220FFF783
:1057C000CDFE2268182380210320FFF7C7FEFFF7D4
:1057D0004DFC02F007F909482368040001932B6887
:1057E000782100933368064A05F070FF200076BDEB
:1057F000800400207C040020840400209503002005
:1058000053D400080023F7B50500080001A901934F
:1058100002F0E4FB9F4B002800D1D7E028009E490E
:10582000FDF772F8041E70D028009C49FDF76CF853
:10583000041E00D1CCE028009949FDF765F8994B8A
:10584000041E00D0C2E0FFF7D1FB2200182375210F
:105850000120FFF783FE2200182375210220FFF7A5
:105860007DFE1823220075210320FFF777FE962086
:10587000800002F021FF182215210120FFF712FEFF
:10588000FEF7E4F9884B1968FDF7ECFD041C01985C
:10589000FFF7CCF90022854BFEF76EFAFFF75CF9B3
:1058A000FFF796F90600201C0F00FFF7BFF9002252
:1058B0007E4BFEF761FA02000B0030003900FEF764
:1058C00041FDFFF749F9FEF7C1F9211CFDF7FCFB8B
:1058D000FEF79CF90400764B02001860752118232E
:1058E0000120FFF73BFE1823220075210220FFF75D
:1058F00035FE1823220075210320FFF72FFEFFF746
:10590000B5FB02F06FF86B4B60E0FFF76FFB220016
:10591000182373210120FFF721FE22001823732191
:105920000220FFF71BFE1823220073210320FFF73C
:1059300015FE9620800002F0BFFE182213210120E0
:10594000FFF7B0FDFEF782F9574B1968FDF78AFDA6
:10595000041C0198FFF76AF90022544BFEF70CFA79
:10596000FFF7FAF8FFF734F90600201C0F00FFF7E5
:105970005DF900224D4BFEF7FFF902000B003000ED
:105980003900FEF7DFFCFFF7E7F8FEF75FF9211CAF
:10599000FDF79AFBFEF73AF90400474B0200186046
:1059A000732118230120FFF7D9FD1823220073214A
:1059B0000220FFF7D3FD1823220073210320FFF7F5
:1059C000CDFDFFF753FB02F00DF83C4B1800FEBD78
:1059D000FFF70CFB2200182374210120FFF7BEFD06
:1059E0002200182374210220FFF7B8FD182322009B
:1059F00074210320FFF7B2FD9620800002F05CFEC8
:105A0000182214210120FFF74DFDFEF71FF9264B48
:105A10001968FDF727FD041C0198FFF707F900221C
:105A2000224BFEF7A9F9FFF797F8FFF7D1F8060028
:105A3000201C0F00FFF7FAF800221C4BFEF79CF920
:105A400002000B0030003900FEF77CFCFFF784F801
:105A5000FEF7FCF8211CFDF737FBFEF7D7F8040032
:105A6000174B02001860742118230120FFF776FD00
:105A70001823220074210220FFF770FD1823220052
:105A800074210320FFF76AFDFFF7F0FA01F0AAFF87
:105A90000C4B9BE785D40008F7D40008FAD4000823
:105AA000FDD400089BD40008900300200000F040C3
:105AB00040040020E0D4000848040020B2D40008CC
:105AC00044040020C9D40008F0B50023150085B0B7
:105AD00003AA040008008F49029305F04FFE280036
:105AE00002A902F07BFA8C4B002866D020008B497B
:105AF000FCF70AFF051E0CD020008949FCF704FFC3
:105B0000002806D020008749FCF7FEFE864B0028BF
:105B100053D1039A854B013A022A4ED8002D4FD11A
:105B2000FFF764FA039818232A006F21C0B2FFF729
:105B300015FD9620800002F0BFFD039818220F216A
:105B4000C0B2FFF7AFFC039CFEF780F8651E784BF0
:105B5000AD00E958FDF786FC01900298FFF766F862
:105B60000022744BFEF708F9FEF7F6FFFFF730F856
:105B7000060001980F00FFF759F800226D4BFEF761
:105B8000FBF802000B0030003900FEF7DBFBFEF7EC
:105B9000E3FFFEF75BF80199FDF796FAFEF736F89A
:105BA000654B02006F21E8501823E0B2FFF7D6FCE6
:105BB000FFF75CFA01F016FF604B180005B0F0BD6E
:105BC00020005749FCF7A0FE051E4DD1FFF70EFA45
:105BD000039818232A006E21C0B2FFF7BFFC96205D
:105BE000800002F069FD039818220E21C0B2FFF771
:105BF00059FC039CFEF72AF8651E4D4BAD00E95891
:105C0000FDF730FC01900298FFF710F80022494B95
:105C1000FEF7B2F8FEF7A0FFFEF7DAFF06000198E4
:105C20000F00FFF703F80022424BFEF7A5F8020031
:105C30000B0030003900FEF785FBFEF78DFFFEF705
:105C400005F80199FDF740FAFDF7E0FF3C4B020033
:105C50006E21E8501823E0B2FFF780FCFFF706FA48
:105C600001F0C0FE374BA8E720002E49FCF74CFEA0
:105C7000354B041EA1D1FFF7B9F903981823220070
:105C80006D21C0B2FFF76AFC9620800002F014FD7F
:105C9000039818220D21C0B2FFF704FC039CFDF706
:105CA000D5FF651E224BAD00E958FDF7DBFB0190E7
:105CB0000298FEF7BBFF00221E4BFEF75DF8FEF7D1
:105CC0004BFFFEF785FF060001980F00FEF7AEFFC1
:105CD0000022184BFEF750F802000B00300039008C
:105CE000FEF730FBFEF738FFFDF7B0FF0199FDF737
:105CF000EBF9FDF78BFF154B02006D21E8501823DF
:105D0000E0B2FFF72BFCFFF7B1F901F06BFE104B8F
:105D100053E7C04688D5000885D400088BD5000815
:105D20008ED5000891D5000800D5000817D50008C9
:105D30006C0300200000F0403404002027D5000848
:105D4000280400203ED500086CD500081C04002063
:105D500055D50008F0B51022D7B073210120FFF708
:105D6000A1FB1022040074210120FFF79BFB1022ED
:105D7000050075210120FFF795FB22002B002A4921
:105D8000009024A805F0D8FC24A8FCF7C7FD01006A
:105D900024A800F063FC00241026671CFDB232002A
:105DA0006F212800FFF77EFB08226B46A4009B189A
:105DB000185132006E212800FFF774FB14226B4645
:105DC0009B18185132006D212800FFF76BFB08ABC0
:105DD00018513C00032FE0D1144924A805F069FEB6
:105DE000002408ABE358142200936B4608209B184C
:105DF0006A4612181B5912590D490BA805F09CFC54
:105E000004340BA924A805F047FD0C2CE9D109495D
:105E100024A805F041FD24A8FCF780FD010024A87A
:105E200000F01CFC57B0F0BD94D50008A9D50008BF
:105E3000B3D50008FAD60008F0B50C000700BF2063
:105E400093B01E0018AB197823684000013B8342D1
:105E500025D8199BDDB22B00002922D014213268ED
:105E600003A802F039F92B001421726808A802F087
:105E700033F92B001421B2680DA802F02DF9C021CE
:105E800020680DAB4900019308AB091A00930C4A36
:105E9000381803AB05F01AFC2368C018206013B053
:105EA000F0BD142103A802F017F9C02120684900B1
:105EB000091A044A381803AB05F008FCECE7C046A1
:105EC000C1D50008CCD50008F0B5E7B0244906A834
:105ED00005F0EFFD0A230024224D234F02932B6887
:105EE00003936B680493AB680593002C0AD0C0231E
:105EF000029E5B00991B06AB98191C4A05F0E6FB55
:105F0000361802961A493800FCF7FEFC012301936B
:105F100043425841174AA1000090525803AB02A9CE
:105F200006A80134FFF788FF0C35D037032CD6D1F3
:105F3000BF22029B5200591E914207D8C02106A8D9
:105F400049000D4AC91AC01805F0C0FB06A8FCF7A5
:105F5000E5FC010006A800F081FB67B0F0BDC0467B
:105F6000D1D500083819002054000020DCD50008E5
:105F7000DED50008741900206BDB0008F0B5E7B02F
:105F8000244906A805F095FD0B230024224D234F3C
:105F900002932B6803936B680493AB680593002C02
:105FA0000AD0C023029E5B00991B06AB98191C4ABD
:105FB00005F08CFB361802961A493800FCF7A4FC51
:105FC0000623019343425841174AA10000905258BA
:105FD00003AB02A906A80134FFF72EFF0C35D0371A
:105FE000032CD6D1BF22029B5200591E914207D8E2
:105FF000C02106A849000D4AC91AC01805F066FB61
:1060000006A8FCF78BFC010006A800F027FB67B090
:10601000F0BDC046E3D50008F01800205400002071
:10602000DCD50008DED500085C1900206BDB000819
:106030000021F0B5314BD9B01B780991013BDAB2A0
:10604000022A00D809932E4A0123102112680AA8B7
:1060500002F042F82B4A0123102112680EA802F028
:106060003BF8294A01231021126812A802F034F8E3
:10607000099B264E9C00A2590223102116A802F06B
:106080002BF8234F0223E25910211AA802F024F81A
:10609000204D0223625910211EA802F01DF8E1597B
:1060A000A059FCF71FFE6159FCF71CFE22AC021C34
:1060B00002231021200002F00FF81EA905911AA951
:1060C000049116A9039112A9099B02910EA90191AD
:1060D0000AA9114A013300910694C82126A805F0A7
:1060E000F5FA26A8FCF71AFC010026A800F0B6FA7B
:1060F000322002F0E1FA59B0F0BDC0461C00002089
:10610000881900208419002080190020A41900207B
:10611000981900208C190020EFD50008F0B518223E
:10612000EDB013210120FFF7BDF91822070014215B
:106130000120FFF7B7F91822039015210120FFF77E
:10614000B1F9182205000F210120FFF7ABF9182241
:1061500004900E210120FFF7A5F9182205900D21CA
:106160000120FFF79FF9182204004B210120FFF7BF
:1061700099F9182206904B210220FFF793F9182273
:1061800007904B210320FFF78DF906003A00039B8F
:106190001349009508A805F0CFFA059B049A114908
:1061A00000943AA805F0C8FA3AA908A805F074FBCB
:1061B000079B069A0C4900963AA805F0BDFA3AA941
:1061C00008A805F069FB094908A805F065FB08A8BF
:1061D000FCF7A4FB010008A800F040FA6DB0F0BD88
:1061E0004FD6000865D6000875D60008FAD6000814
:1061F000C022002110B5034B0348D200198005F0DE
:1062000043FB10BD8A0A00208C0A0020F7B5184F06
:106210000C003B780190002B1ED000291CDDC02310
:10622000DB00994200DD1C00124E134D2B78DAB2D0
:106230000092002B11D1114E22000199300005F07F
:1062400040FC012331000E48A2B22B7004F030FB59
:10625000002801D0009B2B70F7BD013E002EFBD023
:10626000002307483B702B7004F074FBDDE7C04649
:106270001E00002020A10700880A002088040020BA
:1062800080170020F0B5C64BC64CA5441C88002CD6
:1062900000D0ECE0422800D074E17923C249012209
:1062A00069440B70C148653B04F01DFF002828D1EC
:1062B000BF4BC04A1A60BFF34F8FBFF36F8FBFF35E
:1062C0004F8FBD4BBD4ADA60BFF34F8FC046FDE72D
:1062D000013110E1013112E1013115E1013117E124
:1062E0002800B749FCF710FB061E0DD10F22B54957
:1062F00068A805F0E6FB0E2168A8FFF787FFB24B00
:106300001E70B24B9D44F0BD2800B149FCF7FCFA69
:1063100000280CD10122AC4BAE491A7068A80F328C
:1063200005F0CFFB0F2168A8FFF770FFE9E72B7896
:106330002A00002B2ED1A8492800FCF7E5FA434299
:106340005841432640420640A4492800FCF7DCFAA5
:10635000002800D153262800A149FCF7D5FA0028CF
:1063600072D0532E68D0432E75D120009D49FCF782
:10637000CBFA002815D1FFF765F9010068A805F0F0
:1063800098FB68A8FCF7CAFA0100CCE7303B013261
:10639000092BD0D81378002BF8D12378002BCAD141
:1063A000AFE720009049FCF7AFFA00280BD020009F
:1063B0008E49FCF7A9FA002805D020008C49FCF78B
:1063C000A3FA002806D1784B20006B441900FFF790
:1063D00019FAD2E720008749FCF796FA00280BD07B
:1063E00020008549FCF790FA002805D02000834959
:1063F000FCF78AFA002807D16B4B20006B44190088
:1064000036AAFFF761FBB8E720007D49FCF77CFA6C
:10641000002804D1644B36A96B441800D7E77949AA
:106420002000FCF771FA78490028A7D15E4B4FAAEB
:106430006B44180036A9E4E75B4B20006B4419005D
:1064400036AA00F033FE98E7574B20006B44190042
:1064500000F0F2FF91E7B4216C4AAEAB81A805F0E1
:1064600035F981A8FCF75AFA010081A85CE70D28EC
:1064700000D0DBE022006649AE27AEA805F021FB84
:106480006B460026BF00DB1904AD1E55FFF7B0FEBA
:106490001DAC64223100280005F0F6F964223100B9
:1064A000200005F0F1F9C0223F4B31006B44180089
:1064B000D20005F0E9F96422310036A805F0E4F9CC
:1064C000642231004FA805F0DFF9B422310081A821
:1064D00005F0DAF96B46DB191B78B34200D110E7FF
:1064E00023002A004B49AEA805F048F9B04200DC71
:1064F00007E72022AEA90B78934300D0E8E60B789B
:10650000202B00D1E6E620220B78934300D0E3E66F
:106510000B78202B00D1E1E6002B05D0224B3E4A20
:106520006B44180005F0D6F96B461F4A9B181B7880
:106530007B2B0CD04FAB029336AB019313006B4413
:1065400000932A0023003549AEA805F017F928006A
:106550003349FCF7D9F9002800D0C1E60E223149B1
:1065600068A805F0AEFA14230D2268A92E4804F09D
:10657000BAFDBFF34F8F104B104ADA60BFF34F8F55
:10658000C046FDE70D2800D1BBE60A2800D1B8E6D9
:106590001F4A10550134A4B21C8000231355B0E6E5
:1065A0008A0A002044F1FFFFB8080000EC16002022
:1065B00000000020AD1007B000ED00E00400FA0577
:1065C000A9D60008FCD600081E000020BC0E000062
:1065D000AED600080BD70008B4D6000872D8000861
:1065E000B8D60008BCD60008F7D40008FAD40008D2
:1065F000FDD400088BD500088ED5000891D5000881
:10660000C3D60008C5D60008C7D60008DBD60008E8
:106610008C0A00209BD60008FF0500008AD60008DF
:10662000A5D600081BD70008801700200A2800D133
:1066300020E7034A9442ABD9FFF7DAFD61E6C04692
:10664000FE050000034B834202D10022024B1A7068
:106650007047C04680170020880A002010B5FFF759
:10666000D5FD10BD10B5FFF7C3FD2022084B1B68F8
:1066700019680A431A6001229968114399608021C0
:10668000186849000143196019680A431A6010BD6F
:10669000EC16002010B50C4C2368DA69920604D57C
:1066A000586AC0B2FFF7EEFD10BDDB691B07FBD0D7
:1066B000FFF79EFD012223681A6292181A620232C5
:1066C0001A6204321A62EFE7EC16002070470000ED
:1066D000034B10B5834201D1FFF78AFD10BDC046C0
:1066E000EC1600200A0014235343C218C35C70B593
:1066F00001310400012B0FD10025D668AE4201DC28
:10670000080070BD2000FFF7EDFF01002000FFF73B
:10671000E9FF01350100F1E7022BF1D10025D66830
:10672000AE42EDDD2000FFF7DDFF01350100F7E7A8
:10673000F8B504001500002816D0081E14D000205B
:106740004E68864210DB8F68BE420DDC1000FCF7FD
:10675000E5F8BF1B02000020BA4205D12900A019AC
:1067600005F0A7F843425841F8BD002370B586B044
:1067700015000093984202D1002006B070BD002998
:10678000FAD0FB220B78043B1342F5D14B688C689E
:10679000E41A002CF0DD132C00D9132401AEC1182B
:1067A0002200300005F08DF900230A2269463000EE
:1067B000335504F0BBFE009BB342DDD01B78002BA9
:1067C000DAD128600120D8E770B50500160000284E
:1067D00015D0081E13D00A780020042A0FD14A6869
:1067E0008C68A41A84420ADBA34200D85C1EA91854
:1067F0003000220005F065F900230120335570BDFB
:1068000037B50D00040008220021684605F03CF869
:10681000002D01D100203EBD07222900684605F069
:1068200059F803256A4610481378002B14D168469E
:106830000E49FCF769F8002805D068460C49FCF7BA
:1068400063F80028E6D107226946200005F042F8E7
:1068500000230120E371DEE7C15C2940012900D15A
:10686000203313700132DFE795DD000829D70008D7
:10687000DED50008426803000020FF2A0BD8501C18
:106880005860142001235043002208185B428360A3
:106890004360C26003617047F0B5B54C1422A54453
:1068A0000190002115A804F0EFFF019B002B00D1FF
:1068B00014E11B787B2B00D010E100267C3B019873
:1068C000129613961493FCF729F80700129CA7421E
:1068D00004D9019B1D5D002D00D070E0A12110ABFB
:1068E000C900C918142313984343103B421ECB1808
:1068F000002A00DB9DE1002E00DAEFE00C78012C8D
:1069000000D0EBE0012500266D429A4B10AA9B189F
:106910001B68B34200DD96E1002D00DADEE01423AF
:10692000A1216B43C9005218D35C022B00D0D5E0E3
:1069300015A80378002B03D113228F4904F0CAFF56
:106940009C228E4C920021001AA805F0BAF8D022A1
:1069500000211AA804F098FFD02200214EA804F0CC
:1069600093FFD022002182A804F08EFF9C222100F8
:106970009200B6A805F0A5F89C22200092001AA962
:1069800005F09FF86B1C02930023059303931433C7
:106990005D43A12310AADB009B185B19784C0F9371
:1069A0000F9B039ADB680693934200DC66E3059B2A
:1069B000032B00D08BE10120724B9D44F0BD3A2D9A
:1069C00000D17FE035D8222D00D18FE01FD8093DBE
:1069D000EDB2172D04D86C4B0122EB40134248D185
:1069E00025000021019B1B5D002B0BD03A2B00D909
:1069F00019E11F2B00D9EBE00A2B00D910E1082B7D
:106A000000D8EDE0002900D1F4E01294F2E02C2D42
:106A1000E6D114994B1C2CD0A12210ABD200D21875
:106A200014234B43D118D35C013B012B21D90B69B3
:106A30001EE07B2D25D020D85B2D22D002225D2D9B
:106A4000CED1139B002B49D01421A1204B43C00071
:106A500010AD143B4019C3185868013035D0986800
:106A6000013032D11978914238D101349C601B69D0
:106A70001493129B0133129328E701227D2DE0D05D
:106A8000AEE7A12310AADB009B18190012A801365B
:106A9000FFF7F0FE002821D0149A531C0CD01423C9
:106AA000A1215343C9009C4610ABC9180B00634495
:106AB000D9680131D96002617B3D6B1E9D41013572
:106AC00005704460139B013BD2E71869451C07D150
:106AD0001B78934202D1149B0133CAD100206BE78B
:106AE000A12310ADDB0048435B19B4E70134002358
:106AF00025001294A742F1D9019A125D002AEDD027
:106B0000222A22D1002B00D01294A12310AADB004C
:106B10009B18190012A8FFF7ADFE0028DED0042351
:106B200003700023149A45608460C3600261531CA3
:106B300009D014235343A12210A9D2005218D3180C
:106B4000DA680132DA60013693E723005C2A0CD15F
:106B500001339F423AD9019AD25C752ABED85B2A8A
:106B600014D8222A01D02F2AB8D15C1C0123C1E7F6
:106B7000B4E6FFFF1405000045D7000840000020E0
:106B8000900000204C19000013008000110001202B
:106B90005C39C9B28840D1490842E6D1752A9DD1F5
:106BA000A31C06349F420FD0019AD25C002A0BD05E
:106BB00011003039092904D920218A43413A052A94
:106BC0008CD80133A342EDD1013BCEE72300CCE7C3
:106BD0001800C34A2038C0B2C240D20700D511E71E
:106BE000203B01345E2B00D978E70121A74200D079
:106BF000F8E61297A12310AADB009B18190012A82F
:106C0000FFF738FE002800D168E70823037000234F
:106C1000149A8460013C4560C3600261129486E767
:106C20000D2BDDD1EEE61A00202082435D2AD7D15C
:106C3000E8E61868013003D05868013000D14DE70C
:106C4000013A143B54E6631C029314235C43A123D2
:106C500010AADB009B181F193900A24A0198FFF700
:106C600067FD002817D0A12310AADB009B1814345D
:106C700019190198142315AAFFF7A6FD002800D1C1
:106C80002CE7A12010ABC0000299C018FFF72AFD25
:106C90000136040039E63900934A0198FFF748FDB0
:106CA000002812D13900914A0198FFF741FD0028D0
:106CB000E7D0A12310A9DB0014345B1819198C4A02
:106CC00020230198FFF780FDDBE7029DD9E708222A
:106CD000002110A804F0D8FD029B002601331D00FE
:106CE00004931427029B10AA5F43A123DB009B1887
:106CF000DB19DB68B34248DC11001000FFF780FDB0
:106D0000002800D1BFE17B4D10A82900FBF7FCFD56
:106D1000061E00D0FAE02000132215A9503804F016
:106D2000D9FD2000072229003C3804F0D3FDA1231F
:106D300010AADB009B18DB190D93231D0C93183B45
:106D400007933C330E933C330A93983B06933C33B2
:106D500008933C3309930D9BDB689E423BDB230089
:106D6000343B1B78002B00D18DE1A12010ABC0007B
:106D70000299C018FFF7B6FC039B029001330393FE
:106D8000059BD034013305930AE614236F1C5D4341
:106D9000A12310A9DB005B18574A01985919FFF786
:106DA000C7FC00280CD0A12310AADB009B181435C7
:106DB000591901980823FFF707FD002800D162E167
:106DC000A12310AADB009B1839001800FFF78AFCEA
:106DD0000136050085E7049B049D01330B931423C2
:106DE0005D43A12310AADB009B185F193900434AB9
:106DF0000198FFF79DFC002822D0A12310AADB00F8
:106E00009B1814355919069A20230198FFF7DCFCCA
:106E1000002800D137E11F220699089804F05AFD96
:106E20001F220699099804F055FDA12310AADB0042
:106E30009B1818000B99FFF755FC013604908AE760
:106E400039002F4A0198FFF773FC002816D0A123C0
:106E500010AADB009B1814355919079A14230198BE
:106E6000FFF7B2FC002800D10DE1132207990E981C
:106E700004F030FD132207990A98D4E73900214A1B
:106E80000198FFF755FC002810D0A12310AADB00C1
:106E90009B181435220001985919FFF766FC002849
:106EA00000D1F0E02368E363A367BEE73900164A28
:106EB0000198FFF73DFC0028B7D0A12310AADB0002
:106EC0009B1814350C9A01985919FFF74EFC0028AD
:106ED00000D1D8E063682364E367A6E74104440176
:106EE000011000042DD7000835D700083ED7000850
:106EF0001F00002029D700084BD7000850D70008F2
:106F000055D700085CD7000862D70008039B069A93
:106F10000233934200DBB6E02000132215A950385B
:106F200004F0D8FC2000072227005A493C3804F01E
:106F3000D1FC0026343F0025029908E0A12310AAC5
:106F4000DB009B181800FFF7CDFB01000135AE42B6
:106F5000F4D114234D1C5943A12310AADB009B1824
:106F60005B180B933B0038330A93043B0993143BA3
:106F70000893002306930B9B069ADB689A4222DB58
:106F80003B78002B7FD001363C37032ED3D1A12391
:106F900010AADB009B1802991800FFF7A3FBA1239E
:106FA00010AADB009B1801001800FFF79BFBA12330
:106FB00010AADB009B1801001800FFF793FB039B4E
:106FC00002900333DBE66B1C079314235D43A1237C
:106FD00010AADB009B185B1919002F4A0198049333
:106FE000FFF7A6FB002818D0A12310AADB009B18EE
:106FF000143559193A0020230198FFF7E5FB0028C2
:1070000041D0A12310AADB009B1818000799FFF7B5
:1070100069FB069B05000133ACE7204A04990198FF
:10702000FFF786FB002808D0A12310AADB009B18DD
:1070300014355919089A1423DEE7194A049901985E
:10704000FFF776FB00280AD0A12310AADB009B18CB
:107050001435099A59190198FFF787FBCFE7114AB0
:1070600004990198FFF764FB0028CAD0A12310AA55
:10707000DB009B1814350A9A5919ECE7059B01208F
:10708000032B00D198E49C22B6A99200064804F094
:1070900018FD23E5DED5000850D7000855D70008B5
:1070A0005CD7000862D7000840000020F0B50C0053
:1070B0009BB0B04906001500FBF726FC00280ED156
:1070C0000124FDF709FFAC4B1C70FEF707F8FEF733
:1070D00009F9AA4B1C70AA4B18001BB0F0BD300078
:1070E000A849FBF711FC0190002800D0DDE02378CF
:1070F0007B2B10D0230020221D78002D15D1A24E0D
:107100002000310004F0FAFB0400002C1CD0182DE4
:1071100010D19E4BE0E72000FFF7BEFB9C4B002800
:10712000DAD000F03BFC9B4BD6E73A2D00D11A7029
:107130000133E1E7AB0002AA310000209C5004F0CB
:10714000DDFB01350400E0E7904B112DC4D1924DD9
:107150001F222800029904F0BDFB069EEC778F4D9C
:1071600031001322280004F0B5FB310013228C48B3
:1071700004F0B0FB310013228A4804F0ABFB1F225D
:107180000399894804F0A6FB1F220499874804F05C
:10719000A1FB1F228648059904F09CFB854E370011
:1071A0003C3F1F223900300004F094FB30001F22C6
:1071B00039003C30013404F08DFBD036032CEED185
:1071C0000026132207997C4804F084FB13220899B7
:1071D0007A4804F07FFB13227948099904F07AFB7E
:1071E000784C27003C3F13223900200004F072FB4A
:1071F0002000132239003C30013604F06BFBD03400
:10720000032EEED10A9804F0FDF82C0028650B98A7
:1072100004F0F8F8FC3460620C9804F0F3F8F823FA
:107220005B00E8500D9804F0EDF868650E9804F0E6
:10723000E9F8A0620F9804F0E5F8FA235B00E85043
:10724000614B5A6819681A64DA67019AD963013286
:1072500099670192D033032AF3D15C4C1099200036
:10726000FFF7CEFA002801D1594B35E7594E119955
:107270003000FFF7C5FA0028F6D0574D12992800C4
:10728000FFF7BEFA0028EFD031002000FBF73CFBEF
:10729000524B002800D01FE729002000FBF734FBE9
:1072A0004E4B002800D017E73BE730004C49FBF776
:1072B0002BFB00283AD120004A49FBF725FB002888
:1072C0001CD128004849FBF71FFB00280DD02800DF
:1072D0004649FBF719FB002807D028004449FBF773
:1072E00013FB444B002800D0F6E62A78424B303A94
:1072F0001A700022414B1A70414BEDE620004149C3
:10730000FBF702FB002804D101223C4B1A703E4BD4
:10731000E2E620003D49FBF7F7FA3D4B002800D09C
:10732000DAE60222354B1A703A4BD5E630003A497C
:10733000FBF7EAFA00280DD030003849FBF7E4FAF1
:10734000002807D030003649FBF7DEFA354B00281D
:1073500000D0C1E6344B354A1A60BFF34F8FBFF3FC
:107360006F8FBFF34F8F324B324ADA60BFF34F8FCC
:10737000C046FDE770D800088C160020940300205A
:1073800066D7000876D80008BDDC0008A2D7000840
:107390007CD7000892D700081F0000204000002082
:1073A00010010020E00100205C0000202C010020E2
:1073B000FC010020980000207C0000204C010020EF
:1073C0001C020020B8000020900000205400002083
:1073D000BAD7000824010020F4010020D0D700080B
:1073E0009ED80008B4D600087DD8000849D7000808
:1073F0007FD80008E9D700081C0000201D000020ED
:1074000008D8000881D8000830D8000885D80008BE
:107410005CD8000846D8000889D800088ED8000833
:1074200099D800086CD5000800000020AD1007B006
:1074300000ED00E00400FA05F0B5BBB028AD040093
:107440002A00934B43CB43C220009249FBF75CFADE
:10745000002805D1FEF77EFC8F4A10003BB0F0BD3E
:1074600020008E49FBF750FA8D4A0028F5D0200005
:107470008C49FBF749FA002803D1FDF733FF8A4A0C
:10748000EBE720008949FBF73FFA002872D19B24E3
:107490008749A4000C59874B27949A24A4000C59BF
:1074A000854A2694854C86482594864C24948C24C1
:1074B000A4000C5923948B24A4000C592294824CD0
:1074C0002194824C2094FA2464000C591F94F824CF
:1074D00064000C591E947E4C1D947E4C1C947E4C72
:1074E0001B94CE2464000C591A94CC2464000C59CB
:1074F00019947A4C18947A4C17940C00FC34656EED
:107500001695256E1595774D1495774D1395A56AAB
:107510001295646A1194754C1094754C0F94754CC7
:107520000E940C00CC3424680D940C00C8342468EC
:107530000C94714C0B94714C0A940C009034246898
:1075400009940C008C34246808946D4C07946D4C9D
:1075500006944C6D05940C6D0091C02104946A4C06
:10756000C9000394694C0294694C019404F0AEF88C
:10757000534A72E720006749FBF7C6F9002814D187
:10758000654B664A1B78002B00D166E7644A012BE5
:1075900000D162E7634A022B00D15EE7C021624A54
:1075A000C900474804F092F8E2E720005F49FBF782
:1075B000ABF95F4A041E00D04FE73D4E306DFCF73B
:1075C00045FBFC218905FBF74DFF5A49FBF77CFD84
:1075D000A7000134E851D036032CEFD1FDF706FDAA
:1075E0000122182310009D21FDF7B8FF1823012266
:1075F0009D210220FDF7B2FF1823200001229D21CA
:10760000FDF7ACFFFDF732FD18222F210120FDF719
:1076100049FF182206002F210220FDF743FF182200
:1076200007002F212000FDF73DFF04003800FCF784
:107630005DFB6968FBF716FF071C2000FCF756FB93
:10764000A968FBF70FFF041C3000FCF74FFB2899DB
:10765000FBF708FF30AD021C062314212BA800F015
:107660003BFD35AE3A1C06231421280000F034FD02
:10767000221C06231421300000F02EFDC0212E4ACA
:10768000019600952BABC9000D4804F01FF86FE779
:1076900010D30008B4D60008A3D800083DD90008CC
:1076A000B4D8000885D800080ED9000876D800089C
:1076B000400000201F00002044D900089402002050
:1076C0008C10002074020020580200203802002094
:1076D0001C020020FC010020F4010020C401002055
:1076E000A401002088010020680100204C01002036
:1076F0002C01002024010020F4000020D4000020F0
:10770000B8000020980000207C0000205C000020D1
:10771000540000209ED800081D0000201FD900083A
:1077200029D9000833D900086FDB000878DB00088E
:107730006CD5000800007A447FDB0008F0B5C62550
:107740000400AD002A00002189B004F09DF8224B0E
:10775000200023600223A56063601F221F490C30B4
:1077600004F0B8F800262C3420220021684604F0EA
:107770008BF8330020214133194A684603F0A6FFF5
:1077800013221849200004F0A5F820000722270042
:1077900025001549143004F09DF81C3750351F2280
:1077A0006946380004F096F8380013220F4920305B
:1077B00004F090F8FA239B002B6001236B60631D9B
:1077C0003C35FF333C379D42E9D10136D034032E9E
:1077D000CAD109B0F0BDC046504C47318BDB000820
:1077E00093DB000845D7000829D70008A4D3000878
:1077F000C5239B00F0B5C51801230200012608200F
:10780000094F5B4211784B4001001C003440644238
:1078100001393C405B08C9B263400029F5D101320F
:10782000AA42EFD1D843F0BD2083B8ED0023F0B5D4
:10783000394C3A4DA54403932B88394C5A1E92B2C9
:107840000100A24221D8374A5B08DB029B18C627F9
:107850000226BF003A000AA8019304F032F9324B25
:107860000AA80A930B960C97FFF7C2FF2021C523A5
:1078700002AA52189B00D05001F054FB011E06D002
:107880000020D1239B009D44F0BD284BDFE7082258
:1078900008A803F0F9FF29883F234A1E92B20796F1
:1078A000A24201D84B08013B0893012303A907A872
:1078B0000993002601F0C8FBB0420FD1C627BF00D4
:1078C0000AAB04AA9B1903CB03C201990120049AB5
:1078D000059B711801F074FB002802D001F034FB05
:1078E000CEE70836BE42EBD101F02EFB0028C7D10F
:1078F0002888431E9BB2A3420CD80A4B4008C00202
:10790000C018C6220AA9920003F0B0FF43425841B2
:10791000C0B2B6E70548F4E7BCFCFFFFA075FF1F47
:10792000FDFF000000F8FF07504C473100F8010848
:10793000154B164A198870B54B1E9BB20400934232
:107940001FD8134B4908C902C918C625AD002A0023
:10795000200004F0B6F80F4B226800209A420FD1A5
:107960006368022B0CD1A368AB4209D12000FFF75A
:107970003FFFC5239B00E358181A42425041C0B252
:1079800070BD0549E1E7C046A075FF1FFDFF00007F
:1079900000F8FF07504C473100F8010880B50E4F42
:1079A000BD446846FFF7C4FF002802D16846FFF7D0
:1079B000C5FE2022094903A804F083F89C22084947
:1079C00092000BA804F07DF86846FFF72FFFC6234E
:1079D0009B009D4480BDC046E8FCFFFF1F000020C7
:1079E0004000002010B5254CA5446846FFF7A0FFD5
:1079F000002802D16846FFF7A1FE214B69461A68AC
:107A0000A7239B00CA501F4B1A68A8239B00CA508B
:107A10001D4B1A68A9239B00CA501C4BAAAA13CB62
:107A200013C21B4B13CB13C21A4B13CB13C21A4BEB
:107A300013CB13C2194B69461A68B6239B00CA5070
:107A4000174B1A68B7239B00CA50164B1A68B82305
:107A50009B00CA50144BB9AA13CB13C2134B13CBC0
:107A600013C2134B13CB13C2124B13CB13C2684672
:107A7000FFF7DCFEC6239B009D4410BDE8FCFFFF22
:107A80004804002044040020400400203404002066
:107A9000280400201C04002010040020840400207E
:107AA000800400207C040020700400206404002076
:107AB000580400204C04002080B5104FBD44684697
:107AC000FFF736FF00280FD0202203A90C4803F04F
:107AD000F8FF9C220B4892000BA903F0F2FF012053
:107AE000C6239B009D4480BD6846FFF727FE68467D
:107AF000FFF79CFE0028E7D1F2E7C046E8FCFFFF55
:107B00001F0000204000002030B5274CA5446846E7
:107B1000FFF70EFF00283DD0A722694692008A5841
:107B2000224B1A60A82292008A58214B1A60A9227F
:107B300092008A581F4B1A601F4BAAAA31CA31C340
:107B40001E4B31CA31C31E4B31CA31C31D4B31CA22
:107B500031C3B62292008A581B4B1A60B72292009A
:107B60008A581A4B1A60B82292008A58184B1A6029
:107B7000184BB9AA31CA31C3174B31CA31C3174B9D
:107B800031CA31C3164B31CA31C30120C7239B0010
:107B90009D4430BD6846FFF7D1FD6846FFF746FEBD
:107BA0000028B9D1F2E7C046E4FCFFFF48040020FA
:107BB0004404002040040020340400202804002055
:107BC0001C040020100400208404002080040020F5
:107BD0007C0400207004002064040020580400206D
:107BE0004C04002030B5072501248FB01C22002151
:107BF00007A803F049FE1422002101A803F044FE67
:107C0000114A06A81368AB43234313600A23069363
:107C1000F633099300230A9340330B930C9401F03D
:107C200023FB002801D072B6FEE702900390049077
:107C30000590210001A8019501F0B8FC002801D0B1
:107C400072B6FEE70FB030BD00200240F0B5C7B0FD
:107C50003022CF4914A803F034FF3422002120A899
:107C600003F012FE3022CB492DA803F02AFF342264
:107C7000002139A803F008FE00F03CFFFFF7B2FF37
:107C8000142200210AA803F0FFFD0422012502248A
:107C9000A020C14E2100736BC00513437363736B47
:107CA000812713400293029B736B00222B43736363
:107CB000736B3F012B400393039B736B23437363ED
:107CC000736B23400493049B01F0C0FAA020390099
:107CD0002A00C00501F0BAFA80210022AF4849000D
:107CE00001F0B4FAA0200A9400240AA9C0050B955B
:107CF0000C940D9401F0F0F9A0200AA9C0050A9790
:107D00000B950C950D9401F0E7F98023A3485B00D7
:107D10000AA90A930B950C940D9401F0DDF9B36B4D
:107D200022002B43B363B36B21002B400920019346
:107D3000019B00F0FDFE092000F024FF82239848FB
:107D40005B004360E023DB00C360802328279B00A7
:107D5000944E8361FA3BFF3B066084600461456199
:107D6000C761046244628462C3620463446302F0D4
:107D70004DF9A04201D072B6FEE78B4C8B4BA06050
:107D80002360E1231B0363600C23E0602061A0619A
:107D9000E06120626062A0622000636103F072FA19
:107DA000011E01D072B6FEE7200003F0E9FA011EC1
:107DB00001D072B6FEE7200003F002FB002801D0DC
:107DC00072B6FEE7200003F0BDFA041E01D072B6C1
:107DD000FEE70100142205A803F056FD3A00210039
:107DE0000AA8009403F050FD714F724B38003B60BD
:107DF0007F23BB607A33FB608023DB057C603C61C2
:107E00007C61BC61FB613C6201F008FE002801D08E
:107E100072B6FEE76B462A009882987505A906900F
:107E200008900990380001F053FE002801D072B686
:107E3000FEE7614B2A0069463800009301F0B0FE6E
:107E4000002801D072B6FEE76B462A2218859B18DF
:107E500018705A4B0B900F9329236B440D900E9082
:107E600010901190DD7780232A005B0038000AA96A
:107E7000139301F0E7FE002801D072B6FEE701F08F
:107E800051F8002801D072B6FEE701F05DF8071E38
:107E900001D072B6FEE70C24010010220AA803F0FC
:107EA000F3FC2200390005A803F0EEFC444D454BDD
:107EB00028002B602F236B60434BAF60EB602F617A
:107EC0006F61AF6102F0A2FB002801D072B6FEE73D
:107ED000802328005B010AA90A9302F0CDFB002849
:107EE00001D072B6FEE705900690079005A928001C
:107EF00002F05AFC031E01D072B6FEE73348344A42
:107F000083600260E12212034260C3600361446146
:107F10008361C36103624362836203F0B3F90028A3
:107F200001D072B6FEE714A8FAF7F8FC010014A815
:107F3000FEF794FBFA20400000F0BEFB2DA8FAF7F4
:107F4000EDFC01002DA8FEF789FB402332681343A6
:107F50003360FEF787FB164800F012FBFFF7ACFD1D
:107F6000FFF7D2FDFCF7B8FF052000F0A5FBFDF7F9
:107F7000B5F8052000F0A0FB0122164B1A70FDF7A2
:107F8000B1F9052000F098FB00F0A8FBFCE7C04623
:107F90009ADB0008CADB0008001002400004005011
:107FA0006018002000300140801700200038014098
:107FB000C41800200028004001010100808080805A
:107FC00014180020002C0140FFFF0000EC160020D8
:107FD000004400408C16002072B6FEE7F0B585B074
:107FE0000300041E02916DD00C1E6BD00821384E88
:107FF0001A78B05C08420BD12D2A0BD12E3A0133EE
:1080000003920024012204200A27944601940FE0E1
:108010000133EDE701212B3A039151424A419B186C
:10802000EFE76446019901337943303952180192E0
:108030001A78B55C290001400542F2D101250800FB
:108040002E2A09D1224A0A2194465B196646042742
:108050001A78B65C3E4203D11D4A082194460AE0D4
:108060001C4CA54203D848434D43303880180124A6
:108070000133EBE7013366461A78B65C37000F40F0
:108080000E42F7D1002C1DD0002A1ED1FBF72EFE88
:10809000061C2800FBF72AFE011C301CFBF714F815
:1080A000051C0198FBF722FE011C281CFAF71AFE9A
:1080B000051C0398FBF7CAFD011C281CFBF7D2F92D
:1080C000029B1860200005B0F0BD3C00FAE7C046F6
:1080D00095DD00083F420F00F0B5050089B00E00A5
:1080E000101C0021141C0593FAF7BCFD80231B060D
:1080F000E3180693002800D10694002D02D1002039
:1081000009B0F0BD002EFAD0211C201CFBF768FD41
:1081100000280DD167007F082E49381CFBF760FD51
:1081200000280DD12B49381CFAF7A6FD002807D1ED
:1081300030232B70012EE2D0002301206B70DFE78B
:108140006B46059A1B7D062A00D90623DBB20793EE
:10815000012700230A2207998B4226D13800FBF71A
:10816000C5FD0699FBF77EF9FC218905FAF7BAFDF2
:10817000FAF7A0FD3900FAF773FC059B070006919A
:10818000201C0021002B14D1FAF76CFD124B0028A3
:1081900000D1124B31002800114A009703F096FAE3
:1081A0000028ADDA00232B70A9E701335743DBB277
:1081B000D1E7FAF757FD084B002800D1074B069985
:1081C000280002910799074A01910097310003F0B6
:1081D0007DFAE5E7FFFF7F7FFFDC0008FBD60008A4
:1081E000FADB000800DC000807B501210C4B042075
:1081F0001A6C0A431A641A6C0A4080210092009A91
:10820000DA6B49050A43DA630022DB6B0B4001930A
:108210001100019B00F08CFC042000F0B3FC07BDB2
:108220000010024010B504008AB02022002102A8EC
:1082300003F02AFB144B22689A4222D14023029376
:10824000C133FF3302A8099301F08CFA002801D052
:10825000FFF7C2FE80220D4B1202D96D02200A43A5
:108260008021DA65DA6BC9000A43DA63DB6B00222E
:108270000B4001930121019B00F05AFC022000F009
:1082800081FC0AB010BDC04600280040001002402A
:1082900010B5040090B01422002103A803F0F4FAF2
:1082A0002022002108A803F0EFFA174B22689A4217
:1082B00027D1042308A8089301F054FA002801D01C
:1082C000FFF78AFE8021114B49011A6CA0200A4356
:1082D0001A641A6CC0050A4001210192019A5A6B76
