:020000040800F2
:100000000000082459610108395B01083B5B0108C5
:100010003D5B01083F5B0108415B010800000000F7
:10002000000000000000000000000000435B010829
:10003000455B010800000000475B0108495B0108BF
:10004000AD610108AD610108AD610108AD61010854
:10005000AD610108AD610108AD610108AD61010844
:10006000AD610108AD610108AD6101084D5B01089A
:10007000AD610108AD610108AD610108AD61010824
:10008000AD610108AD610108AD610108AD61010814
:10009000AD610108AD610108AD610108AD61010804
:1000A000AD610108AD610108AD610108AD610108F4
:1000B000595B0108AD610108AD610108AD6101083E
:1000C000AD610108AD610108AD610108AD610108D4
:1000D000AD610108655B0108715B01087D5B01088A
:1000E000895B0108AD61010800000000AD610108F5
:1000F000AD610108AD610108AD610108AD610108A4
:10010000AD610108AD610108AD610108AD61010893
:10011000915B0108AD610108AD610108AD610108A5
:10012000AD610108AD610108AD610108AD61010873
:10013000AD610108AD610108AD610108AD61010863
:1001400000000000000000000000000000000000AF
:10015000AD610108AD610108AD610108AD61010843
:10016000AD610108AD610108AD610108AD61010833
:10017000AD610108AD610108AD610108000000003A
:10018000AD610108AD610108AD610108AD61010813
:10019000AD610108AD610108AD610108AD61010803
:1001A000AD610108AD610108AD610108AD610108F3
:1001B000AD610108AD610108AD610108AD610108E3
:1001C000AD610108AD610108AD610108AD610108D3
:1001D000AD610108AD610108AD610108AD610108C3
:1001E000AD610108AD610108AD610108AD610108B3
:1001F000AD610108AD610108AD610108AD610108A3
:10020000AD610108AD610108AD610108AD61010892
:10021000AD610108AD610108AD610108AD61010882
:10022000AD610108AD610108AD6101080000000089
:10023000AD610108AD61010800000000AD61010879
:10024000AD610108AD610108AD610108AD61010852
:10025000AD610108AD610108AD610108AD61010842
:10026000AD610108AD610108AD610108AD61010832
:10027000AD610108AD610108AD6101080000000039
:10028000AD610108AD610108AD6101080000000029
:0802900000000000AD6101084F
:1002A00010B5054C237833B9044B13B10448AFF3B0
:1002B00000800123237010BDDC0200240000000038
:1002C00088F4010808B5034B1BB103490348AFF399
:1002D000008008BD00000000E002002488F401084E
:1002E00001F0FF01102A2BDB10F0070F08D010F8E7
:1002F000013B013A8B422DD010F0070F42B3F6D1EB
:10030000F0B441EA012141EA014122F007047FF003
:1003100000070023F0E80256083C85EA010586EA5A
:10032000010685FA47F5A3FA87F586FA47F6A5FA96
:1003300087F68EB9EED1F0BC01F0FF0102F00702A2
:1003400032B110F8013B013A83EA010313B1F8D14D
:100350000020704701387047002D06BF354603382E
:10036000073815F0010F07D1013015F4807F02BF67
:10037000013015F4C03F0130F0BC0138704700BFB8
:10038000034613F8012B002AFBD1181A01387047D5
:1003900081F0004102E000BF83F0004330B54FEA36
:1003A00041044FEA430594EA050F08BF90EA020FA3
:1003B0001FBF54EA000C55EA020C7FEA645C7FEA36
:1003C000655C00F0E2804FEA5454D4EB5555B8BF59
:1003D0006D420CDD2C4480EA020281EA030382EACA
:1003E000000083EA010180EA020281EA0303362D5C
:1003F00088BF30BD11F0004F4FEA01314FF4801C2F
:100400004CEA113102D0404261EB410113F0004F40
:100410004FEA03334CEA133302D0524263EB4303F7
:1004200094EA050F00F0A780A4F10104D5F1200E95
:100430000DDB02FA0EFC22FA05F2801841F10001F0
:1004400003FA0EF2801843FA05F359410EE0A5F1C4
:1004500020050EF1200E012A03FA0EFC28BF4CF0F5
:10046000020C43FA05F3C01851EBE37101F00045AB
:1004700007D54FF0000EDCF1000C7EEB00006EEBB8
:100480000101B1F5801F1BD3B1F5001F0CD3490842
:100490005FEA30004FEA3C0C04F101044FEA445299
:1004A00012F5800F80F09A80BCF1004F08BF5FEA20
:1004B000500C50F1000041EB045141EA050130BD00
:1004C0005FEA4C0C404141EB0101013C28BFB1F512
:1004D000801FE9D291F0000F04BF01460020B1FA5D
:1004E00081F308BF2033A3F10B03B3F120020CDA30
:1004F0000C3208DD02F1140CC2F10C0201FA0CF00E
:1005000021FA02F10CE002F11402D8BFC2F1200C72
:1005100001FA02F120FA0CFCDCBF41EA0C01904028
:10052000E41AA2BF01EB0451294330BD6FEA040471
:100530001F3C1CDA0C340EDC04F11404C4F120025C
:1005400020FA04F001FA02F340EA030021FA04F36E
:1005500045EA030130BDC4F10C04C4F1200220FAC5
:1005600002F001FA04F340EA0300294630BD21FA03
:1005700004F0294630BD94F0000F83F4801306BFC9
:1005800081F480110134013D4EE77FEA645C18BFBD
:100590007FEA655C29D094EA050F08BF90EA020F54
:1005A00005D054EA000C04BF1946104630BD91EA4C
:1005B000030F1EBF0021002030BD5FEA545C05D14F
:1005C0004000494128BF41F0004130BD14F580048E
:1005D0003CBF01F5801130BD01F0004545F0FE4102
:1005E00041F470014FF0000030BD7FEA645C1ABF37
:1005F000194610467FEA655C1CBF0B46024650EA6E
:10060000013406BF52EA033591EA030F41F4002199
:1006100030BD00BF90F0000F04BF0021704730B51F
:100620004FF4806404F132044FF000054FF00001F4
:1006300050E700BF90F0000F04BF0021704730B5B5
:100640004FF4806404F1320410F0004548BF40428A
:100650004FF000013EE700BF42004FEAE2014FEADF
:1006600031014FEA02701FBF12F07F4393F07F4FBA
:1006700081F06051704732F07F4208BF704793F0BD
:100680007F4F04BF41F40021704730B54FF46074D0
:1006900001F0004521F000411CE700BF50EA0102D3
:1006A00008BF704730B54FF000050AE050EA01027C
:1006B00008BF704730B511F0004502D5404261EBEC
:1006C00041014FF4806404F132045FEA915C3FF42D
:1006D000D8AE4FF003025FEADC0C18BF03325FEACA
:1006E000DC0C18BF033202EBDC02C2F1200300FA7B
:1006F00003FC20FA02F001FA03FE40EA0E0021FAA0
:1007000002F11444BDE600BF53B94AB9002908BF3D
:1007100000281CBF4FF0FF314FF0FF3000F0C0B990
:10072000ADF1080C6DE904CE00F03EF8DDF804E010
:10073000DDE9022304B0704708B502460B4643ECDE
:10074000172BB5EEC07BF1EE10FA03D4BDE80840DC
:1007500000F00AB8B1EE477B51EC170B00F004F83B
:10076000404261EB410108BD9FED0B6B41EC170B63
:100770009FED0B5B27EE066BBCEEC66BB8EE464BEF
:10078000A4EE457BFCEEC77B16EE101A17EE900A1E
:10079000704700BFAFF30080000000000000F03D94
:1007A000000000000000F0412DE9F047089D8E4652
:1007B00004468846002B4AD18A42174662D9B2FACB
:1007C00082F64EB1C6F1200301FA06F820FA03F3CF
:1007D000B74043EA0808B4404FEA174E1FFA87FCB7
:1007E000B8FBFEF1230C0EFB118843EA084301FB22
:1007F0000CF29A4209D9FB1801F1FF3080F0EA802F
:100800009A4240F2E78002393B449A1AA3B2B2FB03
:10081000FEF00EFB102243EA024300FB0CFC9C4559
:1008200009D9FB1800F1FF3280F0D6809C4540F2D8
:10083000D3803B44023840EA0140A3EB0C03002183
:100840001DB1F3400022C5E90032BDE8F0878B42BC
:1008500005D90DB1C5E9000100210846F5E7B3FA55
:1008600083F1002946D1734502D3824200F205810B
:10087000841A6EEB030201209046002DE5D0C5E9F5
:100880000048E2E7002A00F09080B2FA82F6002EDB
:1008900040F0A4808A1A030C4FEA174E80B2BCB213
:1008A0000121B2FBFEFC0EFB1C2243EA024304FBC7
:1008B0000CF29A4207D9FB180CF1FF3802D29A4287
:1008C00000F2E080C4469B1AB3FBFEF20EFB12332B
:1008D00040EA034302FB04F49C4207D9FB1802F1EF
:1008E000FF3002D29C4200F2CA8002461B1B42EA41
:1008F0000C40A5E7C1F120068B4022FA06F71F4302
:100900000EFA01F420FA06F32EFA06FE4FEA174912
:10091000234300FA01F81FFA87FCBEFBF9F01C0C18
:1009200009FB10EE44EA0E4400FB0CFEA64502FA59
:1009300001F209D93C1900F1FF3A80F09C80A645EC
:1009400040F2998002383C44A4EB0E041FFA83FE67
:10095000B4FBF9F309FB13444EEA044403FB0CFC1B
:10096000A44508D93C1903F1FF3E80F08280A445DC
:100970007FD9023B3C4443EA0040A4EB0C04A0FBBB
:1009800002EC64457346E14662D35FD05DB1B8EBDB
:10099000030264EB090404FA06F622FA01F31E438B
:1009A000CC40C5E9006400214FE7B1FBF2FC010C2B
:1009B00041EA0E4180B240EA01423B4638463C469D
:1009C000B846BE462026B1FBF7F1A2EB080241EA89
:1009D0000C4166E7014618E710462CE7C6F12002F5
:1009E0002EFA02F3B740B14020FA02F24FEA174E56
:1009F0000A43B3FBFEF8BCB20EFB1833110C41EAFC
:100A0000034108FB04F9B04089454FEA104380B226
:100A10003ED9791808F1FF3C01D289451FD8A1EBD6
:100A20000901B1FBFEF909FB04F80EFB191192B2A2
:100A300042EA0142424529D2BA1809F1FF31C4D233
:100A40004245C2D2A9F102013A44BEE7F0459DD227
:100A5000BEEB02036CEB070C0138E14696E7A7EB0F
:100A600009094944A8F1020CB1FBFEF909FB04F89D
:100A7000DBE773467FE7504666E70846FDE63B4402
:100A8000023A33E7ACF1020C3B441CE749469CE7D1
:100A9000A1EB0901C446B1FBFEF909FB04F8C4E768
:100AA000704700BF38B5044604B938BDE068FFF7A9
:100AB000F9FFA568204620212C4619F04CFEF3E7EB
:100AC00008B510F8010C1AF03BFBB0FA80F04009B1
:100AD00008BD000008B5034678B1084A904206D91F
:100AE000074A904201D919F03FFF19F03AFF182048
:100AF0005843BDE8084019F065BE08BD5555550579
:100B0000AAAAAA0A00F1080373B504460D460360B9
:100B100011B90F4819F02BFF0846FFF731FC0F28D9
:100B200005EB0006019007D9002201A9204619F023
:100B3000DDFF019B2060A3603246294620681AF041
:100B400044F8019B226800216360D15402B070BD5B
:100B5000D0F4010800F1080373B503600446D1E93D
:100B600000530F2B05EB0306019306D9002201A9C0
:100B700019F0BCFF019B2060A36032462946206823
:100B80001AF01EF8019B226800216360D15402B064
:100B900070BD0000F7B5164604460D461BF050FB2D
:100BA00007681BF04DFB0023324601A90360204675
:100BB0001AF0BCFA019B06469C4202D10C4819F07F
:100BC000D9FE1BF03DFB0368222B02D1084819F027
:100BD000D7FE15B1019B1B1B2B601BF031FB03687B
:100BE00013B91BF02DFB0760304603B0F0BD00BF0A
:100BF00002F5010838B5044604B938BDE068FFF7CE
:100C0000F9FF04F11000A56819F091FF20462C218E
:100C10002C4619F0A0FDEFE738B5044604B938BDFD
:100C2000E068FFF7F9FF04F11000A56819F07FFFF5
:100C300020462C212C4619F08EFDEFE7F8B500F187
:100C400008070C4605460760084619F048FF04F1FE
:100C50000806626860B1013203D0314638461BF0A5
:100C60001CFB636826606B60002363602372F8BD21
:100C700023682B60A368AB60F3E7F8B5164604461B
:100C80008B680D1D01223BB9E2B1CA68AA420ED1A0
:100C9000C4E900352046F8BD1A7C1D46B242D3E9AE
:100CA00002708BBF012200223B460346EBE7284639
:100CB00019F0F1FD037CB3424FF00003E8D3C4E91F
:100CC0000003E7E72846F5E710B5084C4FF400713C
:100CD0000368074A20461BF039F92046FFF750FB0E
:100CE00001462046BDE8104015F06AB8780500249A
:100CF00007F5010810B50446104613F013FC30B197
:100D000000F130012046FFF725FF204610BD0249C3
:100D10002046FFF7F7FEF8E720F5010870B5044616
:100D2000D0E90056AE4207D1206818B1A168091A6F
:100D300019F011FD204670BD2846183519F0F7FE50
:100D4000F0E773B500F1080316460022044603607D
:100D5000731A0D4642600F2B019305D901A919F0B2
:100D6000C5FE019B2060A36032462946206819F029
:100D70002CFF019B2268002120466360D15402B001
:100D800070BD00002DE9F743D1E90097804609EBDB
:100D90000706BF104B463D46002D1C4608DCF31AE3
:100DA000022B3BD0032B33D0012B3DD0344608E03F
:100DB00018781AF0C5F920B160781AF0C1F9C0B9F5
:100DC0000134002F354636DCA6EB0903022B52D046
:100DD000032B4AD0012B54D04D46AC4258D201AB24
:100DE0002A4621464046FFF7ACFF404603B0BDE827
:100DF000F083A0781AF0A4F908B90234E1E7E078AA
:100E00001AF09EF9231D08B90334DAE7013DC3E760
:100E100020781AF095F90028D3D0013420781AF000
:100E20008FF90028CDD0013420781AF089F90028F4
:100E300018BF3446C5E73046FFF742FE0028CCD144
:100E4000751E2846FFF73CFE0028C6D1B51E284671
:100E5000FFF736FE0028C0D1F51E043E2846FFF7F6
:100E60002FFE0028B9D1013FABE73046FFF728FE3F
:100E70000028B2D1751E2846FFF722FE0028ACD10B
:100E8000013D2846FFF71CFE002808BF4D46A4E799
:100E900002494046FFF736FEA7E700BF2B180208BD
:100EA0002DE9F0412DED028BADF5107D07460E4684
:100EB000114604A81D46DDF86082FFF763FF10228B
:100EC00000210498FFF766FE03040446059B42BF19
:100ED000C443C4F30E0464420BBB224A4FF40071B6
:100EE00010A8CDE90178336800932B681BF02EF829
:100EF00010A90AA8FFF706FE9FED1B8A0AA8FFF7B4
:100F0000E3FE0AA819F013FE04A819F010FEB0EED3
:100F1000480A0DF5107DBDEC028BBDE8F081002282
:100F2000124904A819F099FF0130D6D1314628465C
:100F300013F0F8FA60B9CDE9028401974FF400711B
:100F4000336810A80A4A00932B681AF0FFFFCFE716
:100F500007EE904AB8EEE78AD0ED137A28EE278A9A
:100F6000D2E700BF28F5010820BCBE4C65F501089A
:100F70007CF501082DE9F04F0F4616460023044684
:100F800085B08360D1E90021C0E90033114491426A
:100F900003F1010805D1674B984508D9664819F057
:100FA000ECFC12F8010BB04208BF4346EFE7B8F182
:100FB000000F14D04046FFF78DFD05468246D4E968
:100FC000009BCB451ED1206818B1A168091A19F001
:100FD000C2FB1823C4E9005503FB0855A560396816
:100FE0000D46D7E900321344581A80100028A8464D
:100FF00014DC581B022845D003283ED0012847D0D6
:10100000984614E049465046FFF718FE48460AF154
:10101000180A09F1180919F08AFDD2E72D78B542AE
:1010200005D098F80150B54215D108F10108D4E96E
:1010300001A39A4532D003AB42465046FFF781FEEA
:10104000636818336360D7E900310B4498456CD06E
:1010500008F10101C4E798F80250B54202D108F145
:101060000208E4E798F803C008F10405B44502D18A
:1010700008F10308DBE70138B8E72878B042D6D09A
:1010800005F1010898F80000B042D0D008F101083D
:1010900098F80000B04218BF9846C8E7D4F800900E
:1010A000264BAAEB090B4FEAEB055D43214B9D4212
:1010B00001D1234873E7CA4514BF2B460123ED181D
:1010C0001C4B03D29D4228BF1D462B46CDE9003163
:1010D0000098FFF7FFFC054603AB584442460199D0
:1010E000FFF72FFECB46284600F11803DA4501939F
:1010F00011D1B9F1000F05D0A1684846A1EB090153
:1011000019F029FB019B009A63601823256003FBFB
:101110000253A36097E75946FFF790FD584619F030
:1011200006FD0BF1180B0198DEE7204605B0BDE87F
:10113000F08F00BF55555505C7F50108ABAAAAAAFF
:10114000D7F50108426808B54B689A4208D14AB100
:10115000096800681AF095FFB0FA80F0400908BDF0
:101160000020FCE70120FAE72DE9F7431D4607467A
:101170002C200C4607F1040919F024FB2B6800F120
:101180001802A145064693F800804FF0000325465B
:1011900080F810800376C3618362C0E908220DD114
:1011A0007B691BB13D692B7C434528D342463946B8
:1011B0006846FFF762FDDDE900451DE0237C4345FD
:1011C0000CD9FB68A34207D0204619F064FB037CCE
:1011D0004345EBD2C36833B3012017E025D23B6906
:1011E000A3420CD0204619F054FB037C044643452F
:1011F000DCD9EB682BB10546BDB1002CECD1A9457B
:10120000EAD0287C404594BF002001204B462A4666
:101210003146344619F041FB7B6901337B6120463E
:1012200003B0BDE8F0830546E9E70020FFF73AFC8C
:101230002C21304619F08FFAF1E708B519F01BFEA2
:10124000C00F08BDF8B5041D0F46866825465EB977
:10125000AC4207D005F110013846FFF7EEFF002839
:1012600018BF25462846F8BD06F110003946FFF79D
:10127000E4FF0028D6E902320ABF354616461E466C
:10128000E5E770B50E468568041D0DB9204670BDB2
:1012900005F110003146FFF7D0FF0028D5E9022301
:1012A0000ABF2C461D461546EFE738B5456804468B
:1012B0003DB105F1100019F03AFC2C21284619F037
:1012C0004AFA204638BD2DE9F341066802AB0446D0
:1012D0001746456806F1040803E90600A9B9424526
:1012E00013D002F1100105F11000FFF7A6FF4346ED
:1012F0003A46294619F0D1FA7369284601337361D9
:101300000023636002B0BDE8F0810120EFE72DE922
:10131000F04385B01F4604460D460C9B00F11001BA
:1013200091460093C368426802A819F07DFB9DF8BE
:101330000830EBB1DDF80C80B8F1010F2AD1254659
:10134000002345F8183F00212046A66840F8081FF2
:10135000AEBB04F11803D4E90001984202D0890021
:1013600019F0F9F9C4E90058B9FBF8F508FB15952F
:101370002368A80053F82520002A3CD012683A6060
:1013800053F825301F60E36838460133E36005B049
:10139000BDE8F083B8F1005F06D3B8F1804F01D308
:1013A00019F0E2FA19F0DDFA4FEA8806304619F032
:1013B00009FA3246002105461AF08DFEC3E7D6E948
:1013C00000C3B3FBF8F208FB123355F823205AB9D7
:1013D000A2683260A66045F8230032680AB145F879
:1013E000216019466646B3E71268326055F823302B
:1013F0001E600B46F5E7A2683A60A7603A683AB10A
:1014000052686168B2FBF1F501FB152243F82270C6
:1014100004F108021A50B6E72DE9F743D1F800802D
:101420008946416806460368B8FBF1F701FB178758
:1014300053F82730B3B11A68506880450BD0106854
:1014400080B113464268B2FBF1F401FB14229742CB
:1014500008D10246F0E72BB1186818B1083003B084
:10146000BDE8F083B420002519F0ACF9D9F80030BC
:1014700004462946436000F108030560AC22184683
:101480001AF029FE034625744246083384F8285092
:1014900084F840503946A36004F1280384F858507A
:1014A0003046236204F1400384F87050A36304F1D2
:1014B0005803236504F17003A366234603F8845F91
:1014C00084F8A050C4E9233304F1A003C4F8983091
:1014D000012300932346FFF71AFFBFE7354B2DE9A1
:1014E000F0411B788AB00C460390002B47D103A92A
:1014F0003148FFF791FF03A905682F48FFF78CFFDC
:10150000D0F890302D4E4FF400712D4A2D480436FE
:101510002D4FDFF8C480CDE9005323461AF016FDA5
:10152000B468B44213D1274C2046FEF729FF7D232F
:101530002044264900F8013C20461AF0D4FD2046FC
:10154000FEF71EFF0146204614F03AFC17E094ED2A
:101550000A7A424680211C48B7EEC77A8DED007B9F
:1015600023691AF0F3FC7F280CDD194904A8FFF762
:10157000C9FA04A8FFF7A8FB04A819F0D8FA0AB022
:10158000BDE8F0810F48FEF7FBFE05463846FEF742
:10159000F7FE0544B5F5007FE7D2394609481AF051
:1015A000A2FD0C4907481AF09EFD204619F071F97A
:1015B0000446B6E7F0AC0124C40B0024A80B0024B9
:1015C000F1F5010878030024F80200242A18020823
:1015D0001FF6010813F6010815F6010838B545682D
:1015E00004463DB105F1100019F0A1FA2C2128465E
:1015F00019F0B1F8204638BD2DE9F04104460F46F8
:1016000090468D680E1D012045B908B3FB68B342B2
:1016100011D1256066602046BDE8F08105F110011A
:101620004046FFF70AFE00282E46D5E9022314BFE4
:1016300015461D46E8E7304619F02DF905464146A6
:1016400005F11000FFF7F9FD20B100232360E1E769
:101650003546F4E7C4E90050DDE72DE9F3410668BB
:1016600002AB04461746456806F1040803E9060084
:10167000A9B9424513D002F1100105F11000FFF79E
:10168000DCFD43463A46294619F007F973692846B6
:10169000013373610023636002B0BDE8F081012073
:1016A000EFE72DE9FF41054600902C2016460F4636
:1016B00019F088F800F11008044639464046FFF753
:1016C00021FA336801944246A36202AC29462046BF
:1016D000FFF792FF039B23B1684694E80600FFF7EB
:1016E000BCFF6846FFF77AFF04B0BDE8F0812DE942
:1016F000FF41054600902C2016460F4619F062F86F
:1017000000F11008044639464046FFF7FBF93368FC
:1017100001944246A36202AC29462046FFF76CFFC3
:10172000039B23B1684694E80600FFF796FF6846DE
:10173000FFF754FF04B0BDE8F0812DE9FF410546F5
:1017400000902C2016460F4619F03CF800F11008C6
:10175000044639464046FFF7D5F9336801944246BE
:10176000A36202AC29462046FFF746FF039B23B144
:10177000684694E80600FFF770FF6846FFF72EFF03
:1017800004B0BDE8F08170B50E468568041D0DB942
:10179000204670BD05F110003146FFF74EFD0028D0
:1017A000D5E902230ABF2C461D461546EFE72DE971
:1017B000F8431E460B1D04460F469A42154613D1A8
:1017C0004B694BB10D69314605F11000FFF735FD4E
:1017D00010B10023236027E0324639462046FFF748
:1017E0000BFF2046BDE8F88302F110093046494658
:1017F000FFF723FD8046C8B1FB68AB4202D12360EE
:101800006360EEE7284619F046F83146804610300E
:10181000FFF713FD0028DFD0D8F80C301BB9236088
:10182000C4F80480DDE725606560DAE731464846A4
:10183000FFF703FDB0B13B69AB4202D1C4F80080B1
:10184000DEE7284619F025F8804600F11001304601
:10185000FFF7F3FC0028BFD0EB68002BBAD0C4F828
:101860000080DDE7C4E90050BBE72DE9FF41804679
:101870000E46FFF788FF044608F10403984205D09E
:1018800000F110013046FFF7D8FC00B32C20CDF852
:10189000008018F097FF00F11007054631463846E2
:1018A000FFF758F9002301952246AB6202AD3B4693
:1018B00041462846FFF77BFF039B6BB1684695E8DE
:1018C0000600FFF7CAFE04466846FFF787FE04F1EC
:1018D000280004B0BDE8F081029CF5E72DE9FF4146
:1018E00080460E46FFF74FFF044608F10403984276
:1018F00005D000F110013046FFF79FFC00B32C200B
:10190000CDF8008018F05EFF00F110070546314663
:101910003846FFF793F9002301952246AB6202ADEA
:101920003B4641462846FFF742FF039B6BB16846A2
:1019300095E80600FFF791FE04466846FFF74EFE65
:1019400004F1280004B0BDE8F081029CF5E72DE920
:10195000F043044685B00F469046FFF714FF231D61
:101960000546984205D000F110013846FFF765FCA6
:10197000F8B12C20009418F025FF00F1100906465C
:1019800039464846FFF7E6F8D8F8003001962A466F
:10199000B36202AE4B4621463046FFF708FF039B79
:1019A00023B1684696E80600FFF757FE6846FFF742
:1019B00015FE05B0BDE8F0832DE9F04104460F4661
:1019C00090468D680E1D012045B908B3FB68B342EF
:1019D00011D1256066602046BDE8F08105F1100157
:1019E0004046FFF72AFC00282E46D5E9022314BF03
:1019F00015461D46E8E7304618F04DFF05464146BE
:101A000005F11000FFF719FC20B100232360E1E786
:101A10003546F4E7C4E90050DDE72DE9F8431E46FA
:101A20000B1D04460F469A42154613D14B694BB124
:101A30000D69314605F11000FFF7FFFB10B10023DF
:101A4000236027E0324639462046FFF7B5FF20469F
:101A5000BDE8F88302F1100930464946FFF7EDFB77
:101A60008046C8B1FB68AB4202D123606360EEE7F9
:101A7000284618F010FF314680461030FFF7DDFB96
:101A80000028DFD0D8F80C301BB92360C4F80480DC
:101A9000DDE725606560DAE731464846FFF7CDFBB4
:101AA000B0B13B69AB4202D1C4F80080DEE7284602
:101AB00018F0EFFE804600F110013046FFF7BDFB45
:101AC0000028BFD0EB68002BBAD0C4F80080DDE757
:101AD000C4E90050BBE72DE9FF4180460E46FFF701
:101AE000D0FB044608F10403984205D000F1100130
:101AF0003046FFF7A2FB00B32C20CDF8008018F091
:101B000061FE00F11007054631463846FFF796F8AA
:101B1000002301952246AB6202AD3B464146284672
:101B2000FFF77BFF039B6BB1684695E80600FFF764
:101B3000CAFB04466846FFF7B8FB04F1280004B06E
:101B4000BDE8F081029CF5E72DE9F043594DAFB0B7
:101B50000FCD28AC28AF0FC495E803003E4684E8BB
:101B600003000620FEF7B6FF00F19005044607903B
:101B70000995A54278D1089522AC4E4D4FF000084A
:101B80004D4F0FCD0FC495E8030022AD84E803004C
:101B90000724013C6FD1494B474D9C682F1D002CF9
:101BA00078D10AA84649FEF7ADFF0AA94248FFF7D7
:101BB00092FF4449046810A8FEF7A4FF10A93E480C
:101BC000FFF789FF4049056816A8FEF79BFF16A995
:101BD0003948FFF780FF3D4907681CA8FEF792FFD0
:101BE0001CA93548FFF777FF3949D0F8008022A8B3
:101BF000FEF788FF22A93048FFF76DFF3549D0F87E
:101C000000903046FEF77EFF31462B48FFF763FF1A
:101C10000368314A4FF4007100953048CDE90393D1
:101C2000CDE9017823461AF091F9304618F07FFF8C
:101C300022A818F07CFF1CA818F079FF16A818F04D
:101C400076FF10A818F073FF0AA818F070FF234859
:101C5000FEF796FB0146214814F0B2F807A8FFF7FB
:101C60005DF82FB0BDE8F083204657F8041B183408
:101C7000FEF748FF7DE755F8041B3046FEF742FFAC
:101C800031463846FFF727FFC0F80080304618F08D
:101C90004EFF7EE7D4F89C304BB104F19801284602
:101CA000FFF7D0FAB8421EBF836A0133836224680B
:101CB00075E700BFA0F40108900B0024C40B0024BA
:101CC00037F6010840F6010849F601084EF601080A
:101CD00053F6010857F601085BF60108780900245D
:101CE0002DE9F043ABB0314C314906A8FEF70AFFAD
:101CF00006A92046FFF7EFFE2E4905680CA8FEF75F
:101D000001FF0CA92046FFF7E6FE2B49066812A842
:101D1000FEF7F8FE12A92046FFF7DDFE2749076807
:101D200018A8FEF7EFFE18A92046FFF7D4FE2449B5
:101D3000D0F800801EA8FEF7E5FE1EA92046FFF79A
:101D4000CAFE2049D0F8009024A8FEF7DBFE24A9A3
:101D500020461D4CFFF7BFFE03681C4A4FF400717C
:101D600020460096CDE90393CDE901782B461AF081
:101D7000EDF824A818F0DBFE1EA818F0D8FE18A86D
:101D800018F0D5FE12A818F0D2FE0CA818F0CFFE5D
:101D900006A818F0CCFE2046FEF7F2FA01462046CF
:101DA0002BB0BDE8F04314F00BB800BF780B002453
:101DB00037F6010840F6010853F6010857F6010806
:101DC00049F601084EF6010878070024CEF601080E
:101DD0002DE9FF4180460E46FFF753FA044608F10D
:101DE0000403984205D000F110013046FFF725FAB0
:101DF00000B32C20CDF8008018F0E4FC00F11007AF
:101E0000054631463846FEF7A5FE002301952246D9
:101E1000AB6202AD3B4641462846FFF7FEFD039B01
:101E20006BB1684695E80600FFF74DFA0446684630
:101E3000FFF73BFA04F1280004B0BDE8F081029CF2
:101E4000F5E700002DE9F04F3D4D8DB00FCD06AC0C
:101E500006AF0FC495E803003E4684E80300062061
:101E6000FEF738FE00F19008044605460390CDF8D1
:101E70001480A84514D1334F4FF000080495AC42AC
:101E800015D1314BDFF8BC809D6808F1040ADFF8FA
:101E9000BCB0A5B903A8FEF741FF0DB0BDE8F08FB7
:101EA000284657F8041B1835FEF72CFEE1E72146BB
:101EB0003846FFF78DFF1834C0F80080DFE705F1E2
:101EC000980940464946FFF7BDF9824527D005F1FC
:101ED000840759463046FEF715FE3C46D5F8883053
:101EE000FBB9A74207D004F110013046FFF7A5F96E
:101EF000002818BF3C46304618F019FEA7420ED005
:101F0000D4ED0A7AFDEEE77A17EE903A0B2B06D164
:101F100049460C48FFF75CFF0368013303602D68F6
:101F2000B7E7314603F110000193FFF786F9019BF3
:101F30000028D3E902210ABF1C460B461346CFE70F
:101F4000B8F40108780B0024C40B002446F70108FC
:101F50002DE9F04F0746D0E900032DED028B1B1A47
:101F6000ADF5157D182B0DF1500819D83B684FF4CD
:101F7000007140469A690092B24A1B6819F0E6FF68
:101F80000EA84146FEF7BEFD0EA8FEF79DFE0EA868
:101F900018F0CDFD0DF5157DBDEC028BBDE8F08F81
:101FA0000022A94918F059FF0130DFD1386800221A
:101FB000A549183018F051FF0130D7D13B680A22EB
:101FC0000021A24D18684FF00009FEF7E3FD3B68C1
:101FD0000A22002105909869FEF7DCFD10AB0AA9E2
:101FE00003900E9300230A9099480B93CDF83C90F0
:101FF0008DF84090FFF710FA064600F17804A868C3
:10200000FEF70AFE2B1DDDED037A2C20C5F80890A3
:10201000B8EEE78AC5F814900C95C5E9033318F0BB
:10202000D1FB00F1100A81468A495046FEF76AFD4D
:1020300052462946404689ED0A8ACDF83490FFF78A
:10204000DBFAD8F8043023B10CA898E80600FFF7B3
:1020500004FB4FF002094FF000080CA8FFF7BEFA8E
:102060007D4AD7E900135B1ADB105343994507D328
:10207000B8F1000F8BD005990398FFF72FFA86E788
:1020800009F1010293420AD8744914A8FEF73AFDF7
:1020900014A8FEF719FE14A818F049FD77E71825D3
:1020A00006F1180A14A805FB09F552462944FEF763
:1020B00021FE14A818F013FD8346002800F09E802E
:1020C000159A1AB114990E9818F062FD159B00210B
:1020D0000E9A0F93D1540023149A14A806F17C0B86
:1020E0001593137018F023FD3968059B05F118024C
:1020F00003980A44009329445346FEF7D1FEB0EEFC
:10210000408AD6F88050DA468DED0B0A002D40F05B
:102110008C80D34500F08F810AF110010EA8FFF7E3
:102120008CF8002840F087810EA92046FFF79DFB20
:10213000D0ED007AB4EE678AF1EE10FA00F0E38099
:1021400006F160010EA8FEF7FDFF002800F0908068
:102150000EA92046FFF789FBFCEEC87ACDED047A84
:10216000D0ED007A9DF81020FCEEE77A9DF80C0087
:10217000CDED067A9DF8181012F0B6FF0EA9204694
:10218000FFF773FB364980ED008A14A8FEF7BAFC0E
:1021900014A92046FFF7A2FB314902462B48FFF75E
:1021A000CCFA14A818F0C3FC2E4914A8FEF7AAFC18
:1021B00014A92046FFF792FB2A4902462348FFF75D
:1021C00096FA14A818F0B3FC274914A8FEF79AFC55
:1021D00014A92046FFF782FB234902461B48FFF75C
:1021E00060FA14A818F0A3FC0BAA20491748FFF7BF
:1021F00058FAFFF727FEFFF773FD82E00EA818F0EC
:102200006EFC68B9109B0E980793149B0E93159B58
:102210000F93169B109328B1079B149016935AE7BF
:102220005846F2E716AB149355E705F110000EA9D6
:10223000FFF703F80028D5E902320ABFAA4615467F
:102240001D4663E750F7010888F70108A80B002432
:10225000C40B002493F70108ABAAAAAA96F70108B9
:10226000E00F02083C0202084D02020846F701088E
:1022700006F148010EA8FEF765FF002846D07A490E
:1022800014A8FEF73FFC14A92046FFF727FB80EDBA
:10229000008A14A818F04BFC744914A8FEF732FC0D
:1022A00014A92046FFF71AFB704902467048FFF751
:1022B00044FA14A818F03BFC6E4914A8FEF722FC5F
:1022C00014A92046FFF70AFB6A4902466848FFF74F
:1022D000E8F914A818F02BFC674914A8FEF712FCC3
:1022E00014A92046FFF7FAFA634902466048FFF74F
:1022F000D8F914A818F01BFC0BAA5B495C48FFF73F
:10230000F6F94FF0010809F10209A9E60F9A092A26
:1023100004D159490E9819F0B4FE68B106F13001A4
:102320000EA8FEF70FFF002842D10EA92046FFF7A6
:102330009CFA80ED008A35E00EA92046FFF795FA59
:102340004A4980ED008A14A8FEF7DCFB14A9204658
:10235000FFF7C4FA454902464548FFF7EEF914A8CD
:1023600018F0E5FB434914A8FEF7CCFB14A920465E
:10237000FFF7B4FA3F4902463D48FFF792F914A827
:1023800018F0D5FB384914A8FEF7BCFB14A9204669
:10239000FFF7A4FA344902463548FFF7A8F914A814
:1023A00018F0C5FB0BAA0EA93148FFF7D0FAA8E731
:1023B0002E4914A8FEF7A6FB14A92046FFF78EFAB3
:1023C00080ED008A14A818F0B2FB274914A8FEF784
:1023D00099FB14A92046FFF781FA234902462448B5
:1023E000FFF785F914A818F0A2FB234914A8FEF7FB
:1023F00089FB14A92046FFF771FA1F4902461C48C1
:10240000FFF74FF914A818F092FB1A4914A8FEF729
:1024100079FB14A92046FFF761FA164902461448D1
:10242000FFF73FF914A818F082FB0BAA0F491048D8
:10243000FFF783F965E706F148010EA8FEF782FE73
:1024400028B10BAA08492046FFF751F954E706F1D5
:1024500030010EA8FEF776FE80B10BAA0349204694
:10246000FFF76BF9E1E700BF3C020208E00F02084A
:10247000A80B002446F701084D02020806F160018E
:102480000EA8FEF75FFE0BAA8046002800F08180B0
:1024900042492046424DFFF704F940490BAA414802
:1024A0000435FFF7FEF8DFF804A112F06DFC6B684D
:1024B0009DF80C200CA9CAF8000028460A70002BD1
:1024C00050D1854202D02B7C934209D909AB14919B
:1024D000354A2946009314AB3148FEF745FE0546C0
:1024E000DAF80030FCEEC87AEA694146069305F155
:1024F0001803CDED047A9A469DF810B00493002A93
:102500003AD1002943D02A6A524505D0504618F0E6
:10251000C2F9027C5A451DD2049B534507D09AF854
:102520001080D84594BF4FF000084FF001082020DC
:1025300018F048F9069B014680F810B0436100236B
:102540005246C0E90633049B404618F0A6F9AB6A30
:102550000133AB62BDEEC88A18EE103A0B2B7FF444
:10256000D0AE46E693F810B0D3E902CE93452ABF29
:102570001D4673466346A2E7117C92465945D2E94F
:1025800002038DBF414600211A460246B7E7504676
:10259000BFE70EA92046FFF7DAF903E746F701087F
:1025A000F8AC0124A80B00248C180208F4AC012418
:1025B0004168F0B50446ADF50D7D31B3334B00688D
:1025C0001B78012B05D10DF50D7DBDE8F04013F012
:1025D000F7BB03787B2BF6D0012905D0303B092BC4
:1025E00002D842783A2A13D00346294A4FF40071A0
:1025F0000CA819F0ABFC0CA906A8FEF783FA06A8F4
:10260000FEF762FB06A818F092FA0DF50D7DF0BDFD
:10261000214603A8FEF7AEFC1E4ADDE90356771BF0
:10262000FB10482F02FB03F31CD9DA071AD4184613
:10263000FEF750FA074404460C900E97AE420AD1BA
:102640000CA80D94FFF784FC0CA8FEF767FB03A809
:10265000FEF764FBD9E72946204618351834FEF703
:1026600079FAEBE722684FF400710CA800920A4A4D
:1026700019F06CFC0CA906A8FEF744FA06A8FEF7B0
:1026800023FB06A818F053FAE1E700BFC00B0024B3
:10269000B7F70108ABAAAAAACEF701080B4A002394
:1026A000111D137193605361C2E90311084A111D92
:1026B000137193605361C2E90311064A111D13712E
:1026C00093605361C2E90311704700BFA80B002457
:1026D000900B0024780B002408B5074B9868FEF790
:1026E00089FA064B9868FEF785FA054B9868BDE8AD
:1026F0000840FEF791BA00BF780B0024900B00242D
:10270000A80B002438B5044604B938BDE068FFF7CB
:10271000F9FF04F11000A56818F009FA20462C21F1
:102720002C4618F018F8EFE700F1080373B50360C2
:102730000446D1E900530F2B05EB0306019306D99C
:10274000002201A918F0D2F9019B2060A360324653
:102750002946206818F034FA019B22680021636042
:10276000D15402B070BD000000F1080373B50446F7
:102770000D46036011B90F4818F0F9F80846FDF747
:10278000FFFD0F2805EB0006019007D9002201A9E3
:10279000204618F0ABF9019B2060A3603246294621
:1027A000206818F012FA019B226800216360D1545E
:1027B00002B070BDD0F4010870B5074E0446324631
:1027C000D0E9000117F0CAFF05463246D4E90601F8
:1027D00017F0C4FF684070BD07690FC7F8B500F176
:1027E00008070C4605460760084618F078F904F11A
:1027F0000806626860B1013203D03146384619F0EC
:102800004CFD636826606B60002363602372F8BD33
:1028100023682B60A368AB60F3E72DE9F041054620
:102820002C200E4617F0CEFF05F1100104461030A3
:10283000FFF77AFFAB6AE868A3622B7866602370C3
:102840000023C4E9023318B12146FFF7E6FFE06038
:10285000AE6827464FF0000816B92046BDE8F08163
:102860002C2017F0AFFF06F1100105461030FFF7DE
:102870005BFFB36AAB623378C5E902882B70BD6039
:102880006F60F06818B12946FFF7C7FFE860B668C7
:102890002F46E1E700220270C0E90120C0E90302EF
:1028A000704710B50446903018F041F9D4F8800014
:1028B000FFF728FF04F1600018F039F904F148002F
:1028C00018F035F904F1300018F031F904F118006E
:1028D00018F02DF9204618F02AF9204610BD70B5E1
:1028E00004460D46FFF720FF05F1180104F118001A
:1028F000FFF71AFF05F1300104F1300004F17C0606
:10290000FFF712FF05F1480104F14800FFF70CFF43
:1029100005F1600104F16000FFF706FF3046FFF7A4
:10292000B9FFD5F88000B0B13146FFF776FF034616
:102930001A469B68002BFBD10346C4F884201A4634
:10294000DB68002BFBD1D5F88C30C4F88820C4F8A4
:102950008C30C4F8800004F1900005F19001FFF77D
:10296000E3FED5F8A8302046C4F8A83070BD034671
:10297000D0E900011833984202D0890017F0EBBE6D
:102980007047012938B5044604D1002344F8183FA4
:10299000204638BDB1F1005F06D3B1F1804F01D3BD
:1029A00017F0E2FF17F0DDFF8D00284617F00AFF51
:1029B0002A460021044619F08EFBE9E72DE9F04F85
:1029C00089B004460D4604A804F1100880E806000A
:1029D000B021404601FB02520121039204F118028A
:1029E00022600022C4E901124FF07E51E2602161B1
:1029F0001946C4E9052217F0CBFF636806469842E2
:102A000005D901462046FFF7BCFFC4E9000604359E
:102A10004FF000092B1F039A9A4203D1204609B0B8
:102A2000BDE8F08FE2681AB9A36855F8041CDBB959
:102A300055F8047C6168B7FBF1FA01FB1A7AE2B140
:102A4000236853F82A30C3B11A685068874210D0FF
:102A5000106890B113464268B2FBF1F601FB1622F2
:102A600092450AD10246F0E75868884242D01B6876
:102A7000DDE713B11B68002B3CD1B42017F0A2FE98
:102A800055F8043CC0F800900646294640F8043F3B
:102A90000430FFF724FF0123414606A80093E368B2
:102AA000626817F0C1FF9DF81830ABB1DDF81CB0BB
:102AB00020465946FFF765FFA44682460021A368D9
:102AC0004CF8089FC3B92046FFF751FFC4E900AB9B
:102AD000B7FBFBFA0BFB1A7A23684FEA8A0053F81C
:102AE0002A202AB31268326053F82A301E60E36845
:102AF0000133E360B0358DE7D3E900E2B2FBFBF0D0
:102B00000BFB10225AF8220058B9A0681860A36085
:102B10004AF822C0186808B14AF8213011467346B5
:102B2000D0E7006818605AF8222013600A46F5E7DB
:102B3000A268A66032603AB152686168B2FBF1F7F0
:102B400001FB172243F8226004F108021A50CEE775
:102B500038B504460D46FEF7F5FA28B105F118011F
:102B600004F11800FEF7EEFA38BD00002DE9F84335
:102B7000124B904606460F461A6852F82040ACB1F8
:102B80002568D3F80490AB6B984504D1291D3846CD
:102B9000FFF7DEFF50B92B686BB12C469D6BB5FB80
:102BA000F9F209FB1255AE4203D000242046BDE8DD
:102BB000F8831D46E7E71C46F8E700BFE00B00245A
:102BC0002DE9F04F40F2275A93B0DFF87C815A4C40
:102BD000BAF1010A02D113B0BDE8F08F414606A850
:102BE000FFF7A2FD08F118010CA8FFF79DFD06A84C
:102BF000FFF7E2FD63680746024606A9B0FBF3F65D
:102C000003FB16063046FFF7B1FF68B105685DB1FA
:102C10000CA8C5F8348017F08AFF06A8343508F1EF
:102C2000500817F084FFD3E74FF000093C2017F05D
:102C3000C9FD054606A940F8049BFFF7CFFD0CA986
:102C400005F11C00FFF7CAFD0123C5F8349004A864
:102C500000933A49E368626817F0E6FE9DF8103089
:102C6000CBB1059E012E26D1DFF8D4B0C4F8189060
:102C70000021A2688C46A16092BB314AD4E90001D0
:102C8000904202D0890017F066FDB7FBF6F3C4E965
:102C900000B606FB13762368B000AF6353F8262016
:102CA000002A3AD012682A6053F826301D60E36883
:102CB0000133E360ACE7B6F1005F06D3B6F1804FB5
:102CC00001D317F051FE17F04CFEB20010460392EC
:102CD00017F078FD039A4946834619F0FCF9C7E7D7
:102CE000916B1368B1FBF6F006FB10115BF8210045
:102CF00060B9A06810601348A2604BF8210010680A
:102D000008B14BF82C208C461A46B5E700681060D5
:102D10005BF821100A606146F5E7A268A5602A60A9
:102D20003AB1926B6168B2FBF1F601FB162243F8EF
:102D30002250044A1A50BAE7E00B0024F00B00249A
:102D4000F80B0024E80B0024FC0B00242DE9F04FC5
:102D5000D94F4FF07E54D949462638464FF0570A8E
:102D600049254FF0420807F580592DED028BADF54E
:102D7000A64D9FEDD38A85B0FFF7F6FC07F118004A
:102D8000D049FFF7F1FC07F13000CF49FFF7ECFC29
:102D900007F15000C94987F84860FC64FFF7E4FC7C
:102DA00007F16800C949FFF7DFFC07F18000C84957
:102DB000FFF7DAFC07F1A000C64987F89860C7F86A
:102DC0009C40FFF7D1FC07F1B800BE49FFF7CCFCEF
:102DD00007F1D000BC49FFF7C7FC07F1F000BD497F
:102DE00087F8E860C7F8EC40FFF7BEFC07F5847091
:102DF000B649FFF7B9FC07F59070B549FFF7B4FC89
:102E000007F5A070B34987F83861C7F83C41FFF770
:102E1000ABFC07F5AC70B049FFF7A6FC07F5B8703E
:102E2000AE49FFF7A1FC07F5C870AA49C7F88C4165
:102E300087F888A1FFF798FC07F5D470A849FFF739
:102E400093FC07F5E070A749FFF78EFC07F5F070DB
:102E5000A54987F8D861C7F8DC41FFF785FC07F57D
:102E6000FC70A249FFF780FC07F50470A049FFF74A
:102E70007BFC07F50C709C4987F8286287ED8B8AEC
:102E8000FFF772FC07F512709A49FFF76DFC07F522
:102E900018709949FFF768FC07F52070924987F888
:102EA000786287ED9F8AFFF75FFC07F526709349EC
:102EB000FFF75AFC07F52C709149FFF755FC07F511
:102EC0003470894987F8C86287EDB38AFFF74CFCF4
:102ED00007F53A708B49FFF747FC07F540708A49C0
:102EE000FFF742FC07F548707F4987F8186387EDC4
:102EF000C78AFFF739FC07F54E708449FFF734FCA9
:102F000007F554708249FFF72FFC07F55C7076498E
:102F100087F8686387EDDB8AFFF726FC07F56270A8
:102F20007C49FFF721FC07F568707B49FFF71CFC23
:102F300007F570706C4987F8B853C7F8BC43FFF7C2
:102F400013FC07F576707549FFF70EFC07F57C70EA
:102F50007349FFF709FC07F20C4307F582606249E9
:102F600087F8086483ED008AFFF7FEFB07F58560AC
:102F70006C49FFF7F9FB07F588606B49FFF7F4FB35
:102F800007F25C4307F58C60574987F8586483ED76
:102F9000008AFFF7E9FB07F58F606449FFF7E4FB60
:102FA00007F592606249FFF7DFFB07F2AC4307F5D4
:102FB00096604D491C6087F8A854FFF7D5FB07F5CC
:102FC00099605C49FFF7D0FB07F59C605A49FFF711
:102FD000CBFB07F2FC4307F5A06043491C6087F870
:102FE000F854FFF7C1FB07F5A3605449FFF7BCFB9A
:102FF00007F5A6605249FFF7B7FB07F24C5307F5F8
:10300000AA6039491C6087F84855FFF7ADFB07F502
:10301000AD604C49FFF7A8FB07F5B0604A49FFF7E0
:10302000A3FB07F29C5307F5B4602F491C6087F897
:103030009855FFF799FB07F5B7604449FFF794FBF4
:1030400007F5BA604249FFF78FFB07F2EC5307F52B
:10305000BE6025491C6087F8E855FFF785FB07F53A
:10306000C1603C49FFF780FB07F5C4603A49FFF7B0
:103070007BFB07F23C6307F5C8601B4987F838669D
:1030800083ED008AFFF770FB07F5CB603349FFF74C
:103090006BFB07F5CE603249FFF766FB07F28C63E6
:1030A00007F5D260104987F888861C60FFF75CFB43
:1030B00007F5D56056E000BFFC0B0024F0F70108CF
:1030C000CDCCCC3D01F80108FDF701080AF8010854
:1030D00006F801080FF801081CF8010821F801089A
:1030E0002DF8010829F8010832F8010840F8010814
:1030F0006EF8010845F801084AF8010857F8010878
:103100005CF8010866F801086BF8010875F8010819
:103110007AF8010883F8010888F8010891F8010895
:1031200096F801089FF80108A4F80108ADF8010815
:10313000B2F80108BDF80108C2F80108CDF801088D
:10314000D2F80108DFF80108E4F80108ECF80108FA
:10315000F1F80108FBF80108C80F020800F901089E
:1031600005F90108D649FFF7FFFA07F5D860D549F8
:10317000FFF7FAFA07F2DC6307F5DC60D24987F85B
:10318000D86683ED008AFFF7EFFA07F5DF60CF49D5
:10319000FFF7EAFA07F5E260CD49FFF7E5FA07F233
:1031A0002C7307F5E660C84987F8286783ED008A25
:1031B000FFF7DAFA07F5E960C649FFF7D5FA07F530
:1031C000EC60C549FFF7D0FA07F27C7307F5F060B1
:1031D000BD491C6087F87857FFF7C6FA07F5F3601A
:1031E000BE49FFF7C1FA07F5F660BD49FFF7BCFA23
:1031F00007F2CC7307F5FA60B3491C6087F8C8572B
:10320000FFF7B2FA07F5FD60B649FFF7ADFA07F52B
:103210000060B549FFF7A8FA07F61C0307F502603E
:10322000A9491C6087F81858FFF79EFA07F638007E
:10323000AE49FFF799FA07F50560AD49FFF794FA33
:1032400007F66C0307F507609F4987F8686883ED08
:10325000008AFFF789FA07F68800A649FFF784FA83
:1032600007F50A60A449FFF77FFA07F6BC0307F5E4
:103270000C6095491C6087F8B858FFF775FA07F697
:10328000D8009E49FFF770FA07F50F609C49FFF7D9
:103290006BFA07F60C1307F511608B491C6087F871
:1032A0000859FFF761FA07F628109649FFF75CFA0C
:1032B00007F514609449FFF757FA07F65C1307F512
:1032C000166081491C6087F85859FFF74DFA07F6D8
:1032D00078108E49FFF748FA07F519608C49FFF717
:1032E00043FA07F6AC1307F51B6077491C6087F8B3
:1032F000A859FFF739FA07F6C8108649FFF734FADC
:1033000007F51E608449FFF72FFA07F6FC1307F54F
:1033100020606D4987F8F86983ED008AFFF724FA89
:1033200007F618207D49FFF71FFA07F523607C494F
:10333000FFF71AFA07F64C2307F5256062491C606F
:1033400087F8485AFFF710FA07F668207549FFF723
:103350000BFA07F528607449FFF706FA07F69C2375
:1033600007F52A6058491C6087F8985AFFF7FCF95E
:1033700007F6B8206D49FFF7F7F907F52D606C499E
:10338000FFF7F2F907F6EC2307F52F604E491C60B2
:1033900087F8E85AFFF7E8F907F608306549FFF7BC
:1033A000E3F907F532606449FFF7DEF907F63C33CD
:1033B00007F53460444987F8386B83ED008AFFF7DE
:1033C000D3F907F658305D49FFF7CEF907F53760B6
:1033D0005B49FFF7C9F907F68C3307F539603A49BD
:1033E00087F8888B1C60FFF7BFF907F6A8305549AE
:1033F000FFF7BAF907F53C605349FFF7B5F907F64F
:10340000DC3307F53E6030491C6087F8D85BFFF776
:10341000ABF907F6F8304D49FFF7A6F907F541601B
:103420004B49FFF7A1F907F62C4307F543602649FE
:103430001C6087F8285CFFF797F907F64840454974
:10344000FFF792F907F546604349FFF78DF907F654
:103450007C4307F548601C491C6087F8785CFFF7DF
:1034600083F907F698403D49FFF77EF907F54B6071
:103470003B49FFF779F907F6CC4307F54D60124950
:1034800087F8C88C1C60FFF76FF907F6E8403549EC
:10349000FFF76AF907F550603349FFF765F907F65A
:1034A0001C5307F55260084987F8188D1C60FFF718
:1034B0005BF907F638502D49FFF756F958E000BF81
:1034C00012F9010817F9010832F801081FF901087B
:1034D00024F901082DF9010832F901083CF9010825
:1034E00041F901084CF9010851F901085BF901089B
:1034F00060F901086CF9010871F901087DF901080A
:1035000082F901088DF9010892F901089CF9010876
:10351000A1F90108ADF90108B2F90108BFF90108E4
:10352000C4F90108D0F90108D5F90108E2F9010848
:10353000E7F90108F3F90108F8F90108FFF90108B2
:1035400063FA010804FA010809FA010814FA0108EB
:1035500019FA010825FA0108DD1002082AFA010803
:103560002FFA01083AFA01083FFA01084CFA01085B
:1035700007F55560D749FFF7F7F807F66C5307F5DD
:103580005760D54987F8686D1C60FFF7EDF807F6BE
:103590008850D249FFF7E8F807F55A60D049FFF79D
:1035A000E3F807F6BC5307F55C60CB491C6087F86D
:1035B000B85DFFF7D9F807F6D850CA49FFF7D4F835
:1035C00007F55F60C849FFF7CFF807F60C6307F50A
:1035D0006160C1491C6087F8085EFFF7C5F807F60F
:1035E0002860C249FFF7C0F807F56460C049FFF7DB
:1035F000BBF807F65C6307F56660B7491C6087F89F
:10360000585EFFF7B1F807F67860BA49FFF7ACF8F3
:1036100007F56960B849FFF7A7F807F6AC6307F547
:103620006B60AD491C6087F8A85EFFF79DF807F650
:10363000C860B249FFF798F807F56E60B049FFF728
:1036400093F807F6FC6307F57060A3491C6087F8E0
:10365000F85EFFF789F807F61870AA49FFF784F8B3
:1036600007F57360A849FFF77FF807F64C7307F575
:10367000756099491C6087F8485FFFF775F807F691
:103680006870A249FFF770F807F57860A049FFF766
:103690006BF807F69C7307F57A608F491C6087F812
:1036A000985FFFF761F807F6B8709A49FFF75CF882
:1036B00007F57D609849FFF757F807F6EC7307F5B3
:1036C0007F6085491C6087F8E85FFFF74DF89349F4
:1036D0009348FFF749F807F581509249FFF744F8FE
:1036E00007F582507C4989F83850C9F83C40FFF70B
:1036F0003BF809F158008C49FFF736F809F17000E2
:103700008A49FFF731F809F19000734989F8885028
:10371000C9F88C40FFF728F809F1A8008449FFF7A1
:1037200023F807F586508349FFF71EF807F5875001
:10373000694989F8D850C9F8DC40FFF715F809F154
:10374000F8007D49FFF710F809F588707B49FFF70D
:103750000BF809F59870604989F82851C9F82C418F
:10376000FFF702F809F5A4707549FEF7FDFF07F5AC
:103770008B507449FEF7F8FF07F58C50564989F8CD
:103780007851C9F87C41FEF7EFFF09F5CC706E491E
:10379000FEF7EAFF09F5D8706C49FEF7E5FF09F579
:1037A000E8704D4989F8C86189ED738AFEF7DCFF3E
:1037B00009F5F4706649FEF7D7FF07F590506549A3
:1037C000FEF7D2FF07F59150434989F81852C9F81E
:1037D0001C42FEF7C9FF09F50E705F49FEF7C4FFF2
:1037E00009F514705D49FEF7BFFF09F51C703A49F1
:1037F00089F86852C9F86C42FEF7B6FF09F52270E5
:103800005749FEF7B1FF07F595505649FEF7ACFF53
:1038100007F59650304989F8B852C9F8BC42FEF70E
:10382000A3FF09F536705049FEF79EFF09F53C707D
:103830004E49FEF799FF09F54470274989F8085366
:10384000C9F80C43FEF790FF09F54A704849FEF7A6
:103850008BFF07F59A504749FEF786FF07F59B5007
:103860001D4989F85853C9F85C43FEF77DFF09F5F7
:103870005E704149FEF778FF09F564703F49FEF735
:1038800073FF09F56C70144989F8A883C9F8AC4333
:10389000FEF76AFF09F572703949FEF765FF07F513
:1038A0009F503849FEF760FF07F5A0500A4989F894
:1038B000F853C9F8FC43FEF757FF09F58360324916
:1038C000FEF752FF09F586603049FEF74DFF09F219
:1038D0004C435DE051FA010832F801085CFA010836
:1038E00061FA01086CFA010871FA010878FA010816
:1038F0007DFA010884FA010889FA010890FA0108A2
:1039000095FA01089CFA0108A1FA0108A8FA010831
:10391000ADFA0108B4FA0108B9FA0108C1FA0108C0
:10392000041C0024C6FA0108CEFA0108D3FA0108E3
:10393000DBFA0108E0FA0108E8FA0108EDFA0108EB
:10394000F5FA0108FAFA010802FB010807FB010871
:1039500013FB010818FB010825FB01082AFB0108DD
:1039600033FB010838FB01083FFB010844FB010859
:1039700050FB010855FB01085FFB0108D50F020849
:1039800064FB010869FB010873FB010846F70108A5
:1039900009F58A60D4491C6089F84854FEF7E4FEB2
:1039A00009F58D60D149FEF7DFFE07F5A450D04937
:1039B000FEF7DAFE09F29C4307F5A550CA491C60E0
:1039C00089F89854FEF7D0FE09F59760C949FEF7CB
:1039D000CBFE09F59A60C849FEF7C6FE09F2EC4332
:1039E00009F59E60C0491C6089F8E854FEF7BCFEEA
:1039F00009F5A160C149FEF7B7FE07F5A950C04916
:103A0000FEF7B2FE09F23C5307F5AA50B6491C6016
:103A100089F83855FEF7A8FE09F5AB60B949FEF7FD
:103A2000A3FE09F5AE60B849FEF79EFE09F28C537D
:103A300009F5B260AC491C6089F88855FEF794FE20
:103A400009F5B560B149FEF78FFE07F5AE50B049F4
:103A5000FEF78AFE09F2DC5307F5AF50A2491C605D
:103A600089F8D855FEF780FE09F5BF60A949FEF731
:103A70007BFE09F5C260A849FEF776FE09F22C63C9
:103A800009F5C660984989F828861C60FEF76CFE27
:103A900009F5C960A149FEF767FE07F5B350A049D3
:103AA000FEF762FE09F27C6307F5B4508E4989F88F
:103AB000786683ED008AFEF757FE09F5D3609949D1
:103AC000FEF752FE09F5D6609749FEF74DFE09F262
:103AD000CC6309F5DA60844989F8C86683ED008A09
:103AE000FEF742FE09F5DD609049FEF73DFE07F561
:103AF000B8508F49FEF738FE09F21C7307F5B9502C
:103B0000794989F818871C60FEF72EFE09F5E760F1
:103B10008849FEF729FE09F5EA608749FEF724FE89
:103B200009F26C7309F5EE606F491C6089F86857FB
:103B3000FEF71AFE09F5F1608049FEF715FE07F55C
:103B4000BD507F49FEF710FE09F2BC7307F5BE5069
:103B500065491C6089F8B857FEF706FE09F5FB6059
:103B60007849FEF701FE09F5FE607749FEF7FCFD96
:103B700009F60C0309F501605B491C6089F80858D7
:103B8000FEF7F2FD09F628007049FEF7EDFD07F596
:103B9000C2506F49FEF7E8FD09F65C0307F5C35014
:103BA000514989F858881C60FEF7DEFD09F6780057
:103BB0006849FEF7D9FD09F509606749FEF7D4FDAC
:103BC00009F6AC0309F50B6047491C6089F8A85851
:103BD000FEF7CAFD09F6C8006049FEF7C5FD07F506
:103BE000C7505F49FEF7C0FD09F6FC0307F5C85052
:103BF0003D491C6089F8F858FEF7B6FD09F6181023
:103C00005849FEF7B1FD09F513605749FEF7ACFDC1
:103C100009F64C1309F5156033491C6089F84859B9
:103C2000FEF7A2FD09F668105049FEF79DFD07F565
:103C3000CC504F49FEF798FD09F69C1307F5CD507F
:103C400029491C6089F89859FEF78EFD09F6B810CD
:103C50004849FEF789FD09F51D604749FEF784FDD7
:103C600009F6EC1309F51F601F491C6089F8E85933
:103C7000FEF77AFD09F608204049FEF775FD07F5C5
:103C8000D1503F49FEF770FD09F63C2307F5D250AD
:103C900015491C6089F8385AFEF766FD09F6582068
:103CA0003849FEF761FD09F527603749FEF75CFDED
:103CB00009F68C2309F529600B491C6089F8885A9C
:103CC000FEF752FD09F6A8203049FEF74DFD07F535
:103CD000D6502F49FEF748FD09F6DC2309F52E6082
:103CE00001491C6056E000BF32F8010878FB01086A
:103CF0007DFB010888FB01088DFB010895FB01088D
:103D00009AFB0108A7FB0108ACFB0108B8FB0108FE
:103D1000BDFB0108C5FB0108CAFB0108D7FB010870
:103D2000DCFB0108E9FB0108EEFB0108FBFB0108D5
:103D300000FC01080BFC010810FC01081AFC01083A
:103D40001FFC010829FC01082EFC01083AFC0108AF
:103D50003FFC01084BFC010850FC010859FC01081C
:103D60005EFC010867FC01086CFC010876FC010898
:103D70007BFC010888FC01088DFC010899FC010806
:103D80009EFC0108A9FC0108AEFC0108B8FC010872
:103D9000BDFC010889F8D85AFEF7E6FC09F6F820C0
:103DA000D849FEF7E1FC09F53160D749FEF7DCFCA4
:103DB00009F62C3309F53360D4491C6089F8285B77
:103DC000FEF7D2FC09F64830D149FEF7CDFC07F5E5
:103DD000DB50D049FEF7C8FC09F67C3309F53860A2
:103DE000CA491C6089F8785BFEF7BEFC09F698307A
:103DF000C949FEF7B9FC09F53B60C849FEF7B4FCB8
:103E000009F6CC3309F53D60C04989F8C88B1C60C0
:103E1000FEF7AAFC09F6E830C149FEF7A5FC07F554
:103E2000E050C049FEF7A0FC09F61C4309F54260CA
:103E3000B64989F8188C1C60FEF796FC09F63840E4
:103E4000B949FEF791FC09F54560B849FEF78CFCCD
:103E500009F66C4309F54760AC4989F8688C1C6029
:103E6000FEF782FC09F68840B149FEF77DFC07F5B4
:103E7000E550B049FEF778FC09F6BC4309F54C6003
:103E8000A2491C6089F8B85CFEF76EFC09F6D840C0
:103E9000A949FEF769FC09F54F60A849FEF764FCE3
:103EA00009F60C5309F55160984989F8086D83EDBE
:103EB000008AFEF759FC09F62850A149FEF754FC88
:103EC00007F5EA509F49FEF74FFC09F65C5309F5E8
:103ED00056608E4989F8586D83ED008AFEF744FCE0
:103EE00009F678509849FEF73FFC09F55960974963
:103EF000FEF73AFC09F6AC5309F55B60834989F893
:103F0000A86D83ED008AFEF72FFC09F6C850904992
:103F1000FEF72AFC07F5EF508E49FEF725FC09F65F
:103F2000FC5309F56060794989F8F88D1C60FEF74B
:103F30001BFC09F618608849FEF716FC09F563605A
:103F40008649FEF711FC09F64C6309F565606F4977
:103F500089F8486E83ED008AFEF706FC09F6686072
:103F60007F49FEF701FC07F5F4507E49FEF7FCFBA4
:103F700009F69C6309F56A60644989F8986E83EDD7
:103F8000008AFEF7F1FB09F6B8607749FEF7ECFB13
:103F900009F56D607549FEF7E7FB09F6EC6309F575
:103FA0006F605A4989F8E86E83ED008AFEF7DCFB02
:103FB00009F608706E49FEF7D7FB07F5F9506D4911
:103FC000FEF7D2FB09F63C7309F574604F4989F896
:103FD000385F1C60FEF7C8FB09F658706649FEF7AB
:103FE000C3FB09F577606549FEF7BEFB09F68C73E4
:103FF00009F5796045491C6089F8888FFEF7B4FBA4
:1040000009F6A8705E49FEF7AFFB07F5FE505D4963
:1040100009F6DC79FEF7A8FB07F5FF503B4907F5E9
:10402000005709F8046C89ED008AFEF79DFB09F141
:104030001C005549FEF798FB09F13400534907F578
:104040008059FEF791FB07F13000304907F5865B98
:1040500087F8286087ED0B8AFEF786FB07F148009A
:104060004B49FEF781FB07F160004A49FEF77CFBF4
:1040700007F18000254987F87850FC67FEF774FB4C
:1040800007F198004449FEF76FFB07F1B000434980
:10409000FEF76AFB07F1D0001C49C7F8CC4087F84F
:1040A000C8A0FEF761FB07F1E8003D49FEF75CFBA5
:1040B00007F580703B49FEF757FB07F590701349F1
:1040C00087F8186187ED478AFEF74EFB07F59C706D
:1040D0003549FEF749FB07F5A8703449FEF744FB64
:1040E00007F5B870094987F86881C7F86C41FEF791
:1040F0003BFB07F5C4702E49FEF736FB07F5D07081
:1041000058E000BFC9FC0108CEFC010832F80108E4
:10411000D8FC0108DDFC0108E9FC0108EEFC0108FF
:10412000F9FC0108FEFC010807FD01080CFD01086F
:1041300015FD010822F801081AFD0108E510020822
:104140001FFD0108F010020824FD0108E00F02081D
:1041500029FD01082EFD010838FD01083DFD01087B
:104160004AFD01084FFD010859FD0108E90F020849
:104170005EFD010863FD01086FFD010874FD010883
:104180007DFD010882FD01088EFD010893FD0108F7
:104190009EFD0108A3FD0108AFFD0108B4FD010863
:1041A000BDFD0108C2FD0108C9FD0108CEFD0108E1
:1041B000D8FD0108D849FEF7D7FA07F5E070D749CE
:1041C00087F8B86187ED6F8AFEF7CEFA07F5EC70D5
:1041D000D349FEF7C9FA07F5F870D249FEF7C4FAD9
:1041E00007F50470CD4987F8086287ED838AFEF7EA
:1041F000BBFA07F50A70CC49FEF7B6FA07F510705E
:10420000CA49FEF7B1FA07F51870C44987F8588211
:10421000C7F85C42FEF7A8FA07F51E70C449FEF71E
:10422000A3FA07F52470C349FEF79EFA07F52C7030
:10423000BA4987F8A882C7F8AC42FEF795FA07F5A5
:104240003270BD49FEF790FA07F53870BB49FEF7AA
:104250008BFA07F54070B14987F8F852C7F8FC426D
:10426000FEF782FA07F54670B549FEF77DFA07F5C5
:104270004C70B449FEF778FA07F55470A74987F8EF
:104280004883C7F84C43FEF76FFA07F55A70AE49FA
:10429000FEF76AFA07F56070AC49FEF765FA07F5B4
:1042A00068709E4987F8986387EDE78AFEF75CFAA5
:1042B00007F56E70A649FEF757FA07F57470A54921
:1042C000FEF752FA07F57C70944987F8E86387EDAA
:1042D000FB8AFEF749FA07F581609F49FEF744FA29
:1042E00007F584609D49FEF73FFA07F23C4307F566
:1042F00088608A491C6087F83854FEF735FA07F55C
:104300008B609749FEF730FA07F58E609549FEF706
:104310002BFA07F28C4307F59260804987F888648E
:104320001C60FEF721FA07F595608F49FEF71CFA2D
:1043300007F598608D49FEF717FA07F2DC4307F599
:104340009C60764987F8D86483ED008AFEF70CFA02
:1043500007F59F608649FEF707FA07F5A2608549D1
:10436000FEF702FA07F22C5307F5A6606B4987F8AF
:10437000286583ED008AFEF7F7F907F5A9607E4905
:10438000FEF7F2F907F5AC607C49FEF7EDF907F2AC
:104390007C5307F5B06061491C6087F87855FEF7DB
:1043A000E3F907F5B3607649FEF7DEF907F5B66085
:1043B0007449FEF7D9F907F2CC5307F5BA605749AB
:1043C0001C6087F8C855FEF7CFF907F5BD606E4948
:1043D000FEF7CAF907F5C0606C49FEF7C5F907F2A8
:1043E0001C6307F5C4604D491C6087F81856FEF73A
:1043F000BBF907F5C7606649FEF7B6F907F5CA606D
:104400006449FEF7B1F907F26C6307F5CE604349E2
:1044100087F8686683ED008AFEF7A6F907F5D16094
:104420005D49FEF7A1F907F5D4605C49FEF79CF9F8
:1044300007F2BC6307F5D860384987F8B86683EDA2
:10444000008AFEF791F907F5DB605549FEF78CF914
:1044500007F5DE605349FEF787F907F20C7307F59D
:10446000E2602E491C6087F80857FEF77DF907F5D2
:10447000E5604D49FEF778F907F5E8604B49FEF72E
:1044800073F907F25C7307F5EC60244987F8586705
:1044900083ED008AFEF768F907F5EF604449FEF7FF
:1044A00063F907F5F2604349FEF75EF907F2AC7372
:1044B00007F5F660194987F8A8871C60FEF754F9DC
:1044C00007F5F9603C49FEF74FF907F5FC603B49F9
:1044D000FEF74AF907F2FC7307F500600F4987F809
:1044E000F8871C60FEF740F907F618003449FEF71C
:1044F0003BF907F503603349FEF736F907F64C033D
:1045000007F50560054987F848681C60FEF72CF937
:1045100007F6680058E000BFDDFD010832F8010829
:10452000E8FD0108EDFD0108F6FD0108FBFD0108AD
:1045300006FE01080BFE010816FE01081BFE01081D
:1045400024FE010829FE010833FE01084D0202087D
:1045500038FE01083C0202083DFE010842FE010847
:104560000AF8010806F801084AFE01084FFE010892
:104570005AFE01085FFE01081CF8010822F8010834
:1045800069FE01086EFE010879FE01084301020878
:104590007EFE010883FE01088BFE010890FE0108E3
:1045A00096FE01089BFE0108FE100208A5FE010808
:1045B000ABFE0108B0FE0108BCFE0108C1FE010807
:1045C0002DF8010829F80108D749FEF7CDF807F5BD
:1045D0000860D649FEF7C8F807F69C0307F50A609D
:1045E000D3491C6087F89858FEF7BEF807F6B80064
:1045F000D049FEF7B9F807F50D60CF49FEF7B4F8DA
:1046000007F6EC0307F50F60C9491C6087F8E85806
:10461000FEF7AAF807F60810C849FEF7A5F807F54F
:104620001260C749FEF7A0F807F63C1307F51460BF
:10463000BF491C6087F83859FEF796F807F65810FE
:10464000C049FEF791F807F51760BF49FEF78CF8EF
:1046500007F68C1307F51960B54987F8886983ED6B
:10466000008AFEF781F807F6A810B849FEF77CF833
:1046700007F51C60B649FEF777F807F6DC1307F577
:104680001E60AB4987F8D86983ED008AFEF76CF8A5
:1046900007F6F810AF49FEF767F807F52160AE4955
:1046A000FEF762F807F62C2307F52360A04987F888
:1046B000286A83ED008AFEF757F807F64820A749D5
:1046C000FEF752F807F52660A549FEF74DF807F604
:1046D0007C2307F52860964987F8786A83ED008A7D
:1046E000FEF742F807F698209E49FEF73DF807F5D9
:1046F0002B609D49FEF738F807F6CC2307F52D60AF
:104700008B4987F8C86A83ED008AFEF72DF807F613
:10471000E8209649FEF728F807F530609449FEF73F
:1047200023F807F61C3307F53260814987F8186BC8
:1047300083ED008AFEF718F807F638308D49FEF74A
:1047400013F807F535608C49FEF70EF807F66C3361
:1047500007F53760764987F8686B83ED008AFEF7C6
:1047600003F807F688308549FDF7FEFF07F53A6044
:104770008349FDF7F9FF07F6BC3307F53C606C4948
:1047800087F8B86B83ED008AFDF7EEFF07F6D830A7
:104790007C49FDF7E9FF07F53F607B49FDF7E4FF42
:1047A00007F60C4307F5416061491C6087F8085C17
:1047B000FDF7DAFF07F628407449FDF7D5FF07F546
:1047C00044607349FDF7D0FF07F65C4307F5466088
:1047D00057491C6087F8585CFDF7C6FF07F678401C
:1047E0006C49FDF7C1FF07F549606B49FDF7BCFF58
:1047F00007F6AC4307F54B604D491C6087F8A85C91
:10480000FDF7B2FF07F6C8406449FDF7ADFF07F5B5
:104810004E606349FDF7A8FF07F6FC4307F55060BB
:1048200043491C6087F8F85CFDF79EFF07F61850B7
:104830005C49FDF799FF07F553605B49FDF794FF6D
:1048400007F64C5307F5556039491C6087F8485DF9
:10485000FDF78AFF07F668505449FDF785FF07F515
:1048600058605349FDF780FF07F69C5307F55A60DF
:104870002F4987F8988D1C60FDF776FF07F6B85032
:104880004C49FDF771FF07F55D604B49FDF76CFF83
:1048900007F6EC5307F55F60254987F8E88D1C6043
:1048A000FDF762FF07F608604449FDF75DFF07F575
:1048B00062604349FDF758FF07F63C6307F5646003
:1048C0001B4987F8388E1C60FDF74EFF07F65860CD
:1048D0003C49FDF749FF07F567603B49FDF744FF99
:1048E00007F68C6307F56960114987F8888E1C60AC
:1048F000FDF73AFF07F6A8603449FDF735FF07F5E5
:104900006C603349FDF730FF07F6DC6307F56E6036
:10491000074987F8D88E1C60FDF726FF07F6F86078
:104920002C49FDF721FF57E0CCFE010803100208D7
:1049300032F80108D1FE0108D6FE0108E2FE0108A6
:10494000E7FE0108F3FE0108F8FE010803FF010875
:1049500008FF010812FF010817FF010823FF0108E3
:1049600028FF010833FF010838FF010843FF010851
:1049700048FF010852FF010857FF010862FF0108C4
:1049800067FF010871FF010876FF010880FF010839
:1049900085FF010890FF010895FF0108A0FF0108AD
:1049A000A5FF0108AEFF0108B3FF0108BEFF010823
:1049B000C3FF0108CDFF0108D2FF0108DBFF01089A
:1049C000E0FF0108E8FF0108EDFF0108F5FF01081D
:1049D000FAFF01080200020807F57160D849FDF7E7
:1049E000C3FE07F62C7307F57360D64987F8288F46
:1049F0001C60FDF7B9FE07F64870D349FDF7B4FE19
:104A000007F57660D149FDF7AFFE07F67C7307F531
:104A10007860CC4987F8788F1C60FDF7A5FE07F613
:104A20009870CB49FDF7A0FE07F57B60C949FDF7FB
:104A30009BFE07F6CC7307F57D60C2491C6087F8C2
:104A4000C88FFDF791FE07F6E870C349FDF78CFEAD
:104A50004846C249FDF788FE07F58150B94989F8F3
:104A60001880C9F81C40FDF77FFE09F13800BC49E9
:104A7000FDF77AFE09F15000BA49FDF775FE09F11C
:104A80007000B04989F86880C9F86C40FDF76CFE89
:104A900009F18800B449FDF767FE07F58550B34971
:104AA000FDF762FEA749584689F8B880C9F8BC40AE
:104AB000FDF75AFE09F1D800AD49FDF755FE09F1A1
:104AC000F000AC49FDF750FE09F588709D4989F862
:104AD0000881C9F80C41FDF747FE09F59470A64915
:104AE000FDF742FE07F58A50A449FDF73DFE07F5A4
:104AF0008B50944989F85881C9F85C41FDF734FE20
:104B000009F5BC709E49FDF72FFE09F5C8709D4957
:104B1000FDF72AFE09F5D8708A4989F8A881C9F8F5
:104B2000AC41FDF721FE09F5E4709749FDF71CFE45
:104B300007F58F509549FDF717FE07F5905081490D
:104B400089F8F881C9F8FC41FDF70EFE09F50670F9
:104B50008F49FDF709FE09F50C708E49FDF704FE3B
:104B600009F51470774989F84882C9F84C42FDF775
:104B7000FBFD09F51A708849FDF7F6FD07F594501D
:104B80008649FDF7F1FD07F595506E4989F8988241
:104B9000C9F89C42FDF7E8FD09F52E708049FDF744
:104BA000E3FD09F534707F49FDF7DEFD09F53C7042
:104BB000644989F8E882C9F8EC42FDF7D5FD09F5AA
:104BC00042707949FDF7D0FD07F599507749FDF717
:104BD000CBFD07F59A505B4989F83883C9F83C4307
:104BE000FDF7C2FD09F556707149FDF7BDFD09F5E8
:104BF0005C707049FDF7B8FD09F56470514989F89A
:104C00008883C9F88C43FDF7AFFD09F56A706A49DE
:104C1000FDF7AAFD07F59E506849FDF7A5FD07F5CC
:104C20009F50484989F8D883C9F8DC43FDF79CFDBB
:104C300009F57E706249FDF797FD09F582606149CB
:104C4000FDF792FD09F586603E4989F82884CBF886
:104C50006C43FDF789FD09F589605B49FDF784FD2B
:104C600007F5A3505949FDF77FFD07F5A4503549D5
:104C700089F87884CBF8BC43FDF776FD09F593609D
:104C80005349FDF771FD09F596605249FDF76CFD3A
:104C900009F2CC4309F59A602A4989F8C8841C6056
:104CA000FDF762FD09F59D604B49FDF75DFD07F5D8
:104CB000A8504A49FDF758FD09F21C5307F5A950C1
:104CC0002049474F1C6089F81885FDF74DFD09F50F
:104CD000A7604449FDF748FD09F5AA604249FDF780
:104CE00043FD3846414940F8044B89F86885FDF793
:104CF0003BFD07F11C003E49FDF736FD07F134008E
:104D00003C49FDF731FD07F15400384989F8B86591
:104D100087ED148AFDF728FD07F16C003649FDF791
:104D200023FD07F184003549FDF71EFD07F1A400BE
:104D30002E4989F8086687ED288AFDF715FD5FE0A2
:104D40000700020832F801080F00020814000208E8
:104D50001C00020821000208290002082E00020897
:104D6000370002083C0002084A0002084F0002080F
:104D70005C000208610002086B000208ACFB01083D
:104D80007000020875000208800002088500020811
:104D9000071102088E000208990002089E0002080E
:104DA000A8000208AD000208B6000208BB00020815
:104DB000C4000208C9000208D50002081FFC01084F
:104DC0001210020882F90108DA000208DF00020866
:104DD0002B110208E7000208EE000208F3000208A7
:104DE00068410024FD000208020102080D010208CA
:104DF00040F801086EF8010845F801084AF8010872
:104E000007F1BC00D949FDF7AFFC07F1D400D84940
:104E1000FDF7AAFC07F1F400D64989F8586687ED3A
:104E20003C8AFDF7A1FC07F58670D349FDF79CFC91
:104E300007F59270D149FDF797FC07F5A270CD49AF
:104E400089F8A86687ED508AFDF78EFC07F5AE70ED
:104E5000CB49FDF789FC07F5BA70CA49FDF784FC18
:104E600007F5CA70C34989F8F86687ED648AFDF7CB
:104E70007BFC07F5D670C449FDF776FC07F5E270B8
:104E8000C249FDF771FC07F5F270BA4989F8485735
:104E9000C7F8E041FDF768FC07F5FE70BC49FDF777
:104EA00063FC07F50570BB49FDF75EFC07F50D7067
:104EB000B04989F8986787ED8C8AFDF755FC07F5AE
:104EC0001370B549FDF750FC07F51970B349FDF7AC
:104ED0004BFC07F52170A74989F8E86787EDA08AA0
:104EE000FDF742FC07F52770AD49FDF73DFC07F5DE
:104EF0002D70AC49FDF738FC07F535709D4989F8F0
:104F00003858C7F8D042FDF72FFC07F53B70A6498B
:104F1000FDF72AFC07F54170A449FDF725FC07F5CC
:104F20004970944989F88858C7F82043FDF71CFC5C
:104F300007F54F709E49FDF717FC07F555709D4921
:104F4000FDF712FC07F55D708A4989F8D858C7F853
:104F50007043FDF709FC07F563709749FDF704FC02
:104F600007F569709549FDF7FFFB07F571708149F9
:104F700089F82859C7F8C043FDF7F6FB07F57770A5
:104F80008F49FDF7F1FB07F57D708E49FDF7ECFBCE
:104F900007F5826307F2144076491C6089F8785956
:104FA000FDF7E2FB07F22C408749FDF7DDFB07F236
:104FB00044408649FDF7D8FB07F58C6307F264404F
:104FC0006C4989F8C86983ED008AFDF7CDFB07F2CB
:104FD0007C407F49FDF7C8FB07F294407D49FDF70F
:104FE000C3FB07F5966307F2B440624989F8188A53
:104FF0001C60FDF7B9FB07F2CC407749FDF7B4FB25
:1050000007F2E4407549FDF7AFFB07F5A06307F22F
:105010000450584989F8686A83ED008AFDF7A4FBBB
:1050200007F21C506E49FDF79FFB07F234506D49A3
:10503000FDF79AFB07F5AA6307F254504D4989F82A
:10504000B86A83ED008AFDF78FFB07F26C50664962
:10505000FDF78AFB07F284506449FDF785FB07F5ED
:10506000B46307F2A45043491C6089F8085BFDF75C
:105070007BFB07F2BC505E49FDF776FB07F2D4508C
:105080005C49FDF771FB07F5BE6307F2F45039493F
:105090001C6089F8585BFDF767FB07F20C60564906
:1050A000FDF762FB07F224605449FDF75DFB07F54D
:1050B000C86307F244602F491C6089F8A85BFDF7BC
:1050C00053FB07F25C604E49FDF74EFB07F274603C
:1050D0004C49FDF749FB07F5D26307F29460254977
:1050E00089F8F86B83ED008AFDF73EFB07F2AC60B0
:1050F0004549FDF739FB07F2C4604449FDF734FB2D
:1051000007F5DC6307F2E4601A491C6089F8485C23
:10511000FDF72AFB07F2FC603D49FDF725FB07F28E
:1051200014703C49FDF720FB09F69C4307F23470EC
:1051300010491C6089F8985CFDF716FB07F24C706B
:105140003549FDF711FB07F264703449FDF70CFB9C
:1051500009F6EC4307F2847006491C6089F8E85CA4
:10516000FDF702FB07F29C705AE000BF57F80108F8
:105170005CF801080D01020866F801086BF80108E7
:1051800075F801087AF8010883F8010888F8010821
:1051900091F8010896F801089FF80108A4F80108A1
:1051A000ADF80108B2F80108BDF80108C2F801081D
:1051B000CDF80108D2F80108DFF80108E4F8010889
:1051C000ECF80108F1F80108FBF80108C80F020823
:1051D00000F9010805F9010812F9010817F9010899
:1051E0001FF9010824F901082DF9010832F9010815
:1051F0003CF9010841F901084CF9010851F901088D
:105200005BF9010860F901086CF9010871F90108FE
:105210007DF9010882F901088DF9010892F9010868
:10522000D949FDF7A1FA07F2B470D849FDF79CFA05
:1052300009F63C5307F2D470D5491C6089F8385DF3
:10524000FDF792FA07F2EC70D249FDF78DFA07F6F6
:105250000400D149FDF788FA09F68C5307F62400BB
:10526000CB4989F8886D83ED008AFDF77DFA07F652
:105270003C00CA49FDF778FA07F65400C849FDF723
:1052800073FA09F6DC5307F67400C1491C6089F80B
:10529000D85DFDF769FA07F68C00C249FDF764FA9C
:1052A00007F6A400C049FDF75FFA09F62C6307F67C
:1052B000C400B7491C6089F8285EFDF755FA07F667
:1052C000DC00BA49FDF750FA07F6F400B849FDF7DB
:1052D0004BFA09F67C6307F61410AD491C6089F897
:1052E000785EFDF741FA07F62C10B249FDF73CFA5B
:1052F00007F64410B049FDF737FA09F6CC6307F614
:105300006410A34989F8C86E83ED008AFDF72CFA72
:1053100007F67C10A949FDF727FA07F69410A8496B
:10532000FDF722FA09F61C7307F6B410984989F8BC
:10533000188F1C60FDF718FA07F6CC10A149FDF78D
:1053400013FA07F6E410A049FDF70EFA09F66C739C
:1053500007F604208E491C6009F6BC7909F8545CF4
:10536000FDF702FA07F61C209849FDF7FDF907F64C
:1053700034209749FDF7F8F907F65420844909F8D5
:10538000045CC9F80040FDF7EFF907F66C2091497D
:1053900007F69429FDF7E8F907F684208E49FDF712
:1053A000E3F907F6A4207A4989F80850C9F80C40B7
:1053B000FDF7DAF907F6BC208849FDF7D5F907F6BD
:1053C000D4208749FDF7D0F907F6F420704989F811
:1053D0005880C9F85C40FDF7C7F907F60C308149E1
:1053E000FDF7C2F907F624307F49FDF7BDF907F64E
:1053F0004430674989F8A880C9F8AC40FDF7B4F992
:1054000007F65C307949FDF7AFF907F67430784953
:10541000FDF7AAF907F694305D4989F8F880C9F8D4
:10542000FC40FDF7A1F907F6AC307249FDF79CF995
:1054300007F6C4307049FDF797F907F6E430544990
:1054400089F84861C9F84C41FDF78EF907F6FC3040
:105450006A49FDF789F907F614406949FDF784F9AF
:1054600007F634404A4989F89851C9F89C41FDF73C
:105470007BF907F64C406349FDF776F907F664407F
:105480006149FDF771F907F68440414989F8E8510F
:10549000C9F8EC41FDF768F907F69C405B49FDF758
:1054A00063F907F6B4405A49FDF75EF907F6D440B0
:1054B000374989F83852C9F83C42FDF755F907F6E3
:1054C000EC405449FDF750F907F604505249FDF7F6
:1054D0004BF907F624502E4989F88852C9F88C42B6
:1054E000FDF742F907F63C504C49FDF73DF907F648
:1054F00054504B49FDF738F907F67450244989F8A0
:10550000D852C9F8DC42FDF72FF907F68C5045490F
:10551000FDF72AF907F6A4504349FDF725F907F6E8
:10552000C4501B4989F82853C9F82C43FDF71CF9CE
:1055300007F6DC503D49FDF717F907F6F4503C49F2
:10554000FDF712F907F61460114989F87853C9F884
:105550007C43FDF709F907F62C603649FDF704F99D
:1055600007F644603449FDF7FFF807F66460084920
:1055700089F8C853C9F8CC43FDF7F6F807F67C6004
:105580002E49FDF7F1F85BE09CF90108A1F901084B
:105590000D010208ADF90108B2F90108BFF90108CF
:1055A000C4F90108D0F90108D5F90108E2F90108A8
:1055B000E7F90108F3F90108F8F90108FFF9010812
:1055C00063FA010804FA010809FA010814FA01084B
:1055D00019FA010825FA0108DD1002081B0102086A
:1055E000200102082AFA01082FFA01083AFA0108F4
:1055F0003FFA01084CFA010851FA01086CFA010857
:1056000071FA010878FA01087DFA010884FA0108A4
:1056100089FA010890FA010895FA01089CFA010834
:10562000A1FA0108A8FA0108ADFA0108B4FA0108C4
:10563000B9FA0108C1FA0108C6FA0108CEFA010850
:1056400007F69460D449FDF78FF807F56B6307F60A
:10565000B460D2491C6089F81854FDF785F807F644
:10566000CC60CF49FDF780F807F6E460CD49FDF73F
:105670007BF807F5706307F60470C8491C6089F869
:105680006854FDF771F807F61C70C749FDF76CF810
:1056900007F63470C549FDF767F807F5756307F637
:1056A0005470BE491C6089F8B854FDF75DF807F6E0
:1056B0006C70BF49FDF758F807F68470BD49FDF7D7
:1056C00053F807F57A6307F6A470B4491C6089F8AB
:1056D0000855FDF749F807F6BC70B749FDF744F8DF
:1056E00007F6D470B549FDF73FF807F57F6307F675
:1056F000F470AA4989F8586583ED008AFDF734F8FB
:1057000009F5AF60AE49FDF72FF809F5B260AD4974
:10571000FDF72AF807F58253A049181D1C6089F887
:10572000A855FDF721F809F5B960A749FDF71CF860
:1057300009F5BC60A549FDF717F809F2FC5309F516
:10574000C06096491C6089F8F855FDF70DF809F519
:10575000C3609F49FDF708F809F5C6609D49FDF74C
:1057600003F807F587538D49181D1C6089F84856C2
:10577000FCF7FAFF09F5CD609749FCF7F5FF09F54D
:10578000D0609649FCF7F0FF09F29C6309F5D460FC
:1057900082491C6089F89856FCF7E6FF09F5D76046
:1057A0008F49FCF7E1FF09F5DA608E49FCF7DCFF71
:1057B00007F58C537949181D1C6089F8E856FCF7E9
:1057C000D3FF09F5E1608849FCF7CEFF09F5E460F5
:1057D0008649FCF7C9FF09F23C7309F5E8606F4997
:1057E00089F838871C60FCF7BFFF09F5EB6080493A
:1057F000FCF7BAFF09F5EE607E49FCF7B5FF07F547
:1058000091536649181D1C6089F88857FCF7ACFF56
:1058100009F5F5607849FCF7A7FF09F5F8607749C5
:10582000FCF7A2FF09F2DC7309F5FC605B491C6020
:1058300089F8D857FCF798FF09F5FF607049FCF725
:1058400093FF09F501606F49FCF78EFF07F596534A
:105850005249181D1C6089F82858FCF785FF09F685
:1058600048006949FCF780FF09F506606749FCF7C5
:105870007BFF09F67C0309F5086048491C6089F83C
:105880007858FCF771FF09F698006149FCF76CFF46
:1058900009F50B605F49FCF767FF07F59B533F492C
:1058A000181D1C6089F8C858FCF75EFF09F6E8006F
:1058B0005949FCF759FF09F510605849FCF754FFA6
:1058C00009F61C1309F5126034491C6089F818594F
:1058D000FCF74AFF09F638105149FCF745FF09F576
:1058E00015605049FCF740FF07F5A0532B49181DE0
:1058F0001C6089F86859FCF737FF09F688104A4997
:10590000FCF732FF09F51A604849FCF72DFF09F64C
:10591000BC1309F51C60214989F8B8891C60FCF7A3
:1059200023FF09F6D8104249FCF71EFF09F51F6056
:105930004049FCF719FF07F5A5531849181D89F8C8
:10594000086A83ED008AFCF70FFF09F628203A4920
:10595000FCF70AFF09F524603849FCF705FF09F652
:105960005C2309F526600D4989F8586A83ED008AA1
:10597000FCF7FAFE09F678203149FCF7F5FE09F547
:1059800029603049FCF7F0FE07F5AA530349181DBA
:1059900089F8A88A58E000BFD3FA01080D0102086F
:1059A000DBFA0108E0FA0108E8FA0108EDFA01085B
:1059B000F5FA0108FAFA010802FB010807FB0108E1
:1059C00013FB010818FB010825FB01082AFB01084D
:1059D00033FB010838FB01083FFB010844FB0108C9
:1059E00050FB010855FB01085FFB0108D50F0208B9
:1059F00064FB010869FB010873FB010846F7010815
:105A000078FB01087DFB010888FB01088DFB01087C
:105A100095FB01089AFB0108A7FB0108ACFB0108F4
:105A2000B8FB0108BDFB0108C5FB0108CAFB010862
:105A3000D7FB0108DCFB0108E9FB0108EEFB0108CC
:105A4000FBFB010800FC01081C60FCF78DFE09F659
:105A5000C820D549FCF788FE09F52E60D349FCF72C
:105A600083FE09F6FC2309F53060D1491C6089F8F2
:105A7000F85AFCF779FE09F61830CE49FCF774FEA7
:105A800009F53360CC49FCF76FFE07F5AF53C84901
:105A9000181D1C6089F8485BFCF766FE09F6683043
:105AA000C649FCF761FE09F53860C549FCF75CFEA4
:105AB00009F69C3309F53A60BD491C6089F8985B8A
:105AC000FCF752FE09F6B830BE49FCF74DFE09F569
:105AD0003D60BD49FCF748FE07F5B453B449181DB5
